:020000040040BA
:10000000A03343204100400051E1400045E1400061
:1000100039E140002DE1400021E1400000000000F6
:1000200000000000000000000000000061CF400060
:1000300015E1400000000000F1CF4000F51941003B
:10004000194AD2F8883043F4700310B5C2F88830EA
:10005000BFF34F8FBFF36F8F144A154882420BD204
:10006000D34311460024034423F003030433134411
:1000700041F8044B9942FBD10E4A0F4882420CD200
:10008000D3430E490344081D23F00303034451F8EE
:10009000040B994242F8040BF9D112F08BFB0EF0DD
:1000A00087F80AF031FBFEE700ED00E00010402089
:1000B0004425432000004020AC0E402038C84100B9
:1000C0002DE9F04F2DED028B87B000AF09F0EEFD6A
:1000D00030B901201C37BD46BDEC028BBDE8F08F66
:1000E00004F0B6FC014669480FF064FC09F0E8FD35
:1000F00000F01EFF002800F0838000F067F97860B0
:10010000002800F08280012100F0BEFA0A21786800
:1001100000F0D8FA5E49786800F08AFA4FF07C5116
:10012000786800F09BFA786800F0C0F9B8600028A1
:1001300000F0908007F10C01564C00F019FABA8AD1
:10014000B2F5966F22807DD800235349B86800F03D
:1001500033FB00286ED007F10800EA4600F0F8F9FA
:10016000786800F0A3F9B860002877D022884A495F
:1001700000F01AFA00284FD0B86800F041FA0028C1
:1001800070D08CB00525DFF838B1E9469FED438A81
:1001900007F10C0305224946B86800F0F3FB00287C
:1001A00068D03E8A58464C46DFF81881314609EB44
:1001B000C6060FF0FFFB08360BE054ED017A34F869
:1001C000081C67EE887AFCEEE77A17EE902A0FF0AB
:1001D000F1FB08344046A642EFD1013DD8D1B868C2
:1001E00000F01AFA044607F1080000F0B1F9D5460C
:1001F000CCB1381D00F038F900F0D6FE284669E78A
:1002000027480FF0C5FB012064E726480FF0C0FB2C
:1002100000F0CAFE01205DE723480FF0B9FB07F1AB
:10022000080000F095F9381D00F01EF900F0BCFE42
:1002300001204FE71D480FF0ABFB07F1080000F06D
:1002400087F9F0E71A480FF0A3FB07F1080000F068
:100250007FF9E8E717480FF09BFBE4E715480FF03C
:1002600097FBE0E714480FF093FB07F1080000F05C
:100270006FF9D8E711480FF08BFBB86800F0CCF9A4
:1002800007F1080000F064F9D546CCE7444C410082
:10029000CDCC4C3E601940200010402000007A4434
:1002A000644C4100804C4100444D4100104D4100E0
:1002B000DC4C4100B44C4100744D41009C4D410068
:1002C000C44D4100D84D410038B5044658B90D4DD4
:1002D0000D4A6B6B0D49984720466B6B0C4A0B49D6
:1002E0009847204638BD02680A4B9A4207D0054B12
:1002F0000020054A5B6B05499847002038BD012066
:1003000038BD00BFA4244320344F4100444F410076
:10031000584F41004528C0AC38B50546FFF7D4FF1B
:10032000044630B105F1080001F084F9281D00F001
:1003300065FC204638BD00BF70B50D460646FFF788
:10034000C3FF044638B145B91A4B00241A4A204667
:100350005B6B1A499847204670BD194B2A689A4230
:10036000F2D1686B01F0CAF8B06030B911490446A7
:10037000144A4B6B11499847EDE706F10C0101F067
:1003800085FBB28AF368281DAA80B269AB62AB6BA9
:10039000EA62F36100F086FB70600028DBD105495A
:1003A0000446094A4B6B054998473046FFF7B4FFAE
:1003B000D1E700BFA4244320A44F4100444F410093
:1003C0004528C1AC684F4100804F4100F8B5632219
:1003D0001C493C2004F086FA044630B31A4B0360F3
:1003E00001F074FA0346606330B30025174F1426FA
:1003F000294601F00BFB00234FF4A0204FF4487175
:1004000001222372606084F82030A3631048A18128
:10041000104B1149A562E5622761A682A061E161E6
:10042000636284F830202046F8BD0C4B0C4A5B6BAD
:100430000C4998472046F8BD20461C4604F096FA21
:10044000F1E700BFF04D41004528C1ACCDCCCC3D1B
:100450008FC2F53D0AD7A33B8FC2F53CA4244320AD
:10046000084E4100444F410038B1036833B90B4B8B
:1004700000200B4A5B6B0B49184770470A4A196802
:100480009142F4D110B5044603F1340001F0ACFA06
:10049000206804F06BFA0023236010BDA4244320DD
:1004A000A44F4100444F41004528C1AC38B540B984
:1004B0001F4B00201F4A5B6B04461F49984720468C
:1004C00038BD1E4B054602689A42F1D1406B00F0E0
:1004D00067FE07EE900AF5EEC07AF1EE10FA1AD434
:1004E000A3221749202004F0FDF9044660B1154B02
:1004F00029460360FFF720FF03460028DFD120468E
:100500001C4604F033FADAE7094B0F4A5B6B0A49E1
:100510009847204638BD95F83030023B012BDFD894
:10052000034B0020094A5B6B044603499847C6E722
:10053000A4244320A44F4100444F41004528C1ACAE
:10054000F04D41004528C0AC584E4100284E4100B6
:1005500060B110B504460068FFF7DEFE00B910BDBB
:10056000206804F003FA0023236010BD704700BF29
:1005700038B50C460546FFF7A7FE38B13CB9074B26
:100580002046074A5B6B07499847204638BDE96813
:100590002A69AB8A21606260238138BDA42443208C
:1005A0008C4E4100444F410070B50C46164605463E
:1005B000FFF78AFE30B13CB90D4B20460D4A5B6B0C
:1005C0000D499847002070BD686800F035FB012890
:1005D00006D0074B0020094A5B6B07499847F1E7B3
:1005E000324621466868BDE8704000F0AFBB00BFEE
:1005F000A4244320044F4100444F41001C4F4100BC
:1006000010B50446FFF760FE00B910BDA068BDE854
:10061000104000F029BD00BF10B50446FFF754FE9E
:1006200000B910BDA068BDE8104000F06FBD00BF6C
:1006300028B9064B0020064A5B6B06491847064B53
:1006400002689A42F5D1406B00F0B2BDA424432069
:10065000A44F4100444F41004528C1AC28B9064B86
:100660000020064A5B6B06491847064B02689A420F
:10067000F5D1406B00F0A6BDA4244320A44F410057
:10068000444F41004528C1AC28B90A4B00200A4A12
:100690005B6B0A4918470A4B02689A42F5D1012957
:1006A00002D004D3022901D10172704770470023A0
:1006B00003727047A4244320A44F4100444F4100DB
:1006C0004528C1AC28B9064B0020064A5B6B064999
:1006D0001847064B02689A42F5D18182704700BFE5
:1006E000A4244320A44F4100444F41004528C1ACFD
:1006F00010B50446FFF7E8FD08B9002010BD60689A
:1007000000F09AFA012807D0064B0020064A5B6BDE
:1007100006499847002010BD6068BDE8104000F011
:10072000A5BA00BFA42443201C4F4100444F410000
:1007300010B50446FFF7C8FD00B910BD6068BDE8FC
:10074000104000F097BA00BF2DE9F04383B00E4689
:10075000174699460546BDF82880FFF7B5FD0446C3
:1007600018B9204603B0BDE8F083686800F086FA47
:1007700090B968684B46CDF800803A46314600F0A3
:1007800099FA48B909490446094A4B6B09499847FF
:10079000204603B0BDE8F083686800F06FFA0B9B59
:1007A0001870204603B0BDE8F08300BFA4244320A6
:1007B000A04E4100444F41002DE9F04387B00F4661
:1007C00090461E460546FFF77FFD044618B92046B1
:1007D00007B0BDE8F083686800F02EFA01280AD05F
:1007E00000202E4B2E4A04465B6B2E49984720462C
:1007F00007B0BDE8F0832846FFF77AFF044628B922
:10080000264B294A5B6B27499847E0E7686800F068
:1008100083FAA86800F028FC00238DF80F301EB181
:10082000B370F370337073700DF10F0904AA05A94A
:10083000A86801F04DF9044650B39EB19DF812200E
:1008400002B9B2789DF81330B27003B9F3789DF80D
:100850001020F37002B932789DF81130327003B96C
:1008600073787370AA8A3B4605992846CDE90089BA
:10087000FFF76AFF9DF80F300446012B01D00028D6
:10088000D4D1A86800F042FC2846FFF751FF9EE74C
:10089000024B064A5B6B03499847F2E7A4244320C6
:1008A0001C4F4100444F4100C44E4100E44E410002
:1008B0002DE9F04383B00C4691461D468046BDF8B5
:1008C0002870FFF701FD064618B9304603B0BDE8B1
:1008D000F0834A4601AB2146D8F8040000F05CFAE8
:1008E0009DF804300C9A1370002BEED0874298EDDF
:1008F000037AD8ED066A28BF0746BFB217B3214670
:100900007C1E2B1D9FED1E6A0A1DA4B202EB8404FF
:100910000A880431083307EE902A31F8022CF8EEE9
:10092000E77A23F80C2C67EEA67A77EE877AF5EE55
:10093000C07AF1EE10FAD8BFF0EE467A8C4243ED61
:10094000027AE5D1BDF8063030460B9A07EE903AB0
:100950000B9BF8EEE77A9F809DF8053067EEA67A4C
:10096000937177EE877AF5EEC07AF1EE10FAD8BF80
:10097000DFED037AC2ED027A03B0BDE8F08300BF79
:10098000000000002DE9F04389B00F4690461C4658
:100990000546FFF799FC58B17CB92A4B26462046FC
:1009A000294A5B6B29499847304609B0BDE8F08376
:1009B0000026304609B0BDE8F08300230DF1170989
:1009C0008DF81730A370E370237063702CE0EB692F
:1009D0000698AA8A1BB1114698470698AA8A9DF8DC
:1009E0001E1001B9A1789DF81F30A17003B9E378FA
:1009F0009DF81C10E37001B921789DF81D3021701D
:100A000003B96378637001463B46CDF808900194C2
:100A10002846CDF80080FFF74BFF9DF817300646BB
:100A2000002BC6D10028C3D007AA06A9A86801F0E8
:100A30004FF806460028CAD1024B054A5B6B0349B2
:100A40009847B6E7A4244320704E4100444F41002C
:100A5000E44E410010B50446006950B10378012B03
:100A60001AD013D3022B04D104F1100003F00EFAB4
:100A7000206903F07BFF606903F078FFA06803F052
:100A800075FF2046BDE8104003F070BF04F1100070
:100A900003F0AAF92069ECE704F1100003F0D2F9A1
:100AA0002069E6E770B53B2205464B492C2003F050
:100AB00019FF044600285AD06A8800234749012AB2
:100AC00082800160C3803DD8838183602B790022BE
:100AD000012B228367D060D3022B4FD1D5ED0A6A58
:100AE000D5ED067A95ED056A87EEA67A2B7FEA6842
:100AF000C6EE267ABCEEC77A17EE101AFCEEE77A3D
:100B000089B217EE900A80B203F0ACF90646206174
:100B1000002E36D028888E232F4A04211F3040090A
:100B200003F006FF06466061002852D0286A696A11
:100B3000AA6A95F82C30E06120462162626284F84E
:100B4000283070BD28884C23234A0221A08103F05D
:100B5000EFFE0646A0600028B8D1214B214A5B6B0E
:100B600021499847204603F001FF344604E01C4B1E
:100B70001E4A5B6B1C499847204670BD2669002EB3
:100B8000C8D1174B30461A4A5B6B17499847204625
:100B90003446FFF75FFF204670BD288903F016F941
:100BA00006462061B4E7D5ED037AB7EE007ADFEDB3
:100BB000116A2B8A77EEA67A29882383C7EE276AE3
:100BC00076EEC77A17EE900A03F018F90646206110
:100BD0009EE7034B084AD7E7BC4F41004528C2AC0B
:100BE000A42443202450410004504100E04F410020
:100BF00044504100FFE6DB2E6850410038B10368E5
:100C000033B9094B0020094A5B6B09491847704703
:100C1000084A19689142F4D110B504461846FFF706
:100C200019FF0023236010BDA42443208C504100F1
:100C3000045041004528C2AC08B538B9074B002024
:100C4000074A5B6B07499847002008BD064B0268BE
:100C50009A42F3D10369187808BD00BFA424432049
:100C60008C504100045041004528C2AC006903F09B
:100C7000D9B800BF006903F0DFB800BF08B538B9C4
:100C8000084B0020084A5B6B08499847002008BDC4
:100C9000074B02689A42F3D1408BB0FA80F04009CA
:100CA00008BD00BFA42443208C50410004504100E3
:100CB0004528C2AC70B582B0BDF8186048B9124B77
:100CC0000020124A5B6B054611499847284602B03E
:100CD00070BD04460F4825688542F0D1658B002D14
:100CE000F4D02069019303F0EDF8019B0546628B77
:100CF00010B1013A92B26283002AE7D13246194616
:100D0000206903F0F7F8E1E7A42443208C50410068
:100D1000045041004528C2AC034628B9074B0020C7
:100D2000074A5B6B07491847074A01689142F5D1AA
:100D3000028B00695A8303F0B3B800BFA424432098
:100D40008C504100045041004528C2AC10B540B958
:100D50000C4B00200C4A5B6B04460C49984720461C
:100D600010BD0B4B04689C42F2D1006903F0FCF803
:100D700004460028F3D1034B064A5B6B03499847AE
:100D8000EDE700BFA42443208C50410004504100F3
:100D90004528C2ACBC5041002DE9F04385B048B9AC
:100DA0005E4B00205E4A5B6B5E499847002005B0B1
:100DB000BDE8F08316461D46026804465A4B9A4227
:100DC000EED13DB9554B2846584A5B6B554998477B
:100DD0002846ECE7828800238846012A2B7037D901
:100DE000C388F7EE006A07EE903AF8EEE77A77EEFE
:100DF000A67A86EEA76A26B3711E8368A8F102025E
:100E000089B2023B76EEC66A08EB410132F8020F66
:100E100007EE900A33F8020F914207EE100AF8EE3F
:100E2000E77AB8EEC77A67EE867A27EE267A77EE0B
:100E3000877AFCEEE77A17EE900A1880E6D1E3880D
:100E4000A28801339BB293425DD0E3800020AEE7DD
:100E50008946B9F1000FF9D094ED087A94ED076A4C
:100E6000B5EEC07AD4ED096AF1EE10FA54DBC7EEA4
:100E7000267AFCEEE77A17EE903A9BB2B6EE007A4D
:100E800094F82820616948460292324626EE877A15
:100E900037EE067AC7EE267AFCEEE77A17EE907AFE
:100EA000BFB201972769009702F058FFA388012B72
:100EB0000FD970B10222002339F8231028F823102B
:100EC000013339F8027099B228F80270043288426E
:100ED000F2D8002169709EB167693B68DB0717D4BF
:100EE00001239C4603E057F82440224210D199B2D6
:100EF0005C09013301F01F028E420CFA02F2F2D8B3
:100F000001232B7053E70023D4F80890E380A0E777
:100F1000012369806B70F3E70023AFE7A42443202B
:100F20008C504100045041004528C2ACA8504100FB
:100F300010B5174C23788BB940B103F04FFC28B1A2
:100F400000F0CEFA10B101F075FF98B9114B0020F6
:100F5000114A5B6B11499847207810BD03F018FDCA
:100F60000128F9D90B4B02200D4A5B6B0B499847BE
:100F7000207810BD0123237003F00AFD0128EBD96E
:100F8000044B0220074A5B6B04499847E4E700BF23
:100F900062194020A4244320F8504100F45041003D
:100FA00010514100D450410010B50B4C237803B9C7
:100FB00010BD00F06BFB01F075FF03F0E9FC0128A8
:100FC00005D9064B0220064A5B6B0649984703F099
:100FD0003FFC0023237010BD62194020A42443204D
:100FE00038514100F4504100024B0120024A5B6B32
:100FF00002491847A4244320A44F4100185241003D
:1010000008B10069704710B5044603F0C1FC30B167
:10101000034B0120034A5B6B03499847204610BDF0
:10102000A4244320A44F41001852410070B50D463E
:101030000446FFF7E5FF58B12946064603F07AFA61
:101040003DB9A36823B161792046BDE870401847D7
:1010500070BD30460F2103F079F930460121BDE81B
:10106000704003F095B900BFF8B560B9204C00207E
:10107000204A636B204998470020636B1F4A1E4932
:1010800098470020F8BD1E4B044602689A42EDD1F5
:101090001C4B1878B8B1637B002BF3D0A368202BCE
:1010A00011D8194D15F813206AB905EB4302012731
:1010B000567805F8137046B100220D4C05F8132040
:1010C000DAE7202BF8D90A4CD6E704F11C0002F02D
:1010D00031F8A3680028F4D0202B06D805EB430292
:1010E000667305F813605770F8BD6673F8BD00BFEE
:1010F000A4244320344F4100185241005C51410068
:10110000E89EC0AC63194020641940202DE9F041ED
:1011100070B91C4C00201C4A636B1C499847002086
:10112000636B1B4A1949054698472846BDE8F0817C
:10113000184B044602689A42EBD1174B1D78DDB17B
:10114000437B002BF1D18368202B15D8134E16F862
:1011500013708FB94FF001081C3006F8138002F0AD
:1011600021F8A368202B09D806EB430284F80D80F0
:1011700006F813705770D8E7024CD0E784F80D805A
:10118000D3E700BFA4244320344F4100185241004C
:1011900090514100E89EC0AC631940206419402082
:1011A00008B5FFF72DFFBDE8084002F0B7BF00BF4C
:1011B00010B50C46FFF724FF2146BDE8104002F0B1
:1011C000B7BF00BF10B50C46FFF71AFF2146BDE8B8
:1011D000104002F0BFBF00BF43693BB1DA6810B5F1
:1011E0000446184690470023636110BD704700BF56
:1011F0002DE9F0410E4682B00546002832D1324B2F
:101200000020324A5B6B324998470023B47E64B1B8
:101210007268B2B92C4B00202E4A5B6B04462C49F5
:101220009847204602B0BDE8F081B26862B9264B0B
:101230002046294A5B6B26499847204602B0BDE804
:10124000F081F268002AE5D0BBB12B7B3278934263
:1012500018D01D4900200092204A04464D6B1C49BD
:10126000A847DEE71E4B02689A42C8D10123CDE7AA
:101270002846FFF7F9FE804648B90024204602B010
:10128000BDE8F08196F81880B8F1000FF0D16F7BBF
:1012900087B10D4B0024134A20465B6B0C499847DD
:1012A000B8F1000FBDD02846FFF730FF204602B04E
:1012B000BDE8F0816B69AE61D3E900029047747EAE
:1012C000AF6184F00104EBE7A4244320344F4100D4
:1012D00018524100AC514100CC514100E451410051
:1012E000E89EC0AC0052410070B59DF810501E46FB
:1012F000846945B9A07E78B1E36860689A4228BFE6
:101300001A4609F0EFFC2069657658B162693146EA
:10131000BDE8704009F0E6BCA268116020696576FE
:101320000028F3D170BD00BF014B1870704700BF9B
:101330006319402008B538B9064B0020064A5B6B9C
:1013400006499847002008BD0268054B9A42F3D130
:10135000012008BDA4244320344F4100185241000D
:10136000E89EC0AC08B538B9094B0020094A5B6B50
:1013700009499847002008BD084B02689A42F3D1FA
:10138000038B002BF0D04369002BEDD0012008BD6A
:10139000A4244320A44F410018524100D79DC0AC63
:1013A00008B538B90F4B00200F4A5B6B0F499847BF
:1013B000002008BD0E4B02689A42F3D1038B002B2C
:1013C000F0D04369002BEDD04379013B042B07D9C2
:1013D000044B0020074A5B6B04499847002008BD76
:1013E000012008BDA4244320A44F4100185241000D
:1013F000D79DC0AC7851410010B568B183680446F0
:1014000053B161719847237B03B910BD2046012178
:10141000BDE81040FFF70ABE03F0BAFA0028F4D086
:10142000BDE81040FFF7E0BD08B528B103461973C9
:10143000BDE80840FFF7FABD03F0AAFA18B1BDE80D
:101440000840FFF7D1BD08BD70B5059D0446026197
:10145000084EBDF81020017106609DF818108560D7
:1014600043610283FFF7C8FF20460021BDE87040BA
:10147000FFF7DABFD79DC0AC30B583B0044603F0A8
:1014800087FA032808D911490420A2684D6B6368C4
:101490000F4900920F4AA847606800230E4951F88F
:1014A000042B12B15268904204D00133042BF6D1C0
:1014B00003B030BD094A0021204602EB8303596086
:1014C00003B0BDE8304003F051BA00BFA42443206C
:1014D0004C534100245341000400402000004020B0
:1014E00010B5054C207800B110BD012318462370BB
:1014F000FFF71AFF207810BD000040202DE9F043CF
:10150000414D83B02B7853B9404918461C46404A98
:101510004B6B40499847204603B0BDE8F08307462F
:10152000FFF720FF002858D03B69D3F80C80B8F1B2
:10153000200F33D86B7853B92B1D05F1140153F8E4
:10154000042B12B1926890454CD09942F7D1D5F84E
:1015500014903C8B09F101036B6103F019FA032825
:1015600008D92A4A4B46CDF800800420566B2949F9
:10157000294AB047294B002653F8042B92B1013673
:10158000042EF9D121493346254A00204D6B2149CB
:101590000446A847204603B0BDE8F0831B4920233A
:1015A000204AF2E72146D4231F4A012003F0C0F964
:1015B000044690B11D4B05EB8605C4F804903946EE
:1015C0002360C4F808807B696C60984790B1012360
:1015D0002046637303B0BDE8F0830024204603B0C7
:1015E000BDE8F083094B0020114A5B6B04460949B2
:1015F000984790E723690BB120469847204600247E
:10160000FFF73AFF87E700BF00004020A4244320F3
:10161000605241004C5341003C52410004004020C4
:101620009C52410020524100C0524100E89EC0AC93
:1016300074524100114B1B7810B533B1044618B1F8
:101640000068FFF777FE60B910BD03F0A1F900282C
:10165000FAD00B4B01200B4A5B6B0B49BDE81040E5
:1016600018472068FFF752FD206803690BB19847BF
:101670002068FFF701FF0023236010BD0000402019
:10168000A4244320605241004C53410038B51B4C08
:101690002578002D30D063680BB3201DFFF7CAFFFB
:1016A000A36803B31648FFF7C5FFE36813B11548F5
:1016B000FFF7C0FF236913B11348FFF7BBFF03F027
:1016C00067F928B1114B0120114A5B6B114998470A
:1016D000002318462370BDE83840FFF725BE1D469D
:1016E000A368002BDED1E368002BE0D12369002B37
:1016F000E2D1002DECD0E2E738BD00BF0000402071
:10170000080040200C00402010004020A42443206A
:10171000D85241004C53410070B50C4684B001468C
:101720001046657903AB22698DF80D500095267936
:10173000E579A4798DF80E608DF80F508DF80C4086
:10174000FFF7D2FD04B070BD30B5A5B088220446C5
:101750000D4602A809F0C6FA09A802F093FE07EEAA
:10176000900A09A8B8EEE77ADDED237A67EE277ACA
:1017700017EE901A02F08CFD02A8FFF711FE40B19F
:10178000169B042B08D11A4B00201A4A5B6B1A498E
:101790009847002025B030BD09A802F0ADFF002811
:1017A000F7D009A802F06EFE431E9BB2012B09D9A7
:1017B000042807D00E4B0020104A5B6B0E49984757
:1017C0000020E7E72B7924A90D4809AA23732346B3
:1017D00041F88C0D04F11C0003F06CF90346003055
:1017E000084A18BF0120C4E9042325B030BD00BF5A
:1017F000A4244320B8534100F4534100085441004D
:1018000019174000D911400010B50446FFF7AAFD92
:1018100008B1237953B103F0BBF830B1044B012078
:10182000044A5B6B04499847002010BD204610BD58
:10183000A4244320A44F4100F453410038B50C4682
:10184000FFF7E2FFC8B1611E054600F11C04042940
:1018500013D8DFE801F013233335030010212046AD
:1018600002F084FD0621204602F070FD2046012191
:1018700002F08EFD134BC5F8843038BD00212046A0
:1018800002F074FD0021204602F060FD2046032195
:1018900002F07EFD0C4BC5F8843038BD0721204690
:1018A00002F064FD0621204602F050FD2046092189
:1018B00002F06EFD034BC5F8843038BD0921EEE718
:1018C0000C21CCE70938843BFA61843C70B56B236A
:1018D00084B03D4A8821012003F02AF805460028FB
:1018E0006FD000F11C040226384950232246009391
:1018F000374BCDE901160021FFF7A6FD20463549FB
:1019000002F016FC2046344902F024FC2046062151
:1019100002F080FD20460A2102F068FC20460121E9
:1019200002F0F4FC0121204602F0F0FB204602F018
:1019300019FC3146204602F025FC2046002102F029
:1019400043FD2046002102F02DFD2046002102F03B
:1019500029FC2046002102F037FC2046FF2102F03E
:101960004FFD2046002102F041FD002320461A468B
:10197000194602F077FD2046012102F08BFD20463A
:101980000B2102F0D3FC2046012102F095FD2046F8
:10199000124902F045FC01222046114902F054FC94
:1019A0002046012102F062FC2046012102F09EFD4A
:1019B00020464FF4965102F0ABFD2046094902F053
:1019C0001DFC284604B070BD5C5341003D1840002A
:1019D00049174000CDCC4C3ECDCCCC3ECDCCCC3DFF
:1019E0009A99993E0122400070B110B504460068F2
:1019F000FFF7B8FC00B910BD2068FFF705FF02F043
:101A0000B5FF0023236010BD704700BF10B52DED5A
:101A1000028B044608EE101AFFF7F6FEC0B1B5EED1
:101A2000C08AF1EE10FA06D4F7EE008AB4EEE88A26
:101A3000F1EE10FA0FDD02F0ABFF48B1104B0120C0
:101A4000104A5B6B1049BDEC028BBDE81040184793
:101A5000BDEC028B10BD2046FFF7D2FAB5EE408AEE
:101A600078EEC87AF1EE10FA17EE901ABDEC028B00
:101A700014BF01220022BDE8104002F0E5BB00BF08
:101A8000A424432074534100F4534100E8B1037B84
:101A9000DBB9D1B14369B6EE007ADFED0C6A1B68A1
:101AA000D3ED087A9A8D67EEA67A9869013A67EEC7
:101AB000877A10B45C695B8D0C604A814860C1ED27
:101AC000037A0B815DF8044B70477047C2F38E4D6B
:101AD000B9B1002330B5042489B00D6803910DEB32
:101AE0000401029505928DF8043004938DF81C30A2
:101AF0008DF81D308DF81E300694FFF779FB09B084
:101B000030BD0846704700BF43693BB110B504467D
:101B1000184602F02BFF0023636110BD704700BF21
:101B20002DE9F04744698AB007468846B4F8C030CA
:101B300091460BB9A4F8C230B4F8C8207C23D4F87D
:101B4000C450B3FBF2F305FB03F5002D37DB204651
:101B500004A904F079FFD8F80030049A6E00B4F8B4
:101B6000C2102A443868194401F0E6FD03AA8246EF
:101B700004F1BC03386851460092224604F07CFF11
:101B80009DF80C3004A92046003318BF012389F8C2
:101B9000003004F059FFB4F8C230D8F800003246E3
:101BA000049918440AEB410109F036F9B4F8C2303F
:101BB00028461E44A4F8C2600AB0BDE8F08740F28F
:101BC0005A21014802F06CFA145541002DE9F04FFA
:101BD000D0F814A0B7B003468B4615465146BC2238
:101BE00007A8D3F8009009F07DF84FF0020C329F5F
:101BF0000024012607FA0CF807ABDBF8042048465E
:101C000008F1FF37DBF80010CDF8BCC02E971D9609
:101C10002294BAF8C8701C948DF8D04004F060FA91
:101C2000484604F0DBFE48466B4664224FF4FA61F6
:101C300001F040FC064618B9304637B0BDE8F08FD9
:101C40007C23504601A9DBF800B0B3FBF7F704F0A2
:101C5000FBFE08FB07F7019A594648463A4401F053
:101C60006BFD4FF4FA618046484601F0B7FC5046E0
:101C700001A904F0E9FE01980E2FA7F10E0C08EB64
:101C8000400021D97F0000F11A012346023F0A4695
:101C900000EB070E32F8024F96452344FAD1384440
:101CA0000024B3FBFCF231F8023F9B1A002BB8BFB3
:101CB0005B4288421C44F6D1B4FBFCF4A3B230462C
:101CC0002B8037B0BDE8F08F2346F8E7F0B54369C5
:101CD000002599B00668C3F8BC500C46174602F0C0
:101CE000C5FD02A9119011A804F018FF18B900242D
:101CF000204619B0F0BDBDF80A506B46BDF80C1077
:101D000005AABDF80E000791089061682068CDE92A
:101D10000565BDF81050ADF8245003F003F9002814
:101D2000E5D0BDF80A1011ABBDF80C000AAA9DF869
:101D300004500C90BDF810001095ADF83800CDE9B6
:101D40000A61BDF80E100D9100990F91D4E90001C0
:101D500003F09EFA04460028C9D0009906239DF896
:101D600004201198B980FA801299139A38817981E8
:101D7000BDF85000BDF85210BA81BDF85420F8816A
:101D800039827A823B6002F003FE0128B0D9034B0E
:101D90000220034A5B6B03499847A9E7A424432028
:101DA00028544100485441000B68062B70B58CB094
:101DB0000BD028480621284A446B0020009127496F
:101DC0000546A04728460CB070BD0C46064602F0FA
:101DD0004DFD03A9069006A804F0A0FE05460028C4
:101DE000F0D0BDF8123006AABDF80E00B360BDF801
:101DF00014303060B381A088E388BDF81010C6E9C4
:101E000004032089638971607C21C6E90603238A63
:101E1000A089B384638A3062E089F38403F056F8C2
:101E2000BDF81800BDF81A10BDF81E20BDF820300E
:101E3000B062F162BDF82400BDF82610326373630E
:101E4000BDF82A20BDF82C30C6E90E01C6E91023E2
:101E5000B8E700BFA42443209454410048544100F3
:101E600010B5B0F8C84086B064B1694604F0ECFD26
:101E70007C230098B3FBF4F3C0F50060B0FBF3F0F3
:101E800006B010BD4FF49F71014802F009F900BF80
:101E9000145541002DE9F04F44698DB006460846BF
:101EA0000D4691461F464FF0010B02F0EBFA00235E
:101EB000A4F8C8002046C4F8BC3006F1040A84F82F
:101EC000B5B0FFF7CDFF854B80B24FF07C0C1968A1
:101ED000524602903B46019128464946CDF800C043
:101EE00000F03CFA804618B940460DB0BDE8F08FCE
:101EF000284602F061FA68B9C4E9120B00232846AB
:101F0000236502F0DDF9032800F2E580DFE800F048
:101F1000D3CAB8070023C4F848B0E364EEE70DF174
:101F2000180B284602F0D4F905AA594600F028FEFD
:101F30000123DDE90512C4E91533C4E91712284667
:101F400002F018F9042807D8DFE800F0969691030C
:101F500096000023C4E91933284602F01BF980F0EB
:101F600001032846DBB2E36602F026F980F00103A4
:101F700001222846DBB26267236702F02FF9431E75
:101F80002846A36702F0CAF9E067284602F0D6F9AE
:101F9000C4F88000284602F0F3F9431E2846C4F82E
:101FA000843002F0DBF9C4F88800284602F04AFACF
:101FB00084F88D00284602F065FAC4F8AC00284683
:101FC00002F030FAC4F8A400284602F033FAC4F84C
:101FD000A800284602F082FA80F00103284684F81F
:101FE000B43002F08BF901286DD902380123C4E91D
:101FF0002430B3880122504684F8B520C4F89830C4
:1020000000F096FD002862D17089B6F908200138E9
:10201000F388C4E92702C4F8B03002F027FC4FF47B
:102020006172C4F8B8007C23A9F814200021B4F828
:10203000C820204639835946B3FBF2F23B8903FBA3
:1020400002F37B8104F000FD5A463168012312201F
:1020500002F0A4FC00F00CFEBDF818304FF416623C
:102060001844BA81F88140460DB0BDE8F08F0122D6
:102070000023C4E919236FE70123C4E919336BE78F
:102080000DF1180B284602F023F905AA594600F075
:1020900077FD01200021DDE90523C4E91501C4E92C
:1020A00017234CE7002301220DF1180B6365A2658D
:1020B000C4E9173343E700230DF1180BC4E91533C6
:1020C000C4E917333BE70023C4F8903091E7706907
:1020D000FFF7C6FE99E70DF1180B30E79054410069
:1020E00038B50139136889B2B3F8C0408C4204D0C6
:1020F0001846BDE83840FFF7B3BE054618461446FB
:10210000FFF7AEFEB5FBF0F303FB105000B138BD96
:102110002068BDE83840FFF7A3BE00BF8389012BCC
:1021200027D0F0B546690446B0F9087083B0B6F818
:10213000C0203046013292B2B2FBF3F503FB152307
:102140009DB2A6F8C050FFF78BFE04F1140200FB0D
:102150000575A1896089FFF7C3FF034669462068BA
:102160005A1EC6F8C430CDE9002504F043FC03B084
:10217000F0BD1846704700BF0246002370B552F804
:10218000145F04460E46C5F8C03081894089FFF7C8
:10219000A7FF2B46C5F8C4002068D6E9001203F05B
:1021A0009FFF38B9124B0646124A5B6B124998479B
:1021B000304670BD206804F011FC0646A8B195F8C1
:1021C000B430002BF4D02169206801F08BFA04466A
:1021D00058B102F0DDFB0128EAD9054B0220074A7D
:1021E00026465B6B04499847E2E70026E0E700BF1C
:1021F000A4244320D454410048544100F0544100E9
:1022000038B504460D464FF489730F4ACC2101209E
:1022100002F08EFB6061A8B1284601F06FFF2060DC
:10222000284602F05BF9A073284601F0A3FFB0FA3C
:1022300080F328465B09E37300F080FC034B2061C8
:102240000120A36138BD00BF145541005C5441001A
:102250002DE9F04F87B00025B0F80CB09946DDF8B5
:1022600040A01D708AF80050C37B0091029303695F
:102270008DF816508DF817500668877B0193BBF1D7
:10228000000F43D00BF1FF330446904603930EE05A
:10229000A36920461B6A98472FB1A36930465B6A41
:1022A0009847002837D00135ABB29B452ED9A3699A
:1022B00027B95B6A3046984768B3A3699B690DF1FB
:1022C000160201993046984728B39DF816300BB98D
:1022D00099F80030A0690DF1170289F800300099D3
:1022E000C369204698479DF8173080B20BB99AF819
:1022F0000030B8F800208AF800301044029BA8F89B
:102300000000002BC4D0039BAB42C1D1009B1868D6
:1023100007B0BDE8F08F002007B0BDE8F08F00BF28
:1023200008B52DED028B08EE100A02F09FFA9FED22
:102330000A6A07EE900AF7EE006A86EE277AB8EE90
:10234000488AB8FE477A67EE877A86EEA70A80EE5B
:10235000080ABDEC028B08BDF902154F2DE9F04FBC
:102360002DED068B89B08A46914606460693189F46
:102370009DF864B0BDF9668002F030F8002840F0A6
:1023800083803046DFEDE48A01F0C8FE09EE100AD2
:102390003046BEEE008A01F0D3FE07EE900A3846C2
:1023A00079EE279AFFF7BCFF39EE097A384620EE1E
:1023B000280AB5EEC09AB6EE009AC7EE007AF1EEA2
:1023C00010FA54BFB0EE497AB0EE487A77EE877AC9
:1023D000FDEEE77A17EE905AFFF7A2FF39EEA97AE1
:1023E00020EE280AF5EEC09AC7EE007AF1EE10FA58
:1023F00058BFB0EE498A18F10B0F37EE888AFDEE10
:10240000C87A17EE904A4BDBBBF1000F48D0C346A9
:10241000F38D3046079302F035F80128804609D93C
:10242000022823D0631B93FBF8F208FB1238B8F1A3
:10243000000F0EDCAC4236DAB84B0020B84A5B6BBA
:102440008046B8499847404609B0BDEC068BBDE8C8
:10245000F08F02F09DFA012805D9B04B0220B24A54
:102460005B6BB0499847A4EB0804E3E7EB07D9D4CA
:1024700002F08EFA012805D9A84B4046AB4A5B6BA7
:10248000A84998470135CDE7304601F009FF0546D8
:10249000304601F00DFF18F10B0F05EB0004B3DA25
:1024A0006FF00B0BB4E7304601F0D4FF80460028F4
:1024B00040F048810BFB07FBAB4500F30F82079B05
:1024C0004FEA431BABF14B0B07FB0BFBA34580F221
:1024D000398107EE904A914B3846DFED8F9AB8EE7E
:1024E000E79AD3F83490FFF71BFFF6EE008A904A84
:1024F000384669EE007A8F4B9FED87AA67EEA97A7E
:1025000067EEA87AF5EEC07AF1EE10FA4CBF92466B
:102510009A46FFF705FF384629EE008AFFF700FFCD
:1025200069EE007A384628EE298A67EEA97ADFED4F
:102530007A9A28EE288A67EEA87AF6EE008AF5EEF7
:10254000C07ADFED7D7AF1EE10FA48BFB1EE488A2D
:1025500038EE278AFCEEC87A17EE906AFFF7E0FEA5
:10256000384629EE008AFFF7DBFE69EE007A38462E
:1025700028EE298A67EEA97AF6EE009A28EE288AD4
:1025800067EEA87AF5EEC07ADFED6B7AF1EE10FA1D
:1025900048BFB1EE488A38EE278AFFF7C1FE3846B9
:1025A00069EE008AFFF7BCFE69EE007A07EE10BA0A
:1025B000384668EE8A8A67EE8A7A9FED57AAB8EEA7
:1025C000C79A9FED5E7A68EEA98A67EEA97ADFED79
:1025D000529AF5EEC07ADFED587AF1EE10FA48BF64
:1025E000F1EE688A78EEA77AF6EE008AFCEEE77ADA
:1025F000F8EE677A38EE678A68EE077AFCEEE77ADB
:1026000017EE904AFFF78CFE69EE007A484B494A74
:10261000384667EEA97A67EEA87AF5EEC07AF1EE51
:1026200010FA4CBF9B469346FFF77AFE384629EED8
:10263000008AFFF775FE69EE007A384628EE298A8F
:1026400067EEA97ADFED349A28EE288A67EEA87A39
:10265000F6EE008AF5EEC07ADFED377AF1EE10FA89
:1026600048BFB1EE488A38EE278AFCEEC87A17EEEA
:10267000905AFFF755FE384629EE008AFFF750FEC4
:1026800069EE007A384628EE298A67EEA97AF6EED6
:10269000009A28EE288A67EEA87AF5EEC07ADFED78
:1026A000267AF1EE10FA48BFB1EE488A38EE278A52
:1026B000FFF736FE384669EE008AFFF731FE69EE15
:1026C000007A53469FED1D7A68EE8A8A002067EEF5
:1026D0008A7A1B4A019468EEA98A009667EEA97A65
:1026E000CDE902B5F5EEC07ADFED137AF1EE10FA1E
:1026F00048BFF1EE688A78EEA77AFCEEE77AF8EE4A
:10270000677A084938EE678A68EE077AFCEEE77A5E
:10271000CDED047AC84796E6C2F38E4DA42443203B
:10272000C05541006C5541008C5541003455410065
:1027300030554100D44D4100BD3706350024744961
:1027400030564100304601F09DFEF18D0246E30F08
:10275000E80FA9F800109C4623440146284493FB47
:10276000F7F390FBF7F0A3EB0C03401A95FBF2F1A3
:10277000013302FB1151A9F804001B1A11441FFA7E
:1027800083FC1A9B91FBF2F0BCFBF3FB02FB1011E4
:102790001FFA8BF003FB1BCBA9F806C0A9F80210A7
:1027A000BBF1000F00D00130A9F8080030460792B5
:1027B00001F0E0FC8046304601F082FD079AB8F156
:1027C000040318BF0123012818BF002318469846A8
:1027D0007BB9B9F806301A998B420AD9CB4BCC4A4F
:1027E0005B6BCC499847404609B0BDEC068BBDE811
:1027F000F08F38460792FFF793FD079A3846DFEDD2
:10280000C68A07EE902AB6EE008AF8EE677A27EEBF
:10281000800A8AED030AFFF783FD07EE905A3846D7
:10282000F8EEE77A67EE807A67EEA87A67EE887A44
:10283000CAED007AFFF774FD07EE904A631B079A12
:10284000F8EEE77AB9F806109AED007A01FB07F482
:10285000B9F8080027EE800AAAF8180095FBF7F6E9
:1028600007FB165520EE280A3D4420EE080A95FB8A
:10287000F7F693FBF2F307FB1655013330EE477A78
:102880008AED020A9BB295FBF2F5B4FBF2F4B7FBBA
:10289000F2F7069AAAF816308AED017A93801A9B0D
:1028A00011818B42108255801480D78010D29BB248
:1028B0009382BBF1000F06D01A9B1A9AB1FBF3F377
:1028C00002FB13118BB2069AD38201239846BAE514
:1028D00001239846069B9982D982B4E507EE905A67
:1028E0008A4B3846DFED8C9AF8EEE78AD3F83490BD
:1028F000FFF716FDB6EE009A884A384668EE807AF1
:10290000874B9FED85AA67EEA97A67EE897AF5EE87
:10291000C07AF1EE10FA4CBF92469A46FFF700FDDE
:10292000384628EE808AFFF7FBFC68EE807A38464E
:1029300028EE298A67EEA97ADFED779A28EE098AD0
:1029400067EE897AB6EE009AF5EEC07ADFED757A19
:10295000F1EE10FA48BFB1EE488A38EE278AFCEE55
:10296000C87A17EE906AFFF7DBFC384628EE808ABB
:10297000FFF7D6FC68EE807A384628EE298A67EEA3
:10298000A97A28EE098A67EE897AB6EE009AF5EE02
:10299000C07ADFED647AF1EE10FA48BFB1EE488AF2
:1029A00038EE278AFFF7BCFC384668EE809AFFF7BE
:1029B000B7FC68EE807A07EE10BA384669EE8A9A5C
:1029C00067EE8A7A9FED54AAF6EE008A69EE899A3C
:1029D00067EE897AB8EEC79A9FED537AF5EEC07A22
:1029E000DFED507AF1EE10FA48BFF1EE699A79EE18
:1029F000A77ADFED499AFCEEE77AF8EE677A38EECF
:102A0000678A68EE077AFCEEE77A17EE904AFFF7DE
:102A100087FC69EE007A414B414A384667EEA97A55
:102A200067EEA87AF5EEC07AF1EE10FA4CBF9B463D
:102A30009346FFF775FC384629EE008AFFF770FCD5
:102A400069EE007A384628EE298A67EEA97ADFED2A
:102A5000329A28EE288A67EEA87AF6EE008AF5EE1A
:102A6000C07ADFED307AF1EE10FA48BFB1EE488A55
:102A700038EE278AFCEEC87A17EE905AFFF750FC22
:102A8000384629EE008AFFF74BFC69EE007A38469B
:102A900028EE298A67EEA97AF6EE009A28EE288AAF
:102AA00067EEA87AF5EEC07ADFED1E7AF1EE10FA45
:102AB00048BFB1EE488A38EE278AFFF731FC384626
:102AC00069EE008AFFF72CFC69EE007A53469FED11
:102AD000167A68EE8A8A002067EE8A7A0194009658
:102AE00068EEA98A114A67EEA97ACDE902B5F5EE3A
:102AF000C07ADFED0C7AF1EE10FA48BFF1EE688A89
:102B000078EEA77AFCEEE77AF9E500BFA42443202B
:102B1000705641006C554100C2F38E4D3055410056
:102B2000D44D4100BD37063500247449F0554100AD
:102B30000089012894BF00200120704710B582B0A1
:102B4000044601F0BDFB012811D0204601F0C0FB76
:102B50009FED0A7A07EE900AC7EE277A77EE877A1A
:102B6000FCEEE77ACDED017A019802B010BD4FF48A
:102B7000FA630193019802B010BD00BF0000FA444F
:102B800038B52DED028B154608EE100A0C4601F003
:102B90006DFE07EE900AC7EE887ABDEC028BFCEE64
:102BA000E77A17EE903A1A0C9BB22A60236038BD80
:102BB0002DE9F04F87B01F461646009003919DF80F
:102BC000404001F059FE0023ADF814300493002F6B
:102BD00048D09C4202934FEA5000039C14BF4FF42C
:102BE000E0434FF40043A0F1030A1BB201932CE031
:102BF000019B1FFA85F905F1030B214643EA060004
:102C000009F1FF3C029B4FEA4B089CFA9CFC40BA3E
:102C10004246A3802080A8F10608A4F802C04E44D2
:102C2000009801F059FE20465946B6B201F0FEFE6A
:102C30000498BDF814207F1B2060A28044442068C3
:102C4000A2880490ADF814200CD0BA45554628BF90
:102C50003D46BA45CCD2CBD0EB07C9D5013DEB07F9
:102C6000FCD4C5E70398063007B0BDE8F08F00BF7D
:102C70000320704710B541F4A04382B014BA062275
:102C80005BBA6946CDF80240ADF8003001F024FE91
:102C900002B010BD38B51C4610601960154601F031
:102CA000EBFD2168884202D201F0E6FD01462B6867
:102CB0000239023321F003012B60216038BD00BFCF
:102CC0002DE9F0419C1C07460D46164601F0D4FD47
:102CD000A04207D2094B0020094A5B6B0949BDE8B5
:102CE000F041184745F4A0452246314638466DBAB2
:102CF0003580BDE8F04101F0EFBD00BFA4244320C2
:102D00009C564100BC5641000331B0EB410F2CBF33
:102D100001200020704700BF10B5002482B000944D
:102D2000FFF746FF02B010BD70B50569044628469E
:102D300001F0A8FD0A4905EBC503226B0968201DB7
:102D4000DB00483B194400F0E7FD064618B10123BB
:102D50003046E37070BD284601F09AFD304670BDE4
:102D6000AC19402038B5034604301D6900F0F8FD69
:102D7000044630B9054B064A5B6B06499847204626
:102D800038BD284601F08AFDF9E700BFA42443209E
:102D9000F8564100185741002DE9F84300EBC004F4
:102DA000DFF88C804FF0000C0E46E400D8F80030BD
:102DB00005461746483C234483F841C001F062FDB4
:102DC000304600F08BFD60B915492B46154A814607
:102DD0004C6B1549A047284601F05AFD4846BDE80E
:102DE000F88329460A2001F00BFED8F80020394666
:102DF0003046224400F076FD814650B908492B4602
:102E00000A4A4C6B0849A04729460B2001F0F8FDFF
:102E1000E1E7D8F8003001221C4484F84120F3E7B0
:102E2000A42443202857410018574100645741000B
:102E3000AC194020F8B5184E34780CB12046F8BDD6
:102E400001F00EFD154F00EBC0004FF496721449CF
:102E5000C00001F047FD38600028EFD0254609E0AA
:102E60003B6803EBC003184608F03AF880F841507D
:102E700080F8405001F0F4FCA0424FF0480204EB0F
:102E8000C4004FF0000104F10104E9D801231C46FD
:102E900033702046F8BD00BFA6194020AC19402071
:102EA000E056410010B5054C237803B910BD044B22
:102EB000186801F05BFD0023237010BDA6194020A7
:102EC000AC1940202DE9F04745781E462DB100236E
:102ED000337073702846BDE8F087DFF8E0C0044621
:102EE0000F469046DCF800C0D0F810A0BCF1000FEF
:102EF00014D0DCF80C90B9F1000F0FD0C8470028AF
:102F0000E8D06578002DE5D1012543463A46514683
:102F1000012001F043FD2846BDE8F087002333700F
:102F2000737094F80090B9F1020F24D0B9F1010F39
:102F300027D0216B201D00F01DFD436843B91B49BC
:102F400018461B4A4B6B1B4998472846BDE8F0873B
:102F5000BB4225D1438843451DD10278B9F1020F08
:102F600043783270737010D0B9F1010FC9D1204687
:102F7000FFF7F8FEC5E72046FFF7D6FE0028D8D1B8
:102F8000A8E7504601F092FCD3E7504601F080FCE0
:102F90000023E370B5E74FF4C571074801F080F8EE
:102FA00040F28911044801F07BF800BFA4244320BB
:102FB000C856410018574100E0564100A81940206A
:102FC0002DE9F843061D914605462C220C46304655
:102FD00000211F4607F084FF1C4B4A4630461B6801
:102FE0006BB3D3F80080B8F1000F28D03B462146E0
:102FF000C0470646204601F0BDF8E8B1042818D0C5
:1030000000232B70204601F05BF9B0FA80F32046D4
:103010005B096B7001F062FAA870204601F06EF84F
:103020003A4601461C23042001F0D2FC3046BDE89C
:10303000F88301232B70E5E702232B70E2E73B4680
:10304000214600F0ABFB0646D4E700BFA81940209C
:103050002DE9F84F0C46804608461D46164601F0FD
:103060004DF80746204601F031FA304B8146196889
:10307000B9B14B68ABB12A46204631469847054660
:1030800010B92846BDE8F88FB9F1000F19D1012514
:103090003246394620230D2001F09AFC2846BDE82F
:1030A000F88FDFF88CA007EBC702C8F83050DAF8C9
:1030B000003003EBC20313F8073C4BB3B9F1000F28
:1030C00002D0A6F81490E2E7204601F0EDF90028BE
:1030D000DDD0D8F8104008F10409204601F0D2FBF9
:1030E000DAF8005004EBC401D8F83020484606F165
:1030F0001403C9004839294400F0F8FB054620466E
:1031000001F0C6FB002DC2D1484600F0DFFBB8E756
:1031100008F1040B2A4638465946FFF73DFE05469E
:103120000028CBD1584600F0D1FBAAE7A8194020CF
:10313000AC1940201A4B1B6870B5044623B19B683C
:1031400013B1BDE8704018472378022B08D0204601
:10315000FFF7EAFD88B1A3782BB12378012B0FD0BC
:103160000125284670BD251D284600F0FFFB20B133
:10317000284600F0E3FB0028EFD10025284670BD6B
:10318000251D284600F0DAFB0028F6D0284600F07E
:10319000EDFB05460028F0D02046FFF7E3FDE0E711
:1031A000A8194020C37803B9704710B504460069D8
:1031B00001F06EFB0023E37010BD00BF036973B123
:1031C00003EBC303064ADB001268483B134493F841
:1031D00040200AB983F84120043000F077BB7047E3
:1031E000AC1940200069704770B50C4684B0114698
:1031F00005461A462046089B04AEFFF74BFD002308
:1032000028462A2126F8023D324603F001FFBDF888
:103210000E305B0619D40024324611212846ADF841
:103220000E4003F0F5FEBDF80E3013F480661AD0A0
:1032300015492B46154A20464E6B1549B04728467E
:1032400004F042F8204604B070BD01F0A1FB30B19B
:103250000D492B460F4A01204C6B0D49A0472846CB
:1032600004F032F8D7E701248023022228462146C1
:10327000009403F0DFFE8023284600961A460721BB
:1032800003F0D8FE2046DEE7A42443207459410011
:103290006459410038594100F0B583B000240F460D
:1032A000112102AA064622F8024D03F0B1FEBDF834
:1032B000060010F480650CD013493346134A2046AB
:1032C0004D6B1349A847304603F0FEFF204603B07C
:1032D000F0BDB7F5806F09D30B4928463B460D4A30
:1032E0004C6B0B49A047284603B0F0BD2A4610217D
:1032F000304603F08FFE304647F48062102103F021
:1033000089FE0120E3E700BFA4244320A459410023
:1033100064594100D459410030B583B000231121D4
:10332000054602AA22F8023D03F072FEBDF806002F
:1033300010F480640BD1094B2046094A5B6B0949A4
:103340009847284603F0C0FF204603B030BD28460A
:103350000122742103F05EFE0120F6E7A42443203D
:10336000105A4100645941000022742103F052BEFA
:1033700000B583B00023112102AA22F8023D03F018
:1033800047FEBDF80600C0F3802003B05DF804FBE3
:1033900070B582B000233821054602AA22F8023D0A
:1033A00003F036FEBDF8064064B908492B46084ACA
:1033B00020464E6B0749B047284603F085FF20465C
:1033C00002B070BD012002B070BD00BFA424432034
:1033D0003C5841006459410070B50C4684B041B975
:1033E0002B4B08462B4A5B6B2B499847204604B071
:1033F00070BD0DF10E022821054603F009FEBDF84F
:103400000E20D3B2628023700B2B2CD8DFE803F0A0
:103410002308060606060606060606060120E6E757
:10342000120A102A29D801261C48D1B206FA02F243
:10343000104010B34A1E164BD2B25E6B202A22D91E
:10344000174B184A00201449B047284603F03CFFA8
:10345000002004B070BD0E492B46134A00204C6B6F
:103460000D49A047F1E70A4A002000950A49566B2A
:103470000E4AB04700232370E7E7054943F404539D
:1034800020224E6B63800A4B53F82230D9E700BFED
:10349000A4244320B05841006459410016000100A3
:1034A000A0584100E8584100C45841000859410063
:1034B000885741002DE9F04F87B004460F4602F1CE
:1034C000010A029200250393DFF8A0B0DFF8B09064
:1034D000DFF8A08014E022F8023D204603F098FDBA
:1034E000BDF816305B0630D401F052FA23464A4646
:1034F000414618B1DBF834600120B047AA4517D027
:103500003946204601F0E2F90135064606AA0023B5
:103510002A210028DFD115492346154A4D6B15494C
:10352000A847204603F0D0FE304607B0BDE8F08F34
:1035300000200E4A00940646546B029B0E4A0D4929
:10354000A047304607B0BDE8F08F03992046FFF74B
:1035500043FF06460028E7D104492346074A4C6B3F
:103560000449A047304607B0BDE8F08FA4244320AB
:10357000445A410064594100905A4100CC5A4100DC
:103580006C5A410070B584B014461D46642203ABEA
:103590000646FFF78FFF68B19DF80C30A3420BD0B1
:1035A000084A00200849CDE90034084B546B084A0A
:1035B000A047002004B070BD002DFBD03046FFF7BF
:1035C000E7FEF7E7A4244320645941000C5841006A
:1035D000585B410001230B22FFF7D4BF30B583B005
:1035E0000D460446FFF798FE10B9002003B030BD29
:1035F0002046FFF7CDFE0028F7D0294601AB642214
:103600002046FFF757FF0028EFD02046FFF7C0FE07
:103610000028EAD09DF80430022BE7D0054A0020AC
:10362000BDF80630556B0449044AA847204603F00C
:103630004BFEDAE7A424432064594100F0594100CD
:1036400070B584B016466422054603ABFFF732FF1F
:10365000044670B19DF80C30BDF80E20062B0BD03F
:103660001B49002000922B461A4A04464D6B1A490A
:10367000A847204604B070BD1005F1D512F4806350
:1036800016D0012329460E20337001F0B9F9BDF898
:103690000E20D1050ED49305EBD501F079F903285E
:1036A000E7D90B4B04200D4A5B6B0B499847E0E7C9
:1036B0003370EEE701F06CF9032805D9044B0420C0
:1036C000074A5B6B04499847BDF80E20E3E700BF4B
:1036D000A4244320F45A410064594100405B410056
:1036E000245B410030B585B06422054603ABFFF78B
:1036F000E1FE044640B90C492B460C4A4D6B0C497F
:10370000A847204605B030BDBDF80E30062BF8D0D6
:103710000024054A00932B462046556B0449054A70
:10372000A847204605B030BDA4244320845B410057
:1037300064594100B85B410070B515460646002249
:103740002B46FFF7E9FA044602462B463146002095
:1037500001F024F9204670BD30B585B0002404AADC
:10376000214622F8024D03F053FCBDF80E2041F231
:1037700012139A4209D0064920460092054A4D6B21
:103780000549A847204605B030BD0120FBE700BF32
:10379000A424432070584100645941002DE9F047AA
:1037A0000C4692B0804608469246994600F0A6FC28
:1037B0000546204608F10C0700F0D0FDADF80400E6
:1037C000204600F0BBFDADF80600204600F0D8FD15
:1037D000ADF80800204600F0EFFC04232946ADF8C0
:1037E0000A000DEB0302112001F0D8F8202200217D
:1037F000384607F075FB3846236821469847064649
:10380000D8B1202200210AA8002507F069FBD8F8CA
:10381000246004950AAA039503AB05952146384612
:10382000CDE90655CDE908553568A847064640B9A3
:10383000D8F8243038461B6B9847304612B0BDE8A4
:10384000F087BAF1000F07D00AAD0FCDAAE80F003C
:1038500095E80F008AE80F00B9F1000F10D003AD12
:103860000FCDC9F80000C9F80410C9F80820C9F83C
:103870000C3007CDC9F81000C9F81410C9F8182089
:10388000204600F01DFD01281BD0204600F020FD41
:103890009FED0D7A07EE900AC7EE277A77EE877ACA
:1038A000FCEEE77A17EE903A00223046C8F8003076
:1038B000C8F80820A8F8062088F8042012B0BDE84F
:1038C000F0874FF4FA63EFE70000FA4420B1436A4F
:1038D00013B11B6B0C301847704700BF436AC068B8
:1038E0005B681847436A0C30DB6818472DE9F041E4
:1038F000456A044600F10C06006AAD681746984612
:10390000A84738B1636A4246394630461B69BDE86C
:10391000F0411847BDE8F08170B504461546D0E97E
:1039200008039B68984738B1636A294604F10C0084
:103930005B69BDE87040184770BD00BF10B582B02C
:103940000021436A044602AA9B6902F8011D01682E
:10395000C068984710B19DF80730237102B010BDC0
:10396000436A0168DB6AC068184700BF436AC068E1
:103970005B6A1847F0B5002383B0051D466A471DF2
:1039800004464360821D83602B4600970C30B66A64
:10399000B047A060284603B0F0BD00BF02880B8886
:1039A0009A4204D814BF4FF0FF3000207047012026
:1039B000704700BF42884B889A4204D314BF4FF02F
:1039C000FF30002070470120704700BF2DE9F00351
:1039D000048840880B881FFA84F84A88A0FB0401F9
:1039E0009EB2A0FB0845A2FB032308FB0155A2FBE6
:1039F000060106FB03118D4208BF844206D314BFA3
:103A00004FF0FF300020BDE8F00370470120BDE813
:103A1000F003704702880B8810B44488488802FB82
:103A200004F203FB00F39A4206D314BF4FF0FF30B9
:103A300000205DF8044B704701205DF8044B70478F
:103A40002DE9F84F002A00F0838090461F320F4680
:103A5000002108F1FF395209064638461FFA89FA53
:103A60009B4692000D460AF1010A07F039FAACB202
:103A7000424631465846234600F08CFA36F8153057
:103A800083420AD96A09012304F01F0403FA04F4EB
:103A900057F822301C4347F822400135AA45E6D1A9
:103AA000B9F1000F51D04FF0000C01256046E646F9
:103AB000614664464FEA541804F01F03621C57F82D
:103AC000288005FA03F392B213EA08032DD00131DE
:103AD0004B0901F01F0157F8233005FA01F1194095
:103AE0002AD006EB440336F814105B88994225D39C
:103AF00028D9BEF1000F19D0A2EB0C0381000130D0
:103B00004FF0000E013306EB010480B248BF0133D1
:103B100091450CEB63039BB27352114636F8133098
:103B200063801446C6DCBDE8F88F9E469145144676
:103B30001146BFDCBDE8F88F8E46F7E74FF0010E67
:103B4000A446F3E76446A446F0E74846BDE8F88F8C
:103B50004E21014800F0A4FAA05C4100012A2DE9A1
:103B6000F04F8A4689B040F2D48084460846934696
:103B7000002800F0CD800027BA463E460097B345A6
:103B80000BEB070500F295808542A6EB0B01A8BF61
:103B9000054689B2ADB2A9421ED200240CEB8109C0
:103BA000A6464B1C8E4299B20ED03CF827300EF13F
:103BB000010239F82480A3EB0803002BB8BF5B4255
:103BC0005B45B8BF1FFA82FEA94204F10104E8D3A5
:103BD000D64501D9F24600960137BEB28642CED311
:103BE000BAF1000F00F09480009A0AF1010A002156
:103BF000D9460CEB82033CF8222002910C46069336
:103C00000E4604921FFA8AF25B88834607924FEAB7
:103C1000520A05930A461EE0039CBFB202960CEBC3
:103C200044050CEB47040194079CB8FBF4F8BEFB79
:103C3000F4FE2CF8128082B22CF813E03CF82140FC
:103C40000CEB81032C80019800265B8803800131F6
:103C50008CB2A34544D90098531C0CEB4205844216
:103C60009BB202F10200F2D00CEB43073CF821407A
:103C700080B20197069F0390B7F800E0029FA4EB83
:103C80000E0EBEF1000FB8BFCEF1000ECE45A8BF9C
:103C900047F0010717F0FF0E12D0049F101D0AEB2A
:103CA0000708059F0AEB070ED71C002EB4D1039A14
:103CB000C6E785424FF00001A8BF0546ADB26CE7EC
:103CC00004980CEB81030131CDF808E020445B88B7
:103CD0008CB2012604900598A34518440590BAD8E3
:103CE000CB468EB1049B501C079D941C534419462F
:103CF000059BB1FBF5F153442CF8121081B2A2B22E
:103D0000B3FBF5F32CF81130500800287FF433AFE3
:103D10008246504609B0BDE8F08F00BF032A13D891
:103D2000DFE802F00E0A0602084B042203F044BE4C
:103D3000074B042203F040BE064B042203F03CBEB6
:103D4000054B042203F038BE704700BF153A40000F
:103D5000CD394000B53940009D394000F8B50446E2
:103D6000BDF81C609DF820701D46069BFFF768FE9D
:103D7000324601462046FFF7F1FEBB1E0646012BE8
:103D800006D920463A463146FFF7C8FF3046F8BD0F
:103D90000028F6D0002334F823202A4424F82320D6
:103DA00001339AB29642F6D83A4631462046FFF79A
:103DB000B5FF002334F82320521B24F823200133BD
:103DC0009AB29642F6D83046F8BD00BF10B515221B
:103DD00004460449042000F085FD10B1002344800E
:103DE000037010BDB05C410038B110B504460068E6
:103DF00000F0BCFD0023236010BD704738B52E22B3
:103E000005460C461420064900F06CFD30B1002335
:103E10000122C560048102704360036138BD00BFA8
:103E2000B05C410010B50446008903F0B3FC20618A
:103E3000003018BF012010BD10B1103003F07CBC61
:103E4000704700BF60B110B50446006818B110306B
:103E500003F072FC206800F089FD0023236010BD90
:103E6000704700BFF8B507460E4615460649622260
:103E700010201C4600F036FD28B102230781468140
:103E8000456004730370F8BDB05C410038B110B5F3
:103E90000446006800F06AFD0023236010BD7047EF
:103EA00008B540B10378012B00D008BD0069BDE81A
:103EB000084003F055BC7D21014800F0F1F800BF37
:103EC000B05C410010B570B10478012C01D0012024
:103ED00010BD00698388934201D0002010BD03F01B
:103EE00087FC204610BD8B21014800F0D9F800BFA7
:103EF000B05C41002DE9F04180B303780446012B0A
:103F000002D00120BDE8F0810669B6F80480904532
:103F100002D00020BDE8F081B8F1000FF1D00025FB
:103F20008F1E2946304603F097FC2669D4ED037AAC
:103F300007EE100AB36867EE277A03EB85030135B5
:103F400093ED007AA9B277EE877A8845FCEEE77A9E
:103F500017EE903A27F8023FE4D8D2E79F210148B4
:103F600000F09EF8B05C410010B560B10378012B01
:103F700001D0012010BD0489944201D0002010BD61
:103F80004160184610BDB821014800F089F800BF13
:103F9000B05C41002DE9F843002879D093424BD220
:103FA0000478012C4BD050D3022C45D1B0F808C076
:103FB00045890CF1010C067B4FEA5C0C05EB0C0407
:103FC000A4B21EB9521BA2EB0C0292B2A3423FD381
:103FD0009A423DD9A3EB0C04641BA4B205EB04097F
:103FE000A14547DB0022964604F1010831F8147020
:103FF00001321FFA88F4BE4492B24C45F4DD56B348
:10400000002A38D0D0ED016ADFED237ABEFBF2F250
:1040100092B266EEA77A07EE102AB8EEC77AF4EEEF
:10402000C77AF1EE10FA13DDC7EE267AFCEEE77AD6
:1040300017EE903A98B200E00020BDE8F88340689F
:104040000028FAD030F81300F7E74088BDE8F8837D
:104050004FF6FF70F1E763449BB21D44AB42CFDCE7
:104060005E1C31F813400132B3B2A64492B2AB42A7
:10407000F6DDC5E726B140F21111084800F010F84E
:1040800063449BB21D449D42F5DB3246B646E7E7EA
:10409000CC21024800F004F800FF7F47B05C4100EB
:1040A00000B5074A83B00346002000910549546BD0
:1040B000054AA047054B1B6803B19847FEE700BFC0
:1040C000A4244320DC5C4100C45C4100B0194020C2
:1040D00008B10120704710B5044600F059FC30B11A
:1040E000034B0120034A5B6B03499847204610BDF0
:1040F000A4244320E45E4100005F410010B5044663
:10410000FFF7E6FF00B1E06810BD00BF38B50D460F
:104110000446FFF7DDFF00B1E56038BD10B5044689
:10412000FFF7D6FF08B1606A10BD002010BD00BFC8
:1041300038B50D460446FFF7CBFF00B1656238BDC8
:1041400010B50446FFF7C4FF08B1A06A10BD0020F7
:1041500010BD00BF38B50D460446FFF7B9FF00B1EA
:10416000A56238BD10B50446FFF7B2FF08B10123C0
:10417000237110BD10B50446FFF7AAFF00B1606BB4
:1041800010BD00BF38B50D460446FFF7A1FF00B1D2
:10419000656338BD10B50446FFF79AFF08B194F87F
:1041A000450010BD38B50D460446FFF791FF08B134
:1041B00084F8455038BD00BF10B50446FFF788FFAE
:1041C00008B194F8460010BD38B50D460446FFF717
:1041D0007FFF08B184F8465038BD00BF10B50446D3
:1041E000FFF776FF08B194F8380010BD38B50D46DA
:1041F0000446FFF76DFF00B1258738BD38B50D4681
:104200000446FFF765FF00B1256038BD10B50446D0
:10421000FFF75EFF08B1206910BD002010BD00BF90
:1042200038B50D460446FFF753FF00B1256138BD90
:1042300038B50D460446FFF74BFF18B10DB1636961
:104240002B60207E38BD00BF70B50E461546044673
:10425000FFF73EFF08B16661257670BD10B50446D4
:10426000FFF736FF00B1207F10BD00BF38B50D4607
:104270000446FFF72DFF00B1257738BD10B5044681
:10428000FFF726FF08B1206A10BD002010BD00BF57
:1042900038B50D460446FFF71BFF00B1256238BD57
:1042A00010B50446FFF714FF08B1B4F9300010BD93
:1042B00010B50446FFF70CFF08B1B4F9320010BD89
:1042C00010B50446FFF704FF00B1207910BD00BF10
:1042D00010B50446FFF7FCFE40B12379032B05D847
:1042E000DFE803F006060202A06810BD024810BD18
:1042F0004FF0FF4010BD00BF0000C07F10B5044666
:10430000FFF7E6FE00B1608F10BD00BF38B50D4667
:104310000446FFF7DDFE00B1658738BD10B50446E1
:10432000FFF7D6FE00B1A08F10BD00BF38B50D4617
:104330000446FFF7CDFE00B1A58738BD10B5044691
:10434000FFF7C6FE00B1E08F10BD00BF38B50D46C7
:104350000446FFF7BDFE00B1E58738BD10B5044641
:10436000FFF7B6FE08B1B4F8400010BD38B50D46F1
:104370000446FFF7ADFE08B1A4F8405038BD00BFB9
:1043800010B50446FFF7A4FE08B1B4F8420010BD12
:1043900038B50D460446FFF79BFE08B1A4F842501D
:1043A00038BD00BF38B50D460446FFF791FE08B191
:1043B00084F8445038BD00BF10B50446FFF788FEAE
:1043C00008B194F8440010BD38B50D460446FFF717
:1043D0007FFE08B184F82C5038BD00BF10B50446EC
:1043E000FFF776FE08B194F82C0010BD38B50D46E5
:1043F0000446FFF76DFE08B184F8525038BD00BF87
:1044000038B50D460446FFF763FE08B1A4F85050D6
:1044100038BD00BF38B50D460446FFF759FE00B160
:10442000E58538BD10B50446FFF752FE08B194F893
:10443000630010BD10B50446FFF74AFE08B194F8BA
:10444000640010BD10B50446FFF742FE08B194F8B1
:10445000650010BD10B50446FFF73AFE08B194F8A8
:10446000660010BDF8B50F4616461D460446FFF718
:104470002FFE28B184F85470A4F85660A4F8585060
:10448000F8BD00BF10B50446FFF722FE08B1B4F82E
:10449000600010BD38B50D460446FFF719FE08B19F
:1044A000A4F8605038BD00BF10B50446FFF710FEF9
:1044B00008B194F8470010BD38B50D460446FFF723
:1044C00007FE08B184F8475038BD00BF10B5044658
:1044D000FFF7FEFD08B1B4F84A0010BD10B5044660
:1044E000FFF7F6FD08B194F84C0010BD38B50D4645
:1044F0000446FFF7EDFD08B184F84C5038BD00BF0D
:1045000010B50446FFF7E4FD08B1B4F84E0010BD45
:1045100038B50D460446FFF7DBFD08B1A4F84E5050
:1045200038BD00BF10B50446FFF7D2FD08B194F8BE
:10453000480010BD38B50D460446FFF7C9FD08B167
:1045400084F8485038BD00BF2DE9F04F93B00446C1
:1045500000F01EFA01286DD95F4B2046D3F834B025
:10456000FFF7B6FD002868D182462046FFF7B0FD70
:10457000002869D094F8383020460F93FFF7A8FD43
:10458000002867D0638F20460E93FFF7A1FD002817
:1045900066D02046A58FFFF79BFD002866D02046F9
:1045A000E68FFFF795FD002866D02046B4F84070EE
:1045B000FFF78EFD002865D02046B4F84280FFF753
:1045C00087FD002864D0636B042B7FD9434B2046C2
:1045D0001193FFF77DFD002861D1414B20460D93DB
:1045E000FFF776FD002869D0204694F84590FFF744
:1045F0006FFD002868D0B4F85A2020461092FFF7CB
:1046000067FD109A08B194F84600099253460D9A36
:104610000A9002200792119ACDF820900295314914
:10462000CDE905820E9A01920F9ACDE903670092B7
:104630002D4AD84713B0BDE8F08F2046D4F80CA01F
:10464000FFF746FD002895D10F902046FFF740FD6B
:10465000002897D10E902046FFF73AFD002898D108
:1046600005462046FFF734FD002898D1064620462F
:10467000FFF72EFD002898D107462046FFF728FDBA
:10468000002899D180462046FFF722FD00289AD1C4
:10469000164B11932046FFF71BFD00289DD094F880
:1046A0006230002B99D0124920460C4A012B18BFCA
:1046B00011460D91FFF70CFD002895D1814620464B
:1046C000FFF706FD002896D1024696E7094A52F800
:1046D00023301193DEE700BFA4244320D44D4100D2
:1046E000A05E4100005F4100A85E41009C5E410069
:1046F000A45E4100E85C410038B50546FFF7E8FCE0
:10470000044648B16B6B042B08D92B4B00202B4A75
:104710005B6B04462A499847204638BD0AD0AB8FC8
:10472000162B11D9244B0020264A5B6B04462449E2
:104730009847F1E700F0C2F890B91F490446224AB1
:104740004B6B1F499847E7E72B8F013B3E2B12D954
:10475000194B00201D4A5B6B044619499847DBE75B
:104760002B79032BDBD1144B0020194A5B6B0446D9
:1047700013499847D0E76B6B2A794BB9032A0CD1C0
:104780000D4918461C46134A4B6B0D499847C3E721
:10479000032A06D033F00403BED1012385F84C3040
:1047A000BAE795F84C000028F4D1034B04460A4AB6
:1047B0005B6B03499847AFE7A4244320FC5C4100AE
:1047C000005F4100985D4100145D4100CC5D4100F7
:1047D000545D4100205E41005C5E4100436970B55C
:1047E000466B3BB383692BB3836A1BB3436A0BB33A
:1047F000C36AFBB18368EBB1C368DBB10369CBB1BA
:10480000F6B10368202B16D843680F2B13D9C36960
:104810000BB1036A7BB104460A4D01260FCC0FC5CC
:104820000FCC0FC50FCC0FC594E8030085E803003B
:10483000304670BD26B1044A00200449B047002626
:10484000304670BDA42443205C5F4100D863410022
:1048500038220021014806F043BB00BFA4244320B6
:10486000014B1868704700BFA4244320014BDB6A4A
:10487000184700BFA4244320014B5868704700BF6D
:10488000A4244320014B5B69184700BFA4244320A4
:10489000014B9B69184700BFA4244320024BDB69EE
:1048A00003B11847704700BFA4244320024B1B6A82
:1048B00003B11847704700BFA4244320024BD869B6
:1048C000003018BF01207047A4244320014B5B6ACD
:1048D000184700BFA4244320014B9B6A184700BF20
:1048E000A42443202DE9F0410D4C0F469046064686
:1048F000A3689847054630B9636B0A4A0A49984746
:104900002846BDE8F081094B1B68002BF8D01C68D5
:104910003A4643463146A0472846BDE8F08100BFED
:10492000A4244320385F4100D8634100B4194020DB
:10493000F8B590B10C4611461A46A4FB006777B94A
:1049400004FB00F52846FFF7CDFF044618B12A46C0
:10495000394606F0C5FA2046F8BD0446FBE7CF21EC
:104960000148FFF79DFB00BF485F4100064B1B68F5
:1049700010B504460BB15B689847044B2046DB68D2
:10498000BDE81040184700BFB4194020A4244320BC
:10499000014B93F830007047A424432070B50B4CB2
:1049A00084B0012500EB40068DF8040003FA05F001
:1049B00004EB860302915C68039524B111469B6861
:1049C000024601A8A04704B070BD00BF18004020F7
:1049D00070B50A4C84B0154600EB40028DF8040017
:1049E000072604EB820002910396446824B11A461C
:1049F0002946836801A8A04704B070BD1800402074
:104A000010B584B0084B0022029100EB40018DF8F4
:104A1000040003EB810303925C681CB19B681146A0
:104A200001A8A04704B010BD180040204A1E31B1B3
:104A30000388013A5BBA20F8023B531CF8D1704757
:104A4000006800BA704700BF00BA0860704700BF36
:104A500000487047705F4100343003F009BF00BF69
:104A600070B50446343003F0CBFE68B9D4F848235F
:104A700003460125D4F8181304F5457013615571E8
:104A80009371BDE87040084770BD00BF38B5046839
:104A9000054654B104F1340003F0A4FED4F87003C9
:104AA000FFF764FF2046FFF761FF2846BDE8384066
:104AB000FFF75CBF2DE9F04F8DB006461746012089
:104AC0000491102107934FF48073D94AFFF730FF08
:104AD000804640F20113D64A4FF45E710120FFF781
:104AE00027FF0446B8F1000F00F0E581B0FA80F529
:104AF0006D09002D40F0DF8100F1340300F555729F
:104B000000F1140AC8F800000293184600923146DA
:104B100053463A4603F046FE80B329463846FFF72F
:104B200087FB83460820B4F8546303F0B7FEB4F85B
:104B30006213B4F8543300FB06F2B4F860633846ED
:104B40000B4471005E008E4238BF0E46964238BF5D
:104B50001646FFF7D5FC864238BF0646C4F8746394
:104B6000BBF1000F40F072814FF4C272B049304681
:104B7000FFF7B8FE0546C4F8700340B940464FF051
:104B80000008FFF783FF40460DB0BDE8F08FB4F892
:104B90005693082003F082FE00FB09531A4604F1E5
:104BA000080104F1100904F1060EE01D04F1040CE3
:104BB0006166A5646465C4F88050C4F85890C4F870
:104BC0009490C4F8D090C4F884C00391C4E917E06D
:104BD000C4E92F553846CDE90532FFF765FC039946
:104BE000DDE9053218B1C4F80C91C4E93E55C4F8AA
:104BF0003451C4F83851C4F84891C4F86C51C4F821
:104C00007051C4F88091C4F88C11C4F8AC51C4F848
:104C1000B051C4F8C091C4F8F051C4F8F421C4F8FC
:104C20000492C4F82822C4F82C22C4F83C92BBF1A8
:104C3000000F08D02E44C4F87822C4F87C32C4F89F
:104C40008462C4F88C92C4F8B432524604F55C73A2
:104C5000C4F8B852C4F8C8923946C4F8EC52C4F843
:104C6000F052C4F800930298C4F82453C4F848439F
:104C700003F0A6FD002881D004F1AC0304F1700B11
:104C8000002205211D465846059302F05FFF284685
:104C90000022052103F0ACF93846FFF705FC002897
:104CA00040F0F98004F5927304F5AE7508220521F1
:104CB0000693184604F5CE73099504F50679039317
:104CC00003F0A0FA284604F5F07500230821226AB3
:104CD000089503F0ABF8B4F85A533846B4F85C635F
:104CE000FFF794FA2B46009032460821039803F010
:104CF00023FCB4F858230821089803F001FB384638
:104D0000FFF7ACFA05463846FFF7B8FA0821034624
:104D10002A46CDF800A0484602F094FF0BA9384679
:104D2000FFF786FA002840F0AF8004F5297604F5F5
:104D30003775082104F5457A304603F0F3F802226E
:104D40000421284603F05EFA049B5046196803F0DC
:104D500017FD5946029803F0ADFD5846059903F03A
:104D6000A9FD3846FFF7A0FB002840D004F1E80B6E
:104D70000598594603F09EFD0699584603F09AFDA2
:104D8000DDF824B00698594603F094FD584603997F
:104D900003F090FDDDF820B00398594603F08AFD3A
:104DA0004946584603F086FD38460021FFF740FA91
:104DB00010BB4846314603F07DFD2946304603F0DE
:104DC00079FD2846514603F075FD029803F014FD65
:104DD0000546E0B9174B184A5B6B1849984740469F
:104DE000A846FFF753FE40460DB0BDE8F08FDDE961
:104DF000050103F05FFDC3E704F51A77484639461D
:104E000003F058FD3146384603F054FDD5E70298CB
:104E100003F0EEFC07980A49C4F84C034046094ADF
:104E2000094BC8E90112C8F80C300DB0BDE8F08F8D
:104E3000A05F4100A4244320B85F4100D85F410037
:104E4000614A4000594A40008D4A40000820B4F8A9
:104E5000545303F023FD06F10A034FF4C2721A49BA
:104E600000FB0530FFF73EFD0546C4F8700300283F
:104E70003FF484AE0820B4F8569303F00FFD331DC1
:104E800000FB09522B448AE60B9A082104F51A709C
:104E900003F012FC49E73846FFF744FB0028228D57
:104EA0004FF0050114BF1E234FF4967304F1E80080
:104EB00003F098FAF6E640464FF00008FFF756FD7B
:104EC0002046FFF753FD5EE6A05F4100800080B200
:104ED00000EB510310809BB28B42538014D350805F
:104EE00030B4B3FBF1F4002501FB1431012403239A
:104EF00095819480D480548114825482D581958286
:104F00001180138130BC704701230021032093805E
:104F1000538193811382D180518291821081D081FB
:104F2000704700BF2DE9F04F8BB091460446002535
:104F3000069309AB05900A4607912146D9F800006F
:104F4000009308ABCDE90855FEF74EF9002865D06F
:104F5000099BDFF8FCA21C46C5F52C63089EB34AEA
:104F6000AFB29C42304602EB05014FF0000B28BF68
:104F70001C4622461FFA84F805F0B4FED9F8043026
:104F80001D2230463946019300925346424603F0B3
:104F90006DFDD9F808301B22394630460193009246
:104FA0005346424603F062FD4FF01C0CD9F80C301A
:104FB000424639463046CDE900C3534603F056FD1C
:104FC000B9F810C01923424639463046CDE9003CB5
:104FD000534603F04BFD1023424639463046CDE997
:104FE00000B3534603F042FD2346C5F38F01059AF3
:104FF000D9F80000FDF764FE099C2544B5F52C6F37
:10500000AAD31821D9F80000FEF746F9064678B968
:10501000874B884A5B6B8849984705E0844B064676
:10502000864A5B6B8449984730460BB0BDE8F08FE9
:10503000D9F800405B4603224FF4FA612046FEF7A0
:10504000A1FA38B97A4B00207D4A5B6B06467A4953
:105050009847E9E709AA9D21204601F0D9FFBDF84C
:1050600024500520012305F0070509AA2146ADF8C3
:105070002450FFF793FC2046FEF78AF90028E1D080
:105080004FF44073D9F80050BDF82460ADF82430D7
:105090002846069B1E60FEF76BF9044668B1644C17
:1050A0002B465846674A656B6349A8470020636BE7
:1050B000654A614906469847B6E713230196634E51
:1050C000024600932846624BA3465849029603F0D5
:1050D00073FD0123DFF8589122460093284602967B
:1050E00001945B4B514903F067FD09AB2121284630
:1050F000002213F80BA0554B009102934B49544BDF
:10510000CDF804A003F058FD40F2CD112846FEF77B
:10511000C3F878B1002309224FF4FA612846FEF75C
:1051200031FA70B9424C5346656B4A4A00204249F5
:10513000A847BBE73E4C5346474A656B3E49A847E4
:10514000B4E710210798FDF7DFFD28B9384C434A32
:10515000636B39499847E6E71023002205992846F2
:10516000FDF7DAFD10230246294604460020FFF72A
:1051700015FC2846FEF70CF906460028D2D04FF061
:105180000008234604F11E0C47465A8833F8021BD8
:1051900017448A42A2EB010038BF881A804538BF05
:1051A00080469C45F1D1284602F0BCFAF0B91022A5
:1051B0002146284602F014F82488294B40F6B832DC
:1051C0003C44284624092344B8F5487F98BF9342BD
:1051D0008CBF0127002702F0A5FA002846D197B11D
:1051E000BBF1000F0DD14FF0010B7EE7FFF7D0FBB5
:1051F0000128DCD9D9F8343002201A4A0E499847E0
:10520000D5E70B4C52E7069B83F804A0FFF7C0FBE1
:1052100001287FF609AF06990220054A0B79546BE5
:105220000093114A0B680449A047FDE6F86F41005E
:10523000A42443205060410030604100EC5F4100F5
:10524000846041009C60410084614100752C4000F5
:10525000547C410058614100D06041001061410020
:10526000E886FFFF286141009C614100FFF790FB49
:105270000128B4D9CDF8008023460220D9F8344063
:10528000014A0249A047AAE740614100306041005D
:105290002DE9F04FB1F5457F2DED068BCBB0149085
:1052A00012930CD24E4B00204E4A5B6B04464E4983
:1052B000984720464BB0BDEC068BBDE8F08FA1F5BA
:1052C00016731546A1F545721499B2F5007F0B448B
:1052D0000E9201EB020A1993C0F06284434BA84678
:1052E000DFF8FCB010930223DFED418A9FED418A85
:1052F0001393CDF87CA0D8F8000002F013FA002830
:1053000040F01484139A00263B495300199F9FEDE7
:105310003C9ACC181D93DDF85090A246144626E026
:1053200037F8323BB6EE006A07EE103A109BB8EE43
:10533000477AB3F90050BAF9003027EE287AED1A0F
:105340002BB237EE467A06EE903A24AB67EE087A37
:10535000F8EEE66A27EE897A76EEC77AFDEEE77A0E
:1053600017EE902A23F8162001360C2E4AD0D8F8D2
:10537000000002F0D7F930BBD8F804503B46D8F80B
:1053800000003DAA3E95D8F80850B8F810C03F95E7
:10539000D8F80C503D9048464095D8F814500E99D6
:1053A0004495D8F8185042944396ADF804C14595F9
:1053B00001F036FC0028B3D1044620464BB0BDECCA
:1053C000068BBDE8F08FFFF7E3FA012833460B4A5E
:1053D00005494FF00200CFD9DBF83450A847CBE79E
:1053E000A4244320385F4100C0614100946C410017
:1053F000000080379A99993F886C41000C62410007
:1054000000007A44D8F8000002F08CF9002840F03F
:10541000E0830C2224A9D8F8000001F0E1FE0C2062
:1054200021AA24A900F00CFDD8F8000002F07AF9B6
:10543000002840F0C28321AB0C22D8F800001946A6
:10544000119301F059FEDDF87CA0119BD8F8000003
:105450001A4612F8013B0993119202F063F90028F1
:1054600040F07E81D8F8000002F05CF9002840F09E
:105470006A81099B3DAA199E192003EB830430AB76
:105480002DB204EB840406EB4401159103F024FCD7
:1054900036F8143007EE905AF6EE005A1FED286ADF
:1054A00007EE103AF8EEE76A1C90B8EE477A67EE1E
:1054B000287A77EEE57A67EE887A27EE867A76EEB6
:1054C000C77AFDEEE77A17EE902A16B2002800F0B0
:1054D000BD823DAA431E07EE906A0F960B929BB2C7
:1054E0000DF1F602B8EEE79A02EB43031A930B9B19
:1054F000F6EE006AA14A33F8024B9FEDAD7A0B93AA
:105500004AAB03EB440333F8685C2B460D95A2FBD2
:105510000332159BC2F3870233F8123007EE903A3C
:10552000F8EE677A67EEA87A77EEE67A67EE887A21
:1055300067EE877A77EE897AFDEEE77A17EE903A92
:105540001BB20A93FFF724FA032807D923460095D4
:10555000DBF8344004208A4A8A49A047D8F8000082
:1055600002F0E0F8002840F0AF80D8F8000002F028
:10557000D9F8002840F0BB80D8F8000002F0D2F83B
:10558000002840F0C7800A9BA3F21A439BB2C82BA5
:1055900000F22B83D8F8000002F0C4F8002840F095
:1055A000C6807C211B202AAA4FF00009FFF78EFC41
:1055B000D8F80C70B8F810C001236FF0010E162651
:1055C0000F2507240620D8E90121CAF80870CAF877
:1055D0000020AAF80CC0BDF8AEC0CAF80410032120
:1055E000D8E90572CAF84890CAE90472BDF8A870F3
:1055F0000D9ACAF82870BDF8AA70CAF81820CAF81F
:105600002C70099ABDF8B070CAF81C20139ACAE928
:105610000CC7BDF8B4C0BDF8B670CAF82020CAE9FE
:105620000EC7BDF8BAC0BDF8BC708AF8B530CAF86C
:105630008840CAF8A0E0CAF884908AF88C908AF86A
:105640008D90CAE910C7CAE91F65CAE91339CAE9CA
:105650001593CAE91B33CAE91D39CAE92B39CAE9CE
:105660002601CAE91799CAE91999CAE92499CAE928
:105670002999FFF7FBF89AF88C30CAF8B8002AA9E4
:105680008AF8B49050460C93D8F80070DAF89C4031
:10569000DAF8AC50DAF8806001F0D6F92B9A2F9B3B
:1056A0009A4240F08780384B4846384A5B6B354910
:1056B0009847FFF76DF928B1334B0120344A5B6BF3
:1056C000304998470024F4E5FFF762F901287FF696
:1056D0004CAF0220DBF834400D9B2E4A2949A047ED
:1056E000D8F8000002F01EF800283FF445AFFFF79D
:1056F0004FF901287FF640AF0220DBF834400A9BC7
:10570000254A2049A047D8F8000002F00BF80028ED
:105710003FF439AFFFF73CF901287FF634AFDBF8EF
:10572000344002200F9B1D4A1649A0472BE7FFF784
:105730002FF901287FF635AFDBF834300220184A04
:10574000104998472DE7FFF723F901287FF691AE1E
:10575000DBF834401B23134A02200A49A04788E69D
:10576000FFF716F901287FF67DAEDBF83440022002
:10577000099B0D4A0349A04774E600BFCDCCCCCCB1
:1057800068624100C0614100A424432000634100DD
:10579000C06441008062410094624100A462410003
:1057A000DC624100546241000C6241000000F8429A
:1057B00000007A4453460E9A14993846DDF8A890B2
:1057C00000F08EFC00283FF474AF07EE905A5FEDB6
:1057D000096A0134CDF87880F8EE677AD046A4B231
:1057E00086EEA77AFCEEC77A17EE903A9BB204FBDE
:1057F00003952B4635461E46384601F0EFF8002843
:105800003FF457AFCDF85C804FF0000A1FED18AAA7
:10581000B04620AB64224FF4FA613846FDF74AFEE9
:1058200000283FF446AF9DF88030062B7FF441AF4F
:105830001FFA88F30E9819461693FDF765FA0028AB
:1058400000F0DF81424614993846FDF775FF814626
:1058500000283FF42EAF2A98C04AA8EB000109EBBC
:105860004000490002F018F8002840F0AE80002DFA
:1058700040F0CD810C9B002B40F00282FFF788F8AE
:10588000032805D9DBF834300420B54AB5499847D8
:105890002A98B54AA8EB000109EB4000490001F045
:1058A000FBFF002840F002822C9BF6EE007A129E4D
:1058B000384639F81310179B06EE901A7561AB49FC
:1058C000F8EE666A1A6AAA4B31F8124066EEA86AC8
:1058D0002D9933F8123039F811101B1B76EEE76A58
:1058E00007EE101A2E9A19B2B8EE477A39F812302C
:1058F00066EE886A09EE901A1B9327EE287A0C99B7
:10590000B8EEE96A66EE8A6A317677EE677A36EE45
:10591000667A67EE887ABDEEC77A67EE8A7A17EE06
:10592000103A1CB207EE104AB8EEC77A77EE877AC3
:10593000FDEEE77A17EE903A1BB2189301F0F2FEF3
:10594000002840F0E780384601F0ECFE002840F0E7
:10595000C280384601F0E6FE002840F0CE8038468E
:1059600001F0E0FE002840F097800F9B1B1B002BEE
:10597000B8BF5B421BB2642B13DCA4F54374A4B222
:10598000B4F5E67F0DD80A9B189A9B1A002BB8BF76
:105990005B421BB2642B04DC19EE903A934280F216
:1059A000B881BAF1020F2FD0FEF7F2FF032806D913
:1059B000DBF8344053466F4A04206A49A047384612
:1059C0000AF1010AFDF7E4FC23E72A98664AA8EBEE
:1059D000000109EB4000490001F05EFF00283FF4A0
:1059E00063AF0F2D40F062810C9B002B00F07381A0
:1059F000FEF7CEFF03287FF657AFDBF834300420E4
:105A00005D4A584998474FE7DDF85CA0DDF878809B
:105A1000FEF7BEFF032805D9DBF834300420574ACF
:105A20005049984738464FF4FA61FDF7D7FDFEF725
:105A3000AFFF022805D9DBF834300320504A49492A
:105A400098471A9B0B9A93427FF451ADFEF7A0FF43
:105A5000032808D91C9B0420DBF834400093494AF2
:105A6000099B4049A047FEF793FF032808D9099BEB
:105A70000420DBF834400093434A139B3949A04784
:105A8000119B24AA9A42109B5ED0B3F900501D9A34
:105A9000364B9B5EED1AD8E4FEF77AFF01287FF6BD
:105AA00064AFDDED1B7AB6EE007A384A0220F8EEDC
:105AB000677A2C49DBF8346067EEA87A77EEC77A0C
:105AC00067EE887A67EE8A7AFDEEE77A17EE903A0B
:105AD0001BB2B04749E7FEF75BFF01287FF639AFFD
