:020000040040BA
:10000000A02B432041004000E1D34000D5D3400065
:10001000C9D34000BDD34000B1D340000000000070
:10002000000000000000000000000000F1C14000DE
:10003000A5D340000000000081C24000850C4100B3
:10004000194AD2F8883043F4700310B5C2F88830EA
:10005000BFF34F8FBFF36F8F144A154882420BD204
:10006000D34311460024034423F003030433134411
:1000700041F8044B9942FBD10E4A0F4882420CD200
:10008000D3430E490344081D23F00303034451F8EE
:10009000040B994242F8040BF9D111F0D3FC0DF096
:1000A000CFF909F037F8FEE700ED00E0001040203E
:1000B000441D432000004020AC0E4020E0B641002B
:1000C0002DE9F04F2DED028B8BB000AF08F0E4FA74
:1000D00030B901202C37BD46BDEC028BBDE8F08F56
:1000E00003F0A0FA01466048C7F804D00EF0AAFD5C
:1000F00008F0DCFA00F0D2F8002873D000F094FD8C
:100100000446F860002800F09180584900F0FEF99C
:1001100020464FF07C5100F003FAF86800F09CFB99
:100120003861002800F0898007F10C009FED508AAB
:1001300000F008FE0023386907F11801C7E906330B
:10014000C7E9083300F010FED7ED067A494867EE9C
:10015000887AFDEEE77A17EE901A0EF073FDD7ED70
:10016000077A454867EE887AFCEEE77A17EE901A30
:100170000EF068FD398C41480EF064FD386900F0DE
:1001800029F9002864D03A8C69464FF005083C4EA6
:1001900053000833DB08A1EBC3039D46EA4607F191
:1001A00014035146386900F001FE814638B33D8C96
:1001B00034480EF035FDD5B1AAF102044FF0000B22
:1001C00034F8021F30460EF03DFD0BF101031FFA1B
:1001D00083FB5D450BD01BF0070FF1D10A2009F01E
:1001E0007FFEEDE728480EF01BFD012072E70A2094
:1001F00009F076FEB8F1010804D03A8CCFE7234825
:100200000EF00EFD07F1280555F8180D00F034F931
:100210000446284600F0BCFB00F07CF804EA090024
:10022000D7F804D080F00100C0B253E718480EF0B0
:10023000F7FC00F06FF801204CE716480EF0F0FCD8
:1002400007F10C0000F07EFD00F064F8012041E7AA
:1002500011480EF0E5FC07F1100000F099FB00F0EA
:1002600059F8012036E700BFC43E4100CDCC4C3EDA
:1002700000007A44503F4100603F4100703F410020
:10028000DC3F4100CC3F4100E43E4100A43F41003F
:10029000003F4100343F4100843F410010B5174CFE
:1002A00023788BB940B103F083F828B100F0C6FA87
:1002B00010B101F02BFF98B9114B0020114A5B6B74
:1002C00011499847207810BD03F04CF90128F9D95D
:1002D0000B4B02200D4A5B6B0B499847207810BDF1
:1002E0000123237003F03EF90128EBD9044B0220CF
:1002F000074A5B6B04499847E4E700BF00104020C1
:10030000A41C432004404100004041001C40410027
:10031000E03F410010B50B4C237803B910BD00F04D
:1003200063FB01F02BFF03F01DF9012805D9064BF3
:100330000220064A5B6B0649984703F073F80023D6
:10034000237010BD00104020A41C432044404100F5
:1003500000404100024B0120024A5B6B02491847F2
:10036000A41C4320344141004C41410008B10069C4
:10037000704710B5044603F0F5F830B1034B012087
:10038000034A5B6B03499847204610BDA41C4320D9
:10039000344141004C41410070B50D460446FFF721
:1003A000E5FF58B12946064602F0AEFE3DB9A36806
:1003B00023B161792046BDE87040184770BD3046D2
:1003C0000F2102F0ADFD30460121BDE8704002F082
:1003D000C9BD00BFF8B560B9204C0020204A636B4E
:1003E000204998470020636B1F4A1E499847002008
:1003F000F8BD1E4B044602689A42EDD11C4B18789A
:10040000B8B1637B002BF3D0A368202B11D8194D12
:1004100015F813206AB905EB43020127567805F851
:10042000137046B100220D4C05F81320DAE7202B9B
:10043000F8D90A4CD6E704F11C0001F0E7FFA368E5
:100440000028F4D0202B06D805EB4302667305F88C
:1004500013605770F8BD6673F8BD00BFA41C43203D
:10046000684041004C41410078404100E89EC0ACEA
:1004700001104020041040202DE9F04170B91C4CBF
:1004800000201C4A636B1C4998470020636B1B4A81
:100490001949054698472846BDE8F081184B04469F
:1004A00002689A42EBD1174B1D78DDB1437B002BDC
:1004B000F1D18368202B15D8134E16F813708FB91D
:1004C0004FF001081C3006F8138001F0D7FFA36835
:1004D000202B09D806EB430284F80D8006F8137030
:1004E0005770D8E7024CD0E784F80D80D3E700BFFF
:1004F000A41C4320684041004C414100AC404100F5
:10050000E89EC0AC011040200410402010B50C46FD
:10051000FFF72CFF2146BDE8104002F0F3BB00BFFF
:1005200010B50C46FFF722FF2146BDE8104002F04F
:10053000FBBB00BF43693BB1DA6810B504461846FF
:1005400090470023636110BD704700BF2DE9F04163
:100550000E4682B00546002832D1324B0020324A86
:100560005B6B324998470023B47E64B17268B2B9BC
:100570002C4B00202E4A5B6B04462C4998472046A2
:1005800002B0BDE8F081B26862B9264B2046294A24
:100590005B6B26499847204602B0BDE8F081F268BF
:1005A000002AE5D0BBB12B7B3278934218D01D498D
:1005B00000200092204A04464D6B1C49A847DEE704
:1005C0001E4B02689A42C8D10123CDE72846FFF7A7
:1005D00001FF804648B90024204602B0BDE8F08102
:1005E00096F81880B8F1000FF0D16F7B87B10D4BF2
:1005F0000024134A20465B6B0C499847B8F1000F62
:10060000BDD02846FFF738FF204602B0BDE8F08194
:100610006B69AE61D3E900029047747EAF6184F0EC
:100620000104EBE7A41C4320684041004C41410019
:10063000C8404100E840410000414100E89EC0AC94
:100640001C41410070B59DF810501E46846945B9A3
:10065000A07E78B1E36860689A4228BF1A4609F024
:10066000EBFA2069657658B162693146BDE87040A1
:1006700009F0E2BAA2681160206965760028F3D11A
:1006800070BD00BF014B1870704700BF01104020C3
:1006900008B538B9064B0020064A5B6B06499847F7
:1006A000002008BD0268054B9A42F3D1012008BD25
:1006B000A41C4320684041004C414100E89EC0AC6E
:1006C00008B538B9094B0020094A5B6B09499847BE
:1006D000002008BD084B02689A42F3D1038B002B1F
:1006E000F0D04369002BEDD0012008BDA41C4320AD
:1006F000344141004C414100D79DC0AC08B538B9E8
:100700000F4B00200F4A5B6B0F499847002008BD34
:100710000E4B02689A42F3D1038B002BF0D0436951
:10072000002BEDD04379013B042B07D9044B00206B
:10073000074A5B6B04499847002008BD012008BDAB
:10074000A41C4320344141004C414100D79DC0AC22
:100750009440410010B568B18368044653B161719B
:100760009847237B03B910BD20460121BDE8104006
:10077000FFF712BE02F0F6FE0028F4D0BDE81040EC
:10078000FFF7E8BD08B528B103461973BDE8084076
:10079000FFF702BE02F0E6FE18B1BDE80840FFF721
:1007A000D9BD08BD70B5059D04460261084EBDF86F
:1007B0001020017106609DF8181085604361028366
:1007C000FFF7C8FF20460021BDE87040FFF7DABF01
:1007D000D79DC0AC30B583B0044602F0C3FE0328F9
:1007E00008D911490420A2684D6B63680F49009233
:1007F0000F4AA847606800230E4951F8042B12B134
:100800005268904204D00133042BF6D103B030BDBE
:10081000094A0021204602EB8303596003B0BDE87A
:10082000304002F08DBE00BFA41C43208042410036
:1008300058424100040040200000402010B5054C03
:10084000207800B110BD012318462370FFF71AFF6E
:10085000207810BD000040202DE9F043414D83B0C9
:100860002B7853B9404918461C46404A4B6B4049C7
:100870009847204603B0BDE8F0830746FFF720FF06
:10088000002858D03B69D3F80C80B8F1200F33D83A
:100890006B7853B92B1D05F1140153F8042B12B1D9
:1008A000926890454CD09942F7D1D5F814903C8B82
:1008B00009F101036B6102F055FE032808D92A4AA9
:1008C0004B46CDF800800420566B2949294AB04791
:1008D000294B002653F8042B92B10136042EF9D18E
:1008E00021493346254A00204D6B21490446A8473B
:1008F000204603B0BDE8F0831B492023204AF2E7DD
:100900002146D4231F4A012002F0FCFD044690B189
:100910001D4B05EB8605C4F8049039462360C4F8E6
:1009200008807B696C60984790B10123204663730F
:1009300003B0BDE8F0830024204603B0BDE8F08397
:10094000094B0020114A5B6B04460949984790E720
:1009500023690BB12046984720460024FFF73AFF51
:1009600087E700BF00004020A41C432094414100C1
:10097000804241007041410004004020D0414100CC
:1009800054414100F4414100E89EC0ACA8414100FF
:10099000114B1B7810B533B1044618B10068FFF74E
:1009A00077FE60B910BD02F0DDFD0028FAD00B4BD8
:1009B00001200B4A5B6B0B49BDE8104018472068CB
:1009C000FFF75AFD206803690BB198472068FFF7CD
:1009D00001FF0023236010BD00004020A41C432021
:1009E000944141008042410038B51B4C2578002DD0
:1009F00030D063680BB3201DFFF7CAFFA36803B3B1
:100A00001648FFF7C5FFE36813B11548FFF7C0FFAD
:100A1000236913B11348FFF7BBFF02F0A3FD28B110
:100A2000114B0120114A5B6B11499847002318466E
:100A30002370BDE83840FFF725BE1D46A368002B94
:100A4000DED1E368002BE0D12369002BE2D1002D39
:100A5000ECD0E2E738BD00BF000040200800402095
:100A60000C00402010004020A41C43200C424100F8
:100A70008042410070B50C4684B00146104665794D
:100A800003AB22698DF80D5000952679E579A4799C
:100A90008DF80E608DF80F508DF80C40FFF7D2FDE9
:100AA00004B070BD30B5A5B0882204460D4602A83A
:100AB00009F0C2F809A802F0CFFA07EE900A09A8D7
:100AC000B8EEE77ADDED237A67EE277A17EE901A13
:100AD00002F0C8F902A8FFF711FE40B1169B042BE3
:100AE00008D11A4B00201A4A5B6B1A49984700201C
:100AF00025B030BD09A802F0E9FB0028F7D009A80D
:100B000002F0AAFA431E9BB2012B09D9042807D090
:100B10000E4B0020104A5B6B0E4998470020E7E718
:100B20002B7924A90D4809AA2373234641F88C0D7B
:100B300004F11C0002F0A8FD03460030084A18BF6B
:100B40000120C4E9042325B030BD00BFA41C43200C
:100B5000A8424100E4424100F8424100750A4000C9
:100B60003505400010B50446FFF7AAFD08B123790A
:100B700053B102F0F7FC30B1044B0120044A5B6B27
:100B800004499847002010BD204610BDA41C4320F6
:100B900034414100E442410038B50C46FFF7E2FF22
:100BA000C8B1611E054600F11C04042913D8DFE812
:100BB00001F01323333503001021204602F0C0F961
:100BC0000621204602F0ACF92046012102F0CAF9C4
:100BD000134BC5F8843038BD0021204602F0B0F92F
:100BE0000021204602F09CF92046032102F0BAF9C8
:100BF0000C4BC5F8843038BD0721204602F0A0F91F
:100C00000621204602F08CF92046092102F0AAF9BB
:100C1000034BC5F8843038BD0921EEE70C21CCE741
:100C20000938843BFA61843C70B56B2384B03D4A3B
:100C30008821012002F066FC054600286FD000F1F3
:100C40001C0402263849502322460093374BCDE935
:100C500001160021FFF7A6FD2046354902F052F8A3
:100C60002046344902F060F82046062102F0BCF923
:100C700020460A2102F0A4F82046012102F030F9B2
:100C80000121204602F02CF8204602F055F83146AA
:100C9000204602F061F82046002102F07FF920464C
:100CA000002102F069F92046002102F065F8204693
:100CB000002102F073F82046FF2102F08BF9204654
:100CC000002102F07DF9002320461A46194602F061
:100CD000B3F92046012102F0C7F920460B2102F0AA
:100CE0000FF92046012102F0D1F92046124902F005
:100CF00081F801222046114902F090F82046012196
:100D000002F09EF82046012102F0DAF920464FF465
:100D1000965102F0E7F92046094902F059F82846B1
:100D200004B070BD90424100990B4000A50A4000FC
:100D3000CDCC4C3ECDCCCC3ECDCCCC3D9A99993E41
:100D4000D914400070B110B504460068FFF7B8FC34
:100D500000B910BD2068FFF705FF02F0F1FB00238A
:100D6000236010BD704700BFE8B1037BDBB9D1B190
:100D70004369B6EE007ADFED0C6A1B68D3ED087AA2
:100D80009A8D67EEA67A9869013A67EE877A10B471
:100D90005C695B8D0C604A814860C1ED037A0B8110
:100DA0005DF8044B70477047C2F38E4D70B552002A
:100DB0008AB000240425019101AE049103A9069292
:100DC000012207938DF80C408DF824408DF82540C2
:100DD000059608958DF82620FFF7B8FB0AB070BD80
:100DE00043693BB110B50446184602F0A9FB002345
:100DF000636110BD704700BF2DE9F04744698AB0B8
:100E000007468846B4F8C03091460BB9A4F8C23002
:100E1000B4F8C8207C23D4F8C450B3FBF2F305FB2C
:100E200003F5002D37DB204604A904F0F7FBD8F8C2
:100E30000030049A6E00B4F8C2102A44386819448D
:100E400001F0E6FD03AA824604F1BC03386851466E
:100E50000092224604F0FAFB9DF80C3004A92046CB
:100E6000003318BF012389F8003004F0D7FBB4F831
:100E7000C230D8F800003246049918440AEB410108
:100E800008F074FFB4F8C23028461E44A4F8C260CB
:100E90000AB0BDE8F08740F25A21014801F0EAFEAD
:100EA000044441002DE9F04FD0F814A0B7B0034638
:100EB0008B4615465146BC2207A8D3F8009008F08F
:100EC000BBFE4FF0020C329F0024012607FA0CF8FB
:100ED00007ABDBF80420484608F1FF37DBF80010C9
:100EE000CDF8BCC02E971D962294BAF8C8701C94F9
:100EF0008DF8D04003F0DEFE484604F059FB48462A
:100F00006B4664224FF4FA6101F040FC064618B9C2
:100F1000304637B0BDE8F08F7C23504601A9DBF89E
:100F200000B0B3FBF7F704F079FB08FB07F7019A71
:100F3000594648463A4401F06BFD4FF4FA61804649
:100F4000484601F0B7FC504601A904F067FB019840
:100F50000E2FA7F10E0C08EB400021D97F0000F105
:100F60001A012346023F0A4600EB070E32F8024FF1
:100F700096452344FAD138440024B3FBFCF231F8FF
:100F8000023F9B1A002BB8BF5B4288421C44F6D13B
:100F9000B4FBFCF4A3B230462B8037B0BDE8F08F31
:100FA0002346F8E7F0B54369002599B00668C3F811
:100FB000BC500C46174602F043FA02A9119011A842
:100FC00004F096FB18B90024204619B0F0BDBDF816
:100FD0000A506B46BDF80C1005AABDF80E0007912B
:100FE000089061682068CDE90565BDF81050ADF83E
:100FF000245002F081FD0028E5D0BDF80A1011ABA5
:10100000BDF80C000AAA9DF804500C90BDF8100021
:101010001095ADF83800CDE90A61BDF80E100D91BC
:1010200000990F91D4E9000102F01CFF044600284A
:10103000C9D0009906239DF804201198B980FA8040
:101040001299139A38817981BDF85000BDF8521079
:10105000BA81BDF85420F88139827A823B6002F06F
:1010600081FA0128B0D9034B0220034A5B6B034984
:101070009847A9E7A41C4320184341003843410086
:101080000B68062B70B58CB00BD028480621284A77
:10109000446B0020009127490546A04728460CB024
:1010A00070BD0C46064602F0CBF903A9069006A8CF
:1010B00004F01EFB05460028F0D0BDF8123006AA49
:1010C000BDF80E00B360BDF814303060B381A08865
:1010D000E388BDF81010C6E90403208963897160B4
:1010E0007C21C6E90603238AA089B384638A30621F
:1010F000E089F38402F0D4FCBDF81800BDF81A10A2
:10110000BDF81E20BDF82030B062F162BDF82400A9
:10111000BDF8261032637363BDF82A20BDF82C3069
:10112000C6E90E01C6E91023B8E700BFA41C43209E
:10113000844341003843410010B5B0F8C84086B040
:1011400064B1694604F06AFA7C230098B3FBF4F3B7
:10115000C0F50060B0FBF3F006B010BD4FF49F7116
:10116000014801F087FD00BF044441002DE9F04F24
:1011700044698DB0064608460D4691461F464FF01D
:10118000010B01F069FF0023A4F8C8002046C4F851
:10119000BC3006F1040A84F8B5B0FFF7CDFF854BEB
:1011A00080B24FF07C0C1968524602903B46019188
:1011B00028464946CDF800C000F03CFA804618B9F0
:1011C00040460DB0BDE8F08F284601F0DFFE68B95B
:1011D000C4E9120B00232846236501F05BFE0328B7
:1011E00000F2E580DFE800F0D3CAB8070023C4F8B6
:1011F00048B0E364EEE70DF1180B284601F052FE0B
:1012000005AA594600F028FE0123DDE90512C4E9CC
:101210001533C4E91712284601F096FD042807D8B3
:10122000DFE800F09696910396000023C4E9193395
:10123000284601F099FD80F001032846DBB2E36601
:1012400001F0A4FD80F0010301222846DBB26267B1
:10125000236701F0ADFD431E2846A36701F048FE59
:10126000E067284601F054FEC4F88000284601F0EB
:1012700071FE431E2846C4F8843001F059FEC4F8BC
:101280008800284601F0C8FE84F88D00284601F049
:10129000E3FEC4F8AC00284601F0AEFEC4F8A4009A
:1012A000284601F0B1FEC4F8A800284601F000FF6E
:1012B00080F00103284684F8B43001F009FE0128CB
:1012C0006DD902380123C4E92430B3880122504685
:1012D00084F8B520C4F8983000F096FD002862D15B
:1012E0007089B6F908200138F388C4E92702C4F8E8
:1012F000B03002F0A5F84FF46172C4F8B8007C2356
:10130000A9F814200021B4F8C82020463983594692
:10131000B3FBF2F23B8903FB02F37B8104F07EF91D
:101320005A4631680123122002F022F900F00CFE27
:10133000BDF818304FF416621844BA81F88140465F
:101340000DB0BDE8F08F01220023C4E919236FE737
:101350000123C4E919336BE70DF1180B284601F09E
:10136000A1FD05AA594600F077FD01200021DDE925
:101370000523C4E91501C4E917234CE70023012222
:101380000DF1180B6365A265C4E9173343E7002329
:101390000DF1180BC4E91533C4E917333BE70023FB
:1013A000C4F8903091E77069FFF7C6FE99E70DF138
:1013B000180B30E78043410038B50139136889B212
:1013C000B3F8C0408C4204D01846BDE83840FFF75F
:1013D000B3BE054618461446FFF7AEFEB5FBF0F364
:1013E00003FB105000B138BD2068BDE83840FFF75E
:1013F000A3BE00BF8389012B27D0F0B54669044600
:10140000B0F9087083B0B6F8C0203046013292B20D
:10141000B2FBF3F503FB15239DB2A6F8C050FFF70E
:101420008BFE04F1140200FB0575A1896089FFF7AA
:10143000C3FF0346694620685A1EC6F8C430CDE98A
:10144000002504F0C1F803B0F0BD1846704700BF96
:101450000246002370B552F8145F04460E46C5F8E4
:10146000C03081894089FFF7A7FF2B46C5F8C4002B
:101470002068D6E9001203F01DFC38B9124B06466D
:10148000124A5B6B12499847304670BD206804F0E1
:101490008FF80646A8B195F8B430002BF4D0216936
:1014A000206801F08BFA044658B102F05BF801287D
:1014B000EAD9054B0220074A26465B6B0449984748
:1014C000E2E70026E0E700BFA41C4320C44341003C
:1014D00038434100E043410038B504460D464FF41F
:1014E00089730F4ACC21012002F00CF86061A8B189
:1014F000284601F0EDFB2060284601F0D9FDA073DD
:10150000284601F021FCB0FA80F328465B09E3731A
:1015100000F080FC034B20610120A36138BD00BFB7
:10152000044441004C4341002DE9F04F87B00025B1
:10153000B0F80CB09946DDF840A01D708AF8005054
:10154000C37B0091029303698DF816508DF81750F4
:101550000668877B0193BBF1000F43D00BF1FF338B
:101560000446904603930EE0A36920461B6A984701
:101570002FB1A36930465B6A9847002837D0013500
:10158000ABB29B452ED9A36927B95B6A3046984711
:1015900068B3A3699B690DF116020199304698471B
:1015A00028B39DF816300BB999F80030A0690DF1F9
:1015B000170289F800300099C369204698479DF8C2
:1015C000173080B20BB99AF80030B8F800208AF8CA
:1015D00000301044029BA8F80000002BC4D0039BED
:1015E000AB42C1D1009B186807B0BDE8F08F002066
:1015F00007B0BDE8F08F00BF08B52DED028B08EEF7
:10160000100A01F01DFF9FED0A6A07EE900AF7EE3F
:10161000006A86EE277AB8EE488AB8FE477A67EE07
:10162000877A86EEA70A80EE080ABDEC028B08BD19
:10163000F902154F2DE9F04F2DED068B89B08A4642
:10164000914606460693189F9DF864B0BDF96680E2
:1016500001F0AEFC002840F083803046DFEDE48AE4
:1016600001F046FB09EE100A3046BEEE008A01F09A
:1016700051FB07EE900A384679EE279AFFF7BCFF38
:1016800039EE097A384620EE280AB5EEC09AB6EE51
:10169000009AC7EE007AF1EE10FA54BFB0EE497A24
:1016A000B0EE487A77EE877AFDEEE77A17EE905A39
:1016B000FFF7A2FF39EEA97A20EE280AF5EEC09ACC
:1016C000C7EE007AF1EE10FA58BFB0EE498A18F171
:1016D0000B0F37EE888AFDEEC87A17EE904A4BDB87
:1016E000BBF1000F48D0C346F38D3046079301F09D
:1016F000B3FC0128804609D9022823D0631B93FB41
:10170000F8F208FB1238B8F1000F0EDCAC4236DA02
:10171000B84B0020B84A5B6B8046B84998474046B2
:1017200009B0BDEC068BBDE8F08F01F01BFF01286E
:1017300005D9B04B0220B24A5B6BB0499847A4EB85
:101740000804E3E7EB07D9D401F00CFF012805D921
:10175000A84B4046AB4A5B6BA84998470135CDE79B
:10176000304601F087FB0546304601F08BFB18F14F
:101770000B0F05EB0004B3DA6FF00B0BB4E7304648
:1017800001F052FC8046002840F048810BFB07FB2B
:10179000AB4500F30F82079B4FEA431BABF14B0BAA
:1017A00007FB0BFBA34580F2398107EE904A914B72
:1017B0003846DFED8F9AB8EEE79AD3F83490FFF70A
:1017C0001BFFF6EE008A904A384669EE007A8F4B8E
:1017D0009FED87AA67EEA97A67EEA87AF5EEC07A40
:1017E000F1EE10FA4CBF92469A46FFF705FF3846D5
:1017F00029EE008AFFF700FF69EE007A384628EEEE
:10180000298A67EEA97ADFED7A9A28EE288A67EEB0
:10181000A87AF6EE008AF5EEC07ADFED7D7AF1EE79
:1018200010FA48BFB1EE488A38EE278AFCEEC87A33
:1018300017EE906AFFF7E0FE384629EE008AFFF7C0
:10184000DBFE69EE007A384628EE298A67EEA97A2F
:10185000F6EE009A28EE288A67EEA87AF5EEC07AAE
:10186000DFED6B7AF1EE10FA48BFB1EE488A38EE40
:10187000278AFFF7C1FE384669EE008AFFF7BCFEF3
:1018800069EE007A07EE10BA384668EE8A8A67EE8B
:101890008A7A9FED57AAB8EEC79A9FED5E7A68EEF6
:1018A000A98A67EEA97ADFED529AF5EEC07ADFEDEC
:1018B000587AF1EE10FA48BFF1EE688A78EEA77A0E
:1018C000F6EE008AFCEEE77AF8EE677A38EE678A81
:1018D00068EE077AFCEEE77A17EE904AFFF78CFE87
:1018E00069EE007A484B494A384667EEA97A67EEB6
:1018F000A87AF5EEC07AF1EE10FA4CBF9B469346FB
:10190000FFF77AFE384629EE008AFFF775FE69EE8A
:10191000007A384628EE298A67EEA97ADFED349AF4
:1019200028EE288A67EEA87AF6EE008AF5EEC07AED
:10193000DFED377AF1EE10FA48BFB1EE488A38EEA3
:10194000278AFCEEC87A17EE905AFFF755FE384604
:1019500029EE008AFFF750FE69EE007A384628EE3D
:10196000298A67EEA97AF6EE009A28EE288A67EEB1
:10197000A87AF5EEC07ADFED267AF1EE10FA48BFCC
:10198000B1EE488A38EE278AFFF736FE384669EE10
:10199000008AFFF731FE69EE007A53469FED1D7A0B
:1019A00068EE8A8A002067EE8A7A1B4A019468EE04
:1019B000A98A009667EEA97ACDE902B5F5EEC07A5C
:1019C000DFED137AF1EE10FA48BFF1EE688A78EE97
:1019D000A77AFCEEE77AF8EE677A084938EE678A6C
:1019E00068EE077AFCEEE77ACDED047AC84796E612
:1019F000C2F38E4DA41C4320B04441005C4441001E
:101A00007C4441002444410020444100C49A4100E8
:101A1000BD3706350024744920454100304601F0A9
:101A20001BFBF18D0246E30FE80FA9F800109C465E
:101A300023440146284493FBF7F390FBF7F0A3EB14
:101A40000C03401A95FBF2F1013302FB1151A9F886
:101A500004001B1A11441FFA83FC1A9B91FBF2F03D
:101A6000BCFBF3FB02FB10111FFA8BF003FB1BCB3B
:101A7000A9F806C0A9F80210BBF1000F00D0013090
:101A8000A9F808003046079201F05EF9804630461A
:101A900001F000FA079AB8F1040318BF01230128E6
:101AA00018BF0023184698467BB9B9F806301A9932
:101AB0008B420AD9CB4BCC4A5B6BCC49984740460A
:101AC00009B0BDEC068BBDE8F08F38460792FFF7F2
:101AD00093FD079A3846DFEDC68A07EE902AB6EEE8
:101AE000008AF8EE677A27EE800A8AED030AFFF78C
:101AF00083FD07EE905A3846F8EEE77A67EE807A73
:101B000067EEA87A67EE887ACAED007AFFF774FD6F
:101B100007EE904A631B079AF8EEE77AB9F80610C9
:101B20009AED007A01FB07F4B9F8080027EE800A65
:101B3000AAF8180095FBF7F607FB165520EE280AC1
:101B40003D4420EE080A95FBF7F693FBF2F307FB02
:101B50001655013330EE477A8AED020A9BB295FBA7
:101B6000F2F5B4FBF2F4B7FBF2F7069AAAF81630D6
:101B70008AED017A93801A9B11818B4210825580E5
:101B80001480D78010D29BB29382BBF1000F06D095
:101B90001A9B1A9AB1FBF3F302FB13118BB2069A4C
:101BA000D38201239846BAE501239846069B998281
:101BB000D982B4E507EE905A8A4B3846DFED8C9A0D
:101BC000F8EEE78AD3F83490FFF716FDB6EE009AE8
:101BD000884A384668EE807A874B9FED85AA67EE83
:101BE000A97A67EE897AF5EEC07AF1EE10FA4CBF69
:101BF00092469A46FFF700FD384628EE808AFFF7A6
:101C0000FBFC68EE807A384628EE298A67EEA97ACE
:101C1000DFED779A28EE098A67EE897AB6EE009AA8
:101C2000F5EEC07ADFED757AF1EE10FA48BFB1EE4D
:101C3000488A38EE278AFCEEC87A17EE906AFFF7DA
:101C4000DBFC384628EE808AFFF7D6FC68EE807A07
:101C5000384628EE298A67EEA97A28EE098A67EEC7
:101C6000897AB6EE009AF5EEC07ADFED647AF1EE8D
:101C700010FA48BFB1EE488A38EE278AFFF7BCFC5D
:101C8000384668EE809AFFF7B7FC68EE807A07EE78
:101C900010BA384669EE8A9A67EE8A7A9FED54AA9E
:101CA000F6EE008A69EE899A67EE897AB8EEC79AED
:101CB0009FED537AF5EEC07ADFED507AF1EE10FA2F
:101CC00048BFF1EE699A79EEA77ADFED499AFCEE0A
:101CD000E77AF8EE677A38EE678A68EE077AFCEE04
:101CE000E77A17EE904AFFF787FC69EE007A414BDE
:101CF000414A384667EEA97A67EEA87AF5EEC07ACF
:101D0000F1EE10FA4CBF9B469346FFF775FC384640
:101D100029EE008AFFF770FC69EE007A384628EE5B
:101D2000298A67EEA97ADFED329A28EE288A67EED3
:101D3000A87AF6EE008AF5EEC07ADFED307AF1EEA1
:101D400010FA48BFB1EE488A38EE278AFCEEC87A0E
:101D500017EE905AFFF750FC384629EE008AFFF73D
:101D60004BFC69EE007A384628EE298A67EEA97A9C
:101D7000F6EE009A28EE288A67EEA87AF5EEC07A89
:101D8000DFED1E7AF1EE10FA48BFB1EE488A38EE68
:101D9000278AFFF731FC384669EE008AFFF72CFCF2
:101DA00069EE007A53469FED167A68EE8A8A002023
:101DB00067EE8A7A0194009668EEA98A114A67EE66
:101DC000A97ACDE902B5F5EEC07ADFED0C7AF1EE35
:101DD00010FA48BFF1EE688A78EEA77AFCEEE77A4F
:101DE000F9E500BFA41C4320604541005C4441006C
:101DF000C2F38E4D20444100C49A4100BD370635E0
:101E000000247449E04441000089012894BF002067
:101E10000120704710B582B0044601F03BF801285C
:101E200011D0204601F03EF89FED0A7A07EE900AA5
:101E3000C7EE277A77EE877AFCEEE77ACDED017A66
:101E4000019802B010BD4FF4FA630193019802B0FB
:101E500010BD00BF0000FA4438B52DED028B1546C9
:101E600008EE100A0C4601F0EBFA07EE900AC7EEF6
:101E7000887ABDEC028BFCEEE77A17EE903A1A0CEA
:101E80009BB22A60236038BD2DE9F04F87B01F4612
:101E90001646009003919DF8404001F0D7FA0023C8
:101EA000ADF814300493002F48D09C4202934FEABF
:101EB0005000039C14BF4FF4E0434FF40043A0F1E3
:101EC000030A1BB201932CE0019B1FFA85F905F16F
:101ED000030B214643EA060009F1FF3C029B4FEA4F
:101EE0004B089CFA9CFC40BA4246A3802080A8F193
:101EF0000608A4F802C04E44009801F0D7FA204624
:101F00005946B6B201F07CFB0498BDF814207F1B43
:101F10002060A28044442068A2880490ADF8142078
:101F20000CD0BA45554628BF3D46BA45CCD2CBD099
:101F3000EB07C9D5013DEB07FCD4C5E70398063094
:101F400007B0BDE8F08F00BF0320704710B541F423
:101F5000A04382B014BA06225BBA6946CDF80240AB
:101F6000ADF8003001F0A2FA02B010BD38B51C4641
:101F700010601960154601F069FA2168884202D2A2
:101F800001F064FA01462B680239023321F00301A3
:101F90002B60216038BD00BF2DE9F0419C1C074635
:101FA0000D46164601F052FAA04207D2094B002016
:101FB000094A5B6B0949BDE8F041184745F4A04563
:101FC0002246314638466DBA3580BDE8F04101F011
:101FD0006DBA00BFA41C43208C454100AC454100B4
:101FE0000331B0EB410F2CBF01200020704700BF30
:101FF00010B5002482B00094FFF746FF02B010BD78
:1020000070B505690446284601F026FA0A4905EB31
:10201000C503226B0968201DDB00483B194400F012
:10202000E7FD064618B101233046E37070BD28462F
:1020300001F018FA304670BD4C10402038B5034608
:1020400004301D6900F0F8FD044630B9054B064A1E
:102050005B6B06499847204638BD284601F008FAD0
:10206000F9E700BFA41C4320E845410008464100B1
:102070002DE9F84300EBC004DFF88C804FF0000C32
:102080000E46E400D8F8003005461746483C234485
:1020900083F841C001F0E0F9304600F08BFD60B9F3
:1020A00015492B46154A81464C6B1549A0472846D1
:1020B00001F0D8F94846BDE8F88329460A2001F026
:1020C00089FAD8F8002039463046224400F076FDDF
:1020D000814650B908492B460A4A4C6B0849A0472B
:1020E00029460B2001F076FAE1E7D8F8003001220A
:1020F0001C4484F84120F3E7A41C43201846410007
:1021000008464100544641004C104020F8B5184E96
:1021100034780CB12046F8BD01F08CF9154F00EB76
:10212000C0004FF496721449C00001F0C5F9386040
:102130000028EFD0254609E03B6803EBC0031846B2
:1021400007F078FE80F8415080F8405001F072F9B5
:10215000A0424FF0480204EBC4004FF0000104F12C
:102160000104E9D801231C4633702046F8BD00BFA6
:10217000461040204C104020D045410010B5054C81
:10218000237803B910BD044B186801F0D9F9002376
:10219000237010BD461040204C1040202DE9F04720
:1021A00045781E462DB10023337073702846BDE874
:1021B000F087DFF8E0C004460F469046DCF800C028
:1021C000D0F810A0BCF1000F14D0DCF80C90B9F1DD
:1021D000000F0FD0C8470028E8D06578002DE5D162
:1021E000012543463A465146012001F0C1F92846EF
:1021F000BDE8F08700233370737094F80090B9F154
:10220000020F24D0B9F1010F27D0216B201D00F05F
:102210001DFD436843B91B4918461B4A4B6B1B49BC
:1022200098472846BDE8F087BB4225D143884345FF
:102230001DD10278B9F1020F43783270737010D05B
:10224000B9F1010FC9D12046FFF7F8FEC5E72046D6
:10225000FFF7D6FE0028D8D1A8E7504601F010F9C4
:10226000D3E7504601F0FEF80023E370B5E74FF4E2
:10227000C571074800F0FEFC40F28911044800F0E7
:10228000F9FC00BFA41C4320B845410008464100AA
:10229000D0454100481040202DE9F843061D9146E5
:1022A00005462C220C46304600211F4607F0C2FD91
:1022B0001C4B4A4630461B686BB3D3F80080B8F11C
:1022C000000F28D03B462146C0470646204600F076
:1022D0003BFDE8B1042818D000232B70204600F005
:1022E000D9FDB0FA80F320465B096B7000F0E0FE88
:1022F000A870204600F0ECFC3A4601461C2304205E
:1023000001F050F93046BDE8F88301232B70E5E772
:1023100002232B70E2E73B46214600F0ABFB06466A
:10232000D4E700BF481040202DE9F84F0C46804606
:1023300008461D46164600F0CBFC0746204600F036
:10234000AFFE304B81461968B9B14B68ABB12A4634
:10235000204631469847054610B92846BDE8F88F13
:10236000B9F1000F19D101253246394620230D203D
:1023700001F018F92846BDE8F88FDFF88CA007EBCC
:10238000C702C8F83050DAF8003003EBC20313F884
:10239000073C4BB3B9F1000F02D0A6F81490E2E766
:1023A000204600F06BFE0028DDD0D8F8104008F180
:1023B0000409204601F050F8DAF8005004EBC4019B
:1023C000D8F83020484606F11403C900483929449A
:1023D00000F0F8FB0546204601F044F8002DC2D17C
:1023E000484600F0DFFBB8E708F1040B2A46384600
:1023F0005946FFF73DFE05460028CBD1584600F070
:10240000D1FBAAE7481040204C1040201A4B1B6813
:1024100070B5044623B19B6813B1BDE870401847FE
:102420002378022B08D02046FFF7EAFD88B1A37875
:102430002BB12378012B0FD00125284670BD251D17
:10244000284600F0FFFB20B1284600F0E3FB0028FF
:10245000EFD10025284670BD251D284600F0DAFB87
:102460000028F6D0284600F0EDFB05460028F0D005
:102470002046FFF7E3FDE0E748104020C37803B9AA
:10248000704710B50446006900F0ECFF0023E370CC
:1024900010BD00BF036973B103EBC303064ADB0041
:1024A0001268483B134493F840200AB983F841204E
:1024B000043000F077BB70474C1040200069704733
:1024C00070B50C4684B0114605461A462046089B56
:1024D00004AEFFF74BFD002328462A2126F8023DD3
:1024E000324603F07FFBBDF80E305B0619D40024A2
:1024F000324611212846ADF80E4003F073FBBDF8BB
:102500000E3013F480661AD015492B46154A204622
:102510004E6B1549B047284603F0C0FC204604B076
:1025200070BD01F01FF830B10D492B460F4A012054
:102530004C6B0D49A047284603F0B0FCD7E70124B7
:102540008023022228462146009403F05DFB80236D
:10255000284600961A46072103F056FB2046DEE780
:10256000A41C4320644841005448410028484100CD
:10257000F0B583B000240F46112102AA064622F8C6
:10258000024D03F02FFBBDF8060010F480650CD05F
:1025900013493346134A20464D6B1349A84730462A
:1025A00003F07CFC204603B0F0BDB7F5806F09D383
:1025B0000B4928463B460D4A4C6B0B49A047284621
:1025C00003B0F0BD2A461021304603F00DFB304623
:1025D00047F48062102103F007FB0120E3E700BF0E
:1025E000A41C43209448410054484100C448410081
:1025F00030B583B000231121054602AA22F8023D1E
:1026000003F0F0FABDF8060010F480640BD1094B1A
:102610002046094A5B6B09499847284603F03EFC6F
:10262000204603B030BD28460122742103F0DCFAB5
:102630000120F6E7A41C4320004941005448410012
:102640000022742103F0D0BA00B583B00023112119
:1026500002AA22F8023D03F0C5FABDF80600C0F355
:10266000802003B05DF804FB70B582B000233821F0
:10267000054602AA22F8023D03F0B4FABDF806406E
:1026800064B908492B46084A20464E6B0749B047B3
:10269000284603F003FC204602B070BD012002B0C2
:1026A00070BD00BFA41C43202C474100544841008A
:1026B00070B50C4684B041B92B4B08462B4A5B6B76
:1026C0002B499847204604B070BD0DF10E02282119
:1026D000054603F087FABDF80E20D3B2628023705E
:1026E0000B2B2CD8DFE803F02308060606060606A7
:1026F000060606060120E6E7120A102A29D8012656
:102700001C48D1B206FA02F2104010B34A1E164B12
:10271000D2B25E6B202A22D9174B184A00201449E6
:10272000B047284603F0BAFB002004B070BD0E4944
:102730002B46134A00204C6B0D49A047F1E70A4A8B
:10274000002000950A49566B0E4AB04700232370BB
:10275000E7E7054943F4045320224E6B63800A4B9C
:1027600053F82230D9E700BFA41C4320A047410002
:10277000544841001600010090474100D8474100ED
:10278000B4474100F8474100784641002DE9F04F39
:1027900087B004460F4602F1010A02920025039316
:1027A000DFF8A0B0DFF8B090DFF8A08014E022F8E6
:1027B000023D204603F016FABDF816305B0630D411
:1027C00000F0D0FE23464A46414618B1DBF834609B
:1027D0000120B047AA4517D03946204600F060FED8
:1027E0000135064606AA00232A210028DFD1154913
:1027F0002346154A4D6B1549A847204603F04EFB6A
:10280000304607B0BDE8F08F00200E4A009406461F
:10281000546B029B0E4A0D49A047304607B0BDE8F5
:10282000F08F03992046FFF743FF06460028E7D1C3
:1028300004492346074A4C6B0449A047304607B079
:10284000BDE8F08FA41C43203449410054484100A6
:1028500080494100BC4941005C49410070B584B0E9
:1028600014461D46642203AB0646FFF78FFF68B18E
:102870009DF80C30A3420BD0084A00200849CDE94E
:102880000034084B546B084AA047002004B070BDC8
:10289000002DFBD03046FFF7E7FEF7E7A41C4320EE
:1028A00054484100FC464100484A410001230B22A4
:1028B000FFF7D4BF30B583B00D460446FFF798FE4E
:1028C00010B9002003B030BD2046FFF7CDFE002830
:1028D000F7D0294601AB64222046FFF757FF0028B6
:1028E000EFD02046FFF7C0FE0028EAD09DF8043064
:1028F000022BE7D0054A0020BDF80630556B04498D
:10290000044AA847204603F0C9FADAE7A41C43208A
:1029100054484100E048410070B584B01646642236
:10292000054603ABFFF732FF044670B19DF80C304B
:10293000BDF80E20062B0BD01B49002000922B4621
:102940001A4A04464D6B1A49A847204604B070BD88
:102950001005F1D512F4806316D0012329460E200C
:10296000337000F037FEBDF80E20D1050ED493056C
:10297000EBD500F0F7FD0328E7D90B4B04200D4AF7
:102980005B6B0B499847E0E73370EEE700F0EAFD38
:10299000032805D9044B0420074A5B6B0449984778
:1029A000BDF80E20E3E700BFA41C4320E44941002A
:1029B00054484100304A4100144A410030B585B0C6
:1029C0006422054603ABFFF7E1FE044640B90C491B
:1029D0002B460C4A4D6B0C49A847204605B030BD2C
:1029E000BDF80E30062BF8D00024054A00932B4684
:1029F0002046556B0449054AA847204605B030BD1E
:102A0000A41C4320744A410054484100A84A410094
:102A100070B51546064600222B46FFF7E9FA044634
:102A200002462B463146002000F0A2FD204670BD34
:102A300030B585B0002404AA214622F8024D03F0E7
:102A4000D1F8BDF80E2041F212139A4209D006497E
:102A500020460092054A4D6B0549A847204605B01F
:102A600030BD0120FBE700BFA41C432060474100AC
:102A7000544841002DE9F0470C4692B08046084684
:102A80009246994600F024F90546204608F10C07C5
:102A900000F04EFAADF80400204600F039FAADF827
:102AA0000600204600F056FAADF80800204600F077
:102AB0006DF904232946ADF80A000DEB030211203D
:102AC00000F056FD20220021384607F0B3F93846C1
:102AD0002368214698470646D8B1202200210AA83B
:102AE000002507F0A7F9D8F8246004950AAA0395F1
:102AF00003AB059521463846CDE90655CDE9085585
:102B00003568A847064640B9D8F8243038461B6BCC
:102B10009847304612B0BDE8F087BAF1000F07D0F1
:102B20000AAD0FCDAAE80F0095E80F008AE80F0064
:102B3000B9F1000F10D003AD0FCDC9F80000C9F8EE
:102B40000410C9F80820C9F80C3007CDC9F81000E6
:102B5000C9F81410C9F81820204600F09BF9012884
:102B60001BD0204600F09EF99FED0D7A07EE900AEB
:102B7000C7EE277A77EE877AFCEEE77A17EE903A7F
:102B800000223046C8F80030C8F80820A8F806200F
:102B900088F8042012B0BDE8F0874FF4FA63EFE73D
:102BA0000000FA4420B1436A13B11B6B0C30184784
:102BB000704700BF436AC0685B681847436A0C30BF
:102BC000DB6818472DE9F041456A044600F10C0620
:102BD000006AAD6817469846A84738B1636A42460E
:102BE000394630461B69BDE8F0411847BDE8F08121
:102BF00070B504461546D0E908039B68984738B17C
:102C0000636A294604F10C005B69BDE8704018470F
:102C100070BD00BF10B582B00021436A044602AA0D
:102C20009B6902F8011D0168C068984710B19DF8C2
:102C30000730237102B010BD436A0168DB6AC068C7
:102C4000184700BF436AC0685B6A1847F0B50023A5
:102C500083B0051D466A471D04464360821D83609C
:102C60002B4600970C30B66AB047A060284603B0E8
:102C7000F0BD00BF00B5074A83B0034600200091B5
:102C80000549546B054AA047054B1B6803B198479B
:102C9000FEE700BFA41C4320A84B4100904B41001D
:102CA0005010402008B10120704710B5044600F0D4
:102CB00059FC30B1034B0120034A5B6B0349984731
:102CC000204610BDA41C4320B04D4100CC4D410016
:102CD00010B50446FFF7E6FF00B1E06810BD00BF85
:102CE00038B50D460446FFF7DDFF00B1E56038BD9D
:102CF00010B50446FFF7D6FF08B1606A10BD00208A
:102D000010BD00BF38B50D460446FFF7CBFF00B13C
:102D1000656238BD10B50446FFF7C4FF08B1A06A6C
:102D200010BD002010BD00BF38B50D460446FFF7AA
:102D3000B9FF00B1A56238BD10B50446FFF7B2FF78
:102D400008B10123237110BD10B50446FFF7AAFF97
:102D500000B1606B10BD00BF38B50D460446FFF7EB
:102D6000A1FF00B1656338BD10B50446FFF79AFFB7
:102D700008B194F8450010BD38B50D460446FFF77C
:102D800091FF08B184F8455038BD00BF10B5044626
:102D9000FFF788FF08B194F8460010BD38B50D461E
:102DA0000446FFF77FFF08B184F8465038BD00BFE6
:102DB00010B50446FFF776FF08B194F8380010BD4F
:102DC00038B50D460446FFF76DFF00B1258738BDC5
:102DD00038B50D460446FFF765FF00B1256038BDE4
:102DE00010B50446FFF75EFF08B1206910BD002052
:102DF00010BD00BF38B50D460446FFF753FF00B1C4
:102E0000256138BD38B50D460446FFF74BFF18B1B4
:102E10000DB163692B60207E38BD00BF70B50E46D2
:102E200015460446FFF73EFF08B16661257670BD82
:102E300010B50446FFF736FF00B1207F10BD00BF7C
:102E400038B50D460446FFF72DFF00B1257738BD94
:102E500010B50446FFF726FF08B1206A10BD002018
:102E600010BD00BF38B50D460446FFF71BFF00B18B
:102E7000256238BD10B50446FFF714FF08B1B4F958
:102E8000300010BD10B50446FFF70CFF08B1B4F9CF
:102E9000320010BD10B50446FFF704FF00B12079E1
:102EA00010BD00BF10B50446FFF7FCFE40B123790A
:102EB000032B05D8DFE803F006060202A06810BD68
:102EC000024810BD4FF0FF4010BD00BF0000C07FA2
:102ED00010B50446FFF7E6FE00B1608F10BD00BFDD
:102EE00038B50D460446FFF7DDFE00B1658738BDF5
:102EF00010B50446FFF7D6FE00B1A08F10BD00BF8D
:102F000038B50D460446FFF7CDFE00B1A58738BDA4
:102F100010B50446FFF7C6FE00B1E08F10BD00BF3C
:102F200038B50D460446FFF7BDFE00B1E58738BD54
:102F300010B50446FFF7B6FE08B1B4F8400010BD66
:102F400038B50D460446FFF7ADFE08B1A4F8405071
:102F500038BD00BF10B50446FFF7A4FE08B1B4F8B1
:102F6000420010BD38B50D460446FFF79BFE08B180
:102F7000A4F8425038BD00BF38B50D460446FFF7EF
:102F800091FE08B184F8445038BD00BF10B5044626
:102F9000FFF788FE08B194F8440010BD38B50D461F
:102FA0000446FFF77FFE08B184F82C5038BD00BFFF
:102FB00010B50446FFF776FE08B194F82C0010BD5A
:102FC00038B50D460446FFF76DFE08B184F852503F
:102FD00038BD00BF38B50D460446FFF763FE08B1A3
:102FE000A4F8505038BD00BF38B50D460446FFF771
:102FF00059FE00B1E58538BD10B50446FFF752FE15
:1030000008B194F8630010BD10B50446FFF74AFEFE
:1030100008B194F8640010BD10B50446FFF742FEF5
:1030200008B194F8650010BD10B50446FFF73AFEEC
:1030300008B194F8660010BDF8B50F4616461D4657
:103040000446FFF72FFE28B184F85470A4F85660A8
:10305000A4F85850F8BD00BF10B50446FFF722FE93
:1030600008B1B4F8600010BD38B50D460446FFF74E
:1030700019FE08B1A4F8605038BD00BF10B5044671
:10308000FFF710FE08B194F8470010BD38B50D46A3
:103090000446FFF707FE08B184F8475038BD00BF6B
:1030A00010B50446FFF7FEFD08B1B4F84A0010BDA4
:1030B00010B50446FFF7F6FD08B194F84C0010BDBA
:1030C00038B50D460446FFF7EDFD08B184F84C50C5
:1030D00038BD00BF10B50446FFF7E4FD08B1B4F8F1
:1030E0004E0010BD38B50D460446FFF7DBFD08B1B4
:1030F000A4F84E5038BD00BF10B50446FFF7D2FD0E
:1031000008B194F8480010BD38B50D460446FFF7E5
:10311000C9FD08B184F8485038BD00BF2DE9F04F13
:1031200093B0044600F01EFA01286DD95F4B20468B
:10313000D3F834B0FFF7B6FD002868D182462046A8
:10314000FFF7B0FD002869D094F8383020460F937F
:10315000FFF7A8FD002867D0638F20460E93FFF786
:10316000A1FD002866D02046A58FFFF79BFD002813
:1031700066D02046E68FFFF795FD002866D02046F2
:10318000B4F84070FFF78EFD002865D02046B4F8F3
:103190004280FFF787FD002864D0636B042B7FD942
:1031A000434B20461193FFF77DFD002861D1414B31
:1031B00020460D93FFF776FD002869D0204694F84D
:1031C0004590FFF76FFD002868D0B4F85A202046DC
:1031D0001092FFF767FD109A08B194F84600099223
:1031E00053460D9A0A9002200792119ACDF820902A
:1031F00002953149CDE905820E9A01920F9ACDE9E7
:10320000036700922D4AD84713B0BDE8F08F2046DF
:10321000D4F80CA0FFF746FD002895D10F9020466A
:10322000FFF740FD002897D10E902046FFF73AFDAA
:10323000002898D105462046FFF734FD002898D194
:1032400006462046FFF72EFD002898D10746204667
:10325000FFF728FD002899D180462046FFF722FD80
:1032600000289AD1164B11932046FFF71BFD00282A
:103270009DD094F86230002B99D0124920460C4A18
:10328000012B18BF11460D91FFF70CFD002895D1B9
:1032900081462046FFF706FD002896D1024696E7B4
:1032A000094A52F823301193DEE700BFA41C4320E3
:1032B000C49A41006C4D4100CC4D4100744D410019
:1032C000684D4100704D4100B44B410038B5054692
:1032D000FFF7E8FC044648B16B6B042B08D92B4B75
:1032E00000202B4A5B6B04462A499847204638BD8C
:1032F0000AD0AB8F162B11D9244B0020264A5B6BCA
:10330000044624499847F1E700F0C2F890B91F49F4
:103310000446224A4B6B1F499847E7E72B8F013B36
:103320003E2B12D9194B00201D4A5B6B04461949EC
:103330009847DBE72B79032BDBD1144B0020194A8C
:103340005B6B044613499847D0E76B6B2A794BB9FE
:10335000032A0CD10D4918461C46134A4B6B0D49E4
:103360009847C3E7032A06D033F00403BED10123F4
:1033700085F84C30BAE795F84C000028F4D1034B9F
:1033800004460A4A5B6B03499847AFE7A41C4320F5
:10339000C84B4100CC4D4100644C4100E04B410022
:1033A000984C4100204C4100EC4C4100284D41001C
:1033B000436970B5466B3BB383692BB3836A1BB318
:1033C000436A0BB3C36AFBB18368EBB1C368DBB17B
:1033D0000369CBB1F6B10368202B16D843680F2BD5
:1033E00013D9C3690BB1036A7BB104460A4D0126A8
:1033F0000FCC0FC50FCC0FC50FCC0FC594E8030041
:1034000085E80300304670BD26B1044A0020044917
:10341000B0470026304670BDA41C4320284E410012
:10342000A452410038220021014806F003BD00BF2C
:10343000A41C4320014B1868704700BFA41C432004
:10344000014BDB6A184700BFA41C4320014B58689E
:10345000704700BFA41C4320014B5B69184700BFA5
:10346000A41C4320014B9B69184700BFA41C4320A8
:10347000024BDB6903B11847704700BFA41C43200F
:10348000024B1B6A03B11847704700BFA41C4320BE
:10349000024BD869003018BF01207047A41C43209C
:1034A000014B5B6A184700BFA41C4320014B9B6A79
:1034B000184700BFA41C43202DE9F0410D4C0F46D6
:1034C00090460646A3689847054630B9636B0A4A9A
:1034D0000A4998472846BDE8F081094B1B68002B34
:1034E000F8D01C683A4643463146A0472846BDE816
:1034F000F08100BFA41C4320044E4100A4524100AF
:1035000054104020F8B590B10C4611461A46A4FB61
:10351000006777B904FB00F52846FFF7CDFF0446A6
:1035200018B12A46394606F085FC2046F8BD044607
:10353000FBE7CF210148FFF79DFB00BF144E410080
:10354000064B1B6810B504460BB15B689847044BEB
:103550002046DB68BDE81040184700BF54104020EB
:10356000A41C4320014B93F830007047A41C432057
:1035700070B50B4C84B0012500EB40068DF80400BB
:1035800003FA05F004EB860302915C68039524B10D
:1035900011469B68024601A8A04704B070BD00BF59
:1035A0001800402070B50A4C84B0154600EB40026C
:1035B0008DF80400072604EB82000291039644680C
:1035C00024B11A462946836801A8A04704B070BDFB
:1035D0001800402010B584B0084B0022029100EB87
:1035E00040018DF8040003EB810303925C681CB179
:1035F0009B68114601A8A04704B010BD18004020E8
:103600004A1E31B10388013A5BBA20F8023B531CD1
:10361000F8D17047006800BA704700BF00BA086070
:10362000704700BF004870473C4E4100343003F003
:1036300015BE00BF70B50446343003F0D7FD68B93D
:10364000D4F8482303460125D4F8181304F545702F
:10365000136155719371BDE87040084770BD00BF9C
:1036600038B50468054654B104F1340003F0B0FDE8
:10367000D4F87003FFF764FF2046FFF761FF284688
:10368000BDE83840FFF75CBF2DE9F04F8DB006462E
:10369000174601200491102107934FF48073D94AF3
:1036A000FFF730FF804640F20113D64A4FF45E71B7
:1036B0000120FFF727FF0446B8F1000F00F0E58175
:1036C000B0FA80F56D09002D40F0DF8100F1340380
:1036D00000F5557200F1140AC8F80000029318466C
:1036E0000092314653463A4603F052FD80B32946D4
:1036F0003846FFF787FB83460820B4F8546303F08D
:10370000C3FDB4F86213B4F8543300FB06F2B4F806
:10371000606338460B4471005E008E4238BF0E462F
:10372000964238BF1646FFF7D5FC864238BF06469C
:10373000C4F87463BBF1000F40F072814FF4C272A1
:10374000B0493046FFF7B8FE0546C4F8700340B9EB
:1037500040464FF00008FFF783FF40460DB0BDE83C
:10376000F08FB4F85693082003F08EFD00FB095348
:103770001A4604F1080104F1100904F1060EE01DD7
:1037800004F1040C6166A5646465C4F88050C4F853
:103790005890C4F89490C4F8D090C4F884C00391B1
:1037A000C4E917E0C4E92F553846CDE90532FFF7E3
:1037B00065FC0399DDE9053218B1C4F80C91C4E940
:1037C0003E55C4F83451C4F83851C4F84891C4F88F
:1037D0006C51C4F87051C4F88091C4F88C11C4F8CD
:1037E000AC51C4F8B051C4F8C091C4F8F051C4F859
:1037F000F421C4F80492C4F82822C4F82C22C4F896
:103800003C92BBF1000F08D02E44C4F87822C4F8D3
:103810007C32C4F88462C4F88C92C4F8B432524644
:1038200004F55C73C4F8B852C4F8C8923946C4F8B9
:10383000EC52C4F8F052C4F800930298C4F8245330
:10384000C4F8484303F0B2FC002881D004F1AC0373
:1038500004F1700B002205211D465846059302F025
:103860006BFE28460022052103F0B8F83846FFF722
:1038700005FC002840F0F98004F5927304F5AE755C
:10388000082205210693184604F5CE73099504F520
:103890000679039303F0ACF9284604F5F07500238C
:1038A0000821226A089502F0B7FFB4F85A53384647
:1038B000B4F85C63FFF794FA2B4600903246082177
:1038C000039803F02FFBB4F858230821089803F05D
:1038D0000DFA3846FFF7ACFA05463846FFF7B8FA56
:1038E000082103462A46CDF800A0484602F0A0FE73
:1038F0000BA93846FFF786FA002840F0AF8004F5A0
:10390000297604F53775082104F5457A304602F02A
:10391000FFFF02220421284603F06AF9049B504667
:10392000196803F023FC5946029803F0B9FC584685
:10393000059903F0B5FC3846FFF7A0FB002840D0FE
:1039400004F1E80B0598594603F0AAFC069958467D
:1039500003F0A6FCDDF824B00698594603F0A0FC5D
:103960005846039903F09CFCDDF820B003985946B3
:1039700003F096FC4946584603F092FC3846002175
:10398000FFF740FA10BB4846314603F089FC294650
:10399000304603F085FC2846514603F081FC02982E
:1039A00003F020FC0546E0B9174B184A5B6B184939
:1039B00098474046A846FFF753FE40460DB0BDE885
:1039C000F08FDDE9050103F06BFCC3E704F51A771E
:1039D0004846394603F064FC3146384603F060FC43
:1039E000D5E7029803F0FAFB07980A49C4F84C039C
:1039F0004046094A094BC8E90112C8F80C300DB01D
:103A0000BDE8F08F6C4E4100A41C4320844E410061
:103A1000A44E4100353640002D364000613640004E
:103A20000820B4F8545303F02FFC06F10A034FF4B6
:103A3000C2721A4900FB0530FFF73EFD0546C4F887
:103A4000700300283FF484AE0820B4F8569303F0C6
:103A50001BFC331D00FB09522B448AE60B9A0821FC
:103A600004F51A7003F01EFB49E73846FFF744FBE4
:103A70000028228D4FF0050114BF1E234FF49673CA
:103A800004F1E80003F0A4F9F6E640464FF0000820
:103A9000FFF756FD2046FFF753FD5EE66C4E4100F2
:103AA000800080B200EB510310809BB28B425380A8
:103AB00014D3508030B4B3FBF1F4002501FB143172
:103AC0000124032395819480D480548114825482EC
:103AD000D58195821180138130BC7047012300216C
:103AE00003209380538193811382D18051829182EC
:103AF0001081D081704700BF2DE9F04F8BB0914607
:103B000004460025069309AB05900A460791214615
:103B1000D9F80000009308ABCDE90855FEF7D0FCBA
:103B2000002865D0099BDFF8FCA21C46C5F52C6374
:103B3000089EB34AAFB29C42304602EB05014FF0FB
:103B4000000B28BF1C4622461FFA84F806F074F8C2
:103B5000D9F804301D22304639460193009253466D
:103B6000424603F079FCD9F808301B22394630462A
:103B7000019300925346424603F06EFC4FF01C0C3A
:103B8000D9F80C30424639463046CDE900C3534699
:103B900003F062FCB9F810C019234246394630469A
:103BA000CDE9003C534603F057FC1023424639460A
:103BB0003046CDE900B3534603F04EFC2346C5F32F
:103BC0008F01059AD9F80000FEF7E6F9099C254413
:103BD000B5F52C6FAAD31821D9F80000FEF7C8FC60
:103BE000064678B9874B884A5B6B8849984705E059
:103BF000844B0646864A5B6B8449984730460BB037
:103C0000BDE8F08FD9F800405B4603224FF4FA611B
:103C10002046FEF723FE38B97A4B00207D4A5B6BC5
:103C200006467A499847E9E709AA9D21204601F00E
:103C3000D9FFBDF824500520012305F0070509AA86
:103C40002146ADF82450FFF793FC2046FEF70CFD0B
:103C50000028E1D04FF44073D9F80050BDF824603B
:103C6000ADF824302846069B1E60FEF7EDFC0446A6
:103C700068B1644C2B465846674A656B6349A84750
:103C80000020636B654A614906469847B6E71323EF
:103C90000196634E024600932846624BA34658495C
:103CA000029603F07FFC0123DFF85891224600932F
:103CB0002846029601945B4B514903F073FC09AB13
:103CC00021212846002213F80BA0554B00910293A6
:103CD0004B49544BCDF804A003F064FC40F2CD11E5
:103CE0002846FEF745FC78B1002309224FF4FA611B
:103CF0002846FEF7B3FD70B9424C5346656B4A4AFD
:103D000000204249A847BBE73E4C5346474A656BF3
:103D10003E49A847B4E710210798FEF761F928B992
:103D2000384C434A636B39499847E6E71023002231
:103D300005992846FEF75CF91023024629460446F9
:103D40000020FFF715FC2846FEF78EFC06460028EB
:103D5000D2D04FF00008234604F11E0C47465A8883
:103D600033F8021B17448A42A2EB010038BF881ABD
:103D7000804538BF80469C45F1D1284602F0BCFA08
:103D8000F0B910222146284602F014F82488294B65
:103D900040F6B8323C44284624092344B8F5487F0D
:103DA00098BF93428CBF0127002702F0A5FA002894
:103DB00046D197B1BBF1000F0DD14FF0010B7EE75B
:103DC000FFF7D0FB0128DCD9D9F8343002201A4A99
:103DD0000E499847D5E70B4C52E7069B83F804A0A1
:103DE000FFF7C0FB01287FF609AF06990220054ABC
:103DF0000B79546B0093114A0B680449A047FDE608
:103E0000A05E4100A41C43201C4F4100FC4E410019
:103E1000B84E4100504F4100684F410050504100A2
:103E20004D1F4000FC6A4100245041009C4F41005E
:103E3000DC4F4100E886FFFFF44F4100685041002D
:103E4000FFF790FB0128B4D9CDF80080234602206B
:103E5000D9F83440014A0249A047AAE70C50410072
:103E6000FC4E41002DE9F04FB1F5457F2DED068B5D
:103E7000CBB0149012930CD24E4B00204E4A5B6B89
:103E800004464E49984720464BB0BDEC068BBDE832
:103E9000F08FA1F516731546A1F545721499B2F588
:103EA000007F0B440E9201EB020A1993C0F062846A
:103EB000434BA846DFF8FCB010930223DFED418AA4
:103EC0009FED418A1393CDF87CA0D8F8000002F052
:103ED00013FA002840F01484139A00263B4953003B
:103EE000199F9FED3C9ACC181D93DDF85090A24687
:103EF000144626E037F8323BB6EE006A07EE103A79
:103F0000109BB8EE477AB3F90050BAF9003027EEAB
:103F1000287AED1A2BB237EE467A06EE903A24ABA9
:103F200067EE087AF8EEE66A27EE897A76EEC77AC7
:103F3000FDEEE77A17EE902A23F8162001360C2EB4
:103F40004AD0D8F8000002F0D7F930BBD8F80450B6
:103F50003B46D8F800003DAA3E95D8F80850B8F87E
:103F600010C03F95D8F80C503D9048464095D8F881
:103F700014500E994495D8F8185042944396ADF8D1
:103F800004C1459501F036FC0028B3D10446204613
:103F90004BB0BDEC068BBDE8F08FFFF7E3FA0128CC
:103FA00033460B4A05494FF00200CFD9DBF83450B5
:103FB000A847CBE7A41C4320044E41008C5041008D
:103FC000605B4100000080379A99993F545B410043
:103FD000D850410000007A44D8F8000002F08CF973
:103FE000002840F0E0830C2224A9D8F8000001F05A
:103FF000E1FE0C2021AA24A900F00CFDD8F8000055
:1040000002F07AF9002840F0C28321AB0C22D8F8E4
:1040100000001946119301F059FEDDF87CA0119BB8
:10402000D8F800001A4612F8013B0993119202F0E9
:1040300063F9002840F07E81D8F8000002F05CF9B6
:10404000002840F06A81099B3DAA199E192003EBC4
:10405000830430AB2DB204EB840406EB44011591CC
:1040600003F030FB36F8143007EE905AF6EE005AA3
:104070001FED286A07EE103AF8EEE76A1C90B8EEDA
:10408000477A67EE287A77EEE57A67EE887A27EE48
:10409000867A76EEC77AFDEEE77A17EE902A16B2A8
:1040A000002800F0BD823DAA431E07EE906A0F96DD
:1040B0000B929BB20DF1F602B8EEE79A02EB4303C6
:1040C0001A930B9BF6EE006AA14A33F8024B9FED60
:1040D000AD7A0B934AAB03EB440333F8685C2B4691
:1040E0000D95A2FB0332159BC2F3870233F8123001
:1040F00007EE903AF8EE677A67EEA87A77EEE67AFE
:1041000067EE887A67EE877A77EE897AFDEEE77A4E
:1041100017EE903A1BB20A93FFF724FA032807D947
:1041200023460095DBF8344004208A4A8A49A04798
:10413000D8F8000002F0E0F8002840F0AF80D8F88E
:10414000000002F0D9F8002840F0BB80D8F8000049
:1041500002F0D2F8002840F0C7800A9BA3F21A436D
:104160009BB2C82B00F22B83D8F8000002F0C4F8F1
:10417000002840F0C6807C211B202AAA4FF00009AD
:10418000FFF78EFCD8F80C70B8F810C001236FF060
:10419000010E16260F2507240620D8E90121CAF8AA
:1041A0000870CAF80020AAF80CC0BDF8AEC0CAF862
:1041B00004100321D8E90572CAF84890CAE90472CC
:1041C000BDF8A8700D9ACAF82870BDF8AA70CAF890
:1041D0001820CAF82C70099ABDF8B070CAF81C20D3
:1041E000139ACAE90CC7BDF8B4C0BDF8B670CAF8D6
:1041F0002020CAE90EC7BDF8BAC0BDF8BC708AF865
:10420000B530CAF88840CAF8A0E0CAF884908AF8A5
:104210008C908AF88D90CAE910C7CAE91F65CAE96F
:104220001339CAE91593CAE91B33CAE91D39CAE92A
:104230002B39CAE92601CAE91799CAE91999CAE9C5
:104240002499CAE92999FFF7FBF89AF88C30CAF843
:10425000B8002AA98AF8B49050460C93D8F8007098
:10426000DAF89C40DAF8AC50DAF8806001F0D6F960
:104270002B9A2F9B9A4240F08780384B4846384A09
:104280005B6B35499847FFF76DF928B1334B012037
:10429000344A5B6B304998470024F4E5FFF762F934
:1042A00001287FF64CAF0220DBF834400D9B2E4AEC
:1042B0002949A047D8F8000002F01EF800283FF472
:1042C00045AFFFF74FF901287FF640AF0220DBF83A
:1042D00034400A9B254A2049A047D8F8000002F044
:1042E0000BF800283FF439AFFFF73CF901287FF6BF
:1042F00034AFDBF8344002200F9B1D4A1649A0471B
:104300002BE7FFF72FF901287FF635AFDBF83430C4
:104310000220184A104998472DE7FFF723F9012892
:104320007FF691AEDBF834401B23134A02200A4982
:10433000A04788E6FFF716F901287FF67DAEDBF887
:1043400034400220099B0D4A0349A04774E600BF90
:10435000CDCCCCCC345141008C504100A41C432026
:10436000CC5141008C5341004C51410060514100FF
:1043700070514100A851410020514100D8504100E6
:104380000000F84200007A4453460E9A14993846C9
:10439000DDF8A89000F08EFC00283FF474AF07EE23
:1043A000905A5FED096A0134CDF87880F8EE677AAB
:1043B000D046A4B286EEA77AFCEEC77A17EE903A02
:1043C0009BB204FB03952B4635461E46384601F04A
:1043D000EFF800283FF457AFCDF85C804FF0000AAB
:1043E0001FED18AAB04620AB64224FF4FA6138469C
:1043F000FEF7CCF900283FF446AF9DF88030062B3D
:104400007FF441AF1FFA88F30E9819461693FDF713
:10441000E7FD002800F0DF81424614993846FEF798
:10442000F7FA814600283FF42EAF2A98C04AA8EB3D
:10443000000109EB4000490001F068FF002840F04E
:10444000AE80002D40F0CD810C9B002B40F002820D
:10445000FFF788F8032805D9DBF834300420B54A83
:10446000B54998472A98B54AA8EB000109EB4000E6
:10447000490001F04BFF002840F002822C9BF6EE31
:10448000007A129E384639F81310179B06EE901AE0
:104490007561AB49F8EE666A1A6AAA4B31F81240A8
:1044A00066EEA86A2D9933F8123039F811101B1BEB
:1044B00076EEE76A07EE101A2E9A19B2B8EE477A2E
:1044C00039F8123066EE886A09EE901A1B9327EECF
:1044D000287A0C99B8EEE96A66EE8A6A317677EE48
:1044E000677A36EE667A67EE887ABDEEC77A67EE4F
:1044F0008A7A17EE103A1CB207EE104AB8EEC77A65
:1045000077EE877AFDEEE77A17EE903A1BB21893B2
:1045100001F0F2FE002840F0E780384601F0ECFEA2
:10452000002840F0C280384601F0E6FE002840F046
:10453000CE80384601F0E0FE002840F097800F9BC7
:104540001B1B002BB8BF5B421BB2642B13DCA4F512
:104550004374A4B2B4F5E67F0DD80A9B189A9B1A4F
:10456000002BB8BF5B421BB2642B04DC19EE903AFF
:10457000934280F2B881BAF1020F2FD0FEF7F2FF1A
:10458000032806D9DBF8344053466F4A04206A49B1
:10459000A04738460AF1010AFEF766F823E72A9891
:1045A000664AA8EB000109EB4000490001F0AEFEAD
:1045B00000283FF463AF0F2D40F062810C9B002B6D
:1045C00000F07381FEF7CEFF03287FF657AFDBF8CC
:1045D000343004205D4A584998474FE7DDF85CA025
:1045E000DDF87880FEF7BEFF032805D9DBF834300C
:1045F0000420574A5049984738464FF4FA61FEF76D
:1046000059F9FEF7AFFF022805D9DBF83430032053
:10461000504A494998471A9B0B9A93427FF451ADEF
:10462000FEF7A0FF032808D91C9B0420DBF83440C8
:104630000093494A099B4049A047FEF793FF03288E
:1046400008D9099B0420DBF834400093434A139BAC
:104650003949A047119B24AA9A42109B5ED0B3F916
:1046600000501D9A364B9B5EED1AD8E4FEF77AFF98
:1046700001287FF664AFDDED1B7AB6EE007A384A8A
:104680000220F8EE677A2C49DBF8346067EEA87AEE
:1046900077EEC77A67EE887A67EE8A7AFDEEE77A78
:1046A00017EE903A1BB2B04749E7FEF75BFF0128CF
:1046B0007FF639AF022023462A4A1F49DBF83460CF
:1046C000B047384601F018FE00283FF432AFFEF73D
:1046D00049FF01287FF62DAF189B0220224A164978
:1046E000DBF83460B04724E7FEF73CFF01287FF693
:1046F00014AFDBF8343002201C4A0F4998470CE70E
:10470000FEF730FF01287FF6E7ABDBF834400220EC
:10471000139B174A0849A047FFF7DEBB023B1093E3
:10472000139B012B3FF4B8AD01231393FFF7CDBBCF
:10473000982C1742145241008C504100ADA82C40D7
:10474000545B41005C5B41003053410068524100C2
:1047500058534100DC534100F85341005C54410080
:104760001C534100F452410008534100E4524100FF
:10477000C8504100FEF7F6FE01287FF699AB914B39
:104780000220914A5B6B91499847FFF791BBFEF776
:10479000E9FE01287FF639ACDBF8343002208C4A80
:1047A0008A49984731E4FEF7DDFE01287FF61BAC0D
:1047B000DBF834300220874A8449984713E4FEF737
:1047C000D1FE03287FF62CAFDBF834300420824A78
:1047D0007E49984724E77B4B804A5B6B7B4998472F
:1047E00051E5082D2B464646DDF85C8038BF08238E
:1047F000A3F10805FEF7B6FE032806D9DBF834401E
:104800002B46774A04207149A0474FF4FA61384695
:10481000FEF750F83846FDF717FF044600285AD136
:10482000DFF8EC9137230246019538460093CDF826
:1048300008906C4B6C4902F0B5FE0C993523CDF80D
:1048400008900191224600933846664B664902F073
:10485000A9FEBBE54646DDF85C80FEF783FE032833
:1048600005D9DBF834300420604A584998474FF4A2
:10487000FA613846FEF71EF800230F250C93C9E7AE
:1048800005F108034646DDF85C800F2B28BF0F2397
:104890001D46FEF767FE0328B7D9DBF834402B46E8
:1048A000534A04204949A047AFE746460446DDF88D
:1048B0005C80FEF757FE032805D9DBF8343004206E
:1048C0004C4A424998474FF4FA6138460C94002507
:1048D000FDF7F0FF9EE73B493B46474A00204C6B03
:1048E0003A49A047CFE44FF4FA613846DDF85CA0BE
:1048F0004546DDF87880FDF7DDFF384601F0FCFC29
:10490000002854D12A993846169B5A1A09EB4101BE
:1049100092B201F04FFA2A98291A09EB400000F0F0
:1049200033F900283FF46DAE129D04460D981B2309
:104930000F9F28600A98EF812882AB81DDF82480E0
:10494000FEF710FE032808D92A6843461D490420B3
:104950004D6B00921D49294AA847FEF703FE012826
:104960001ED9129F022026493E7E264A154D002E52
:1049700018BF0A463E463968BF8906923246CDF8CE
:104980000080B6F90E606D6B0191B2F910100297BC
:104990005269139B05921C4ACDE903610B49A84754
:1049A000129B139AC3F804809A60FFF76CBAFEF763
:1049B000D9FD0128A6D9DBF834300220134A034977
:1049C00098479FE7A41C43209C5041008C50410015
:1049D00008514100EC50410080514100DC4F410042
:1049E0003452410028954100B07F4100EC51410014
:1049F000B052410088524100684F4100AC53410021
:104A00007C504100845041002C54410070534100BF
:104A10004D1F40002DE9F04784B0002800F0A4802D
:104A20000C2800F29D800024F6EE003A8D1E0DF158
:104A3000040C2646571E9FED4E4A00F1FF3EDFED67
:104A40004D4A40F213589FED4C5ADFED4C5A9FED02
:104A50004C6A26E0994507DDB5F902A0C145D8BFEB
:104A60009A4501DA434563DDF0EE456AA3F57A73B2
:104A7000013407F8016F002BE6B2B8BF5B42B042C9
:104A800007EE903AF8EEE77A87EEA57A67EE067AB7
:104A900077EEA67AFCEEE77A17EE903A0CF8013B37
:104AA0001BD935F9023F002C4BD0A64535F9029CA5
:104AB000D0D19945D8DDC145D6DCA3EB090907EE75
:104AC000909AF8EEE77AF4EEC47AF1EE10FA54BF59
:104AD000F0EE456AF0EE646AC8E7023802F1010CB4
:104AE000C7B2FF2F21D013460CEB070E0021187818
:104AF00004AD13F8014F2E18254416F80C6C15F868
:104B00000C5CAE4204D9013103F8014C1870C9B2F3
:104B10009E45ECD1003107F1FF3318BF0121002F72
:104B200008BF0021DFB20029DBD104B0BDE8F08767
:104B3000AAEB090907EE909AF8EEE77A67EEA37AF6
:104B4000C1E7B1F900A0B1F90290CA458CDDC245B8
:104B50008ADCA9EB0A0907EE909AF8EEE77AB2E749
:104B60001F210848FEF786F81A210648FEF782F84A
:104B70000000C8C2000000000000484200007A4463
:104B80000000C842985441002DE9F043424F85B0DF
:104B900002468046A7FB0137BF083B4607EB87016B
:104BA00001F044FC97B3A8F1020C7D00002162469D
:104BB0000CEB0500634633F8024FA14238BF214693
:104BC0008342F8D1354B022FA3FB0131C1F34F09CA
:104BD00017D9A8F1060008F102010226284431F88D
:104BE000024F32F8025F2346A54201D92C461D46EA
:104BF0004C4502D9B4EBC50F12D8824206F101062A
:104C0000EDD17A0802F10803BB421CD9244B0020E5
:104C1000244A5B6B24499847002005B0BDE8F08327
:104C2000FEF7A0FC03280AD91D4A3346CDF80890A8
:104C300004201D49CDE90045546B1C4AA0470020C3
:104C400005B0BDE8F08308F10E0000243CF8021F17
:104C500060450C44FAD193421CD908EB4208002568
:104C6000013238F8021B93420D44F9D804EB840357
:104C7000AB4201D80120D0E7FEF774FC0328DED94F
:104C8000074A234600950420546B0749084AA04769
:104C90000020C2E70025E9E7CDCCCCCCABAAAAAA7C
:104CA000A41C43203855410018554100BC54410014
:104CB000485541002DE9F04F2DED028B91B00024B5
:104CC0009B460FAD0EAB0B9000950E940C910F947C
:104CD000FDF7F6FB0D90002800F055840F9BA146D0
:104CE000DFF80CA09FED018A58E000BF17B75137DD
:104CF000289541000321232053463246019129463D
:104D00000090204602F0A8FB002271215346019238
:104D1000204632460091294602F09EFB0122752171
:104D200053460192204632460091294602F094FBF8
:104D300002226921534601922046324600912946BB
:104D400002F08AFB9BF8B41045205346324601918D
:104D500000902946204602F07FFBDBED2E7A2046AC
:104D60005C2367EE887A3246294600935346FCEE70
:104D7000E77A17EE904A013CA4B2019402F06CFB72
:104D8000029B0C9AC9F38F010B98FDF705F90F9B55
:104D900040F6B3529944914500F2F58340F6B4527F
:104DA0000E9CC5491FFA89F5A2EB09022046494429
:104DB0003F279A4228BF1A4696B2029204F03CFF5F
:104DC000DBF800304FF0430C324620462946019371
:104DD0005346CDF800C002F03FFBDBF804304FF043
:104DE000410C32462946204601935346CDF800C077
:104DF00002F032FBDBF808304FF0420C3246294615
:104E00002046CDF800C00193534602F025FBBBF8C5
:104E10000C30324629462046CDE90073534602F055
:104E20001BFBDBF810304FF0260C3246294620469B
:104E300001935346CDF800C002F00EFBDBF81430AE
:104E40004FF0670C32462946204601935346CDF871
:104E500000C002F001FBDBF818304FF0540C324672
:104E60002946204601935346CDF800C002F0F4FADB
:104E7000DBF81C304FF02A0C3246294620460193BD
:104E80005346CDF800C002F0E7FADBF820304FF0CF
:104E90006A0C32462946204601935346CDF800C09D
:104EA00002F0DAFADBF828304FF05D0C3246294682
:104EB000204601935346CDF800C002F0CDFADBF84E
:104EC0002C304FF05E0C3246294620460193534663
:104ED000CDF800C002F0C0FADBF830304FF0190C0A
:104EE00032462946204601935346CDF800C002F0D1
:104EF000B3FADBF834304FF01A0C3246294620461C
:104F000001935346CDF800C002F0A6FADBF8383022
:104F10004FF01B0C32462946204601935346CDF8EC
:104F200000C002F099FADBF83C304FF01C0C32461E
:104F30002946204601935346CDF800C002F08CFA72
:104F4000DBF840304FF01D0C3246294620460193D5
:104F50005346CDF800C002F07FFADBF844304FF042
:104F60001E0C32462946204601935346CDF800C018
:104F700002F072FADBF848304FF0470C324629460F
:104F8000204601935346CDF800C002F065FADBF8E5
:104F90004C304FF0480C3246294620460193534688
:104FA000CDF800C002F058FADBF850304FF04A0C50
:104FB00032462946204601935346CDF800C002F000
:104FC0004BFADBF854304FF05F0C3246294620464E
:104FD00001935346CDF800C002F03EFADBF858309A
:104FE0004FF07A0C32462946204601935346CDF8BD
:104FF00000C002F031FADBF85C304FF0560C32465C
:105000002946204601935346CDF800C002F024FA09
:10501000DBF860304FF0570C3246294620460193AA
:105020005346CDF800C002F017FADBF864304FF0B9
:10503000330C32462946204601935346CDF800C032
:1050400002F00AFADBF868304FF0340C3246294699
:10505000204601935346CDF800C002F0FDF9DBF87D
:105060006C304FF0660C3246294620460193534679
:10507000CDF800C002F0F0F9DBF870304FF0460CCC
:1050800032462946204601935346CDF800C002F02F
:10509000E3F9DBF874304FF02C0C324601932946CB
:1050A00053462046CDF800C002F0D6F9DBF8743044
:1050B000002B40F0F88101E0B07F4100DBF8781070
:1050C000442053463246019129460090204602F082
:1050D000C3F9DBF87C206B2153460192204632460F
:1050E0000091294602F0B8F9DBF8802037215346B9
:1050F0000192204632460091294602F0ADF9DBF8D4
:10510000842036215346019220460091324629469A
:1051100002F0A2F9DBF88870BBB2082B00F2AF8175
:10512000984600276021CDF804805346324600910E
:105130002046294602F090F94B225346CDF80480D0
:10514000009229463246204602F086F962215046F6
:1051500002F0B4FA64210A90504602F0AFFA6321DB
:105160000390504602F0AAFA4D218046504602F0C4
:10517000A5FA4F210490504602F0A0FA4E21059066
:10518000504602F09BFA3D210690504602F096FAF6
:1051900038210790504602F091FA2221089050469B
:1051A00002F08CFA0A9B0990324643EA0701622317
:1051B0002046009353460191294602F04DF9039A87
:1051C000642153463A4320460091294601923246D3
:1051D00002F042F948EA0702632153460192204651
:1051E00032460091294602F037F9049A4D21534680
:1051F0003A432046009129460192324602F02CF9AA
:10520000059A4F2153463A43204600912946019280
:10521000324602F021F9069A4E2153463A4320467F
:10522000009129460192324602F016F9079A3D2173
:1052300053463A432046009129460192324602F0F5
:105240000BF9089A382153463A43204600912946E3
:105250000192324602F000F9099B222132463B437B
:105260002046009129461F465346019702F0F4F864
:10527000DBF8902058215346019220463246009197
:10528000294602F0E9F8DBF89420592153460192AF
:10529000204632460091294602F0DEF8DBF89820DD
:1052A00005215346204602FA01F70091324629466D
:1052B000073F019702F0D0F8DBF8982024215346ED
:1052C0005701204632460091033F2946019702F0DC
:1052D000C3F8DBF898202521534657012046324673
:1052E00000917F082946033F019702F0B5F8DBF8EB
:1052F0009C2029215346019220463246009129469E
:1053000002F0AAF8DBF8A0205021534602F10E006B
:105310003246009129460190204602F09DF8DBF8C4
:10532000A430002B40F08180DBF8A830002B53D153
:105330009BF88D30002B3AD1DBF8AC700621534638
:10534000324607F1FF3C009120462946CDF804C0C3
:1053500002F082F84FF0040C55205346324629469D
:1053600000902046BCFBF7F7013F019702F074F86C
:10537000DBF8B0205321534601922046324600917B
:10538000294602F069F89BF8B5203921534601926D
:10539000204600913246294602F05EF89BF8B5306F
:1053A000002B7FF4A7AC019323215346C4E40021D2
:1053B0002E2053463246019129460090204602F0A5
:1053C0004BF8FEF7CFF80128B6D9724B0220724A8B
:1053D0005B6B72499847AFE75A21504602F06EF96D
:1053E000DBF8A8705A2153460744324600918046A4
:1053F00029462046019702F02FF8FEF7B3F801285E
:1054000007D964494346664A0220D1F8348063498B
:10541000C047FEF7A7F801288AD95E493B46614A92
:1054200002204F6B5D49B84782E71F21504602F0CA
:1054300045F9DBF8A4701F2153460744324600911A
:10544000804629462046019702F006F8FEF78AF8C2
:10545000012807D94F494346534A0220D1F83480E6
:105460004E49C047FEF77EF801287FF65DAF4949F7
:105470003B464E4A02204F6B4849B84754E7022149
:105480005B20BFB253460191324600902946204628
:10549000083F01F0E1FFFF234FF0080803FA07F788
:1054A00007F47F473EE60121102053463246019122
:1054B00029460090204601F0CFFF4FF68078122158
:1054C00053463246204600912946CDF8048001F02B
:1054D000C3FF1422534629460092204632460197C4
:1054E00001F0BAFF11225346294600922046324667
:1054F000CDF8048001F0B0FF002213215346019241
:10550000204632460091294601F0A6FF4FF6C072B0
:10551000152153460192204632460091294601F05A
:105520009BFF162253462946009220463246019799
:1055300001F092FF4FF6F0720E2153460192204681
:1055400032460091294601F087FF0F225346294633
:10555000009220463246019701F07EFF4FF6FF721F
:10556000172153460192204632460091294601F008
:1055700073FF18220197534600922946324620466F
:1055800001F06AFF9AE50D9811B0BDEC028BBDE801
:10559000F08F00BFA41C4320B056410014564100B8
:1055A0006056410088564100DC55410028564100B4
:1055B00010B50446FDF744F840F229212046BDE825
:1055C0001040FCF7D5BF00BF2DE9F0414C6884B016
:1055D0000F4E50220F4D0E340F4F8C460092334623
:1055E0000194294602970022DCF80080044601F06D
:1055F000D9FF292220463346009229460022CDE9D0
:10560000018701F0CFFF012004B0BDE8F08100BFA9
:1056100028954100B07F41004D1F400090F8B53003
:1056200033B9C1E90033C1E90233C1E9043370473A
:1056300010B403220124002302200A604A61C1E958
:105640000340C1E901335DF8044B70472DE9F04395
:1056500083B04FF0000C92F8B5400A9E86F800C067
:1056600014B903B0BDE8F0831D461B6888460746A1
:105670005B00144603F01F032B60FDF773FF032844
:1056800007D9174A04202B68D2F834901549164AD6
:10569000C847B4F924304146228C3846B4F9264034
:1056A000009400F0D9F9B0B1286800F079FA022826
:1056B0000446D6D9FDF756FF40B1094805212346D7
:1056C0000A4A446B012000910649A0470123337028
:1056D00003B0BDE8F083286840F001002860E4E7EB
:1056E000A41C43201456410088554100A055410098
:1056F000D0ED006AB6EE006ADFED335A9FED337AE3
:10570000C5EEA67A9FED325ADFED325A36EEC77AF1
:1057100027EE057A37EE257ABCEEC77A77EE867AE1
:1057200017EE103AFCEEE77A0B8117EE903A9BB237
:10573000A3F1100292B2EF2A24D9F5EEC06A264BEB
:1057400010B5F1EE10FA82B05C6B36D4234BDFED6E
:10575000247A00209FED237A76EEA76A224A234915
:10576000FCEEE67AB8EE676ACDED007A76EEC66AB0
:1057700066EE876AFCEEE66ACDED016AA04700207E
:1057800002B010BD3F2B09D800202F2B88BF1A462E
:105790000B804880C88001208A8070470122BF2B7F
:1057A0004A800ED8A3F14000C0F3CF0003F00702F7
:1057B00088800B800120CA807047F1EE666A0C4B2E
:1057C000C5E7D808F2E700BFF902154F8096984B5D
:1057D000E8385BB500007C42A41C4320C49A410019
:1057E000BD37063500247449CC564100F8564100B7
:1057F000204441002DE9F04F8FB015468346002428
:105800000DAE28680A460A910B93594600960CABD8
:105810000990CDE90C44FCF753FE002800F0898084
:10582000A1460D9BDFF82CA2C9F554680C9C814A57
:105830001FFA89F69845204602EB090128BF9846D1
:1058400042461FFA88F704F0F7F96B681E222046DB
:1058500031460193009253463A4601F0FDFDAB6894
:105860001C22314620460193009253463A4601F0ED
:10587000F3FDEB684FF01D0C3A463146204601938C
:105880005346CDF800C001F0E7FD2B8A4FF01A0C0B
:105890003A463146204601935346CDF800C001F008
:1058A000DBFDEB694FF0100C3A4631462046019380
:1058B0005346CDF800C001F0CFFD2B6A4FF02F0CFE
:1058C0003A463146204601935346CDF800C001F0D8
:1058D000C3FDAB694FF0120C3A46314620460193A6
:1058E0005346CDF800C001F0B7FD6B694FF0310CA5
:1058F0003A463146204601935346CDF800C001F0A8
:10590000ABFD4346C9F38F015A462868FCF744FBB8
:105910000D9B9944B9F5546F86D318210998FCF76B
:1059200027FE064678B9444B444A5B6B4449984786
:1059300005E0414B0646434A5B6B41499847304678
:105940000FB0BDE8F08F002308224FF4FA610998E8
:10595000FCF784FF08B90026F1E70A981921FCF743
:105960003FFB064628B9344B374A5B6B34499847AE
:10597000E5E7099E5946192300223046FCF738FB1B
:1059800004460246192331460920FDF7F1FD23465E
:105990000B9A04F130011F68103353F80C6C10326D
:1059A00053F8084C53F8040C8B4242F8107C42F830
:1059B0000C6C42F8084C42F8040CECD11B88099896
:1059C0001380FCF751FE06460028C4D0286800F07A
:1059D00093FC48B9099800F08FFCF8B90B9919228B
:1059E000099800F0E7F9AAE7FDF7BCFD0128F1D915
:1059F000114C02202B68646BD5E907120691A96946
:105A000005926A690491EF680392D5E90121CDE915
:105A1000011700920A490D4AA047DBE7FDF7A2FDF6
:105A20000128DBD9044B0220094A5B6B04499847E3
:105A3000D4E700BF346C4100A41C43204C57410004
:105A4000345741000C574100DC4F41008057410062
:105A500000584100C07D41000B88B6EE005ADFEDD2
:105A6000494A07EE103ADFED485A9FED486A002395
:105A7000B8EE477A2DE9F04127EE247A444C4D8860
:105A800086B034F91220074637EE457A07EE905A71
:105A900006EE902AADF81630F8EE677A8D8827EE7C
:105AA000257ABDF93080F8EEE66A67EEA47A27EE33
:105AB000067A77EEC57A36EEC77A67EEA57ABDEE3E
:105AC000C77A67EE867A17EE103A1CB207EE104AD4
:105AD000B8EEC77A77EE877AFDEEE77A17EE903A5E
