:020000040040BA
:10000000A02B432041004000917B4000857B4000B5
:10001000797B40006D7B4000617B40000000000068
:10002000000000000000000000000000A169400086
:10003000557B400000000000316A400035B44000AC
:10004000194AD2F8883043F4700310B5C2F88830EA
:10005000BFF34F8FBFF36F8F144A154882420BD204
:10006000D34311460024034423F003030433134411
:1000700041F8044B9942FBD10E4A0F4882420CD200
:10008000D3430E490344081D23F00303034451F8EE
:10009000040B994242F8040BF9D10CF0ABF807F0CD
:1000A000A7FD04F0DBFBFEE700ED00E000104020C0
:1000B000441D432000004020C40E4020B0434100B6
:1000C0002DE9F041AAB003F09BFE18B901202AB037
:1000D000BDE8F08101F0DEF90146274809F08AF910
:1000E0001423ADF8023003F095FE00F053F8002819
:1000F000ECD000F087F90121019000F09BF90DF19F
:10010000020202A9019800F09DF9044680B34FF065
:1001100000081A4F1A4D1B4E0DE013F89CCC53F8F3
:10012000A01CBCF1000F02D13A462846644608F1F3
:10013000010809F05FF91FFA88F3BDF802C02AA888
:100140003246194600EBC30328468C45E5D85CB916
:100150000D4809F03DF901A800F062F900F056F8E9
:1001600084F00100C0B2B2E7084809F031F9F2E7C3
:10017000074809F02DF9EEE7CCEC400078ED40009F
:1001800060ED400058ED40000CED4000ECEC40000C
:1001900034ED400010B5174C23788BB940B101F015
:1001A00079F828B100F086F810B100F0B9FE98B9DE
:1001B000114B0020114A5B6B11499847207810BD04
:1001C00001F048F90128F9D90B4B02200D4A5B6B6D
:1001D0000B499847207810BD0123237001F03AF9AC
:1001E0000128EBD9044B0220074A5B6B044998476E
:1001F000E4E700BF00104020A41C4320A4ED400011
:10020000A0ED4000BCED400080ED400010B50B4C6F
:10021000237803B910BD00F087F800F0B9FE01F0B3
:1002200019F9012805D9064B0220064A5B6B0649DD
:10023000984701F069F80023237010BD001040209A
:10024000A41C4320E4ED4000A0ED400030B583B095
:10025000044601F0FFF8032808D911490420A268D8
:100260004D6B63680F4900920F4AA84760680023EE
:100270000E4951F8042B12B15268904204D0013358
:10028000042BF6D103B030BD094A0021204602EB11
:100290008303596003B0BDE8304001F0C3B800BF2C
:1002A000A41C432034EF40000CEF40000400402029
:1002B0000000402010B5054C207800B110BD01238E
:1002C0001846237001F034F9207810BD000040205A
:1002D000114B1B7810B533B1044618B1006801F01A
:1002E0002DF960B910BD01F0B5F80028FAD00B4B1C
:1002F00001200B4A5B6B0B49BDE810401847206892
:1003000001F0CCF8206803690BB198472068FFF72B
:100310009DFF0023236010BD00004020A41C43204B
:1003200048EE400034EF400038B51B4C2578002DD6
:1003300030D063680BB3201DFFF7CAFFA36803B377
:100340001648FFF7C5FFE36813B11548FFF7C0FF74
:10035000236913B11348FFF7BBFF01F07BF828B105
:10036000114B0120114A5B6B114998470023184635
:100370002370BDE8384001F0DBB81D46A368002BB0
:10038000DED1E368002BE0D12369002BE2D1002D00
:10039000ECD0E2E738BD00BF00004020080040205C
:1003A0000C00402010004020A41C4320C0EE400060
:1003B00034EF4000074B03F1100153F8042B12B146
:1003C0009268904203D08B42F7D100207047012001
:1003D000704700BF0400402008B10120704710B5ED
:1003E000044601F037F830B1034B0120034A5B6B40
:1003F00003499847204610BDA41C432070EF4000DD
:1004000098EF400008B5054A2F230C21012000F089
:10041000EBFF08B10123036008BD00BF58EF4000A7
:1004200038B110B50446006800F0FCFF00232360DB
:1004300010BD704738B50D460446FFF7CDFF00B13B
:10044000256038BD2DE9F041C2B00E46174605467D
:10045000FFF7C2FF10B305F1040805F10A000024FC
:10046000434613F8012B611C02B98CB28342F8D1C8
:1004700064B900F0EFFF88B1244B0120244A5B6B84
:1004800024499847204642B0BDE8F0812846FFF74E
:10049000A3FF00B12868FFF78DFF18B1002042B01C
:1004A000BDE8F08101466822684604F05FFD6846B9
:1004B000194900F0B1FE2846FFF78EFF18BB014630
:1004C000684600F091FE684600F096FE3B88142BCB
:1004D00001D914233B801AAC3B464146684622466C
:1004E00000F072FD3F88002FD9D00422002354F879
:1004F0003350A15C46F833500133B154083299B2FD
:100500008F42F4D8CBE72968DAE700BFA41C432068
:1005100044EF400098EF4000390940000120704747
:100520000120704743693BB110B50446184600F0FE
:1005300079FF0023636110BD704700BF037BF0B5F6
:10054000044687B01BB90120A37307B0F0BD07694B
:1005500006AD0E4600F0E6FE394645F8140D284675
:1005600001F06EFE10B9A07307B0F0BD79882A467D
:1005700023683D890193BB880291F9880393049114
:100580006369ADF81450D6E9000100F0EFFF0346AF
:10059000D9E700BF01232DE9F04F8FB003738946DF
:1005A000054603AF8468D0F8188000F0E3FE00230E
:1005B00005A93A46DFF898E21E469C46002C63D017
:1005C000A65D042B02F801CB01F8016B57D180F036
:1005D0000106F3B2019310B901238DF818302B7B7B
:1005E000002B53D100239A49DFF878B29A46019E36
:1005F0001FFA83FC0CB1E25CF2B9BCF1030F14BF2B
:10060000002206F00102BAB910464FF0010E604513
:100610002DD0042A27D1EA6901921288B8F1000F7F
:1006200007D008EBC20C5BF8230048F832008CF8C6
:1006300004E00132019802800133042BD8D16B7B96
:100640002B731CB12279002A40F09280494628463B
:10065000FFF774FF8246002835D17E4B7E4A5B6BE4
:100660007E4998472BE0505C01326045D1D1B85C9F
:100670000028CED085F80DA04FF0000EC9E713F882
:100680000E600133002C9BD126469AE72B6805AEFD
:10069000079300F047FE4FF0000C08903B4607AA76
:1006A00009968DF828C0D9E9000101F07FF982464A
:1006B000002897D1674B6A4A5B6B68499847504658
:1006C0000FB0BDE8F08F04226B7BAE692A71002B5E
:1006D00000F0B480AA7B002A00F0B0802A690123D0
:1006E000696900275088B2F804E0ADF82000D0888E
:1006F000B2F808C007AAADF8240008682B7305AB50
:10070000ADF828002868ADF822E0ADF826C00790C3
:100710000879D9F80410ADF82A00D9F80000ADF82E
:100720002C70CDE90C7702F09FFA824600286CD03D
:1007300005AB0DF11A0113F8012B002A14BF4FF07D
:10074000000A0AF0010A9942F5D16B7BE9690A882F
:1007500056B195F804C006EBC207424850F82C0089
:1007600046F8320087F804A001320A802B7324B1C6
:1007700094F805A0BAF1000FA1D1AA7B002A51D0AC
:100780000522AE692A71002B49D0AB7B002B46D0E5
:100790002A6901206F690024D18805AB2873ADF860
:1007A000201050881189B2F804C007AAADF82400BF
:1007B000ADF8261038682968ADF828000791ADF823
:1007C00022C03F790B94ADF82A70D9E9000101F0FD
:1007D00083F88246C8B19DF81430002B33D19DF8C0
:1007E0001530B3FA83F35B09E9690A8846B12D79BC
:1007F00006EBC2001B4C54F8254046F8324003710A
:1008000001324FF0010A0A8059E72979114A154B44
:10081000546B53F82130144A1049A0474FE7002386
:100820002B73E1E749462846FFF788FE824660B908
:10083000084B0E4A5B6B0949984740E74FF0000AA6
:1008400085F80CA082E72346CEE76B7B98E700BFD4
:10085000A8EF4000A41C4320DCF04000C4F040009E
:10086000A8F040002CF14000F8F0400008F14000F2
:10087000F0B5456991B0002401202F6801AE05ADA7
:100880000A910DF1020108970E92ADF80240099409
:100890000D960F91CDE90B458DF82D0073B11D46D6
:1008A0001B88112B1FD81F4B264620461E4A5B6B08
:1008B0001E4998472C80304611B0F0BD41F20844E3
:1008C0004FF488731A4A2146049400F08DFD03907A
:1008D00008BB0020134B174A06465B6B1349984729
:1008E000304611B0F0BD41F208444FF48873104A0D
:1008F0002146049400F078FD03900028E9D003A974
:1009000008A8FFF747FE0F9B06461B882B8003981D
:1009100000F088FDCFE703A908A8FFF73BFE0646D5
:10092000F5E700BFA41C432050F04000C4F0400095
:100930006CF040008CF0400070B505460E46752303
:100940000A4A0421012000F04FFD0446686150B1BD
:10095000304600F041FC0649064A01232060184653
:10096000C5E9061270BD0346184670BD6CF0400024
:10097000ACEF400071084000F0B44E1E0346002565
:10098000DFF840C0374600E00546ACFB0324681C96
:10099000E40804EB8402A3EB4202A3B2303207F86E
:1009A000012F002BF0D16D080A180B54013316F8F3
:1009B000011F12F8014DAB4234701170F6D9F0BC32
:1009C000704700BFCDCCCCCC01381F2800D9704770
:1009D0002DE9F84F314B1B5C002B41D01546884662
:1009E0004FF480722E49602000F0D8FC0646B8B360
:1009F000002D43D00027DFF8B0B0DFF8B0A03C46B0
:100A000008E05F2F28D9B9F10F0F04F1010411D0CC
:100A1000A54227D914F00F09F3D15F2FF3D8F119AC
:100A200038F81400FFF7A8FFB9F10F0F074404F1DD
:100A30000104EDD100F00EFD012824D9DBF834705B
:100A40003346524617490220B847A54216D914F03A
:100A50000F094FF00007E2D02C22F2550137DCE7F6
:100A6000BDE8F88F57B100F0F5FC012806D90E4912
:100A700033460E4A02204C6B0A49A0473046BDE877
:100A8000F84F00F0CFBCA542F8D914F00F094FF091
:100A90000007C4D02C2201273270C0E70410402088
:100AA0005CF1400048F14000A41C432044F14000A8
:100AB0002DE9F04F461E97B01F2E02D917B0BDE8A2
:100AC000F08FDFF8E4820123B221044618F80650C3
:100AD0001A4608F806300DF1580A099502F0AAFBEB
:100AE00000236425DFF898B2DFF8C0922AF8203D91
:100AF00012E073B100F0AEFC01284A469F494FF066
:100B0000020006D9BDF83830DBF83470C3F30903AE
:100B1000B847013DADB2D5B152461121204602F091
:100B200087FBBDF8383013F4806F18F80630E0D139
:100B30006BB100F08FFC012809D991490220BDF862
:100B400038304D6BC3F309038E4A8C49A847002502
:100B500016AA20468C4F22F82C5D294602F068FB2D
:100B600016AA2A21204622F82A5D07F11E0902F062
:100B70005FFB16AA2821204622F8285D554602F080
:100B800057FB632101E037F8021F2A46204602F096
:100B90004FFB4F4505F10205F5D118F80630002B43
:100BA00044D000F057FC01281CD9BDF84620022093
:100BB000734DBDF844706D6BBDF842100692BDF8E0
:100BC000402005970491BDF83E70BDF83C1003929B
:100BD000BDF83A20BDF8383000926C4ACDE90117D3
:100BE0006649A84718F8063003B300F033FC012823
:100BF0001CD9BDF856200220614DBDF854706D6BB4
:100C0000BDF852100692BDF8502005970491BDF82A
:100C10004E70BDF84C100392BDF84A20BDF8483024
:100C200000925B4ACDE901175449A8475246682112
:100C3000204602F0FDFA0DF13A026721204602F04B
:100C4000F7FA0FAA6621204602F0F2FA0DF13E02F1
:100C50006521204602F0ECFA18F80630A3B100F046
:100C6000F9FB012810D9BDF83C100220BDF83A204C
:100C7000434DBDF83E706D6BBDF838300092454A6B
:100C8000CDE901173D49A84716AA00255321204662
:100C900022F8265D02F0CCFA524640212046ADF8FB
:100CA000385002F0C5FA18F8063063B300F0D2FBF2
:100CB000012807D9324A0220BDF83830556B2F4938
:100CC000354AA84718F80630EBB100F0C3FB0128FD
:100CD00019D9BDF838300220294A03F0040103F085
:100CE000200503F0080C03F01007049103F0400105
:100CF000CDF80CC003F0800300912049CDE90157E5
:100D0000556B264AA847264F5546F02107F11E0984
:100D100001E037F8021F2A46204602F089FAB94559
:100D200005F10205F5D118F80630002B40F0B4802B
:100D30001F464FF00109DFF848B0ABB100F08AFB65
:100D400016AB0128174A03EB470C0C494B464FF0F2
:100D50000200654608D935F8205C3CF81ECCCDE988
:100D6000005CDBF83450A84709F101090237B9F1FA
:100D7000080FFFB21CD018F80630DEE748F140003B
:100D8000A41C432090F14000FCF34000A8F1400077
:100D9000ECF1400030F240005CF2400074F24000A0
:100DA0001CF4400030F340000410402078F1400073
:100DB000002516AA9D21204622F8245D02F038FA6B
:100DC00016AA9921204622F8225D02F031FA5246F5
:100DD00096212046ADF8385002F02AFA2A462046DD
:100DE000B22102F027FA18F80630002B4ED000F09E
:100DF00031FB01280DD9BDF830100220BDF82E209E
:100E0000394CBDF82C30646BCDE90021374A3849A4
:100E1000A04718F80630002B38D000F01BFB012843
:100E200007D9314A0220BDF83230546B3049314A7B
:100E3000A04718F806304BB300F00CFB012807D987
:100E4000294A0220BDF83430546B29492A4AA04768
:100E500018F80630D3B100F0FDFA012807D9224A6C
:100E60000220BDF83630546B2149244AA04718F8B7
:100E700006305BB100F0EEFA012807D91A4A0220C9
:100E8000BDF83830546B1A491D4AA047099B08F831
:100E9000063017B0BDE8F08F00F0DCFA012821D948
:100EA000114A0220BDF838300127556B1049154A08
:100EB000A84718F80630002B3FF43BAF00F0CAFA01
:100EC00001280CD916AA7B1C022002EB4701064A16
:100ED000DFB2556B31F8203C0B4A0549A84718F89A
:100EE000063026E70027E4E7A41C432054F3400023
:100EF00048F14000A0F34000C0F34000D8F34000A8
:100F0000E8F34000F4F2400018F3400001381F28D5
:100F100002D8024B185C7047002070470410402034
:100F2000F8B5184E34780CB12046F8BD00F0F4F94D
:100F3000154F00EBC0004FF496721449C00000F04A
:100F40002DFA38600028EFD0254609E03B6803EB16
:100F5000C003184604F00AF880F8415080F8405069
:100F600000F0DAF9A0424FF0480204EBC4004FF061
:100F7000000104F10104E9D801231C463370204626
:100F8000F8BD00BF24104020281040203CF4400051
:100F900010B5054C237803B910BD044B186800F058
:100FA00041FA0023237010BD241040202810402057
:100FB000C37803B9704710B50446006900F0C4F95E
:100FC0000023E37010BD00BF2DE9F0418CB0064650
:100FD0000F46904600212C2201A81D4603F0C6FFB3
:100FE0000023314601A81A4600F020F830B9044623
:100FF00005B1288020460CB0BDE8F081304600F0F5
:10100000EBF8064600F09AF92B464246394601A80D
:1010100000F0ACF80446304600F096F901A800F064
:101020009DF820460CB0BDE8F08100BF2DE9F047E7
:101030000C4692B0804608469246994600F0CCF89D
:101040000546204608F10C0700F014F9ADF804003D
:10105000204600F007F9ADF80600204600F012F92E
:10106000ADF80800204600F0CFF804232946ADF87B
:101070000A000DEB0302112000F0F2F920220021FA
:10108000384603F073FF38462368214698470646E2
:10109000D8B1202200210AA8002503F067FFD8F864
:1010A000246004950AAA039503AB059521463846AA
:1010B000CDE90655CDE908553568A847064640B93B
:1010C000D8F8243038461B6B9847304612B0BDE83C
:1010D000F087BAF1000F07D00AAD0FCDAAE80F00D4
:1010E00095E80F008AE80F00B9F1000F10D003ADAA
:1010F0000FCDC9F80000C9F80410C9F80820C9F8D4
:101100000C3007CDC9F81000C9F81410C9F8182020
:10111000204600F089F801281BD0204600F08CF80A
:101120009FED0D7A07EE900AC7EE277A77EE877A61
:10113000FCEEE77A17EE903A00223046C8F800300D
:10114000C8F80820A8F8062088F8042012B0BDE8E6
:10115000F0874FF4FA63EFE70000FA4420B1436AE6
:1011600013B11B6B0C301847704700BF10B4846A72
:101170000C30A4465DF8044B604700BF00B5074A39
:1011800083B00346002000910549546B054AA047EF
:10119000054B1B6803B19847FEE700BFA41C432022
:1011A0006CF4400054F440002C10402008B10120A1
:1011B000704710B5044600F04DF930B1034B0120E3
:1011C000034A5B6B03499847204610BDA41C43208B
:1011D00078F4400094F4400010B50446FFF7E6FFB1
:1011E00000B1E06810BD00BF38B50D460446FFF7FA
:1011F000DDFF00B1E56038BD10B50446FFF7D6FF4E
:1012000008B10123237110BD10B50446FFF7CEFFCE
:1012100008B194F8460010BD38B50D460446FFF7F6
:10122000C5FF00B1256038BD10B50446FFF7BEFF0D
:1012300000B1207910BD00BF10B50446FFF7B6FF1E
:1012400040B12379032B05D8DFE803F0060602023C
:10125000A06810BD024810BD4FF0FF4010BD00BF98
:101260000000C07F10B50446FFF7A0FF00B1E08F7B
:1012700010BD00BF10B50446FFF798FF08B1B4F8E1
:10128000400010BD10B50446FFF790FF08B1B4F858
:10129000420010BD436970B5466B3BB383692BB305
:1012A000836A1BB3436A0BB3C36AFBB18368EBB1B8
:1012B000C368DBB10369CBB1F6B10368202B16D844
:1012C00043680F2B13D9C3690BB1036A7BB1044682
:1012D0000A4D01260FCC0FC50FCC0FC50FCC0FC583
:1012E00094E8030085E80300304670BD26B1044A47
:1012F00000200449B0470026304670BDA41C43209E
:10130000CCF44000E0F4400038220021014803F012
:101310002DBE00BFA41C4320014B1868704700BFBE
:10132000A41C4320014BDB6A184700BFA41C4320C8
:10133000014B5868704700BFA41C4320014B5B69F8
:10134000184700BFA41C4320014B9B69184700BFEE
:10135000A41C4320024BDB6903B11847704700BF50
:10136000A41C4320024B1B6A03B11847704700BFFF
:10137000A41C4320024BD869003018BF01207047DD
:10138000A41C4320014B5B6A184700BFA41C4320E8
:10139000014B9B6A184700BFA41C43202DE9F04174
:1013A0000D4C0F4690460646A3689847054630B94F
:1013B000636B0A4A0A4998472846BDE8F081094B01
:1013C0001B68002BF8D01C683A4643463146A047BC
:1013D0002846BDE8F08100BFA41C4320A8F44000CB
:1013E000E0F4400030104020F8B590B10C461146B2
:1013F0001A46A4FB006777B904FB00F52846FFF7FF
:10140000CDFF044618B12A46394603F0AFFD204609
:10141000F8BD0446FBE7CF210148FFF7AFFE00BF50
:10142000B8F44000064B1B6810B504460BB15B686E
:101430009847044B2046DB68BDE81040184700BFC2
:1014400030104020A41C4320014B1B69184700BFEB
:10145000A41C4320014B93F830007047A41C432088
:1014600070B50B4C84B0012500EB40068DF80400EC
:1014700003FA05F004EB860302915C68039524B13E
:1014800011469B68024601A8A04704B070BD00BF8A
:101490001800402000487047ECF440002DE9F0416E
:1014A00070B91C4C00201C4A636B1C4998470020F3
:1014B000636B1B4A1949054698472846BDE8F081E9
:1014C000184B044602689A42EBD1174B1D78DDB1E8
:1014D000437B002BF1D18368202B15D8134E16F8CF
:1014E00013708FB94FF001081C3006F81380FFF716
:1014F0005FFDA368202B09D806EB430284F80D801A
:1015000006F813705770D8E7024CD0E784F80D80C6
:10151000D3E700BFA41C43201CF540007CF540002D
:1015200048F54000E89EC0AC341040203810402000
:10153000014B1870704700BF3410402008B538B90F
:10154000064B0020064A5B6B06499847002008BD01
:101550000268054B9A42F3D1012008BDA41C432028
:101560001CF540007CF54000E89EC0AC2DE9F04F32
:101570008BB0914604460025069309AB05900A46B8
:1015800007912146D9F80000009308ABCDE9085532
:1015900001F0EAFF002865D0099BDFF8FCA21C4699
:1015A000C5F52C63089EB34AAFB29C42304602EBAD
:1015B00005014FF0000B28BF1C4622461FFA84F895
:1015C00003F03AFCD9F804301D2230463946019325
:1015D00000925346424602F0E1FAD9F808301B2245
:1015E00039463046019300925346424602F0D6FAFD
:1015F0004FF01C0CD9F80C30424639463046CDE944
:1016000000C3534602F0CAFAB9F810C01923424683
:1016100039463046CDE9003C534602F0BFFA10236C
:10162000424639463046CDE900B3534602F0B6FA99
:101630002346C5F38F01059AD9F8000001F060FF39
:10164000099C2544B5F52C6FAAD31821D9F80000C0
:1016500001F0E2FF064678B9874B884A5B6B884900
:10166000984705E0844B0646864A5B6B8449984759
:1016700030460BB0BDE8F08FD9F800405B4603223E
:101680004FF4FA61204602F039F938B97A4B00205C
:101690007D4A5B6B06467A499847E9E709AA9D218E
:1016A000204601F0C5FDBDF824500520012305F0BA
:1016B000070509AA2146ADF82450FFF7D1FE2046C0
:1016C00002F022F80028E1D04FF44073D9F800501E
:1016D000BDF82460ADF824302846069B1E6002F059
:1016E00003F8044668B1644C2B465846674A656B5C
:1016F0006349A8470020636B654A614906469847DD
:10170000B6E713230196634E024600932846624BC8
:10171000A3465849029602F0E7FA0123DFF85891F0
:10172000224600932846029601945B4B514902F0F1
:10173000DBFA09AB21212846002213F80BA0554BF8
:10174000009102934B49544BCDF804A002F0CCFA1F
:1017500040F2CD11284601F05FFF78B10023092245
:101760004FF4FA61284602F0C9F870B9424C53466A
:10177000656B4A4A00204249A847BBE73E4C5346A6
:10178000474A656B3E49A847B4E71021079801F026
:10179000DBFE28B9384C434A636B39499847E6E782
:1017A000102300220599284601F0D6FE1023024698
:1017B000294604460020FFF753FE284601F0A4FF07
:1017C00006460028D2D04FF00008234604F11E0C34
:1017D00047465A8833F8021B17448A42A2EB01009D
:1017E00038BF881A804538BF80469C45F1D12846CD
:1017F000FFF78CFBF0B9102221462846FFF7E4F8EA
:101800002488294B40F6B8323C4428462409234416
:10181000B8F5487F98BF93428CBF01270027FFF798
:1018200075FB002846D197B1BBF1000F0DD14FF0E9
:10183000010B7EE7FFF70EFE0128DCD9D9F8343022
:1018400002201A4A0E499847D5E70B4C52E7069BEF
:1018500083F804A0FFF7FEFD01287FF609AF069983
:101860000220054A0B79546B0093114A0B68044916
:10187000A047FDE6680A4100A41C4320E8F54000AB
:10188000C8F5400084F540001CF6400034F64000E6
:101890001CF74000B5344000C4164100F0F640008B
:1018A00068F64000A8F64000E886FFFFC0F640005A
:1018B00034F74000FFF7CEFD0128B4D9CDF8008001
:1018C00023460220D9F83440014A0249A047AAE73A
:1018D000D8F64000C8F540002DE9F0411E461569D4
:1018E000022384B0144607468846337073700DB1E6
:1018F0002B7863B9A389023B042B3CD9254B0020EC
:10190000254A5B6B25499847032333700DB16B78EB
:1019100003BB23683846A58841460093E388A28923
:10192000ADF80650ADF8043027896589E389ADF834
:101930000C206A46ADF80870ADF80A50ADF80E30CC
:1019400000F000FD50B9134B154A5B6B13499847E3
:1019500003237370012004B0BDE8F081FFF77AFD26
:10196000012805D90B4B02200E4A5B6B0B499847A7
:1019700000237370EEE7FFF76DFD012805D9054BD5
:101980000220094A5B6B0549984700233370002DFC
:10199000BDD1BEE7A41C432048F7400060F74000DB
:1019A0009CF7400088F7400070F740002DE9F04FA9
:1019B00015460024DFF8A0A3A1462DED028B9BB0B5
:1019C0001091A9680B921A4608930223079113708D
:1019D00053709370D3701371079B06940A900D9403
:1019E00009941294119413943BB3DDE906239B5C94
:1019F000D3B9069B0B9A013BD2F800B0032B00F23F
:101A00001C81DFE813F0D90049003000C001FFF766
:101A100021FD012805D9DAF834300220C44AC5492D
:101A200098470023089A1370069B042B0DD0069B41
:101A300001330693079B002BD7D1BF4B069AD35C8B
:101A4000002BD6D0069B042BF1D1089B5B7823B9E1
:101A5000089B9B78002B00F00A8101201BB0BDEC95
:101A6000028BBDE8F08F0B9B16AA10991C7B5B685C
:101A70000A98CDF858B08DF86040179300F09CFAA2
:101A8000002840F0DF81DAF83430AC4AA9499847A1
:101A90000323089AD370CAE7A94B1AAC0FCB04E909
:101AA0000F00F722A7494FF40060FFF777FC0C9076
:101AB000002800F0C3810C9B0022043B19460E93C2
:101AC0001346CDE9142203F003021AA8013300EBF8
:101AD0008202B3F5007F52F8102C41F8042FF2D1A6
:101AE000FFF7B2FC00230D90099314AB0F9300266F
:101AF000DDF83090DDF828804FF400750F9F4B46DD
:101B000041460095324658460197344601F03CFC68
:101B100000954B464146019732465846DFF84892B9
:101B200001F070FCDFF80C820E9D059604F00303B3
:101B30001AA955F8042F01EB830353F8107C27F002
:101B40007F47974212D0FFF785FC059B03284A4642
:101B500003F1010341464FF004000593234605D9E4
:101B60002E68CDE90076DAF83470B8470134B4F560
:101B7000007FDBD1099B059E03F500730993FFF7F6
:101B800063FC002E40F027810D9BA0EB0309B9F107
:101B9000130FACD9149B0993159B0D93FFF75AFCB7
:101BA000012805D9DAF834300220674A614998479C
:101BB0000023089A937022E100214FF6FF72634BD5
:101BC000082414ADADF85010614FA846CDE9162396
:101BD000FFF73AFCCDF83090A146059000264FF66D
:101BE000FF743546224621215846013501F022FB7B
:101BF00042462121584601F01BFBBDF85030A3425C
:101C000014D0FFF727FC4FF0040C032806F101065F
:101C10002B463A464749604608D9BDF850E0CDE921
:101C200000C4CDF808E0DAF83440A047042D00F0F5
:101C30009D8016AB33F81540D4E71AAA0024584605
:101C400022F8104D214601F0F3FABDF8582041F278
:101C500012139A423FF4DBAE009220463D4ADAF876
:101C600034403449A0470323089A1370DCE6DDEDC5
:101C7000136ADDED117AB8EE666ADDED0D6AB8EE35
:101C8000677ADDED097AF8EE665A06EE909AF8EE7C
:101C9000677AF8EE664ADDED126A26EE254AB8EE5E
:101CA000665A26EE246A67EE276A65EE855A27EEA5
:101CB000247A67EE857A76EEC46A37EE657A77EE37
:101CC000C67AC7EE268A87EEA68AFFF7C3FB0128ED
:101CD00011D9214B0220F2EE006A204AB6EE007ABA
:101CE0005C6B1449C6EEA87A77EE877AFCEEE77A49
:101CF00017EE903AA047FFF7ADFB01287FF6ADAE97
:101D0000DFED177AB6EE007A134B022068EE277AE1
:101D1000144A5C6B074977EE877AFCEEE77A17EE98
:101D2000903AA04701201BB0BDEC028BBDE8F08FBC
:101D3000C0F74000DCF7400074FA40005CF9400056
:101D4000B0F74000C8F8400038F940005555AAAA3D
:101D500034F84000F4F74000A41C4320BCF94000D4
:101D600000007A44DCF94000E8F84000FFF76CFB23
:101D700009EB8902BEB9059BC01A09F108031328B3
:101D800041D899462AE7109A58460A9900F086F8F1
:101D9000002865D1394B3A4A5B6B3A49984703238F
:101DA000089A137151E6DDF81480CDF8449013922F
:101DB000DDF83090FFF748FBA0EB0803324A0095AE
:101DC000002012933346DAF834402E49A04703230B
:101DD000089A53702BE6149D8146099B00200D99AB
:101DE0000995159DA9EB010900933346274ADAF8B6
:101DF000344024490D95A0470323089A93700C980A
:101E0000FFF710FB13E6CDF844901392DDF8309005
:101E1000DDF81480FFF718FB0446FFF71BFB0128D1
:101E200005D9DAF834300220194A16499847A4EB4C
:101E3000080200231292089A5370F8E50323089AC7
:101E40009370F4E5FFF706FB012805D9DAF8343082
:101E50000220104A0B4998470023089AD370E6E500
:101E6000FFF7F8FA012805D9044B02200A4A5B6BF8
:101E7000044998470023089A1371E6E5A41C4320FF
:101E80008CF94000DCF74000F8F9400038FA4000D7
:101E9000A0F8400074F94000A4F940002DE9F04199
:101EA00084B0002406460F4603AD02AB0095CDE991
:101EB000024401F059FB28B3039BDFF8A080C4F56E
:101EC0004B7508EB040102989D4228BF1D462A4627
:101ED00002F0B2FF2B46C4F38F013A46304601F0C0
:101EE0000FFB039B1C44B4F54B7FE8D33B213046EA
:101EF00001F092FB054678B9144B154A5B6B154906
:101F0000984705E0114B0546134A5B6B114998470A
:101F1000284604B0BDE8F08101230B224FF4FA619A
:101F2000304601F0EBFC05460028F1D03046FFF7C3
:101F300011FA3046FFF716FA3046012302224FF419
:101F4000FA6101F0DBFC0546E2E700BFA41C432078
:101F5000C8FA4000B4FA40007CFA4000FC17410087
:101F6000002A30B518BF052283B008BF0022002B1D
:101F70000C4601AB18BF64224FF4FA61054601F02C
:101F800055FC58B19DF804309AB2A24208D00749D6
:101F90000020074A4C6B0749A047002003B030BD22
:101FA000022AFBD1284601F0AFFBF7E7A41C43202F
:101FB0000CFD400038FD40002DE9F04F2DED028B67
:101FC0008BB013689346002509AC029007930A462C
:101FD00000940146184608AB9BED018ACDE90855EF
:101FE00001F0C2FA002800F08580DFED857ABCEEB2
:101FF000C87A099B68EE277ADFF83C9217EE102A20
:10200000DFED808A1C46FCEEE77A110C92B2039158
:10201000059217EE902A110C92B206924A1E049273
:10202000C5F54B73089E784AAFB29C42304602EB2E
:1020300005014FF00F0A28BF1C4622461FFA84F8FC
:1020400002F0FAFE039B42463046019300233946D4
:1020500000934B4601F0A2FD059B42463946019391
:102060000123304600934B4601F098FD68EE287A34
:102070000E23424639463046FCEEE77A00934B4643
:1020800017EE90CA0CF1FF3C1FFA8CFCCDF804C08F
:1020900001F084FD049B42463946019330464B468D
:1020A000CDF800A001F07AFD069B4FF0100C4246DF
:1020B000013B39463046CDF800C001934B4601F054
:1020C0006DFD2346C5F38F01029ADBF8000001F095
:1020D00017FA099C2544B5F54B7FA1D351460798C3
:1020E00001F09AFA044688B9484B494A5B6B494962
:1020F000984705E0454B0446474A5B6B454998477E
:1021000020460BB0BDEC028BBDE8F08F4FF001090B
:1021100000243E4FDFF824813E4EDDF81CA0A3B220
:102120000293FFF797F903284B46424631464FF09A
:10213000040001D97D6BA847029B0A219BF8082067
:102140005046B3FA83F35B09FFF70AFF09AA272178
:10215000002835D0504601F06BF8FFF77BF90328D3
:1021600031462E4A4FF0040003D97D6BBDF8243070
:10217000A847504601F0C8FA48B3BDF824304B4593
:1021800027D1FFF767F90328254A31464FF00400AD
:1021900001D97B6B9847013409F10109052CBED1A7
:1021A0009BF80820002307980221FFF7D9FE044678
:1021B0000028A5D1154B1B4A5B6B164998479FE732
:1021C000124B029D5B6BB5B9174A12499847002420
:1021D00096E70E4C00200F49144A636B9847079806
:1021E0004FF4FA6101F0B2FB0028F0D1636B104AA2
:1021F00008499847EBE70F4A06499847E7E700BFC9
:10220000CDCCCC3D17B75137FC174100A41C43205F
:102210002CFB400038FD4000F4FA400038FC400040
:1022200054FC4000ECFC400070FB400084FC40008B
:10223000D8FC4000C8FB4000001C410058FB400097
:10224000D0ED006AB6EE006ADFED335A9FED337AC7
:10225000C5EEA67A9FED325ADFED325A36EEC77AD6
:1022600027EE057A37EE257ABCEEC77A77EE867AC6
:1022700017EE103AFCEEE77A0B8117EE903A9BB21C
:10228000A3F1100292B2EF2A24D9F5EEC06A264BD0
:1022900010B5F1EE10FA82B05C6B36D4234BDFED53
:1022A000247A00209FED237A76EEA76A224A2349FA
:1022B000FCEEE67AB8EE676ACDED007A76EEC66A95
:1022C00066EE876AFCEEE66ACDED016AA047002063
:1022D00002B010BD3F2B09D800202F2B88BF1A4613
:1022E0000B804880C88001208A8070470122BF2B64
:1022F0004A800ED8A3F14000C0F3CF0003F00702DC
:1023000088800B800120CA807047F1EE666A0C4B12
:10231000C5E7D808F2E700BFF902154F8096984B41
:10232000E8385BB500007C42A41C4320AC2B410084
:10233000BD3706350024744950FD40007CFD400047
:102340004CFD40002DE9F04F2DED028B8FB017466C
:10235000834600260BAC0A46059109AB38685946FE
:10236000009409960B9601F0FFF8044600287AD0F5
:102370000B9BDFF81CA3C6F58069099CB44AB5B273
:102380009945204602EB060128BF99464A461FFAA6
:1023900089F802F051FD3B891A2220462946019313
:1023A00000925346424601F0F9FBBB8818222946A9
:1023B0002046019300925346424601F0EFFBFB8812
:1023C0004FF0190C42462946204601935346CDF85A
:1023D00000C001F0E3FB7B894FF0160C4246294612
:1023E000204601935346CDF800C001F0D7FBBB89CE
:1023F0004FF0100C42462946204601935346CDF833
:1024000000C001F0CBFBFB894FF01E0C4246294671
:10241000204601935346CDF800C001F0BFFB4FF0BA
:10242000000C7F2342462946204601935346CDF8AF
:1024300000C001F0B3FB4B46C6F38F015A46386823
:1024400001F05EF80B9B1E44B6F5806F93D33E6897
:102450001821304601F0E0F8044650B97D4B7E4A21
:102460005B6B7E49984720460FB0BDEC028BBDE800
:10247000F08FFEF7EFFF032805D9764D0420784A48
:102480006B6B764998473046012302224FF4FA617C
:1024900001F034FA08B90024E5E7FEF7DBFF032872
:1024A00005D96C4D04206F4A6B6B6C4998476E4B95
:1024B0004FF0070A0025BC89DFED6C8ADFF8D48174
:1024C000DFF8CC91ADF824A0ADF82850ADF8264047
:1024D00093E807000BAB83E807003E68304601F045
:1024E00003F90690B8B15B4D3346614A00206C6B2E
:1024F0005A49A04700206B6B5E4A044657499847EB
:102500006B6B20465C4A5549984720460FB0BDEC9E
:10251000028BBDE8F08F10224D4930464B460092A9
:10252000069ACDE901A801F0DFFB4421304601F015
:1025300073F828B9474D514A6B6B48499847D9E71A
:10254000FEF788FF032805D9424904204C4A4B6B0B
:1025500042499847002309224FF4FA61304601F0BE
:10256000CDF908B93B4DC5E78021059800F0ECFF97
:1025700028B9384D434A6B6B38499847BAE78023EE
:1025800000225946304600F0E7FF802302460790BC
:1025900031460020FEF764FF304601F0B5F8002810
:1025A000E0D0FEF757FF032805D92A490420364A10
:1025B0004B6B2A4998473046FEF7A8FC00286BD1A0
:1025C000079C802230462146FEF7FEF9A11E04F149
:1025D000FE020023069C31F8020F8A420344FAD11E
:1025E000DB093046069408EE103AFEF78FFC00280F
:1025F00040F05081BAEEC88ADFED247AB6EE007A58
:102600000BAB304603EB850338EE478A079328EE81
:10261000278A83ED008AFEF779FC002840F00981C3
:1026200038EEC88A079B304683ED008AFEF76EFCC1
:10263000002840F0A6803868FEF768FC00284ED1DC
:102640000135032D35D009AB33F815A045E700BFA0
:10265000C01C4100A41C4320A4FD4000E8FD400034
:1026600004FE400044FE400090FD40009A99193F4E
:1026700034F640000402410060FF400084FE400048
:10268000CCFE4000A8F640000CFF40009A99993F0C
:1026900018224100B5344000FEF7DCFE01288FD936
:1026A00084490220844B4A6B84491446844AA047DB
:1026B00086E7DDED0C7A9FED837A069CF4EEC77A0F
:1026C000F1EE10FA36DC7B4B00207F4A5B6B7B49D6
:1026D000984720460FB0BDEC028BBDE8F08FFEF7A7
:1026E000B9FE0128ACD9B5EEC08A72494E6BF1EE45
:1026F00010FA1BD4754B9FED767A0220DFED757AC8
:1027000038EE078A744A6D49FCEEC86ACDE902A525
:10271000B8EE667ACDED006A38EE478A28EE278A51
:10272000BCEEC88A8DED018AB04789E7B1EE488AD0
:102730006A4BE0E79FED6A7AF4EEC77AF1EE10FAA1
:10274000C1D59DED0B7AF4EEC77AF1EE10FABADD41
:102750009DED0D7AF4EEC77AF1EE10FAB3D5386834
:10276000FEF7D4FB002859D13D683821284600F0F7
:1027700053FF044668BB4F4B5A4A5B6B4F4998471F
:1027800071E6FEF767FE01287FF655AFB5EEC08A09
:1027900048494E6BF1EE10FA3CD4F0EE487A4B4BC0
:1027A000DFED4B6A02209FED4B7A77EEA67A4E4A18
:1027B0004249BCEEE76AF8EE466A8DED006A77EEB4
:1027C000E67A67EE877AFCEEE77ACDED017AB047DC
:1027D00031E7FEF73FFE032805D9364B0420434A74
:1027E0005B6B364998472846012302224FF4FA6171
:1027F00001F084F8044600283FF44DAEFEF72AFEAF
:1028000003287FF630AE2B4B0420394A5B6B2B49F3
:10281000984728E6F1EE487A304BC1E7FEF71AFEFA
:102820000128A1D9234B0220324A5B6B23499847E8
:102830009AE7FEF70FFE01287FF6F2AEB5EEC08AEA
:10284000DFED237ABFEE006A9FED227AF7EE006A91
:10285000DFF888C0F1EE10FA16491C4B4FF0020069
:102860004C6B48BFF0EE466A234A48BF63461349A3
:1028700048EE267ABCEEE76AF8EE466A8DED006A0D
:1028800077EEE67A67EE877AFCEEE77ACDED017AAD
:10289000A047C5E6FEF7DEFD01287FF6ABAE054991
:1028A00018EE103A154A0220496B0C460349A0471E
:1028B000A0E600BFA41C43209CFD4000E8FD4000B2
:1028C0004CFF40009A99193E08004100AC2B410092
:1028D000BD37063500247449ACFF40004CFD400074
:1028E0006666863F3800410094FF4000800041004A
:1028F000C4004100E0FF4000B8054100A4054100CC
:102900002DE9F04F87B09246894606469DF8404033
:102910001D469DF84410621EBDF848800491062AA9
:102920000FD9A4F11102062A5DD99C4A0020009417
:102930009B490446556B9B4AA847204607B0BDE813
:10294000F08F4FF0000BFEF785FD032808D9934A5E
:102950002B4600940420526B91491746924AB8477F
:10296000FEF778FD032809D98C4A2B46CDF800B034
:102970000420526B8A4917468C4AB847049A0F2A9A
:1029800037D0A2F11903062B38D80023A2F118077B
:102990000493FBB20593FEF75DFD032808D97F4A37
:1029A0002B460499042000917D49576B804AB84713
:1029B000FEF750FD032808D9784A2B4605990420D4
:1029C00000917749576B7B4AB847304600F08CFE40
:1029D0000746B8B1714900203346774A4D6B04462B
:1029E0006F49A847A9E7A4F1100300245FFA83FB0D
:1029F000A9E707230022CDE90432CCE70023CDE983
:102A00000433C8E7072301946C4C02460093304618
:102A100002946B4B6B4901F067F904990823029407
:102A20003A460191304600936649654B01F05CF9E6
:102A3000092302943A46304600936249604BCDF830
:102A400004B001F051F905990A2302943A46019124
:102A5000304600935B495A4B01F046F93A463046FE
:102A6000574B58490097CDE9018401F03DF94421C5
:102A7000304600F0D1FD044630B948492B46524A51
:102A80004D6B4749A84758E7FEF7E4FC032806D9F1
:102A900042492B464D4A04204C6B4149A047002334
:102AA00009224FF4FA61304600F028FF08B90024EB
:102AB00043E75046414600F047FD044628B9374BEE
:102AC000434A5B6B3649984737E7494643460022FD
:102AD000304600F041FD43460246314604460020A0
:102AE000FEF7BEFC304600F00FFE07460028DED0A1
:102AF000FEF7B0FC032807D928492B46354A0420A5
:102B0000D1F834902649C8473046FEF7FFF968B936
:102B1000424621463046FDF757FF002213469045B6
:102B200011D934F8121001320B44F8E7FEF792FC89
:102B30000128EDD919492B46274A0220D1F83490B3
:102B40001749C847E4E73046B3FBF8F8FEF7DEF96B
:102B5000B0B907EE908AF6EE006A9FED207A304613
:102B6000FBEEC87A139B77EEE67A67EE877AC3EDC1
:102B7000007AFEF7CBF90446002837D13C46DCE664
:102B8000FEF768FC0128E4D9044A2B46CDF8008002
:102B90000220546B0249124AA047DAE7A41C4320E2
:102BA000D803410094034100E80341002C04410094
:102BB00070044100B404410034F64000B5344000D4
:102BC000A828410038234100F804410034054100A1
:102BD000A8F64000680541004CFF40009A99993FD3
:102BE000A0054100BD37063500247449FEF732FCCC
:102BF0000128C3D9139BF7EE005ABFEE007A5FEDB0
:102C0000077AD3ED006A2B461FED096A0220F5EE24
:102C1000C06A1049104D114EF1EE10FA104A766B51
:102C200058BFB0EE657A48BF0D460E49009546EE96
:102C3000877ABCEEE77AF8EE476A8DED017A77EE97
:102C4000E67A67EE867AFCEEE77ACDED027AB04757
:102C500073E600BF4CFD4000AC2B4100A41C432098
:102C6000B4054100D80341002DE9F04F15461A463E
:102C700083462DED048B91B00C93013B0B91511DBC
:102C8000022203F8012F9942FBD10FAA00272868DE
:102C90000EAB009259460B9ACDE90E7700F064FC1A
:102CA000044600287DD00F9BDFF838A3C7F57F7955
:102CB0000E9CBD4ABEB29945204602EB070128BFD3
:102CC00099464A461FFA89F802F0B6F8AB881E22E8
:102CD00020463146019300925346424600F05EFF83
:102CE000EB881C223146204601930092534642460F
:102CF00000F054FF2B894FF01D0C42463146204610
:102D000001935346CDF800C000F048FF6B894FF0A7
:102D10001A0C42463146204601935346CDF800C076
:102D200000F03CFFAB894FF0140C42463146204680
:102D300001935346CDF800C000F030FFEB894FF00F
:102D4000220C42460193314653462046CDF800C03E
:102D500000F024FF2A8A7F2302B1531E4FF0000C9B
:102D60000193424631462046CDF800C0534600F05C
:102D700015FF4B46C7F38F015A46286800F0C0FB89
:102D80000F9B1F44B7F57F7F90D32E6818213046E4
:102D900000F042FC044650B9844B854A5B6B854980
:102DA0009847204611B0BDEC048BBDE8F08FFEF7CC
:102DB00051FB032805D97D4B04207F4A5B6B7D497D
:102DC00098473046012302224FF4FA6100F096FD45
:102DD00008B90024E5E7FEF73DFB032805D9734B4E
:102DE0000420764A5B6B734998472B68B5F81080CE
:102DF0000D93D5E90569B8F1000F00F05881B8F5D9
:102E0000006F00F29A8100249FED6D9ADFF89CA17B
:102E1000DFED6C8A9FED6C8ADFED6C9A002E00F07E
:102E20003481335D002B40F09280631E8DED0F9A4C
:102E3000674F042B00F2FC80DFE813F00F019C00C9
:102E4000D600050066010FAB05204FF00F0C0B9A62
:102E5000039359463B69CDF80880CDE9000C0D98E5
:102E6000FFF74EFD002800F0A7819DED0F7AF0EEF0
:102E7000047A37EE297A67EE277ACDED0F7AB9F129
:102E8000000F00F0D18009EBC40393ED007A93EDBD
:102E9000016AB4EEE77AF1EE10FA05DCB4EEE76A07
:102EA000F1EE10FA40F10681B5EEC07A57F8243001
:102EB000DAF83470F1EE10FA00F1ED80454937EEA2
:102EC000287AB5EEC06AFCEEC75AF1EE10FAF8EEB9
:102ED000656A37EE667A27EE087ABCEEC77A00F1AB
:102EE000E2803C4836EE286AF5EEC07ABCEEC65A5F
:102EF000F1EE10FAF8EE456A36EE666A26EE086ADA
:102F0000BCEEC66A00F1CB80324A77EEA87A8DED2E
:102F1000027A069203900020FCEEE76A2E4A0091A6
:102F20008DED056AB8EE667A8DED045ACDED015A45
:102F3000CDED076A77EEC77A1E4967EE887AFCEE18
:102F4000E77ACDED087AB84703230C9A135501347C
:102F5000062C7FF463AF2D683821284600F05CFB17
:102F60000446002840F0FD80104B1C4A5B6B114961
:102F7000984716E70FAB04204FF00F0C0B9A039302
:102F80005946BB68CDF80880CDE9000C0D98FFF7D5
:102F9000B7FC00287FF469AF044ABB68546B05494D
:102FA0000F4AA04715E700BF38234100A41C432067
:102FB00004014100D8034100340141005C0141009B
:102FC0000000C07FBD370635002474499A99193F27
:102FD00008014020AC2B410024024100D8024100EE
:102FE00000024100A82841000FAB07204FF01A0C47
:102FF0000B9A03935946FB68CDF80880CDE9000C85
:103000000D98FFF77DFC002800F0CF809DED0F7A32
:10301000F0EE047A39EEC77A67EE277ACDED0F7AB3
:10302000B9F1000F7FF42FAF6A4B03EBC4032CE719
:103030000FAB07204FF00F0C0B9A039359463B68D8
:10304000CDF80880CDE9000C0D98FFF759FC002859
:1030500000F0B980DDED0F7A11E70FAB07204FF0DC
:103060001F0C0B9A039359467B68CDF80880CDE975
:10307000000C0D98FFF744FC0028EBD1564A7B6802
:10308000546B5649564AA047A3E6564BE35C002BC7
:103090007FF45DAFC9E6B1EE477A53490FE7F1EE31
:1030A000677A514A31E7B1EE466A4F481AE74FF066
:1030B0008008A8E600230C9A1355FEF7CBF90128E7
:1030C0007FF645AFDDED0F7A57F82430F5EEC07A84
:1030D000DAF83470F1EE10FA3FD4444A77EEA87A69
:1030E00000923E490220424AFCEEE76AB8EE667A58
:1030F000CDED016A77EEC77A67EE887AFCEEE77A63
:10310000CDED027AB84722E70FAB12204FF00F0C3B
:103110000B9A039359467B69CDF80880CDE9000CE2
:103120000D98FFF7EDFB00287FF49FAE2A4A7B69DC
:10313000546B2A492A4AA0474BE6FEF78BF9002830
:1031400030D04FF40061244843462A4A446B8846F5
:10315000009101202149A04755E6F1EE677A224A05
:10316000BCE7FEF777F9032805D91B4B0420224A58
:103170005B6B1A4998472846012302224FF4FA61F3
:1031800000F0BCFB044600283FF423AEFEF762F9D2
:1031900003287FF606AE104B0420184A5B6B0F49DC
:1031A0009847FEE54FF400682DE60B4AFB68546B28
:1031B0000A490B4AA0470CE6074A3B69546B07498A
:1031C000074AA04705E6044A3B68546B0349044A92
:1031D000A047FEE564034100A41C4320D80341003E
:1031E000000241005C0341004CFD4000AC2B41005B
:1031F000B40241008801410008034100300341004E
:1032000041F4405330B583B000245BBA154669469B
:103210000622ADF80030ADF80240ADF80440FEF7EC
:10322000B7F8BDF804305BBA2B8003B030BD00BFE7
:10323000FFF7E6BF10B541F4805382B054BA0422C0
:103240005BBA01A9ADF80640ADF80430FEF7A0F86E
:1032500002B010BD2DE9F04182B00D461746194667
:10326000BDF820400DF102021E468046AC40FFF73B
:10327000C7FFBDF90250042246F4805640466C4018
:103280000DEB020176BA3C40ADF804606C4064BAC4
:10329000ADF80640FEF77CF802B0BDE8F08100BF53
:1032A00041F420430A2210B584B05BBA4FF4807415
:1032B00001A9ADF80430ADF80640FEF769F8DDF875
:1032C0000A0000BA04B010BD2DE9F04F87B01F46C8
:1032D0001646009003919DF84040FEF729F8002320
:1032E000ADF814300493002F48D09C4202934FEA6B
:1032F0005000039C14BF4FF4E0434FF40043A0F18F
:10330000030A1BB201932CE0019B1FFA85F905F11A
:10331000030B214643EA060009F1FF3C029B4FEAFA
:103320004B089CFA9CFC40BA4246A3802080A8F13E
:103330000608A4F802C04E440098FEF729F820467B
:103340005946B6B200F034FB0498BDF814207F1B38
:103350002060A28044442068A2880490ADF8142024
:103360000CD0BA45554628BF3D46BA45CCD2CBD045
:10337000EB07C9D5013DEB07FCD4C5E70398063040
:1033800007B0BDE8F08F00BF2DE9F04F83B098463D
:10339000834689461646DDE90C7AFDF7C9FF8008A9
:1033A000431E00935FB309F102030193009B404663
:1033B000BB4228BF3B4619461C469D0000F002FB5D
:1033C00046F480402A46414645BA01989044264436
:1033D000A9F80050A50001F02FFD494602355846D6
:1033E0002A46FDF7D5FFBAF1000F05D0DAE9001241
:1033F0000D440132CAE900523F1BB6B2D6D103B028
:10340000BDE8F08F2DE9F04F85B098468946164605
:103410000190DDE90E7BFDF78BFF8008831E03938F
:10342000002F3DD0BB4228BF3B46B3F5006F1C4682
:1034300039D809F10603029307E0039BBB4228BF7A
:103440003B46B3F5006F1C462DD8620046F4104C85
:103450004FEA840A4946D51C013A9CFA9CFC019823
:1034600052BA6D00A9F800C0A9F802202A46FDF75B
:103470008FFF02995246404601F0DEFC214640464D
:1034800000F0A0FABBF1000F05D0DBE900120D44FB
:103490000132CBE9005226443F1BD044B6B2CCD116
:1034A00005B0BDE8F08F4F210148FDF767FE00BF72
:1034B0001006410010B541F4A04382B014BA0622B0
:1034C0005BBA6946CDF80240ADF80030FDF760FF09
:1034D00002B010BD38B51C46106019601546FDF7E6
:1034E00027FF2168884202D2FDF722FF01462B68A0
:1034F0000239023321F003012B60216038BD00BF87
:103500002DE9F0419C1C07460D461646FDF710FFBD
:10351000A04207D2094B0020094A5B6B0949BDE86C
:10352000F041184745F4A0452246314638466DBA69
:103530003580BDE8F041FDF72BBF00BFA41C432040
:1035400028064100480641000331B0EB410F2CBF73
:1035500001200020704700BF10B5002482B0009405
:10356000FFF7B2FE02B010BD70B50C4684B0114634
:1035700005461A462046089B04AEFFF7ABFF002322
:1035800028462A2126F8023D3246FFF751FEBDF8B3
:103590000E305B0619D40024324611212846ADF8BE
:1035A0000E40FFF745FEBDF80E3013F480661AD0CA
:1035B00015492B46154A20464E6B1549B0472846FB
:1035C000FDF776FA204604B070BDFDF743FF30B139
:1035D0000D492B460F4A01204C6B0D49A047284648
:1035E000FDF766FAD7E70124802302222846214608
:1035F0000094FFF72FFE8023284600961A460721E5
:10360000FFF728FE2046DEE7A41C432010084100F7
:1036100000084100D4074100F0B583B000240F46F4
:10362000112102AA064622F8024DFFF701FEBDF85D
:10363000060010F480650CD013493346134A204627
:103640004D6B1349A8473046FDF732FA204603B0C8
:10365000F0BDB7F5806F09D30B4928463B460D4AAC
:103660004C6B0B49A047284603B0F0BD2A461021F9
:103670003046FFF7DFFD304647F480621021FFF748
:10368000D9FD0120E3E700BFA41C4320400841000E
:10369000000841007008410030B583B000231121BB
:1036A000054602AA22F8023DFFF7C2FDBDF806005A
:1036B00010F480640BD1094B2046094A5B6B094921
:1036C00098472846FDF7F4F9204603B030BD284658
:1036D00001227421FFF7AEFD0120F6E7A41C432070
:1036E000AC0841000008410000B583B0002311215F
:1036F00002AA22F8023DFFF79BFDBDF80600C0F3C9
:10370000802003B05DF804FB70B582B0002338213F
:10371000054602AA22F8023DFFF78AFDBDF80640E1
:1037200064B908492B46084A20464E6B0749B04702
:103730002846FDF7BDF9204602B070BD012002B059
:1037400070BD00BFA41C43200807410000084100D1
:1037500070B50C4684B041B92B4B08462B4A5B6BC5
:103760002B499847204604B070BD0DF10E02282168
:103770000546FFF75DFDBDF80E20D3B262802370D1
:103780000B2B2CD8DFE803F02308060606060606F6
:10379000060606060120E6E7120A102A29D80126A5
:1037A0001C48D1B206FA02F2104010B34A1E164B62
:1037B000D2B25E6B202A22D9174B184A0020144936
:1037C000B0472846FDF774F9002004B070BD0E49DB
:1037D0002B46134A00204C6B0D49A047F1E70A4ADB
:1037E000002000950A49566B0E4AB047002323700B
:1037F000E7E7054943F4045320224E6B63800A4BEC
:1038000053F82230D9E700BFA41C43204C074100E5
:1038100000084100160001003C07410084074100F8
:1038200060074100A4074100540641002DE9F04F14
:1038300087B004460F4602F1010A02920025039365
:10384000DFF8A0B0DFF8B090DFF8A08014E022F835
:10385000023D2046FFF7ECFCBDF816305B0630D485
:10386000FDF7F8FD23464A46414618B1DBF83460BF
:103870000120B047AA4517D039462046FDF782FD02
:103880000135064606AA00232A210028DFD1154962
:103890002346154A4D6B1549A8472046FDF708F900
:1038A000304607B0BDE8F08F00200E4A009406466F
:1038B000546B029B0E4A0D49A047304607B0BDE845
:1038C000F08F03992046FFF743FF06460028E7D113
:1038D00004492346074A4C6B0449A047304607B0C9
:1038E000BDE8F08FA41C4320E0084100000841001F
:1038F0002C094100680941000809410070B584B0F5
:1039000014461D46642203AB0646FFF78FFF68B1DD
:103910009DF80C30A3420BD0084A00200849CDE99D
:103920000034084B546B084AA047002004B070BD17
:10393000002DFBD03046FFF7E7FEF7E7A41C43203D
:1039400000084100D80641009009410030B583B01D
:103950000D460446FFF7A0FE10B9002003B030BDAD
:103960002046FFF7D1FE0028F7D0294601AB64229C
:103970002046FFF75BFF0028EFD02046FFF7C4FE8C
:103980000028EAD09DF80430022BE7D0054A002039
:10399000BDF80630556B0449044AA8472046FDF798
:1039A00087F8DAE7A41C4320000841008C08410096
:1039B0004A1E31B10388013A5BBA20F8023B531C1E
:1039C000F8D170474A1E31B10368013A1BBA40F87A
:1039D000043B531CF8D17047006800BA704700BF21
:1039E00000BA0860704700BF2DE9F0470124089D28
:1039F000099F04FA03F3AB4203F1FF340AD80F4ADC
:103A00002B4608940020546B0D49A4460D4ABDE88E
:103A1000F047604791468EB2804604FA09F4314679
:103A2000FFF73EFC05FA09F520EA0402314640465C
:103A30003B462A43BDE8F047184700BFA41C43207B
:103A4000D82A4100AC2A41002DE9F0410124069D0D
:103A500004FA03F3AB4203F1FF340AD80C4A2B46B5
:103A600006940020546B0B49A4460B4ABDE8F04174
:103A7000604717464618BC403046FFF7ADFFBD40D3
:103A800020EA040031462843BDE8F041FFF7A8BF13
:103A9000A41C4320D82A4100AC2A41002DE9F04360
:103AA00083B0074601EB820014469DF828809946B2
:103AB0000B9EFFF791FF20F00F05B8F1000F17D014
:103AC000FDF7C8FC032845EA090509D90F4A234632
:103AD000CDF800900420D2F834800D490D4AC0473B
:103AE0002A46A1B23846334603B0BDE8F043184732
:103AF000FDF7B0FC0328F3D904492346064A042005
:103B0000D1F834800249C047EAE700BFA41C432033
:103B1000D82A4100182B4100502B41002DE9F041DB
:103B20008518984682B0164628460F46FFF754FF80
:103B300020F00F04B8F1000F14D0FDF78BFC032820
:103B400044EA070407D9114AB30800970420566BCA
:103B50000F49104AB0472946204602B0BDE8F0415F
:103B6000FFF73EBFFDF776FC0328F4D9074AB308F8
:103B700000970420566B0649074AB047294620465D
:103B800002B0BDE8F041FFF72BBF00BFA41C4320EB
:103B9000D82A4100182B4100E42A41002DE9F04FBA
:103BA00087B0BDF8404003EBC4080494B8F8027035
:103BB000002F4FD08946059039460024DFF820A118
:103BC0004F46DFF820B103920AE05946DAF8343064
:103BD0003F4A00209847B8F802100134A14239D971
:103BE00004EB4403D8F804204FEA430912F81330D9
:103BF0004A4493B3022BE8D895884FF6FF7295425A
:103C0000EBD0BD42E9D3039A3A449542E5DA012B61
:103C100042D024D3022BE0D1FDF71CFC032808D9A5
:103C2000119B59462B4A04200093DAF83460049B18
:103C3000B047D8F80410EA1B119B01344944059899
:103C4000B3FA83F349885B09FFF768FFB8F80210FD
:103C5000A142C5D807B0BDE8F08F5588CDE7FDF784
:103C6000F9FB032808D9119B59461B4A04200093ED
:103C7000DAF83460049BB047D8F80430E91B119D92
:103C80009944059899F8053099F804200095FFF7B4
:103C9000DBFEB8F80210A0E7FDF7DCFB032808D92B
:103CA000119B59460D4A04200093DAF83460049BB6
:103CB000B047D8F80410EA1B119B4944059800331B
:103CC000498818BF0123FFF729FFB8F8021084E7DD
:103CD000802B4100142C4100B02B4100E42B41000B
:103CE000A41C4320D82A41002DE9F04F87B0BDF82D
:103CF00040A0DDF8448003EBCA067788EFB10025C9
:103D0000DFF8F490DFF8F4B00390CDE9042105EB7F
:103D10004504736813F814306400032B0AD8DFE8F5
:103D200003F0300F4E02D9F8343059462E4A0020A5
:103D3000984777880135AF42E9D807B0BDE8F08FE2
:103D4000FDF788FB032808D9CDF800805346D9F841
:103D500034705946254A0420B847736818F10007A3
:103D6000059918BF012703981C44A2886388129CF8
:103D700000970194049C04EB9202FFF78FFE778872
:103D8000D8E7FDF767FB032808D9CDF80080534634
:103D9000D9F834705946164A0420B8477368039816
:103DA0001C44618863792279129CCDF800800194CB
:103DB000049C04EB9101FFF717FE7788BAE7FDF743
:103DC00049FB032808D9CDF800805346D9F8347050
:103DD0005946084A0420B8477368B8FA88F7059925
:103DE00003981C447F09C0E7782A4100182A410043
:103DF000E8294100482A4100A41C4320D82A410058
:103E000008B500F041FA00B908BDBDE8084000F06F
:103E100039BA00BF70B50C4C00F092FC0B4E20601C
:103E200000F028F90A4D0B490B4A0C4B36682D68F7
:103E3000096812681B6860602046E661256223619C
:103E4000C4E9021270BD00BF200140207C10402058
:103E50008010402090104020941040208810402076
:103E600010B5054C23782BB9044B1B6803B1984758
:103E70000123237010BD00BFD01040208C104020C3
:103E8000034B1B781BB1034B1B6803B118477047EA
:103E9000D0104020BC104020044B1B781BB1044BB9
:103EA0001B6803B118470020704700BFD0104020A6
:103EB00090104020034B1B781BB1034B1B6803B1D0
:103EC00018477047D010402094104020044B1B78B6
:103ED0001BB1044B1B6803B118470020704700BF9B
:103EE000D010402084104020044B1B781BB1044BA1
:103EF0001B6803B118470020704700BFD010402056
:103F000088104020044B1B781BB1044B1B6803B185
:103F100018470020704700BFD01040209810402064
:103F2000034B1B781BB1034B1B6803B11847704749
:103F3000D0104020A0104020034B1B781BB1034B36
:103F40001B6803B118477047D0104020A4104020D0
:103F5000034B1B781BB1034B1B6803B11847704719
:103F6000D01040209C104020044B1B781BB1044B08
:103F70001B6803B118470020704700BFD0104020D5
:103F8000A8104020044B1B781BB1044B1B6803B1E5
:103F900018470020704700BFD0104020B8104020C4
:103FA000034B1B781BB1034B1B6803B118477047C9
:103FB000D0104020B0104020034B1B781BB1034BA6
:103FC0001B6803B118477047D0104020AC10402048
:103FD00070B50C4E336893B10B4D04462A681AB184
:103FE0002046BDE870401847FFF78CFF2860FFF7B8
:103FF00089FF336868602046BDE87040184718465E
:1040000070BD00BFD4104020EC104020024B1B6854
:1040100003B11847704700BFD8104020054B10B5BA
:104020001C680CB1A04710BD034805F0D1F920462B
:1040300010BD00BFDC104020602C4100012801D9D8
:104040000020704708B5034B53F82000FFF768FFC6
:10405000012008BDEC104020012801D90020704744
:1040600008B5034B53F82000FFF766FF012008BD99
:10407000EC104020034B1B6803B118474FF0FF3092
:10408000704700BFE010402008B5054B1B680BB11E
:10409000984720B90349044805F0ACF9002008BD51
:1040A000E8104020482C41007C2C41000CB42DE944
:1040B000F041AEB005460F46962134AE08AC56F836
:1040C000042B20463346079605F0B6F9952806DD01
:1040D00042F62E622E23ADF8B220ADF8B430FFF7D1
:1040E000F5FE0646FFF700FF1E4B1F4A4FF47A7C91
:1040F000A3FB00381D4BA2FB002E042D4FEA98387D
:104100004FEA9E1EA3FB0812A3FB0E1318494FEAA9
:1041100052120CFB1E0C4FEA5313A1FB0001C2EB21
:104120000212C3EB0313A8EB8202AEEB83034FEA48
:10413000515114D80F48405DCDF800C0CDE9016061
:10414000CDE903740C4805F055F90C4B1B689868D1
:1041500000F084FC2EB0BDE8F04102B070473F2073
:10416000EAE700BF73B2E745D34D621089888888BB
:10417000B17C2195B02C4100882C4100E001402009
:104180003C22002108B500F0F1FE01224FF4E1319C
:1041900002704160027208BD024B53F82000FFF725
:1041A000FFBE00BF94254020054B10B51868FFF7EF
:1041B000F7FE044B1B6813B1BDE81040184710BD53
:1041C0007C25402078254020034B4FF47A7153F82A
:1041D0002000FFF7D7BE00BF94254020144838B513
:1041E00003680BB107F0B0FD124803680BB1FFF78D
:1041F0000DFF114803680BB1FFF708FF0F4C206853
:1042000018B1FFF7D9FE002323600D4C206818B1C8
:10421000FFF7D2FE002323600A4C04F1140554F882
:10422000043B18460BB1FFF7C7FEAC42F7D138BDCF
:104230007425402090254020882540208C25402052
:104240007C25402094254020044B1B68834200D0ED
:104250007047034B1868FFF7A3BE00BF88254020B6
:104260008C254020054B1B68834200D07047044BCF
:104270004FF47A711868FFF785BE00BF882540208B
:104280008C25402001207047BC4BBD481B682DE9A0
:10429000F04190B0984706F083FEFFF7E1FD002360
:1042A000B8484FF0803103F1C00201333C2B40F895
:1042B0002210F8D1B4490024B448B14DB44EB54FE2
:1042C00007F0C4FC2B78002B40F0E48001340C355F
:1042D000052CF7D1B04E0220B04A00253369B04911
:1042E000FFF7E4FEAF49902006F056FC07F0DCFC37
:1042F0000121432007F008FDAB4BAC4A1D6015605F
:10430000FFF732FEAA4B1860002800F0D480A949BC
:104310000127A94807F04AFBDFF808834FF48063C0
:10432000A64A06A8ADF818700A9309928DF8207075
:10433000CDF81C80FFF74CFEA14B04461860002806
:1043400000F0C58008239F4A0BA8ADF82C508DF8CB
:104350003450CDF83080CDE90E23FFF739FE9A4B6B
:1043600004461860002800F0C38006F0AFFD02ABE1
:1043700052228DF808508DF809508DF80C2093E8E2
:10438000030007F0D1FC914B04461860002800F0B0
:10439000C5808F4A04AB4FF002088DF811708D4F25
:1043A0008DF81080059293E8030007F0BDFC0446E9
:1043B0003860002800F095804FF48042512106F0CB
:1043C00027FA07F001FD4821386806F07DFA07F06A
:1043D0009BFD10A92846042241F83C5D07F036FDFC
:1043E0000446002800F08E80019B40467A4A6C49C2
:1043F000FFF75CFE794B019A9A4204D04046784A16
:104400006749FFF753FE0021084607F065FC0021CD
:104410006A2007F061FC0021622007F05DFC0021AA
:104420001E2007F059FC00216A2007F06DFC0446AD
:1044300000287AD00021622007F066FC044600289C
:104440007AD0002007F050FC044600287BD04220A0
:1044500007F04AFC044600287CD01E2007F044FCEC
:104460000446002800F082801E2007F0DDF807F0E7
:1044700033FD0446002874D0FFF776FD594B1860D1
:1044800030B1594A0221002007F046FC0446D0B959
:10449000564A11E0FFF768FD03460122204646F820
:1044A000243043B1696807F059FD2B7A002B3FF4A3
:1044B0000DAF3C700AE74E4A002039490446FFF729
:1044C000F5FDFFF78BFE204610B0BDE8F081494AAC
:1044D0003349FFF7EBFDFFF781FE204610B0BDE842
:1044E000F081454A2E49FFF7E1FDFFF777FEEAE745
:1044F000424A2B49FFF7DAFDFFF770FE204610B065
:10450000BDE8F0813E4A2649FFF7D0FD72693D4B78
:104510009A423FF478AFFFF761FED4E73A4A204968
:10452000FFF7C4FDFFF75AFECDE7384A1C49FFF7F5
:10453000BDFDFFF753FEC6E7354A1949FFF7B6FD43
:10454000FFF74CFEBFE7334A1549FFF7AFFDFFF712
:1045500045FEB8E7304A1249FFF7A8FDFFF73EFED7
:10456000B1E72E4A0E49FFF7A1FDD4E72C4A0C49CA
:10457000FFF79CFDFFF732FEA5E700BF5801402082
:10458000F410402000E100E099414000C9414000A2
:1045900094254020DC01402090180E40EC2C410076
:1045A000D42C410030114020801040207C1040204D
:1045B0008C25402049424000654240005C0140207B
:1045C000882540209C0140209025402070254020D7
:1045D000A086010074254020782D41003713C0AC1F
:1045E000942D41007C254020A9414000C02E41006F
:1045F000B82C4100082D41005C2D4100242D4100C4
:10460000C02D4100ED1CC0AC402D4100E02D41000B
:10461000002E4100202E4100482E4100A02E4100D6
:10462000742E4100006CDC0238B5164C2378E3B9D7
:104630000121622007F068FB88B101216A2007F0A0
:1046400063FBC8B10320104DFFF71AFC0021286856
:10465000FFF798FC0028F9D10123237038BD0B4ADD
:104660000B49BDE83840FFF721BD0A4A0020084940
:10467000BDE83840FFF71ABD074A0549BDE8384094
:10468000FFF714BD842540207C254020EC2E4100FE
:10469000D42C4100D42E41000C2F410008B5134BFF
:1046A000187878B100226A2011461A7007F02CFBA6
:1046B000A8B10120FFF7E4FB0021622007F024FBF2
:1046C00030B108BD0A4A0B49BDE80840FFF7EEBC0F
:1046D000094A01200749BDE80840FFF7E7BC074A3F
:1046E00001200449FFF7E2FCE3E700BF84254020F6
:1046F000282F4100D42C4100002E4100E02D410024
:1047000070B50A4C0D4616462068FFF787FCFFF788
:1047100095FC324629462068FFF7B6FC2068FFF773
:104720007DFCBDE87040FFF797BC00BF88254020A6
:10473000024B89B21868FFF725BC00BF7C254020DA
:104740000120704700487047001BB74B174A184BB1
:1047500052699A421BD070B50646164803F02CFAEF
:1047600030B9154B1B68DA0700D503BE03F064F9B6
:104770000E4DEFF305842B6901332B6144B10E4BD1
:104780001B68DB0700D503BE03F056F9FEE7704750
:1047900033462046094A0A49FFF788FC2B69204620
:1047A000084A0749FFF782FCE9E700BF90180E406E
:1047B000ED1CC0AC80254020F0ED00E0442F41000E
:1047C000D42C4100502F410000207047002070473A
:1047D0004FF0FF30704700BF4FF0FF30704700BF11
:1047E00008B50248FFF7B2FFFEE700BF702F410097
:1047F000704700BF08B50248FFF7A8FFFEE700BFFB
:10480000802F4100704700BF4FF0FF30704700BF5E
:10481000F8B50C4D14462B78FF2B11D00A4E0F46DD
:104820004FF0FF31306801F0A5F82246394628786C
:1048300007F09CFB002330681A46194600F048FE3A
:104840002046F8BDDC014020A82540200021084674
:10485000FBF736BC08B5FFF7F9FFFEE700B50E48D9
:1048600085B002F045FC012000F0F8FE0B4B18600B
:1048700068B103A80121002340F6AC52CDE9001035
:104880000749084801F048FA01F0CCFBFEE706486A
:10489000FFF75CFFEDE700BF240A4020A825402079
:1048A000A82F410055484000902F4100B1F90C302D
:1048B0009AB22DE9F0410C461107804644D4626853
:1048C00043F40063002AA38159DDA56A002D53D06B
:1048D00000229BB2D8F80060E169C8F8002013F408
:1048E000805240F0838001234046A847421C4AD0B2
:1048F000A389A56AE1695B0705D56268236B801A05
:104900000BB1E36BC01A024600234046A847471C80
:1049100045D0B4F90C302269226023F400630022F0
:10492000A381DB04626000D52065216BC8F80060BC
:1049300011B304F14003994202D0404600F056F909
:1049400000202063BDE8F0812669AEB125682660AD
:1049500092070CBF63690023AD1BA3600AE02B46DE
:104960003246676AE1694046B8470028A5EB000572
:1049700006442BDD002DF2DC0020BDE8F081E26B67
:10498000002AA2DCF8E7D8F80030002BB0D01D2BAD
:1049900001D0162B2CD1C8F800600020EDE7D8F824
:1049A00000101D291AD8154BB4F90C20CB40DB435D
:1049B00013F0010314D1256922F40062C4E9005305
:1049C000D504A281B1D50029AFD1ADE7A38943F0C9
:1049D0004003A3814FF0FF30BDE8F081B4F90C2013
:1049E00042F04002A2814FF0FF30C6E7206D82E71F
:1049F000A38943F04003A381BFE700BF010040202B
:104A000038B50D46044608B1836BA3B1B5F90C0067
:104A1000B8B16B6EDB0701D481051AD52046294653
:104A2000FFF744FF6B6EDA07044602D4AB899B059F
:104A30000AD5204638BD00F051F8B5F90C00002821
:104A4000E7D10446204638BDA86D00F0F3F92046B2
:104A500038BDA86D00F0ECF9E0E700BF20B1054BD0
:104A600001461868FFF7CCBF034B0449186800F0F3
:104A7000B1B900BFE0014020B02F4100014A400021
:104A800010B5002304468181C281C0E900338360F0
:104A90004366C0E904338361194608225C3000F0A4
:104AA00065FA07480749084A084BE362C4E907402A
:104AB000C4E9091204F15800BDE8104000F0B4B98F
:104AC0003D504000615040009D504000BD504000AE
:104AD000014900F07FB900BF1551400010B50446F0
:104AE000124800F0A5F9A26BD2B904F53B73104847
:104AF000C4F8E8320321C4F8E022E063C4F8E41209
:104B000060680421FFF7BCFF01220921A068FFF7BC
:104B1000B7FF02221221E068FFF7B2FF0123A3636F
:104B20000248BDE8104000F085B900BFE81C4320F2
:104B3000D14A4000014800F07BB900BFFC1C432073
:104B4000014800F077B900BFFC1C4320F8B5244FA2
:104B50000C46064600F054FABB685D68C4F57E61F9
:104B60000F3125F00305294421F47F6121F00F0165
:104B7000A1F58054B4F5805F07DB0021304600F0DA
:104B80004BFABB682B44984204D0304600F03EFA02
:104B90000020F8BD6142304600F03EFA01300DD0F1
:104BA000104BBA6819682D1B45F001053046091BEA
:104BB0005560196000F02AFA0120F8BD0021304646
:104BC00000F02AFABA68831A0F2BDEDD064C05497D
:104BD000246843F00103001B53600860D5E700BF61
:104BE00010064020AC254020180A4020002953D050
:104BF000F8B50C46064600F003FA54F804CC714FA1
:104C00002CF00101A4F108056B18B8685A689842A5
:104C100022F0030253D01CF0010F5A6003EB020094
:104C20003BD154F808CC4068A5EB0C0507F1080E01
:104C3000AC687445614400F0010075D0D5F80CC033
:104C4000C4F80CC0CCF8084060B341F001036B60BD
:104C50006950B1F5007F50D34B0A042B70D88B09F3
:104C600003F13904E40003F1380238193B590838DC
:104C7000984278D05A6822F003028A4271D99B6820
:104C80009842F7D1C368C5E902039D60C56030460C
:104C9000BDE8F84000F0BAB97047406800F0010084
:104CA0000028D2D19868484C1144A04241F001023A
:104CB00062D0DB68C36098606A606950C9E71CF025
:104CC000010F0A4407D154F8083CED1A1A44D5E9FB
:104CD0000213CB6099603D4B1B6842F00101934287
:104CE0006960BD6004D83A4B30461968FFF72EFF63
:104CF0003046BDE8F84000F089B9C90878684A1C18
:104D0000012389108B40034307EBC20157F832009F
:104D10007B600839C5E9020147F83250C56030466A
:104D2000BDE8F84000F072B9002845D10A44D3E943
:104D3000021342F00100CB6099606860AA50D7E787
:104D4000142B08D9542B1ED80B0B03F16F04E4006D
:104D500003F16E0289E703F15C04E40003F15B02F6
:104D600083E718468EE793107968012202FA03F36D
:104D70000B437B60034686E7C7E90455C5E902009B
:104D80006A606950B4E7B3F5AA7F06D8CB0B03F18C
:104D90007804E40003F1770267E740F2545293424B
:104DA00006D88B0C03F17D04E40003F17C025CE780
:104DB0004FF47E747E2258E741F001026A60196068
:104DC00096E700BF10064020180640201C0A40202D
:104DD000D42540202DE9F84310F538771FD08846B8
:104DE00006464FF00009D7E90154013D11D4A389CB
:104DF000012B05F1FF352146304606D9B4F90E30B6
:104E0000013302D0C04749EA00096B1C04F1680471
:104E1000EDD13F68002FE6D14846BDE8F883B9469A
:104E20004846BDE8F88300BF704700BF704700BF29
:104E3000704700BF704700BF844641EA000313F08B
:104E400003036DD1403A41D351F8043B40F8043B91
:104E500051F8043B40F8043B51F8043B40F8043B54
:104E600051F8043B40F8043B51F8043B40F8043B44
:104E700051F8043B40F8043B51F8043B40F8043B34
:104E800051F8043B40F8043B51F8043B40F8043B24
:104E900051F8043B40F8043B51F8043B40F8043B14
:104EA00051F8043B40F8043B51F8043B40F8043B04
:104EB00051F8043B40F8043B51F8043B40F8043BF4
:104EC00051F8043B40F8043B403ABDD2303211D394
:104ED00051F8043B40F8043B51F8043B40F8043BD4
:104EE00051F8043B40F8043B51F8043B40F8043BC4
:104EF000103AEDD20C3205D351F8043B40F8043B94
:104F0000043AF9D2043208D0D2071CBF11F8013B91
:104F100000F8013B01D30B8803806046704700BF57
:104F2000082A13D38B078DD010F003038AD0C3F166
:104F30000403D21ADB071CBF11F8013B00F8013B48
:104F400080D331F8023B20F8023B7BE7043AD9D307
:104F5000013A11F8013B00F8013BF9D20B780370DC
:104F60004B7843708B78837060467047F0B4860747
:104F700043D0541E002A3ED0CAB2034602E014F1C8
:104F8000FF3438D303F8012B9D07F8D1032C2BD91C
:104F9000CDB245EA05250F2C45EA054516D9A4F101
:104FA00010073F0903F1200606EB071603F1100274
:104FB00042E9045542E902551032B242F8D104F0F8
:104FC0000F040137032C03EB07130DD91E462246AD
:104FD000043A032A46F8045BFAD8221F22F003029F
:104FE0000432134404F003042CB1C9B21C4403F886
:104FF000011B9C42FBD1F0BC704714460346C5E739
:105000000148FFF715BF00BFEC1C43200148FFF724
:1050100011BF00BFEC1C432038B5074C00230546E8
:1050200008462360FFF7D8FB431C00D038BD236837
:10503000002BFBD02B6038BD001D432010B50C4663
:10504000B1F90E1000F0E4F8002803DB236D0344EF
:10505000236510BDA38923F48053A38110BD00BF35
:105060002DE9F0411646B1F90C201F46D3050C4638
:105070000546B1F90E1007D50022022300F0B2F860
:10508000B4F90C20B4F90E1022F48052A2813B46F0
:1050900032462846BDE8F04100F014B810B50C4681
:1050A000B1F90E1000F09EF8A389421C0EBF23F444
:1050B000805343F480532065A38110BDB1F90E10D5
:1050C00000F016B870B50D46084C114606461A4653
:1050D000284600232360FFF79BFB431C00D070BDD4
:1050E0002368002BFBD0336070BD00BF001D432040
:1050F00038B5074C0023054608462360FFF764FBDC
:10510000431C00D038BD2368002BFBD02B6038BD7A
:10511000001D432070B5002948D005460C4610B14B
:10512000836B002B48D0626EB4F90C30D00740D4AA
:10513000990530D521462846FFF7B8FBE36A0646B5
:1051400033B1E169284698470028B8BF4FF0FF36D1
:10515000A3891A063CD4216B41B104F14003994262
:1051600002D02846FFF742FD00232363616C21B182
:105170002846FFF73BFD00236364FFF7DBFC636E0B
:105180000022DB07A2811FD5A06DFFF74FFEFFF7BE
:10519000D7FC304670BDA06DFFF74AFEB4F90C3065
:1051A000002BC7D1666E16F0010616D000263046D9
:1051B00070BD002BFAD0BDE7FFF790FC626EB4F92A
:1051C0000C30D007F5D4B3E7A06DFFF733FEDBE773
:1051D00021692846FFF70AFDBDE7A06DFFF72AFE0B
:1051E000304670BD70B50D46084C114606461A464D
:1051F000284600232360FFF7E9FA431C00D070BD66
:105200002368002BFBD0336070BD00BF001D43201E
:1052100070B50D46084C114606461A46284600232E
:105220002360FFF7D5FA431C00D070BD2368002B24
:10523000FBD0336070BD00BF001D432070B5164623
:10524000026C0446856B2AB90668013566B30020F6
:10525000A56370BD7EB940680135FFF7EDFD636859
:10526000216CA2680B4493426360F0D323683046FC
:10527000A563636070BDC068FFF7DEFD226CE36864
:105280005242216813448B42E36002D2A3681A445D
:10529000E260022E03D001350020A56370BD002D11
:1052A000D5D101250020D3E7806801F06BFAA66014
:1052B000CEE700BF70B5846C82B00E4601900CB38F
:1052C000A06BE36B984218D2A06B984203D30026E0
:1052D000304602B070BD94F84550324601A92046D0
:1052E0006DB2FFF7ABFF06466B1C0FD001353046A1
:1052F0006DB284F8455002B070BD0A48FFF726FA37
:10530000E36BE1E70748FFF721FAD9E7636A002B6F
:10531000DED004F1240001F0EBF8002818BF0126CC
:10532000D6E700BFB42F4100026C72B10B4610B437
:10533000D0E902411144A142C16001D30168C160BA
:1053400018465DF8044BFFF777BD704770B505460A
:1053500001F038FB95F8454064B2002C1CDD05F1E6
:10536000240606E0FFF7A6FF78B9013CE3B25CB281
:1053700093B1AB6C00212846002BF3D16B6A304609
:1053800053B101F0B5F80028EFD0013C01F05AF913
:10539000E3B25CB2002BECD1FF2385F8453001F07D
:1053A00031FB01F00FFB95F8444064B2002C16DD90
:1053B0002B69A3B105F1100605E0013CE3B25CB234
:1053C0006BB12B695BB1304601F092F80028F4D044
:1053D000013C01F037F9E3B25CB2002BF1D1FF23BD
:1053E00085F84430BDE8704001F00CBB38B50D467F
:1053F0000446002838D001F0E5FA226800216260F6
:10540000A163FF21D4E90F3084F8441003FB00F3BB
:1054100084F84510181A13440244A360E260BDB931
:1054200023691BB901F0EEFA012038BD04F1100028
:1054300001F05EF80028F5D00D4B4FF080521A6055
:10544000BFF34F8FBFF36F8F01F0DCFA012038BD3F
:1054500004F1100001F0C2FE04F1240001F0BEFED0
:1054600001F0D0FA012038BD0248FFF76FF9C2E71A
:1054700004ED00E0B42F4100F8B50E46174605468E
:10548000E8B156B106FB05F0543001F08DFD04463D
:10549000C8B100F15403036005E0542001F084FD1D
:1054A000044680B12460E563012126642046FFF7AD
:1054B0009DFF002384F850702046A364F8BD034884
:1054C000FFF744F9DDE700242046F8BDB42F410082
:1054D0002DE9F04784B08946984604460192002899
:1054E00000F09580B9F1000F7BD0B8F1020F71D0B8
:1054F00001F0E0F818B9019B002B40F08C80A8F176
:1055000002060025DFF850A1B6FA86F62F46760986
:1055100027E001F077FA00F0C7FD01F053FA94F8A4
:105520004430FF2B01D184F8447094F84530FF2BB0
:1055300001D184F8457001F065FA01A902A801F0D3
:105540003BF800285AD101F03DFAA26BE36B9A4276
:1055500017D001F057FA2046FFF7F8FE00F074FE6E
:10556000012501F02FFAA26BE36B9A4220D3FEB91A
:10557000019B002B3CD0002DCBD102A801F010F8EC
:10558000C7E701F03FFA019904F1100000F07AFF3B
:105590002046FFF7DBFE00F057FE0028E0D14FF079
:1055A0008053CAF80030BFF34F8FBFF36F8FD7E738
:1055B000494642462046A56BFFF740FEA36C73B3F5
:1055C000002D39D0002E37D001F01CFA012004B094
:1055D000BDE8F087E36B012B8AD01E48FFF7B6F8D1
:1055E00086E7236C002B80D01A48FFF7AFF87CE7E2
:1055F00001F008FA304604B0BDE8F0872046FFF716
:10560000A5FE00F021FE002004B0BDE8F08711489F
:10561000FFF79CF866E70F48FFF798F86FE7636AB3
:105620008BB90028D0D00C4B4FF080521A60BFF3DA
:105630004F8FBFF36F8FC7E741462046FFF73AFE13
:105640000028F0D1C0E704F1240000F051FF002849
:10565000E9D1B9E7B42F410004ED00E010B50246EE
:1056600000210120FFF708FF044638B100238360C2
:105670001A4603601946C360FFF72AFF204610BD93
:105680002DE9F843894690461F46044600284FD02E
:10569000B9F1000F37D0022F2ED001F05FFAEFF3EF
:1056A00011864FF0800372B683F31188BFF36F8FBA
:1056B000BFF34F8F62B6A26BE36B9A4209D3A7F197
:1056C0000200B0FA80F0400918B986F31188BDE8ED
:1056D000F88394F8455049463A4620466DB2FFF7A4
:1056E000ADFD6B1C16D0013501206DB284F845501C
:1056F00086F31188BDE8F883E36B012BCDD0174802
:10570000FFF724F8C9E7236C002BC4D01348FFF738
:105710001DF8C0E7A36C7BB139462046FFF7CAFDF0
:1057200060B1B8F1000F09D00120C8F80000CCE743
:105730000A48FFF70BF8ABE7636A23B9012086F349
:105740001188BDE8F88304F1240000F0D1FEB8F11F
:10575000000FF3D00028E7D1F0E700BFB42F4100DD
:1057600070B50E460446002846D0236C33BB236830
:1057700053B301F0F3F9EFF311854FF0800372B6E4
:1057800083F31188BFF36F8FBFF34F8F62B6A26BA5
:10579000E36B93420ED994F8453001325BB2A263B9
:1057A0005A1C18D0013301205BB284F8453085F3D0
:1057B000118870BD002085F3118870BD1548FEF773
:1057C000C5FF2368002BD4D1A368002BD1D011488A
:1057D000FEF7BCFFCDE7A36C43B120460021FFF7E5
:1057E00069FD2EB120B101203060E0E7636A3BB96A
:1057F000012085F3118870BD0648FEF7A7FFB4E7C6
:1058000004F1240000F074FE0028F1D0002EEAD14B
:10581000EEE700BFB42F41002DE9F04385B0894683
:1058200004460192002800F08A80B9F1000F7ED072
:1058300000F040FF18B9019B002B40F0848001F07C
:10584000C1F8A56B002D48D1019B002B69D002A89F
:105850002E4604F12407DFF8188100F0A1FE12E0C3
:1058600001F0B0F8A36B002B45D001F0CBF8204637
:10587000FFF76CFD00F0E8FC01F0A4F8A56B65BB38
:10588000019B002B4DD001F0BDF800F00DFC01F0A4
:1058900099F894F84430FF2B01D184F8446094F8CF
:1058A0004530FF2B01D184F8456001F0ABF801A928
:1058B00002A800F081FE0028D2D02046FFF746FD66
:1058C00000F0C2FC01F07EF8A36B53B301F09AF82C
:1058D00001F078F8A56B002DD2D0013D4946204655
:1058E000FFF722FDA56323698BBB01F08BF8012034
:1058F00005B0BDE8F08301F085F80199384600F065
:10590000C1FD2046FFF722FD00F09EFC0028B3D128
:105910004FF08053C8F80030BFF34F8FBFF36F8F45
:10592000AAE701F06FF8002005B0BDE8F083236C12
:10593000002B3FF47DAF0D48FEF708FF78E70B48DA
:10594000FEF704FF71E70948FEF700FF77E704F16F
:10595000100000F0CDFD0028C7D0054B4FF080525D
:105960001A60BFF34F8FBFF36F8FBEE7B42F4100B4
:1059700004ED00E02DE9F04184B0044601910028D7
:1059800000F0AA80236C002B40F0828000F092FE91
:1059900018B9019B002B40F088800027DFF86C814C
:1059A0003D463E460CE001F00DF8A36B002B3BD0CA
:1059B00001F028F82046FFF7C9FC00F045FC01255E
:1059C00001F000F8A36B002B48D1019B002B54D0B1
:1059D00035B301F017F800F067FB00F0F3FF94F81F
:1059E0004430FF2B01D184F8446094F84530FF2BFC
:1059F00001D184F8456001F005F801A902A800F082
:105A0000DBFD0028CFD02046FFF7A0FC00F01CFCF7
:105A100000F0D8FFA36B002B4BD000F0F3FFCEE7D4
:105A200002A800F0BDFDD4E700F0ECFF2368002BD6
:105A300032D0019904F1240000F024FD2046FFF744
:105A400085FC00F001FC0028B9D14FF08053C8F864
:105A50000030BFF34F8FBFF36F8FB0E7013B226879
:105A6000A363002A4BD02369002B39D1012700F012
:105A7000C9FF384604B0BDE8F08117B12248FEF7EF
:105A800065FE002700F0BEFF384604B0BDE8F08197
:105A90001D48FEF75BFE79E700F094FFA06800F078
:105AA00019FE074600F0AEFFC3E71748FEF74EFEAB
:105AB00073E700F0A7FF002FDBD000F083FF616ADF
:105AC00019B1236B1968C1F10501A068002700F026
:105AD000ABFE00F097FFCCE70B48FEF737FE51E72F
