:020000040040BA
:10000000A02943204100400051A4400045A44000E5
:1000100039A440002DA4400021A4400000000000AD
:10002000000000000000000000000000619240009D
:1000300015A4400000000000F1924000F5DC4000F3
:10004000194AD2F8883043F4700310B5C2F88830EA
:10005000BFF34F8FBFF36F8F144A154882420BD204
:10006000D34311460024034423F003030433134411
:1000700041F8044B9942FBD10E4A0F4882420CD200
:10008000D3430E490344081D23F00303034451F8EE
:10009000040B994242F8040BF9D10EF0DDFB0AF093
:1000A00007FA06F0E3FAFEE700ED00E0001040205A
:1000B000441B432000004020B00E4020A86A4100AD
:1000C000F0B52DED048B87B005F06EFC20B9012052
:1000D00007B0BDEC048BF0BD03F06AFE01464A4850
:1000E0000BF0E8FD05F06AFC00F08CFD002856D00E
:1000F00000F036F904460190002869D0434900F029
:10010000CDFA4FF08041204600F0B2FA4049204637
:1001100000F082FA3F49204600F094FA204601217F
:1001200000F0D2FA019800F093F90290002856D01E
:1001300001A800F06BF9029800F0F2F9002858D0FD
:10014000C824354E354F9FED369A15E00BF0A0FDD3
:1001500028EE897A334868EE097ABDEEC77AFDEE5B
:10016000E77A17EE101A17EE902A0BF0A3FD642021
:1001700005F07CFE013C1AD003A9029800F012FAA7
:10018000054688B19DF80C303046DDED048A9DEDC2
:10019000058A002BDAD038460BF07AFDD8E72248E2
:1001A0000BF076FD012093E720480BF071FD06AEC1
:1001B00056F8100D00F0D0F90446304600F08CF9E6
:1001C00000F05CFD04EA050080F00100C0B27FE7AA
:1001D00017480BF05DFD00F051FD012078E7154850
:1001E0000BF056FD01A800F011F900F047FD0120C9
:1001F0006EE711480BF04CFD02A800F06DF900F01D
:100200003DFD012064E700BF940C41000000204147
:10021000CDCC4C3E3333B33F540D41004C0D410027
:1002200000007A44600D4100B40C4100240D4100EF
:10023000CC0C4100EC0C4100080D41002DE9F043CD
:1002400087B0044640680E466A4601F04DFA0546FE
:1002500040B9254B254A5B6B25499847284607B08E
:10026000BDE8F0839DF80030E76853B3DFF878808D
:100270000020204AD8F834301D4998479DF80130B5
:100280000BB90025EAE703F033FD0028F9D04FF061
:1002900000094D46D8F834300120174A14499847D0
:1002A000B9F1000FDAD001A9606801F0FBF9BDF8DF
:1002B0000C10306822694900B847284607B0BDE8ED
:1002C000F08317F100099DF8018018BF4FF0010974
:1002D000B8F1000FE4D003F00BFD45460028DFD055
:1002E000DFF80480D6E700BFA41A4320680E41005F
:1002F000440E4100300E4100580E4100F0B50E464C
:1003000087B007465068154600F06CFF306040B972
:100310000F4B04460F4A5B6B0F499847204607B0C6
:10032000F0BD002301AC01A9343505930B4ECDE996
:100330000133CDE9033301F0B5F90FCCD4F800C097
:1003400001240FC52046C5F800C03E6007B0F0BDCF
:10035000A41A4320800E4100440E41002343C5AC43
:1003600070B558221F49502003F06CFC0446002849
:1003700031D01D4B10261D4D036001F0EDF8032117
:10038000606000F0ADFE1021606801F07DF96068EA
:1003900000F084FD16494FF07C534FF07F52154812
:1003A000E1604FF07E51226100226361E36200232D
:1003B000A061A16210481149206220462681E561B2
:1003C000616284F83020A287A3636363636423645B
:1003D000C4E9122270BD0A4B0A4A5B6B0A4998476E
:1003E000204670BD840D4100D92AC1ACCDCC4C3E15
:1003F000000020410000A0419A99193E9A99193FA6
:10040000A41A43209C0D4100440E410038B10368FA
:1004100033B90B4B00200B4A5B6B0B4918477047F5
:100420000A4A19689142F4D110B50446181D01F02A
:1004300019F9206803F04AFC0023236010BD00BFB7
:10044000A41A4320BC0D4100440E4100D92AC1AC7E
:10045000F8B5054608B39F221A49142003F0F2FBB1
:10046000044698B1071D2A463946FFF747FF034661
:10047000D8B105F1080000F0A1FA0646A060C8B1A5
:10048000D5E91223C4E903232046F8BD0E4B0F4AD9
:100490005B6B0F4998472046F8BD0B4B04460D4A4D
:1004A0005B6B0B4998472046F8BD20461C4603F07D
:1004B0000DFCE9E7384600F031FF204603F006FC6A
:1004C0003446E1E7840D4100A41A4320EC0D4100BD
:1004D000440E4100D40D410003682BB90C4B0020A1
:1004E0000C4A5B6B0C4918470C4A19689142F5D1CC
:1004F00010B5044603F1080000F08AFA20680430C1
:1005000000F00CFF206803F0E1FB0023236010BD26
:10051000A41A4320200E4100440E41002343C5ACE1
:1005200008B538B9084B0020084A5B6B0849984762
:10053000002008BD074B02689A42F3D14068BDE82D
:10054000084000F0FBBB00BFA41A4320200E41006E
:10055000440E41002343C5AC10B540B90C4B0020FC
:100560000C4A5B6B04460C499847204610BD0B4B68
:1005700002689A42F2D1406800F032FC044600283A
:10058000F3D1034B064A5B6B03499847EDE700BF85
:10059000A41A4320200E4100440E41002343C5AC61
:1005A000040E410070B586B048B9174B0020174AB9
:1005B0005B6B044616499847204606B070BD154B44
:1005C000054602689A42F0D1002300220E46694691
:1005D0008DF804300593ADF8103002920392FFF7C6
:1005E0002DFE04460028E7D0A86801AA009900F073
:1005F0002FFA002EE0D09DF80410029A039B317070
:100600007260B360D8E700BFA41A4320200E4100F7
:10061000440E41002343C5AC28B9064B0020064ACE
:100620005B6B06491847064B02689A42F5D1406851
:1006300000F020BCA41A4320BC0D4100440E410030
:10064000D92AC1AC28B9064B0020064A5B6B064983
:100650001847064B02689A42F5D1406800F014BC76
:10066000A41A4320BC0D4100440E4100D92AC1AC5C
:1006700028B9064B0020064A5B6B06491847064B13
:1006800002689A42F5D10161704700BFA41A432065
:10069000BC0D4100440E4100D92AC1AC28B9064B1B
:1006A0000020064A5B6B06491847064B02689A42CF
:1006B000F5D1C160704700BFA41A4320BC0D4100B2
:1006C000440E4100D92AC1AC28B9064B0020064A85
:1006D0005B6B06491847064B02689A42F5D14068A1
:1006E00000F0E4BBA41A4320BC0D4100440E4100BD
:1006F000D92AC1AC90F8403010B5044613B1406D12
:1007000003F0E4FA206D03F0E1FAA06D03F0DEFAE5
:10071000E06DBDE8104003F0D9BA00BFC0EE200A7A
:10072000DFED127AF4EEE70AF1EE10FA02DD9FED4A
:10073000100A7047DFED0F7A60EEA77A08B517EE62
:10074000900A02F047FD07EE900AB7EE000A27EE86
:10075000A76A37EEA77A36EE006AF1EEC66A76EE41
:10076000E77A67EE277A30EE670A08BDA800003FF7
:1007700000000000DB0F494038B5002290F84030FF
:1007800004464265406883B180004FF48D722E4963
:1007900003F058FA0546606530B92C4B2C4A5B6B68
:1007A0002C499847284638BD606800EB800040F22D
:1007B00023122549800003F045FA636820654FF451
:1007C00092729800204903F03DFA6368A06540F2F8
:1007D000251298001C4903F035FA226DE065FAB93C
:1007E0001A4B00201C4A5B6B1A499847206D18B1C0
:1007F00003F06CFA00232365A06D18B103F066FACC
:100800000023A365E06D18B103F060FA0023E365EF
:10081000606D0028C7D003F059FA0020606538BD2C
:10082000A36D002BDCD0B0FA80F35B09002BD7D18D
:1008300000211046A4F84C306164A164A18802F044
:1008400009FD012038BD00BF500F4100A41A43200C
:10085000740F4100980F4100B80F4100F8B50B88A4
:1008600005460C46B1F834C0534801F12C0705F198
:100870002C062DED028B2B72D4ED097AC969A26882
:10088000F5EEC07A2860A962EA60F1EE10FA94F8F9
:1008900028E094ED018ABCFBF3FC0FCF3F680FC644
:1008A0003760C5F804C085F840E07CD967EE887AE7
:1008B000BFEE007AC7EE277A17EE900A06F02AFC00
:1008C000B5EEC08A6862F1EE10FA68D994ED040AB8
:1008D000B5EEC00AF1EE10FA61D4D4ED057AF5EE6A
:1008E000C07AF1EE10FA5AD4D4ED037AF5EEC07A5C
:1008F000F1EE10FA53D4D4ED067AF5EEC07AF1EEAB
:1009000010FA4CD4D4ED087AF5EEC07AF1EE10FA74
:1009100045D4F0EE480AFFF701FFF0EE480A85EDF6
:10092000040A94ED050AFFF7F9FED4ED037A85ED8C
:10093000050AF5EEC07AF1EE10FA36D968EE277A9C
:10094000BFEE007AC7EE277A17EE900A06F0E2FBB8
:10095000D4ED067AA861F5EEC07AF1EE10FA28D946
:1009600068EE277ABFEE007AC7EE277A17EE900A74
:1009700006F0D0FBD4ED087AE861F5EEC07AF1EE2E
:1009800010FA14D928EE278AFFEE007AC7EE887A8B
:1009900017EE900A06F0BEFB2862012000E000205E
:1009A000BDEC028BF8BD00208AE70020D0E70020D4
:1009B000F2E70020DEE700BFD12AC1AC38B55822EB
:1009C00005460F49602003F03DF9044658B1294619
:1009D000FFF744FF034620466BB1FFF7CDFE034609
:1009E00040B1204638BD074B074A5B6B0749984723
:1009F000204638BD20461C4603F068F9F1E700BFE9
:100A0000500F4100A41A4320A00E4100980F41004E
:100A100003682BB90A4B00200A4A5B6B0A49184746
:100A20000A4A19689142F5D110B504461846FFF7F5
:100A300061FE206803F04AF90023236010BD00BF67
:100A4000A41A4320C00E4100980F4100D12AC1AC26
:100A50002DE9F0431646B0F84C20044690ED045AB8
:100A600001328388D4ED055A07EE102A94ED066A08
:100A7000D4ED076AB8EEC77AD4ED094A2DED028BA2
:100A8000B7EE008A89B0027A03AD006DC8EE077A2E
:100A900094ED087A009578EE677A85FE675AC5FE70
:100AA000E75A86FE676AC6FEE76A87FE677A8DEDBB
:100AB000035ACDED045AC4FEE78A8DED056ACDEDEB
:100AC000066A8DED077A02F0CBFB48B9484B494ADC
:100AD0005B6B4949984709B0BDEC028BBDE8F083D8
:100AE000D4E91632A188206D02F090FC28B9404B61
:100AF000424A5B6B40499847EDE7656894F840705F
:100B0000002D70D00022D4F85880D4F85CE09446D0
:100B10001346DFED3B6A9B0094ED0A7A511C08EB0B
:100B200003090EEB030078EE477AD9ED005A90EDF9
:100B3000006A67EEA57A27EE067A77EE877AF4EEFA
:100B4000E67AF1EE10FA02DDF0EE676A94468AB2B8
:100B50001FB1616D0B44C3ED007AAA421346DAD38C
:100B600094ED037AB4EEE67AF1EE10FA0DD807EEC2
:100B700090CAD4ED0F5A94ED0B6AF8EE677A67EEDF
:100B8000A57A77EE867AC4ED127AF7EE004AD4EDB4
:100B9000117A68EEA77A74EEE84A64EEA66A77EEF8
:100BA000A67AB4EEE77AC4ED117AC6ED017AF1EED9
:100BB00010FA94BF01230023337017B1636DB58120
:100BC0003361B4EEE77AF1EE10FA01D8A36CB360AA
:100BD000B4F84C304FF6FF7293423FF47CAF0133D0
:100BE000A4F84C3077E7AC46DFED056AB8E700BF04
:100BF000A41A4320DC0E4100980F4100140F41005D
:100C00000000000010B5174C23788BB940B102F0FA
:100C100095FF28B100F0D8FA10B101F019FD98B98C
:100C2000114B0020114A5B6B11499847207810BD89
:100C300003F05EF80128F9D90B4B02200D4A5B6BDB
:100C40000B499847207810BD0123237003F050F81A
:100C50000128EBD9044B0220074A5B6B04499847F3
:100C6000E4E700BF00104020A41A4320F40F410025
:100C7000F00F41000C104100D00F410010B50B4C9B
:100C8000237803B910BD00F075FB01F019FD03F0E6
:100C90002FF8012805D9064B0220064A5B6B06494E
:100CA000984702F085FF0023237010BD00104020FC
:100CB000A41A432034104100F00F4100024B0120E0
:100CC000024A5B6B02491847A41A4320BC0D41003D
:100CD0001411410008B10069704710B5044603F0D3
:100CE00007F830B1034B0120034A5B6B0349984777
:100CF000204610BDA41A4320BC0D41001411410030
:100D000070B50D460446FFF7E5FF58B12946064683
:100D100002F0C0FD3DB9A36823B161792046BDE86A
:100D20007040184770BD30460F2102F0B1FC3046CC
:100D30000121BDE8704002F0CDBC00BFF8B560B93C
:100D4000204C0020204A636B204998470020636BA9
:100D50001F4A1E4998470020F8BD1E4B04460268F2
:100D60009A42EDD11C4B1878B8B1637B002BF3D0BD
:100D7000A368202B11D8194D15F813206AB905EB7B
:100D800043020127567805F8137046B100220D4C36
:100D900005F81320DAE7202BF8D90A4CD6E704F13E
:100DA0001C0001F0D5FDA3680028F4D0202B06D844
:100DB00005EB4302667305F813605770F8BD667360
:100DC000F8BD00BFA41A4320200E410014114100B9
:100DD00058104100E89EC0AC011040200410402093
:100DE0002DE9F04170B91C4C00201C4A636B1C4972
:100DF00098470020636B1B4A1949054698472846C7
:100E0000BDE8F081184B044602689A42EBD1174BBB
:100E10001D78DDB1437B002BF1D18368202B15D8E1
:100E2000134E16F813708FB94FF001081C3006F8F6
:100E3000138001F0C5FDA368202B09D806EB4302FF
:100E400084F80D8006F813705770D8E7024CD0E78D
:100E500084F80D80D3E700BFA41A4320200E410080
:100E6000141141008C104100E89EC0AC01104020DC
:100E70000410402010B50C46FFF72CFF2146BDE8BA
:100E8000104002F051BB00BF10B50C46FFF722FF27
:100E90002146BDE8104002F059BB00BF08B5FFF77E
:100EA00019FFBDE8084002F059BB00BF10B50C4661
:100EB000FFF710FF2146BDE8104002F05FBB00BF06
:100EC00043693BB1DA6810B50446184690470023E1
:100ED000636110BD704700BF2DE9F0410E4682B03E
:100EE0000546002832D1324B0020324A5B6B324932
:100EF00098470023B47E64B17268B2B92C4B0020CD
:100F00002E4A5B6B04462C499847204602B0BDE848
:100F1000F081B26862B9264B2046294A5B6B2649AC
:100F20009847204602B0BDE8F081F268002AE5D07B
:100F3000BBB12B7B3278934218D01D490020009220
:100F4000204A04464D6B1C49A847DEE71E4B026849
:100F50009A42C8D10123CDE72846FFF7EFFE80462D
:100F600048B90024204602B0BDE8F08196F8188008
:100F7000B8F1000FF0D16F7B87B10D4B0024134AFD
:100F800020465B6B0C499847B8F1000FBDD028464E
:100F9000FFF726FF204602B0BDE8F0816B69AE6125
:100FA000D3E900029047747EAF6184F00104EBE75F
:100FB000A41A4320200E410014114100A810410042
:100FC000C8104100E0104100E89EC0ACFC10410098
:100FD00070B59DF810501E46846945B9A07E78B161
:100FE000E36860689A4228BF1A4605F02DFE206922
:100FF000657658B162693146BDE8704005F024BE9F
:10100000A2681160206965760028F3D170BD00BF29
:10101000014B1870704700BF0110402008B538B967
:10102000064B0020064A5B6B06499847002008BD26
:101030000268054B9A42F3D1012008BDA41A43204F
:10104000200E410014114100E89EC0AC08B538B92B
:10105000094B0020094A5B6B09499847002008BDED
:10106000084B02689A42F3D1038B002BF0D04369FE
:10107000002BEDD0012008BDA41A4320BC0D410077
:1010800014114100D79DC0AC08B538B90F4B0020F2
:101090000F4A5B6B0F499847002008BD0E4B026852
:1010A0009A42F3D1038B002BF0D04369002BEDD093
:1010B0004379013B042B07D9044B0020074A5B6BA3
:1010C00004499847002008BD012008BDA41A432008
:1010D000BC0D410014114100D79DC0AC74104100FB
:1010E00010B568B18368044653B161719847237B9A
:1010F00003B910BD20460121BDE81040FFF700BE36
:1011000002F0F6FD0028F4D0BDE81040FFF7D6BD90
:1011100008B528B103461973BDE80840FFF7F0BDD4
:1011200002F0E6FD18B1BDE80840FFF7C7BD08BDF5
:1011300070B5059D04460261084EBDF8102001718E
:1011400006609DF81810856043610283FFF7C8FFB1
:1011500020460021BDE87040FFF7DABFD79DC0AC44
:1011600030B583B0044602F0C3FD032808D9114905
:101170000420A2684D6B63680F4900920F4AA8478C
:10118000606800230E4951F8042B12B15268904256
:1011900004D00133042BF6D103B030BD094A00213D
:1011A000204602EB8303596003B0BDE8304002F0F3
:1011B0008DBD00BFA41A43204812410020124100F7
:1011C000040040200000402010B5054C207800B1FC
:1011D00010BD012318462370FFF71AFF207810BDB9
:1011E000000040202DE9F043414D83B02B7853B9E6
:1011F000404918461C46404A4B6B40499847204698
:1012000003B0BDE8F0830746FFF720FF002858D061
:101210003B69D3F80C80B8F1200F33D86B7853B901
:101220002B1D05F1140153F8042B12B1926890455F
:101230004CD09942F7D1D5F814903C8B09F10103B9
:101240006B6102F055FD032808D92A4A4B46CDF8B8
:1012500000800420566B2949294AB047294B0026B3
:1012600053F8042B92B10136042EF9D121493346AB
:10127000254A00204D6B21490446A847204603B06B
:10128000BDE8F0831B492023204AF2E72146D423FE
:101290001F4A012002F0FCFC044690B11D4B05EBF7
:1012A0008605C4F8049039462360C4F808807B6939
:1012B0006C60984790B101232046637303B0BDE88A
:1012C000F0830024204603B0BDE8F083094B0020E2
:1012D000114A5B6B04460949984790E723690BB1B3
:1012E0002046984720460024FFF73AFF87E700BFD3
:1012F00000004020A41A43205C1141004812410024
:101300003811410004004020981141001C11410097
:10131000BC114100E89EC0AC70114100114B1B781C
:1013200010B533B1044618B10068FFF777FE60B915
:1013300010BD02F0DDFC0028FAD00B4B01200B4A57
:101340005B6B0B49BDE8104018472068FFF748FD6C
:10135000206803690BB198472068FFF701FF00235D
:10136000236010BD00004020A41A43205C114100FE
:101370004812410038B51B4C2578002D30D06368E9
:101380000BB3201DFFF7CAFFA36803B31648FFF78E
:10139000C5FFE36813B11548FFF7C0FF236913B118
:1013A0001348FFF7BBFF02F0A3FC28B1114B01204B
:1013B000114A5B6B11499847002318462370BDE81A
:1013C0003840FFF725BE1D46A368002BDED1E36839
:1013D000002BE0D12369002BE2D1002DECD0E2E715
:1013E00038BD00BF00004020080040200C00402015
:1013F00010004020A41A4320D4114100481241009B
:1014000030B50C4685B001461046657903AB2269BC
:101410008DF80C5000952579A4798DF80D508DF834
:101420000E40FFF7D5FD05B030BD00BF70B5A2B0CE
:10143000054684220E4601A805F006FC01A8FFF728
:1014400023FE10B9002022B070BD08A802F004FBF2
:101450000028F7D0BDF8804044B9164B2046164A04
:101460005B6B16499847204622B070BD9DF88230CC
:10147000012B14D0337922A9114808AA2B732B46CB
:1014800041F8880D05F11C0002F0C4FC0346003051
:101490000C4A18BF0120C5E9042322B070BDBDF875
:1014A0007A30402BE6D9034B0020074A5B6B034997
:1014B0009847C7E7A41A432070124100A0124100C8
:1014C00001144000C10E4000B012410020B1037968
:1014D000032B0ED00020704710B5044602F008FC24
:1014E00040B1054B0120054A5B6B054998472046F2
:1014F00010BD7047002010BDA41A4320BC0D410050
:10150000A012410010B50C46FFF7E0FF48B1611E84
:1015100000F11C04042904D8DFE801F00E181A1C9D
:10152000040010BD1021204602F0C2F8204605211B
:10153000BDE8104002F0ACB80021204602F0B8F837
:1015400020460021BDE8104002F0A2B80721F4E7D0
:101550000921F2E70C21E6E770B55D2384B03B4A30
:101560008421012002F094FB054600286AD000F196
:101570001C0402263649502322460093354BCDE900
:1015800001160321FFF7D4FD2046334901F0CCFFBB
:101590002046324901F0DAFF2046062102F0E6F843
:1015A0000121204601F0AEFF204601F0D7FF314671
:1015B000204601F0E3FF2046002102F0B1F820466A
:1015C000102102F0F3F82046002102F001F9204634
:1015D000002102F09BF82046002101F0DFFF2046A9
:1015E000002101F0EDFF2046FF2102F0B5F8204672
:1015F000002102F0A7F80023204619461A4602F0FF
:10160000C5F82046012102F0FDF82046012102F034
:1016100073F820460B2102F02BF820460A2101F036
:10162000E1FF2046002102F0FFF82046012102F0F0
:1016300015F920464FF4805102F022F9204608495E
:1016400001F0D8FF284604B070BD00BF5812410019
:10165000051540002D144000CDCC4C3E9A99993E82
:101660000923400070B110B504460068FFF7EEFC96
:1016700000B910BD2068FFF729FF02F027FB002307
:10168000236010BD704700BF38B50D460446FFF714
:10169000DDFC00B938BD29462069BDE8384002F0BC
:1016A00085B800BFE8B1037B032B1AD1C9B14369E8
:1016B000B6EE007ADFED0B6A1B68D3ED087A986905
:1016C00067EEA67A5A8D10B467EE877A5C695B6A1A
:1016D0000C6048600A81C1ED047ACB605DF8044B70
:1016E00070477047C2F38E4DB1B1002330B589B059
:1016F0000D680324039101A9029505928DF8044019
:10170000069404938DF81C308DF81D308DF81E3032
:10171000FFF7E2FB09B030BD084670470020704774
:101720000120704743693BB110B50446184602F0EA
:10173000CDFA0023636110BD704700BF38B50D4678
:10174000416900230068B1F884401370296822467B
:1017500001F0A6FB01466200286805F00FFB204659
:1017600038BD00BF70B58AB00C461546066802F059
:101770002DFA02A9059005A802F0C8FD18B90024A9
:1017800020460AB070BDBDF80A1005AABDF80C00CD
:101790006B46CDE90561BDF80E10BDF810600790ED
:1017A0000891ADF82460D4E9000102F0F9FB044689
:1017B0000028E4D0009906239DF80420A980EA803F
:1017C0002B6002F095FA0128DAD9044B0220044A72
:1017D0005B6B0449984720460AB070BDA41A4320A9
:1017E000F8124100181341000B68062B70B586B043
:1017F0000AD013480621134A446B00200091124975
:10180000A047002006B070BD0C46054602F0DEF988
:1018100003A9029002A802F079FD0028F2D0BDF8D9
:101820001020BDF81230BDF80E606A60BDF81410CB
:10183000A288AB60E3882E60A981C5E90423E1E7B3
:10184000A41A4320EC1441001813410008B502F01B
:10185000BDF99FED057A00EE100AC7EE007AF8FE9A
:10186000677A20EE270A08BDF902154F70B5466960
:1018700004464A6833460968006802F0C9FD38B971
:10188000114B0546114A5B6B11499847284670BDBC
:10189000206803F003F90546A0B1F36F002BF5D0E3
:1018A0002169206801F0D2FA044658B102F020FA0A
:1018B0000128EBD9044B0220064A25465B6B0449FC
:1018C0009847E3E70025E1E7A41A43202C154100DF
:1018D000181341004C1541002DE9F04F80469A46FF
:1018E00008460E46D8F8143093462DED068B8DB081
:1018F000069301F01FFF00286DD13046B7EE00AA15
:1019000001F008FE08EE100A30469FEDE19A01F062
:1019100013FE07EE900AF6EE009A78EE278AFFF79C
:1019200095FF8AEE000A78EE086AB5EEC08ABEEE30
:10193000008AF1EE10FA54BFF0EE697AF0EE487AC0
:1019400020EE090A86EE807A37EE277ABDEEC77A56
:1019500017EE103A1DB2FFF779FF8AEE000A38EE53
:10196000A87AF5EEC08AF1EE10FA58BFB0EE698A97
:1019700020EE090AC7EE007A77EE887AFDEEE77A64
:1019800017EE903A1CB23046B6F82E9001F032FFB6
:10199000631B93FBF0F707FB1037002F0EDCA5420B
:1019A00024DDBC4B0020BC4A5B6B0746BB49984713
:1019B00038460DB0BDEC068BBDE8F08F02F098F90B
:1019C000012805D9B34B0220B54A5B6BB349984750
:1019D000E41B24B2E3E7304601F014FE054630462E
:1019E00001F018FE28442DB204B2CCE7304601F0D5
:1019F000C5FE0746002840F05F8115F10C0FC0F2CC
:101A0000CF814FEA4919A9F14B090FFA89F9A1458C
:101A100080F25281B7EE00AA07EE904A9D4BF6EE97
:101A2000008AB8EEE79ADFED9A9AD3F834A0FFF770
:101A30000DFFCAEE007A9B4A9B4BF7EE00AA67EEB9
:101A4000897A67EEA97A67EEA87AF5EEC07AF1EEA8
:101A500010FA4CBF93469B46FFF7F8FE8AEE008AC9
:101A6000FFF7F4FECAEE007AB7EE00AA28EE098A64
:101A700028EE298A67EE897A28EE288A67EEA97A05
:101A8000DFED839A67EEA87AF6EE008AF5EEC07A6B
:101A9000DFED867AF1EE10FA48BFB1EE488A38EEF3
:101AA000278AFCEEC87A17EE906AFFF7CFFE8AEE1F
:101AB000008AFFF7CBFECAEE007A9FED75AA28EEEA
:101AC000098A28EE298A67EE897A28EE288A67EE45
:101AD000A97AF6EE009A67EEA87AF5EEC07ADFED05
:101AE000737AF1EE10FA48BFB1EE488A38EE278AD1
:101AF000FFF7ACFECAEE808AFFF7A8FE9FED6C7A76
:101B000006EE909ACAEE807AF7EE00AA68EE898A0D
:101B100068EE8A8A67EE897A68EEA98AB8EEE69A54
:101B200067EE8A7A9FED5AAA67EEA97AF7EE009AD5
:101B3000F5EEC07ADFED5D7AF1EE10FA48BFF1EE16
:101B4000688A78EEA77AF6EE008AFCEEE77AF8EE7D
:101B5000677A38EE678A68EE077AFCEEE77A17EE66
:101B6000904AFFF773FEC9EE807A4E4B4E4A67EEFD
:101B7000897A67EE8A7A67EEA87AF5EEC07AF1EE96
:101B800010FA4CBF98469046FFF760FE89EE808AB7
:101B9000FFF75CFEC9EE807ADFED3D9A28EE098AF8
:101BA00028EE0A8A67EE897A28EE288A67EE8A7A12
:101BB000B7EE00AA67EEA87AF6EE008AF5EEC07AD4
:101BC000DFED3A7AF1EE10FA48BFB1EE488A38EE0E
:101BD000278AFCEEC87A17EE905AFFF737FE8AEE96
:101BE000008AFFF733FECAEE007A9FED29AA28EE9D
:101BF000098A28EE298A67EE897A28EE288A67EE14
:101C0000A97AF6EE009A67EEA87AF5EEC07ADFEDD3
:101C1000277AF1EE10FA48BFB1EE488A38EE278AEB
:101C2000FFF714FECAEE808AFFF710FE9FED207AC0
:101C30005B460020019400961E4ACAEE807A17493E
:101C4000CDE9028568EE898A68EE8A8A67EE897A2C
:101C500068EEA98A67EE8A7A67EEA97AF5EEC07A0D
:101C6000DFED127AF1EE10FA48BFF1EE688A78EEF5
:101C7000A77AFCEEE77AF8EE677A38EE678A68EEC4
:101C8000077AFCEEE77ACDED047AD04790E600BF04
:101C9000C2F38E4DA41A432064134100181341006F
:101CA000301341002C13410084524100BD370635EA
:101CB00000247449D4134100304601F09BFD631B9E
:101CC00002460890304693FBF2F301331FFA83F982
:101CD00001F076FD19FB00F083B2B3F5006F0793B6
:101CE0000CD90020E34BE44A07465B6BE349984775
:101CF00038460DB0BDEC068BBDE8F08F304601F0E4
:101D000069FC0746304601F0EFFC00283DD12A234C
:101D1000562209EB490113FB0727099109FB07F735
:101D20000337099B9FEDD68A1F44FFF78FFD30468E
:101D300020EE088A01F054FD07EE900AF5EEC07A15
:101D4000F1EE10FA40F36B81C8EE276A07EE907A45
:101D5000B8EEE77ADDED097AB6EE006A76EEC76A8C
:101D6000B8EEE77AC6EE877A77EE867AFDEEE77A06
:101D700017EE903A002B80F2A682BE4B0020C14A9B
:101D80005B6B0746BD49984712E609EBC90303227E
:101D90005B000992063307FB03F707F20D17C0E754
:101DA000B7EE00AA07EE905AB24BF6EE008AB8EEF4
:101DB000E79ADFEDBA9AD3F83490FFF747FDCAEE01
:101DC000007AB14AB14BF7EE00AA67EE897A67EE66
:101DD000A97A67EEA87AF5EEC07AF1EE10FA4CBF58
:101DE00092469A46FFF732FD8AEE008AFFF72EFDF3
:101DF000CAEE007AB7EE00AA28EE098A28EE298AF0
:101E000067EE897A28EE288A67EEA97ADFEDA39A31
:101E100067EEA87AF6EE008AF5EEC07ADFED9C7ADE
:101E2000F1EE10FA48BFB1EE488A38EE278AFCEE90
:101E3000C87A17EE906AFFF709FD8AEE008AFFF76D
:101E400005FDCAEE007A9FED95AA28EE098A28EED4
:101E5000298A67EE897A28EE288A67EEA97AF6EE53
:101E6000009A67EEA87AF5EEC07ADFED897AF1EE96
:101E700010FA48BFB1EE488A38EE278AFFF7E6FC31
:101E8000CAEE808AFFF7E2FC9FED827ACAEE807A82
:101E9000F7EE00AA68EE898A68EE8A8A67EE897A88
:101EA00068EEA98ABAEE089A67EE8A7A9FED7BAA55
:101EB00067EEA97AF7EE009AF5EEC07ADFED747A54
:101EC000F1EE10FA48BFF1EE688A78EEA77AF6EEE6
:101ED000008AFCEEE77AF8EE677A38EE678A68EEF9
:101EE000077AFCEEE77A17EE904AFFF7AFFCC9EEEF
:101EF000807A654B654A67EE897A67EE8A7A67EE83
:101F0000A87AF5EEC07AF1EE10FA4CBF98469046EA
:101F1000FFF79CFC89EE808AFFF798FCC9EE807A77
:101F2000FAEE089A28EE098A28EE0A8A67EE897A7C
:101F30009FED5A9A28EE288A67EE8A7AB7EE00AAB1
:101F400067EEA87AF6EE008AF5EEC07ADFED507AF9
:101F5000F1EE10FA48BFB1EE488A38EE278AFCEE5F
:101F6000C87A17EE905AFFF771FC8AEE008AFFF7E5
:101F70006DFCCAEE007ABAEE08AA28EE298A28EE8D
:101F8000098A67EEA97ADFED459A28EE288A67EE7E
:101F9000897AB6EE009A67EEA87AF5EEC07ADFEDA0
:101FA0003C7AF1EE10FA48BFB1EE488A38EE278A43
:101FB000FFF74CFCCAEE808AFFF748FC9FED357AAC
:101FC0005346002001940096334ACAEE807A2B498A
:101FD000CDE9028568EE8A8A68EEA98A67EE8A7A78
:101FE00068EE898A67EEA97A67EE897AF5EEC07A9B
:101FF000DFED277AF1EE10FA48BFF1EE688A78EE4D
:10200000A77AFCEEE77AF8EE677A38EE678A68EE30
:10201000077AFCEEE77ACDED047AC847C8E40023DE
:10202000069A07EE907A07980127A2F88630F8EE14
:10203000677AF38DA2F884003046A8F80430C8EE21
:10204000279AA8F80C70A8F80850A8F80A9001F090
:102050004BFB069A002808BF0027304682F87070B4
:1020600001F0E0FA032800F24581DFE800F0564C69
:10207000371900BFA41A432014144100181341005B
:102080000000003D741441002C13410084524100B3
:10209000BD3706350024744994134100C2F38E4DB8
:1020A0000BAB30461F46099301F0C4FA0AAA394621
:1020B00000F074F906980123DDE90A124362836295
:1020C000C1620263304601F051FA042833D8DFE8D8
:1020D00010F0EC00EC00F300EA002D000BAB3046F2
:1020E0001F46099301F0A6FA0AAA394600F056F9EC
:1020F000069F01204FF0000CDDE90A23C7E9090C17
:10210000FA623B63DEE70023069901224B62CB6251
:102110000B630BAB8A620993D4E70BAA00230992E5
:10212000069AC2E90933D3621363CBE70123069A07
:1021300053639363D3630127304601F027FA06996E
:1021400080EA07033046DBB20B6401F031FA80EA23
:102150000703069A3046DBB29764536401F03AFAFB
:10216000B84240F2BD80069A0238D7641065304606
:10217000B7EE008A01F074FA069F1FED389AF6EE6A
:10218000008A7865304601F07BFAB865304601F088
:1021900087FAF865304601F013FB3866304601F0E7
:1021A00029FBB86730463E4601F050FBB8F80A30CC
:1021B000D8F8141080F00102013BB8F80400B1F81F
:1021C0008610D2B2C7E91903B8F90830FA677967FF
:1021D0000127F36601F0FAFCC6F88000FFF736FB32
:1021E00088EE000ADDED087ACBED049AF8EE677A06
:1021F00067EE807ACBED037AFFF728FB88EE000AC2
:1022000007EE905A0025F8EEE77A67EE807A67EEDF
:10221000897A67EEA87ACBED007AFFF717FB88EE94
:10222000000A07EE904A9BED007A079E4FF00104EA
:10223000D8F800103B46ABF816601220F8EEE77AAB
:10224000ABF81450ABF81840099AADF82C5067EE73
:10225000807A67EE897A67EEA87A37EEC77ACBED97
:10226000027A8BED017AAAF80250AAF80640AAF881
:102270001040AAF81850AAF80A60AAF80060AAF854
:102280000890AAF80460AAF81490AAF8169001F031
:1022900035FD00F0FBF84FF48073AAF80E00AAF8A1
:1022A0000C30FFF785BB002341E70699012300228C
:1022B0004B638B63CA633EE70699002301228B635D
:1022C0004A63CB6337E74FF6FE7293420DDD0B4B4B
:1022D00000200B4A5B6B07460A499847FFF768BB2B
:1022E0000023069AD364136541E7099A02FB03773A
:1022F0009BB295E60BAB0993E4E600BFA41A43201A
:10230000981441001813410038B504460D4640F2B8
:102310000F130F4A8821012001F0BAFC6061A8B1B7
:10232000284601F0E7F82060284601F08FFAA073F4
:10233000284601F01BF9B0FA80F328465B09E373E5
:1023400000F00AF8034B20610120A36138BD00BFF3
:10235000DC124100B814410010B582B0044601F00F
:1023600061F9012811D0204601F064F99FED0A7A45
:1023700007EE900AC7EE277A77EE877AFCEEE77AC7
:10238000CDED017A019802B010BD4FF4FA630193CC
:10239000019802B010BD00BF0000FA4438B52DED21
:1023A000028B154608EE100A0C4601F00FFC07EEF2
:1023B000900AC7EE887ABDEC028BFCEEE77A17EE46
:1023C000903A1A0C9BB22A60236038BD2DE9F04F79
:1023D00087B01F461646009003919DF8404001F0DB
:1023E000FBFB0023ADF814300493002F48D09C422F
:1023F00002934FEA5000039C14BF4FF4E0434FF4A4
:102400000043A0F1030A1BB201932CE0019B1FFAC9
:1024100085F905F1030B214643EA060009F1FF3C6B
:10242000029B4FEA4B089CFA9CFC40BA4246A380B0
:102430002080A8F10608A4F802C04E44009801F0DC
:10244000FBFB20465946B6B201F0A0FC0498BDF84B
:1024500014207F1B2060A28044442068A28804903E
:10246000ADF814200CD0BA45554628BF3D46BA45B4
:10247000CCD2CBD0EB07C9D5013DEB07FCD4C5E7E7
:102480000398063007B0BDE8F08F00BF0320704707
:1024900010B541F4A04382B014BA06225BBA694673
:1024A000CDF80240ADF8003001F0C6FB02B010BD1F
:1024B00038B51C4610601960154601F08DFB216887
:1024C000884202D201F088FB01462B6802390233B0
:1024D00021F003012B60216038BD00BF2DE9F041E0
:1024E0009C1C07460D46164601F076FBA04207D21B
:1024F000094B0020094A5B6B0949BDE8F0411847C8
:1025000045F4A0452246314638466DBA3580BDE8CF
:10251000F04101F091BB00BFA41A432070154100A7
:10252000901541000331B0EB410F2CBF012000207A
:10253000704700BF10B5002482B00094FFF746FF3B
:1025400002B010BD70B505690446284601F04AFB8B
:102550000A4905EBC503226B0968201DDB00483BD7
:10256000194400F08DFD064618B101233046E37092
:1025700070BD284601F03CFB304670BD4C10402039
:1025800038B5034604301D6900F09EFD044630B99D
:10259000054B064A5B6B06499847204638BD2846DE
:1025A00001F02CFBF9E700BFA41A4320CC15410031
:1025B000EC1541002DE9F84300EBC004DFF88C80F6
:1025C0004FF0000C0E46E400D8F8003005461746E0
:1025D000483C234483F841C001F004FB304600F03E
:1025E00031FD60B915492B46154A81464C6B15499A
:1025F000A047284601F0FCFA4846BDE8F883294682
:102600000A2001F0ADFBD8F80020394630462244BC
:1026100000F01CFD814650B908492B460A4A4C6B14
:102620000849A04729460B2001F09AFBE1E7D8F8BA
:10263000003001221C4484F84120F3E7A41A43200F
:10264000FC154100EC154100381641004C104020AB
:10265000F8B5184E34780CB12046F8BD01F0B0FA48
:10266000154F00EBC0004FF496721449C00001F002
:10267000E9FA38600028EFD0254609E03B6803EB13
:10268000C003184604F0DEFB80F8415080F840504B
:1026900001F096FAA0424FF0480204EBC4004FF05C
:1026A000000104F10104E9D801231C4633702046DF
:1026B000F8BD00BF461040204C104020B41541002A
:1026C00010B5054C237803B910BD044B186801F010
:1026D000FDFA0023237010BD461040204C1040200E
:1026E0002DE9F04745781E462DB1002333707370F5
:1026F0002846BDE8F087DFF8E0C004460F46904664
:10270000DCF800C0D0F810A0BCF1000F14D0DCF849
:102710000C90B9F1000F0FD0C8470028E8D06578B9
:10272000002DE5D1012543463A465146012001F0EE
:10273000E5FA2846BDE8F08700233370737094F8FB
:102740000090B9F1020F24D0B9F1010F27D0216B0D
:10275000201D00F0C3FC436843B91B4918461B4ABF
:102760004B6B1B4998472846BDE8F087BB4225D1F3
:10277000438843451DD10278B9F1020F4378327086
:10278000737010D0B9F1010FC9D12046FFF7F8FEE0
:10279000C5E72046FFF7D6FE0028D8D1A8E7504667
:1027A00001F034FAD3E7504601F022FA0023E37037
:1027B000B5E74FF4C571074800F06EFE40F289118D
:1027C000044800F069FE00BFA41A43209C15410094
:1027D000EC154100B4154100481040202DE9F843A4
:1027E000061D914605462C220C46304600211F4608
:1027F00004F028FB1C4B4A4630461B686BB3D3F8E9
:102800000080B8F1000F28D03B462146C04706465D
:10281000204600F0ABFEE8B1042818D000232B704E
:10282000204600F0FFFEB0FA80F320465B096B7093
:1028300001F00CF8A870204600F05CFE3A46014614
:102840001C23042001F074FA3046BDE8F88301230C
:102850002B70E5E702232B70E2E73B46214600F0B0
:1028600051FB0646D4E700BF481040202DE9F84F41
:102870000C46804608461D46164600F03BFE0746BD
:10288000204600F0DBFF304B81461968B9B14B6838
:10289000ABB12A46204631469847054610B928462E
:1028A000BDE8F88FB9F1000F19D10125324639463C
:1028B00020230D2001F03CFA2846BDE8F88FDFF810
:1028C0008CA007EBC702C8F83050DAF8003003EBF1
:1028D000C20313F8073C4BB3B9F1000F02D0A6F8BE
:1028E0001490E2E7204600F097FF0028DDD0D8F8EA
:1028F000104008F10409204601F074F9DAF800509C
:1029000004EBC401D8F83020484606F11403C9008E
:102910004839294400F09EFB0546204601F068F93D
:10292000002DC2D1484600F085FBB8E708F1040B42
:102930002A4638465946FFF73DFE05460028CBD1CA
:10294000584600F077FBAAE7481040204C10402082
:102950001A4B1B6870B5044623B19B6813B1BDE8E0
:10296000704018472378022B08D02046FFF7EAFD75
:1029700088B1A3782BB12378012B0FD001252846ED
:1029800070BD251D284600F0A5FB20B1284600F0AB
:1029900089FB0028EFD10025284670BD251D28465B
:1029A00000F080FB0028F6D0284600F093FB054697
:1029B0000028F0D02046FFF7E3FDE0E74810402074
:1029C000C37803B9704710B50446006901F010F9E7
:1029D0000023E37010BD00BF036973B103EBC303B1
:1029E000064ADB001268483B134493F840200AB9BA
:1029F00083F84120043000F01DBB70474C1040208C
:102A00000069704770B50C4684B0114605461A46F9
:102A10002046089B04AEFFF74BFD002328462A21E1
:102A200026F8023D324602F0C5F8BDF80E305B06CE
:102A300019D40024324611212846ADF80E4002F088
:102A4000B9F8BDF80E3013F480661AD015492B463C
:102A5000154A20464E6B1549B047284602F092F9B8
:102A6000204604B070BD01F043F930B10D492B464A
:102A70000F4A01204C6B0D49A047284602F082F90D
:102A8000D7E701248023022228462146009402F041
:102A9000A3F88023284600961A46072102F09CF8E6
:102AA0002046DEE7A41A43204818410038184100A8
:102AB0000C184100F0B583B000240F46112102AA82
:102AC000064622F8024D02F075F8BDF8060010F433
:102AD00080650CD013493346134A20464D6B134989
:102AE000A847304602F04EF9204603B0F0BDB7F5D6
:102AF000806F09D30B4928463B460D4A4C6B0B4966
:102B0000A047284603B0F0BD2A461021304602F007
:102B100053F8304647F48062102102F04DF801204E
:102B2000E3E700BFA41A4320781841003818410099
:102B3000A81841000022742102F03EB800B583B00D
:102B40000023112102AA22F8023D02F033F8BDF859
:102B50000600C0F3802003B05DF804FB70B582B0BE
:102B600000233821054602AA22F8023D02F022F88D
:102B7000BDF8064064B908492B46084A20464E6B0A
:102B80000749B047284602F0FDF8204602B070BD64
:102B9000012002B070BD00BFA41A432010174100ED
:102BA0003818410070B50C4684B041B92B4B08462B
:102BB0002B4A5B6B2B499847204604B070BD0DF142
:102BC0000E022821054601F0F5FFBDF80E20D3B214
:102BD000628023700B2B2CD8DFE803F02308060655
:102BE00006060606060606060120E6E7120A102A71
:102BF00029D801261C48D1B206FA02F2104010B3BF
:102C00004A1E164BD2B25E6B202A22D9174B184AA5
:102C100000201449B047284602F0B4F8002004B060
:102C200070BD0E492B46134A00204C6B0D49A0473E
:102C3000F1E70A4A002000950A49566B0E4AB04750
:102C400000232370E7E7054943F4045320224E6B29
:102C500063800A4B53F82230D9E700BFA41A4320FF
:102C60008417410038184100160001007417410014
:102C7000BC17410098174100DC1741005C16410069
:102C80002DE9F04F87B004460F4602F1010A029287
:102C900000250393DFF8A0B0DFF8B090DFF8A08044
:102CA00014E022F8023D204601F084FFBDF8163002
:102CB0005B0630D401F01CF823464A46414618B161
:102CC000DBF834600120B047AA4517D039462046CA
:102CD00000F0ACFF0135064606AA00232A21002891
:102CE000DFD115492346154A4D6B1549A8472046A3
:102CF00002F048F8304607B0BDE8F08F00200E4AD9
:102D000000940646546B029B0E4A0D49A04730467C
:102D100007B0BDE8F08F03992046FFF743FF064652
:102D20000028E7D104492346074A4C6B0449A047D1
:102D3000304607B0BDE8F08FA41A4320C418410004
:102D400038184100101941004C194100EC1841009D
:102D500070B584B014461D46642203AB0646FFF7E7
:102D60008FFF68B19DF80C30A3420BD0084A0020B9
:102D70000849CDE90034084B546B084AA0470020AD
:102D800004B070BD002DFBD03046FFF7E7FEF7E73B
:102D9000A41A432038184100E0164100D819410018
:102DA00001230B22FFF7D4BF70B584B0164664220E
:102DB000054603ABFFF764FF044670B19DF80C3085
:102DC000BDF80E20062B0BD01B49002000922B468D
:102DD0001A4A04464D6B1A49A847204604B070BDF4
:102DE0001005F1D512F4806316D0012329460E2078
:102DF000337000F0B5FFBDF80E20D1050ED4930559
:102E0000EBD500F075FF0328E7D90B4B04200D4AE2
:102E10005B6B0B499847E0E73370EEE700F068FF23
:102E2000032805D9044B0420074A5B6B04499847E3
:102E3000BDF80E20E3E700BFA41A43207419410037
:102E400038184100C0194100A419410030B585B0BF
:102E50006422054603ABFFF713FF044640B90C4953
:102E60002B460C4A4D6B0C49A847204605B030BD97
:102E7000BDF80E30062BF8D00024054A00932B46EF
:102E80002046556B0449054AA847204605B030BD89
:102E9000A41A4320041A410038184100381A41008E
:102EA00070B51546064600222B46FFF743FB044645
:102EB00002462B463146002000F020FF204670BD20
:102EC00030B585B0002404AA214622F8024D01F055
:102ED00071FEBDF80E2041F212139A4209D0064944
:102EE00020460092054A4D6B0549A847204605B08B
:102EF00030BD0120FBE700BFA41A43204417410066
:102F0000381841002DE9F0470C4692B0804608463B
:102F10009246994600F0EEFA0546204608F10C0765
:102F200000F0BEFBADF80400204600F0A9FBADF8B0
:102F30000600204600F0C6FBADF80800204600F071
:102F400037FB04232946ADF80A000DEB03021120DC
:102F500000F0D4FE20220021384603F073FF3846EB
:102F60002368214698470646D8B1202200210AA8A6
:102F7000002503F067FFD8F8246004950AAA03959A
:102F800003AB059521463846CDE90655CDE90855F0
:102F90003568A847064640B9D8F8243038461B6B38
:102FA0009847304612B0BDE8F087BAF1000F07D05D
:102FB0000AAD0FCDAAE80F0095E80F008AE80F00D0
:102FC000B9F1000F10D003AD0FCDC9F80000C9F85A
:102FD0000410C9F80820C9F80C3007CDC9F8100052
:102FE000C9F81410C9F81820204600F01BFB01286E
:102FF0001BD0204600F01EFB9FED0D7A07EE900AD5
:10300000C7EE277A77EE877AFCEEE77A17EE903AEA
:1030100000223046C8F80030C8F80820A8F806207A
:1030200088F8042012B0BDE8F0874FF4FA63EFE7A8
:103030000000FA4420B1436A13B11B6B0C301847EF
:10304000704700BF436AC0685B681847436A0C302A
:10305000DB6818472DE9F041456A044600F10C068B
:10306000006AAD6817469846A84738B1636A424679
:10307000394630461B69BDE8F0411847BDE8F0818C
:1030800070B504461546D0E908039B68984738B1E7
:10309000636A294604F10C005B69BDE8704018477B
:1030A00070BD00BF10B582B00021436A044602AA79
:1030B0009B6902F8011D0168C068984710B19DF82E
:1030C0000730237102B010BD436A0168DB6AC06833
:1030D000184700BF436AC0685B6A1847F0B5002311
:1030E00083B0051D466A471D04464360821D836008
:1030F0002B4600970C30B66AB047A060284603B054
:10310000F0BD00BFDFED1F7AB4EEE70AF1EE10FA72
:1031100034D460EE007AD0B19FED1B0AF6EE006A5F
:10312000DFED1A5AB7EE007A27EE800A9FED186A93
:1031300030EE650A20EE270A30EE060A20EE270A56
:1031400030EE660A60EE277A37EE870A70479FED09
:10315000117AF7EE006ADFED105A27EE877A9FEDBD
:103160000F6A37EE257A27EE877A37EE467A67EED2
:10317000877A77EEA67A27EE800A70479FED080AD5
:10318000704700BFDB0F49BF0018CD37A006B63A25
:10319000A6AA2A3D9B904CB96683083CA2AA2A3E67
:1031A0000000C07FDFED097ADFED096A77EEC07AB3
:1031B00077EEE67AB4EEE70AF1EE10FA5CBF80F043
:1031C0000100B0EE670AFFF79DBF00BFDB0FC93FEC
:1031D0002EBD3B3308B500EE100A0020FFF7E2FFDA
:1031E00010EE100A08BD00BF41B3DFED197A0022CE
:1031F00090ED007A031FF0EE676A37EE277A10B47D
:10320000541CF0EE477AA14203DDD3ED027A77EE4B
:10321000277AD2B193ED007AC3ED006A37EEC77A10
:103220002246A4B20433F0EE676AA142E8D800EB6C
:1032300081015DF8044B41ED017A7047DFED047ABE
:1032400000EB810141ED017A7047B0EE677AE7E764
:103250000000000001EB81020021920003F0F2BDAA
:103260002DE9F04F052A2DED048B83B0109C40F220
:10327000C580002C00F0C280551E07EE902AF7EEA4
:10328000004A94ED033A02FB05F5F8EE677A9FEDEC
:103290005E5A07EE105AD51EF1EEE75AD4ED042A15
:1032A00007EE905AD4ED023AB8EEC77AF8EEE77A14
:1032B00034EEC36AF1EEC76A67EE857A34EEE27ADD
:1032C00034EEE34AC7EE270A24EE254A86EE261A94
:1032D000002B00F08D805D1ED4ED001A94ED012AC4
:1032E00001F1020BACB24FEA430A34EEE10A530893
:1032F00074EEC24A0BEB440B019300240E46A14628
:10330000A046A646274623463588022C564404F19B
:103310000104A5EB0E0C2B44AE46ACEB0805E046D1
:10332000A5EB090CA94605D9BCF1000FB8BFCCF13B
:10333000000C6744A5B2AA42E6D8019C00250E46BF
:103340002344AC4693FBF2F3348801355644E41A27
:103350001FFA85FE002CB8BF64427245A444F3D81E
:10336000A3F5004390ED016AD0ED006A07EE90CA24
:1033700007EE103A62EE065A61EEA66A90ED038AF5
:10338000B8EEC77AD0ED028AF8EEE77A90ED045AEB
:1033900063EEA88A023127EE009A143027EE246AE1
:1033A00007EE107A67EE817A8B4576EE896A35EE04
:1033B000866AB8EEC77A40ED056A63EE085A76EE83
:1033C000C66A00ED046A27EE207A75EEA75AF0EE81
:1033D000E66A22EE856A40ED025A66EE847A36EE9F
:1033E000077A77EEA87A00ED017A40ED037A84D16E
:1033F000012003B0BDEC048BBDE8F08F002003B0CA
:10340000BDEC048BBDE8F08FBD1B8F4012B90BB92A
:103410000020704770B551B34E1EB7EE006AF0EE53
:10342000085A1C46B6B215469FED1A5A03EB86069B
:103430000436D0ED047AF4EEC67AF1EE10FA25DD0A
:1034400067EEA57AC6EE276A2AB190ED037A27EED9
:10345000267A85ED007A04352BB1D0ED027A67EE3D
:10346000A67AC4ED007A04341430B442E1D1104697
:103470001C460D460AB1FFF7B7FE2CB1204629467F
:10348000FFF7B2FE012070BD012070BDF0EE456A6D
:10349000DAE700BF0000000000B5074A83B003462A
:1034A000002000910549546B054AA047054B1B6855
:1034B00003B19847FEE700BFA41A4320381B410020
:1034C000201B41005010402008B10120704710B56A
:1034D000044600F00DFC30B1034B0120034A5B6B46
:1034E00003499847204610BDA41A4320401D4100BF
:1034F0005C1D410010B50446FFF7E6FF00B1E0682F
:1035000010BD00BF38B50D460446FFF7DDFF00B122
:10351000E56038BD10B50446FFF7D6FF08B1606A14
:1035200010BD002010BD00BF38B50D460446FFF7A2
:10353000CBFF00B1656238BD10B50446FFF7C4FF8C
:1035400008B1A06A10BD002010BD00BF38B50D46FF
:103550000446FFF7B9FF00B1A56238BD10B50446B7
:10356000FFF7B2FF08B10123237110BD10B5044667
:10357000FFF7AAFF00B1606B10BD00BF38B50D4664
:103580000446FFF7A1FF00B1656338BD10B50446DE
:10359000FFF79AFF08B194F8450010BD38B50D4605
:1035A0000446FFF791FF08B184F8455038BD00BFCD
:1035B00010B50446FFF788FF08B194F8460010BD27
:1035C00038B50D460446FFF77FFF08B184F8465032
:1035D00038BD00BF10B50446FFF776FF08B194F878
:1035E000380010BD38B50D460446FFF76DFF00B139
:1035F000258738BD38B50D460446FFF765FF00B195
:10360000256038BD10B50446FFF75EFF08B1B4F978
:10361000300010BD10B50446FFF756FF08B1B4F9ED
:10362000320010BD10B50446FFF74EFF00B12079FF
:1036300010BD00BF10B50446FFF746FF40B1237927
:10364000032B05D8DFE803F006060202A06810BDD0
:10365000024810BD4FF0FF4010BD00BF0000C07F0A
:1036600010B50446FFF730FF00B1A08F10BD00BFBA
:1036700038B50D460446FFF727FF00B1A58738BDD2
:1036800010B50446FFF720FF00B1E08F10BD00BF6A
:1036900038B50D460446FFF717FF00B1E58738BD82
:1036A00010B50446FFF710FF08B1B4F8400010BD94
:1036B00038B50D460446FFF707FF08B1A4F840509F
:1036C00038BD00BF10B50446FFF7FEFE08B1B4F8E0
:1036D000420010BD38B50D460446FFF7F5FE08B1AF
:1036E000A4F8425038BD00BF10B50446FFF7ECFE09
:1036F00008B194F8620010BD38B50D460446FFF7D6
:10370000E3FE08B184F8625038BD00BF38B50D46FD
:103710000446FFF7D9FE08B184F8445038BD00BF15
:1037200038B50D460446FFF7CFFE08B184F82C509B
:1037300038BD00BF10B50446FFF7C6FE08B194F8C7
:103740002C0010BD38B50D460446FFF7BDFE08B18C
:1037500084F8525038BD00BF38B50D460446FFF717
:10376000B3FE08B1A4F8505038BD00BF38B50D46BF
:103770000446FFF7A9FE00B1E58538BD10B5044643
:10378000FFF7A2FE08B194F8660010BDF8B50F4629
:1037900016461D460446FFF797FE28B184F854707C
:1037A000A4F85660A4F85850F8BD00BF38B50D46CF
:1037B0000446FFF789FE08B1A4F85A5038BD00BF8F
:1037C00010B50446FFF780FE08B1B4F85A0010BDEA
:1037D00038B50D460446FFF777FE00B1E56538BD04
:1037E00010B50446FFF770FE08B1E06D10BD002073
:1037F00010BD00BF10B50446FFF766FE08B1B4F86F
:10380000600010BD38B50D460446FFF75DFE08B1F7
:10381000A4F8605038BD00BF10B50446FFF754FE51
:1038200008B194F8470010BD38B50D460446FFF7BF
:103830004BFE08B184F8475038BD00BF10B50446B0
:10384000FFF742FE08B1B4F84A0010BD10B50446B7
:10385000FFF73AFE08B194F84C0010BD38B50D469C
:103860000446FFF731FE08B184F84C5038BD00BF64
:1038700010B50446FFF728FE08B1B4F84E0010BD9D
:1038800038B50D460446FFF71FFE08B1A4F84E50A8
:1038900038BD00BF38B50D460446FFF715FE08B128
:1038A00084F8485038BD00BF2DE9F04F93B004466E
:1038B00000F01EFA01286DD95F4B2046D3F834B0D2
:1038C000FFF702FE002868D182462046FFF7FCFD84
:1038D000002869D094F8383020460F93FFF7F4FDA4
:1038E000002867D0638F20460E93FFF7EDFD002878
:1038F00066D02046A58FFFF7E7FD002866D020465A
:10390000E68FFFF7E1FD002866D02046B4F840704E
:10391000FFF7DAFD002865D02046B4F84280FFF7B3
:10392000D3FD002864D0636B042B7FD9434B204622
:103930001193FFF7C9FD002861D1414B20460D933B
:10394000FFF7C2FD002869D0204694F84590FFF7A4
:10395000BBFD002868D0B4F85A2020461092FFF72B
:10396000B3FD109A08B194F84600099253460D9A97
:103970000A9002200792119ACDF8209002953149C1
:10398000CDE905820E9A01920F9ACDE90367009264
:103990002D4AD84713B0BDE8F08F2046D4F80CA0CC
:1039A000FFF792FD002895D10F902046FFF78CFD80
:1039B000002897D10E902046FFF786FD002898D169
:1039C00005462046FFF780FD002898D10646204690
:1039D000FFF77AFD002898D107462046FFF774FDCF
:1039E000002899D180462046FFF76EFD00289AD125
:1039F000164B11932046FFF767FD00289DD094F8E1
:103A00006230002B99D0124920460C4A012B18BF76
:103A100011460D91FFF758FD002895D181462046AB
:103A2000FFF752FD002896D1024696E7094A52F860
:103A300023301193DEE700BFA41A432084524100D3
:103A4000FC1C41005C1D4100041D4100F81C4100AC
:103A5000001D4100441B410038B50546FFF734FD09
:103A6000044648B16B6B042B08D92B4B00202B4A22
:103A70005B6B04462A499847204638BD0AD0AB8F75
:103A8000162B11D9244B0020264A5B6B044624498F
:103A90009847F1E700F0C2F890B91F490446224A5E
:103AA0004B6B1F499847E7E72B8F013B3E2B12D901
:103AB000194B00201D4A5B6B044619499847DBE708
:103AC0002B79032BDBD1144B0020194A5B6B044686
:103AD00013499847D0E76B6B2A794BB9032A0CD16D
:103AE0000D4918461C46134A4B6B0D499847C3E7CE
:103AF000032A06D033F00403BED1012385F84C30ED
:103B0000BAE795F84C000028F4D1034B04460A4A62
:103B10005B6B03499847AFE7A41A4320581B410049
:103B20005C1D4100F41B4100701B4100281C41003A
:103B3000B01B41007C1C4100B81C4100436970B5BA
:103B4000466B3BB383692BB3836A1BB3436A0BB3E6
:103B5000C36AFBB18368EBB1C368DBB10369CBB166
:103B6000F6B10368202B16D843680F2B13D9C3690D
:103B70000BB1036A7BB104460A4D01260FCC0FC579
:103B80000FCC0FC50FCC0FC594E8030085E80300E8
:103B9000304670BD26B1044A00200449B0470026D3
:103BA000304670BDA41A4320B81D4100CC1D410011
:103BB00038220021014803F045B900BFA41A432070
:103BC000014B1868704700BFA41A4320014BDB6A01
:103BD000184700BFA41A4320014B5868704700BF24
:103BE000A41A4320014B5B69184700BFA41A432065
:103BF000014B9B69184700BFA41A4320024BDB69A5
:103C000003B11847704700BFA41A4320024B1B6A38
:103C100003B11847704700BFA41A4320024BD8696C
:103C2000003018BF01207047A41A4320014B5B6A83
:103C3000184700BFA41A4320014B9B6A184700BFD6
:103C4000A41A43202DE9F0410D4C0F46904606463C
:103C5000A3689847054630B9636B0A4A0A499847F2
:103C60002846BDE8F081094B1B68002BF8D01C6882
:103C70003A4643463146A0472846BDE8F08100BF9A
:103C8000A41A4320941D4100CC1D41005410402033
:103C9000F8B590B10C4611461A46A4FB006777B9F7
:103CA00004FB00F52846FFF7CDFF044618B12A466D
:103CB000394603F0C7F82046F8BD0446FBE7CF219C
:103CC0000148FFF7E9FB00BFA41D4100064B1B683C
:103CD00010B504460BB15B689847044B2046DB687F
:103CE000BDE81040184700BF54104020A41A4320DC
:103CF000014B93F830007047A41A432070B50B4C69
:103D000084B0012500EB40068DF8040003FA05F0AD
:103D100004EB860302915C68039524B111469B680D
:103D2000024601A8A04704B070BD00BF18004020A3
:103D300070B50A4C84B0154600EB40028DF80400C3
:103D4000072604EB820002910396446824B11A46C8
:103D50002946836801A8A04704B070BD1800402020
:103D600010B584B0084B0022029100EB40018DF8A1
:103D7000040003EB810303925C681CB19B6811464D
:103D800001A8A04704B010BD180040204A1E31B160
:103D90000388013A5BBA20F8023B531CF8D1704704
:103DA000006800BA704700BF00BA0860704700BFE3
:103DB00000487047D81D4100343001F03DBB00BFC2
:103DC00070B50446343001F0FFFA68B9D4F8E02049
:103DD00003460125D4F8B01004F1AC00136155710D
:103DE0009371BDE87040084770BD00BF38B50468E6
:103DF000054654B104F1340001F0D8FAD4F80801B2
:103E0000FFF764FF2046FFF761FF2846BDE8384012
:103E1000FFF75CBF2DE9F04F054683B08A46904618
:103E20001021574A9B460120EC23FFF731FF06463D
:103E3000ED23534A4FF488710120FFF729FF044610
:103E4000002E00F09480002800F0918000F1EC0238
:103E500000F1140900F1340730604B460092294606
:103E60003846424601F082FA0346002840D0B4F8B2
:103E7000FA204046B4F8EC30B4F8F85013446D0022
:103E80005B009D4238BF1D46FFF7F2FC4FF498726D
:103E90003B49854238BF05462846FFF7D3FE034617
:103EA000C4F8080120B304F11000C4F80C5104F167
:103EB000060E04F1070C4146251D04F10808A36411
:103EC000C4F880304A46C4F8BC3004F58473A06559
:103ED000C4F8940038466465C4F8E040C4F86480CF
:103EE000C4F88450C4E917EC01F04EFA034638B91F
:103EF00030461E46FFF77AFF304603B0BDE8F08F2C
:103F000004F1700504F1AC081E4A0221284601F0B4
:103F1000AFF9DAF80010404601F016FA29463846A3
:103F200001F0A0FA2846414601F09CFA384601F01B
:103F300047FA054660B9144B144A5B6B144998471D
:103F400030462E46FFF752FF304603B0BDE8F08FF3
:103F5000384601F031FA0F490F4A30460F4BC4F88A
:103F6000E4B0F360C6E9011203B0BDE8F08F30465B
:103F70000026FFF7ABFE2046FFF7A8FEBCE700BF18
:103F8000081E41008FC2F53CA41A4320201E4100A8
:103F9000401E4100C13D4000B93D4000ED3D4000A4
:103FA0002DE9F04F8BB0914604460025069309ABEE
:103FB00005900A4607912146D9F80000009308AB06
:103FC000CDE90855FEF71EFD002865D0099BDFF8F6
:103FD000FCA21C46C5F52C63089EB34AAFB29C42B6
:103FE000304602EB05014FF0000B28BF1C4622466D
:103FF0001FFA84F802F028FED9F804301D2230465A
:104000003946019300925346424601F007FBD9F826
:1040100008301B22394630460193009253464246EF
:1040200001F0FCFA4FF01C0CD9F80C30424639462E
:104030003046CDE900C3534601F0F0FAB9F810C09C
:104040001923424639463046CDE9003C534601F03B
:10405000E5FA1023424639463046CDE900B35346CF
:1040600001F0DCFA2346C5F38F01059AD9F8000068
:10407000FEF734FA099C2544B5F52C6FAAD3182114
:10408000D9F80000FEF716FD064678B9874B884A36
:104090005B6B8849984705E0844B0646864A5B6B14
:1040A0008449984730460BB0BDE8F08FD9F80040FE
:1040B0005B4603224FF4FA612046FEF749FE38B909
:1040C0007A4B00207D4A5B6B06467A499847E9E7C0
:1040D00009AA9D21204600F06DFDBDF82450052061
:1040E000012305F0070509AA2146ADF82450FFF782
:1040F00005FE2046FEF732FD0028E1D04FF4407364
:10410000D9F80050BDF82460ADF824302846069B4D
:104110001E60FEF713FD044668B1644C2B465846FA
:10412000674A656B6349A8470020636B654A61492C
:1041300006469847B6E713230196634E024600935E
:104140002846624BA3465849029601F00DFB012315
:10415000DFF85891224600932846029601945B4B63
:10416000514901F001FB09AB21212846002213F837
:104170000BA0554B009102934B49544BCDF804A032
:1041800001F0F2FA40F2CD112846FEF793FC78B127
:10419000002309224FF4FA612846FEF7D9FD70B9D1
:1041A000424C5346656B4A4A00204249A847BBE748
:1041B0003E4C5346474A656B3E49A847B4E7102139
:1041C0000798FEF7AFF928B9384C434A636B394971
:1041D0009847E6E71023002205992846FEF7AAF93A
:1041E00010230246294604460020FFF787FD284693
:1041F000FEF7B4FC06460028D2D04FF00008234654
:1042000004F11E0C47465A8833F8021B17448A42B1
:10421000A2EB010038BF881A804538BF80469C4514
:10422000F1D1284600F0DCFFF0B9102221462846E3
:1042300000F034FD2488294B40F6B8323C4428462F
:1042400024092344B8F5487F98BF93428CBF0127C7
:10425000002700F0C5FF002846D197B1BBF1000F41
:104260000DD14FF0010B7EE7FFF742FD0128DCD9AD
:10427000D9F8343002201A4A0E499847D5E70B4C3A
:1042800052E7069B83F804A0FFF732FD01287FF672
:1042900009AF06990220054A0B79546B0093114A25
:1042A0000B680449A047FDE618254100A41A4320E5
:1042B000B41E4100941E4100501E4100E81E410002
:1042C000001F4100E81F410091244000743141006B
:1042D000BC1F4100341F4100741F4100E886FFFFEE
:1042E0008C1F410000204100FFF702FD0128B4D9D6
:1042F000CDF8008023460220D9F83440014A024913
:10430000A047AAE7A41F4100941E4100D0ED006A17
:10431000B6EE006ADFED335A9FED337AC5EEA67A2A
:104320009FED325ADFED325A36EEC77A27EE057A24
:1043300037EE257ABCEEC77A77EE867A17EE103A1A
:10434000FCEEE77A0B8117EE903A9BB2A3F11002D4
:1043500092B2EF2A24D9F5EEC06A264B10B5F1EEE1
:1043600010FA82B05C6B36D4234BDFED247A002048
:104370009FED237A76EEA76A224A2349FCEEE67A7D
:10438000B8EE676ACDED007A76EEC66A66EE876AA9
:10439000FCEEE66ACDED016AA047002002B010BD38
:1043A0003F2B09D800202F2B88BF1A460B8048804E
:1043B000C88001208A8070470122BF2B4A800ED816
:1043C000A3F14000C0F3CF0003F0070288800B8008
:1043D0000120CA807047F1EE666A0C4BC5E7D80829
:1043E000F2E700BFF902154F8096984BE8385BB5AD
:1043F00000007C42A41A432084524100BD37063598
:104400000024744914204100402041002C13410035
:104410002DE9F04F2DED028B91B000249B460FAD9E
:104420000EAB0B9000950E940C910F94FEF7EAFAE8
:104430000D90002800F0A4820F9BDFF8B4819FED5F
:104440006A8A03940398BE270E9DC0F55962674C93
:1044500086B29A4204EB000128464FF0000428BFC0
:104460001A461FFA82F9099202F0EEFBDBF80030DF
:104470004A462846314601930097434601F0CEF85C
:10448000BC27DBF804304A463146284601934346B0
:104490000097BD2701F0C2F8DBF808304A463146E4
:1044A000284601930097434601F0B8F8BA27BBF8B5
:1044B0000C304A463146284601934346009765270B
:1044C00001F0ACF8DBF810304A463146284601933B
:1044D0000097434601F0A2F8D927DBF814304A468A
:1044E00031462846019343460097D12701F096F8BC
:1044F000DBF824304A46314628460193009743466C
:1045000001F08CF8E527DBF828304A46314628468A
:10451000019343460097CA2701F080F8DBF82C305E
:104520004A463146284601930097434601F076F803
:10453000CB27DBF830304A463146284601934346C4
:104540000097712701F06AF8DBF834304A463146AB
:10455000284601930097434601F060F87227DBF884
:1045600038304A4631462846019343460097702723
:1045700001F054F8DBF83C304A46314628460193B6
:104580000097434601F04AF84A46314628464346DA
:1045900001940094D82701F041F8DBF840304A46F6
:1045A0003146284601930097434601F037F8C1276A
:1045B000DBF844304A46314628460193434600978B
:1045C0006C2701F02BF8DBF848304A46314601935E
:1045D00028464346009701F021F8DBF84830002BCD
:1045E00040F0E78106E000BF17B75137AC32410019
:1045F00090494100DBF84C10752043464A46019132
:1046000031460090284601F009F8DBF85020BF2120
:104610004346019228464A460091314600F0FEFF8B
:10462000DBF85420DC214346019228464A4600919B
:10463000314600F0F3FFDBF8582073214346019226
:10464000284600914A46314600F0E8FFDBF85C70EE
:10465000BBB2082B00F29A811F460024D221019799
:1046600043464A4600912846314600F0D7FFC4220F
:1046700043460197009231464A46284600F0CEFF55
:10468000D421404601F0FCF8D6210A90404601F0C2
:10469000F7F8D5218246404601F0F2F8C6210746D8
:1046A000404601F0EDF8C8210290404601F0E8F8DC
:1046B000C7210490404601F0E3F8B9210590404637
:1046C00001F0DEF874210690404601F0D9F821216E
:1046D0000790404601F0D4F80A9B0890D42043EAA2
:1046E00004014A464346009001912846314627433B
:1046F00000F094FF4AEA0402D6214346019228467C
:104700004A460091314600F089FFD52143464A468A
:10471000009128463146019700F080FF029AC62199
:104720004346224328460091314601924A4600F012
:1047300075FF049AC821434622432846009131461A
:1047400001924A4600F06AFF059AC7214346224378
:1047500028460091314601924A4600F05FFF069AD2
:10476000B9214346224328460091314601924A46E8
:1047700000F054FF079A74214346224328460091D3
:10478000314601924A4600F049FF089B21214A46E2
:1047900023432846009131461C464346019400F0CD
:1047A0003DFFDBF8782067214346501E4A460091C2
:1047B00031460190284600F031FFDBF864200521E6
:1047C0004346284602FA01F400914A463146073C26
:1047D000019400F023FFDBF8642063214346540179
:1047E00028464A460091033C3146019400F016FFEA
:1047F000DBF8642064214346540128464A46009170
:1048000064083146033C019400F008FFDBF868209F
:1048100068214346019228464A460091314600F0FD
:10482000FDFEDBF86C20C921434602F10E004A462A
:10483000009131460190284600F0F0FE9BF8704050
:10484000002C46D00024C22043464A463146009000
:104850000194284600F0E2FE0122C3214346019262
:10486000284600914A46314600F0D8FEDBF8683011
:104870004FF0760C02945F1CBA4618E0CDE900CEEA
:1048800000F0CCFE834B3146284633F81420029BBF
:1048900000924A460193434600F0C0FE029B013459
:1048A0005344402C029333D07B4B33F814C0DBF8D5
:1048B00060704FF0010E43464A46A74231462846F3
:1048C000DCD80021CDF800C00191314600F0A6FEF1
:1048D000E4E70121C22043464A4601913146009057
:1048E000284600F09BFEC3224346314600922846EC
:1048F0004A46019400F092FEDBF86020CD21434649
:10490000501E4A46009131460190284600F086FE2E
:10491000DBF87C10C02043464A46019131460090A6
:10492000284600F07BFEDBF87420692143460192A3
:1049300028464A460091314600F070FEDBED207AB1
:10494000CE234A4667EE887A31462846009343468E
:10495000FCEEE77A17EE904A013CA4B2019400F015
:104960005DFE039C099B0C9AC4F38F010B98FDF725
:10497000B5FD0F9BE218B2F5596F0392FFF462ADDB
:104980000D9811B0BDEC028BBDE8F08F0221CC2058
:1049900043464A46019131460090284600F03EFECB
:1049A000FF24BBB20827083B04FA03F303F47F4457
:1049B00054E601210F2043464A46019131460090BA
:1049C000284600F02BFE4FF6807A112143464A46D6
:1049D000284600913146CDF804A03F2700F01EFE86
:1049E000132243463146009228464A46019700F07A
:1049F00015FE102243463146009228464A46CDF81D
:104A000004A000F00BFE12224346314600922846D5
:104A10004A46019400F002FE4FF6C072142143464C
:104A2000019228464A460091314600F0F7FD1522D2
:104A300043463146009228464A46019700F0EEFD73
:104A40004FF6F0720D214346019228464A460091E6
:104A5000314600F0E3FD0E224346314600922846DF
:104A60004A46019700F0DAFD4FF6FF7216214346E1
:104A7000019228464A460091314600F0CFFD1722A8
:104A800001974346009231464A46284600F0C6FD4B
:104A9000B0E500BF54204100D420410010B50446C9
:104AA000FEF748F840F2E5112046BDE81040FEF759
:104AB00001B800BF2DE9F04F87B00025B0F80CB069
:104AC0009946DDF840A01D708AF80050C37B009124
:104AD000029303698DF816508DF817500668877B8E
:104AE0000193BBF1000F43D00BF1FF330446904616
:104AF00003930EE0A36920461B6A98472FB1A36970
:104B000030465B6A9847002837D00135ABB29B45E9
:104B10002ED9A36927B95B6A3046984768B3A36961
:104B20009B690DF1160201993046984728B39DF80C
:104B300016300BB999F80030A0690DF1170289F809
:104B400000300099C369204698479DF8173080B21D
:104B50000BB99AF80030B8F800208AF800301044F9
:104B6000029BA8F80000002BC4D0039BAB42C1D12C
:104B7000009B186807B0BDE8F08F002007B0BDE8C3
:104B8000F08F00BF41F4405330B583B000245BBACE
:104B9000154669460622ADF80030ADF80240ADF882
:104BA0000440FFF749F8BDF804305BBA2B8003B02E
:104BB00030BD00BFFFF7E6BF10B541F4805382B0AF
:104BC00054BA04225BBA01A9ADF80640ADF804302E
:104BD000FFF732F802B010BD2DE9F04182B00D466A
:104BE00017461946BDF820400DF102021E468046C8
:104BF000AC40FFF7C7FFBDF90250042246F48056CF
:104C000040466C400DEB020176BA3C40ADF80460C2
:104C10006C4064BAADF80640FFF70EF802B0BDE88C
:104C2000F08100BF41F420430A2210B584B05BBA82
:104C30004FF4807401A9ADF80430ADF80640FEF7DA
:104C4000FBFFDDF80A0000BA04B010BDF0B44E1E40
:104C500003460025DFF840C0374600E00546ACFBC0
:104C60000324681CE40804EB8402A3EB4202A3B211
:104C7000303207F8012F002BF0D16D080A180B54C1
:104C8000013316F8011F12F8014DAB423470117058
:104C9000F6D9F0BC704700BFCDCCCCCC01381F2872
:104CA00000D970472DE9F84F314B1B5C002B41D0E8
:104CB000154688464FF480722E496020FEF7C2FFE9
:104CC0000646B8B3002D43D00027DFF8B0B0DFF8B8
:104CD000B0A03C4608E05F2F28D9B9F10F0F04F1CE
:104CE000010411D0A54227D914F00F09F3D15F2F89
:104CF000F3D8F11938F81400FFF7A8FFB9F10F0F36
:104D0000074404F10104EDD1FEF7F2FF012824D994
:104D1000DBF834703346524617490220B847A542A3
:104D200016D914F00F094FF00007E2D02C22F255EB
:104D30000137DCE7BDE8F88F57B1FEF7D9FF01284E
:104D400006D90E4933460E4A02204C6B0A49A04749
:104D50003046BDE8F84FFEF7B9BFA542F8D914F0C8
:104D60000F094FF00007C4D02C2201273270C0E792
:104D7000581040206C21410058214100A41A4320C2
:104D8000542141002DE9F04F461E97B01F2E02D945
:104D900017B0BDE8F08FDFF8E4820123B2210446AA
:104DA00018F806501A4608F806300DF1580A099509
:104DB000FFF702FF00236425DFF898B2DFF8C09206
:104DC0002AF8203D12E073B1FEF792FF01284A460F
:104DD0009F494FF0020006D9BDF83830DBF8347037
:104DE000C3F30903B847013DADB2D5B15246112115
:104DF0002046FFF7DFFEBDF8383013F4806F18F857
:104E00000630E0D16BB1FEF773FF012809D9914953
:104E10000220BDF838304D6BC3F309038E4A8C492C
:104E2000A847002516AA20468C4F22F82C5D29465B
:104E3000FFF7C0FE16AA2A21204622F82A5D07F1B4
:104E40001E09FFF7B7FE16AA2821204622F8285D82
:104E50005546FFF7AFFE632101E037F8021F2A46EF
:104E60002046FFF7A7FE4F4505F10205F5D118F8DA
:104E70000630002B44D0FEF73BFF01281CD9BDF8BB
:104E800046200220734DBDF844706D6BBDF8421092
:104E90000692BDF8402005970491BDF83E70BDF81C
:104EA0003C100392BDF83A20BDF8383000926C4AAD
:104EB000CDE901176649A84718F8063003B3FEF795
:104EC00017FF01281CD9BDF856200220614DBDF8FE
:104ED00054706D6BBDF852100692BDF850200597C6
:104EE0000491BDF84E70BDF84C100392BDF84A20F5
:104EF000BDF8483000925B4ACDE901175449A847F4
:104F0000524668212046FFF755FE0DF13A0267210F
:104F10002046FFF74FFE0FAA66212046FFF74AFE04
:104F20000DF13E0265212046FFF744FE18F80630D9
:104F3000A3B1FEF7DDFE012810D9BDF83C10022018
:104F4000BDF83A20434DBDF83E706D6BBDF838306A
:104F50000092454ACDE901173D49A84716AA002508
:104F60005321204622F8265DFFF724FE52464021B9
:104F70002046ADF83850FFF71DFE18F8063063B331
:104F8000FEF7B6FE012807D9324A0220BDF83830B4
:104F9000556B2F49354AA84718F80630EBB1FEF794
:104FA000A7FE012819D9BDF838300220294A03F09C
:104FB000040103F0200503F0080C03F0100704912E
:104FC00003F04001CDF80CC003F0800300912049AC
:104FD000CDE90157556B264AA847264F5546F02183
:104FE00007F11E0901E037F8021F2A462046FFF7A5
:104FF000E1FDB94505F10205F5D118F80630002BA1
:1050000040F0B4801F464FF00109DFF848B0ABB163
:10501000FEF76EFE16AB0128174A03EB470C0C494E
:105020004B464FF00200654608D935F8205C3CF845
:105030001ECCCDE9005CDBF83450A84709F101092A
:105040000237B9F1080FFFB21CD018F80630DEE7BE
:1050500058214100A41A4320A02141000C24410002
:10506000B8214100FC214100402241006C22410056
:10507000842241002C24410040234100581040204C
:1050800088214100002516AA9D21204622F8245D92
:10509000FFF790FD16AA9921204622F8225DFFF71E
:1050A00089FD524696212046ADF83850FFF782FD23
:1050B0002A462046B221FFF77FFD18F80630002B64
:1050C0004ED0FEF715FE01280DD9BDF83010022094
:1050D000BDF82E20394CBDF82C30646BCDE9002191
:1050E000374A3849A04718F80630002B38D0FEF769
:1050F000FFFD012807D9314A0220BDF83230546B38
:105100003049314AA04718F806304BB3FEF7F0FD9E
:10511000012807D9294A0220BDF83430546B2949A7
:105120002A4AA04718F80630D3B1FEF7E1FD01285E
:1051300007D9224A0220BDF83630546B2149244A4F
:10514000A04718F806305BB1FEF7D2FD012807D959
:105150001A4A0220BDF83830546B1A491D4AA0473C
:10516000099B08F8063017B0BDE8F08FFEF7C0FDC8
:10517000012821D9114A0220BDF838300127556B8A
:105180001049154AA84718F80630002B3FF43BAFEA
:10519000FEF7AEFD01280CD916AA7B1C022002EBFB
:1051A0004701064ADFB2556B31F8203C0B4A0549EE
:1051B000A84718F8063026E70027E4E7A41A43209A
:1051C0006423410058214100B0234100D023410015
:1051D000E8234100F8234100042341002823410033
:1051E00001381F2802D8024B185C70470020704716
:1051F00058104020426A836B1168426B70B50446B8
:10520000D0E904059847236828705A681846BDE815
:10521000704010470068C368184700BF836910B525
:10522000044643B1FEF764FD28B10B4B01200B4A45
:105230005B6B0B499847E36943B1FEF759FD28B111
:10524000054B0120074A5B6B054998472068BDE87C
:1052500010408368184700BFA41A4320602441000F
:10526000742441009024410000F054BB00F00CBBBA
:105270000329034610B5426317D005290BD0022934
:1052800009D000240A490B4A846320464B6B0A4923
:105290009847204610BD094A9A63094C01200949E4
:1052A000094AC3E90141DA6010BD084A8263F4E7A4
:1052B000A41A43204C244100742441006D52400044
:1052C000F55140001D524000155240006952400007
:1052D00010B50446416BD0E90E2300699847636B13
:1052E00000221A6110BD00BF704700BF836910B56E
:1052F000044643B1FEF7FCFC28B10E4B01200E4AD8
:105300005B6B0E499847E36943B1FEF7F1FC28B1A6
:10531000084B01200A4A5B6B0849984763693BB117
:10532000044B0020074A5B6B04499847002010BDDE
:10533000012010BDA41A432060244100A024410094
:1053400090244100B824410010B4054A054C064B96
:10535000C163C360C0E901425DF8044B704700BF00
:10536000ED524000D1524000E952400038B5049D52
:1053700004460846A16311461A462B46FDF72EFA4D
:105380006B89A38638BD00BF2DE9F0410C46054668
:1053900016461F460846FEF787FA3B463246214628
:1053A000A86BBDE8F041FDF761BA00BF10B1806B9A
:1053B000FDF712BB704700BF0068C368184700BF05
:1053C00000688368184700BF30B5856B83B0FDB1B6
:1053D0000446026B144B2846256A1360FDF710FB48
:1053E00001AB2860A28E6169A06BFDF779F90546D3
:1053F00088B1A38E626A9DF804005B00A16A136005
:10540000E26A087020689DF805104368117098479B
:10541000284603B030BD054B054A5B6B05499847EC
:10542000284603B030BD00BF3C5C6451A41A432041
:10543000E02441000025410070B50446406916464D
:1054400001F002FC626A0021236B20681660044DA3
:10545000226A1D6043681160BDE87040184700BFB4
:105460003C5C6451016070472DE9F0470124089DC0
:10547000099F04FA03F3AB4203F1FF340AD80F4A41
:105480002B4608940020546B0D49A4460D4ABDE8F4
:10549000F047604791468EB2804604FA09F43146DF
:1054A000FFF7C0FB05FA09F520EA04023146404641
:1054B0003B462A43BDE8F047184700BFA41A4320E3
:1054C000B0514100845141002DE9F0410124069D75
:1054D00004FA03F3AB4203F1FF340AD80C4A2B461B
:1054E00006940020546B0B49A4460B4ABDE8F041DA
:1054F000604717464618BC403046FEF751FCBD4099
:1055000020EA040031462843BDE8F041FEF74CBCD8
:10551000A41A4320B0514100845141002DE9F043C9
:1055200083B0074601EB820014469DF82880994617
:105530000B9EFEF735FC20F00F05B8F1000F17D0D9
:10554000FEF7D6FB032845EA090509D90F4A234689
:10555000CDF800900420D2F834800D490D4AC047A0
:105560002A46A1B23846334603B0BDE8F043184797
:10557000FEF7BEFB0328F3D904492346064A04205C
:10558000D1F834800249C047EAE700BFA41A43209B
:10559000B0514100F0514100285241002DE9F04145
:1055A0008518984682B0164628460F46FEF7F8FB47
:1055B00020F00F04B8F1000F14D0FEF799FB032878
:1055C00044EA070407D9114AB30800970420566B30
:1055D0000F49104AB0472946204602B0BDE8F041C5
:1055E000FEF7E2BBFEF784FB0328F4D9074AB308B1
:1055F00000970420566B0649074AB04729462046C3
:1056000002B0BDE8F041FEF7CFBB00BFA41A4320B3
:10561000B0514100F0514100BC5141002DE9F04F23
:1056200087B0BDF8404003EBC4080494B8F802709A
:10563000002F4FD08946059039460024DFF820A17D
:105640004F46DFF820B103920AE05946DAF83430C9
:105650003F4A00209847B8F802100134A14239D9D6
:1056600004EB4403D8F804204FEA430912F813303E
:105670004A4493B3022BE8D895884FF6FF729542BF
:10568000EBD0BD42E9D3039A3A449542E5DA012BC7
:1056900042D024D3022BE0D1FEF72AFB032808D9FD
:1056A000119B59462B4A04200093DAF83460049B7E
:1056B000B047D8F80410EA1B119B013449440598FF
:1056C000B3FA83F349885B09FFF768FFB8F8021063
:1056D000A142C5D807B0BDE8F08F5588CDE7FEF7E9
:1056E00007FB032808D9119B59461B4A0420009345
:1056F000DAF83460049BB047D8F80430E91B119DF8
:105700009944059899F8053099F804200095FFF719
:10571000DBFEB8F80210A0E7FEF7EAFA032808D982
:10572000119B59460D4A04200093DAF83460049B1B
:10573000B047D8F80410EA1B119B49440598003380
:10574000498818BF0123FFF729FFB8F8021084E742
:1057500058524100EC52410088524100BC52410075
:10576000A41A4320B05141002DE9F04F87B0BDF895
:1057700040A0DDF8448003EBCA067788EFB100252E
:10578000DFF8F490DFF8F4B00390CDE9042105EBE5
:105790004504736813F814306400032B0AD8DFE85B
:1057A00003F0300F4E02D9F8343059462E4A00200B
:1057B000984777880135AF42E9D807B0BDE8F08F48
:1057C000FEF796FA032808D9CDF800805346D9F899
:1057D00034705946254A0420B847736818F1000709
:1057E000059918BF012703981C44A2886388129C5E
:1057F00000970194049C04EB9202FFF78FFE7788D8
:10580000D8E7FEF775FA032808D9CDF8008053468B
:10581000D9F834705946164A0420B847736803987B
:105820001C44618863792279129CCDF80080019430
:10583000049C04EB9101FFF717FE7788BAE7FEF7A7
:1058400057FA032808D9CDF800805346D9F83470A8
:105850005946084A0420B8477368B8FA88F705998A
:1058600003981C447F09C0E750514100F0504100AB
:10587000C050410020514100A41A4320B0514100C2
:1058800030F83100704700BF07EE102ADFED1F6AC5
:105890009FED1F6A490876EEC75AC7EE267A85EE55
:1058A000A67A67EE867A27EE067A2DD0FCEEE77AA6
:1058B00070B417EE903AFCEEC77A06889AB217EEEB
:1058C000903A9CB2B4428CBF00230123B24228BF5D
:1058D00043F00103B3B9851E034605EB4105AB4216
:1058E0000DD033F8021FA14234BF002001209142A5
:1058F00098BF40F001000028F1D070BC7047002034
:1059000070BC70471846F8E7084670470000C84268
:1059100000FF7F47DFED216A07EE902A9FED207A96
:10592000490876EEE75A9FED1F6AC5EEA67A27EE84
:10593000877A67EE867A2ED0BDEEC77AFDEEE77ADB
:1059400017EE103A70B41CB217EE903AB0F900603E
:105950001AB2B242CCBF00230123B442A8BF43F025
:105960000103B3B9851E034605EB4105AB420DD0DB
:1059700033F9021F9142B4BF00200120A142D8BFD9
:1059800040F001000028F1D070BC7047002070BCCE
:1059900070471846F8E70846704700BF0000C84245
:1059A000000000C700FEFF4608B500F075FB00B917
:1059B00008BDBDE8084000F06DBB00BF70B50C4CE1
:1059C00000F0C6FD0B4E206000F028F90A4D0B498F
:1059D0000B4A0C4B36682D68096812681B686060BA
:1059E0002046E66125622361C4E9021270BD00BF52
:1059F00008014020781040207C1040208C1040206E
:105A0000901040208410402010B5054C23782BB90D
:105A1000044B1B6803B198470123237010BD00BFDE
:105A2000CC10402088104020034B1B781BB1034B47
:105A30001B6803B118477047CC104020B8104020B5
:105A4000044B1B781BB1044B1B6803B118470020A3
:105A5000704700BFCC1040208C104020034B1B78B7
:105A60001BB1034B1B6803B118477047CC10402093
:105A700090104020044B1B781BB1044B1B6803B1F2
:105A800018470020704700BFCC10402080104020F5
:105A9000044B1B781BB1044B1B6803B11847002053
:105AA000704700BFCC10402084104020044B1B786E
:105AB0001BB1044B1B6803B118470020704700BF9F
:105AC000CC10402094104020034B1B781BB1034B9B
:105AD0001B6803B118477047CC1040209C10402031
