:020000040040BA
:10000000A02B432041004000F1B64000E5B640007F
:10001000D9B64000CDB64000C1B640000000000097
:1000200000000000000000000000000001A54000EA
:10003000B5B640000000000091A5400095EF4000DB
:10004000194AD2F8883043F4700310B5C2F88830EA
:10005000BFF34F8FBFF36F8F144A154882420BD204
:10006000D34311460024034423F003030433134411
:1000700041F8044B9942FBD10E4A0F4882420CD200
:10008000D3430E490344081D23F00303034451F8EE
:10009000040B994242F8040BF9D10FF05BFE0BF010
:1000A00057FB07F0E7FCFEE700ED00E00010402002
:1000B000441D432000004020AC0E4020209C410005
:1000C0002DE9F04F2DED028B89B000AF06F094FFC3
:1000D00030B901202437BD46BDEC028BBDE8F08F5E
:1000E00003F058FA01465748EA460CF033FF06F091
:1000F0008DFF00F0C1F800286DD000F095FD04469A
:100100007860002800F082804F4900F0EDF9204629
:100110004FF07C5100F0F2F9786800F08BFBB8608A
:1001200000287AD0381D9FED498A00F0FFFD00239A
:10013000B86807F11001C7E90433C7E9063300F0D6
:1001400001FED7ED047A424867EE887AFDEEE77A41
:1001500017EE901A0CF0FEFED7ED057A3D4867EEDB
:10016000887AFCEEE77A17EE901A0CF0F3FE398BE2
:1001700039480CF0EFFEB86800F01AF9002856D0A4
:100180003A8B0526354D53000833DB08AAEBC30331
:100190009D46E84607F10C034146B86800F0F6FDBD
:1001A0008146E8B13C8B2E480CF0C2FE64B1013CA4
:1001B000A8F1020BA4B208EB44043BF8021F284646
:1001C0000CF0C8FEA345F8D10A2008F039FB013E27
:1001D00009D03A8BDEE723480CF0AAFE012079E72C
:1001E00021480CF0A5FE07F1200555F8180D00F088
:1001F00031F90446284600F0B9FB00F079F804EA2A
:100200000900D54680F00100C0B263E717480CF042
:100210008FFE00F06DF801205CE715480CF088FEB9
:10022000381D00F083FD00F063F8012052E711480B
:100230000CF07EFE07F1080000F098FB00F058F883
:10024000012047E70C284100CDCC4C3E00007A4409
:100250009C284100AC284100BC2841002C294100C9
:10026000182941002C284100EC2841004828410071
:1002700080284100CC28410010B5174C23788BB959
:1002800040B103F04DF828B100F0C6FA10B101F00A
:100290002FFF98B9114B0020114A5B6B1149984709
:1002A000207810BD03F016F90128F9D90B4B022074
:1002B0000D4A5B6B0B499847207810BD01232370D2
:1002C00003F008F90128EBD9044B0220074A5B6BC5
:1002D00004499847E4E700BF00104020A41C4320D5
:1002E00054294100502941006C2941003029410026
:1002F00010B50B4C237803B910BD00F063FB01F07F
:100300002FFF03F0E7F8012805D9064B0220064A23
:100310005B6B0649984703F03DF80023237010BD3E
:1003200000104020A41C4320942941005029410082
:10033000024B0120024A5B6B02491847A41C432070
:10034000842A41009C2A410008B10069704710B519
:10035000044603F0BFF830B1034B0120034A5B6B46
:1003600003499847204610BDA41C4320842A41001D
:100370009C2A410070B50D460446FFF7E5FF58B1D1
:100380002946064602F078FE3DB9A36823B161799B
:100390002046BDE87040184770BD30460F2102F07E
:1003A00077FD30460121BDE8704002F093BD00BFEB
:1003B000F8B560B9204C0020204A636B204998476B
:1003C0000020636B1F4A1E4998470020F8BD1E4B52
:1003D000044602689A42EDD11C4B1878B8B1637B91
:1003E000002BF3D0A368202B11D8194D15F813203A
:1003F0006AB905EB43020127567805F8137046B138
:1004000000220D4C05F81320DAE7202BF8D90A4C0E
:10041000D6E704F11C0001F0EBFFA3680028F4D03C
:10042000202B06D805EB4302667305F8136057705E
:10043000F8BD6673F8BD00BFA41C4320B829410075
:100440009C2A4100C8294100E89EC0AC0110402010
:10045000041040202DE9F04170B91C4C00201C4ACA
:10046000636B1C4998470020636B1B4A194905467A
:1004700098472846BDE8F081184B044602689A4226
:10048000EBD1174B1D78DDB1437B002BF1D1836895
:10049000202B15D8134E16F813708FB94FF00108A2
:1004A0001C3006F8138001F0DBFFA368202B09D86D
:1004B00006EB430284F80D8006F813705770D8E7F6
:1004C000024CD0E784F80D80D3E700BFA41C432082
:1004D000B82941009C2A4100FC294100E89EC0AC9B
:1004E000011040200410402010B50C46FFF72CFFEF
:1004F0002146BDE8104002F0F7BB00BF10B50C4626
:10050000FFF722FF2146BDE8104002F0FFBB00BF0D
:1005100043693BB1DA6810B504461846904700239A
:10052000636110BD704700BF2DE9F0410E4682B0F7
:100530000546002832D1324B0020324A5B6B3249EB
:1005400098470023B47E64B17268B2B92C4B002086
:100550002E4A5B6B04462C499847204602B0BDE802
:10056000F081B26862B9264B2046294A5B6B264966
:100570009847204602B0BDE8F081F268002AE5D035
:10058000BBB12B7B3278934218D01D4900200092DA
:10059000204A04464D6B1C49A847DEE71E4B026803
:1005A0009A42C8D10123CDE72846FFF701FF8046D4
:1005B00048B90024204602B0BDE8F08196F81880C2
:1005C000B8F1000FF0D16F7B87B10D4B0024134AB7
:1005D00020465B6B0C499847B8F1000FBDD0284608
:1005E000FFF738FF204602B0BDE8F0816B69AE61CD
:1005F000D3E900029047747EAF6184F00104EBE719
:10060000A41C4320B82941009C2A4100182A41001B
:10061000382A4100502A4100E89EC0AC6C2A4100B3
:1006200070B59DF810501E46846945B9A07E78B11A
:10063000E36860689A4228BF1A4607F0ADFF206958
:10064000657658B162693146BDE8704007F0A4BFD5
:10065000A2681160206965760028F3D170BD00BFE3
:10066000014B1870704700BF0110402008B538B921
:10067000064B0020064A5B6B06499847002008BDE0
:100680000268054B9A42F3D1012008BDA41C432007
:10069000B82941009C2A4100E89EC0AC08B538B991
:1006A000094B0020094A5B6B09499847002008BDA7
:1006B000084B02689A42F3D1038B002BF0D04369B8
:1006C000002BEDD0012008BDA41C4320842A41004A
:1006D0009C2A4100D79DC0AC08B538B90F4B00200B
:1006E0000F4A5B6B0F499847002008BD0E4B02680C
:1006F0009A42F3D1038B002BF0D04369002BEDD04D
:100700004379013B042B07D9044B0020074A5B6B5C
:1007100004499847002008BD012008BDA41C4320BF
:10072000842A41009C2A4100D79DC0ACE4294100A5
:1007300010B568B18368044653B161719847237B53
:1007400003B910BD20460121BDE81040FFF712BEDD
:1007500002F0C0FE0028F4D0BDE81040FFF7E8BD6D
:1007600008B528B103461973BDE80840FFF702BE7B
:1007700002F0B0FE18B1BDE80840FFF7D9BD08BDD2
:1007800070B5059D04460261084EBDF81020017148
:1007900006609DF81810856043610283FFF7C8FF6B
:1007A00020460021BDE87040FFF7DABFD79DC0ACFE
:1007B00030B583B0044602F08DFE032808D91149F4
:1007C0000420A2684D6B63680F4900920F4AA84746
:1007D000606800230E4951F8042B12B15268904210
:1007E00004D00133042BF6D103B030BD094A0021F7
:1007F000204602EB8303596003B0BDE8304002F0AD
:1008000057BE00BFA41C4320D02B4100A82B4100A1
:10081000040040200000402010B5054C207800B1B5
:1008200010BD012318462370FFF71AFF207810BD72
:10083000000040202DE9F043414D83B02B7853B99F
:10084000404918461C46404A4B6B40499847204651
:1008500003B0BDE8F0830746FFF720FF002858D01B
:100860003B69D3F80C80B8F1200F33D86B7853B9BB
:100870002B1D05F1140153F8042B12B19268904519
:100880004CD09942F7D1D5F814903C8B09F1010373
:100890006B6102F01FFE032808D92A4A4B46CDF8A7
:1008A00000800420566B2949294AB047294B00266D
:1008B00053F8042B92B10136042EF9D12149334665
:1008C000254A00204D6B21490446A847204603B025
:1008D000BDE8F0831B492023204AF2E72146D423B8
:1008E0001F4A012002F0C6FD044690B11D4B05EBE6
:1008F0008605C4F8049039462360C4F808807B69F3
:100900006C60984790B101232046637303B0BDE843
:10091000F0830024204603B0BDE8F083094B00209B
:10092000114A5B6B04460949984790E723690BB16C
:100930002046984720460024FFF73AFF87E700BF8C
:1009400000004020A41C4320E42A4100D02B410099
:10095000C02A410004004020202B4100A42A41006D
:10096000442B4100E89EC0ACF82A4100114B1B7893
:1009700010B533B1044618B10068FFF777FE60B9CF
:1009800010BD02F0A7FD0028FAD00B4B01200B4A46
:100990005B6B0B49BDE8104018472068FFF75AFD14
:1009A000206803690BB198472068FFF701FF002317
:1009B000236010BD00004020A41C4320E42A410015
:1009C000D02B410038B51B4C2578002D30D0636802
:1009D0000BB3201DFFF7CAFFA36803B31648FFF748
:1009E000C5FFE36813B11548FFF7C0FF236913B1D2
:1009F0001348FFF7BBFF02F06DFD28B1114B01203A
:100A0000114A5B6B11499847002318462370BDE8D3
:100A10003840FFF725BE1D46A368002BDED1E368F2
:100A2000002BE0D12369002BE2D1002DECD0E2E7CE
:100A300038BD00BF00004020080040200C004020CE
:100A400010004020A41C43205C2B4100D02B41000F
:100A500070B50C4684B001461046657903AB226937
:100A60008DF80D5000952679E579A4798DF80E6002
:100A70008DF80F508DF80C40FFF7D2FD04B070BD1B
:100A800070B52DED028BA4B0044684220E4603A857
:100A900007F082FD03A8FFF71FFE90B1179B042B00
:100AA0000BD10020324B334A05465B6B32499847E5
:100AB000284624B0BDEC028B70BD0AA802F0BEFB34
:100AC00028B90025284624B0BDEC028B70BD0AA8C9
:100AD00002F07AFA451EADB2042818BF012D8CBF72
:100AE0000125002507D9224B0020244A5B6B0546CF
:100AF00021499847E6E70AA802F0FEF808EE100A36
:100B00000AA802F05FF907EE900AF8EEE76ADFED57
:100B10001C7A88EE267AB4EEE77AF1EE10FA0BD55D
:100B2000134A4FF47A5300952846546B12490193A7
:100B3000144A154BA047C5E733790AA8134D237310
:100B400002F040F924A9A4F85000234641F8885D3A
:100B50000AAA04F11C0002F04FFD051C0C4B18BF43
:100B60000125C4E90430284624B0BDEC028B70BDD9
:100B7000A41C4320FC2B4100382C41004C2C41008C
:100B80006F12833C6C2C410050824100510A40009E
:100B90001105400010B50446FFF780FD10B1237920
:100BA000022B0AD002F096FC30B1054B0120054A19
:100BB0005B6B05499847002010BD204610BD00BF63
:100BC000A41C4320842A4100382C410038B50D462E
:100BD000FFF7E0FF68B100F11C040F21204602F08E
:100BE00057F9691E042904D8DFE801F00E181A1C11
:100BF000040038BD1021204602F05AF92046012198
:100C0000BDE8384002F066B90021204602F050F9F4
:100C100020460421BDE8384002F05CB90721F4E722
:100C20000921F2E70C21E6E7F0B5642385B0394AE3
:100C30008421012002F01EFC0546002866D000F148
:100C40001C0402265423344F224631460296CDE935
:100C50000037324BFFF794FD2046314902F044F84B
:100C60002046304902F052F82046062102F074F97D
:100C700020460A2102F096F82046012102F0E8F809
:100C800020460B2102F0F4F80121204602F01AF868
:100C9000204602F043F83146204602F04FF8204645
:100CA000002102F033F92046002102F01DF9204610
:100CB000002102F053F82046002102F061F820469E
:100CC000FF2102F03FF92046002102F031F9002314
:100CD000204619461A4602F067F92046012102F023
:100CE0007BF92046012102F089F92046052102F016
:100CF00071F82046012102F09BF920464FF49651ED
:100D000002F0A8F92046084902F054F8284605B038
:100D1000F0BD00BFE02B4100CD0B4000810A400038
:100D2000CDCC4C3ECDCCCC3EBD14400048B110B52E
:100D300004460068FFF72EFF02F0BAFB0023236091
:100D400010BD7047F8B1037B022B1CD1D9B14369A8
:100D5000B6EE007ADFED0C6A1B68B0F85000D3EDF8
:100D6000087A9A8D67EEA67A013A67EE877A10B410
:100D70005C699B690C6008814A814B60C1ED037A14
:100D80005DF8044B70477047C2F38E4D70B552004A
:100D90008AB002260424019101AD049103A90692B0
:100DA0000022079301238DF80C60059508948DF8B7
:100DB00024208DF825208DF82630FFF7B5FB0AB0EA
:100DC00070BD00BF43693BB110B50446184602F040
:100DD0006FFB0023636110BD704700BF2DE9F04732
:100DE00044698AB007468846B4F8C03091460BB9CA
:100DF000A4F8C230B4F8C8207C23D4F8C450B3FBA4
:100E0000F2F305FB03F5002D37DB204604A904F0BF
:100E1000F1FAD8F80030049A6E00B4F8C2102A44EF
:100E20003868194401F0E6FD03AA824604F1BC03C8
:100E3000386851460092224604F0F4FA9DF80C30CE
:100E400004A92046003318BF012389F8003004F0BC
:100E5000D1FAB4F8C230D8F80000324604991844E8
:100E60000AEB410107F032FCB4F8C23028461E44B8
:100E7000A4F8C2600AB0BDE8F08740F25A210148E8
:100E800001F0EAFE7C2D41002DE9F04FD0F814A0CE
:100E9000B7B003468B4615465146BC2207A8D3F887
:100EA000009007F079FB4FF0020C329F00240126DE
:100EB00007FA0CF807ABDBF80420484608F1FF37C7
:100EC000DBF80010CDF8BCC02E971D962294BAF81E
:100ED000C8701C948DF8D04003F0D8FD484604F04B
:100EE00053FA48466B4664224FF4FA6101F040FC25
:100EF000064618B9304637B0BDE8F08F7C2350461F
:100F000001A9DBF800B0B3FBF7F704F073FA08FBB4
:100F100007F7019A594648463A4401F06BFD4FF4F1
:100F2000FA618046484601F0B7FC504601A904F03A
:100F300061FA01980E2FA7F10E0C08EB400021D9A1
:100F40007F0000F11A012346023F0A4600EB070E1C
:100F500032F8024F96452344FAD138440024B3FBBB
:100F6000FCF231F8023F9B1A002BB8BF5B4288426B
:100F70001C44F6D1B4FBFCF4A3B230462B8037B04E
:100F8000BDE8F08F2346F8E7F0B54369002599B036
:100F90000668C3F8BC500C46174602F009FA02A9CD
:100FA000119011A804F090FA18B90024204619B045
:100FB000F0BDBDF80A506B46BDF80C1005AABDF88F
:100FC0000E000791089061682068CDE90565BDF8BD
:100FD0001050ADF8245002F07BFC0028E5D0BDF89D
:100FE0000A1011ABBDF80C000AAA9DF804500C9031
:100FF000BDF810001095ADF83800CDE90A61BDF8D4
:101000000E100D9100990F91D4E9000102F016FE27
:1010100004460028C9D0009906239DF804201198A1
:10102000B980FA801299139A38817981BDF85000FD
:10103000BDF85210BA81BDF85420F88139827A8205
:101040003B6002F047FA0128B0D9034B0220034A63
:101050005B6B03499847A9E7A41C4320902C4100EF
:10106000B02C41000B68062B70B58CB00BD0284813
:101070000621284A446B0020009127490546A047D5
:1010800028460CB070BD0C46064602F091F903A943
:10109000069006A804F018FA05460028F0D0BDF81E
:1010A000123006AABDF80E00B360BDF814303060EF
:1010B000B381A088E388BDF81010C6E90403208935
:1010C000638971607C21C6E90603238AA089B38401
:1010D000638A3062E089F38402F0CEFBBDF8180029
:1010E000BDF81A10BDF81E20BDF82030B062F162C4
:1010F000BDF82400BDF8261032637363BDF82A20C2
:10110000BDF82C30C6E90E01C6E91023B8E700BFD0
:10111000A41C4320FC2C4100B02C410010B5B0F8B9
:10112000C84086B064B1694604F064F97C23009835
:10113000B3FBF4F3C0F50060B0FBF3F006B010BDF4
:101140004FF49F71014801F087FD00BF7C2D4100E5
:101150002DE9F04F44698DB0064608460D4691468C
:101160001F464FF0010B01F02FFF0023A4F8C80029
:101170002046C4F8BC3006F1040A84F8B5B0FFF785
:10118000CDFF854B80B24FF07C0C1968524602901F
:101190003B46019128464946CDF800C000F03CFA94
:1011A000804618B940460DB0BDE8F08F284601F0E2
:1011B000A5FE68B9C4E9120B00232846236501F097
:1011C00021FE032800F2E580DFE800F0D3CAB8076B
:1011D0000023C4F848B0E364EEE70DF1180B28468D
:1011E00001F018FE05AA594600F028FE0123DDE9AA
:1011F0000512C4E91533C4E91712284601F096FD1B
:10120000042807D8DFE800F09696910396000023A3
:10121000C4E91933284601F099FD80F001032846FE
:10122000DBB2E36601F0A4FD80F001030122284651
:10123000DBB26267236701F0ADFD431E2846A3675A
:1012400001F00EFEE067284601F01AFEC4F88000A7
:10125000284601F037FE431E2846C4F8843001F0CA
:101260001FFEC4F88800284601F08EFE84F88D0029
:10127000284601F0A9FEC4F8AC00284601F074FE2F
:10128000C4F8A400284601F077FEC4F8A800284658
:1012900001F0C6FE80F00103284684F8B43001F066
:1012A000CFFD01286DD902380123C4E92430B38869
:1012B0000122504684F8B520C4F8983000F096FD1D
:1012C000002862D17089B6F908200138F388C4E992
:1012D0002702C4F8B03002F06BF84FF46172C4F822
:1012E000B8007C23A9F814200021B4F8C8202046B7
:1012F00039835946B3FBF2F23B8903FB02F37B814E
:1013000004F078F85A4631680123122002F0E8F818
:1013100000F00CFEBDF818304FF416621844BA8184
:10132000F88140460DB0BDE8F08F01220023C4E9EA
:1013300019236FE70123C4E919336BE70DF1180B8B
:10134000284601F067FD05AA594600F077FD012007
:101350000021DDE90523C4E91501C4E917234CE7A1
:10136000002301220DF1180B6365A265C4E9173350
:1013700043E700230DF1180BC4E91533C4E9173313
:101380003BE70023C4F8903091E77069FFF7C6FE91
:1013900099E70DF1180B30E7F82C410038B5013909
:1013A000136889B2B3F8C0408C4204D01846BDE837
:1013B0003840FFF7B3BE054618461446FFF7AEFEA9
:1013C000B5FBF0F303FB105000B138BD2068BDE859
:1013D0003840FFF7A3BE00BF8389012B27D0F0B5AB
:1013E00046690446B0F9087083B0B6F8C0203046AC
:1013F000013292B2B2FBF3F503FB15239DB2A6F8BE
:10140000C050FFF78BFE04F1140200FB0575A189A3
:101410006089FFF7C3FF0346694620685A1EC6F875
:10142000C430CDE9002503F0BBFF03B0F0BD184682
:10143000704700BF0246002370B552F8145F04469F
:101440000E46C5F8C03081894089FFF7A7FF2B46BB
:10145000C5F8C4002068D6E9001203F017FB38B9BC
:10146000124B0646124A5B6B12499847304670BDD4
:10147000206803F089FF0646A8B195F8B430002B28
:10148000F4D02169206801F08BFA044658B102F0CB
:1014900021F80128EAD9054B0220074A26465B6B52
:1014A00004499847E2E70026E0E700BFA41C432078
:1014B0003C2D4100B02C4100582D410038B5044668
:1014C0000D464FF489730F4ACC21012001F0D2FF61
:1014D0006061A8B1284601F0EDFB2060284601F0CC
:1014E0009FFDA073284601F021FCB0FA80F3284646
:1014F0005B09E37300F080FC034B20610120A361D2
:1015000038BD00BF7C2D4100C42C41002DE9F04FB7
:1015100087B00025B0F80CB09946DDF840A01D70EA
:101520008AF80050C37B0091029303698DF816502E
:101530008DF817500668877B0193BBF1000F43D0ED
:101540000BF1FF330446904603930EE0A369204657
:101550001B6A98472FB1A36930465B6A98470028F9
:1015600037D00135ABB29B452ED9A36927B95B6A49
:101570003046984768B3A3699B690DF1160201993B
:101580003046984728B39DF816300BB999F80030CB
:10159000A0690DF1170289F800300099C36920464F
:1015A00098479DF8173080B20BB99AF80030B8F818
:1015B00000208AF800301044029BA8F80000002B9D
:1015C000C4D0039BAB42C1D1009B186807B0BDE8F3
:1015D000F08F002007B0BDE8F08F00BF08B52DEDFB
:1015E000028B08EE100A01F0E3FE9FED0A6A07EE97
:1015F000900AF7EE006A86EE277AB8EE488AB8FEBF
:10160000477A67EE877A86EEA70A80EE080ABDEC75
:10161000028B08BDF902154F2DE9F04F2DED068B19
:1016200089B08A46914606460693189F9DF864B095
:10163000BDF9668001F074FC002840F083803046DC
:10164000DFEDE48A01F046FB09EE100A3046BEEEFB
:10165000008A01F051FB07EE900A384679EE279A8E
:10166000FFF7BCFF39EE097A384620EE280AB5EEBE
:10167000C09AB6EE009AC7EE007AF1EE10FA54BFA7
:10168000B0EE497AB0EE487A77EE877AFDEEE77AE7
:1016900017EE905AFFF7A2FF39EEA97A20EE280A3A
:1016A000F5EEC09AC7EE007AF1EE10FA58BFB0EE30
:1016B000498A18F10B0F37EE888AFDEEC87A17EECB
:1016C000904A4BDBBBF1000F48D0C346F38D304648
:1016D000079301F079FC0128804609D9022823D01C
:1016E000631B93FBF8F208FB1238B8F1000F0EDC15
:1016F000AC4236DAB84B0020B84A5B6B8046B8493A
:101700009847404609B0BDEC068BBDE8F08F01F06C
:10171000E1FE012805D9B04B0220B24A5B6BB0490B
:101720009847A4EB0804E3E7EB07D9D401F0D2FE15
:10173000012805D9A84B4046AB4A5B6BA84998479E
:101740000135CDE7304601F04DFB0546304601F04E
:1017500051FB18F10B0F05EB0004B3DA6FF00B0B24
:10176000B4E7304601F018FC8046002840F048817C
:101770000BFB07FBAB4500F30F82079B4FEA431BB4
:10178000ABF14B0B07FB0BFBA34580F2398107EE56
:10179000904A914B3846DFED8F9AB8EEE79AD3F82E
:1017A0003490FFF71BFFF6EE008A904A384669EE48
:1017B000007A8F4B9FED87AA67EEA97A67EEA87A29
:1017C000F5EEC07AF1EE10FA4CBF92469A46FFF75A
:1017D00005FF384629EE008AFFF700FF69EE007A20
:1017E000384628EE298A67EEA97ADFED7A9A28EE44
:1017F000288A67EEA87AF6EE008AF5EEC07ADFED69
:101800007D7AF1EE10FA48BFB1EE488A38EE278AA9
:10181000FCEEC87A17EE906AFFF7E0FE384629EE34
:10182000008AFFF7DBFE69EE007A384628EE298A47
:1018300067EEA97AF6EE009A28EE288A67EEA87A73
:10184000F5EEC07ADFED6B7AF1EE10FA48BFB1EE3B
:10185000488A38EE278AFFF7C1FE384669EE008ACB
:10186000FFF7BCFE69EE007A07EE10BA384668EE64
:101870008A8A67EE8A7A9FED57AAB8EEC79A9FEDDB
:101880005E7A68EEA98A67EEA97ADFED529AF5EEE4
:10189000C07ADFED587AF1EE10FA48BFF1EE688AAF
:1018A00078EEA77AF6EE008AFCEEE77AF8EE677A31
:1018B00038EE678A68EE077AFCEEE77A17EE904A10
:1018C000FFF78CFE69EE007A484B494A384667EECE
:1018D000A97A67EEA87AF5EEC07AF1EE10FA4CBF5D
:1018E0009B469346FFF77AFE384629EE008AFFF7BB
:1018F00075FE69EE007A384628EE298A67EEA97AE5
:10190000DFED349A28EE288A67EEA87AF6EE008A90
:10191000F5EEC07ADFED377AF1EE10FA48BFB1EE9E
:10192000488A38EE278AFCEEC87A17EE905AFFF7FD
:1019300055FE384629EE008AFFF750FE69EE007A20
:10194000384628EE298A67EEA97AF6EE009A28EE44
:10195000288A67EEA87AF5EEC07ADFED267AF1EEF6
:1019600010FA48BFB1EE488A38EE278AFFF736FEF4
:10197000384669EE008AFFF731FE69EE007A534679
:101980009FED1D7A68EE8A8A002067EE8A7A1B4AEC
:10199000019468EEA98A009667EEA97ACDE902B5AE
:1019A000F5EEC07ADFED137AF1EE10FA48BFF1EEF2
:1019B000688A78EEA77AFCEEE77AF8EE677A08494B
:1019C00038EE678A68EE077AFCEEE77ACDED047AA6
:1019D000C84796E6C2F38E4DA41C4320282E410032
:1019E000D42D4100F42D41009C2D4100982D410043
:1019F00050824100BD37063500247449982E4100BD
:101A0000304601F0E1FAF18D0246E30FE80FA9F844
:101A100000109C4623440146284493FBF7F390FBB7
:101A2000F7F0A3EB0C03401A95FBF2F1013302FB34
:101A30001151A9F804001B1A11441FFA83FC1A9BC8
:101A400091FBF2F0BCFBF3FB02FB10111FFA8BF0D1
:101A500003FB1BCBA9F806C0A9F80210BBF1000FCD
:101A600000D00130A9F808003046079201F05EF975
:101A70008046304601F0C6F9079AB8F1040318BF52
:101A80000123012818BF0023184698467BB9B9F8EE
:101A900006301A998B420AD9CB4BCC4A5B6BCC49A6
:101AA0009847404609B0BDEC068BBDE8F08F38463C
:101AB0000792FFF793FD079A3846DFEDC68A07EED7
:101AC000902AB6EE008AF8EE677A27EE800A8AED51
:101AD000030AFFF783FD07EE905A3846F8EEE77ADF
:101AE00067EE807A67EEA87A67EE887ACAED007AA8
:101AF000FFF774FD07EE904A631B079AF8EEE77A4A
:101B0000B9F806109AED007A01FB07F4B9F808005D
:101B100027EE800AAAF8180095FBF7F607FB165582
:101B200020EE280A3D4420EE080A95FBF7F693FBC9
:101B3000F2F307FB1655013330EE477A8AED020ABD
:101B40009BB295FBF2F5B4FBF2F4B7FBF2F7069A01
:101B5000AAF816308AED017A93801A9B11818B4284
:101B6000108255801480D78010D29BB29382BBF133
:101B7000000F06D01A9B1A9AB1FBF3F302FB131164
:101B80008BB2069AD38201239846BAE50123984680
:101B9000069B9982D982B4E507EE905A8A4B384663
:101BA000DFED8C9AF8EEE78AD3F83490FFF716FD54
:101BB000B6EE009A884A384668EE807A874B9FEDE9
:101BC00085AA67EEA97A67EE897AF5EEC07AF1EE1A
:101BD00010FA4CBF92469A46FFF700FD384628EEB1
:101BE000808AFFF7FBFC68EE807A384628EE298A67
:101BF00067EEA97ADFED779A28EE098A67EE897A8F
:101C0000B6EE009AF5EEC07ADFED757AF1EE10FAD5
:101C100048BFB1EE488A38EE278AFCEEC87A17EE44
:101C2000906AFFF7DBFC384628EE808AFFF7D6FC87
:101C300068EE807A384628EE298A67EEA97A28EE7F
:101C4000098A67EE897AB6EE009AF5EEC07ADFED82
:101C5000647AF1EE10FA48BFB1EE488A38EE278A6E
:101C6000FFF7BCFC384668EE809AFFF7B7FC68EED9
:101C7000807A07EE10BA384669EE8A9A67EE8A7A59
:101C80009FED54AAF6EE008A69EE899A67EE897A8A
:101C9000B8EEC79A9FED537AF5EEC07ADFED507A31
:101CA000F1EE10FA48BFF1EE699A79EEA77ADFED0E
:101CB000499AFCEEE77AF8EE677A38EE678A68EEC2
:101CC000077AFCEEE77A17EE904AFFF787FC69EE99
:101CD000007A414B414A384667EEA97A67EEA87A06
:101CE000F5EEC07AF1EE10FA4CBF9B469346FFF733
:101CF00075FC384629EE008AFFF770FC69EE007A21
:101D0000384628EE298A67EEA97ADFED329A28EE66
:101D1000288A67EEA87AF6EE008AF5EEC07ADFED43
:101D2000307AF1EE10FA48BFB1EE488A38EE278AD1
:101D3000FCEEC87A17EE905AFFF750FC384629EEB1
:101D4000008AFFF74BFC69EE007A384628EE298AB4
:101D500067EEA97AF6EE009A28EE288A67EEA87A4E
:101D6000F5EEC07ADFED1E7AF1EE10FA48BFB1EE63
:101D7000488A38EE278AFFF731FC384669EE008A38
:101D8000FFF72CFC69EE007A53469FED167A68EE59
:101D90008A8A002067EE8A7A0194009668EEA98A02
:101DA000114A67EEA97ACDE902B5F5EEC07ADFED0A
:101DB0000C7AF1EE10FA48BFF1EE688A78EEA77A55
:101DC000FCEEE77AF9E500BFA41C4320D82E4100C1
:101DD000D42D4100C2F38E4D982D41005082410018
:101DE000BD37063500247449582E4100008901286A
:101DF00094BF00200120704710B582B0044601F066
:101E000001F8012811D0204601F004F89FED0A7A6C
:101E100007EE900AC7EE277A77EE877AFCEEE77A2C
:101E2000CDED017A019802B010BD4FF4FA63019331
:101E3000019802B010BD00BF0000FA4438B52DED86
:101E4000028B154608EE100A0C4601F0B1FA07EEB7
:101E5000900AC7EE887ABDEC028BFCEEE77A17EEAB
:101E6000903A1A0C9BB22A60236038BD2DE9F04FDE
:101E700087B01F461646009003919DF8404001F040
:101E80009DFA0023ADF814300493002F48D09C42F3
:101E900002934FEA5000039C14BF4FF4E0434FF409
:101EA0000043A0F1030A1BB201932CE0019B1FFA2F
:101EB00085F905F1030B214643EA060009F1FF3CD1
:101EC000029B4FEA4B089CFA9CFC40BA4246A38016
:101ED0002080A8F10608A4F802C04E44009801F042
:101EE0009DFA20465946B6B201F042FB0498BDF86F
:101EF00014207F1B2060A28044442068A2880490A4
:101F0000ADF814200CD0BA45554628BF3D46BA4519
:101F1000CCD2CBD0EB07C9D5013DEB07FCD4C5E74C
:101F20000398063007B0BDE8F08F00BF032070476C
:101F300010B541F4A04382B014BA06225BBA6946D8
:101F4000CDF80240ADF8003001F068FA02B010BDE3
:101F500038B51C4610601960154601F02FFA21684B
:101F6000884202D201F02AFA01462B680239023374
:101F700021F003012B60216038BD00BF2DE9F04145
:101F80009C1C07460D46164601F018FAA04207D2DF
:101F9000094B0020094A5B6B0949BDE8F04118472D
:101FA00045F4A0452246314638466DBA3580BDE835
:101FB000F04101F033BA00BFA41C4320042F4100BC
:101FC000242F41000331B0EB410F2CBF0120002032
:101FD000704700BF10B5002482B00094FFF746FFA1
:101FE00002B010BD70B505690446284601F0ECF951
:101FF0000A4905EBC503226B0968201DDB00483B3D
:10200000194400F0E7FD064618B101233046E3709D
:1020100070BD284601F0DEF9304670BD4C104020FE
:1020200038B5034604301D6900F0F8FD044630B9A8
:10203000054B064A5B6B06499847204638BD284643
:1020400001F0CEF9F9E700BFA41C4320602F410046
:10205000802F41002DE9F84300EBC004DFF88C80AD
:102060004FF0000C0E46E400D8F800300546174645
:10207000483C234483F841C001F0A6F9304600F003
:102080008BFD60B915492B46154A81464C6B1549A5
:10209000A047284601F09EF94846BDE8F883294646
:1020A0000A2001F04FFAD8F8002039463046224481
:1020B00000F076FD814650B908492B460A4A4C6B20
:1020C0000849A04729460B2001F03CFAE1E7D8F87F
:1020D000003001221C4484F84120F3E7A41C432073
:1020E000902F4100802F4100CC2F41004C10402008
:1020F000F8B5184E34780CB12046F8BD01F052F90D
:10210000154F00EBC0004FF496721449C00001F067
:102110008BF938600028EFD0254609E03B6803EBD7
:10212000C003184606F036FB80F8415080F8405056
:1021300001F038F9A0424FF0480204EBC4004FF020
:10214000000104F10104E9D801231C463370204644
:10215000F8BD00BF461040204C104020482F4100E1
:1021600010B5054C237803B910BD044B186801F075
:102170009FF90023237010BD461040204C104020D2
:102180002DE9F04745781E462DB10023337073705A
:102190002846BDE8F087DFF8E0C004460F469046C9
:1021A000DCF800C0D0F810A0BCF1000F14D0DCF8AF
:1021B0000C90B9F1000F0FD0C8470028E8D065781F
:1021C000002DE5D1012543463A465146012001F054
:1021D00087F92846BDE8F08700233370737094F8C0
:1021E0000090B9F1020F24D0B9F1010F27D0216B73
:1021F000201D00F01DFD436843B91B4918461B4ACA
:102200004B6B1B4998472846BDE8F087BB4225D158
:10221000438843451DD10278B9F1020F43783270EB
:10222000737010D0B9F1010FC9D12046FFF7F8FE45
:10223000C5E72046FFF7D6FE0028D8D1A8E75046CC
:1022400001F0D6F8D3E7504601F0C4F80023E3705C
:10225000B5E74FF4C571074800F0FEFC40F2891164
:10226000044800F0F9FC00BFA41C4320302F4100BB
:10227000802F4100482F4100481040202DE9F843AD
:10228000061D914605462C220C46304600211F466D
:1022900006F080FA1C4B4A4630461B686BB3D3F8F5
:1022A0000080B8F1000F28D03B462146C0470646C3
:1022B000204600F03BFDE8B1042818D000232B7025
:1022C000204600F09FFDB0FA80F320465B096B705A
:1022D00000F0A6FEA870204600F0ECFC3A4601464D
:1022E0001C23042001F016F93046BDE8F8830123D1
:1022F0002B70E5E702232B70E2E73B46214600F016
:10230000ABFB0646D4E700BF481040202DE9F84F4C
:102310000C46804608461D46164600F0CBFC074694
:10232000204600F075FE304B81461968B9B14B6804
:10233000ABB12A46204631469847054610B9284693
:10234000BDE8F88FB9F1000F19D1012532463946A1
:1023500020230D2001F0DEF82846BDE8F88FDFF8D5
:102360008CA007EBC702C8F83050DAF8003003EB56
:10237000C20313F8073C4BB3B9F1000F02D0A6F823
:102380001490E2E7204600F031FE0028DDD0D8F8B6
:10239000104008F10409204601F016F8DAF8005060
:1023A00004EBC401D8F83020484606F11403C900F4
:1023B0004839294400F0F8FB0546204601F00AF8A8
:1023C000002DC2D1484600F0DFFBB8E708F1040B4E
:1023D0002A4638465946FFF73DFE05460028CBD130
:1023E000584600F0D1FBAAE7481040204C1040208E
:1023F0001A4B1B6870B5044623B19B6813B1BDE846
:10240000704018472378022B08D02046FFF7EAFDDA
:1024100088B1A3782BB12378012B0FD00125284652
:1024200070BD251D284600F0FFFB20B1284600F0B6
:10243000E3FB0028EFD10025284670BD251D284666
:1024400000F0DAFB0028F6D0284600F0EDFB054648
:102450000028F0D02046FFF7E3FDE0E748104020D9
:10246000C37803B9704710B50446006900F0B2FFA5
:102470000023E37010BD00BF036973B103EBC30316
:10248000064ADB001268483B134493F840200AB91F
:1024900083F84120043000F077BB70474C10402097
:1024A0000069704770B50C4684B0114605461A465F
:1024B0002046089B04AEFFF74BFD002328462A2147
:1024C00026F8023D324603F079FABDF80E305B067D
:1024D00019D40024324611212846ADF80E4003F0ED
:1024E0006DFABDF80E3013F480661AD015492B46EC
:1024F000154A20464E6B1549B047284603F0BAFBF3
:10250000204604B070BD00F0E5FF30B10D492B4608
:102510000F4A01204C6B0D49A047284603F0AAFB47
:10252000D7E701248023022228462146009403F0A5
:1025300057FA8023284600961A46072103F050FADE
:102540002046DEE7A41C4320DC314100CC314100B1
:10255000A0314100F0B583B000240F46112102AA3A
:10256000064622F8024D03F029FABDF8060010F4E1
:1025700080650CD013493346134A20464D6B1349EE
:10258000A847304603F076FB204603B0F0BDB7F510
:10259000806F09D30B4928463B460D4A4C6B0B49CB
:1025A000A047284603B0F0BD2A461021304603F06C
:1025B00007FA304647F48062102103F001FA012047
:1025C000E3E700BFA41C43200C324100CC314100A2
:1025D0003C32410030B583B000231121054602AAE8
:1025E00022F8023D03F0EAF9BDF8060010F4806419
:1025F0000BD1094B2046094A5B6B0949984728468D
:1026000003F038FB204603B030BD28460122742178
:1026100003F0D6F90120F6E7A41C432078324100EC
:10262000CC3141000022742103F0CAB900B583B057
:102630000023112102AA22F8023D03F0BFF9BDF8E0
:102640000600C0F3802003B05DF804FB70B582B0D3
:1026500000233821054602AA22F8023D03F0AEF914
:10266000BDF8064064B908492B46084A20464E6B1F
:102670000749B047284603F0FDFA204602B070BD76
:10268000012002B070BD00BFA41C4320A430410053
:10269000CC31410070B50C4684B041B92B4B084693
:1026A0002B4A5B6B2B499847204604B070BD0DF157
:1026B0000E022821054603F081F9BDF80E20D3B2A1
:1026C000628023700B2B2CD8DFE803F0230806066A
:1026D00006060606060606060120E6E7120A102A86
:1026E00029D801261C48D1B206FA02F2104010B3D4
:1026F0004A1E164BD2B25E6B202A22D9174B184ABB
:1027000000201449B047284603F0B4FA002004B072
:1027100070BD0E492B46134A00204C6B0D49A04753
:10272000F1E70A4A002000950A49566B0E4AB04765
:1027300000232370E7E7054943F4045320224E6B3E
:1027400063800A4B53F82230D9E700BFA41C432012
:1027500018314100CC314100160001000831410020
:10276000503141002C31410070314100F02F4100C7
:102770002DE9F04F87B004460F4602F1010A02929C
:1027800000250393DFF8A0B0DFF8B090DFF8A08059
:1027900014E022F8023D204603F010F9BDF816308F
:1027A0005B0630D400F096FE23464A46414618B1F7
:1027B000DBF834600120B047AA4517D039462046DF
:1027C00000F026FE0135064606AA00232A2100282D
:1027D000DFD115492346154A4D6B1549A8472046B8
:1027E00003F048FA304607B0BDE8F08F00200E4AEB
:1027F00000940646546B029B0E4A0D49A047304692
:1028000007B0BDE8F08F03992046FFF743FF064667
:102810000028E7D104492346074A4C6B0449A047E6
:10282000304607B0BDE8F08FA41C4320AC32410015
:10283000CC314100F832410034334100D432410000
:1028400070B584B014461D46642203AB0646FFF7FC
:102850008FFF68B19DF80C30A3420BD0084A0020CE
:102860000849CDE90034084B546B084AA0470020C2
:1028700004B070BD002DFBD03046FFF7E7FEF7E750
:10288000A41C4320CC31410074304100C0334100CE
:1028900001230B22FFF7D4BF30B583B00D460446A9
:1028A000FFF798FE10B9002003B030BD2046FFF7B7
:1028B000CDFE0028F7D0294601AB64222046FFF761
:1028C00057FF0028EFD02046FFF7C0FE0028EAD0CF
:1028D0009DF80430022BE7D0054A0020BDF80630F1
:1028E000556B0449044AA847204603F0C3F9DAE7C8
:1028F000A41C4320CC3141005832410070B584B053
:1029000016466422054603ABFFF732FF044670B15A
:102910009DF80C30BDF80E20062B0BD01B49002073
:1029200000922B461A4A04464D6B1A49A847204686
:1029300004B070BD1005F1D512F4806316D00123E8
:1029400029460E20337000F0FDFDBDF80E20D105A4
:102950000ED49305EBD500F0BDFD0328E7D90B4B52
:1029600004200D4A5B6B0B499847E0E73370EEE7B4
:1029700000F0B0FD032805D9044B0420074A5B6B27
:1029800004499847BDF80E20E3E700BFA41C43208C
:102990005C334100CC314100A83341008C3341000D
:1029A00030B585B06422054603ABFFF7E1FE04466F
:1029B00040B90C492B460C4A4D6B0C49A8472046A0
:1029C00005B030BDBDF80E30062BF8D00024054A06
:1029D00000932B462046556B0449054AA8472046DC
:1029E00005B030BDA41C4320EC334100CC31410084
:1029F0002034410070B51546064600222B46FFF7ED
:102A0000E9FA044602462B463146002000F068FDF4
:102A1000204670BD30B585B0002404AA214622F8B6
:102A2000024D02F0CBFFBDF80E2041F212139A4284
:102A300009D0064920460092054A4D6B0549A84732
:102A4000204605B030BD0120FBE700BFA41C432099
:102A5000D8304100CC3141002DE9F0470C4692B00E
:102A6000804608469246994600F024F905462046DD
:102A700008F10C0700F014FAADF80400204600F04D
:102A8000FFF9ADF80600204600F01CFAADF808008A
:102A9000204600F06DF904232946ADF80A000DEB3D
:102AA0000302112000F01CFD20220021384605F011
:102AB00071FE38462368214698470646D8B1202241
:102AC00000210AA8002505F065FED8F824600495C9
:102AD0000AAA039503AB059521463846CDE906556C
:102AE000CDE908553568A847064640B9D8F82430DE
:102AF00038461B6B9847304612B0BDE8F087BAF1F4
:102B0000000F07D00AAD0FCDAAE80F0095E80F001F
:102B10008AE80F00B9F1000F10D003AD0FCDC9F84E
:102B20000000C9F80410C9F80820C9F80C3007CD16
:102B3000C9F81000C9F81410C9F81820204600F090
:102B400061F901281BD0204600F064F99FED0D7A51
:102B500007EE900AC7EE277A77EE877AFCEEE77ADF
:102B600017EE903A00223046C8F80030C8F8082026
:102B7000A8F8062088F8042012B0BDE8F0874FF4CA
:102B8000FA63EFE70000FA4420B1436A13B11B6B0C
:102B90000C301847704700BF436AC0685B6818472D
:102BA000436A0C30DB6818472DE9F041456A04465A
:102BB00000F10C06006AAD6817469846A84738B180
:102BC000636A4246394630461B69BDE8F041184702
:102BD000BDE8F08170B504461546D0E908039B684E
:102BE000984738B1636A294604F10C005B69BDE877
:102BF0007040184770BD00BF10B582B00021436A15
:102C0000044602AA9B6902F8011D0168C068984742
:102C100010B19DF80730237102B010BD436A0168FE
:102C2000DB6AC068184700BF436AC0685B6A184720
:102C3000F0B5002383B0051D466A471D0446436076
:102C4000821D83602B4600970C30B66AB047A060A7
:102C5000284603B0F0BD00BF00B5074A83B0034665
:102C6000002000910549546B054AA047054B1B689D
:102C700003B19847FEE700BFA41C43202035410064
:102C8000083541005010402008B10120704710B5B0
:102C9000044600F01FFC30B1034B0120034A5B6B7C
:102CA00003499847204610BDA41C43202837410003
:102CB0004437410010B50446FFF7E6FF00B1E06875
:102CC00010BD00BF38B50D460446FFF7DDFF00B16B
:102CD000E56038BD10B50446FFF7D6FF08B1606A5D
:102CE00010BD002010BD00BF38B50D460446FFF7EB
:102CF000CBFF00B1656238BD10B50446FFF7C4FFD5
:102D000008B1A06A10BD002010BD00BF38B50D4647
:102D10000446FFF7B9FF00B1A56238BD10B50446FF
:102D2000FFF7B2FF08B10123237110BD10B50446AF
:102D3000FFF7AAFF00B1606B10BD00BF38B50D46AC
:102D40000446FFF7A1FF00B1656338BD10B5044626
:102D5000FFF79AFF08B194F8450010BD38B50D464D
:102D60000446FFF791FF08B184F8455038BD00BF15
:102D700010B50446FFF788FF08B194F8460010BD6F
:102D800038B50D460446FFF77FFF08B184F846507A
:102D900038BD00BF10B50446FFF776FF08B194F8C0
:102DA000380010BD38B50D460446FFF76DFF00B181
:102DB000258738BD38B50D460446FFF765FF00B1DD
:102DC000256038BD10B50446FFF75EFF00B1608B8B
:102DD00010BD00BF38B50D460446FFF755FF00B1E2
:102DE000658338BD10B50446FFF74EFF08B1B4F94E
:102DF000300010BD10B50446FFF746FF08B1B4F926
:102E0000320010BD10B50446FFF73EFF00B1207937
:102E100010BD00BF10B50446FFF736FF40B123795F
:102E2000032B05D8DFE803F006060202A06810BDF8
:102E3000024810BD4FF0FF4010BD00BF0000C07F32
:102E400010B50446FFF720FF00B1608F10BD00BF32
:102E500038B50D460446FFF717FF00B1658738BD4A
:102E600010B50446FFF710FF00B1A08F10BD00BFE2
:102E700038B50D460446FFF707FF00B1A58738BDFA
:102E800010B50446FFF700FF00B1E08F10BD00BF92
:102E900038B50D460446FFF7F7FE00B1E58738BDAB
:102EA00010B50446FFF7F0FE08B1B4F8400010BDBD
:102EB00038B50D460446FFF7E7FE08B1A4F84050C8
:102EC00038BD00BF10B50446FFF7DEFE08B1B4F808
:102ED000420010BD38B50D460446FFF7D5FE08B1D7
:102EE000A4F8425038BD00BF38B50D460446FFF780
:102EF000CBFE08B184F8445038BD00BF10B504467D
:102F0000FFF7C2FE08B194F8440010BD38B50D4675
:102F10000446FFF7B9FE08B184F82C5038BD00BF55
:102F200010B50446FFF7B0FE08B194F82C0010BDB0
:102F300038B50D460446FFF7A7FE08B184F8525095
:102F400038BD00BF38B50D460446FFF79DFE08B1F9
:102F5000A4F8505038BD00BF38B50D460446FFF701
:102F600093FE00B1E58538BD10B50446FFF78CFE31
:102F700008B194F8630010BD10B50446FFF784FE55
:102F800008B194F8640010BD10B50446FFF77CFE4C
:102F900008B194F8650010BD10B50446FFF774FE43
:102FA00008B194F8660010BDF8B50F4616461D46E8
:102FB0000446FFF769FE28B184F85470A4F85660FF
:102FC000A4F85850F8BD00BF10B50446FFF75CFEEA
:102FD00008B1B4F8600010BD38B50D460446FFF7DF
:102FE00053FE08B1A4F8605038BD00BF10B50446C8
:102FF000FFF74AFE08B194F8470010BD38B50D46FA
:103000000446FFF741FE08B184F8475038BD00BFC1
:1030100010B50446FFF738FE08B1B4F84A0010BDF9
:1030200010B50446FFF730FE08B194F84C0010BD0F
:1030300038B50D460446FFF727FE08B184F84C501A
:1030400038BD00BF10B50446FFF71EFE08B1B4F846
:103050004E0010BD38B50D460446FFF715FE08B109
:10306000A4F84E5038BD00BF10B50446FFF70CFE63
:1030700008B194F8480010BD38B50D460446FFF776
:1030800003FE08B184F8485038BD00BF2DE9F04F69
:1030900093B0044600F01EFA01286DD95F4B20461C
:1030A000D3F834B0FFF7F0FD002868D182462046FF
:1030B000FFF7EAFD002869D094F8383020460F93D6
:1030C000FFF7E2FD002867D0638F20460E93FFF7DD
:1030D000DBFD002866D02046A58FFFF7D5FD002830
:1030E00066D02046E68FFFF7CFFD002866D0204649
:1030F000B4F84070FFF7C8FD002865D02046B4F84A
:103100004280FFF7C1FD002864D0636B042B7FD998
:10311000434B20461193FFF7B7FD002861D1414B87
:1031200020460D93FFF7B0FD002869D0204694F8A3
:103130004590FFF7A9FD002868D0B4F85A20204632
:103140001092FFF7A1FD109A08B194F84600099279
:1031500053460D9A0A9002200792119ACDF82090BA
:1031600002953149CDE905820E9A01920F9ACDE977
:10317000036700922D4AD84713B0BDE8F08F204670
:10318000D4F80CA0FFF780FD002895D10F902046C1
:10319000FFF77AFD002897D10E902046FFF774FDC7
:1031A000002898D105462046FFF76EFD002898D1EB
:1031B00006462046FFF768FD002898D107462046BE
:1031C000FFF762FD002899D180462046FFF75CFD9D
:1031D00000289AD1164B11932046FFF755FD002881
:1031E0009DD094F86230002B99D0124920460C4AA9
:1031F000012B18BF11460D91FFF746FD002895D110
:1032000081462046FFF740FD002896D1024696E70A
:10321000094A52F823301193DEE700BFA41C432073
:1032200050824100E436410044374100EC36410011
:10323000E0364100E83641002C35410038B50546FE
:10324000FFF722FD044648B16B6B042B08D92B4BCA
:1032500000202B4A5B6B04462A499847204638BD1C
:103260000AD0AB8F162B11D9244B0020264A5B6B5A
:10327000044624499847F1E700F0C2F890B91F4985
:103280000446224A4B6B1F499847E7E72B8F013BC7
:103290003E2B12D9194B00201D4A5B6B044619497D
:1032A0009847DBE72B79032BDBD1144B0020194A1D
:1032B0005B6B044613499847D0E76B6B2A794BB98F
:1032C000032A0CD10D4918461C46134A4B6B0D4975
:1032D0009847C3E7032A06D033F00403BED1012385
:1032E00085F84C30BAE795F84C000028F4D1034B30
:1032F00004460A4A5B6B03499847AFE7A41C432086
:103300004035410044374100DC354100583541002B
:10331000103641009835410064364100A036410026
:10332000436970B5466B3BB383692BB3836A1BB3A8
:10333000436A0BB3C36AFBB18368EBB1C368DBB10B
:103340000369CBB1F6B10368202B16D843680F2B65
:1033500013D9C3690BB1036A7BB104460A4D012638
:103360000FCC0FC50FCC0FC50FCC0FC594E80300D1
:1033700085E80300304670BD26B1044A00200449A8
:10338000B0470026304670BDA41C4320A037410042
:10339000203C410038220021014805F0FBB900BF64
:1033A000A41C4320014B1868704700BFA41C432095
:1033B000014BDB6A184700BFA41C4320014B58682F
:1033C000704700BFA41C4320014B5B69184700BF36
:1033D000A41C4320014B9B69184700BFA41C432039
:1033E000024BDB6903B11847704700BFA41C4320A0
:1033F000024B1B6A03B11847704700BFA41C43204F
:10340000024BD869003018BF01207047A41C43202C
:10341000014B5B6A184700BFA41C4320014B9B6A09
:10342000184700BFA41C43202DE9F0410D4C0F4666
:1034300090460646A3689847054630B9636B0A4A2A
:103440000A4998472846BDE8F081094B1B68002BC4
:10345000F8D01C683A4643463146A0472846BDE8A6
:10346000F08100BFA41C43207C374100203C410078
:1034700054104020F8B590B10C4611461A46A4FBF2
:10348000006777B904FB00F52846FFF7CDFF044637
:1034900018B12A46394605F07DF92046F8BD0446A4
:1034A000FBE7CF210148FFF7D7FB00BF8C37410076
:1034B000064B1B6810B504460BB15B689847044B7C
:1034C0002046DB68BDE81040184700BF541040207C
:1034D000A41C4320014B93F830007047A41C4320E8
:1034E00070B50B4C84B0012500EB40068DF804004C
:1034F00003FA05F004EB860302915C68039524B19E
:1035000011469B68024601A8A04704B070BD00BFE9
:103510001800402070B50A4C84B0154600EB4002FC
:103520008DF80400072604EB82000291039644689C
:1035300024B11A462946836801A8A04704B070BD8B
:103540001800402010B584B0084B0022029100EB17
:1035500040018DF8040003EB810303925C681CB109
:103560009B68114601A8A04704B010BD1800402078
:103570004A1E31B10388013A5BBA20F8023B531C62
:10358000F8D17047006800BA704700BF00BA086001
:10359000704700BF00487047B4374100343003F033
:1035A000BDB800BF70B50446343003F07FF868B989
:1035B000D4F88C2103460125D4F85C1104F5AC70D5
:1035C000136155719371BDE87040084770BD00BF2D
:1035D00038B50468054654B104F1340003F058F8D6
:1035E000D4F8B401FFF764FF2046FFF761FF2846D7
:1035F000BDE83840FFF75CBF2DE9F04F87B080464B
:1036000016460120039110210493F523934AFFF7F6
:1036100031FF0546F623914A4FF4DE710120FFF792
:1036200029FF0446002D00F01181002800F00E81D2
:1036300000F5CC7200F1140A00F1340728605346FB
:10364000009241463846324603F002F8034600280D
:1036500000F0C9800520B4F8988103F075F8B4F83B
:10366000A611B4F8983100FB08F2B4F8A4813046F2
:103670000B444FEA48014FEA4308884538BF884663
:10368000904538BF9046FFF7DDFC804538BF804647
:103690003046C4F8B881FFF795FB8146052003F05A
:1036A00053F840F2571200FB09806C49FFF7BCFE4B
:1036B0000346C4F8B401002800F09580B4F89AB12C
:1036C00004F110090590052003F03EF8B4F89C8140
:1036D00000FB0BFB052003F037F8059BA11D00FB49
:1036E00008B804F1070C04F10800221DA364C4F813
:1036F00080309844606630466465C4F85890C4F8D9
:103700009490C4F88420C4E9171CFFF76FFC059B54
:1037100018B1C4F8D090C4E92F3303EB0B01C4F8FF
:10372000F830C4F80C9104F5DA73C4F8FC10524672
:10373000C4F8301138463146C4F83481C4F8449195
:10374000C4F86881C4F88C4102F090FF0346002859
:1037500049D004F1700B00220521584602F0D8FD33
:103760003046FFF743FC002860D104F1E809B4F8C3
:103770009C21052104F59078484604F5AC7A02F0C6
:1037800027FE3046FFF71EFB0146404602F000FFD1
:10379000039B5046196802F049FF3846594602F02B
:1037A000DFFF3046FFF722FC28BB5846494602F0AF
:1037B000D7FF4846414602F0D3FF5146404602F04B
:1037C000CFFF384602F06EFF0646F8B9244B254A73
:1037D0005B6B2549984728463546FFF7F9FE284692
:1037E00007B0BDE8F08F28461D46FFF7F1FE2846DA
:1037F00007B0BDE8F08F04F1AC065846314602F040
:10380000AFFF4946304602F0ABFFD2E7384602F040
:1038100045FF04981549C4F890012846144A154BF1
:10382000C5E90112EB6007B0BDE8F08F3046FFF745
:103830001BFC0028228D4FF0050114BF1E234FF4FE
:10384000967304F1AC0002F035FE8EE728460025A1
:10385000FFF72EFE2046FFF72BFEC8E7E4374100B6
:10386000A41C43200038410020384100A535400009
:103870009D354000D1354000800080B200EB5103FF
:1038800010809BB28B42538014D3508030B4B3FB72
:10389000F1F4002501FB1431012403239581948068
:1038A000D480548114825482D581958211801381F1
:1038B00030BC704701230021032093805381938102
:1038C0001382D180518291821081D081704700BFD4
:1038D0002DE9F04F8BB0914604460025069309ABC5
:1038E00005900A4607912146D9F80000009308ABDD
:1038F000CDE90855FEF7D6FD002865D0099BDFF815
:10390000FCA21C46C5F52C63089EB34AAFB29C428C
:10391000304602EB05014FF0000B28BF1C46224643
:103920001FFA84F804F038FED9F804301D2230461E
:103930003946019300925346424602F0EDFFD9F812
:1039400008301B22394630460193009253464246C6
:1039500002F0E2FF4FF01C0CD9F80C304246394619
:103960003046CDE900C3534602F0D6FFB9F810C087
:103970001923424639463046CDE9003C534602F011
:10398000CBFF1023424639463046CDE900B35346BB
:1039900002F0C2FF2346C5F38F01059AD9F8000053
:1039A000FEF7ECFA099C2544B5F52C6FAAD3182133
:1039B000D9F80000FEF7CEFD064678B9874B884A55
:1039C0005B6B8849984705E0844B0646864A5B6BEB
:1039D0008449984730460BB0BDE8F08FD9F80040D5
:1039E0005B4603224FF4FA612046FEF729FF38B9FF
:1039F0007A4B00207D4A5B6B06467A499847E9E797
:103A000009AA9D21204601F0D9FFBDF824500520C8
:103A1000012305F0070509AA2146ADF82450FFF758
:103A20005FFD2046FEF712FE0028E1D04FF4407300
:103A3000D9F80050BDF82460ADF824302846069B24
:103A40001E60FEF7F3FD044668B1644C2B465846F1
:103A5000674A656B6349A8470020636B654A614903
:103A600006469847B6E713230196634E0246009335
:103A70002846624BA3465849029602F0F3FF012301
:103A8000DFF85891224600932846029601945B4B3A
:103A9000514902F0E7FF09AB21212846002213F823
:103AA0000BA0554B009102934B49544BCDF804A009
:103AB00002F0D8FF40F2CD112846FEF74BFD78B159
:103AC000002309224FF4FA612846FEF7B9FE70B9C7
:103AD000424C5346656B4A4A00204249A847BBE71F
:103AE0003E4C5346474A656B3E49A847B4E7102110
:103AF0000798FEF767FA28B9384C434A636B39498F
:103B00009847E6E71023002205992846FEF762FA57
:103B100010230246294604460020FFF7E1FC284610
:103B2000FEF794FD06460028D2D04FF00008234649
:103B300004F11E0C47465A8833F8021B17448A4288
:103B4000A2EB010038BF881A804538BF80469C45EB
:103B5000F1D1284602F0BCFAF0B9102221462846DD
:103B600002F014F82488294B40F6B8323C44284629
:103B700024092344B8F5487F98BF93428CBF01279E
:103B8000002702F0A5FA002846D197B1BBF1000F3B
:103B90000DD14FF0010B7EE7FFF79CFC0128DCD92B
:103BA000D9F8343002201A4A0E499847D5E70B4C11
:103BB00052E7069B83F804A0FFF78CFC01287FF6F0
:103BC00009AF06990220054A0B79546B0093114AFC
:103BD0000B680449A047FDE62C464100A41C432085
:103BE000983841007838410034384100CC384100E1
:103BF000E4384100CC394100311F40008852410077
:103C0000A03941001839410058394100E886FFFFCA
:103C100070394100E4394100FFF75CFC0128B4D958
:103C2000CDF8008023460220D9F83440014A0249E9
:103C3000A047AAE788394100783841002DE9F04FC4
:103C4000B1F5457F2DED068BCBB0149012930CD2BD
:103C50004E4B00204E4A5B6B04464E499847204627
:103C60004BB0BDEC068BBDE8F08FA1F51673154681
:103C7000A1F545721499B2F5007F0B440E9201EB49
:103C8000020A1993C0F06284434BA846DFF8FCB0E7
:103C900010930223DFED418A9FED418A1393CDF803
:103CA0007CA0D8F8000002F013FA002840F0148439
:103CB000139A00263B495300199F9FED3C9ACC185C
:103CC0001D93DDF85090A246144626E037F8323BAB
:103CD000B6EE006A07EE103A109BB8EE477AB3F9D9
:103CE0000050BAF9003027EE287AED1A2BB237EEE1
:103CF000467A06EE903A24AB67EE087AF8EEE66A6A
:103D000027EE897A76EEC77AFDEEE77A17EE902AEB
:103D100023F8162001360C2E4AD0D8F8000002F005
:103D2000D7F930BBD8F804503B46D8F800003DAA7C
:103D30003E95D8F80850B8F810C03F95D8F80C5008
:103D40003D9048464095D8F814500E994495D8F8BF
:103D5000185042944396ADF804C1459501F036FCE5
:103D60000028B3D1044620464BB0BDEC068BBDE81D
:103D7000F08FFFF7AFFB012833460B4A05494FF0A0
:103D80000200CFD9DBF83450A847CBE7A41C43206E
:103D90007C374100083A4100DC4441000000803794
:103DA0009A99993FD0444100543A410000007A4426
:103DB000D8F8000002F08CF9002840F0E0830C22D3
:103DC00024A9D8F8000001F0E1FE0C2021AA24A9C2
:103DD00000F00CFDD8F8000002F07AF9002840F05D
:103DE000C28321AB0C22D8F800001946119301F0D0
:103DF00059FEDDF87CA0119BD8F800001A4612F895
:103E0000013B0993119202F063F9002840F07E8192
:103E1000D8F8000002F05CF9002840F06A81099BA4
:103E20003DAA199E192003EB830430AB2DB204EB9D
:103E3000840406EB4401159102F0A4FE36F8143018
:103E400007EE905AF6EE005A1FED286A07EE103A78
:103E5000F8EEE76A1C90B8EE477A67EE287A77EEBC
:103E6000E57A67EE887A27EE867A76EEC77AFDEEF7
:103E7000E77A17EE902A16B2002800F0BD823DAA1C
:103E8000431E07EE906A0F960B929BB20DF1F6025D
:103E9000B8EEE79A02EB43031A930B9BF6EE006A27
:103EA000A14A33F8024B9FEDAD7A0B934AAB03EB7B
:103EB000440333F8685C2B460D95A2FB0332159B37
:103EC000C2F3870233F8123007EE903AF8EE677AC1
:103ED00067EEA87A77EEE67A67EE887A67EE877AF9
:103EE00077EE897AFDEEE77A17EE903A1BB20A93E5
:103EF000FFF7F0FA032807D923460095DBF8344092
:103F000004208A4A8A49A047D8F8000002F0E0F865
:103F1000002840F0AF80D8F8000002F0D9F800285F
:103F200040F0BB80D8F8000002F0D2F8002840F042
:103F3000C7800A9BA3F21A439BB2C82B00F22B83C3
:103F4000D8F8000002F0C4F8002840F0C6807C21B8
:103F50001B202AAA4FF00009FFF78EFCD8F80C703E
:103F6000B8F810C001236FF0010E16260F250724A4
:103F70000620D8E90121CAF80870CAF80020AAF87A
:103F80000CC0BDF8AEC0CAF804100321D8E9057210
:103F9000CAF84890CAE90472BDF8A8700D9ACAF828
:103FA0002870BDF8AA70CAF81820CAF82C70099AAF
:103FB000BDF8B070CAF81C20139ACAE90CC7BDF846
:103FC000B4C0BDF8B670CAF82020CAE90EC7BDF863
:103FD000BAC0BDF8BC708AF8B530CAF88840CAF8D3
:103FE000A0E0CAF884908AF88C908AF88D90CAE98B
:103FF00010C7CAE91F65CAE91339CAE91593CAE9A6
:104000001B33CAE91D39CAE92B39CAE92601CAE9B5
:104010001799CAE91999CAE92499CAE92999FFF7B0
:10402000C7F99AF88C30CAF8B8002AA98AF8B4906F
:1040300050460C93D8F80070DAF89C40DAF8AC508F
:10404000DAF8806001F0D6F92B9A2F9B9A4240F063
:104050008780384B4846384A5B6B35499847FFF7AD
:1040600039FA28B1334B0120344A5B6B3049984709
:104070000024F4E5FFF72EFA01287FF64CAF02206A
:10408000DBF834400D9B2E4A2949A047D8F80000A0
:1040900002F01EF800283FF445AFFFF71BFA012895
:1040A0007FF640AF0220DBF834400A9B254A2049C6
:1040B000A047D8F8000002F00BF800283FF439AF11
:1040C000FFF708FA01287FF634AFDBF8344002200E
:1040D0000F9B1D4A1649A0472BE7FFF7FBF9012864
:1040E0007FF635AFDBF834300220184A1049984784
:1040F0002DE7FFF7EFF901287FF691AEDBF83440AA
:104100001B23134A02200A49A04788E6FFF7E2F979
:1041100001287FF67DAEDBF834400220099B0D4A72
:104120000349A04774E600BFCDCCCCCCB03A4100E7
:10413000083A4100A41C4320483B4100083D41008F
:10414000C83A4100DC3A4100EC3A4100243B4100CE
:104150009C3A4100543A41000000F84200007A4481
:1041600053460E9A14993846DDF8A89000F08EFC5C
:1041700000283FF474AF07EE905A5FED096A0134EE
:10418000CDF87880F8EE677AD046A4B286EEA77AAA
:10419000FCEEC77A17EE903A9BB204FB03952B46D0
:1041A00035461E46384601F0EFF800283FF457AF79
:1041B000CDF85C804FF0000A1FED18AAB04620AB86
:1041C00064224FF4FA613846FEF7D2FA00283FF431
:1041D00046AF9DF88030062B7FF441AF1FFA88F37D
:1041E0000E9819461693FDF7EDFE002800F0DF81CA
:1041F000424614993846FEF7FDFB814600283FF4FD
:104200002EAF2A98C04AA8EB000109EB40004900F4
:1042100001F068FF002840F0AE80002D40F0CD8115
:104220000C9B002B40F00282FFF754F9032805D9BC
:10423000DBF834300420B54AB54998472A98B54A86
:10424000A8EB000109EB4000490001F04BFF0028FA
:1042500040F002822C9BF6EE007A129E384639F826
:104260001310179B06EE901A7561AB49F8EE666A5B
:104270001A6AAA4B31F8124066EEA86A2D9933F8F3
:10428000123039F811101B1B76EEE76A07EE101A90
:104290002E9A19B2B8EE477A39F8123066EE886A6B
:1042A00009EE901A1B9327EE287A0C99B8EEE96A6A
:1042B00066EE8A6A317677EE677A36EE667A67EE70
:1042C000887ABDEEC77A67EE8A7A17EE103A1CB28A
:1042D00007EE104AB8EEC77A77EE877AFDEEE77AF6
:1042E00017EE903A1BB2189301F0F2FE002840F04E
:1042F000E780384601F0ECFE002840F0C2803846E6
:1043000001F0E6FE002840F0CE80384601F0E0FEE5
:10431000002840F097800F9B1B1B002BB8BF5B420F
:104320001BB2642B13DCA4F54374A4B2B4F5E67F8E
:104330000DD80A9B189A9B1A002BB8BF5B421BB280
:10434000642B04DC19EE903A934280F2B881BAF102
:10435000020F2FD0FFF7BEF8032806D9DBF8344050
:1043600053466F4A04206A49A04738460AF1010AB9
:10437000FEF76CF923E72A98664AA8EB000109EBDF
:104380004000490001F0AEFE00283FF463AF0F2D5E
:1043900040F062810C9B002B00F07381FFF79AF8CC
:1043A00003287FF657AFDBF8343004205D4A5849C4
:1043B00098474FE7DDF85CA0DDF87880FFF78AF8D2
:1043C000032805D9DBF834300420574A5049984770
:1043D00038464FF4FA61FEF75FFAFFF77BF80228E0
:1043E00005D9DBF834300320504A494998471A9BD5
:1043F0000B9A93427FF451ADFFF76CF8032808D96C
:104400001C9B0420DBF834400093494A099B404937
:10441000A047FFF75FF8032808D9099B0420DBF8C1
:1044200034400093434A139B3949A047119B24AA67
:104430009A42109B5ED0B3F900501D9A364B9B5E9A
:10444000ED1AD8E4FFF746F801287FF664AFDDEDFA
:104450001B7AB6EE007A384A0220F8EE677A2C49C9
:10446000DBF8346067EEA87A77EEC77A67EE887A71
:1044700067EE8A7AFDEEE77A17EE903A1BB2B04704
:1044800049E7FFF727F801287FF639AF02202346D6
:104490002A4A1F49DBF83460B047384601F018FE5D
:1044A00000283FF432AFFFF715F801287FF62DAF53
:1044B000189B0220224A1649DBF83460B04724E7F3
:1044C000FFF708F801287FF614AFDBF8343002203C
:1044D0001C4A0F4998470CE7FEF7FCFF01287FF6BE
:1044E000E7ABDBF834400220139B174A0849A0478A
:1044F000FFF7DEBB023B1093139B012B3FF4B8ADDB
:1045000001231393FFF7CDBB982C1742903B41003A
:10451000083A4100ADA82C40D0444100D8444100A5
:10452000AC3C4100E43B4100D43C4100583D4100DB
:10453000743D4100D83D4100983C4100703C410031
:10454000843C4100603C4100443A4100FEF7C2FF18
:1045500001287FF699AB914B0220914A5B6B914900
:104560009847FFF791BBFEF7B5FF01287FF639ACFE
:10457000DBF8343002208C4A8A49984731E4FEF750
:10458000A9FF01287FF61BACDBF834300220874AF4
:104590008449984713E4FEF79DFF03287FF62CAF6C
:1045A000DBF834300420824A7E49984724E77B4B6D
:1045B000804A5B6B7B49984751E5082D2B46464660
:1045C000DDF85C8038BF0823A3F10805FEF782FF01
:1045D000032806D9DBF834402B46774A042071497A
:1045E000A0474FF4FA613846FEF756F93846FEF711
:1045F0001DF8044600285AD1DFF8EC913723024613
:10460000019538460093CDF808906C4B6C4902F048
:1046100029FA0C993523CDF8089001912246009390
:104620003846664B664902F01DFABBE54646DDF8A2
:104630005C80FEF74FFF032805D9DBF834300420F7
:10464000604A584998474FF4FA613846FEF724F912
:1046500000230F250C93C9E705F108034646DDF852
:104660005C800F2B28BF0F231D46FEF733FF032866
:10467000B7D9DBF834402B46534A04204949A047B8
:10468000AFE746460446DDF85C80FEF723FF0328CB
:1046900005D9DBF8343004204C4A424998474FF49E
:1046A000FA6138460C940025FEF7F6F89EE73B4980
:1046B0003B46474A00204C6B3A49A047CFE44FF4B1
:1046C000FA613846DDF85CA04546DDF87880FEF7F3
:1046D000E3F8384601F0FCFC002854D12A9938460A
:1046E000169B5A1A09EB410192B201F04FFA2A982F
:1046F000291A09EB400000F033F900283FF46DAEB1
:10470000129D04460D981B230F9F28600A98EF8185
:104710002882AB81DDF82480FEF7DCFE032808D96F
:104720002A6843461D4904204D6B00921D49294AC1
:10473000A847FEF7CFFE01281ED9129F0220264966
:104740003E7E264A154D002E18BF0A463E46396861
:10475000BF8906923246CDF80080B6F90E606D6BC7
:104760000191B2F9101002975269139B05921C4AED
:10477000CDE903610B49A847129B139AC3F8048043
:104780009A60FFF76CBAFEF7A5FE0128A6D9DBF800
:1047900034300220134A034998479FE7A41C432062
:1047A000183A4100083A4100843A4100683A410011
:1047B000FC3A410058394100B03B4100B47C410013
:1047C0003C674100683B41002C3C4100043C4100F7
:1047D000E4384100283D4100F8394100003A4100E9
:1047E000A83D4100EC3C4100311F40002DE9F0475D
:1047F00084B0002800F0A4800C2800F29D800024E2
:10480000F6EE003A8D1E0DF1040C2646571E9FED64
:104810004E4A00F1FF3EDFED4D4A40F213589FED46
:104820004C5ADFED4C5A9FED4C6A26E0994507DD66
:10483000B5F902A0C145D8BF9A4501DA434563DD09
:10484000F0EE456AA3F57A73013407F8016F002B87
:10485000E6B2B8BF5B42B04207EE903AF8EEE77AB4
:1048600087EEA57A67EE067A77EEA67AFCEEE77A0F
:1048700017EE903A0CF8013B1BD935F9023F002C9A
:104880004BD0A64535F9029CD0D19945D8DDC1451C
:10489000D6DCA3EB090907EE909AF8EEE77AF4EE7E
:1048A000C47AF1EE10FA54BFF0EE456AF0EE646A95
:1048B000C8E7023802F1010CC7B2FF2F21D013461E
:1048C0000CEB070E0021187804AD13F8014F2E18D9
:1048D000254416F80C6C15F80C5CAE4204D9013175
:1048E00003F8014C1870C9B29E45ECD1003107F1B4
:1048F000FF3318BF0121002F08BF0021DFB20029BC
:10490000DBD104B0BDE8F087AAEB090907EE909A65
:10491000F8EEE77A67EEA37AC1E7B1F900A0B1F942
:104920000290CA458CDDC2458ADCA9EB0A0907EE74
:10493000909AF8EEE77AB2E71F210848FEF78CF963
:104940001A210648FEF788F90000C8C200000000DE
:104950000000484200007A440000C842143E410072
:104960002DE9F043424F85B002468046A7FB013750
:10497000BF083B4607EB870101F044FC97B3A8F161
:10498000020C7D00002162460CEB0500634633F803
:10499000024FA14238BF21468342F8D1354B022F46
:1049A000A3FB0131C1F34F0917D9A8F1060008F1A3
:1049B00002010226284431F8024F32F8025F2346F2
:1049C000A54201D92C461D464C4502D9B4EBC50F72
:1049D00012D8824206F10106EDD17A0802F10803ED
:1049E000BB421CD9244B0020244A5B6B24499847C6
:1049F000002005B0BDE8F083FEF76CFD03280AD95E
:104A00001D4A3346CDF8089004201D49CDE90045E4
:104A1000546B1C4AA047002005B0BDE8F08308F1A4
:104A20000E0000243CF8021F60450C44FAD193426A
:104A30001CD908EB42080025013238F8021B9342CA
:104A40000D44F9D804EB8403AB4201D80120D0E730
:104A5000FEF740FD0328DED9074A234600950420CF
:104A6000546B0749084AA0470020C2E70025E9E740
:104A7000CDCCCCCCABAAAAAAA41C4320B43E410006
:104A8000943E4100383E4100C43E41002DE9F04FC4
:104A90002DED028B91B000249B460FAD0EAB0B9019
:104AA00000950E940C910F94FDF7FCFC0D900028DE
:104AB00000F055840F9BA146DFF80CA09FED018A02
:104AC00058E000BF17B75137B47C410003212320C1
:104AD00053463246019129460090204601F01CFFC2
:104AE0000022712153460192204632460091294608
:104AF00001F012FF012275215346019220463246F1
:104B00000091294601F008FF0222692153460192D3
:104B1000204632460091294601F0FEFE9BF8B41073
:104B2000452053463246019100902946204601F027
:104B3000F3FEDBED2E7A20465C2367EE887A324660
:104B4000294600935346FCEEE77A17EE904A013C63
:104B5000A4B2019401F0E0FE029B0C9AC9F38F010C
:104B60000B98FDF70BFA0F9B40F6B3529944914511
:104B700000F2F58340F6B4520E9CC5491FFA89F540
:104B8000A2EB0902204649443F279A4228BF1A4611
:104B900096B2029203F000FDDBF800304FF0430CB8
:104BA00032462046294601935346CDF800C001F015
:104BB000B3FEDBF804304FF0410C32462946204664
:104BC00001935346CDF800C001F0A6FEDBF8083093
:104BD0004FF0420C324629462046CDF800C00193E2
:104BE000534601F099FEBBF80C3032462946204668
:104BF000CDE90073534601F08FFEDBF810304FF023
:104C0000260C32462946204601935346CDF800C073
:104C100001F082FEDBF814304FF0670C3246294673
:104C2000204601935346CDF800C001F075FEDBF835
:104C300018304FF0540C3246294620460193534613
:104C4000CDF800C001F068FEDBF81C304FF02A0CF4
:104C500032462946204601935346CDF800C001F064
:104C60005BFEDBF820304FF06A0C324629462046C6
:104C700001935346CDF800C001F04EFEDBF828301A
:104C80004FF05D0C32462946204601935346CDF83D
:104C900000C001F041FEDBF82C304FF05E0C3246D4
:104CA0002946204601935346CDF800C001F034FE5A
:104CB000DBF830304FF0190C32462946204601937C
:104CC0005346CDF800C001F027FEDBF834304FF03A
:104CD0001A0C32462946204601935346CDF800C0AF
:104CE00001F01AFEDBF838304FF01B0C3246294633
:104CF000204601935346CDF800C001F00DFEDBF8CD
:104D00003C304FF01C0C3246294620460193534656
:104D1000CDF800C001F000FEDBF840304FF01D0C74
:104D200032462946204601935346CDF800C001F093
:104D3000F3FDDBF844304FF01E0C32462946204686
:104D400001935346CDF800C001F0E6FDDBF8483092
:104D50004FF0470C32462946204601935346CDF882
:104D600000C001F0D9FDDBF84C304FF0480C324662
:104D70002946204601935346CDF800C001F0CCFDF2
:104D8000DBF850304FF04A0C32462946204601935A
:104D90005346CDF800C001F0BFFDDBF854304FF0B2
:104DA0005F0C32462946204601935346CDF800C099
:104DB00001F0B2FDDBF858304FF07A0C324629464C
:104DC000204601935346CDF800C001F0A5FDDBF865
:104DD0005C304FF0560C324629462046019353462C
:104DE000CDF800C001F098FDDBF860304FF0570CB3
:104DF00032462946204601935346CDF800C001F0C3
:104E00008BFDDBF864304FF0330C324629462046E8
:104E100001935346CDF800C001F07EFDDBF8683009
:104E20004FF0340C32462946204601935346CDF8C4
:104E300000C001F071FDDBF86C304FF0660C3246BB
:104E40002946204601935346CDF800C001F064FD89
:104E5000DBF870304FF0460C32462946204601936D
:104E60005346CDF800C001F057FDDBF874304FF029
:104E70002C0C32460193294653462046CDF800C0FB
:104E800001F04AFDDBF87430002B40F0F88101E0BE
:104E90003C674100DBF878104420534632460191CC
:104EA00029460090204601F037FDDBF87C206B217D
:104EB00053460192204632460091294601F02CFDCE
:104EC000DBF880203721534601922046324600917C
:104ED000294601F021FDDBF884203621534601925A
:104EE000204600913246294601F016FDDBF8887015
:104EF000BBB2082B00F2AF81984600276021CDF8A5
:104F000004805346324600912046294601F004FDB4
:104F10004B225346CDF80480009229463246204663
:104F200001F0FAFC6221504601F028FE64210A904B
:104F3000504601F023FE63210390504601F01EFE0F
:104F40004D218046504601F019FE4F2104905046F5
:104F500001F014FE4E210590504601F00FFE3D2158
:104F60000690504601F00AFE38210790504601F0A5
:104F700005FE22210890504601F000FE0A9B099090
:104F8000324643EA070162232046009353460191CB
:104F9000294601F0C1FC039A642153463A43204656
:104FA000009129460192324601F0B6FC48EA070218
:104FB000632153460192204632460091294601F072
:104FC000ABFC049A4D2153463A43204600912946B2
:104FD0000192324601F0A0FC059A4F2153463A4314
:104FE0002046009129460192324601F095FC069A2E
:104FF0004E2153463A4320460091294601923246BB
:1050000001F08AFC079A3D2153463A43204600911D
:1050100029460192324601F07FFC089A3821534616
:105020003A432046009129460192324601F074FC31
:10503000099B222132463B432046009129461F46C8
:105040005346019701F068FCDBF890205821534645
:105050000192204632460091294601F05DFCDBF8C2
:105060009420592153460192204632460091294608
:1050700001F052FCDBF8982005215346204602FA45
:1050800001F7009132462946073F019701F044FCA1
:10509000DBF89820242153465701204632460091E0
:1050A000033F2946019701F037FCDBF898202521C2
:1050B000534657012046324600917F082946033F58
:1050C000019701F029FCDBF89C202921534601922D
:1050D000204632460091294601F01EFCDBF8A02054
:1050E0005021534602F10E003246009129460190AC
:1050F000204601F011FCDBF8A430002B40F0818049
:10510000DBF8A830002B53D19BF88D30002B3AD11F
:10511000DBF8AC7006215346324607F1FF3C0091A4
:1051200020462946CDF804C001F0F6FB4FF0040CF0
:10513000552053463246294600902046BCFBF7F7DF
:10514000013F019701F0E8FBDBF8B0205321534603
:105150000192204632460091294601F0DDFB9BF882
:10516000B520392153460192204600913246294606
:1051700001F0D2FB9BF8B530002B7FF4A7AC019374
:1051800023215346C4E400212E2053463246019188
:1051900029460090204601F0BFFBFEF79BF901284D
:1051A000B6D9724B0220724A5B6B72499847AFE7DF
:1051B0005A21504601F0E2FCDBF8A8705A21534610
:1051C000074432460091804629462046019701F067
:1051D000A3FBFEF77FF9012807D964494346664AD5
:1051E0000220D1F834806349C047FEF773F90128E3
:1051F0008AD95E493B46614A02204F6B5D49B847F8
:1052000082E71F21504601F0B9FCDBF8A4701F2192
:10521000534607443246009180462946204601976E
:1052200001F07AFBFEF756F9012807D94F494346AA
:10523000534A0220D1F834804E49C047FEF74AF95C
:1052400001287FF65DAF49493B464E4A02204F6B2D
:105250004849B84754E702215B20BFB25346019149
:105260003246009029462046083F01F055FBFF23B7
:105270004FF0080803FA07F707F47F473EE60121DD
:10528000102053463246019129460090204601F0F5
:1052900043FB4FF680781221534632462046009158
:1052A0002946CDF8048001F037FB142253462946E5
:1052B000009220463246019701F02EFB1122534600
:1052C0002946009220463246CDF8048001F024FBA6
:1052D000002213215346019220463246009129466E
:1052E00001F01AFB4FF6C072152153460192204679
:1052F00032460091294601F00FFB162253462946FB
:10530000009220463246019701F006FB4FF6F072FC
:105310000E2153460192204632460091294601F063
:10532000FBFA0F2253462946009220463246019747
:1053300001F0F2FA4FF6FF72172153460192204610
:1053400032460091294601F0E7FA182201975346A8
:10535000009229463246204601F0DEFA9AE50D9881
:1053600011B0BDEC028BBDE8F08F00BFA41C432040
:105370002C404100903F4100DC3F4100044041008F
:10538000583F4100A43F410010B50446FDF74AF9DB
:1053900040F229212046BDE81040FDF7DBB800BFF0
:1053A0002DE9F0414C6884B00F4E50220F4D0E3461
:1053B0000F4F8C46009233460194294602970022F3
:1053C000DCF80080044601F04DFB292220463346DC
:1053D000009229460022CDE9018701F043FB01201C
:1053E00004B0BDE8F08100BFB47C41003C674100DF
:1053F000311F400090F8B53033B9C1E90033C1E93D
:105400000233C1E90433704710B40322012400239E
:1054100002200A604A61C1E90340C1E901335DF835
:10542000044B70472DE9F04383B04FF0000C92F825
:10543000B5400A9E86F800C014B903B0BDE8F083F9
:105440001D461B68884607465B00144603F01F0391
:105450002B60FEF73FF8032807D9174A04202B6872
:10546000D2F834901549164AC847B4F92430414659
:10547000228C3846B4F92640009400F0D9F9B0B136
:10548000286800F079FA02280446D6D9FEF722F8F7
:1054900040B10948052123460A4A446B0120009186
:1054A0000649A0470123337003B0BDE8F0832868A4
:1054B00040F001002860E4E7A41C4320903F410035
:1054C000043F41001C3F4100D0ED006AB6EE006A87
:1054D000DFED335A9FED337AC5EEA67A9FED325A4F
:1054E000DFED325A36EEC77A27EE057A37EE257AA7
:1054F000BCEEC77A77EE867A17EE103AFCEEE77AC2
:105500000B8117EE903A9BB2A3F1100292B2EF2AF0
:1055100024D9F5EEC06A264B10B5F1EE10FA82B030
:105520005C6B36D4234BDFED247A00209FED237A89
:1055300076EEA76A224A2349FCEEE67AB8EE676A5D
:10554000CDED007A76EEC66A66EE876AFCEEE66A14
:10555000CDED016AA047002002B010BD3F2B09D855
:1055600000202F2B88BF1A460B804880C88001205E
:105570008A8070470122BF2B4A800ED8A3F14000D9
:10558000C0F3CF0003F0070288800B800120CA809F
:105590007047F1EE666A0C4BC5E7D808F2E700BF2A
:1055A000F902154F8096984BE8385BB500007C42B5
:1055B000A41C432050824100BD37063500247449A5
:1055C0004840410074404100982D41002DE9F04FC2
:1055D0008FB01546834600240DAE28680A460A910E
:1055E0000B93594600960CAB0990CDE90C44FCF79F
:1055F00059FF002800F08980A1460D9BDFF82CA2FE
:10560000C9F554680C9C814A1FFA89F698452046D2
:1056100002EB090128BF984642461FFA88F702F0BC
:10562000BBFF6B681E222046314601930092534611
:105630003A4601F071F9AB681C22314620460193CD
:10564000009253463A4601F067F9EB684FF01D0CA3
:105650003A463146204601935346CDF800C001F04A
:105660005BF92B8A4FF01A0C3A46314620460193DB
:105670005346CDF800C001F04FF9EB694FF0100C24
:105680003A463146204601935346CDF800C001F01A
:1056900043F92B6A4FF02F0C3A46314620460193CE
:1056A0005346CDF800C001F037F9AB694FF0120C4A
:1056B0003A463146204601935346CDF800C001F0EA
:1056C0002BF96B694FF0310C3A4631462046019375
:1056D0005346CDF800C001F01FF94346C9F38F01CE
:1056E0005A462868FCF74AFC0D9B9944B9F5546F5B
:1056F00086D318210998FCF72DFF064678B9444B4C
:10570000444A5B6B4449984705E0414B0646434A8F
:105710005B6B4149984730460FB0BDE8F08F0023DE
:1057200008224FF4FA610998FDF78AF808B90026B3
:10573000F1E70A981921FCF745FC064628B9344BD5
:10574000374A5B6B34499847E5E7099E5946192368
:1057500000223046FCF73EFC04460246192331463F
:105760000920FDF7BDFE23460B9A04F130011F68A6
:10577000103353F80C6C103253F8084C53F8040CE7
:105780008B4242F8107C42F80C6C42F8084C42F80C
:10579000040CECD11B8809981380FCF757FF0646D0
:1057A0000028C4D0286800F093FC48B9099800F09C
:1057B0008FFCF8B90B991922099800F0E7F9AAE7CC
:1057C000FDF788FE0128F1D9114C02202B68646B8B
:1057D000D5E907120691A96905926A690491EF68F3
:1057E0000392D5E90121CDE9011700920A490D4A3A
:1057F000A047DBE7FDF76EFE0128DBD9044B022052
:10580000094A5B6B04499847D4E700BFC053410085
:10581000A41C4320C8404100B040410088404100E2
:1058200058394100FC4041007C4141004C65410039
:105830000B88B6EE005ADFED494A07EE103ADFED6D
:10584000485A9FED486A0023B8EE477A2DE9F041A7
:1058500027EE247A444C4D8886B034F9122007464E
:1058600037EE457A07EE905A06EE902AADF81630DC
:10587000F8EE677A8D8827EE257ABDF93080F8EE4C
:10588000E66A67EEA47A27EE067A77EEC57A36EEF8
:10589000C77A67EEA57ABDEEC77A67EE867A17EE0D
:1058A000103A1CB207EE104AB8EEC77A77EE877A44
:1058B000FDEEE77A17EE903A1EB200F009FC0028E0
:1058C00045D1384600F004FCD8B9A4B2A4F2EE23C6
:1058D000B3F5067F11D2A4F54374B4F5E67F03D87F
:1058E000012006B0BDE8F08108F164008642CCBF1B
:1058F0000020012006B0BDE8F081002006B0BDE820
:10590000F081FDF7E7FD0128DFD907EE905AB6EEEA
:10591000006ADFED136A2346FBEEC87A9FED117A29
:10592000BDF816200220114977EEC67A00964F6B1B
:10593000029267EEA67A0E4A0E4967EE877AFDEE6E
:10594000E77A17EE905A2DB20195B847BDE70DF1F1
:1059500016022321384600F031F8B2E70000803704
:105960009A99993F00007A44D8444100A41C4320EE
:1059700094414100C8414100034628B100205A1E0D
:1059800001301340FBD17047704700BF41F44053D2
:1059900030B583B000245BBA154669460622ADF8DF
:1059A0000030ADF80240ADF80440FDF737FDBDF81A
:1059B00004305BBA2B8003B030BD00BFFFF7E6BFF9
:1059C00010B541F4805382B054BA04225BBA01A9E5
:1059D000ADF80640ADF80430FDF720FD02B010BD73
:1059E0002DE9F04182B00D4617461946BDF820401A
:1059F0000DF102021E468046AC40FFF7C7FFBDF91D
:105A00000250042246F4805640466C400DEB0201E1
:105A100076BA3C40ADF804606C4064BAADF806401C
:105A2000FDF7FCFC02B0BDE8F08100BF41F420436B
:105A30000A2210B584B05BBA4FF4807401A9ADF8A6
:105A40000430ADF80640FDF7E9FCDDF80A0000BAC5
:105A500004B010BDF0B44E1E03460025DFF840C070
:105A6000374600E00546ACFB0324681CE40804EB61
:105A70008402A3EB4202A3B2303207F8012F002BBD
:105A8000F0D16D080A180B54013316F8011F12F8F3
:105A9000014DAB4234701170F6D9F0BC704700BFB5
:105AA000CDCCCCCC01381F2800D970472DE9F84F58
:105AB000314B1B5C002B40D015468846D7222F491E
:105AC0004020FDF7B1FC0646B8B3002D43D00027B7
:105AD000DFF8B0B0DFF8B0A03C4608E03F2F28D98F
