:020000040040BA
:10000000A02B432041004000411041003510410029
:10001000291041001D104100111041000000000096
:1000200000000000000000000000000051FE400041
:100030000510410000000000E1FE4000E5484100DD
:10004000194AD2F8883043F4700310B5C2F88830EA
:10005000BFF34F8FBFF36F8F144A154882420BD204
:10006000D34311460024034423F003030433134411
:1000700041F8044B9942FBD10E4A0F4882420CD200
:10008000D3430E490344081D23F00303034451F8EE
:10009000040B994242F8040BF9D115F009FB10F05A
:1000A000FFFF0CF0FBFAFEE700ED00E0001040203F
:1000B000441D432000004020B00E402078F841004D
:1000C0002DE9F04F2DED028BB7B00BF0A9FD28B94B
:1000D000012037B0BDEC028BBDE8F08F06F02CFAA2
:1000E0007B4F01467B4812F0DDFB0BF0A3FD38602F
:1000F00001F04CFF00284AD001F058FC0090002885
:100100004AD000F061FA0190002800F0AE8000F0C3
:1001100027F9002800F0AD80DFF8E091D9F8001051
:10012000002940D0019800F0BBF90446002800F0F7
:10013000CD8006AC04AE14259FED678ADFF8C08140
:10014000059403E09DF80C30002B46D102AA3146FD
:10015000019800F0ABF904460028F3D15F4836ADB2
:1001600012F08EFB55F8D40D00F020F9284600F06F
:10017000FDF93B68D9F80000DB689847C9F80040F2
:10018000684601F0FDFC01F03DFF0120A1E7544865
:1001900012F076FB01209CE7524812F071FB01F04F
:1001A00031FF012095E706AC04AE03E09DF8103066
:1001B000002B65D122463146019800F01DF9002838
:1001C000F4D136AC484812F05BFB54F8D40D00F083
:1001D000EDF8204600F0CAF9D2E79DF810404348F8
:1001E000214612F05FFBFCB90A200DF03DF9681EB4
:1001F00085B2002DAAD136AC54F8D40D00F0D6F853
:100200000646204600F0B2F93B68D9F80000DB68EA
:100210009847C9F80050002EB2D0684601F0B0FCF3
:1002200001F0F0FE284654E74FF0000A4FF00C0BA7
:10023000059A40460BFB0A220AF1010A92ED027A66
:10024000D2ED017A27EE087A67EE887ABDEEC77A9A
:10025000FDEEE77A17EE102A17EE901A12F022FB45
:100260005FFA8AF29442E3D8BEE7214812F008FB15
:1002700086E7204812F004FB01A800F077F97FE739
:10028000019800F011F93B689B689847C9F8000095
:1002900000283FF450AF0146019800F0FDF80546F4
:1002A00000287FF448AF36AC134812F0E9FA54F84E
:1002B000D40D00F07BF8204600F058F93B68D9F8DF
:1002C0000000DB689847C9F8005059E70A4846E73C
:1002D00004104020447B410000007A44A47C41008B
:1002E000647B4100807B4100047C4100CC7C410068
:1002F000B47B4100DC7B4100387C41000010402091
:10030000747C410070B504468068164602F040FCDB
:10031000054630B90E4B0F4A5B6B0F49984728468C
:1003200070BD238FB288012B62850ED93478002CE2
:10033000F5D006F099F80028F1D0054B0120074AC6
:1003400025465B6B04499847E9E701332387E6E7D5
:10035000A41C4320E07E4100F87E41000C7F410058
:1003600010B540B90C4B00200C4A5B6B04460C499D
:100370009847204610BD0B4B02689A42F2D1806824
:1003800001F0A0FE04460028F3D1034B064A5B6B44
:1003900003499847EDE700BFA41C4320307D41008E
:1003A000F87E41002243C5AC407D410010B540B904
:1003B0000C4B00200C4A5B6B04460C4998472046C6
:1003C00010BD0B4B02689A42F2D1806801F0CCFE5E
:1003D00004460028F3D1034B064A5B6B0349984758
:1003E000EDE700BFA41C4320307D4100F87E4100B2
:1003F0002243C5AC1C7E4100F0B590F82C5083B070
:1004000025B101230B70284603B0F0BD17460E46F8
:100410006A4600F130010446FFF774FF40B9184AFC
:10042000184B546B1849194AA047284603B0F0BD31
:100430009DF801304FB19DF800209DF802103A70F0
:100440009DF803207B70B970FA703BB10C4A002014
:100450000C4B546B0C490E4AA047D4E73246216B33
:10046000206A00F07FFC054630B9054A054B546B05
:100470000549084AA047C6E7337884F82C30C2E71C
:10048000A41C4320E47C4100F87E4100607E4100D2
:10049000807E4100A47E4100006A00F04BBE00BF98
:1004A000006A00F075BE00BF00F09EBB2DE9F04170
:1004B000144682B05AB9274A20462546264B546B2B
:1004C0002649274AA047284602B0BDE8F0814FF0F0
:1004D00000080F466A4600F1300184F804800646A1
:1004E00084F80580FFF70EFF054648B9194A1A4BF4
:1004F000546B1A491B4AA047284602B0BDE8F08158
:100500009DF800209DF801309DF8021022709DF8A2
:1005100003206370A170E27043B10E4A40460E4B57
:100520004546546B0D49104AA047CCE796F8283051
:100530003BB1621D718D706A01F0D8F90546002843
:10054000C1D0231D3A46316B306A00F063FE054688
:10055000B9E700BFA41C4320107D4100F87E410094
:10056000C87E4100607E4100807E410070B5C8B108
:1005700004680546B4B1A3681BB104F1080002F099
:10058000AFF8606808B105F05DFF636A1BB104F164
:10059000240001F08DF900262046266005F052FF68
:1005A0002E6070BD05F060FF0028FAD0034B0120DB
:1005B000034A5B6B0349BDE870401847A41C432005
:1005C000407E4100F87E41002DE9F04F2DED048B77
:1005D00083B0002800F0F48005468B237B4A3C2141
:1005E000012005F011FF044608B3794B284623602B
:1005F000009401F0B9FA84F82800009E02F0C8F9CE
:100600000446019020BB734C734A636B734998474F
:10061000636B0020724A7149984700246846FFF7CF
:10062000A5FF204603B0BDEC048BBDE8F08F694DFB
:100630006C4A6B6B6949984720466B6B00946A4A19
:1006400066499847204603B0BDEC048BBDE8F08FA7
:10065000284601F03DFA8246284601F03FFA09EEAD
:10066000100A284601F040FA08EE900A284601F0E8
:1006700001FA08EE100A284601F024FA81462846BD
:1006800001F038FA8346284601F050FA80462846A1
:1006900001F064FA01460746204601F003FF59467F
:1006A000204601F0ABFD5146204601F0B1FD79EE48
:1006B000287A204617EE901A01F0B4FDB5EEC08AF4
:1006C000F1EE10FA7EDD284601F062F80146204680
:1006D00001F0BAFD4946204601F0CAFD032120463B
:1006E00001F0BCFD4146204602F0FAF90121204606
:1006F00002F006FA4146384602AF02F07DFA4FF0AA
:100700007C5270630121204602F0DEF996F8281031
:10071000204602F005FA57F8040D01F045FFB060DD
:10072000384602F0C5F9B06828B92A4C2F4A636BE5
:100730002A4998476CE706F10C0102F003FA2846B3
:1007400001F0E0F948B30099002381F82C300C3116
:10075000284600F033FAEA221C49009C05F02EFEE0
:10076000009E6060706800283FF457AF736B06F11D
:100770000C02294600F042FA009C3062236A002BEA
:100780003FF44BAF94F8283063B900232046238709
:1007900003B0BDEC048BBDE8F08F0099012381F814
:1007A0002C30D4E7284600F0F3FF01903846009D36
:1007B00001F034F8009C6862656A002DE5D12CE7F1
:1007C00004462EE7204601F037FD83E75C7D4100BB
:1007D0002243C5ACA41C4320B47D4100F87E4100F7
:1007E000FC7D4100747D4100987D4100E07D410029
:1007F00090ED027AD1ED027AB4EEE77AF1EE10FADA
:100800004CBF01200020CCBF01230023C01A704739
:100810002DE9F04F0D4683B00746102093469846C9
:1008200005F086FE29460446102004F0EBF905F099
:100830007FFE29468146102004F000FA05F078FE7C
:10084000064658464C4401F085F9002850D0294608
:10085000102004F0F3F905F06BFE019029461020FA
:1008600004F0D0F9344405F063FE8246A80005F098
:100870005FFE019B1C4454440444AFB32246002154
:1008800038460CF09BFDC8F89070102005F050FE23
:1008900038440022002381441021C8F824202A462D
:1008A00004F0B6F92A46C8F83400102148464E44F0
:1008B00004F0CAF9C8F82800584601F04BF930B1E5
:1008C0002A461021304604F0BFF9C8F82C00019BDD
:1008D0002A4610211E4400233046564404F098F95D
:1008E000C8F83000C8F8DC60204603B0BDE8F08FDF
:1008F0000190B3E770B504460D46D0F8E0600846B5
:10090000E26EA18904F068FC2946024604F1180051
:1009100004F0E2FE46B12846D4F8E420B4F88C1086
:100920003346BDE87040184770BD00BF2DE9F04F59
:1009300044681F681FFA84FB2DED028B87B092ED8F
:10094000008ABDF848500395BBF1000F46D0002443
:100950008A4681463E4625464FF00008CDE90423ED
:1009600000F108020BF1FF33029208EE903A2246A2
:100970001BE01E6891ED008A07EE902A3B4618EEB8
:10098000102A0096F8EE677A414617EE900A04F0B6
:1009900093FBD9F80430029A03FB0A43013402EBBB
:1009A0008303A2B218605A4518D207EE904A6B1C16
:1009B000F8EEE77AF4EEC87AF1EE10FADCDD9DB2DB
:1009C0000399059818EE108AAB008D4204993746BA
:1009D00019440344CDD3B8EEE88ACDE707B0BDECA7
:1009E000028BBDE8F08F00BF8389D0ED1B7A012B0D
:1009F00090ED027AF8EE676AF0B5476B06460D4651
:100A0000BC882DED048B91ED0E8A95B065D9013B24
:100A100007EE903AF8EEE77A27EE267A95ED106A1F
:100A20002946482202A8D5ED0F8AC7EE276A0CADE9
:100A300086EE269A0CF0C4FB07ABD3ED007A67EE86
:100A4000A87AE3EC017AAB42F7D19DED0C7A05214F
:100A5000DDED0D7A384637EE097A009177EE897A26
:100A600007AB02AA00218DED0C7ACDED0D7AFFF7D0
:100A70005DFF706BFCB1013C426800F10803A7B256
:100A800000F10C0403EB8201C2EBC20204EB870409
:100A900001EBC202B5EEC08AB3EC017AF1EE10FAB6
:100AA000CCBFC7EE087ADDED0B7AA342E1EC017A08
:100AB000E2EC017AEED10224274600E0706B214679
:100AC000013400970EABA4B22A46FFF72FFF0F2C7C
:100AD000F4D115B0BDEC048BF0BDF7EE007A9BE7C6
:100AE00061B38900DFED166ADFED165AF0B4002617
:100AF0009D1987199C5FB5F9025028B1B7F902C05A
:100B0000875FA5EB0C05E41B07EE905A043608320C
:100B1000B8EEE77A07EE904AB142F8EEE77A27EEB0
:100B2000267A67EEA67A27EE256A02ED017A77EE3D
:100B3000867A42ED027ADBD1F0BC7047704700BF85
:100B40000000803900000000012A33D9F8B50E46B4
:100B5000144605462DED028B00F0DEFF07EE900AED
:100B6000D6ED006A661EF8EE677A074607EE106A51
:100B70002846B8EEC77A67EEA67A87EE878A00F035
:100B8000ADFF07EE900A9FED0C7AC7EE887A77EEFC
:100B9000877AFCEEE77A17EE903A98B2431E07FB8D
:100BA00003F39C4203DC96FBF7F0013080B2BDEC0E
:100BB000028BF8BD10467047BD37863570B50446C8
:100BC0000D46E82005F0B4FC2A890646291D20467A
:100BD000FFF7BAFF0023014622461846FFF718FE2A
:100BE00005F0A6FC304470BD10B5102005F0A0FC47
:100BF0000446482005F09CFC204410BD2DE9F04738
:100C0000044688B068B1984617460D4605F08CFC3E
:100C1000844209D04F4B00204F4A5B6B4F499847A5
:100C2000002008B0BDE8F087E82200210CF0C6FBE8
:100C3000BC46DFF82C912646BCE80F0046F8049B22
:100C40000FC6DCF8003028463360002600F05AFF5B
:100C5000A066284600F060FFE066284600F00AFF24
:100C6000A063284600F012FFE063284600F072FF00
:100C70006067284600F06AFFA4F87000284600F07C
:100C800059FF6065284600F05BFFA065284600F02C
:100C9000F7FE84F86400284600F038FFE065284637
:100CA00000F03EFF2066284600F028FF294684F821
:100CB000780003A800F0F0FED4ED1B7A07EE108A4E
:100CC000DDF814C0F8EE677ADDF818E003993346D2
:100CD000C4F848C004F1180267EE877ADDF81CC03A
:100CE000DDF810A0C4F84CE0C4F850C017EE900A2C
:100CF00021640121C4F844A0009604F037FB3A892E
:100D0000391D2846FFF720FFA4F88C00E82005F0E5
:100D10000FFC23462A46B4F88C102044FFF778FDD8
:100D2000D4F8903004210122C3F800902846C3E98A
:100D3000011200F01DFFC4F8E000284600F01CFF7F
:100D40001023C4F8E4002046C4F8883008B0BDE899
:100D5000F08700BFA41C43203C7F41005C7F410022
:100D60002143C5AC2DE9F04F154600222DED068B31
:100D70002A709DB058B9CE4B0020CE4A5B6BCE494D
:100D8000984700201DB0BDEC068BBDE8F08FCB4B23
:100D9000064602689A42EED1D0F888300C46013BF4
:100DA000C0F88830FFF7A6FDD6F88020B36E9A42CF
:100DB0000ED3736BD3F804C01FFA8CF4002C37D118
:100DC000BB4B2046BE4A5B6BBB4998472046D9E7E0
:100DD000B76AD6F88880384603F07AFF2346024681
:100DE000B6F88C10706AFFF77BFEB8F1000F0FD1D8
:100DF000F26D4FF0010C316E3846B24C05AB0692E5
:100E00000791726BF16A8DF814C0089400F0D0FE5F
:100E1000D6F88820D6F880302AB901331022C6F8D7
:100E20008030C6F88820B26E9A42C2D90120A9E764
:100E300003F1080E4FEACC0B601E4FEA8C019FEDC8
:100E4000A38AABEB0C08D6F8DC700C3380B20EEB47
:100E50000109B2EE0A6AABF1040BF0EE489A03EB1B
:100E60008000B0EE48AA09EBC808F0EE48AABA46DE
:100E70000397FEEC016A0D23F8EC017AB9EC017AD4
:100E80007AEEA6AA79EEA79A0BEB0E023AEE07AA23
:100E90009FED8E7AD2ED007A013B0A44F4EE487A57
:100EA0009BB237EE277AF1EE10FA37FE888A002BD4
:100EB000F0D1C7EE067A8645EAEC017AD9D15FEA2D
:100EC000540800F0308108F1FF313A1D9FED7F9A00
:100ED0003B4689B202EB8102F3EC017AB4EE679AE9
:100EE000F1EE10FA48BFB0EE679A9A42F4D1444549
:100EF00040F21C814346DFED758A07EB8302013324
:100F0000D2ED007A9BB2F4EE687AF1EE10FA77FE39
:100F1000A88A9C42F1D8F4EEC98AF1EE10FAC0F228
:100F200082801FFA8CFCB0EE685ADFED684A0CF143
:100F3000FF3C07EE90CAB8EEE76AB4EE69AA624BCE
:100F40000027DFED625AA3FB043C0DF1140EF1EE15
:100F500010FA4FEA9C0C7AFE299AF5EE409A604608
:100F6000F1EE10FA14BF8AEEA94A9FED584AA0EBA1
:100F70000C03042F0CBF214601469BB28B424DD27D
:100F8000726BF0EE657AF0EE656A083202EB83026E
:100F9000B2EC017A03F10108B4EEE67AF1EE10FA50
:100FA00005DD07EE903AF0EE476AF8EE677A1FFA31
:100FB00088F38B42ECD101376044EEEC017A052FC7
:100FC00080B2CEED046AD2D10AAB0FAAF3EC017A5B
:100FD000B4EEE78AF1EE10FAC8BF03ED018A9A4237
:100FE000F4D106F194034FF07E57002405A918466A
:100FF0004822CDED0F4A8DED106A8DED125A8DED20
:10100000134ACDED118A149715940CF0D9F80146C6
:101010003046FFF7E9FC01202870B3E6F0EE657A70
:10102000F0EE656AC7E718EE903A8DED009A4FF042
:101030007E5200214FF07A5004F03EF8B7EE047A69
:1010400007EE900A68EE878AF4EEE87AF1EE10FA7D
:1010500078FEA78AB8F1010F1CD907EB880353ED7E
:10106000017AF4EEE87AF1EE10FA31D508F1FF33A7
:101070009AB207EB820206E072ED017AF4EEE87AAA
:10108000F1EE10FA24D51FFA83F8B8F1010F08F138
:10109000FF33F1D107EB880707EE908AF0EE498A1B
:1010A000DFED0A4AB8EE676A97ED005A45E700BFE0
:1010B000A41C4320307D41005C7F41002143C5AC2E
:1010C000187F41007C7F4100CDCCCCCC00000000DB
:1010D00007EE908A07EB88075FED046A0023B8EEFD
:1010E000676A97ED005A039AA8EB0301B2EC017A04
:1010F000013307EE901A37EE457A99B2F8EEE77AA7
:10110000C7EE275AF4EE665AF1EE10FA75FEA66A9B
:101110008845E9D879EE457AF0EE498AC7EEA64AC5
:1011200076EE644A09E71FED179AE3E65FED198A48
:10113000F1E600BFF8B538B9114B0020114A5B6BDE
:10114000114998470020F8BD104B044602689A42A6
:10115000F2D110200D4605F0EBF90646482005F0C7
:10116000E7F907463246D4F8901028460CF028F8E4
:101170003A46A81904F194010CF022F80120F8BDB8
:10118000A41C4320307D41005C7F41002143C5AC5D
:101190002DE9F84369B91B4C00201B4A636B1B49BE
:1011A00098470020636B184A184998470020BDE80B
:1011B000F883174B0C460A689A42ECD14B68042B13
:1011C000E9D18D68012DE6D10646102005F0B0F971
:1011D0008046482006F1940705F0AAF98146424668
:1011E0002146D6F890000BF0EBFF4A4604EB0801CD
:1011F00038460BF0E5FF30463946FFF7F5FB284649
:10120000D5E700BFA41C4320187F41005C7F41004C
:101210002143C5AC2DE9F04F9846AA4D036800273D
:101220001646826AAB422DED0E8B88F8007091B0A5
:101230000CD0A54B3846A54A3D465B6BA449984760
:10124000284611B0BDEC0E8BBDE8F08F04468946F0
:101250000292FFF74FFB029A104603F039FD4B460E
:101260000246B4F88C10606AFFF73AFCE56FD4F8D8
:10127000843001350E2BE5670ED994F878309D4205
:101280000FD2A5F10105B5FA85F56D09002E08BF4D
:10129000002555BB0125D3E701330125C4F884306F
:1012A000CEE7E66A0CAB8B4DD4F874803146E76725
:1012B000226BA06A0E970F95CDE90C7700F078FCB1
:1012C000B8F1000FE6D0358877882C46002DE1D0A4
:1012D000FF00291B013C304689B203F0CFFC2246B7
:1012E0003946C047002CF4D1D4E7F6EE006AD4EDBD
:1012F0000F7A94ED0E7A0123D4F830B067EEA67A17
:10130000D4F86C90A789584688F800301FFA89F8FD
:10131000C7EE877A7368D4ED01AA0893636B94EDE6
:10132000028A0393B4F8703094ED15BA0493D4EDA7
:1013300016BA17EE901A00F0D1FC012F40F222826B
:10134000013F07EE907AF8EEE77A07EE108A049AEA
:1013500000201FFA89F9B8EE477AB423013A0590C4
:1013600002900BF1080027EE087AD2B202219FED1D
:101370005A9A099287EE27AA584A9FED598ADFEDBB
:10138000598ADFED599A0C910E9293FBF9F381463D
:101390000D93CDE906560BAB0AAA0399584600F007
:1013A0001FFD0B9A94ED1B7A0CEE100A93B20A9D66
:1013B000B8EE477A94ED01DA07EE903ADBF80430A4
:1013C000D4F84080AFB2F8EE677A03FB0523666C71
:1013D00009EB8302434667EE277A94ED127AD2ED49
:1013E00000CA17EE101A009687EE89EAD4F84CA0CE
:1013F000D4ED14EA77EE087A17EE902A2EEE08EA7A
:101400003EEE0DEA1EEE100A03F056FE424631464D
:1014100003F03EFE082F034640F22D81ADB2C5F128
:10142000100507EE905AF8EEE77A17EE900A4FF0A3
:1014300080420021009603F03FFE4246314603F011
:1014400027FE7EEE8D7A0DEE900A53461DEE101AA1
:10145000CDED008A17EE902A1EEE100A03F02CFE46
:101460005246002103F014FE07EE900A7DEEA77AA3
:10147000B4EEE7CAF1EE10FA40F3F0802BEEAC7A4E
:10148000DBF804C0DDE90A35B4EEE77AAAB2F1EE82
:1014900010FA58BFF0EE477AA2B39EB20CFB06F6E4
:1014A00016FA85F109EB810151ED016AF4EEE67A55
:1014B000F1EE10FA00F2E480501E16FA80F109EB0A
:1014C00081011CE02143C5ACA41C4320307D4100B8
:1014D0005C7F41007C7F41000000F8429A99993F6F
:1014E0008FC2753D00000000BD3786B571ED016A01
:1014F000501EF4EEE67AF1EE10FA00F2C18082B2EC
:10150000002AF3D1F0EE687ADBF800205E1E5F1C43
:101510001644B6FBF2F1B3FBF2F002FB116102FBE1
:1015200010300CFB01510CFB005009EB810109EB61
:101530008000D1ED006A90ED007AB7FBF2F102FB7A
:10154000117777EE075A27EE296A0CFB075C76EED7
:10155000E55A09EB8C0C9CED007A75EE875AF4EE97
:10156000C65AF1EE10FA40F19D80B6EE006A76EEB2
:10157000C76A66EE866A86EEA56A07EE103AB8EE8E
:10158000477A37EE067AB5EEC07AF1EE10FA05D555
:1015900006EE902AF8EE666A37EE267AF7EE006AD3
:1015A000B4EEE67AF1EE10FAC0F29C80F2EE0E6A2A
:1015B000B4EEE67AF1EE10FA94BF0121002194F81E
:1015C000642094ED0E6AD4ED0F6A002A40F0828008
:1015D00076EE265AB2EE0E5AC5EE256AFCEEE66AA3
:1015E00016EE902A92B206EE902AF8EEE66A66EEC1
:1015F000866AFCEEE66A16EE902A92B206EE902A11
:10160000F8EEE66AF3EE005A35EEC77AF2EE0E5ABD
:101610006AEE277AB4EE657A77EEAA7AF1EE10FADE
:1016200077EECB5A28FE877AC7EE267A27EE866AAF
:1016300000293AD0059A02F1010E049A72456BD83E
:10164000049A02998A4260D80CA819462A461CEED0
:10165000903A0090584600F011FC9CE6DDE90656F1
:10166000029B2BB108980C22484B029903F03AFEDA
:10167000029B3370E4E507EE907AF8EE677AD4E6E1
:10168000164437EEE67A07EE902A09EB8602F8EE6A
:10169000677A92ED006A76EE666A87EE266A76EEE3
:1016A000277A31E7B0EE686A67E7049A02998A42BE
:1016B0001AD9029A02EB4202089901EB820282EDEA
:1016C000006AC2ED015AC2ED02CA029A0132D2B2D8
:1016D0000292B9E7F2EE006AB4EEE67AF1EE10FAA1
:1016E00090DC93E700216AE7DDE904218A42ABD16F
:1016F0000C23089903FB0213DDE9065603ED036A88
:1017000043ED025A43ED01CAAAE7029A5FFA8EF14D
:1017100002EB42020591CFE71046029A09999042E6
:10172000059818BF11468842029117D2C24301EBB7
:10173000410608980A44B600A0F10C0CD2B2B44499
:10174000064402EB4202ACEB820CA6F10C0797E8D0
:101750000700674586E807003E46F6D1059A5FFA1E
:101760008EF0029902EB4202059001310898C9B24D
:1017700000EB8202029182ED006AC2ED015AC2EDD5
:1017800002CA61E7F7EE007ADFE500BFF10740002B
:1017900038B504462DED028B00F072F9054620465F
:1017A00000F068F908EE100A204600F06FF94DBB12
:1017B00007EE900AB2EE0E6AF3EE006A38EE277A70
:1017C000C6EE077AFCEEE77A17EE903A9BB207EE88
:1017D000903AF8EEE77A67EE887AFCEEE77A17EE51
:1017E000903A9BB207EE903AF8EEE77A77EEA77A56
:1017F00086EEA77A67EE087AB4EE678AF1EE10FA01
:1018000037FE888ADFED047AC8EE277ABDEC028BBA
:1018100017EE900A38BD00BF2541A03A38B54C22DA
:1018200005461C491C202DED028B04F0C7FD044623
:1018300030B3F1EE047A95ED008AFFEE008A164B84
:1018400068EE277A0360C8EEA77A17EE900A0CF0CC
:10185000D3F8DFED127A606028EE278AC8EE887A26
:1018600017EE900A0CF0C8F800230D490022A06082
:101870002046E16022826361A361BDEC028B38BD2A
:10188000084B094A5B6B094998472046BDEC028B1F
:1018900038BD00BFBC7F41002343C5AC9A99193FB6
:1018A000CDCC4C3DA41C4320E07F4100F07F4100A3
:1018B00038B1036833B9094B0020094A5B6B094909
:1018C00018477047084A19689142F4D110B5044688
:1018D000184604F0B7FD0023236010BDA41C43206C
:1018E000307D4100F07F41002343C5AC38B538B9A5
:1018F0002A4B00202A4A5B6B2A499847002038BDB2
:10190000034629481C688442F2D1188A07EE901ACF
:10191000B7EE007A93ED016A411CF8EEE77AD3ED59
:10192000053A4FF6FF7406EE901A93ED025A93EDC6
:10193000064AF8EEE66AD3ED034AC7EE265A77EE7A
:10194000655A86FE656A77EE466A26EE236AC5FE0C
:10195000655A37EE657A66EEA76A65EE845A76EECA
:10196000266A77EEE67AC3ED056A87EEA66A26EE6A
:10197000066A27EE067A37EE257AB4EEE47A83ED2E
:10198000067AF1EE10FACCBF01250025A0424FF0F7
:1019900001001570B3D0198238BD00BFA41C4320CC
:1019A000307D4100F07F41002343C5ACF8B53E22B5
:1019B0002049602004F002FD0446002833D00122B3
:1019C00002204FF07A531C4984F830204FF07C55A8
:1019D000226484F85000194A1948A2606061194ACB
:1019E00019481A4E23610023A2616262206200201E
:1019F000174A184F21600421E660A262164E174A6A
:101A0000E06284F851301648E3646760E661E2639F
:101A100084F85C10C4E91533124BC4E90D52C4E9D3
:101A200011032046F8BD104B104A5B6B10499847D4
:101A30002046F8BD0C8041009A99993EA69B443BF4
:101A40006F12033D8FC2F53C46B6F33D6F12833AE9
:101A500055303A3F6766063E23DB793DCDCCCC3F1F
:101A60000A00040002000100A41C4320348041004D
:101A70005880410008B1006870470020704700BFDF
:101A800010B190F8300070470120704708B14068ED
:101A900070470020704700BF70B4064649B101F19D
:101AA000080405460FCC24680FC530462C6070BC76
:101AB0007047C0E90011C0E902110161304670BCF5
:101AC000704700BF08B1806A70470020704700BFB0
:101AD00008B1C06970470020704700BF08B1006AB4
:101AE00070470020704700BF08B1406A704700206F
:101AF000704700BF00B1006C704700BF08B190F89C
:101B00005C00704708B1B0F84400704708B1806BC2
:101B100070470020704700BF08B1B0F8460070471A
:101B200008B1C06B70470020704700BF08B1B0F823
:101B30004800704708B1C06A70470020704700BF76
:101B400008B1406B70470020704700BF08B1B0F883
:101B50004A00704700B1C06C704700BF10B190F8E8
:101B6000500070470120704708B190F8510070474D
:101B700000B1406D704700BF00B1806D704700BF7D
:101B800028B9084B0020084A5B6B084918470368CE
:101B9000002BF6D010B50446184604F053FC002381
:101BA000236010BDA41C4320407E410058804100AA
:101BB0002DE9F04F1E46038893464288102B2DEDE9
:101BC000028BA7B0029240F08280029B002B74D05F
:101BD0000BF10803824688464FF0000903931FFA71
:101BE00089F706AD00243B46A2B2514604A803F093
:101BF00031F8F3689DED047ADDED057A3BB103EB36
:101C00008403D3ED006A27EE267A67EEA67A0134C4
:101C100085ED007AC5ED017A0835102CE3D106A9CF
:101C2000042245460024084603F060FFDDF80C80DE
:101C300006E0B0EE678A013483ED008A102C36D0BE
:101C400006AB03EBC403D3ED006A93ED017A26EEF5
:101C5000A68A67EE077A38EE278A45B116EE903AE3
:101C60003A46A1B28DED007A284603F019F8DBF868
:101C70000430327803FB049308EB8303002ADAD0A4
:101C80000F2C93ED007A1DD0012C1BD9D6ED027AD2
:101C900068EE277AF4EEC77AF1EE10FAC9DCB4EEFA
:101CA000C78AF1EE10FAC6DC0134102CC8D109F154
:101CB0000109029BA8464B4591D127B0BDEC028B90
:101CC000BDE8F08FD6ED017A68EE277AE2E72221AF
:101CD000014803F02FFF00BF78804100F0B407886F
:101CE00007EE901AB6EE006A44687B08F0EEE76AE9
:101CF00007EE107A07EE903AB8EE477AF8EEE77AF8
:101D000027EE267A77EEC67AF4EEC77AF1EE10FA6D
:101D100058BFF0EE477A37EE867ABCEEC77A17EEF8
:101D2000103A9EB207EE106AF8EE476A76EE866ABF
:101D300076EEE76A002E4BD136EEA67A002C45D01F
:101D4000002300F10805194605EB81020133D2EDAD
:101D5000007A9BB267EE877AA3421946C2ED007AF9
:101D6000F2D39EB3083001259FED1C6AAE4206FEF9
:101D7000867A3CB3002304FB05FC1A466244013317
:101D800000EB82019BB2D1ED007AA3421A4667EEC6
:101D9000877AC1ED007AF1D3A7EB050C00231FFA77
:101DA0008CFC1A4604FB0CFC6244013300EB8201FC
:101DB0009BB2D1ED007AA3421A4667EE877AC1ED55
:101DC000007AF1D30135ADB2AE42CFD2F0BC70474C
:101DD000002CC7D09FED017AB2E700BF00000000E1
:101DE0002DE9F0479E4600231360CEF800300468CA
:101DF000002C3BD09C469FED207A476800F10808F4
:101E00004FB30024264607FB036508EB8505D5ED97
:101E1000007A79B14D68A146B54205F1FF3A98BF05
:101E20001FFA8AF903FB059501EB8505D5ED026ADA
:101E300077EEE67AF4EEC77A0134A4B2F1EE10FA46
:101E400005DBB0EE677A1360CEF800604768BC42ED
:101E50002646D8D304680CF1010C1FFA8CFCA4456B
:101E60006346CDD317EE100ABDE8F0879FED027AE6
:101E700017EE100ABDE8F087000000002DE9F04FD2
:101E8000DDF824C016B2B7EE007AD0F80490DCF882
:101E9000004005EE103ADCF80450671CC5F1000E56
:101EA00006EE905A07EE907A07680FFA8EFEF8EE6B
:101EB000666AF8EE677A1EEB060FC7EE265AC7EE83
:101EC000273A03D5C2F1000E0FFA8EFE0FFA89F3FE
:101ED00006EB0508984501DB9B1B5D1E66420FFA69
:101EE00084FA36B256454DDCF7EE004A1FFA87F801
:101EF0009FED254A00F1080706EB080375450B44E2
:101F0000B3FBF8F408FB143438DB86EAE67304FB11
:101F10000924F346A3EBE67306EE103A7346B8EED7
:101F2000C66A26EE236ABBF1000F03EB04009CEDAA
:101F3000027AB8BFCBF1000B07EB800007EE90BA36
:101F4000D0ED006A03F1010BF8EEE77A0FFA8BF39C
:101F500067EEA57A9B4677EE867A67EEA77A74EEEF
:101F6000E77A67EE857A67EE877AF4EEE67AF1EE45
:101F700010FAC8BF80ED004AAB42D4DD013636B25C
:101F8000B245B9DABDE8F08F0000000010B5174C7B
:101F900023788BB940B104F08DF928B100F0F6FA3E
:101FA00010B102F07BF898B9114B0020114A5B6B1D
:101FB00011499847207810BD04F056FA0128F9D944
:101FC0000B4B02200D4A5B6B0B499847207810BDE4
:101FD0000123237004F048FA0128EBD9044B0220B6
:101FE000074A5B6B04499847E4E700BF08104020AC
:101FF000A41C4320C4804100C0804100DC8041001B
:10200000A080410010B50B4C237803B910BD00F03F
:1020100093FB02F07BF804F027FA012805D9064B60
:102020000220064A5B6B0649984704F07DF90023BD
:10203000237010BD08104020A41C432004814100DF
:10204000C0804100024B0120024A5B6B02491847E5
:10205000A41C4320E4814100FC81410008B10069D7
:10206000704710B5044604F0FFF930B1034B01206E
:10207000034A5B6B03499847204610BDA41C4320CC
:10208000E4814100FC81410070B50D460446FFF734
:10209000E5FF58B12946064603F0B8FF3DB9A368ED
:1020A00023B161792046BDE87040184770BD3046C5
:1020B0000F2103F0A3FE30460121BDE8704003F07C
:1020C000BFBE00BFF8B560B9204C0020204A636B4A
:1020D000204998470020636B1F4A1E4998470020FB
:1020E000F8BD1E4B044602689A42EDD11C4B18788D
:1020F000B8B1637B002BF3D0A368202B11D8194D06
:1021000015F813206AB905EB43020127567805F844
:10211000137046B100220D4C05F81320DAE7202B8E
:10212000F8D90A4CD6E704F11C0002F037F9A3688D
:102130000028F4D0202B06D805EB4302667305F87F
:1021400013605770F8BD6673F8BD00BFA41C432030
:10215000307D4100FC81410028814100E89EC0ACF7
:10216000091040200C1040202DE9F04170B91C4CA2
:1021700000201C4A636B1C4998470020636B1B4A74
:102180001949054698472846BDE8F081184B044692
:1021900002689A42EBD1174B1D78DDB1437B002BCF
:1021A000F1D18368202B15D8134E16F813708FB910
:1021B0004FF001081C3006F8138002F027F9A368DD
:1021C000202B09D806EB430284F80D8006F8137023
:1021D0005770D8E7024CD0E784F80D80D3E700BFF2
:1021E000A41C4320307D4100FC8141005C81410002
:1021F000E89EC0AC091040200C10402010B50C46E1
:10220000FFF72CFF2146BDE8104003F0C9BC00BF1A
:1022100010B50C46FFF722FF2146BDE8104003F041
:10222000D1BC00BF10B50C46FFF718FF2146BDE832
:10223000104003F0D9BC00BF08B5FFF70FFFBDE8A1
:10224000084003F0D9BC00BF10B50C46FFF706FFED
:102250002146BDE8104003F0D7BC00BF10B50C46C6
:10226000FFF7FCFE2146BDE8104003F0DFBC00BFD5
:1022700010B50C46FFF7F2FE2146BDE8104003F012
:10228000DDBC00BF43693BB1DA6810B504461846AF
:1022900090470023636110BD704700BF2DE9F041F6
:1022A0000E4682B00546002832D1324B0020324A19
:1022B0005B6B324998470023B47E64B17268B2B94F
:1022C0002C4B00202E4A5B6B04462C499847204635
:1022D00002B0BDE8F081B26862B9264B2046294AB7
:1022E0005B6B26499847204602B0BDE8F081F26852
:1022F000002AE5D0BBB12B7B3278934218D01D4920
:1023000000200092204A04464D6B1C49A847DEE796
:102310001E4B02689A42C8D10123CDE72846FFF739
:10232000D1FE804648B90024204602B0BDE8F081C5
:1023300096F81880B8F1000FF0D16F7B87B10D4B84
:102340000024134A20465B6B0C499847B8F1000FF4
:10235000BDD02846FFF708FF204602B0BDE8F08157
:102360006B69AE61D3E900029047747EAF6184F07F
:102370000104EBE7A41C4320307D4100FC814100B7
:102380007881410098814100B0814100E89EC0AC55
:10239000CC81410070B59DF810501E46846945B946
:1023A000A07E78B1E36860689A4228BF1A460AF0B6
:1023B00007FF2069657658B162693146BDE8704013
:1023C0000AF0FEBEA2681160206965760028F3D18C
:1023D00070BD00BF014B1870704700BF091040204E
:1023E00008B538B9064B0020064A5B6B064998478A
:1023F000002008BD0268054B9A42F3D1012008BDB8
:10240000A41C4320307D4100FC814100E89EC0AC0B
:1024100008B538B9094B0020094A5B6B0949984750
:10242000002008BD084B02689A42F3D1038B002BB1
:10243000F0D04369002BEDD0012008BDA41C43203F
:10244000E4814100FC814100D79DC0AC08B538B99A
:102450000F4B00200F4A5B6B0F499847002008BDC7
:102460000E4B02689A42F3D1038B002BF0D04369E4
:10247000002BEDD04379013B042B07D9044B0020FE
:10248000074A5B6B04499847002008BD012008BD3E
:10249000A41C4320E4814100FC814100D79DC0ACD5
:1024A0004481410010B568B18368044653B161713D
:1024B0009847237B03B910BD20460121BDE8104099
:1024C000FFF7E2BD03F0D0FF0028F4D0BDE81040D4
:1024D000FFF7B8BD08B528B103461973BDE8084039
:1024E000FFF7D2BD03F0C0FF18B1BDE80840FFF709
:1024F000A9BD08BD70B5059D04460261084EBDF832
:102500001020017106609DF81810856043610283F8
:10251000FFF7C8FF20460021BDE87040FFF7DABF93
:10252000D79DC0AC30B583B0044603F09DFF0328AF
:1025300008D911490420A2684D6B63680F490092C5
:102540000F4AA847606800230E4951F8042B12B1C6
:102550005268904204D00133042BF6D103B030BD51
:10256000094A0021204602EB8303596003B0BDE80D
:10257000304003F067BF00BFA41C432030834100FC
:1025800008834100040040200000402010B5054CA5
:10259000207800B110BD012318462370FFF71AFF01
:1025A000207810BD000040202DE9F043414D83B05C
:1025B0002B7853B9404918461C46404A4B6B40495A
:1025C0009847204603B0BDE8F0830746FFF720FF99
:1025D000002858D03B69D3F80C80B8F1200F33D8CD
:1025E0006B7853B92B1D05F1140153F8042B12B16C
:1025F000926890454CD09942F7D1D5F814903C8B15
:1026000009F101036B6103F02FFF032808D92A4A5F
:102610004B46CDF800800420566B2949294AB04723
:10262000294B002653F8042B92B10136042EF9D120
:1026300021493346254A00204D6B21490446A847CD
:10264000204603B0BDE8F0831B492023204AF2E76F
:102650002146D4231F4A012003F0D6FE044690B140
:102660001D4B05EB8605C4F8049039462360C4F879
:1026700008807B696C60984790B1012320466373A2
:1026800003B0BDE8F0830024204603B0BDE8F0832A
:10269000094B0020114A5B6B04460949984790E7B3
:1026A00023690BB12046984720460024FFF73AFFE4
:1026B00087E700BF00004020A41C43204482410063
:1026C000308341002082410004004020808241008C
:1026D00004824100A4824100E89EC0AC58824100BF
:1026E000114B1B7810B533B1044618B10068FFF7E1
:1026F00077FE60B910BD03F0B7FE0028FAD00B4B8F
:1027000001200B4A5B6B0B49BDE81040184720685D
:10271000FFF72AFD206803690BB198472068FFF78F
:1027200001FF0023236010BD00004020A41C4320B3
:10273000448241003083410038B51B4C2578002D80
:1027400030D063680BB3201DFFF7CAFFA36803B343
:102750001648FFF7C5FFE36813B11548FFF7C0FF40
:10276000236913B11348FFF7BBFF03F07DFE28B1C7
:10277000114B0120114A5B6B114998470023184601
:102780002370BDE83840FFF725BE1D46A368002B27
:10279000DED1E368002BE0D12369002BE2D1002DCC
:1027A000ECD0E2E738BD00BF000040200800402028
:1027B0000C00402010004020A41C4320BC8241009B
:1027C00030834100F0B50C4687B00F79064691F88A
:1027D00005C01546C97903AA8DF80E700C23A78988
:1027E0000F208DF80F10A168ADF81070A779059132
:1027F00021688DF80DC08DF80C7003F055FE22692C
:1028000003AB6479314628460094FFF7C3FD07B057
:10281000F0BD00BF70B5A4B004468C220D4601A8DF
:102820000AF0CEFC01A8FFF711FE40B1159B042B66
:1028300008D12A4B00202A4A5B6B2A49984700207E
:1028400024B070BD08A803F0C3FC0028F7D0BDF881
:1028500080305A1E012A09D9042B07D01F4B0020B3
:10286000214A5B6B1F4998470020E9E79DF88830B3
:1028700003B3DDED237A17EE901A08A803F060FA8F
:102880002B7908A8194D237303F030FA24A984F892
:10289000500008AA234641F8905D04F11C0003F0A3
:1028A00081FE03460030124A18BF0120C4E9042308
:1028B00024B070BD08A89DF8096003F04FFB07EE37
:1028C000900A012E9FED0B7AF8EE677ADFED0A6A27
:1028D00007FE267A67EE877ACDE700BFA41C432067
:1028E000A4834100E0834100EC834100C527400000
:1028F00085224000FA61843C0938843B10B50446C7
:10290000FFF786FD10B12379012B0AD003F0ACFD4F
:1029100030B1054B0120054A5B6B05499847002003
:1029200010BD204610BD00BFA41C4320E48141001F
:10293000E083410038B50D46FFF7E0FF68B100F1D4
:102940001C040121204603F07BFA691E042904D8E7
:10295000DFE801F00E181A1C040038BD10212046D3
:1029600003F05CFA20460521BDE8384003F046BA82
:102970000021204603F052FA20460221BDE83840EB
:1029800003F03CBA0721F4E70921F2E70C21E6E75E
:10299000F0B5742385B0404A8C21012003F034FD4A
:1029A0000646002874D000F11C0402273B4954233A
:1029B0002246002500933A4BCDE901170121FFF78C
:1029C00099FD002320463749C6F8883086F88450A0
:1029D00003F0F8F82046344903F006F920460621B2
:1029E00003F08AFA20460A2103F070F920460121FB
:1029F00003F0E4F920460B2103F0F0F90121204611
:102A000003F0CEF8204603F0F7F83946204603F0ED
:102A10000DF92946204603F039FA2946204603F0ED
:102A200019FA2946204603F01FFA2946204603F0EA
:102A300029F92946204603F037F92046C72103F03B
:102A400049FA2946204603F033FA2B462A462946FE
:102A5000204603F061FA2046012103F087FA204660
:102A6000012103F095FA2046012103F057F9294688
:102A7000204603F043F92046012103F0A3FA204643
:102A80004FF4965103F0B0FA2046084903F026F9B6
:102A9000304605B0F0BD00BF4083410035294000FD
:102AA00015284000CDCC4C3ECDCCCC3E6934400006
:102AB00048B110B504460068FFF720FF03F0C2FCE0
:102AC0000023236010BD704738B50D461446FFF74C
:102AD00015FF18B180F88450C0F8884038BD00BF99
:102AE00038B50C460546FFF709FF38B12846FFF711
:102AF000B5FA2146BDE8384003F038BA38BD00BF0A
:102B000038B50C460546FFF7F9FE38B12846FFF701
:102B1000A5FA2146BDE8384003F03ABA38BD00BFF7
:102B200070B50C460546FFF7E9FE48B12846FFF7A9
:102B300095FA214678235022BDE8704003F0ECB9A5
:102B400070BD00BF00B3037B012B1DD1E1B1436910
:102B5000B6EE007ADFED0D6A1B68D3ED087A9A8D28
:102B600067EEA67A5869013A67EE877A10B49C69D5
:102B70000860588D1B6B4C60C1ED037A4A81088157
:102B80000B615DF8044B7047704700BFC2F38E4D78
:102B90000B1C18BF0123002808BF002373B190F855
:102BA000503070B588B05BB1104B0020104A5B6BA1
:102BB000104998470023184608B070BD1846704762
:102BC0000E6801250624039101A98DF81C308DF8AB
:102BD0001D308DF81E3002968DF804500694CDE914
:102BE0000432FFF75BFB0346E5E700BFA41C43206C
:102BF00054834100E083410007EE901A0128DFED85
:102C0000066AB8EE677ADFED057A47FEA67A67EEC8
:102C1000277A17EE900A70470938843BFA61843CA2
:102C200043693BB110B50446184603F00BFC002382
:102C3000636110BD704700BFF0B54369002599B0CE
:102C40000768C3F8CC500C46164603F07BFB02A97C
:102C5000119011A805F010FC18B90024204619B0F5
:102C6000F0BDBDF80A506B46BDF80C1005AABDF8C2
:102C70000E000791089061682068CDE90575BDF8E0
:102C80001050ADF8245003F077FE0028E5D0BDF8D1
:102C90000A1011ABBDF80C000AAA9DF804500C9064
:102CA000BDF810001095ADF83800CDE90A71BDF8F7
:102CB0000E100D9100990F91D4E9000104F012F863
:102CC00004460028C9D0009806229DF80410119BE4
:102CD000B080F180129813993381BDF85030708123
:102CE000B181BDF85200BDF85410F3819DF85C30FD
:102CF00030827182326063B10F23B38203F0B4FB80
:102D00000128ABD9044B0220044A5B6B0449984765
:102D1000A4E7BDF85830F0E7A41C43200884410024
:102D2000288441000B68062B70B58CB00BD0294865
:102D30000621294A446B0020009128490546A047F6
:102D400028460CB070BD0C46064603F0FBFA03A9FA
:102D5000069006A805F090FB05460028F0D0BDF8C7
:102D6000123006AABDF80E00B360BDF81430306012
:102D7000B381A088E388BDF81010C6E90403208958
:102D8000638971607C21C6E90603A089238A3062C9
:102D9000B384608AA38AF084C6F89030E08903F097
:102DA000BFFDBDF81800BDF81A10BDF81E20BDF813
:102DB0002030B062F162BDF82400BDF82610326305
:102DC0007363BDF82A20BDF82C30C6E90E01C6E9B0
:102DD0001023B5E7A41C43209884410028844100B7
:102DE00030B5B0F8E45087B0A5B1F82390F8E620EC
:102DF000B3FBF5F402B17C34694606F07DF9009B23
:102E00007C20C3F50063B0FBF5F01B1BB3FBF0F0B7
:102E100007B030BD4FF4AD71014802F08BFE00BF2A
:102E200040844100F8B50C46B0F8E41091B37C251D
:102E30000646B5FBF1F5FFF7D3FF30B3B6F8E47003
:102E4000F82396F8E660B4FBF0F1B3FBF7F38AB22F
:102E5000A6B900FB114000280CBF1046501C80B2E0
:102E60001CB115B1A4FB056757B903FB00F004FBC7
:102E700005F4C3439C4212D82044F8BD7C33E8E7F4
:102E800040F27311084802F055FE4FF4B67106483F
:102E900002F050FE40F26711034802F04BFE40F290
:102EA0007511014802F046FE408441002DE9F047CB
:102EB00044698AB006468846B4F8DA3092460BB9BF
:102EC000A4F8DC30D4F8E0102046FFF7ABFF071E73
:102ED00037DB204604A906F00FF9B4F8DC30049A79
:102EE0007D00D8F800103A443068194401F058FDCC
:102EF00003AA814604F1CC03306849460092224679
:102F000006F012F99DF80C3004A92046003318BFD2
:102F100001238AF8003006F0EFF8B4F8DC30D8F876
:102F200000002A460499184409EB41010AF0E2F92D
:102F3000B4F8DC3038461D44A4F8DC500AB0BDE8D3
:102F4000F08740F29F21014802F0F4FD40844100E7
:102F50002DE9F04F4569BDB00346884601922946E8
:102F6000CC2209A81E680AF02BF9DDF8DCB0002499
:102F700095F8E69001234FEA8B07022285F8E64098
:102F8000284607F1FF3C39462093CDF8CCC0369255
:102F900025941F9439941E94CDE93433FFF742FFF2
:102FA00009AB85F8E69082463046D8E9001205F074
:102FB00017FC304606F05AF8304602AB64224FF454
:102FC000FA6101F0ABFB814618B948463DB0BDE857
:102FD000F08F7C23284603A9D8F80080B3FBFBFBC5
:102FE00006F08AF8039A41463046524401F0D8FC74
:102FF0004FF4FA618046304601F024FC284603A9CC
:1030000006F07AF8039DBA1C594608EB4505379E31
:10301000284602F06FFDF823B3FBF6F39A4523D957
:10302000BAEB030A05EB430523D05A461FFA8AF18F
:1030300028464FF4004302F0ADF8A81E05EB4A0203
:103040000E49023A30F8023F0B44002BB8BF5B42F6
:1030500082421C44F6D1019B4846B4FBFAFAA3F81D
:1030600000A03DB0BDE8F08F40F24521044802F0D9
:1030700061FD4FF41271024802F05CFD0180FFFF18
:10308000408441002DE9F04F06468DB008460D46BC
:1030900074691F46914602F061FF0022A4F8E40023
:1030A00028464FF0010B114606F1040A02F044FFD6
:1030B000002384F8E6002046C4F8CC3084F8C4B07D
:1030C000FFF78EFE984B80B24FF07C0C1968524689
:1030D00002903B46019128464946CDF800C000F0D9
:1030E00071FA804618B940460DB0BDE8F08F284609
:1030F00002F0C4FEA0B9A064C4E9130B0022284664
:10310000114602F019FF6065284602F031FE0328DF
:1031100000F20681DFE810F0E300DA00C8000A00E0
:103120000023C4F848B0C4E91333E7E70DF1180BE6
:10313000284602F025FE05AA594600F055FE012357
:10314000DDE90512C4E91633C4E91812284602F075
:1031500065FD042807D8DFE800F0A3A39E03A300C1
:103160000023C4E91A33284602F084FD80F00103ED
:103170002846DBB2236702F08FFD80F001030122B5
:103180002846DBB2A267636702F098FD431E28461B
:10319000E36702F01BFEC4F88000284602F026FE1A
:1031A000C4F88400284602F043FE431E2846C4F8B3
:1031B000883002F02BFEC4F88C00284602F082FE14
:1031C000C4F89400284602F08FFEC4F89800284600
:1031D00002F0ECFD012840F28A8002380123C4E9A4
:1031E0002730284602F0BAFEC4F8B800284602F09C
:1031F000E1FE80F00100B2880121C3B2504684F89C
:10320000C410C4F8C030C4F8A42000F0C5FD0028E4
:103210007ED17089B6F90830421E012BC4F8A8206F
:1032200069D00122C4F8B430C4E92B22F388C4F871
:10323000BC3003F087F840F69803C4F8C800204675
:10324000A9F814303989FFF7EDFDB98A7881204655
:10325000FFF7E8FD94F8E62002237882002A204652
:103260003B83594614BF7C2300237B8305F044FF36
:103270005A4631680123122003F0FCF800F02CFEBE
:10328000BDF818304FF416621844BA81F8814046F0
:103290000DB0BDE8F08F01220023C4E91A2362E7D4
:1032A0000123C4E91A335EE70DF1180B284602F03A
:1032B00067FD05AA594600F097FD01200021DDE9D0
:1032C0000523C4E91601C4E918233FE700230122BE
:1032D0000DF1180BA365E265C4E9183336E7002346
:1032E0000DF1180BC4E91633C4E918332EE7002397
:1032F000C4F89C3075E772890238012AC4F8A80026
:103300000AD90222C4E92C320023C4F8AC308DE77C
:103310007069FFF765FD7DE70023C4F8B030F3E77F
:103320000DF1180B12E700BF9484410038B5013944
:10333000136889B2B3F8DA408C4204D01846BDE86D
:103340003840FFF74DBD054618461446FFF748FDC7
:10335000B5FBF0F303FB105000B138BD2068BDE8A9
:103360003840FFF73DBD00BF8389012B2CD0F0B55D
:10337000466985B0B0F908700446B6F8DA503046B0
:103380000135AAB2B2FBF3F503FB1525ADB2A6F8E1
:10339000DA50FFF725FD00FB057504F11402A18941
:1033A0006089FFF7C3FF012D00F1FF330295C6F8D6
:1033B000E00001930AD001238DF80C3001A92068A8
:1033C00005F060FE05B0F0BD1846704702380022D7
:1033D000022301908DF80C200293EFE702460023B0
:1033E00070B552F8145F04460E46A5F8DA30A5F819
:1033F000DC3081894089FFF799FF2B46C5F8E00052
:103400002068D6E9001205F0EBF938B9124B0646F0
:10341000124A5B6B12499847304670BD206805F030
:1034200025FE0646A8B1D5F8C030002BF4D021699E
:10343000206801F08BFA044658B103F015F8012812
:10344000EAD9054B0220074A26465B6B0449984798
:10345000E2E70026E0E700BFA41C4320D884410037
:1034600028844100F484410038B504460D464FF4E9
:1034700092730F4AE821012002F0C6FF6061A8B1F3
:10348000284602F085FB2060284602F093FDA073D9
:10349000284602F0C3FBB0FA80F328465B09E373C9
:1034A00000F080FC034B20610120A36138BD00BF08
:1034B00040844100608441002DE9F04F87B0002531
:1034C000B0F80CB09946DDF840A01D708AF80050A5
:1034D000C37B0091029303698DF816508DF8175045
:1034E0000668877B0193BBF1000F43D00BF1FF33DC
:1034F0000446904603930EE0A36920461B6A984752
:103500002FB1A36930465B6A9847002837D0013550
:10351000ABB29B452ED9A36927B95B6A3046984761
:1035200068B3A3699B690DF116020199304698476B
:1035300028B39DF816300BB999F80030A0690DF149
:10354000170289F800300099C369204698479DF812
:10355000173080B20BB99AF80030B8F800208AF81A
:1035600000301044029BA8F80000002BC4D0039B3D
:10357000AB42C1D1009B186807B0BDE8F08F0020B6
:1035800007B0BDE8F08F00BF08B52DED028B08EE47
:10359000100A02F0D7FE9FED0A6A07EE900AF7EED6
:1035A000006A86EE277AB8EE488AB8FE477A67EE58
:1035B000877A86EEA70A80EE080ABDEC028B08BD6A
:1035C000F902154F2DE9F04F2DED068B89B08A4693
:1035D000914606460693189F9DF864B0BDF9668033
:1035E00002F05EFC002840F083803046DFEDE48A84
:1035F00002F0DEFA09EE100A3046BEEE008A02F052
:10360000E9FA07EE900A384679EE279AFFF7BCFFF1
:1036100039EE097A384620EE280AB5EEC09AB6EEA1
:10362000009AC7EE007AF1EE10FA54BFB0EE497A74
:10363000B0EE487A77EE877AFDEEE77A17EE905A89
:10364000FFF7A2FF39EEA97A20EE280AF5EEC09A1C
:10365000C7EE007AF1EE10FA58BFB0EE498A18F1C1
:103660000B0F37EE888AFDEEC87A17EE904A4BDBD7
:10367000BBF1000F48D0C346F38D3046079302F0EC
:103680006DFC0128804609D9022823D0631B93FBD7
:10369000F8F208FB1238B8F1000F0EDCAC4236DA53
:1036A000B84B0020B84A5B6B8046B8499847404603
:1036B00009B0BDEC068BBDE8F08F02F0D5FE012805
:1036C00005D9B04B0220B24A5B6BB0499847A4EBD6
:1036D0000804E3E7EB07D9D402F0C6FE012805D9B8
:1036E000A84B4046AB4A5B6BA84998470135CDE7EC
:1036F000304602F02DFB0546304602F031FB18F152
:103700000B0F05EB0004B3DA6FF00B0BB4E7304698
:1037100002F0FAFB8046002840F048810BFB07FBD3
:10372000AB4500F30F82079B4FEA431BABF14B0BFA
:1037300007FB0BFBA34580F2398107EE904A914BC2
:103740003846DFED8F9AB8EEE79AD3F83490FFF75A
:103750001BFFF6EE008A904A384669EE007A8F4BDE
:103760009FED87AA67EEA97A67EEA87AF5EEC07A90
:10377000F1EE10FA4CBF92469A46FFF705FF384625
:1037800029EE008AFFF700FF69EE007A384628EE3E
:10379000298A67EEA97ADFED7A9A28EE288A67EE01
:1037A000A87AF6EE008AF5EEC07ADFED7D7AF1EECA
:1037B00010FA48BFB1EE488A38EE278AFCEEC87A84
:1037C00017EE906AFFF7E0FE384629EE008AFFF711
:1037D000DBFE69EE007A384628EE298A67EEA97A80
:1037E000F6EE009A28EE288A67EEA87AF5EEC07AFF
:1037F000DFED6B7AF1EE10FA48BFB1EE488A38EE91
:10380000278AFFF7C1FE384669EE008AFFF7BCFE43
:1038100069EE007A07EE10BA384668EE8A8A67EEDB
:103820008A7A9FED57AAB8EEC79A9FED5E7A68EE46
:10383000A98A67EEA97ADFED529AF5EEC07ADFED3C
:10384000587AF1EE10FA48BFF1EE688A78EEA77A5E
:10385000F6EE008AFCEEE77AF8EE677A38EE678AD1
:1038600068EE077AFCEEE77A17EE904AFFF78CFED7
:1038700069EE007A484B494A384667EEA97A67EE06
:10388000A87AF5EEC07AF1EE10FA4CBF9B4693464B
:10389000FFF77AFE384629EE008AFFF775FE69EEDB
:1038A000007A384628EE298A67EEA97ADFED349A45
:1038B00028EE288A67EEA87AF6EE008AF5EEC07A3E
:1038C000DFED377AF1EE10FA48BFB1EE488A38EEF4
:1038D000278AFCEEC87A17EE905AFFF755FE384655
:1038E00029EE008AFFF750FE69EE007A384628EE8E
:1038F000298A67EEA97AF6EE009A28EE288A67EE02
:10390000A87AF5EEC07ADFED267AF1EE10FA48BF1C
:10391000B1EE488A38EE278AFFF736FE384669EE60
:10392000008AFFF731FE69EE007A53469FED1D7A5B
:1039300068EE8A8A002067EE8A7A1B4A019468EE54
:10394000A98A009667EEA97ACDE902B5F5EEC07AAC
:10395000DFED137AF1EE10FA48BFF1EE688A78EEE7
:10396000A77AFCEEE77AF8EE677A084938EE678ABC
:1039700068EE077AFCEEE77ACDED047AC84796E662
:10398000C2F38E4DA41C4320A885410054854100FC
:10399000748541001C8541001885410060DD4100AF
:1039A000BD3706350024744918864100304602F0C0
:1039B000D5FAF18D0246E30FE80FA9F800109C46F6
:1039C00023440146284493FBF7F390FBF7F0A3EB65
:1039D0000C03401A95FBF2F1013302FB1151A9F8D7
:1039E00004001B1A11441FFA83FC1A9B91FBF2F08E
:1039F000BCFBF3FB02FB10111FFA8BF003FB1BCB8C
:103A0000A9F806C0A9F80210BBF1000F00D00130E0
:103A1000A9F808003046079202F000F980463046C7
:103A200002F0A6F9079AB8F1040318BF0123012890
:103A300018BF0023184698467BB9B9F806301A9982
:103A40008B420AD9CB4BCC4A5B6BCC49984740465A
:103A500009B0BDEC068BBDE8F08F38460792FFF742
:103A600093FD079A3846DFEDC68A07EE902AB6EE38
:103A7000008AF8EE677A27EE800A8AED030AFFF7DC
:103A800083FD07EE905A3846F8EEE77A67EE807AC3
:103A900067EEA87A67EE887ACAED007AFFF774FDC0
:103AA00007EE904A631B079AF8EEE77AB9F806101A
:103AB0009AED007A01FB07F4B9F8080027EE800AB6
:103AC000AAF8180095FBF7F607FB165520EE280A12
:103AD0003D4420EE080A95FBF7F693FBF2F307FB53
:103AE0001655013330EE477A8AED020A9BB295FBF8
:103AF000F2F5B4FBF2F4B7FBF2F7069AAAF8163027
:103B00008AED017A93801A9B11818B421082558035
:103B10001480D78010D29BB29382BBF1000F06D0E5
:103B20001A9B1A9AB1FBF3F302FB13118BB2069A9C
:103B3000D38201239846BAE501239846069B9982D1
:103B4000D982B4E507EE905A8A4B3846DFED8C9A5D
:103B5000F8EEE78AD3F83490FFF716FDB6EE009A38
:103B6000884A384668EE807A874B9FED85AA67EED3
:103B7000A97A67EE897AF5EEC07AF1EE10FA4CBFB9
:103B800092469A46FFF700FD384628EE808AFFF7F6
:103B9000FBFC68EE807A384628EE298A67EEA97A1F
:103BA000DFED779A28EE098A67EE897AB6EE009AF9
:103BB000F5EEC07ADFED757AF1EE10FA48BFB1EE9E
:103BC000488A38EE278AFCEEC87A17EE906AFFF72B
:103BD000DBFC384628EE808AFFF7D6FC68EE807A58
:103BE000384628EE298A67EEA97A28EE098A67EE18
:103BF000897AB6EE009AF5EEC07ADFED647AF1EEDE
:103C000010FA48BFB1EE488A38EE278AFFF7BCFCAD
:103C1000384668EE809AFFF7B7FC68EE807A07EEC8
:103C200010BA384669EE8A9A67EE8A7A9FED54AAEE
:103C3000F6EE008A69EE899A67EE897AB8EEC79A3D
:103C40009FED537AF5EEC07ADFED507AF1EE10FA7F
:103C500048BFF1EE699A79EEA77ADFED499AFCEE5A
:103C6000E77AF8EE677A38EE678A68EE077AFCEE54
:103C7000E77A17EE904AFFF787FC69EE007A414B2E
:103C8000414A384667EEA97A67EEA87AF5EEC07A1F
:103C9000F1EE10FA4CBF9B469346FFF775FC384691
:103CA00029EE008AFFF770FC69EE007A384628EEAC
:103CB000298A67EEA97ADFED329A28EE288A67EE24
:103CC000A87AF6EE008AF5EEC07ADFED307AF1EEF2
:103CD00010FA48BFB1EE488A38EE278AFCEEC87A5F
:103CE00017EE905AFFF750FC384629EE008AFFF78E
:103CF0004BFC69EE007A384628EE298A67EEA97AED
:103D0000F6EE009A28EE288A67EEA87AF5EEC07AD9
:103D1000DFED1E7AF1EE10FA48BFB1EE488A38EEB8
:103D2000278AFFF731FC384669EE008AFFF72CFC42
:103D300069EE007A53469FED167A68EE8A8A002073
:103D400067EE8A7A0194009668EEA98A114A67EEB6
:103D5000A97ACDE902B5F5EEC07ADFED0C7AF1EE85
:103D600010FA48BFF1EE688A78EEA77AFCEEE77A9F
:103D7000F9E500BFA41C432058864100548541004A
:103D8000C2F38E4D1885410060DD4100BD37063518
:103D900000247449D88541000089012894BF00207F
:103DA0000120704710B582B0044601F0E1FF012800
:103DB00011D0204601F0E4FF9FED0A7A07EE900A49
:103DC000C7EE277A77EE877AFCEEE77ACDED017AB7
:103DD000019802B010BD4FF4FA630193019802B04C
:103DE00010BD00BF0000FA4438B52DED028B15461A
:103DF00008EE100A0C4602F0A5FA07EE900AC7EE8C
:103E0000887ABDEC028BFCEEE77A17EE903A1A0C3A
:103E10009BB22A60236038BD2DE9F04F87B01F4662
:103E20001646009003919DF8404002F091FA00235D
:103E3000ADF814300493002F48D09C4202934FEA0F
:103E40005000039C14BF4FF4E0434FF40043A0F133
:103E5000030A1BB201932CE0019B1FFA85F905F1BF
:103E6000030B214643EA060009F1FF3C029B4FEA9F
:103E70004B089CFA9CFC40BA4246A3802080A8F1E3
:103E80000608A4F802C04E44009802F091FA2046B9
:103E90005946B6B202F036FB0498BDF814207F1BD9
:103EA0002060A28044442068A2880490ADF81420C9
:103EB0000CD0BA45554628BF3D46BA45CCD2CBD0EA
:103EC000EB07C9D5013DEB07FCD4C5E703980630E5
:103ED00007B0BDE8F08F00BF0320704710B541F474
:103EE000A04382B014BA06225BBA6946CDF80240FC
:103EF000ADF8003002F05CFA02B010BD38B51C46D7
:103F000010601960154602F023FA2168884202D237
:103F100002F01EFA01462B680239023321F0030138
:103F20002B60216038BD00BF2DE9F0419C1C074685
:103F30000D46164602F00CFAA04207D2094B0020AB
:103F4000094A5B6B0949BDE8F041184745F4A045B3
:103F50002246314638466DBA3580BDE8F04102F060
:103F600027BA00BFA41C432084864100A4864100D8
:103F70000331B0EB410F2CBF01200020704700BF80
:103F800010B5002482B00094FFF746FF02B010BDC8
:103F900070B505690446284602F0E0F90A4905EBC8
:103FA000C503226B0968201DDB00483B194400F063
:103FB000E7FD064618B101233046E37070BD284680
:103FC00002F0D2F9304670BD5410402038B5034697
:103FD00004301D6900F0F8FD044630B9054B064A6F
:103FE0005B6B06499847204638BD284602F0C2F967
:103FF000F9E700BFA41C4320E08641000087410090
:104000002DE9F84300EBC004DFF88C804FF0000C82
:104010000E46E400D8F8003005461746483C2344D5
:1040200083F841C002F09AF9304600F08BFD60B988
:1040300015492B46154A81464C6B1549A047284621
:1040400002F092F94846BDE8F88329460A2002F0BA
:1040500043FAD8F8002039463046224400F076FD75
:10406000814650B908492B460A4A4C6B0849A0477B
:1040700029460B2002F030FAE1E7D8F8003001229F
:104080001C4484F84120F3E7A41C4320108741001E
:10409000008741004C87410054104020F8B5184E6D
:1040A00034780CB12046F8BD02F046F9154F00EB0C
:1040B000C0004FF496721449C00002F07FF93860D6
:1040C0000028EFD0254609E03B6803EBC003184603
:1040D00009F074F980F8415080F8405002F02CF952
:1040E000A0424FF0480204EBC4004FF0000104F17D
:1040F0000104E9D801231C4633702046F8BD00BFF7
:104100004E10402054104020C886410010B5054C88
:10411000237803B910BD044B186802F093F900230B
:10412000237010BD4E104020541040202DE9F04760
:1041300045781E462DB10023337073702846BDE8C4
:10414000F087DFF8E0C004460F469046DCF800C078
:10415000D0F810A0BCF1000F14D0DCF80C90B9F12D
:10416000000F0FD0C8470028E8D06578002DE5D1B2
:10417000012543463A465146012002F07BF9284684
:10418000BDE8F08700233370737094F80090B9F1A4
:10419000020F24D0B9F1010F27D0216B201D00F0B0
:1041A0001DFD436843B91B4918461B4A4B6B1B490D
:1041B00098472846BDE8F087BB4225D14388434550
:1041C0001DD10278B9F1020F43783270737010D0AC
:1041D000B9F1010FC9D12046FFF7F8FEC5E7204627
:1041E000FFF7D6FE0028D8D1A8E7504602F0CAF85B
:1041F000D3E7504602F0B8F80023E370B5E74FF478
:10420000C571074801F096FC40F28911044801F09D
:1042100091FC00BFA41C4320B086410000874100F0
:10422000C8864100501040202DE9F843061D9146F4
:1042300005462C220C46304600211F4609F0BEF8E8
:104240001C4B4A4630461B686BB3D3F80080B8F16C
:10425000000F28D03B462146C0470646204601F0C5
:10426000DDFCE8B1042818D000232B70204601F0B3
:104270007FFDB0FA80F320465B096B7001F09AFE77
:10428000A870204601F084FC3A4601461C23042015
:1042900002F00AF93046BDE8F88301232B70E5E708
:1042A00002232B70E2E73B46214600F0ABFB0646BB
:1042B000D4E700BF501040202DE9F84F0C4680464F
:1042C00008461D46164601F063FC0746204601F0ED
:1042D00069FE304B81461968B9B14B68ABB12A46CB
:1042E000204631469847054610B92846BDE8F88F64
:1042F000B9F1000F19D101253246394620230D208E
:1043000002F0D2F82846BDE8F88FDFF88CA007EB62
:10431000C702C8F83050DAF8003003EBC20313F8D4
:10432000073C4BB3B9F1000F02D0A6F81490E2E7B6
:10433000204601F025FE0028DDD0D8F8104008F115
:104340000409204602F00AF8DAF8005004EBC40130
:10435000D8F83020484606F11403C90048392944EA
:1043600000F0F8FB0546204601F0FEFF002DC2D10B
:10437000484600F0DFFBB8E708F1040B2A46384650
:104380005946FFF73DFE05460028CBD1584600F0C0
:10439000D1FBAAE750104020541040201A4B1B6854
:1043A00070B5044623B19B6813B1BDE8704018474F
:1043B0002378022B08D02046FFF7EAFD88B1A378C6
:1043C0002BB12378012B0FD00125284670BD251D68
:1043D000284600F0FFFB20B1284600F0E3FB002850
:1043E000EFD10025284670BD251D284600F0DAFBD8
:1043F0000028F6D0284600F0EDFB05460028F0D056
:104400002046FFF7E3FDE0E750104020C37803B9F2
:10441000704710B50446006901F0A6FF0023E37061
:1044200010BD00BF036973B103EBC303064ADB0091
:104430001268483B134493F840200AB983F841209E
:10444000043000F077BB704754104020006970477B
:1044500070B50C4684B0114605461A462046089BA6
:1044600004AEFFF74BFD002328462A2126F8023D23
:10447000324604F071FFBDF80E305B0619D40024FB
:10448000324611212846ADF80E4004F065FFBDF814
:104490000E3013F480661AD015492B46154A204673
:1044A0004E6B1549B047284605F0B2F8204604B0D7
:1044B00070BD01F0D9FF30B10D492B460F4A0120E4
:1044C0004C6B0D49A047284605F0A2F8D7E7012418
:1044D0008023022228462146009404F04FFF8023C7
:1044E000284600961A46072104F048FF2046DEE7DA
:1044F000A41C43205C8941004C8941002089410073
:10450000F0B583B000240F46112102AA064622F816
:10451000024D04F021FFBDF8060010F480650CD0B8
:1045200013493346134A20464D6B1349A84730467A
:1045300005F06EF8204603B0F0BDB7F5806F09D3E3
:104540000B4928463B460D4A4C6B0B49A047284671
:1045500003B0F0BD2A461021304604F0FFFE30467D
:1045600047F48062102104F0F9FE0120E3E700BF68
:10457000A41C43208C8941004C894100BC89410026
:1045800030B583B000231121054602AA22F8023D6E
:1045900004F0E2FEBDF8060010F480640BD1094B74
:1045A0002046094A5B6B09499847284605F030F8D0
:1045B000204603B030BD28460122742104F0CEFE0F
:1045C0000120F6E7A41C4320F88941004C894100F2
:1045D0000022742104F0C2BE00B583B00023112173
:1045E00002AA22F8023D04F0B7FEBDF80600C0F3AF
:1045F000802003B05DF804FB70B582B00023382141
:10460000054602AA22F8023D04F0A6FEBDF80640C7
:1046100064B908492B46084A20464E6B0749B04703
:10462000284604F0F5FF204602B070BD012002B01C
:1046300070BD00BFA41C4320248841004C89410068
:1046400070B50C4684B041B92B4B08462B4A5B6BC6
:104650002B499847204604B070BD0DF10E02282169
:10466000054604F079FEBDF80E20D3B262802370B7
:104670000B2B2CD8DFE803F02308060606060606F7
:10468000060606060120E6E7120A102A29D80126A6
:104690001C48D1B206FA02F2104010B34A1E164B63
:1046A000D2B25E6B202A22D9174B184A0020144937
:1046B000B047284604F0ACFF002004B070BD0E499E
:1046C0002B46134A00204C6B0D49A047F1E70A4ADC
:1046D000002000950A49566B0E4AB047002323700C
:1046E000E7E7054943F4045320224E6B63800A4BED
:1046F00053F82230D9E700BFA41C4320988841001A
:104700004C8941001600010088884100D088410092
:10471000AC884100F0884100708741002DE9F04FDE
:1047200087B004460F4602F1010A02920025039366
:10473000DFF8A0B0DFF8B090DFF8A08014E022F836
:10474000023D204604F008FEBDF816305B0630D46A
:1047500001F08AFE23464A46414618B1DBF8346030
:104760000120B047AA4517D03946204601F01AFE6D
:104770000135064606AA00232A210028DFD1154963
:104780002346154A4D6B1549A847204604F040FFC3
:10479000304607B0BDE8F08F00200E4A0094064670
:1047A000546B029B0E4A0D49A047304607B0BDE846
:1047B000F08F03992046FFF743FF06460028E7D114
:1047C00004492346074A4C6B0449A047304607B0CA
:1047D000BDE8F08FA41C43202C8A41004C89410085
:1047E000788A4100B48A4100548A410070B584B08F
:1047F00014461D46642203AB0646FFF78FFF68B1DF
:104800009DF80C30A3420BD0084A00200849CDE99E
:104810000034084B546B084AA047002004B070BD18
:10482000002DFBD03046FFF7E7FEF7E7A41C43203E
:104830004C894100F4874100408B410001230B2249
:10484000FFF7D4BF30B583B00D460446FFF798FE9E
:1048500010B9002003B030BD2046FFF7CDFE002880
:10486000F7D0294601AB64222046FFF757FF002806
:10487000EFD02046FFF7C0FE0028EAD09DF80430B4
:10488000022BE7D0054A0020BDF80630556B0449DD
:10489000044AA847204604F0BBFEDAE7A41C4320E4
:1048A0004C894100D889410070B584B01646642215
:1048B000054603ABFFF732FF044670B19DF80C309C
:1048C000BDF80E20062B0BD01B49002000922B4672
:1048D0001A4A04464D6B1A49A847204604B070BDD9
:1048E0001005F1D512F4806316D0012329460E205D
:1048F000337001F0F1FDBDF80E20D1050ED4930503
:10490000EBD501F0B1FD0328E7D90B4B04200D4A8C
:104910005B6B0B499847E0E73370EEE701F0A4FDCD
:10492000032805D9044B0420074A5B6B04499847C8
:10493000BDF80E20E3E700BFA41C4320DC8A410041
:104940004C894100288B41000C8B410030B585B06B
:104950006422054603ABFFF7E1FE044640B90C496B
:104960002B460C4A4D6B0C49A847204605B030BD7C
:10497000BDF80E30062BF8D00024054A00932B46D4
:104980002046556B0449054AA847204605B030BD6E
:10499000A41C43206C8B41004C894100A08B41003A
:1049A00070B51546064600222B46FFF7E9FA044685
:1049B00002462B463146002001F05CFD204670BDCA
:1049C00030B585B0002404AA214622F8024D04F037
:1049D000C3FCBDF80E2041F212139A4209D00649D9
:1049E00020460092054A4D6B0549A847204605B070
:1049F00030BD0120FBE700BFA41C432058884100C4
:104A00004C8941002DE9F0470C4692B0804608469B
:104A10009246994601F0BCF80546204608F10C077D
:104A200001F0F4F9ADF80400204601F0DFF9ADF82B
:104A30000600204601F0FCF9ADF80800204601F020
:104A40002BF904232946ADF80A000DEB03021120CF
:104A500001F010FD20220021384608F0AFFC384656
:104A60002368214698470646D8B1202200210AA88B
:104A7000002508F0A3FCD8F8246004950AAA039541
:104A800003AB059521463846CDE90655CDE90855D5
:104A90003568A847064640B9D8F8243038461B6B1D
:104AA0009847304612B0BDE8F087BAF1000F07D042
:104AB0000AAD0FCDAAE80F0095E80F008AE80F00B5
:104AC000B9F1000F10D003AD0FCDC9F80000C9F83F
:104AD0000410C9F80820C9F80C3007CDC9F8100037
:104AE000C9F81410C9F81820204601F041F901282E
:104AF0001BD0204601F044F99FED0D7A07EE900A95
:104B0000C7EE277A77EE877AFCEEE77A17EE903ACF
:104B100000223046C8F80030C8F80820A8F806205F
:104B200088F8042012B0BDE8F0874FF4FA63EFE78D
:104B30000000FA4420B1436A13B11B6B0C301847D4
:104B4000704700BF436AC0685B681847436A0C300F
:104B5000DB6818472DE9F041456A044600F10C0670
:104B6000006AAD6817469846A84738B1636A42465E
:104B7000394630461B69BDE8F0411847BDE8F08171
:104B800070B504461546D0E908039B68984738B1CC
:104B9000636A294604F10C005B69BDE87040184760
:104BA00070BD00BF10B582B00021436A044602AA5E
:104BB0009B6902F8011D0168C068984710B19DF813
:104BC0000730237102B010BD436A0168DB6AC06818
:104BD000184700BF436AC0685B6A1847F0B50023F6
:104BE00083B0051D466A471D04464360821D8360ED
:104BF0002B4600970C30B66AB047A060284603B039
:104C0000F0BD00BF01FB00F002308000704700BF24
:104C100098B14260F0B4044644F8081B59B19700BB
:104C20000026E5191AB144F8043BAC42FBD1013629
:104C30002C46B142F5D1F0BC7047704701FB00F043
:104C40000130C000704700BF18B1002301804280CE
:104C500083807047F0B48C880E8822444F8892FB82
:104C6000F6F406FB142207FB0233013301EBC30108
:104C70000A684B6802604360F0BC7047838810B4D8
:104C800019440488438891FBF4F204FB12115DF887
:104C9000044B03FB01F1013100EBC100704700BF81
:104CA00082B070B404938388048819444688059DB3
:104CB00091FBF4F304FB1311049B06FB0122013268
:104CC00000EBC2004560036070BC02B0704700BFDB
:104CD00083884188013330B49AB20488B2FBF4F37C
:104CE00004FB1323651E9BB213FA85F2838092FBAB
:104CF000F4F304FB132301FB03F3013330BC00EB9B
:104D0000C3007047DFED1F7AB4EEE70AF1EE10FA48
:104D100034D460EE007AD0B19FED1B0AF6EE006A43
:104D2000DFED1A5AB7EE007A27EE800A9FED186A77
:104D300030EE650A20EE270A30EE060A20EE270A3A
:104D400030EE660A60EE277A37EE870A70479FEDED
:104D5000117AF7EE006ADFED105A27EE877A9FEDA1
:104D60000F6A37EE257A27EE877A37EE467A67EEB6
:104D7000877A77EEA67A27EE800A70479FED080AB9
:104D8000704700BFDB0F49BF0018CD37A006B63A09
:104D9000A6AA2A3D9B904CB96683083CA2AA2A3E4B
:104DA0000000C07FDFED097ADFED096A77EEC07A97
:104DB00077EEE67AB4EEE70AF1EE10FA5CBF80F027
:104DC0000100B0EE670AFFF79DBF00BFDB0FC93FD0
:104DD0002EBD3B331AB3023100EB8202F0B4861CC5
:104DE00036F9027C043031F8023C043630F9024CCA
:104DF000043131F9045C13FB07F304FB153305FBA5
:104E000007F51B1326F8063C31F8063C14FB035447
:104E1000241320F8024C8242E2D1F0BC7047704764
:104E2000002956D000EB810140F2273C2DE9F047E4
:104E300040F2A16640F6FA0840F6715E851C40F625
:104E4000D7770EE012FB0CF213FB072343F30F336B
:104E500063BB25F8023C043020F8023C0435814253
:104E600035D035F9029CB0F9024089EAE97284EA4A
:104E7000E473A2EBE972A3EBE47312B21BB29A42A1
:104E800002DB9A461346524613FB06FABAF1000FAC
:104E9000B8BF0AF6FF7AB2EB2A3FD3DB12FB08F267
:104EA00013FB0E2343F30F33002BD2D0C4EB045477
:104EB00004304FEA09390435240399FBF3F994FBD4
:104EC000F3F325F8069C20F8023C8142C9D1BDE8E5
:104ED000F08770474300024608494CBFC34303466E
:104EE000002A23F0404303F500134FEA935331F9AE
:104EF000130000DB7047404200B27047888C4100CD
:104F000000F18042094953004CBFD3431346002AA5
:104F100023F0404303F500134FEA935331F9130094
:104F200000DB7047404200B2704700BF888C4100F0
:104F300005EE100A002008B5B0EE450AFFF732FF73
:104F4000F0EE404A0120B0EE450AFFF72BFFC4EE19
:104F5000807A17EE900A08BDFFEE007A07EE100A7D
:104F6000B4EEE77AF1EE10FA38D4F7EE007AB4EE48
:104F7000E77AF1EE10FA1DDDC7EE875A1A4BDFED26
:104F80001B7AA3F1200225EEA56A73ED016A66EE95
:104F9000277A9A4277EEA67AF7D165EEA75ADFED27
:104FA000147A9FED147A77EEE57A77EEC77A17EEEA
:104FB000900A70470C4B27EE076ADFED0C7AA3F1DD
:104FC000200273ED016A66EE277A9A4277EEA67A9E
:104FD000F7D167EE277A17EE900A7047DFED067A71
:104FE00017EE900A704700BFAC8E41007A513F3BEC
:104FF000DB0FC93F2EBD3B330000C07FC2B1023181
:1050000000EB8202831C30B433F8024C043031F8D8
:10501000025C04332C4423F8064C30F8024C31F87F
:10502000045B2C4420F8024C8242EDD130BC704726
:10503000704700BF2DE9F0478646FBB14FF0000CEA
:105040000227E046604632F92040CE5FD55F043744
:1050500004FB06FA31F9209006FB05F6013009FB46
:1050600015A509FB04648342AC44A044EBD1CEF8FF
:1050700000807046CEF804C0BDE8F0879C46984694
:105080007046CEF80080CEF804C0BDE8F08700BFBF
:1050900007EE100A07EE901A06EE902AB4EEE77AB1
:1050A000F1EE10FA05D4B4EEE67AF1EE10FA76FEDF
:1050B000877A17EE900A704706EE901A07EE102ACC
:1050C00006EE100A07EE903AF4EE476AF1EE10FA97
:1050D0000DD0DDED005A37EE667A76EE666A75EE33
:1050E000E75A85EE876A66EE266A76EEA77A17EEAD
:1050F000900A7047884238BF08467047B2F5004FA3
:10510000F8B540D161B34E0004460025871934F844
:10511000022BA2F50042A7421544F8D1002D4FEA18
:105120005102A0F10200ACBF01244FF0FF3404FB98
:10513000025595FBF1F10CB2002C15DD89B200256A
:10514000064402E08642058007D030F8022F8A42EA
:10515000F8D3521A86420280F7D103B11C80F8BD01
:10516000002BFCD01980F8BD4FF6FF750644671977
:1051700002E00580B042F0D030F8022FBA42F8DCED
:10518000521A0280F6E71921014800F0D3FC00BF53
:10519000B08E41002DE9F047002A14BF17460F4694
:1051A000C1B1994680460E468A463D4600246119A3
:1051B00008EB44003C444A46B142C8BF5546002370
:1051C000A4B22946FFF79AFFAAEB0702A6421FFAEC
:1051D00082FAECD8BDE8F0872DE9F04F87B0049251
:1051E000002970D04FEA520E531E012A73440B441B
:1051F000B3FBF2F4039445D9A2EB0E0E002C41D080
:10520000D34300228246022603F0010391469346CF
:105210000292059301928E455B4628BF8E469645C5
:1052200047D900EB8203029C00EB8E08019DB3F886
:1052300000C0043333F8027C1CFB0655984517FB6D
:105240000644F4D1AEEB02020BF102038E4502F1EB
:10525000004202F1FF3203EB420301D2059AAAB9E0
:105260007246049F0AF1040A95FBF3F594FBF3F4EC
:1052700020F8295009F10109039BBE442AF8024C89
:105280004B45C8D1039807B0BDE8F08F724630F99E
:10529000227000EB820C0133013201974FF0010BB9
:1052A000BCF902C0019FCDF808C03D44029F3C44B8
:1052B000D7E7914201D9059C54B9BBF1000F0AD040
:1052C000DDE90154CDE70391039807B0BDE8F08F05
:1052D000DDE90154DBE74421014800F02BFC00BF6D
:1052E000D08E41002DE9F04F89B0914601930346DD
:1052F00001FB090A4B4403900293029FBA4532D93D
:10530000DDF80C80012403E04F44C844BA4528D995
:1053100039464046019B98470028F5DDB9F1000F5A
:105320001AD03E464546CB465C46294604A8102C7A
:1053300028BF1024224607F043FF31462246284664
:1053400007F03EFF3046224604A907F039FFBBEBC9
:10535000040B25442644E7D14F440024C844BA45F1
:10536000D6D8002CC9D009B0BDE8F08F07EE900A5E
:105370009FEDC17AF0EEE77A2DE9F041F4EEC77ABD
:105380000F4690461E46F1EE10FA2DED028B089D59
:1053900000F3D4809FEDB97ADFEDB96A67EE877AC2
:1053A0009FEDB87AF8FE677A67EEA67A67EE877A9D
:1053B000D7B317EE900AFFF7BBFD9FEDB37A06EE69
:1053C000100ADFEDB27AF7EE006A26EE077AF1EE08
:1053D000005A37EE276A67EE277A26EE076A37EE1D
:1053E000A67AC6EE077A27EEA77AF4EEE57A37EECC
:1053F000267AF1EE10FAB1EEC76A86EE867A36D5D5
:10540000F4EEE67AF1EE10FA40F39B80DFEDA07A3D
:10541000F6EE006A67EE277A77EEA67AFDEEE77A77
:1054200017EE903A5B0098E017EE900AFFF780FDC8
:10543000DFED967A07EE100AF7EE006AF0EE085AF2
:1054400037EE276A67EE277A26EE076A37EEA67AE6
:10545000C6EE077A27EEA77AF4EEE57A37EE267ADB
:10546000F1EE10FAB1EEC76A86EE867A69D49FED46
:10547000896A67EE867AF6EE006A67EE877A77EEDB
:10548000A67AFDEEE77A17EE904A04FB04F3C3F127
:10549000806307EE903AB8EE677AF1EEC77A67EE6E
:1054A000A67A77EEA67AFDEEE77A17EE903A13BB6E
:1054B000B8F1000F0BD04FF48052A8F80230A8F8D2
:1054C0000430A8F80630A8F80830A8F8002016B173
:1054D0004FF07C5333602DB9A8464046BDEC028B9B
:1054E000BDE8F08100234FF00008BDEC028B404680
:1054F0002B60BDE8F081B8F1000F19D09AB2C3F566
:10550000C05CA1B2C2F58050C2EBC23280B201EBE6
:1055100042020FFA80FEC1EB4C01A8F806204000C1
:10552000A8F800E0A8F804E0A8F80200A8F808101D
:105530003CBB002ECFD000233360CCE7DFED567AA2
:1055400036E7DFED567AF6EE006A67EE277A77EEF9
:10555000A67AFDEEE77A17EE903A9800F6EE006A2A
:1055600003FB00F0C0F1806007EE900AF8EE677A66
:10557000B1EEE77A77EE267AFDEEE77A17EE904AFB
:1055800095E715F1000818BF4FF00108002E18BF6D
:105590004FF00108B8F1000F58D0990004FB04F057
:1055A000C3F5805203FB0103C4EB420203F17C43C9
:1055B00002FB02F25B0007EE903AD21AB8EEE77AED
:1055C00007EE902AF8EEE77A87EE278A6EB3002F6F
:1055D00043D1B7EE007AB0EE006A78EE076A36EE95
:1055E000A67A27EE267A37EE067AF1EEC76AC4F578
:1055F00000546400B1EEE76A07EE904AF8EEE77AED
:1056000036EEC87AF1EEC76A86EE277A67EE267A1A
:1056100017EE900AFFF7A0FC9FED1A7A07EE900AAA
:10562000C7EE877AC6ED007A85B1DFED1D7ADFED32
:105630001D6A28EE277AF2EE007A77EEC77A28EE16
:10564000678AC8EE267AC5ED007A46E74FF0010872
:10565000BDEC028B4046BDE8F081DFED136A9FEDA3
:105660000B7A78EE266A9FED116A26EE877A27EE8E
:10567000267A37EE067AB8E7DEFFFF3E0000804864
:1056800000008036DB0F4940778D9F3FF304B53F24
:105690000000004500000046DB0FC93F00008045C8
:1056A000EFC61341E146A6421AF6153F1AF6953F9A
:1056B000F0B5002483B005460E46174623460194F4
:1056C00000F02CF83A4631462846019B03B0BDE86D
:1056D000F04000F01FB800BF70B5002382B00C4648
:1056E0001546064600F01AF86FF040432A46214658
:1056F00030462B4404EB830534F823406B88ADF827
:105700000440ADF80630019B02B0BDE8704000F0E7
:1057100001B800BF6FF0030C043904E04FF0040C33
:1057200001EB82015242920000D170472DE9F0470F
:10573000C3EA0346C3EA2347B0F800A0448883883D
:10574000C5880089C5F57045C3EA004E6346C4EAC2
:10575000054C34B23DB24FEA04384FEA0539340003
:105760003D0088581AFB00881AFB10992CFB04880E
:105770002CFB15994EFB06884EFB179926002F002F
:10578000C0EA0814C0EA29352804C0EA2440885039
:10579000D218E6D1BDE8F0876FF0010C023904E0C1
:1057A0005FF0020C01EB42015242520000D17047FF
:1057B0002DE9F0446746B0F800A044888588C68883
:1057C0000089C6F57046C4EA064CC5EA004EC3EA35
:1057D000034425001BB21E03885A1AFB00662CFBEB
:1057E00004664EFB05662500C0EA061420148852A4
:1057F000D219F1D1BDE8F084012A40F23C812DE9B3
:10580000F04F012404FA02F294B2002C00F054810B
:105810004FF0000E4FEA540884460F467646724613
:10582000964240F2A380F200DCF800A0DCF804907D
:1058300085180A44D5F800B06D68C7F800B07D60DF
:10584000C2F800A0C2F8049018EA060F424607D03A
:1058500026EA0206520806EA0205ADB2002DF7D18B
:105860000EF1010E16430CF1080C08371FFA8EF2E8
:105870009442D5D8002B00F0868007EE904AB7EE10
:10588000007AF8EE677AC7EE276A002C00F0F18004
:105890000027DFED942A35E0F1EE633A35EE843AE5
:1058A000043775EEC45A36EE244ABFB236EE646A47
:1058B00075EE074ABC4237EE457A33EEA75A77EECB
:1058C000E37A65EEA65A63EE263A24EE264A26EEE1
:1058D000266A64EEA64AC2ED003A27EE267A82EDE9
:1058E000014A25EE265AC6ED005A67EEA67A86EDE5
:1058F000016AC5ED004A85ED015A80ED007AC0EDE0
:10590000017A43D9FA0002F1100602F1180002F1FF
:1059100008050A440E4408440D4492ED007AD0ED87
:10592000005A96ED004A90ED016A74EE653AD6EDA4
:10593000014A95ED002A35EE844A34EEC65A95EDBB
:10594000013A63EEA21AD2ED017A76EE244A77EE9E
:10595000025A37EE836A35EE615A37EE427A77EEB5
:10596000C37A002B98D0B1EE455A97E781423FF4B5
:105970006BAF96427FF468AFDCF80050DCF804208F
:105980003D607A6060E7F7EE006A81E7002B00F087
:105990009680F7EE002A9FED532A042C69D9F7EE82
:1059A000001A04259FED4F3A72EE217A6E0062EEE6
:1059B000A26AB6B227EEA77A37EE267AF1EEC76A68
:1059C00087EEA62AC2EEA62A002D4FD000273B461E
:1059D000F7EE004AB0EE434A32E0581901EBC30239
:1059E000334401EBC00092ED015AD2ED005A9BB254
:1059F000D0ED017A90ED007A67EEA43A67EE046A82
:105A000027EE846A67EE247A76EEA36A77EEC67A8A
:105A100026EE836A35EE667A77EE867A80ED017A35
:105A200035EEE77A80ED007A92ED007A92ED016A28
:105A300077EE277A76EE866AC2ED007AC2ED016AC9
:105A40009C42CAD862EEA46A013722EE047A62EE62
:105A5000847ABBB262EE244A36EE874A9D4274EEE7
:105A6000E74A64EE037A74EEA74AE9D8B4423546B1
:105A70009AD8BDE8F08F90ED006AD0ED016A62B36C
:105A800090ED027AD0ED037A76EE474A36EEE75A89
:105A9000D3B9F7EE005A37EE067AC1ED024A77EE37
:105AA000A67A81ED035A27EE257A67EEA57A81ED75
:105AB000007AC1ED017A7047002B7FF4DEAEFFEE75
:105AC000002A9FED092A68E7B6EE004A64EE844A90
:105AD000F0EE445A25EE045ADDE781ED006AC1ED8F
