:020000040040BA
:10000000A02B432041004000D1EC4000C5EC400053
:10001000B9EC4000ADEC4000A1EC40000000000055
:10002000000000000000000000000000E1DA4000D5
:1000300095EC40000000000071DB40007525410098
:10004000194AD2F8883043F4700310B5C2F88830EA
:10005000BFF34F8FBFF36F8F144A154882420BD204
:10006000D34311460024034423F003030433134411
:1000700041F8044B9942FBD10E4A0F4882420CD200
:10008000D3430E490344081D23F00303034451F8EE
:10009000040B994242F8040BF9D113F04BF90EF01E
:1000A00047FE0AF0ADFCFEE700ED00E00010402046
:1000B000441D432000004020AC0E4020F0F14100E0
:1000C0002DE9F04F95B009F05DFF18B9012015B08A
:1000D000BDE8F08F04F0D6FA01468C4810F02AFAF9
:1000E00009F05AFF00F034F9002862D0012000F036
:1000F0008BF900F073FF0490002800F0B88000F046
:10010000B3FD0590002800F0BC80049800F0ECFBE3
:100110000690002800F0BC8000240BA9CDE90B4418
:10012000CDE90D4400F0FAFF04A800F0E5FF0598C2
:1001300000F0DAFB0790002800F0B780022314AD2E
:100140000FA90F940193CDE91044CDE9124400F0BA
:100150002FFE55F83C0D00F01FFE834628466C4CE0
:1001600000F008FE069800F091F9002800F0AF803A
:1001700009AA08A9069800F0F3FF002800F0BE8045
:1001800064480025089FBDF8346010F0C1F905E00F
:1001900037F815102046013510F0CCF9ABB29E426D
:1001A0000CD9002BF4D05B07F2D10A200BF00EFB28
:1001B000EEE7594810F0ACF9012088E7574810F0F5
:1001C000A7F9069800F0B4F9002800F0928007988B
:1001D00000F05CF9002800F0878003AA0AA90798BC
:1001E00000F008FE002877D0BDF8448000264C4877
:1001F0000A9F10F08DF9B8FBFBF808F1FF334FEAC6
:1002000048099BB25B000093B3B29B4517D90136F6
:100210004448314610F08EF9B8F1000F0AD0009B27
:10022000A7F1020AFD183AF8021F204610F082F9E1
:10023000AA45F8D10A204F440BF0C8FAE4E70A2097
:100240000BF0C4FA079800F073F900283AD0019B2C
:10025000012B13D1054606A800F0E2FB07A800F029
:10026000DFFB00F0B1F885F00100C0B22FE72E48A7
:1002700010F04EF900F0A8F8012028E701230193BF
:1002800070E72A4810F044F900F09EF801201EE7BC
:10029000274810F03DF904A800F02EFF05A800F053
:1002A00069FD00F091F8012011E7224810F030F9C3
:1002B00006A800F0B5FB05A800F05CFD00F084F88E
:1002C000012004E705461C4810F022F9C3E7054663
:1002D0001A4810F01DF9BEE70546079800F028F906
:1002E000174810F015F9B6E70546164810F010F952
:1002F000B1E70546144810F00BF9ACE7054606983F
:1003000000F016F9114810F003F9A4E7C4574100B2
:100310002C5941001C594100E4574100C8E54100F7
:10032000C0594100D05941000058410034584100A3
:100330006858410094584100DC594100BC584100C4
:100340008C5941006059410030594100E858410042
:1003500010B5174C23788BB940B104F059F828B187
:1003600000F0B4FA10B102F0CBFE98B9114B0020A6
:10037000114A5B6B11499847207810BD04F022F9AF
:100380000128F9D90B4B02200D4A5B6B0B499847AA
:10039000207810BD0123237004F014F90128EBD953
:1003A000044B0220074A5B6B04499847E4E700BF0F
:1003B00000104020A41C43202C5A4100285A410020
:1003C000445A4100085A410010B50B4C237803B938
:1003D00010BD00F051FB02F0CBFE04F0F3F8012851
:1003E00005D9064B0220064A5B6B0649984704F084
:1003F00049F80023237010BD00104020A41C4320A6
:100400006C5A4100285A410000F07CBB024B01208D
:10041000024A5B6B02491847A41C43205C5B410005
:10042000745B410008B10069704710B5044604F0E0
:10043000C9F830B1034B0120034A5B6B034998476D
:10044000204610BDA41C43205C5B4100745B41004E
:1004500070B50D460446FFF7E5FF58B1294606463C
:1004600003F082FE3DB9A36823B161792046BDE85F
:100470007040184770BD30460F2103F04BFD3046E9
:100480000121BDE8704003F067BD00BFF8B560B959
:10049000204C0020204A636B204998470020636B62
:1004A0001F4A1E4998470020F8BD1E4B04460268AB
:1004B0009A42EDD11C4B1878B8B1637B002BF3D076
:1004C000A368202B11D8194D15F813206AB905EB34
:1004D00043020127567805F8137046B100220D4CEF
:1004E00005F81320DAE7202BF8D90A4CD6E704F1F7
:1004F0001C0002F085FFA3680028F4D0202B06D84A
:1005000005EB4302667305F813605770F8BD667318
:10051000F8BD00BFA41C4320905A4100745B410009
:10052000A05A4100E89EC0AC0110402004104020B9
:100530002DE9F04170B91C4C00201C4A636B1C492A
:1005400098470020636B1B4A19490546984728467F
:10055000BDE8F081184B044602689A42EBD1174B74
:100560001D78DDB1437B002BF1D18368202B15D89A
:10057000134E16F813708FB94FF001081C3006F8AF
:10058000138002F075FFA368202B09D806EB430205
:1005900084F80D8006F813705770D8E7024CD0E746
:1005A00084F80D80D3E700BFA41C4320905A41007B
:1005B000745B4100D45A4100E89EC0AC0110402059
:1005C0000410402043693BB1DA6810B50446184670
:1005D00090470023636110BD704700BF2DE9F041D3
:1005E0000E4682B00546002832D1324B0020324AF6
:1005F0005B6B324998470023B47E64B17268B2B92C
:100600002C4B00202E4A5B6B04462C499847204611
:1006100002B0BDE8F081B26862B9264B2046294A93
:100620005B6B26499847204602B0BDE8F081F2682E
:10063000002AE5D0BBB12B7B3278934218D01D49FC
:1006400000200092204A04464D6B1C49A847DEE773
:100650001E4B02689A42C8D10123CDE72846FFF716
:1006600015FF804648B90024204602B0BDE8F0815D
:1006700096F81880B8F1000FF0D16F7B87B10D4B61
:100680000024134A20465B6B0C499847B8F1000FD1
:10069000BDD02846FFF74CFF204602B0BDE8F081F0
:1006A0006B69AE61D3E900029047747EAF6184F05C
:1006B0000104EBE7A41C4320905A4100745B410005
:1006C000F05A4100105B4100285B4100E89EC0AC3D
:1006D000445B410070B59DF810501E46846945B9D1
:1006E000A07E78B1E36860689A4228BF1A460AF093
:1006F00019FF2069657658B162693146BDE87040DE
:100700000AF010BFA2681160206965760028F3D155
:1007100070BD00BF014B1870704700BF0110402032
:1007200008B538B9064B0020064A5B6B0649984766
:10073000002008BD0268054B9A42F3D1012008BD94
:10074000A41C4320905A4100745B4100E89EC0AC59
:1007500008B538B9094B0020094A5B6B094998472D
:10076000002008BD084B02689A42F3D1038B002B8E
:10077000F0D04369002BEDD0012008BDA41C43201C
:100780005C5B4100745B4100D79DC0AC08B538B9D3
:100790000F4B00200F4A5B6B0F499847002008BDA4
:1007A0000E4B02689A42F3D1038B002BF0D04369C1
:1007B000002BEDD04379013B042B07D9044B0020DB
:1007C000074A5B6B04499847002008BD012008BD1B
:1007D000A41C43205C5B4100745B4100D79DC0AC0E
:1007E000BC5A410010B568B18368044653B16171C9
:1007F0009847237B03B910BD20460121BDE8104076
:10080000FFF726BE03F0DEFE0028F4D0BDE810405E
:10081000FFF7FCBD08B528B103461973BDE80840D1
:10082000FFF716BE03F0CEFE18B1BDE80840FFF793
:10083000EDBD08BD70B5059D04460261084EBDF8CA
:100840001020017106609DF81810856043610283D5
:10085000FFF7C8FF20460021BDE87040FFF7DABF70
:10086000D79DC0AC30B583B0044603F0ABFE03287F
:1008700008D911490420A2684D6B63680F490092A2
:100880000F4AA847606800230E4951F8042B12B1A3
:100890005268904204D00133042BF6D103B030BD2E
:1008A000094A0021204602EB8303596003B0BDE8EA
:1008B000304003F075BE00BFA41C4320A85C41007B
:1008C000805C4100040040200000402010B5054C31
:1008D000207800B110BD012318462370FFF71AFFDE
:1008E000207810BD000040202DE9F043414D83B039
:1008F0002B7853B9404918461C46404A4B6B404937
:100900009847204603B0BDE8F0830746FFF720FF75
:10091000002858D03B69D3F80C80B8F1200F33D8A9
:100920006B7853B92B1D05F1140153F8042B12B148
:10093000926890454CD09942F7D1D5F814903C8BF1
:1009400009F101036B6103F03DFE032808D92A4A2F
:100950004B46CDF800800420566B2949294AB04700
:10096000294B002653F8042B92B10136042EF9D1FD
:1009700021493346254A00204D6B21490446A847AA
:10098000204603B0BDE8F0831B492023204AF2E74C
:100990002146D4231F4A012003F0E4FD044690B110
:1009A0001D4B05EB8605C4F8049039462360C4F856
:1009B00008807B696C60984790B10123204663737F
:1009C00003B0BDE8F0830024204603B0BDE8F08307
:1009D000094B0020114A5B6B04460949984790E790
:1009E00023690BB12046984720460024FFF73AFFC1
:1009F00087E700BF00004020A41C4320BC5B4100EF
:100A0000A85C4100985B410004004020F85B410075
:100A10007C5B41001C5C4100E89EC0ACD05B4100A7
:100A2000114B1B7810B533B1044618B10068FFF7BD
:100A300077FE60B910BD03F0C5FD0028FAD00B4B5E
:100A400001200B4A5B6B0B49BDE81040184720683A
:100A5000FFF76EFD206803690BB198472068FFF728
:100A600001FF0023236010BD00004020A41C432090
:100A7000BC5B4100A85C410038B51B4C2578002DBB
:100A800030D063680BB3201DFFF7CAFFA36803B320
:100A90001648FFF7C5FFE36813B11548FFF7C0FF1D
:100AA000236913B11348FFF7BBFF03F08BFD28B197
:100AB000114B0120114A5B6B1149984700231846DE
:100AC0002370BDE83840FFF725BE1D46A368002B04
:100AD000DED1E368002BE0D12369002BE2D1002DA9
:100AE000ECD0E2E738BD00BF000040200800402005
:100AF0000C00402010004020A41C4320345C410026
:100B0000A85C4100014B5870704700BF00004020B6
:100B100030B50C4685B001461046657903AB2269B5
:100B20008DF80C5000952579A4798DF80D508DF82D
:100B30000E40FFF7CFFD05B030BD00BF70B5A2B0CD
:100B4000054684220E4601A80AF0ECFC01A8FFF736
:100B50001DFE10B9002022B070BD08A803F0E6FB0E
:100B60000028F7D0BDF8804044B9164B2046164AFD
:100B70005B6B16499847204622B070BD9DF88230C5
:100B8000012B14D0337922A9114808AA2B732B46C4
:100B900041F8880D05F11C0003F0A6FD0346003066
:100BA0000C4A18BF0120C5E9042322B070BDBDF86E
:100BB0007A30402BE6D9034B0020074A5B6B034990
:100BC0009847C7E7A41C4320D05C4100005D41006A
:100BD000110B4000C5054000105D410020B10379B4
:100BE000032B0ED00020704710B5044603F0EAFC3A
:100BF00040B1054B0120054A5B6B054998472046EB
:100C000010BD7047002010BDA41C43205C5B410058
:100C1000005D410010B50C46FFF7E0FF48B1611ED2
:100C200000F11C04042904D8DFE801F00E181A1C96
:100C3000040010BD1021204603F07CF92046052158
:100C4000BDE8104003F066B90021204603F072F9B8
:100C500020460021BDE8104003F05CB90721F4E70D
:100C60000921F2E70C21E6E770B55D2384B03B4A29
:100C70008421012003F076FC054600286AD000F1AB
:100C80001C0402263649502322460093354BCDE9F9
:100C900001160321FFF7CEFD2046334903F02CF85F
:100CA0002046324903F03AF82046062103F0A8F91D
:100CB0000121204603F00EF8204603F037F83146B4
:100CC000204603F043F82046002103F073F9204644
:100CD000102103F0CDF92046002103F0DBF9204676
:100CE000002103F055F92046002103F03FF820468B
:100CF000002103F04DF82046FF2103F077F920464C
:100D0000002103F069F90023204619461A4603F032
:100D10009FF92046012103F0D7F92046012103F075
:100D20002DF920460B2103F0E5F820460A2103F0B7
:100D300041F82046002103F0D9F92046012103F0B3
:100D4000EFF920464FF4805103F0FCF920460849A2
:100D500003F038F8284604B070BD00BFB85C41000D
:100D6000150C40003D0B4000CDCC4C3E9A99993E6D
:100D70009D25400070B110B504460068FFF7E8FCFF
:100D800000B910BD2068FFF729FF03F009FC00231C
:100D9000236010BD704700BF10B50446FFF7D8FCB4
:100DA00000B910BD2069BDE8104003F06BB900BF69
:100DB000E8B1037B032B1AD1C9B14369B6EE007ABF
:100DC000DFED0B6A1B68D3ED087A986967EEA67AA7
:100DD0005A8D10B467EE877A5C695B6A0C60486074
:100DE0000A81C1ED047ACB605DF8044B704770470F
:100DF000C2F38E4DB1B1002330B589B00D68032424
:100E0000039101A9029505928DF80440069404937C
:100E10008DF81C308DF81D308DF81E30FFF7DEFB8D
:100E200009B030BD0846704770B50C4684B0014625
:100E30001046657903AB22698DF80D50009526792F
:100E4000E579A4798DF80E608DF80F508DF80C407F
:100E5000FFF740FC04B070BD30B5A5B08822044651
:100E60000D4602A80AF05EFB09A803F025F907EE7B
:100E7000900A09A8B8EEE77ADDED237A67EE277AC3
:100E800017EE901A02F0E8FF02A8FFF77FFC40B1CE
:100E9000169B042B08D11A4B00201A4A5B6B1A4987
:100EA0009847002025B030BD09A803F03FFA00287C
:100EB000F7D009A803F000F9431E9BB2012B09D912
:100EC000042807D00E4B0020104A5B6B0E49984750
:100ED0000020E7E72B7924A90D4809AA23732346AC
:100EE00041F88C0D04F11C0003F0F2FC03460030C5
:100EF000084A18BF0120C4E9042325B030BD00BF53
:100F0000A41C4320545D4100905D4100A45D41005C
:100F1000290E4000C505400010B50446FFF718FC37
:100F200008B1237953B103F04DFB30B1044B0120DC
:100F3000044A5B6B04499847002010BD204610BD51
:100F4000A41C43205C5B4100905D410038B50C4619
:100F5000FFF7E2FFC8B1611E054600F11C04042939
:100F600013D8DFE801F013233335030010212046A6
:100F700002F0E0FF0621204602F0CCFF20460121CE
:100F800002F0EAFF134BC5F8843038BD002120463B
:100F900002F0D0FF0021204602F0BCFF20460321D2
:100FA00002F0DAFF0C4BC5F8843038BD072120462B
:100FB00002F0C0FF0621204602F0ACFF20460921C6
:100FC00002F0CAFF034BC5F8843038BD0921EEE7B3
:100FD0000C21CCE70938843BFA61843C70B56B2363
:100FE00084B03D4A8821012003F0BCFA0546002860
:100FF0006FD000F11C04022638495023224600938A
:10100000374BCDE901160021FFF714FC2046354986
:1010100002F072FE2046344902F080FE204606218E
:1010200002F0EEFF20460A2102F0C4FE2046012114
:1010300002F050FF0121204602F04CFE204602F053
:1010400075FE3146204602F081FE2046002102F066
:10105000B1FF2046002102F09BFF2046002102F054
:1010600085FE2046002102F093FE2046FF2102F07B
:10107000BDFF2046002102F0AFFF002320461A46A4
:10108000194602F0E5FF2046012103F01DF8204635
:101090000B2102F02FFF2046012103F027F8204604
:1010A000124902F0A1FE01222046114902F0B0FED1
:1010B0002046012102F0BEFE2046012103F030F857
:1010C00020464FF4965103F03DF82046094902F0BE
:1010D00079FE284604B070BD3C5D41004D0F4000D4
:1010E000590E4000CDCC4C3ECDCCCC3ECDCCCC3DF1
:1010F0009A99993E9118400070B110B50446006865
:10110000FFF726FB00B910BD2068FFF705FF03F0CD
:1011100047FA0023236010BD704700BFE8B1037B8E
:10112000DBB9D1B14369B6EE007ADFED0C6A1B681A
:10113000D3ED087A9A8D67EEA67A9869013A67EE40
:10114000877A10B45C695B8D0C604A814860C1EDA0
:10115000037A0B815DF8044B70477047C2F38E4DE4
:10116000B9B1002330B5042489B00D6803910DEBAB
:101170000401029505928DF8043004938DF81C301B
:101180008DF81D308DF81E300694FFF727FA09B050
:1011900030BD0846704700BF43693BB110B50446F7
:1011A000184603F0FDF90023636110BD704700BFCE
:1011B0002DE9F04744698AB007468846B4F8C03044
:1011C00091460BB9A4F8C230B4F8C8207C23D4F8F7
:1011D000C450B3FBF2F305FB03F5002D37DB2046CB
:1011E00004A905F03FFBD8F80030049A6E00B4F86B
:1011F000C2102A443868194402F004FC03AA82464B
:1012000004F1BC03386851460092224605F042FBC7
:101210009DF80C3004A92046003318BF012389F83B
:10122000003005F01FFBB4F8C230D8F80000324699
:10123000049918440AEB41010AF00EFAB4F8C230DE
:1012400028461E44A4F8C2600AB0BDE8F08740F208
:101250005A21014802F008FDB05E41002DE9F04F2F
:10126000D0F814A0B7B003468B4615465146BC22B1
:1012700007A8D3F800900AF055F94FF0020C329FFE
:101280000024012607FA0CF807ABDBF804204846D7
:1012900008F1FF37DBF80010CDF8BCC02E971D9683
:1012A0002294BAF8C8701C948DF8D04004F026FE41
:1012B000484605F0A1FA48466B4664224FF4FA61AD
:1012C00002F05EFA064618B9304637B0BDE8F08F36
:1012D0007C23504601A9DBF800B0B3FBF7F705F01B
:1012E000C1FA08FB07F7019A594648463A4402F00A
:1012F00089FB4FF4FA618046484602F0D5FA504621
:1013000001A905F0AFFA01980E2FA7F10E0C08EB1A
:10131000400021D97F0000F11A012346023F0A460E
:1013200000EB070E32F8024F96452344FAD13844B9
:101330000024B3FBFCF231F8023F9B1A002BB8BF2C
:101340005B4288421C44F6D1B4FBFCF4A3B23046A5
:101350002B8037B0BDE8F08F2346F8E7F0B543693E
:10136000002599B00668C3F8BC500C46174603F038
:1013700097F802A9119011A805F0DEFA18B9002417
:10138000204619B0F0BDBDF80A506B46BDF80C10F0
:1013900005AABDF80E000791089061682068CDE9A4
:1013A0000565BDF81050ADF8245003F0C9FC0028C5
:1013B000E5D0BDF80A1011ABBDF80C000AAA9DF8E3
:1013C00004500C90BDF810001095ADF83800CDE930
:1013D0000A61BDF80E100D9100990F91D4E900013A
:1013E00003F064FE04460028C9D0009906239DF846
:1013F00004201198B980FA801299139A3881798162
:10140000BDF85000BDF85210BA81BDF85420F881E3
:1014100039827A823B6003F0D5F80128B0D9034BBA
:101420000220034A5B6B03499847A9E7A41C4320A9
:10143000C45D4100E45D41000B68062B70B58CB0C3
:101440000BD028480621284A446B002000912749E8
:101450000546A04728460CB070BD0C46064603F072
:101460001FF803A9069006A805F066FA05460028AD
:10147000F0D0BDF8123006AABDF80E00B360BDF87A
:1014800014303060B381A088E388BDF81010C6E93D
:1014900004032089638971607C21C6E90603238ADD
:1014A000A089B384638A3062E089F38403F01CFC72
:1014B000BDF81800BDF81A10BDF81E20BDF8203088
:1014C000B062F162BDF82400BDF826103263736388
:1014D000BDF82A20BDF82C30C6E90E01C6E910235C
:1014E000B8E700BFA41C4320305E4100E45D41002A
:1014F00010B5B0F8C84086B064B1694605F0B2F9DD
:101500007C230098B3FBF4F3C0F50060B0FBF3F06C
:1015100006B010BD4FF49F71014802F0A5FB00BF5B
:10152000B05E41002DE9F04F44698DB00646084693
:101530000D4691461F464FF0010B02F0BDFD002302
:10154000A4F8C8002046C4F8BC3006F1040A84F8A8
:10155000B5B0FFF7CDFF854B80B24FF07C0C19681A
:10156000524602903B46019128464946CDF800C0BC
:1015700001F05AF8804618B940460DB0BDE8F08F2A
:10158000284602F00FFD68B9C4E9120B0023284673
:10159000236502F079FC032800F2E580DFE800F023
:1015A000D3CAB8070023C4F848B0E364EEE70DF1EE
:1015B000180B284602F070FC05AA594601F046FCBB
:1015C0000123DDE90512C4E91533C4E917122846E1
:1015D00002F0B4FB042807D8DFE800F096969103E8
:1015E00096000023C4E91933284602F0B7FB80F0C7
:1015F00001032846DBB2E36602F0C2FB80F0010380
:1016000001222846DBB26267236702F0CBFB431E50
:101610002846A36702F066FCE067284602F072FCE9
:10162000C4F88000284602F08FFC431E2846C4F808
:10163000843002F077FCC4F88800284602F0F8FCF9
:1016400084F88D00284602F037FDC4F8AC00284627
:1016500002F0DEFCC4F8A400284602F0E1FCC4F865
:10166000A800284602F054FD80F00103284684F8C3
:10167000B43002F027FC01286DD902380123C4E9F7
:101680002430B3880122504684F8B520C4F898303D
:1016900001F0B4FB002862D17089B6F90820013846
:1016A000F388C4E92702C4F8B03002F0F9FE4FF421
:1016B0006172C4F8B8007C23A9F814200021B4F8A2
:1016C000C820204639835946B3FBF2F23B8903FB1D
:1016D00002F37B8105F0C6F85A46316801231220D7
:1016E00002F076FF01F02AFCBDF818304FF41662C4
:1016F0001844BA81F88140460DB0BDE8F08F012250
:101700000023C4E919236FE70123C4E919336BE708
:101710000DF1180B284602F0BFFB05AA594601F04F
:1017200095FB01200021DDE90523C4E91501C4E989
:1017300017234CE7002301220DF1180B6365A26506
:10174000C4E9173343E700230DF1180BC4E915333F
:10175000C4E917333BE70023C4F8903091E7706980
:10176000FFF7C6FE99E70DF1180B30E72C5E41003C
:1017700038B50139136889B2B3F8C0408C4204D03F
:101780001846BDE83840FFF7B3BE05461846144674
:10179000FFF7AEFEB5FBF0F303FB105000B138BD10
:1017A0002068BDE83840FFF7A3BE00BF8389012B46
:1017B00027D0F0B546690446B0F9087083B0B6F892
:1017C000C0203046013292B2B2FBF3F503FB152381
:1017D0009DB2A6F8C050FFF78BFE04F1140200FB87
:1017E0000575A1896089FFF7C3FF03466946206834
:1017F0005A1EC6F8C430CDE9002505F009F803B03B
:10180000F0BD1846704700BF0246002370B552F87D
:10181000145F04460E46C5F8C03081894089FFF741
:10182000A7FF2B46C5F8C4002068D6E9001204F0D3
:1018300065FB38B9124B0646124A5B6B1249984752
:10184000304670BD206804F0D7FF0646A8B195F871
:10185000B430002BF4D02169206802F0A9F80446C6
:1018600058B102F0AFFE0128EAD9054B0220074A21
:1018700026465B6B04499847E2E70026E0E700BF95
:10188000A41C4320705E4100E45D41008C5E410079
:1018900038B504460D464FF489730F4ACC21012018
:1018A00002F060FE6061A8B1284602F00BFA2060E9
:1018B000284602F02DFCA073284602F03FFAB0FA49
:1018C00080F328465B09E37301F09EFA034B206125
:1018D0000120A36138BD00BFB05E4100F85D41004A
:1018E0002DE9F04F87B00025B0F80CB09946DDF82F
:1018F00040A01D708AF80050C37B009102930369D9
:101900008DF816508DF817500668877B0193BBF150
:10191000000F43D00BF1FF330446904603930EE0D3
:10192000A36920461B6A98472FB1A36930465B6ABA
:101930009847002837D00135ABB29B452ED9A36913
:1019400027B95B6A3046984768B3A3699B690DF174
:10195000160201993046984728B39DF816300BB906
:1019600099F80030A0690DF1170289F8003000994C
:10197000C369204698479DF8173080B20BB99AF892
:101980000030B8F800208AF800301044029BA8F814
:101990000000002BC4D0039BAB42C1D1009B186850
:1019A00007B0BDE8F08F002007B0BDE8F08F00BFA2
:1019B000002070470120704743693BB110B50446D1
:1019C000184602F0EDFD0023636110BD704700BFB3
:1019D00038B50D46416900230068B1F884401370A2
:1019E0002968224602F00EF801466200286809F0D4
:1019F00033FE204638BD00BF70B58AB00C46154690
:101A0000066802F04DFD02A9059005A804F094FFB8
:101A100018B9002420460AB070BDBDF80A1005AA06
:101A2000BDF80C006B46CDE90561BDF80E10BDF8A0
:101A3000106007900891ADF82460D4E9000103F02C
:101A40007FF904460028E4D0009906239DF804207D
:101A5000A980EA802B6002F0B5FD0128DAD9044B99
:101A60000220044A5B6B0449984720460AB070BDC7
:101A7000A41C4320C45D4100E85E41000B68062BB6
:101A800070B586B00AD013480621134A446B002073
:101A900000911249A047002006B070BD0C460546D3
:101AA00002F0FEFC03A9029002A804F045FF002802
:101AB000F2D0BDF81020BDF81230BDF80E606A609B
:101AC000BDF81410A288AB60E3882E60A981C5E937
:101AD0000423E1E7A41C4320305E4100E85E41009E
:101AE00008B502F0DDFC9FED057A00EE100AC7EEA6
:101AF000007AF8FE677A20EE270A08BDF902154F32
:101B000070B5466904464A6833460968006805F0BE
:101B1000C7F838B9114B0546114A5B6B1149984714
:101B2000284670BD206805F001FC0546A0B1F36FA2
:101B3000002BF5D02169206801F03AFF044658B126
:101B400002F040FD0128EBD9044B0220064A25464D
:101B50005B6B04499847E3E70025E1E7A41C4320B9
:101B6000BC604100E85E41008C5E41002DE9F04F11
:101B700080469A4608460E46D8F8143093462DED16
:101B8000068B8DB0069302F01FFA00286DD1304607
:101B9000B7EE00AA02F0A6F808EE100A30469FED54
:101BA000E19A02F0B1F807EE900AF6EE009A78EEAC
:101BB000278AFFF795FF8AEE000A78EE086AB5EEED
:101BC000C08ABEEE008AF1EE10FA54BFF0EE697AD8
:101BD000F0EE487A20EE090A86EE807A37EE277A10
:101BE000BDEEC77A17EE103A1DB2FFF779FF8AEE05
:101BF000000A38EEA87AF5EEC08AF1EE10FA58BF66
:101C0000B0EE698A20EE090AC7EE007A77EE887A8C
:101C1000FDEEE77A17EE903A1CB23046B6F82E90F9
:101C200002F04AFA631B93FBF0F707FB1037002F13
:101C30000EDCA54224DDBC4B0020BC4A5B6B074692
:101C4000BB49984738460DB0BDEC068BBDE8F08F18
:101C500002F0B8FC012805D9B34B0220B54A5B6BF2
:101C6000B3499847E41B24B2E3E7304602F0FCF89E
:101C70000546304602F000F928442DB204B2CCE704
:101C8000304602F0DDF90746002840F05F8115F18B
:101C90000C0FC0F2CF814FEA4919A9F14B090FFA95
:101CA00089F9A14580F25281B7EE00AA07EE904A69
:101CB0009D4BF6EE008AB8EEE79ADFED9A9AD3F8DC
:101CC00034A0FFF70DFFCAEE007A9B4A9B4BF7EE5C
:101CD00000AA67EE897A67EEA97A67EEA87AF5EE30
:101CE000C07AF1EE10FA4CBF93469B46FFF7F8FE20
:101CF0008AEE008AFFF7F4FECAEE007AB7EE00AA79
:101D000028EE098A28EE298A67EE897A28EE288A41
:101D100067EEA97ADFED839A67EEA87AF6EE008A7D
:101D2000F5EEC07ADFED867AF1EE10FA48BFB1EE3B
:101D3000488A38EE278AFCEEC87A17EE906AFFF7D9
:101D4000CFFE8AEE008AFFF7CBFECAEE007A9FED47
:101D500075AA28EE098A28EE298A67EE897A28EE84
:101D6000288A67EEA97AF6EE009A67EEA87AF5EE71
:101D7000C07ADFED737AF1EE10FA48BFB1EE488A0F
:101D800038EE278AFFF7ACFECAEE808AFFF7A8FE7E
:101D90009FED6C7A06EE909ACAEE807AF7EE00AA72
:101DA00068EE898A68EE8A8A67EE897A68EEA98A7F
:101DB000B8EEE69A67EE8A7A9FED5AAA67EEA97A9C
:101DC000F7EE009AF5EEC07ADFED5D7AF1EE10FAEB
:101DD00048BFF1EE688A78EEA77AF6EE008AFCEE4C
:101DE000E77AF8EE677A38EE678A68EE077AFCEEF3
:101DF000E77A17EE904AFFF773FEC9EE807A4E4BF2
:101E00004E4A67EE897A67EE8A7A67EEA87AF5EE2F
:101E1000C07AF1EE10FA4CBF98469046FFF760FE8C
:101E200089EE808AFFF75CFEC9EE807ADFED3D9A8D
:101E300028EE098A28EE0A8A67EE897A28EE288A2F
:101E400067EE8A7AB7EE00AA67EEA87AF6EE008A05
:101E5000F5EEC07ADFED3A7AF1EE10FA48BFB1EE56
:101E6000488A38EE278AFCEEC87A17EE905AFFF7B8
:101E700037FE8AEE008AFFF733FECAEE007A9FED46
:101E800029AA28EE098A28EE298A67EE897A28EE9F
:101E9000288A67EEA97AF6EE009A67EEA87AF5EE40
:101EA000C07ADFED277AF1EE10FA48BFB1EE488A2A
:101EB00038EE278AFFF714FECAEE808AFFF710FE7D
:101EC0009FED207A5B460020019400961E4ACAEEE0
:101ED000807A1749CDE9028568EE898A68EE8A8A98
:101EE00067EE897A68EEA98A67EE8A7A67EEA97A40
:101EF000F5EEC07ADFED127AF1EE10FA48BFF1EE9E
:101F0000688A78EEA77AFCEEE77AF8EE677A38EE20
:101F1000678A68EE077AFCEEE77ACDED047AD0475F
:101F200090E600BFC2F38E4DA41C4320345F4100F5
:101F3000E85E4100005F4100FC5E4100D4D54100F5
:101F4000BD37063500247449A45F4100304602F0D5
:101F5000B3F8631B02460890304693FBF2F301335B
:101F60001FFA83F902F08EF819FB00F083B2B3F583
:101F7000006F07930CD90020E34BE44A07465B6BE4
:101F8000E349984738460DB0BDEC068BBDE8F08FAD
:101F9000304601F007FF0746304601F0E7FF002812
:101FA0003DD12A23562209EB490113FB072709914A
:101FB00009FB07F70337099B9FEDD68A1F44FFF7FC
:101FC0008FFD304620EE088A02F06CF807EE900A8A
:101FD000F5EEC07AF1EE10FA40F36B81C8EE276A95
:101FE00007EE907AB8EEE77ADDED097AB6EE006A90
:101FF00076EEC76AB8EEE77AC6EE877A77EE867A2B
:10200000FDEEE77A17EE903A002B80F2A682BE4BE7
:102010000020C14A5B6B0746BD49984712E609EBB1
:10202000C90303225B000992063307FB03F707F29B
:102030000D17C0E7B7EE00AA07EE905AB24BF6EEC6
:10204000008AB8EEE79ADFEDBA9AD3F83490FFF73A
:1020500047FDCAEE007AB14AB14BF7EE00AA67EE2F
:10206000897A67EEA97A67EEA87AF5EEC07AF1EE82
:1020700010FA4CBF92469A46FFF732FD8AEE008A6C
:10208000FFF72EFDCAEE007AB7EE00AA28EE098A05
:1020900028EE298A67EE897A28EE288A67EEA97ADF
:1020A000DFEDA39A67EEA87AF6EE008AF5EEC07A25
:1020B000DFED9C7AF1EE10FA48BFB1EE488A38EEB7
:1020C000278AFCEEC87A17EE906AFFF709FD8AEEC0
:1020D000008AFFF705FDCAEE007A9FED95AA28EE6B
:1020E000098A28EE298A67EE897A28EE288A67EE1F
:1020F000A97AF6EE009A67EEA87AF5EEC07ADFEDDF
:10210000897AF1EE10FA48BFB1EE488A38EE278A94
:10211000FFF7E6FCCAEE808AFFF7E2FC9FED827AC9
:10212000CAEE807AF7EE00AA68EE898A68EE8A8A9B
:1021300067EE897A68EEA98ABAEE089A67EE8A7A1B
:102140009FED7BAA67EEA97AF7EE009AF5EEC07ACA
:10215000DFED747AF1EE10FA48BFF1EE688A78EE9E
:10216000A77AF6EE008AFCEEE77AF8EE677A38EEA8
:10217000678A68EE077AFCEEE77A17EE904AFFF777
:10218000AFFCC9EE807A654B654A67EE897A67EEE7
:102190008A7A67EEA87AF5EEC07AF1EE10FA4CBFB3
:1021A00098469046FFF79CFC89EE808AFFF798FCE2
:1021B000C9EE807AFAEE089A28EE098A28EE0A8A91
:1021C00067EE897A9FED5A9A28EE288A67EE8A7A16
:1021D000B7EE00AA67EEA87AF6EE008AF5EEC07AAE
:1021E000DFED507AF1EE10FA48BFB1EE488A38EED2
:1021F000278AFCEEC87A17EE905AFFF771FC8AEE38
:10220000008AFFF76DFCCAEE007ABAEE08AA28EE43
:10221000298A28EE098A67EEA97ADFED459A28EE29
:10222000288A67EE897AB6EE009A67EEA87AF5EE0C
:10223000C07ADFED3C7AF1EE10FA48BFB1EE488A81
:1022400038EE278AFFF74CFCCAEE808AFFF748FC7D
:102250009FED357A5346002001940096334ACAEE2A
:10226000807A2B49CDE9028568EE8A8A68EEA98AD0
:1022700067EE8A7A68EE898A67EEA97A67EE897ACC
:10228000F5EEC07ADFED277AF1EE10FA48BFF1EEF5
:10229000688A78EEA77AFCEEE77AF8EE677A38EE8D
:1022A000678A68EE077AFCEEE77ACDED047AC847D4
:1022B000C8E40023069A07EE907A07980127A2F84F
:1022C0008630F8EE677AF38DA2F884003046A8F8DD
:1022D0000430C8EE279AA8F80C70A8F80850A8F89F
:1022E0000A9001F043FE069A002808BF00273046F6
:1022F00082F8707001F0C8FD032800F24581DFE824
:1023000000F0564C371900BFA41C4320E45F410085
:10231000E85E41000000003D44604100FC5E410079
:10232000D4D54100BD37063500247449645F4100AF
:10233000C2F38E4D0BAB30461F46099301F0ACFD46
:102340000AAA394600F082FD06980123DDE90A1247
:1023500043628362C1620263304601F0EFFC0428ED
:1023600033D8DFE810F0EC00EC00F300EA002D00B9
:102370000BAB30461F46099301F08EFD0AAA394681
:1023800000F064FD069F01204FF0000CDDE90A23F8
:10239000C7E9090CFA623B63DEE7002306990122D4
:1023A0004B62CB620B630BAB8A620993D4E70BAA37
:1023B00000230992069AC2E90933D3621363CBE77B
:1023C0000123069A53639363D3630127304601F0D8
:1023D000C5FC069980EA07033046DBB20B6401F0C6
:1023E000CFFC80EA0703069A3046DBB29764536459
:1023F00001F0D8FCB84240F2BD80069A0238D7649A
:1024000010653046B7EE008A01F06CFD069F1FEDA7
:10241000389AF6EE008A7865304601F073FDB865AB
:10242000304601F07FFDF865304601F02BFE38663E
:10243000304601F041FEB86730463E4601F068FE86
:10244000B8F80A30D8F8141080F00102013BB8F84F
:102450000400B1F88610D2B2C7E91903B8F9083000
:10246000FA6779670127F36602F01AF8C6F8800068
:10247000FFF736FB88EE000ADDED087ACBED049A13
:10248000F8EE677A67EE807ACBED037AFFF728FBE8
:1024900088EE000A07EE905A0025F8EEE77A67EE1C
:1024A000807A67EE897A67EEA87ACBED007AFFF73B
:1024B00017FB88EE000A07EE904A9BED007A079E14
:1024C0004FF00104D8F800103B46ABF8166012201C
:1024D000F8EEE77AABF81450ABF81840099AADF86B
:1024E0002C5067EE807A67EE897A67EEA87A37EE2D
:1024F000C77ACBED027A8BED017AAAF80250AAF8DE
:102500000640AAF81040AAF81850AAF80A60AAF8DB
:102510000060AAF80890AAF80460AAF81490AAF833
:10252000169002F055F800F009FD4FF48073AAF8F8
:102530000E00AAF80C30FFF785BB002341E706998F
:10254000012300224B638B63CA633EE70699002395
:1025500001228B634A63CB6337E74FF6FE729342E7
:102560000DDD0B4B00200B4A5B6B07460A49984771
:10257000FFF768BB0023069AD364136541E7099A05
:1025800002FB03779BB295E60BAB0993E4E600BF31
:10259000A41C432068604100E85E410038B5044651
:1025A0000D4640F20F130F4A8821012001F0DAFF97
:1025B0006061A8B1284601F085FB2060284601F043
:1025C000A7FDA073284601F0B9FBB0FA80F32846B6
:1025D0005B09E37300F018FC034B20610120A36149
:1025E00038BD00BFCC5E41008860410008B52DEDCC
:1025F000028B08EE100A01F053FF9FED0A6A07EE06
:10260000900AF7EE006A86EE277AB8EE488AB8FE9E
:10261000477A67EE877A86EEA70A80EE080ABDEC55
:10262000028B08BDF902154F2DE9F04F2DED068BF9
:1026300089B08A46914606460693189F9DF864B075
:10264000BDF9668001F0C0FC002840F08380304670
:10265000DFEDE48A01F046FB09EE100A3046BEEEDB
:10266000008A01F051FB07EE900A384679EE279A6E
:10267000FFF7BCFF39EE097A384620EE280AB5EE9E
:10268000C09AB6EE009AC7EE007AF1EE10FA54BF87
:10269000B0EE497AB0EE487A77EE877AFDEEE77AC7
:1026A00017EE905AFFF7A2FF39EEA97A20EE280A1A
:1026B000F5EEC09AC7EE007AF1EE10FA58BFB0EE10
:1026C000498A18F10B0F37EE888AFDEEC87A17EEAB
:1026D000904A4BDBBBF1000F48D0C346F38D304628
:1026E000079301F0E9FC0128804609D9022823D08C
:1026F000631B93FBF8F208FB1238B8F1000F0EDCF5
:10270000AC4236DAB84B0020B84A5B6B8046B84919
:102710009847404609B0BDEC068BBDE8F08F01F04C
:1027200051FF012805D9B04B0220B24A5B6BB0497A
:102730009847A4EB0804E3E7EB07D9D401F042FF84
:10274000012805D9A84B4046AB4A5B6BA84998477E
:102750000135CDE7304601F087FB0546304601F0F4
:102760008BFB18F10B0F05EB0004B3DA6FF00B0BCA
:10277000B4E7304601F064FC8046002840F0488110
:102780000BFB07FBAB4500F30F82079B4FEA431B94
:10279000ABF14B0B07FB0BFBA34580F2398107EE36
:1027A000904A914B3846DFED8F9AB8EEE79AD3F80E
:1027B0003490FFF71BFFF6EE008A904A384669EE28
:1027C000007A8F4B9FED87AA67EEA97A67EEA87A09
:1027D000F5EEC07AF1EE10FA4CBF92469A46FFF73A
:1027E00005FF384629EE008AFFF700FF69EE007A00
:1027F000384628EE298A67EEA97ADFED7A9A28EE24
:10280000288A67EEA87AF6EE008AF5EEC07ADFED48
:102810007D7AF1EE10FA48BFB1EE488A38EE278A89
:10282000FCEEC87A17EE906AFFF7E0FE384629EE14
:10283000008AFFF7DBFE69EE007A384628EE298A27
:1028400067EEA97AF6EE009A28EE288A67EEA87A53
:10285000F5EEC07ADFED6B7AF1EE10FA48BFB1EE1B
:10286000488A38EE278AFFF7C1FE384669EE008AAB
:10287000FFF7BCFE69EE007A07EE10BA384668EE44
:102880008A8A67EE8A7A9FED57AAB8EEC79A9FEDBB
:102890005E7A68EEA98A67EEA97ADFED529AF5EEC4
:1028A000C07ADFED587AF1EE10FA48BFF1EE688A8F
:1028B00078EEA77AF6EE008AFCEEE77AF8EE677A11
:1028C00038EE678A68EE077AFCEEE77A17EE904AF0
:1028D000FFF78CFE69EE007A484B494A384667EEAE
:1028E000A97A67EEA87AF5EEC07AF1EE10FA4CBF3D
:1028F0009B469346FFF77AFE384629EE008AFFF79B
:1029000075FE69EE007A384628EE298A67EEA97AC4
:10291000DFED349A28EE288A67EEA87AF6EE008A70
:10292000F5EEC07ADFED377AF1EE10FA48BFB1EE7E
:10293000488A38EE278AFCEEC87A17EE905AFFF7DD
:1029400055FE384629EE008AFFF750FE69EE007A00
:10295000384628EE298A67EEA97AF6EE009A28EE24
:10296000288A67EEA87AF5EEC07ADFED267AF1EED6
:1029700010FA48BFB1EE488A38EE278AFFF736FED4
:10298000384669EE008AFFF731FE69EE007A534659
:102990009FED1D7A68EE8A8A002067EE8A7A1B4ACC
:1029A000019468EEA98A009667EEA97ACDE902B58E
:1029B000F5EEC07ADFED137AF1EE10FA48BFF1EED2
:1029C000688A78EEA77AFCEEE77AF8EE677A08492B
:1029D00038EE678A68EE077AFCEEE77ACDED047A86
:1029E000C84796E6C2F38E4DA41C4320345F4100D5
:1029F00014614100005F4100DC604100FC5E410069
:102A0000D4D54100BD37063500247449A45F410088
:102A1000304601F051FBF18D0246E30FE80FA9F8B3
:102A200000109C4623440146284493FBF7F390FB97
:102A3000F7F0A3EB0C03401A95FBF2F1013302FB14
:102A40001151A9F804001B1A11441FFA83FC1A9BA8
:102A500091FBF2F0BCFBF3FB02FB10111FFA8BF0B1
:102A600003FB1BCBA9F806C0A9F80210BBF1000FAD
:102A700000D00130A9F808003046079201F05EF955
:102A80008046304601F000FA079AB8F1040318BFF7
:102A90000123012818BF0023184698467BB9B9F8CE
:102AA00006301A998B420AD9CB4BCC4A5B6BCC4986
:102AB0009847404609B0BDEC068BBDE8F08F38461C
:102AC0000792FFF793FD079A3846DFEDC68A07EEB7
:102AD000902AB6EE008AF8EE677A27EE800A8AED31
:102AE000030AFFF783FD07EE905A3846F8EEE77ABF
:102AF00067EE807A67EEA87A67EE887ACAED007A88
:102B0000FFF774FD07EE904A631B079AF8EEE77A29
:102B1000B9F806109AED007A01FB07F4B9F808003D
:102B200027EE800AAAF8180095FBF7F607FB165562
:102B300020EE280A3D4420EE080A95FBF7F693FBA9
:102B4000F2F307FB1655013330EE477A8AED020A9D
:102B50009BB295FBF2F5B4FBF2F4B7FBF2F7069AE1
:102B6000AAF816308AED017A93801A9B11818B4264
:102B7000108255801480D78010D29BB29382BBF113
:102B8000000F06D01A9B1A9AB1FBF3F302FB131144
:102B90008BB2069AD38201239846BAE50123984660
:102BA000069B9982D982B4E507EE905A8A4B384643
:102BB000DFED8C9AF8EEE78AD3F83490FFF716FD34
:102BC000B6EE009A884A384668EE807A874B9FEDC9
:102BD00085AA67EEA97A67EE897AF5EEC07AF1EEFA
:102BE00010FA4CBF92469A46FFF700FD384628EE91
:102BF000808AFFF7FBFC68EE807A384628EE298A47
:102C000067EEA97ADFED779A28EE098A67EE897A6E
:102C1000B6EE009AF5EEC07ADFED757AF1EE10FAB5
:102C200048BFB1EE488A38EE278AFCEEC87A17EE24
:102C3000906AFFF7DBFC384628EE808AFFF7D6FC67
:102C400068EE807A384628EE298A67EEA97A28EE5F
:102C5000098A67EE897AB6EE009AF5EEC07ADFED62
:102C6000647AF1EE10FA48BFB1EE488A38EE278A4E
:102C7000FFF7BCFC384668EE809AFFF7B7FC68EEB9
:102C8000807A07EE10BA384669EE8A9A67EE8A7A39
:102C90009FED54AAF6EE008A69EE899A67EE897A6A
:102CA000B8EEC79A9FED537AF5EEC07ADFED507A11
:102CB000F1EE10FA48BFF1EE699A79EEA77ADFEDEE
:102CC000499AFCEEE77AF8EE677A38EE678A68EEA2
:102CD000077AFCEEE77A17EE904AFFF787FC69EE79
:102CE000007A414B414A384667EEA97A67EEA87AE6
:102CF000F5EEC07AF1EE10FA4CBF9B469346FFF713
:102D000075FC384629EE008AFFF770FC69EE007A00
:102D1000384628EE298A67EEA97ADFED329A28EE46
:102D2000288A67EEA87AF6EE008AF5EEC07ADFED23
:102D3000307AF1EE10FA48BFB1EE488A38EE278AB1
:102D4000FCEEC87A17EE905AFFF750FC384629EE91
:102D5000008AFFF74BFC69EE007A384628EE298A94
:102D600067EEA97AF6EE009A28EE288A67EEA87A2E
:102D7000F5EEC07ADFED1E7AF1EE10FA48BFB1EE43
:102D8000488A38EE278AFFF731FC384669EE008A18
:102D9000FFF72CFC69EE007A53469FED167A68EE39
:102DA0008A8A002067EE8A7A0194009668EEA98AE2
:102DB000114A67EEA97ACDE902B5F5EEC07ADFEDEA
:102DC0000C7AF1EE10FA48BFF1EE688A78EEA77A35
:102DD000FCEEE77AF9E500BFA41C43203461410012
:102DE00014614100C2F38E4DFC5E4100D4D5410018
:102DF000BD37063500247449645F4100008901280D
:102E000094BF00200120704710B582B0044601F045
:102E10003BF8012811D0204601F03EF89FED0A7AD8
:102E200007EE900AC7EE277A77EE877AFCEEE77A0C
:102E3000CDED017A019802B010BD4FF4FA63019311
:102E4000019802B010BD00BF0000FA4438B52DED66
:102E5000028B154608EE100A0C4601F021FB07EE26
:102E6000900AC7EE887ABDEC028BFCEEE77A17EE8B
:102E7000903A1A0C9BB22A60236038BD2DE9F04FBE
:102E800087B01F461646009003919DF8404001F020
:102E90000DFB0023ADF814300493002F48D09C4262
:102EA00002934FEA5000039C14BF4FF4E0434FF4E9
:102EB0000043A0F1030A1BB201932CE0019B1FFA0F
:102EC00085F905F1030B214643EA060009F1FF3CB1
:102ED000029B4FEA4B089CFA9CFC40BA4246A380F6
:102EE0002080A8F10608A4F802C04E44009801F022
:102EF0000DFB20465946B6B201F0B2FB0498BDF86E
:102F000014207F1B2060A28044442068A288049083
:102F1000ADF814200CD0BA45554628BF3D46BA45F9
:102F2000CCD2CBD0EB07C9D5013DEB07FCD4C5E72C
:102F30000398063007B0BDE8F08F00BF032070474C
:102F400010B541F4A04382B014BA06225BBA6946B8
:102F5000CDF80240ADF8003001F0D8FA02B010BD53
:102F600038B51C4610601960154601F09FFA2168BB
:102F7000884202D201F09AFA01462B6802390233E4
:102F800021F003012B60216038BD00BF2DE9F04125
:102F90009C1C07460D46164601F088FAA04207D24F
:102FA000094B0020094A5B6B0949BDE8F04118470D
:102FB00045F4A0452246314638466DBA3580BDE815
:102FC000F04101F0A3BA00BFA41C4320606141009E
:102FD000806141000331B0EB410F2CBF0120002084
:102FE000704700BF10B5002482B00094FFF746FF81
:102FF00002B010BD70B505690446284601F05CFAC0
:103000000A4905EBC503226B0968201DDB00483B1C
:10301000194400F0E7FD064618B101233046E3707D
:1030200070BD284601F04EFA304670BD4C1040206D
:1030300038B5034604301D6900F0F8FD044630B988
:10304000054B064A5B6B06499847204638BD284623
:1030500001F03EFAF9E700BFA41C4320BC61410027
:10306000DC6141002DE9F84300EBC004DFF88C80FF
:103070004FF0000C0E46E400D8F800300546174625
:10308000483C234483F841C001F016FA304600F072
:103090008BFD60B915492B46154A81464C6B154985
:1030A000A047284601F00EFA4846BDE8F8832946B5
:1030B0000A2001F0BFFAD8F80020394630462244F1
:1030C00000F076FD814650B908492B460A4A4C6B00
:1030D0000849A04729460B2001F0ACFAE1E7D8F8EF
:1030E000003001221C4484F84120F3E7A41C432053
:1030F000EC614100DC614100286241004C1040203D
:10310000F8B5184E34780CB12046F8BD01F0C2F97C
:10311000154F00EBC0004FF496721449C00001F047
:10312000FBF938600028EFD0254609E03B6803EB47
:10313000C003184608F0F4FA80F8415080F8405077
:1031400001F0A8F9A0424FF0480204EBC4004FF090
:10315000000104F10104E9D801231C463370204624
:10316000F8BD00BF461040204C104020A461410033
:1031700010B5054C237803B910BD044B186801F055
:103180000FFA0023237010BD461040204C10402041
:103190002DE9F04745781E462DB10023337073703A
:1031A0002846BDE8F087DFF8E0C004460F469046A9
:1031B000DCF800C0D0F810A0BCF1000F14D0DCF88F
:1031C0000C90B9F1000F0FD0C8470028E8D06578FF
:1031D000002DE5D1012543463A465146012001F034
:1031E000F7F92846BDE8F08700233370737094F830
:1031F0000090B9F1020F24D0B9F1010F27D0216B53
:10320000201D00F01DFD436843B91B4918461B4AA9
:103210004B6B1B4998472846BDE8F087BB4225D138
:10322000438843451DD10278B9F1020F43783270CB
:10323000737010D0B9F1010FC9D12046FFF7F8FE25
:10324000C5E72046FFF7D6FE0028D8D1A8E75046AC
:1032500001F046F9D3E7504601F034F90023E3705A
:10326000B5E74FF4C571074800F0FEFC40F2891144
:10327000044800F0F9FC00BFA41C43208C6141000D
:10328000DC614100A4614100481040202DE9F84371
:10329000061D914605462C220C46304600211F464D
:1032A00008F03EFA1C4B4A4630461B686BB3D3F815
:1032B0000080B8F1000F28D03B462146C0470646A3
:1032C000204600F03BFDE8B1042818D000232B7005
:1032D000204600F0D9FDB0FA80F320465B096B7000
:1032E00000F016FFA870204600F0ECFC3A460146BC
:1032F0001C23042001F086F93046BDE8F883012341
:103300002B70E5E702232B70E2E73B46214600F0F5
:10331000ABFB0646D4E700BF481040202DE9F84F2C
:103320000C46804608461D46164600F0CBFC074674
:10333000204600F0E5FE304B81461968B9B14B6874
:10334000ABB12A46204631469847054610B9284673
:10335000BDE8F88FB9F1000F19D101253246394681
:1033600020230D2001F04EF92846BDE8F88FDFF844
:103370008CA007EBC702C8F83050DAF8003003EB36
:10338000C20313F8073C4BB3B9F1000F02D0A6F803
:103390001490E2E7204600F0A1FE0028DDD0D8F826
:1033A000104008F10409204601F086F8DAF80050D0
:1033B00004EBC401D8F83020484606F11403C900D4
:1033C0004839294400F0F8FB0546204601F07AF818
:1033D000002DC2D1484600F0DFFBB8E708F1040B2E
:1033E0002A4638465946FFF73DFE05460028CBD110
:1033F000584600F0D1FBAAE7481040204C1040206E
:103400001A4B1B6870B5044623B19B6813B1BDE825
:10341000704018472378022B08D02046FFF7EAFDBA
:1034200088B1A3782BB12378012B0FD00125284632
:1034300070BD251D284600F0FFFB20B1284600F096
:10344000E3FB0028EFD10025284670BD251D284646
:1034500000F0DAFB0028F6D0284600F0EDFB054628
:103460000028F0D02046FFF7E3FDE0E748104020B9
:10347000C37803B9704710B50446006901F022F81B
:103480000023E37010BD00BF036973B103EBC303F6
:10349000064ADB001268483B134493F840200AB9FF
:1034A00083F84120043000F077BB70474C10402077
:1034B0000069704770B50C4684B0114605461A463F
:1034C0002046089B04AEFFF74BFD002328462A2127
:1034D00026F8023D324603F0FBFFBDF80E305B06D6
:1034E00019D40024324611212846ADF80E4003F0CD
:1034F000EFFFBDF80E3013F480661AD015492B4645
:10350000154A20464E6B1549B047284604F03CF951
:10351000204604B070BD01F055F830B10D492B467E
:103520000F4A01204C6B0D49A047284604F02CF9A6
:10353000D7E701248023022228462146009403F085
:10354000D9FF8023284600961A46072103F0D2FFB0
:103550002046DEE7A41C4320386441002864410073
:10356000FC634100F0B583B000240F46112102AA8C
:10357000064622F8024D03F0ABFFBDF8060010F43A
:1035800080650CD013493346134A20464D6B1349CE
:10359000A847304604F0F8F8204603B0F0BDB7F570
:1035A000806F09D30B4928463B460D4A4C6B0B49AB
:1035B000A047284603B0F0BD2A461021304603F04C
:1035C00089FF304647F48062102103F083FF012019
:1035D000E3E700BFA41C4320686441002864410065
:1035E0009864410030B583B000231121054602AA3A
:1035F00022F8023D03F06CFFBDF8060010F4806471
:103600000BD1094B2046094A5B6B0949984728466C
:1036100004F0BAF8204603B030BD284601227421D8
:1036200003F058FF0120F6E7A41C4320D4644100B6
:10363000286441000022742103F04CBF00B583B020
:103640000023112102AA22F8023D03F041FFBDF838
:103650000600C0F3802003B05DF804FB70B582B0B3
:1036600000233821054602AA22F8023D03F030FF6C
:10367000BDF8064064B908492B46084A20464E6BFF
:103680000749B047284604F07FF8204602B070BDD5
:10369000012002B070BD00BFA41C432000634100A4
:1036A0002864410070B50C4684B041B92B4B0846E4
:1036B0002B4A5B6B2B499847204604B070BD0DF137
:1036C0000E022821054603F003FFBDF80E20D3B2F9
:1036D000628023700B2B2CD8DFE803F0230806064A
:1036E00006060606060606060120E6E7120A102A66
:1036F00029D801261C48D1B206FA02F2104010B3B4
:103700004A1E164BD2B25E6B202A22D9174B184A9A
:1037100000201449B047284604F036F8002004B0D1
:1037200070BD0E492B46134A00204C6B0D49A04733
:10373000F1E70A4A002000950A49566B0E4AB04745
:1037400000232370E7E7054943F4045320224E6B1E
:1037500063800A4B53F82230D9E700BFA41C4320F2
:103760007463410028644100160001006463410055
:10377000AC63410088634100CC6341004C6241006E
:103780002DE9F04F87B004460F4602F1010A02927C
:1037900000250393DFF8A0B0DFF8B090DFF8A08039
:1037A00014E022F8023D204603F092FEBDF81630E8
:1037B0005B0630D400F006FF23464A46414618B166
:1037C000DBF834600120B047AA4517D039462046BF
:1037D00000F096FE0135064606AA00232A2100289D
:1037E000DFD115492346154A4D6B1549A847204698
:1037F00003F0CAFF304607B0BDE8F08F00200E4A44
:1038000000940646546B029B0E4A0D49A047304671
:1038100007B0BDE8F08F03992046FFF743FF064647
:103820000028E7D104492346074A4C6B0449A047C6
:10383000304607B0BDE8F08FA41C43200865410066
:1038400028644100546541009065410030654100A5
:1038500070B584B014461D46642203AB0646FFF7DC
:103860008FFF68B19DF80C30A3420BD0084A0020AE
:103870000849CDE90034084B546B084AA0470020A2
:1038800004B070BD002DFBD03046FFF7E7FEF7E730
:10389000A41C432028644100D06241001C66410002
:1038A00001230B22FFF7D4BF30B583B00D46044689
:1038B000FFF798FE10B9002003B030BD2046FFF797
:1038C000CDFE0028F7D0294601AB64222046FFF741
:1038D00057FF0028EFD02046FFF7C0FE0028EAD0AF
:1038E0009DF80430022BE7D0054A0020BDF80630D1
:1038F000556B0449044AA847204603F045FFDAE720
:10390000A41C432028644100B464410070B584B015
:1039100016466422054603ABFFF732FF044670B13A
:103920009DF80C30BDF80E20062B0BD01B49002053
:1039300000922B461A4A04464D6B1A49A847204666
:1039400004B070BD1005F1D512F4806316D00123C8
:1039500029460E20337000F06DFEBDF80E20D10513
:103960000ED49305EBD500F02DFE0328E7D90B4BC1
:1039700004200D4A5B6B0B499847E0E73370EEE794
:1039800000F020FE032805D9044B0420074A5B6B96
:1039900004499847BDF80E20E3E700BFA41C43206C
:1039A000B86541002864410004664100E8654100B3
:1039B00030B585B06422054603ABFFF7E1FE04464F
:1039C00040B90C492B460C4A4D6B0C49A847204680
:1039D00005B030BDBDF80E30062BF8D00024054AE6
:1039E00000932B462046556B0449054AA8472046BC
:1039F00005B030BDA41C4320486641002864410046
:103A00007C66410070B51546064600222B46FFF73E
:103A1000E9FA044602462B463146002000F0D8FD64
:103A2000204670BD30B585B0002404AA214622F896
:103A3000024D03F04DFDBDF80E2041F212139A42E3
:103A400009D0064920460092054A4D6B0549A84712
:103A5000204605B030BD0120FBE700BFA41C432079
:103A600034634100286441002DE9F0470C4692B0D0
:103A7000804608469246994600F024F905462046BD
:103A800008F10C0700F04EFAADF80400204600F0F3
:103A900039FAADF80600204600F056FAADF80800F5
:103AA000204600F06DF904232946ADF80A000DEB1D
:103AB0000302112000F08CFD20220021384607F07F
:103AC0002FFE38462368214698470646D8B1202263
:103AD00000210AA8002507F023FED8F824600495E9
:103AE0000AAA039503AB059521463846CDE906554C
:103AF000CDE908553568A847064640B9D8F82430BE
:103B000038461B6B9847304612B0BDE8F087BAF1D3
:103B1000000F07D00AAD0FCDAAE80F0095E80F00FF
:103B20008AE80F00B9F1000F10D003AD0FCDC9F82E
:103B30000000C9F80410C9F80820C9F80C3007CDF6
:103B4000C9F81000C9F81410C9F81820204600F070
:103B50009BF901281BD0204600F09EF99FED0D7ABD
:103B600007EE900AC7EE277A77EE877AFCEEE77ABF
:103B700017EE903A00223046C8F80030C8F8082006
:103B8000A8F8062088F8042012B0BDE8F0874FF4AA
:103B9000FA63EFE70000FA4420B1436A13B11B6BEC
:103BA0000C301847704700BF436AC0685B6818470D
:103BB000436A0C30DB6818472DE9F041456A04463A
:103BC00000F10C06006AAD6817469846A84738B160
:103BD000636A4246394630461B69BDE8F0411847E2
:103BE000BDE8F08170B504461546D0E908039B682E
:103BF000984738B1636A294604F10C005B69BDE857
:103C00007040184770BD00BF10B582B00021436AF4
:103C1000044602AA9B6902F8011D0168C068984722
:103C200010B19DF80730237102B010BD436A0168DE
:103C3000DB6AC068184700BF436AC0685B6A184700
:103C4000F0B5002383B0051D466A471D0446436056
:103C5000821D83602B4600970C30B66AB047A06087
:103C6000284603B0F0BD00BF00B5074A83B0034645
:103C7000002000910549546B054AA047054B1B687D
:103C800003B19847FEE700BFA41C43207C674100B6
:103C9000646741005010402008B10120704710B502
:103CA000044600F08FFC30B1034B0120034A5B6BEC
:103CB00003499847204610BDA41C43208469410055
:103CC000A069410010B50446FFF7E6FF00B1E068C7
:103CD00010BD00BF38B50D460446FFF7DDFF00B14B
:103CE000E56038BD10B50446FFF7D6FF08B1606A3D
:103CF00010BD002010BD00BF38B50D460446FFF7CB
:103D0000CBFF00B1656238BD10B50446FFF7C4FFB4
:103D100008B1A06A10BD002010BD00BF38B50D4627
:103D20000446FFF7B9FF00B1A56238BD10B50446DF
:103D3000FFF7B2FF08B10123237110BD10B504468F
:103D4000FFF7AAFF00B1606B10BD00BF38B50D468C
:103D50000446FFF7A1FF00B1656338BD10B5044606
:103D6000FFF79AFF08B194F8450010BD38B50D462D
:103D70000446FFF791FF08B184F8455038BD00BFF5
:103D800010B50446FFF788FF08B194F8460010BD4F
:103D900038B50D460446FFF77FFF08B184F846505A
:103DA00038BD00BF10B50446FFF776FF08B194F8A0
:103DB000380010BD38B50D460446FFF76DFF00B161
:103DC000258738BD38B50D460446FFF765FF00B1BD
:103DD000256038BD10B50446FFF75EFF08B12069C5
:103DE00010BD002010BD00BF38B50D460446FFF7DA
:103DF00053FF00B1256138BD38B50D460446FFF7C5
:103E00004BFF18B10DB163692B60207E38BD00BF38
:103E100070B50E4615460446FFF73EFF08B16661D1
:103E2000257670BD10B50446FFF736FF00B1207F40
:103E300010BD00BF38B50D460446FFF72DFF00B199
:103E4000257738BD10B50446FFF726FF08B1206A74
:103E500010BD002010BD00BF38B50D460446FFF769
:103E60001BFF00B1256238BD10B50446FFF714FFF3
:103E700008B1B4F9300010BD10B50446FFF70CFFCF
:103E800008B1B4F9320010BD10B50446FFF704FFC5
:103E900000B1207910BD00BF10B50446FFF7FCFE4D
:103EA00040B12379032B05D8DFE803F006060202B0
:103EB000A06810BD024810BD4FF0FF4010BD00BF0C
:103EC0000000C07F10B50446FFF7E6FE00B1608F2A
:103ED00010BD00BF38B50D460446FFF7DDFE00B14A
:103EE000658738BD10B50446FFF7D6FE00B1A08F38
:103EF00010BD00BF38B50D460446FFF7CDFE00B13A
:103F0000A58738BD10B50446FFF7C6FE00B1E08FA7
:103F100010BD00BF38B50D460446FFF7BDFE00B129
:103F2000E58738BD10B50446FFF7B6FE08B1B4F812
:103F3000400010BD38B50D460446FFF7ADFE08B190
:103F4000A4F8405038BD00BF10B50446FFF7A4FEEA
:103F500008B1B4F8420010BD38B50D460446FFF76D
:103F60009BFE08B1A4F8425038BD00BF10B504460E
:103F7000FFF792FE08B194F8620010BD38B50D4607
:103F80000446FFF789FE08B184F8625038BD00BFCF
:103F900038B50D460446FFF77FFE08B184F844505B
:103FA00038BD00BF10B50446FFF776FE08B194F89F
:103FB000440010BD38B50D460446FFF76DFE08B14C
:103FC00084F82C5038BD00BF10B50446FFF764FEDE
:103FD00008B194F82C0010BD38B50D460446FFF723
:103FE0005BFE08B184F8525038BD00BF38B50D46AD
:103FF0000446FFF751FE08B1A4F8505038BD00BF89
:1040000038B50D460446FFF747FE00B1E58538BDDB
:1040100010B50446FFF740FE08B194F8630010BDE8
:1040200010B50446FFF738FE08B194F8640010BDDF
:1040300010B50446FFF730FE08B194F8650010BDD6
:1040400010B50446FFF728FE08B194F8660010BDCD
:10405000F8B50F4616461D460446FFF71DFE28B16B
:1040600084F85470A4F85660A4F85850F8BD00BF06
:1040700038B50D460446FFF70FFE08B1A4F85A50B4
:1040800038BD00BF10B50446FFF706FE08B1B4F80E
:104090005A0010BD38B50D460446FFF7FDFD00B1CE
:1040A000E56538BD10B50446FFF7F6FD08B1E06DD3
:1040B00010BD002010BD00BF10B50446FFF7ECFD99
:1040C00008B1B4F8600010BD38B50D460446FFF7DE
:1040D000E3FD08B1A4F8605038BD00BF10B5044638
:1040E000FFF7DAFD08B194F8470010BD38B50D466A
:1040F0000446FFF7D1FD08B184F8475038BD00BF32
:1041000010B50446FFF7C8FD08B1B4F84A0010BD69
:1041100010B50446FFF7C0FD08B194F84C0010BD7F
:1041200038B50D460446FFF7B7FD08B184F84C508A
:1041300038BD00BF10B50446FFF7AEFD08B1B4F8B6
:104140004E0010BD38B50D460446FFF7A5FD08B179
:10415000A4F84E5038BD00BF10B50446FFF79CFDD3
:1041600008B194F8480010BD38B50D460446FFF775
:1041700093FD08B184F8485038BD00BF2DE9F04FD9
:1041800093B0044600F01EFA01286DD95F4B20461B
:10419000D3F834B0FFF780FD002868D1824620466E
:1041A000FFF77AFD002869D094F8383020460F9345
:1041B000FFF772FD002867D0638F20460E93FFF74C
:1041C0006BFD002866D02046A58FFFF765FD00280F
:1041D00066D02046E68FFFF75FFD002866D02046B8
:1041E000B4F84070FFF758FD002865D02046B4F8B9
:1041F0004280FFF751FD002864D0636B042B7FD908
:10420000434B20461193FFF747FD002861D1414BF6
:1042100020460D93FFF740FD002869D0204694F812
:104220004590FFF739FD002868D0B4F85A202046A1
:104230001092FFF731FD109A08B194F846000992E8
:1042400053460D9A0A9002200792119ACDF82090B9
:1042500002953149CDE905820E9A01920F9ACDE976
:10426000036700922D4AD84713B0BDE8F08F20466F
:10427000D4F80CA0FFF710FD002895D10F90204630
:10428000FFF70AFD002897D10E902046FFF704FDA6
:10429000002898D105462046FFF7FEFC002898D15B
:1042A00006462046FFF7F8FC002898D1074620462E
:1042B000FFF7F2FC002899D180462046FFF7ECFC7E
:1042C00000289AD1164B11932046FFF7E5FC0028F1
:1042D0009DD094F86230002B99D0124920460C4AA8
:1042E000012B18BF11460D91FFF7D6FC002895D180
:1042F00081462046FFF7D0FC002896D1024696E77B
:10430000094A52F823301193DEE700BFA41C432072
:10431000D4D5410040694100A0694100486941008D
:104320003C694100446941008867410038B5054651
:10433000FFF7B2FC044648B16B6B042B08D92B4B3A
:1043400000202B4A5B6B04462A499847204638BD1B
:104350000AD0AB8F162B11D9244B0020264A5B6B59
:10436000044624499847F1E700F0C2F890B91F4984
:104370000446224A4B6B1F499847E7E72B8F013BC6
:104380003E2B12D9194B00201D4A5B6B044619497C
:104390009847DBE72B79032BDBD1144B0020194A1C
:1043A0005B6B044613499847D0E76B6B2A794BB98E
:1043B000032A0CD10D4918461C46134A4B6B0D4974
:1043C0009847C3E7032A06D033F00403BED1012384
:1043D00085F84C30BAE795F84C000028F4D1034B2F
:1043E00004460A4A5B6B03499847AFE7A41C432085
:1043F0009C674100A069410038684100B4674100F2
:104400006C684100F4674100C0684100FC684100ED
:10441000436970B5466B3BB383692BB3836A1BB3A7
:10442000436A0BB3C36AFBB18368EBB1C368DBB10A
:104430000369CBB1F6B10368202B16D843680F2B64
:1044400013D9C3690BB1036A7BB104460A4D012637
:104450000FCC0FC50FCC0FC50FCC0FC594E80300D0
:1044600085E80300304670BD26B1044A00200449A7
:10447000B0470026304670BDA41C4320FC694100B3
:10448000A06E410038220021014807F049B900BF61
:10449000A41C4320014B1868704700BFA41C432094
:1044A000014BDB6A184700BFA41C4320014B58682E
:1044B000704700BFA41C4320014B5B69184700BF35
:1044C000A41C4320014B9B69184700BFA41C432038
:1044D000024BDB6903B11847704700BFA41C43209F
:1044E000024B1B6A03B11847704700BFA41C43204E
:1044F000024BD869003018BF01207047A41C43202C
:10450000014B5B6A184700BFA41C4320014B9B6A08
:10451000184700BFA41C43202DE9F0410D4C0F4665
:1045200090460646A3689847054630B9636B0A4A29
:104530000A4998472846BDE8F081094B1B68002BC3
:10454000F8D01C683A4643463146A0472846BDE8A5
:10455000F08100BFA41C4320D8694100A06E410037
:1045600054104020F8B590B10C4611461A46A4FBF1
:10457000006777B904FB00F52846FFF7CDFF044636
:1045800018B12A46394607F0CBF82046F8BD044654
:10459000FBE7CF210148FFF767FB00BFE869410057
:1045A000064B1B6810B504460BB15B689847044B7B
:1045B0002046DB68BDE81040184700BF541040207B
:1045C000A41C4320014B93F830007047A41C4320E7
:1045D00070B50B4C84B0012500EB40068DF804004B
:1045E00003FA05F004EB860302915C68039524B19D
:1045F00011469B68024601A8A04704B070BD00BFE9
:104600001800402070B50A4C84B0154600EB4002FB
:104610008DF80400072604EB82000291039644689B
:1046200024B11A462946836801A8A04704B070BD8A
:104630001800402010B584B0084B0022029100EB16
:1046400040018DF8040003EB810303925C681CB108
:104650009B68114601A8A04704B010BD1800402077
:104660004A1E31B10388013A5BBA20F8023B531C61
:10467000F8D17047006800BA704700BF00BA086000
:10468000704700BF00487047106A4100343004F0A2
:104690005BBA00BF70B50446343004F01DFA68B947
:1046A000D4F8E02003460125D4F8B01004F1AC00A2
:1046B000136155719371BDE87040084770BD00BF2C
:1046C00038B50468054654B104F1340004F0F6F935
:1046D000D4F80801FFF764FF2046FFF761FF284682
:1046E000BDE83840FFF75CBF2DE9F04F054683B0C9
:1046F0008A4690461021574A9B460120EC23FFF73B
:1047000031FF0646ED23534A4FF488710120FFF72D
:1047100029FF0446002E00F09480002800F09180CC
:1047200000F1EC0200F1140900F1340730604B464F
:10473000009229463846424604F0A0F90346002874
:1047400040D0B4F8FA204046B4F8EC30B4F8F85051
:1047500013446D005B009D4238BF1D46FFF7EAFC25
:104760004FF498723B49854238BF05462846FFF70B
:10477000D3FE0346C4F8080120B304F11000C4F8C6
:104780000C5104F1060E04F1070C4146251D04F1FD
:104790000808A364C4F880304A46C4F8BC3004F565
:1047A0008473A065C4F8940038466465C4F8E0409A
:1047B000C4F86480C4F88450C4E917EC04F06CF9C0
:1047C000034638B930461E46FFF77AFF304603B03D
:1047D000BDE8F08F04F1700504F1AC081E4A022117
:1047E000284603F01FFBDAF80010404604F034F9C5
:1047F0002946384604F0CAF92846414604F0C6F96D
:10480000384604F065F9054660B9144B144A5B6BF1
:104810001449984730462E46FFF752FF304603B002
:10482000BDE8F08F384604F04FF90F490F4A304683
:104830000F4BC4F8E4B0F360C6E9011203B0BDE861
:10484000F08F30460026FFF7ABFE2046FFF7A8FEAC
:10485000BCE700BF406A41008FC2F53CA41C432066
:10486000586A4100786A4100954640008D464000F4
:10487000C1464000343004F067B900BF70B504464B
:10488000343004F029F968B9D4F8482303460125E7
:10489000D4F8181304F54570136155719371BDE890
:1048A0007040084770BD00BF38B50468054654B174
:1048B00004F1340004F002F9D4F87003FFF770FE3D
:1048C0002046FFF76DFE2846BDE83840FFF768BE7A
:1048D0002DE9F04F8DB006461746012004911021B6
:1048E00007934FF48073D94AFFF73CFE804640F2AD
:1048F0000113D64A4FF45E710120FFF733FE0446E0
:10490000B8F1000F00F0E581B0FA80F56D09002DD7
:1049100040F0DF8100F1340300F5557200F1140A14
:10492000C8F80000029318460092314653463A46B2
:1049300004F0A4F880B329463846FFF75DFA8346B1
:104940000820B4F8546304F015F9B4F86213B4F80D
:10495000543300FB06F2B4F8606338460B44710030
:104960005E008E4238BF0E46964238BF1646FFF7AD
:10497000E1FB864238BF0646C4F87463BBF1000F02
:1049800040F072814FF4C272B0493046FFF7C4FD67
:104990000546C4F8700340B940464FF00008FFF7E1
:1049A00083FF40460DB0BDE8F08FB4F85693082061
:1049B00004F0E0F800FB09531A4604F1080104F181
:1049C000100904F1060EE01D04F1040C6166A564F3
:1049D0006465C4F88050C4F85890C4F89490C4F842
:1049E000D090C4F884C00391C4E917E0C4E92F55FE
:1049F0003846CDE90532FFF771FB0399DDE9053251
:104A000018B1C4F80C91C4E93E55C4F83451C4F847
:104A10003851C4F84891C4F86C51C4F87051C4F8C6
:104A20008091C4F88C11C4F8AC51C4F8B051C4F8EA
:104A3000C091C4F8F051C4F8F421C4F80492C4F849
:104A40002822C4F82C22C4F83C92BBF1000F08D0F5
:104A50002E44C4F87822C4F87C32C4F88462C4F8C6
:104A60008C92C4F8B432524604F55C73C4F8B85260
:104A7000C4F8C8923946C4F8EC52C4F8F052C4F8ED
:104A800000930298C4F82453C4F8484304F004F88F
:104A9000002881D004F1AC0304F1700B0022052141
:104AA0001D465846059303F0BDF92846002205210E
:104AB00003F00AFC3846FFF711FB002840F0F980AC
:104AC00004F5927304F5AE75082205210693184685
:104AD00004F5CE73099504F50679039303F0FEFC03
:104AE000284604F5F07500230821226A089503F092
:104AF00009FBB4F85A533846B4F85C63FFF76AF917
:104B00002B46009032460821039803F081FEB4F84A
:104B100058230821089803F05FFD3846FFF782F913
:104B200005463846FFF78EF9082103462A46CDF898
:104B300000A0484603F0F2F90BA93846FFF75CF9EC
:104B4000002840F0AF8004F5297604F53775082178
:104B500004F5457A304603F051FB02220421284631
:104B600003F0BCFC049B5046196803F075FF5946DE
:104B7000029804F00BF85846059904F007F83846F7
:104B8000FFF7ACFA002840D004F1E80B059859462D
:104B900003F0FCFF0699584603F0F8FFDDF824B057
:104BA0000698594603F0F2FF5846039903F0EEFFCA
:104BB000DDF820B00398594603F0E8FF494658460F
:104BC00003F0E4FF38460021FFF716F910BB484612
:104BD000314603F0DBFF2946304603F0D7FF284675
:104BE000514603F0D3FF029803F072FF0546E0B987
:104BF000174B184A5B6B184998474046A846FFF781
:104C000053FE40460DB0BDE8F08FDDE9050103F02D
:104C1000BDFFC3E704F51A774846394603F0B6FFEF
:104C20003146384603F0B2FFD5E7029803F04CFF57
:104C300007980A49C4F84C034046094A094BC8E999
:104C40000112C8F80C300DB0BDE8F08F886A410041
:104C5000A41C4320586A4100A06A41007D484000DE
:104C600075484000A94840000820B4F8545303F0A8
:104C700081FF06F10A034FF4C2721A4900FB0530A6
:104C8000FFF74AFC0546C4F8700300283FF484AEE1
:104C90000820B4F8569303F06DFF331D00FB095252
:104CA0002B448AE60B9A082104F51A7003F070FE73
:104CB00049E73846FFF750FA0028228D4FF00501EA
:104CC00014BF1E234FF4967304F1E80003F0F6FCC2
:104CD000F6E640464FF00008FFF762FC2046FFF77B
:104CE0005FFC5EE6886A4100800080B200EB510301
:104CF00010809BB28B42538014D3508030B4B3FBEE
:104D0000F1F4002501FB14310124032395819480E3
:104D1000D480548114825482D5819582118013816C
:104D200030BC70470123002103209380538193817D
:104D30001382D180518291821081D081704700BF4F
:104D40002DE9F04F8BB0914604460025069309AB40
:104D500005900A4607912146D9F80000009308AB58
:104D6000CDE90855FEF7A6FB002865D0099BDFF8C2
:104D7000FCA21C46C5F52C63089EB34AAFB29C4208
:104D8000304602EB05014FF0000B28BF1C462246BF
:104D90001FFA84F806F0C6FBD9F804301D2230460D
:104DA0003946019300925346424603F0CBFFD9F8AF
:104DB00008301B2239463046019300925346424642
:104DC00003F0C0FF4FF01C0CD9F80C3042463946B6
:104DD0003046CDE900C3534603F0B4FFB9F810C024
:104DE0001923424639463046CDE9003C534603F08C
:104DF000A9FF1023424639463046CDE900B3534659
:104E000003F0A0FF2346C5F38F01059AD9F80000EF
:104E1000FEF7BCF8099C2544B5F52C6FAAD31821E0
:104E2000D9F80000FEF79EFB064678B9874B884A02
:104E30005B6B8849984705E0844B0646864A5B6B66
:104E40008449984730460BB0BDE8F08FD9F8004050
:104E50005B4603224FF4FA612046FEF7F9FC38B9AD
:104E60007A4B00207D4A5B6B06467A499847E9E712
:104E700009AA9D21204602F02BFBBDF824500520F5
:104E8000012305F0070509AA2146ADF82450FFF7D4
:104E90009FFB2046FEF7E2FB0028E1D04FF4407371
:104EA000D9F80050BDF82460ADF824302846069BA0
:104EB0001E60FEF7C3FB044668B1644C2B4658469F
:104EC000674A656B6349A8470020636B654A61497F
:104ED00006469847B6E713230196634E02460093B1
:104EE0002846624BA3465849029603F0D1FF01239E
:104EF000DFF85891224600932846029601945B4BB6
:104F0000514903F0C5FF09AB21212846002213F8BF
:104F10000BA0554B009102934B49544BCDF804A084
:104F200003F0B6FF40F2CD112846FEF71BFB78B127
:104F3000002309224FF4FA612846FEF789FC70B974
:104F4000424C5346656B4A4A00204249A847BBE79A
:104F50003E4C5346474A656B3E49A847B4E710218B
:104F60000798FEF737F828B9384C434A636B39493C
:104F70009847E6E71023002205992846FEF732F805
:104F800010230246294604460020FFF721FB28464D
:104F9000FEF764FB06460028D2D04FF000082346F7
:104FA00004F11E0C47465A8833F8021B17448A4204
:104FB000A2EB010038BF881A804538BF80469C4567
:104FC000F1D1284602F00EFEF0B910222146284603
:104FD00002F066FB2488294B40F6B8323C44284650
:104FE00024092344B8F5487F98BF93428CBF01271A
:104FF000002702F0F7FD002846D197B1BBF1000F62
:105000000DD14FF0010B7EE7FFF7DCFA0128DCD968
:10501000D9F8343002201A4A0E499847D5E70B4C8C
:1050200052E7069B83F804A0FFF7CCFA01287FF62D
:1050300009AF06990220054A0B79546B0093114A77
:105040000B680449A047FDE69C7B4100A41C43205B
:10505000186B4100F86A4100B46A41004C6B410092
:10506000646B41004C6C4100412F4000F8874100C7
:10507000206C4100986B4100D86B4100E886FFFF2F
:10508000F06B4100646C4100FFF79CFA0128B4D931
:10509000CDF8008023460220D9F83440014A024965
:1050A000A047AAE7086C4100F86A41002DE9F04FDB
:1050B000B1F5457F2DED068BCBB0149012930CD239
:1050C0004E4B00204E4A5B6B04464E4998472046A3
:1050D0004BB0BDEC068BBDE8F08FA1F516731546FD
:1050E000A1F545721499B2F5007F0B440E9201EBC5
:1050F000020A1993C0F06284434BA846DFF8FCB063
:1051000010930223DFED418A9FED418A1393CDF87E
:105110007CA0D8F8000002F065FD002840F014845F
:10512000139A00263B495300199F9FED3C9ACC18D7
:105130001D93DDF85090A246144626E037F8323B26
:10514000B6EE006A07EE103A109BB8EE477AB3F954
:105150000050BAF9003027EE287AED1A2BB237EE5C
:10516000467A06EE903A24AB67EE087AF8EEE66AE5
:1051700027EE897A76EEC77AFDEEE77A17EE902A67
:1051800023F8162001360C2E4AD0D8F8000002F081
:1051900029FD30BBD8F804503B46D8F800003DAAA2
:1051A0003E95D8F80850B8F810C03F95D8F80C5084
:1051B0003D9048464095D8F814500E994495D8F83B
:1051C000185042944396ADF804C1459501F036FC61
:1051D0000028B3D1044620464BB0BDEC068BBDE899
:1051E000F08FFFF7EFF9012833460B4A05494FF0DE
:1051F0000200CFD9DBF83450A847CBE7A41C4320EA
:10520000D8694100886C41005C784100000080371B
:105210009A99993F50784100D46C410000007A443B
:10522000D8F8000002F0DEFC002840F0E0830C22F9
:1052300024A9D8F8000002F033FA0C2021AA24A9EE
:1052400000F00CFDD8F8000002F0CCFC002840F083
:10525000C28321AB0C22D8F800001946119302F04A
:10526000ABF9DDF87CA0119BD8F800001A4612F8C3
:10527000013B0993119202F0B5FC002840F07E81B9
:10528000D8F8000002F0AEFC002840F06A81099BCB
:105290003DAA199E192003EB830430AB2DB204EB19
:1052A000840406EB4401159103F082FE36F81430B5
:1052B00007EE905AF6EE005A1FED286A07EE103AF4
:1052C000F8EEE76A1C90B8EE477A67EE287A77EE38
:1052D000E57A67EE887A27EE867A76EEC77AFDEE73
:1052E000E77A17EE902A16B2002800F0BD823DAA98
:1052F000431E07EE906A0F960B929BB20DF1F602D9
:10530000B8EEE79A02EB43031A930B9BF6EE006AA2
:10531000A14A33F8024B9FEDAD7A0B934AAB03EBF6
:10532000440333F8685C2B460D95A2FB0332159BB2
:10533000C2F3870233F8123007EE903AF8EE677A3C
:1053400067EEA87A77EEE67A67EE887A67EE877A74
:1053500077EE897AFDEEE77A17EE903A1BB20A9360
:10536000FFF730F9032807D923460095DBF83440CE
:1053700004208A4A8A49A047D8F8000002F032FC8B
:10538000002840F0AF80D8F8000002F02BFC002885
:1053900040F0BB80D8F8000002F024FC002840F068
:1053A000C7800A9BA3F21A439BB2C82B00F22B833F
:1053B000D8F8000002F016FC002840F0C6807C21DE
:1053C0001B202AAA4FF00009FFF78EFCD8F80C70BA
:1053D000B8F810C001236FF0010E16260F25072420
:1053E0000620D8E90121CAF80870CAF80020AAF8F6
:1053F0000CC0BDF8AEC0CAF804100321D8E905728C
:10540000CAF84890CAE90472BDF8A8700D9ACAF8A3
:105410002870BDF8AA70CAF81820CAF82C70099A2A
:10542000BDF8B070CAF81C20139ACAE90CC7BDF8C1
:10543000B4C0BDF8B670CAF82020CAE90EC7BDF8DE
:10544000BAC0BDF8BC708AF8B530CAF88840CAF84E
:10545000A0E0CAF884908AF88C908AF88D90CAE906
:1054600010C7CAE91F65CAE91339CAE91593CAE921
:105470001B33CAE91D39CAE92B39CAE92601CAE931
:105480001799CAE91999CAE92499CAE92999FFF72C
:1054900007F89AF88C30CAF8B8002AA98AF8B490AC
:1054A00050460C93D8F80070DAF89C40DAF8AC500B
:1054B000DAF8806001F0D6F92B9A2F9B9A4240F0DF
:1054C0008780384B4846384A5B6B35499847FFF729
:1054D00079F828B1334B0120344A5B6B3049984747
:1054E0000024F4E5FFF76EF801287FF64CAF0220A8
:1054F000DBF834400D9B2E4A2949A047D8F800001C
:1055000002F070FB00283FF445AFFFF75BF801287D
:105510007FF640AF0220DBF834400A9B254A204941
:10552000A047D8F8000002F05DFB00283FF439AF37
:10553000FFF748F801287FF634AFDBF8344002204B
:105540000F9B1D4A1649A0472BE7FFF73BF80128A0
:105550007FF635AFDBF834300220184A10499847FF
:105560002DE7FFF72FF801287FF691AEDBF83440E6
:105570001B23134A02200A49A04788E6FFF722F8B6
:1055800001287FF67DAEDBF834400220099B0D4AEE
:105590000349A04774E600BFCDCCCCCC306D4100B0
:1055A000886C4100A41C4320C86D4100886F4100F5
:1055B000486D41005C6D41006C6D4100A46D41007F
:1055C0001C6D4100D46C41000000F84200007A4498
:1055D00053460E9A14993846DDF8A89000F08EFCD8
:1055E00000283FF474AF07EE905A5FED096A01346A
:1055F000CDF87880F8EE677AD046A4B286EEA77A26
:10560000FCEEC77A17EE903A9BB204FB03952B464B
:1056100035461E46384601F0EFF800283FF457AFF4
:10562000CDF85C804FF0000A1FED18AAB04620AB01
:1056300064224FF4FA613846FEF7A2F800283FF4DE
:1056400046AF9DF88030062B7FF441AF1FFA88F3F8
:105650000E9819461693FDF7BDFC002800F0DF8177
:10566000424614993846FEF7CDF9814600283FF4AA
:105670002EAF2A98C04AA8EB000109EB4000490070
:1056800002F0BAFA002840F0AE80002D40F0CD8143
:105690000C9B002B40F00282FEF794FF032805D9F3
:1056A000DBF834300420B54AB54998472A98B54A02
:1056B000A8EB000109EB4000490002F09DFA002828
:1056C00040F002822C9BF6EE007A129E384639F8A2
:1056D0001310179B06EE901A7561AB49F8EE666AD7
:1056E0001A6AAA4B31F8124066EEA86A2D9933F86F
:1056F000123039F811101B1B76EEE76A07EE101A0C
:105700002E9A19B2B8EE477A39F8123066EE886AE6
:1057100009EE901A1B9327EE287A0C99B8EEE96AE5
:1057200066EE8A6A317677EE677A36EE667A67EEEB
:10573000887ABDEEC77A67EE8A7A17EE103A1CB205
:1057400007EE104AB8EEC77A77EE877AFDEEE77A71
:1057500017EE903A1BB2189302F044FA002840F07A
:10576000E780384602F03EFA002840F0C280384612
:1057700002F038FA002840F0CE80384602F032FAC3
:10578000002840F097800F9B1B1B002BB8BF5B428B
:105790001BB2642B13DCA4F54374A4B2B4F5E67F0A
:1057A0000DD80A9B189A9B1A002BB8BF5B421BB2FC
:1057B000642B04DC19EE903A934280F2B881BAF17E
:1057C000020F2FD0FEF7FEFE032806D9DBF8344087
:1057D00053466F4A04206A49A04738460AF1010A35
:1057E000FDF73CFF23E72A98664AA8EB000109EB86
:1057F0004000490002F000FA00283FF463AF0F2D8B
:1058000040F062810C9B002B00F07381FEF7DAFE02
:1058100003287FF657AFDBF8343004205D4A58493F
:1058200098474FE7DDF85CA0DDF87880FEF7CAFE08
:10583000032805D9DBF834300420574A50499847EB
:1058400038464FF4FA61FEF72FF8FEF7BBFE022848
:1058500005D9DBF834300320504A494998471A9B50
:105860000B9A93427FF451ADFEF7ACFE032808D9A2
:105870001C9B0420DBF834400093494A099B4049B3
:10588000A047FEF79FFE032808D9099B0420DBF8F8
:1058900034400093434A139B3949A047119B24AAE3
:1058A0009A42109B5ED0B3F900501D9A364B9B5E16
:1058B000ED1AD8E4FEF786FE01287FF664AFDDED31
:1058C0001B7AB6EE007A384A0220F8EE677A2C4945
:1058D000DBF8346067EEA87A77EEC77A67EE887AED
:1058E00067EE8A7AFDEEE77A17EE903A1BB2B04780
:1058F00049E7FEF767FE01287FF639AF022023460D
:105900002A4A1F49DBF83460B047384602F06AF98A
:1059100000283FF432AFFEF755FE01287FF62DAF89
:10592000189B0220224A1649DBF83460B04724E76E
:10593000FEF748FE01287FF614AFDBF83430022072
:105940001C4A0F4998470CE7FEF73CFE01287FF6FA
:10595000E7ABDBF834400220139B174A0849A04705
:10596000FFF7DEBB023B1093139B012B3FF4B8AD56
:1059700001231393FFF7CDBB982C1742106E410003
:10598000886C4100ADA82C40507841005878410007
:105990002C6F4100646E4100546F4100D86F41008C
:1059A000F46F410058704100186F4100F06E4100E3
:1059B000046F4100E06E4100C46C4100FEF702FE3E
:1059C00001287FF699AB914B0220914A5B6B91497C
:1059D0009847FFF791BBFEF7F5FD01287FF639AC3C
:1059E000DBF8343002208C4A8A49984731E4FEF7CC
:1059F000E9FD01287FF61BACDBF834300220874A32
:105A00008449984713E4FEF7DDFD03287FF62CAFA9
:105A1000DBF834300420824A7E49984724E77B4BE8
:105A2000804A5B6B7B49984751E5082D2B464646DB
:105A3000DDF85C8038BF0823A3F10805FEF7C2FD3E
:105A4000032806D9DBF834402B46774A04207149F5
:105A5000A0474FF4FA613846FDF726FF3846FDF7B8
:105A6000EDFD044600285AD1DFF8EC9137230246B9
:105A7000019538460093CDF808906C4B6C4903F0C3
:105A800007FA0C993523CDF808900191224600932E
:105A90003846664B664903F0FBF9BBE54646DDF840
:105AA0005C80FEF78FFD032805D9DBF83430042035
:105AB000604A584998474FF4FA613846FDF7F4FEBA
:105AC00000230F250C93C9E705F108034646DDF8CE
:105AD0005C800F2B28BF0F231D46FEF773FD0328A4
