:020000040040BA
:10000000A02B432041004000E1EB4000D5EB400035
:10001000C9EB4000BDEB4000B1EB40000000000028
:10002000000000000000000000000000F1D94000C6
:10003000A5EB40000000000081DA4000852441006B
:10004000194AD2F8883043F4700310B5C2F88830EA
:10005000BFF34F8FBFF36F8F144A154882420BD204
:10006000D34311460024034423F003030433134411
:1000700041F8044B9942FBD10E4A0F4882420CD200
:10008000D3430E490344081D23F00303034451F8EE
:10009000040B994242F8040BF9D113F0D9F80EF091
:1000A000CFFD0AF017F9FEE700ED00E00010402058
:1000B000441D432000004020B00E4020A8CF410046
:1000C0002DE9F04F2DED028B8FB000AF09F0C4FB8E
:1000D00030B901203C37BD46BDEC028BBDE8F08F46
:1000E00003F036FC01466F48C7F808D010F0AAF9B3
:1000F00009F0BCFB00F0F0F8002800F0928000F05E
:10010000BDFD04467861002800F0AF80002100F0BA
:1001100051FE6549204600F017FA20464FF07C5109
:1001200000F01CFA786900F0B5FBB861002800F017
:10013000A38007F11400DFED5D8A00F02FFE00239D
:10014000B86907F124017B63C7E90933C7E90B33B9
:1001500000F05CFED7ED097A554867EEA87AFDEE0F
:10016000E77A17EE901A10F06DF9D7ED0A7A514838
:1001700067EEA87AFCEEE77A17EE901A10F062F9B3
:10018000B98D4D4810F05EF9B86900F041F90028CA
:100190007DD0BA8D69464FF00509DFF83881D3006C
:1001A0000A33DB08A1EBC3039D46C7F80CD007F167
:1001B0001C03F968B86900F04FFE786000283DD054
:1001C000BE8D3E4810F02CF986B3FD680024D5F8AA
:1001D00004B00134D5F800A008355946A4B2504601
:1001E0000BF00EFA594608EE100A50460BF01AFAB8
:1001F00007EE900A28EE288A404667EEA87ABDEE00
:10020000C87AFDEEE77A17EE101A17EE902A10F072
:1002100019F9A6420AD06307D9D10A200AF040FF93
:10022000D5E7274810F0FCF8012053E70A200AF030
:1002300037FFB9F1010904D0BA8DB8E7214810F0B1
:10024000EFF807F1380555F8200D00F033F90446B2
:10025000284600F0BBFB00F07BF87868D7F808D0A0
:10026000204080F00100C0B234E7174810F0D8F801
:1002700000F06EF801202DE7144810F0D1F807F1D6
:10028000140000F08BFD00F063F8012022E7104815
:1002900010F0C6F807F1180000F098FB00F058F8CD
:1002A000012017E7C4564100CDCC4C3E00007A44F3
:1002B0004C5741005C5741006C574100C457410006
:1002C000E4564100A057410000574100305741001B
:1002D000805741000058410010B5174C23788BB966
:1002E00040B103F0F7F928B100F0C6FA10B102F0FE
:1002F00015F898B9114B0020114A5B6B11499847CA
:10030000207810BD03F0C0FA0128F9D90B4B022068
:100310000D4A5B6B0B499847207810BD0123237071
:1003200003F0B2FA0128EBD9044B0220074A5B6BB9
:1003300004499847E4E700BF00104020A41C432074
:10034000305841002C584100485841000C58410099
:1003500010B50B4C237803B910BD00F063FB02F01D
:1003600015F803F091FA012805D9064B0220064A38
:100370005B6B0649984703F0E7F90023237010BD33
:1003800000104020A41C4320705841002C5841000C
:10039000024B0120024A5B6B02491847A41C432010
:1003A000605941007859410008B10069704710B5A3
:1003B000044603F069FA30B1034B0120034A5B6B3A
:1003C00003499847204610BDA41C432060594100B2
:1003D0007859410070B50D460446FFF7E5FF58B166
:1003E0002946064603F022F83DB9A36823B1617996
:1003F0002046BDE87040184770BD30460F2102F01E
:100400000DFF30460121BDE8704002F029BF00BF5A
:10041000F8B560B9204C0020204A636B204998470A
:100420000020636B1F4A1E4998470020F8BD1E4BF1
:10043000044602689A42EDD11C4B1878B8B1637B30
:10044000002BF3D0A368202B11D8194D15F81320D9
:100450006AB905EB43020127567805F8137046B1D7
:1004600000220D4C05F81320DAE7202BF8D90A4CAE
:10047000D6E704F11C0002F0D1F8A3680028F4D0FC
:10048000202B06D805EB4302667305F813605770FE
:10049000F8BD6673F8BD00BFA41C4320945841000A
:1004A00078594100A4584100E89EC0AC011040209A
:1004B000041040202DE9F04170B91C4C00201C4A6A
:1004C000636B1C4998470020636B1B4A194905461A
:1004D00098472846BDE8F081184B044602689A42C6
:1004E000EBD1174B1D78DDB1437B002BF1D1836835
:1004F000202B15D8134E16F813708FB94FF0010842
:100500001C3006F8138002F0C1F8A368202B09D82C
:1005100006EB430284F80D8006F813705770D8E795
:10052000024CD0E784F80D80D3E700BFA41C432021
:100530009458410078594100D8584100E89EC0AC19
:10054000011040200410402010B50C46FFF72CFF8E
:100550002146BDE8104002F06BBD00BF10B50C464F
:10056000FFF722FF2146BDE8104002F073BD00BF37
:1005700043693BB1DA6810B504461846904700233A
:10058000636110BD704700BF2DE9F0410E4682B097
:100590000546002832D1324B0020324A5B6B32498B
:1005A00098470023B47E64B17268B2B92C4B002026
:1005B0002E4A5B6B04462C499847204602B0BDE8A2
:1005C000F081B26862B9264B2046294A5B6B264906
:1005D0009847204602B0BDE8F081F268002AE5D0D5
:1005E000BBB12B7B3278934218D01D49002000927A
:1005F000204A04464D6B1C49A847DEE71E4B0268A3
:100600009A42C8D10123CDE72846FFF701FF804673
:1006100048B90024204602B0BDE8F08196F8188061
:10062000B8F1000FF0D16F7B87B10D4B0024134A56
:1006300020465B6B0C499847B8F1000FBDD02846A7
:10064000FFF738FF204602B0BDE8F0816B69AE616C
:10065000D3E900029047747EAF6184F00104EBE7B8
:10066000A41C43209458410078594100F45841009B
:10067000145941002C594100E89EC0AC4859410032
:1006800070B59DF810501E46846945B9A07E78B1BA
:10069000E36860689A4228BF1A460AF0ADFB2069F9
:1006A000657658B162693146BDE870400AF0A4BB76
:1006B000A2681160206965760028F3D170BD00BF83
:1006C000014B1870704700BF0110402008B538B9C1
:1006D000064B0020064A5B6B06499847002008BD80
:1006E0000268054B9A42F3D1012008BDA41C4320A7
:1006F0009458410078594100E89EC0AC08B538B91B
:10070000094B0020094A5B6B09499847002008BD46
:10071000084B02689A42F3D1038B002BF0D0436957
:10072000002BEDD0012008BDA41C432060594100DE
:1007300078594100D79DC0AC08B538B90F4B00209F
:100740000F4A5B6B0F499847002008BD0E4B0268AB
:100750009A42F3D1038B002BF0D04369002BEDD0EC
:100760004379013B042B07D9044B0020074A5B6BFC
:1007700004499847002008BD012008BDA41C43205F
:100780006059410078594100D79DC0ACC058410024
:1007900010B568B18368044653B161719847237BF3
:1007A00003B910BD20460121BDE81040FFF712BE7D
:1007B00003F06AF80028F4D0BDE81040FFF7E8BD68
:1007C00008B528B103461973BDE80840FFF702BE1B
:1007D00003F05AF818B1BDE80840FFF7D9BD08BDCD
:1007E00070B5059D04460261084EBDF810200171E8
:1007F00006609DF81810856043610283FFF7C8FF0B
:1008000020460021BDE87040FFF7DABFD79DC0AC9D
:1008100030B583B0044603F037F8032808D91149EE
:100820000420A2684D6B63680F4900920F4AA847E5
:10083000606800230E4951F8042B12B152689042AF
:1008400004D00133042BF6D103B030BD094A002196
:10085000204602EB8303596003B0BDE8304003F04B
:1008600001B800BFA41C4320AC5A4100845A410087
:10087000040040200000402010B5054C207800B155
:1008800010BD012318462370FFF71AFF207810BD12
:10089000000040202DE9F043414D83B02B7853B93F
:1008A000404918461C46404A4B6B404998472046F1
:1008B00003B0BDE8F0830746FFF720FF002858D0BB
:1008C0003B69D3F80C80B8F1200F33D86B7853B95B
:1008D0002B1D05F1140153F8042B12B192689045B9
:1008E0004CD09942F7D1D5F814903C8B09F1010313
:1008F0006B6102F0C9FF032808D92A4A4B46CDF89C
:1009000000800420566B2949294AB047294B00260C
:1009100053F8042B92B10136042EF9D12149334604
:10092000254A00204D6B21490446A847204603B0C4
:10093000BDE8F0831B492023204AF2E72146D42357
:100940001F4A012002F070FF044690B11D4B05EBD9
:100950008605C4F8049039462360C4F808807B6992
:100960006C60984790B101232046637303B0BDE8E3
:10097000F0830024204603B0BDE8F083094B00203B
:10098000114A5B6B04460949984790E723690BB10C
:100990002046984720460024FFF73AFF87E700BF2C
:1009A00000004020A41C4320C0594100AC5A410023
:1009B0009C59410004004020FC59410080594100ED
:1009C000205A4100E89EC0ACD4594100114B1B781D
:1009D00010B533B1044618B10068FFF777FE60B96F
:1009E00010BD02F051FF0028FAD00B4B01200B4A3A
:1009F0005B6B0B49BDE8104018472068FFF75AFDB4
:100A0000206803690BB198472068FFF701FF0023B6
:100A1000236010BD00004020A41C4320C0594100A9
:100A2000AC5A410038B51B4C2578002D30D0636896
:100A30000BB3201DFFF7CAFFA36803B31648FFF7E7
:100A4000C5FFE36813B11548FFF7C0FF236913B171
:100A50001348FFF7BBFF02F017FF28B1114B01202D
:100A6000114A5B6B11499847002318462370BDE873
:100A70003840FFF725BE1D46A368002BDED1E36892
:100A8000002BE0D12369002BE2D1002DECD0E2E76E
:100A900038BD00BF00004020080040200C0040206E
:100AA00010004020A41C4320385A4100AC5A410099
:100AB000F0B50C4687B00F79064691F805C015468B
:100AC000C97903AA8DF80E700C23A7890F208DF821
:100AD0000F10A168ADF81070A779059121688DF805
:100AE0000DC08DF80C7002F0EFFE226903AB647943
:100AF000314628460094FFF7C3FD07B0F0BD00BFA4
:100B000070B5A4B004468C220D4601A80AF074F911
:100B100001A8FFF711FE40B1159B042B08D12A4B09
:100B200000202A4A5B6B2A499847002024B070BDF8
:100B300008A802F05DFD0028F7D0BDF880305A1EED
:100B4000012A09D9042B07D01F4B0020214A5B6BD7
:100B50001F4998470020E9E79DF8883003B3DDED91
:100B6000237A17EE901A08A802F0FAFA2B7908A84F
:100B7000194D237302F0CAFA24A984F8500008AA78
:100B8000234641F8905D04F11C0002F017FF034674
:100B90000030124A18BF0120C4E9042324B070BDFC
:100BA00008A89DF8096002F0E9FB07EE900A012E03
:100BB0009FED0B7AF8EE677ADFED0A6A07FE267A78
:100BC00067EE877ACDE700BFA41C4320F85A4100A6
:100BD000345B4100405B4100B10A400071054000B8
:100BE000FA61843C0938843B10B50446FFF786FD62
:100BF00010B12379012B0AD002F046FE30B1054B2B
:100C00000120054A5B6B05499847002010BD20462E
:100C100010BD00BFA41C432060594100345B41005B
:100C200038B50D46FFF7E0FF68B100F11C04012163
:100C3000204602F015FB691E042904D8DFE801F004
:100C40000E181A1C040038BD1021204602F0F6FAD6
:100C500020460521BDE8384002F0E0BA00212046D8
:100C600002F0ECFA20460221BDE8384002F0D6BA84
:100C70000721F4E70921F2E70C21E6E7F0B5742338
:100C800085B0404A8C21012002F0CEFD06460028A6
:100C900074D000F11C0402273B495423224600254E
:100CA00000933A4BCDE901170121FFF799FD00238D
:100CB00020463749C6F8883086F8845002F0B8F9E3
:100CC0002046344902F0C6F92046062102F024FBF2
:100CD00020460A2102F00AFA2046012102F07EFA9B
:100CE00020460B2102F08AFA0121204602F08EF9FB
:100CF000204602F0B7F93946204602F0C3F92946EA
:100D0000204602F0D3FA2946204602F0B3FA2946DB
:100D1000204602F0B9FA2946204602F0C3F92946D6
:100D2000204602F0D1F92046C72102F0E3FA294615
:100D3000204602F0CDFA2B462A462946204602F0EC
:100D4000FBFA2046012102F021FB2046012102F09E
:100D50002FFB2046012102F0F1F92946204602F03E
:100D6000DDF92046012102F03DFB20464FF496516B
:100D700002F04AFB2046084902F0C0F9304605B0AF
:100D8000F0BD00BFBC5A4100210C4000010B4000E7
:100D9000CDCC4C3ECDCCCC3EE916400048B110B590
:100DA00004460068FFF720FF02F05CFD002323608B
:100DB00010BD704770B50C460546FFF715FF90B1A2
:100DC0004CB1012C10D12846FFF7EEFA0021BDE806
:100DD000704002F0A3B92846FFF7E6FA0121BDE80A
:100DE000704002F09BB970BD02F04EFD0028FAD0B1
:100DF000034B0120034A5B6B0349BDE87040184771
:100E0000A41C4320D05A4100345B410000B3037B53
:100E1000012B1DD1E1B14369B6EE007ADFED0D6A19
:100E20001B68D3ED087A9A8D67EEA67A5869013A65
:100E300067EE877A10B49C690860588D1B6B4C6014
:100E4000C1ED037A4A8108810B615DF8044B70475C
:100E5000704700BFC2F38E4D70B58AB00191E0B10A
:100E600090F850500124079301AE002D8DF80C40EE
:100E70004FF006058DF8264014BF082304230024F4
:100E8000049103FB02F203A908958DF824408DF824
:100E90002540CDE90562FFF777FB0AB070BD00BFC2
:100EA00043693BB110B50446184602F0DBFC002351
:100EB000636110BD704700BFF0B54369002599B06C
:100EC0000768C3F8CC500C46164602F04BFC02A94A
:100ED000119011A804F0DCFC18B90024204619B0C8
:100EE000F0BDBDF80A506B46BDF80C1005AABDF860
:100EF0000E000791089061682068CDE90575BDF87E
:100F00001050ADF8245002F043FF0028E5D0BDF8A2
:100F10000A1011ABBDF80C000AAA9DF804500C9001
:100F2000BDF810001095ADF83800CDE90A71BDF894
:100F30000E100D9100990F91D4E9000103F0DEF835
:100F400004460028C9D0009806229DF80410119B81
:100F5000B080F180129813993381BDF850307081C0
:100F6000B181BDF85200BDF85410F3819DF85C309A
:100F700030827182326063B10F23B38202F084FC4D
:100F80000128ABD9044B0220044A5B6B0449984703
:100F9000A4E7BDF85830F0E7A41C43205C5B410097
:100FA0007C5B41000B68062B70B58CB00BD02948D8
:100FB0000621294A446B0020009128490546A04794
:100FC00028460CB070BD0C46064602F0CBFB03A9C8
:100FD000069006A804F05CFC05460028F0D0BDF899
:100FE000123006AABDF80E00B360BDF814303060B0
:100FF000B381A088E388BDF81010C6E904032089F6
:10100000638971607C21C6E90603A089238A306266
:10101000B384608AA38AF084C6F89030E08902F035
:101020008BFEBDF81800BDF81A10BDF81E20BDF8E3
:101030002030B062F162BDF82400BDF826103263A2
:101040007363BDF82A20BDF82C30C6E90E01C6E94D
:101050001023B5E7A41C4320EC5B41007C5B4100FE
:1010600030B5B0F8E45087B0A5B1F82390F8E62089
:10107000B3FBF5F402B17C34694605F049FA009BF4
:101080007C20C3F50063B0FBF5F01B1BB3FBF0F055
:1010900007B030BD4FF4AD71014801F081FF00BFD2
:1010A000945B4100F8B50C46B0F8E41091B37C2590
:1010B0000646B5FBF1F5FFF7D3FF30B3B6F8E470A1
:1010C000F82396F8E660B4FBF0F1B3FBF7F38AB2CD
:1010D000A6B900FB114000280CBF1046501C80B27E
:1010E0001CB115B1A4FB056757B903FB00F004FB65
:1010F00005F4C3439C4212D82044F8BD7C33E8E792
:1011000040F27311084801F04BFF4FF4B6710648E6
:1011100001F046FF40F26711034801F041FF40F241
:101120007511014801F03CFF945B41002DE9F04747
:1011300044698AB006468846B4F8DA3092460BB95C
:10114000A4F8DC30D4F8E0102046FFF7ABFF071E10
:1011500037DB204604A905F0DBF9B4F8DC30049A4B
:101160007D00D8F800103A443068194401F058FD69
:1011700003AA814604F1CC03306849460092224616
:1011800005F0DEF99DF80C3004A92046003318BFA5
:1011900001238AF8003005F0BBF9B4F8DC30D8F848
:1011A00000002A460499184409EB410109F0BEFEEB
:1011B000B4F8DC3038461D44A4F8DC500AB0BDE871
:1011C000F08740F29F21014801F0EAFE945B410064
:1011D0002DE9F04F4569BDB0034688460192294686
:1011E000CC2209A81E6809F007FEDDF8DCB0002457
:1011F00095F8E69001234FEA8B07022285F8E64036
:10120000284607F1FF3C39462093CDF8CCC03692F2
:1012100025941F9439941E94CDE93433FFF742FF8F
:1012200009AB85F8E69082463046D8E9001204F012
:10123000E3FC304605F026F9304602AB64224FF459
:10124000FA6101F0ABFB814618B948463DB0BDE8F4
:10125000F08F7C23284603A9D8F80080B3FBFBFB62
:1012600005F056F9039A41463046524401F0D8FC45
:101270004FF4FA618046304601F024FC284603A969
:1012800005F046F9039DBA1C594608EB4505379E03
:10129000284601F065FEF823B3FBF6F39A4523D9FF
:1012A000BAEB030A05EB430523D05A461FFA8AF12D
:1012B00028464FF4004301F031FEA81E05EB4A0218
:1012C0000E49023A30F8023F0B44002BB8BF5B4294
:1012D00082421C44F6D1019B4846B4FBFAFAA3F8BB
:1012E00000A03DB0BDE8F08F40F24521044801F078
:1012F00057FE4FF41271024801F052FE0180FFFFC9
:10130000945B41002DE9F04F06468DB008460D462E
:1013100074691F46914602F031F80022A4F8E400F7
:1013200028464FF0010B114606F1040A02F014F8AA
:10133000002384F8E6002046C4F8CC3084F8C4B01A
:10134000FFF78EFE984B80B24FF07C0C1968524626
:1013500002903B46019128464946CDF800C000F076
:1013600071FA804618B940460DB0BDE8F08F2846A6
:1013700001F094FFA0B9A064C4E9130B0022284631
:10138000114601F0E9FF6065284601F001FF0328DE
:1013900000F20681DFE810F0E300DA00C8000A007E
:1013A0000023C4F848B0C4E91333E7E70DF1180B84
:1013B000284601F0F5FE05AA594600F055FE012326
:1013C000DDE90512C4E91633C4E91812284601F014
:1013D00051FE042807D8DFE800F0A3A39E03A30072
:1013E0000023C4E91A33284601F054FE80F00103BB
:1013F0002846DBB2236701F05FFE80F00103012283
:101400002846DBB2A267636701F068FE431E2846E8
:10141000E36701F0EBFEC4F88000284601F0F6FE19
:10142000C4F88400284601F013FF431E2846C4F880
:10143000883001F0FBFEC4F88C00284601F052FF12
:10144000C4F89400284601F05FFFC4F898002846CD
:1014500001F0BCFE012840F28A8002380123C4E971
:101460002730284601F08AFFC4F8B800284601F06A
:10147000B1FF80F00100B2880121C3B2504684F868
:10148000C410C4F8C030C4F8A42000F0C5FD002882
:101490007ED17089B6F90830421E012BC4F8A8200D
:1014A00069D00122C4F8B430C4E92B22F388C4F80F
:1014B000BC3002F057F940F69803C4F8C800204643
:1014C000A9F814303989FFF7EDFDB98A78812046F3
:1014D000FFF7E8FD94F8E62002237882002A2046F0
:1014E0003B83594614BF7C2300237B8305F010F80F
:1014F0005A4631680123122002F0CCF900F02CFE8C
:10150000BDF818304FF416621844BA81F88140468D
:101510000DB0BDE8F08F01220023C4E91A2362E771
:101520000123C4E91A335EE70DF1180B284601F0D8
:1015300037FE05AA594600F097FD01200021DDE99C
:101540000523C4E91601C4E918233FE7002301225B
:101550000DF1180BA365E265C4E9183336E70023E3
:101560000DF1180BC4E91633C4E918332EE7002334
:10157000C4F89C3075E772890238012AC4F8A800C3
:101580000AD90222C4E92C320023C4F8AC308DE71A
:101590007069FFF765FD7DE70023C4F8B030F3E71D
:1015A0000DF1180B12E700BFE85B410038B50139B7
:1015B000136889B2B3F8DA408C4204D01846BDE80B
:1015C0003840FFF74DBD054618461446FFF748FD65
:1015D000B5FBF0F303FB105000B138BD2068BDE847
:1015E0003840FFF73DBD00BF8389012B2CD0F0B5FB
:1015F000466985B0B0F908700446B6F8DA5030464E
:101600000135AAB2B2FBF3F503FB1525ADB2A6F87E
:10161000DA50FFF725FD00FB057504F11402A189DE
:101620006089FFF7C3FF012D00F1FF330295C6F873
:10163000E00001930AD001238DF80C3001A9206845
:1016400004F02CFF05B0F0BD1846704702380022A8
:10165000022301908DF80C200293EFE7024600234D
:1016600070B552F8145F04460E46A5F8DA30A5F8B6
:10167000DC3081894089FFF799FF2B46C5F8E000EF
:101680002068D6E9001204F0B7FA38B9124B0646C2
:10169000124A5B6B12499847304670BD206804F0CF
:1016A000F1FE0646A8B1D5F8C030002BF4D0216970
:1016B000206801F08BFA044658B102F0E5F80128E1
:1016C000EAD9054B0220074A26465B6B0449984736
:1016D000E2E70026E0E700BFA41C43202C5C4100A9
:1016E0007C5B4100485C410038B504460D464FF430
:1016F00092730F4AE821012002F096F86061A8B1C8
:10170000284601F07BFC2060284601F063FEA073B0
:10171000284601F0AFFCB0FA80F328465B09E3737A
:1017200000F080FC034B20610120A36138BD00BFA5
:10173000945B4100B45B41002DE9F04F87B0002578
:10174000B0F80CB09946DDF840A01D708AF8005042
:10175000C37B0091029303698DF816508DF81750E2
:101760000668877B0193BBF1000F43D00BF1FF3379
:101770000446904603930EE0A36920461B6A9847EF
:101780002FB1A36930465B6A9847002837D00135EE
:10179000ABB29B452ED9A36927B95B6A30469847FF
:1017A00068B3A3699B690DF1160201993046984709
:1017B00028B39DF816300BB999F80030A0690DF1E7
:1017C000170289F800300099C369204698479DF8B0
:1017D000173080B20BB99AF80030B8F800208AF8B8
:1017E00000301044029BA8F80000002BC4D0039BDB
:1017F000AB42C1D1009B186807B0BDE8F08F002054
:1018000007B0BDE8F08F00BF08B52DED028B08EEE4
:10181000100A01F0A7FF9FED0A6A07EE900AF7EEA3
:10182000006A86EE277AB8EE488AB8FE477A67EEF5
:10183000877A86EEA70A80EE080ABDEC028B08BD07
:10184000F902154F2DE9F04F2DED068B89B08A4630
:10185000914606460693189F9DF864B0BDF96680D0
:1018600001F02EFD002840F083803046DFEDE48A51
:1018700001F0D4FB09EE100A3046BEEE008A01F0FA
:10188000DFFB07EE900A384679EE279AFFF7BCFF98
:1018900039EE097A384620EE280AB5EEC09AB6EE3F
:1018A000009AC7EE007AF1EE10FA54BFB0EE497A12
:1018B000B0EE487A77EE877AFDEEE77A17EE905A27
:1018C000FFF7A2FF39EEA97A20EE280AF5EEC09ABA
:1018D000C7EE007AF1EE10FA58BFB0EE498A18F15F
:1018E0000B0F37EE888AFDEEC87A17EE904A4BDB75
:1018F000BBF1000F48D0C346F38D3046079301F08B
:101900003DFD0128804609D9022823D0631B93FBA3
:10191000F8F208FB1238B8F1000F0EDCAC4236DAF0
:10192000B84B0020B84A5B6B8046B84998474046A0
:1019300009B0BDEC068BBDE8F08F01F0A5FF0128D2
:1019400005D9B04B0220B24A5B6BB0499847A4EB73
:101950000804E3E7EB07D9D401F096FF012805D985
:10196000A84B4046AB4A5B6BA84998470135CDE789
:10197000304601F0FDFB0546304601F001FC18F150
:101980000B0F05EB0004B3DA6FF00B0BB4E7304636
:1019900001F0CAFC8046002840F048810BFB07FBA1
:1019A000AB4500F30F82079B4FEA431BABF14B0B98
:1019B00007FB0BFBA34580F2398107EE904A914B60
:1019C0003846DFED8F9AB8EEE79AD3F83490FFF7F8
:1019D0001BFFF6EE008A904A384669EE007A8F4B7C
:1019E0009FED87AA67EEA97A67EEA87AF5EEC07A2E
:1019F000F1EE10FA4CBF92469A46FFF705FF3846C3
:101A000029EE008AFFF700FF69EE007A384628EEDB
:101A1000298A67EEA97ADFED7A9A28EE288A67EE9E
:101A2000A87AF6EE008AF5EEC07ADFED7D7AF1EE67
:101A300010FA48BFB1EE488A38EE278AFCEEC87A21
:101A400017EE906AFFF7E0FE384629EE008AFFF7AE
:101A5000DBFE69EE007A384628EE298A67EEA97A1D
:101A6000F6EE009A28EE288A67EEA87AF5EEC07A9C
:101A7000DFED6B7AF1EE10FA48BFB1EE488A38EE2E
:101A8000278AFFF7C1FE384669EE008AFFF7BCFEE1
:101A900069EE007A07EE10BA384668EE8A8A67EE79
:101AA0008A7A9FED57AAB8EEC79A9FED5E7A68EEE4
:101AB000A98A67EEA97ADFED529AF5EEC07ADFEDDA
:101AC000587AF1EE10FA48BFF1EE688A78EEA77AFC
:101AD000F6EE008AFCEEE77AF8EE677A38EE678A6F
:101AE00068EE077AFCEEE77A17EE904AFFF78CFE75
:101AF00069EE007A484B494A384667EEA97A67EEA4
:101B0000A87AF5EEC07AF1EE10FA4CBF9B469346E8
:101B1000FFF77AFE384629EE008AFFF775FE69EE78
:101B2000007A384628EE298A67EEA97ADFED349AE2
:101B300028EE288A67EEA87AF6EE008AF5EEC07ADB
:101B4000DFED377AF1EE10FA48BFB1EE488A38EE91
:101B5000278AFCEEC87A17EE905AFFF755FE3846F2
:101B600029EE008AFFF750FE69EE007A384628EE2B
:101B7000298A67EEA97AF6EE009A28EE288A67EE9F
:101B8000A87AF5EEC07ADFED267AF1EE10FA48BFBA
:101B9000B1EE488A38EE278AFFF736FE384669EEFE
:101BA000008AFFF731FE69EE007A53469FED1D7AF9
:101BB00068EE8A8A002067EE8A7A1B4A019468EEF2
:101BC000A98A009667EEA97ACDE902B5F5EEC07A4A
:101BD000DFED137AF1EE10FA48BFF1EE688A78EE85
:101BE000A77AFCEEE77AF8EE677A084938EE678A5A
:101BF00068EE077AFCEEE77ACDED047AC84796E600
:101C0000C2F38E4DA41C4320FC5C4100A85C410043
:101C1000C85C4100705C41006C5C4100ACB44100A8
:101C2000BD370635002474496C5D4100304601F033
:101C3000A5FBF18D0246E30FE80FA9F800109C46C2
:101C400023440146284493FBF7F390FBF7F0A3EB02
:101C50000C03401A95FBF2F1013302FB1151A9F874
:101C600004001B1A11441FFA83FC1A9B91FBF2F02B
:101C7000BCFBF3FB02FB10111FFA8BF003FB1BCB29
:101C8000A9F806C0A9F80210BBF1000F00D001307E
:101C9000A9F808003046079201F0ECF9804630467A
:101CA00001F076FA079AB8F1040318BF012301285E
:101CB00018BF0023184698467BB9B9F806301A9920
:101CC0008B420AD9CB4BCC4A5B6BCC4998474046F8
:101CD00009B0BDEC068BBDE8F08F38460792FFF7E0
:101CE00093FD079A3846DFEDC68A07EE902AB6EED6
:101CF000008AF8EE677A27EE800A8AED030AFFF77A
:101D000083FD07EE905A3846F8EEE77A67EE807A60
:101D100067EEA87A67EE887ACAED007AFFF774FD5D
:101D200007EE904A631B079AF8EEE77AB9F80610B7
:101D30009AED007A01FB07F4B9F8080027EE800A53
:101D4000AAF8180095FBF7F607FB165520EE280AAF
:101D50003D4420EE080A95FBF7F693FBF2F307FBF0
:101D60001655013330EE477A8AED020A9BB295FB95
:101D7000F2F5B4FBF2F4B7FBF2F7069AAAF81630C4
:101D80008AED017A93801A9B11818B4210825580D3
:101D90001480D78010D29BB29382BBF1000F06D083
:101DA0001A9B1A9AB1FBF3F302FB13118BB2069A3A
:101DB000D38201239846BAE501239846069B99826F
:101DC000D982B4E507EE905A8A4B3846DFED8C9AFB
:101DD000F8EEE78AD3F83490FFF716FDB6EE009AD6
:101DE000884A384668EE807A874B9FED85AA67EE71
:101DF000A97A67EE897AF5EEC07AF1EE10FA4CBF57
:101E000092469A46FFF700FD384628EE808AFFF793
:101E1000FBFC68EE807A384628EE298A67EEA97ABC
:101E2000DFED779A28EE098A67EE897AB6EE009A96
:101E3000F5EEC07ADFED757AF1EE10FA48BFB1EE3B
:101E4000488A38EE278AFCEEC87A17EE906AFFF7C8
:101E5000DBFC384628EE808AFFF7D6FC68EE807AF5
:101E6000384628EE298A67EEA97A28EE098A67EEB5
:101E7000897AB6EE009AF5EEC07ADFED647AF1EE7B
:101E800010FA48BFB1EE488A38EE278AFFF7BCFC4B
:101E9000384668EE809AFFF7B7FC68EE807A07EE66
:101EA00010BA384669EE8A9A67EE8A7A9FED54AA8C
:101EB000F6EE008A69EE899A67EE897AB8EEC79ADB
:101EC0009FED537AF5EEC07ADFED507AF1EE10FA1D
:101ED00048BFF1EE699A79EEA77ADFED499AFCEEF8
:101EE000E77AF8EE677A38EE678A68EE077AFCEEF2
:101EF000E77A17EE904AFFF787FC69EE007A414BCC
:101F0000414A384667EEA97A67EEA87AF5EEC07ABC
:101F1000F1EE10FA4CBF9B469346FFF775FC38462E
:101F200029EE008AFFF770FC69EE007A384628EE49
:101F3000298A67EEA97ADFED329A28EE288A67EEC1
:101F4000A87AF6EE008AF5EEC07ADFED307AF1EE8F
:101F500010FA48BFB1EE488A38EE278AFCEEC87AFC
:101F600017EE905AFFF750FC384629EE008AFFF72B
:101F70004BFC69EE007A384628EE298A67EEA97A8A
:101F8000F6EE009A28EE288A67EEA87AF5EEC07A77
:101F9000DFED1E7AF1EE10FA48BFB1EE488A38EE56
:101FA000278AFFF731FC384669EE008AFFF72CFCE0
:101FB00069EE007A53469FED167A68EE8A8A002011
:101FC00067EE8A7A0194009668EEA98A114A67EE54
:101FD000A97ACDE902B5F5EEC07ADFED0C7AF1EE23
:101FE00010FA48BFF1EE688A78EEA77AFCEEE77A3D
:101FF000F9E500BFA41C4320AC5D4100A85C410092
:10200000C2F38E4D6C5C4100ACB44100BD37063567
:10201000002474492C5D41000089012894BF0020F0
:102020000120704710B582B0044601F0B1F80128D4
:1020300011D0204601F0B4F89FED0A7A07EE900A1D
:10204000C7EE277A77EE877AFCEEE77ACDED017A54
:10205000019802B010BD4FF4FA630193019802B0E9
:1020600010BD00BF0000FA4438B52DED028B1546B7
:1020700008EE100A0C4601F075FB07EE900AC7EE59
:10208000887ABDEC028BFCEEE77A17EE903A1A0CD8
:102090009BB22A60236038BD2DE9F04F87B01F4600
:1020A0001646009003919DF8404001F061FB00232B
:1020B000ADF814300493002F48D09C4202934FEAAD
:1020C0005000039C14BF4FF4E0434FF40043A0F1D1
:1020D000030A1BB201932CE0019B1FFA85F905F15D
:1020E000030B214643EA060009F1FF3C029B4FEA3D
:1020F0004B089CFA9CFC40BA4246A3802080A8F181
:102100000608A4F802C04E44009801F061FB204686
:102110005946B6B201F006FC0498BDF814207F1BA6
:102120002060A28044442068A2880490ADF8142066
:102130000CD0BA45554628BF3D46BA45CCD2CBD087
:10214000EB07C9D5013DEB07FCD4C5E70398063082
:1021500007B0BDE8F08F00BF0320704710B541F411
:10216000A04382B014BA06225BBA6946CDF8024099
:10217000ADF8003001F02CFB02B010BD38B51C46A4
:1021800010601960154601F0F3FA2168884202D206
:1021900001F0EEFA01462B680239023321F0030107
:1021A0002B60216038BD00BF2DE9F0419C1C074623
:1021B0000D46164601F0DCFAA04207D2094B00207A
:1021C000094A5B6B0949BDE8F041184745F4A04551
:1021D0002246314638466DBA3580BDE8F04101F0FF
:1021E000F7BA00BFA41C4320D85D4100F85D410050
:1021F0000331B0EB410F2CBF01200020704700BF1E
:1022000010B5002482B00094FFF746FF02B010BD65
:1022100070B505690446284601F0B0FA0A4905EB95
:10222000C503226B0968201DDB00483B194400F000
:10223000E7FD064618B101233046E37070BD28461D
:1022400001F0A2FA304670BD4C10402038B503466C
:1022500004301D6900F0F8FD044630B9054B064A0C
:102260005B6B06499847204638BD284601F092FA34
:10227000F9E700BFA41C4320345E4100545E4100D6
:102280002DE9F84300EBC004DFF88C804FF0000C20
:102290000E46E400D8F8003005461746483C234473
:1022A00083F841C001F06AFA304600F08BFD60B956
:1022B00015492B46154A81464C6B1549A0472846BF
:1022C00001F062FA4846BDE8F88329460A2001F089
:1022D00013FBD8F8002039463046224400F076FD42
:1022E000814650B908492B460A4A4C6B0849A04719
:1022F00029460B2001F000FBE1E7D8F8003001226D
:102300001C4484F84120F3E7A41C4320645E410090
:10231000545E4100A05E41004C104020F8B5184EBC
:1023200034780CB12046F8BD01F016FA154F00EBD9
:10233000C0004FF496721449C00001F04FFA3860A3
:102340000028EFD0254609E03B6803EBC0031846A0
:1023500008F050FE80F8415080F8405001F0FCF940
:10236000A0424FF0480204EBC4004FF0000104F11A
:102370000104E9D801231C4633702046F8BD00BF94
:10238000461040204C1040201C5E410010B5054C0A
:10239000237803B910BD044B186801F063FA0023D9
:1023A000237010BD461040204C1040202DE9F0470E
:1023B00045781E462DB10023337073702846BDE862
:1023C000F087DFF8E0C004460F469046DCF800C016
:1023D000D0F810A0BCF1000F14D0DCF80C90B9F1CB
:1023E000000F0FD0C8470028E8D06578002DE5D150
:1023F000012543463A465146012001F04BFA284652
:10240000BDE8F08700233370737094F80090B9F141
:10241000020F24D0B9F1010F27D0216B201D00F04D
:102420001DFD436843B91B4918461B4A4B6B1B49AA
:1024300098472846BDE8F087BB4225D143884345ED
:102440001DD10278B9F1020F43783270737010D049
:10245000B9F1010FC9D12046FFF7F8FEC5E72046C4
:10246000FFF7D6FE0028D8D1A8E7504601F09AF928
:10247000D3E7504601F088F90023E370B5E74FF445
:10248000C571074800F08CFD40F28911044800F046
:1024900087FD00BFA41C4320045E4100545E410040
:1024A0001C5E4100481040202DE9F843061D91466E
:1024B00005462C220C46304600211F4608F09AFDA6
:1024C0001C4B4A4630461B686BB3D3F80080B8F10A
:1024D000000F28D03B462146C0470646204600F064
:1024E000C9FDE8B1042818D000232B70204600F065
:1024F0004FFEB0FA80F320465B096B7000F06AFF74
:10250000A870204600F07AFD3A4601461C230420BC
:1025100001F0DAF93046BDE8F88301232B70E5E7D6
:1025200002232B70E2E73B46214600F0ABFB064658
:10253000D4E700BF481040202DE9F84F0C468046F4
:1025400008461D46164600F059FD0746204600F095
:1025500039FF304B81461968B9B14B68ABB12A4697
:10256000204631469847054610B92846BDE8F88F01
:10257000B9F1000F19D101253246394620230D202B
:1025800001F0A2F92846BDE8F88FDFF88CA007EB30
:10259000C702C8F83050DAF8003003EBC20313F872
:1025A000073C4BB3B9F1000F02D0A6F81490E2E754
:1025B000204600F0F5FE0028DDD0D8F8104008F1E4
:1025C0000409204601F0DAF8DAF8005004EBC401FF
:1025D000D8F83020484606F11403C9004839294488
:1025E00000F0F8FB0546204601F0CEF8002DC2D1E0
:1025F000484600F0DFFBB8E708F1040B2A463846EE
:102600005946FFF73DFE05460028CBD1584600F05D
:10261000D1FBAAE7481040204C1040201A4B1B6801
:1026200070B5044623B19B6813B1BDE870401847EC
:102630002378022B08D02046FFF7EAFD88B1A37863
:102640002BB12378012B0FD00125284670BD251D05
:10265000284600F0FFFB20B1284600F0E3FB0028ED
:10266000EFD10025284670BD251D284600F0DAFB75
:102670000028F6D0284600F0EDFB05460028F0D0F3
:102680002046FFF7E3FDE0E748104020C37803B998
:10269000704710B50446006901F076F80023E37036
:1026A00010BD00BF036973B103EBC303064ADB002F
:1026B0001268483B134493F840200AB983F841203C
:1026C000043000F077BB70474C1040200069704721
:1026D00070B50C4684B0114605461A462046089B44
:1026E00004AEFFF74BFD002328462A2126F8023DC1
:1026F000324604F03DF8BDF80E305B0619D40024D4
:10270000324611212846ADF80E4004F031F8BDF8EC
:102710000E3013F480661AD015492B46154A204610
:102720004E6B1549B047284604F07EF9204604B0A8
:1027300070BD01F0A9F830B10D492B460F4A0120B8
:102740004C6B0D49A047284604F06EF9D7E70124E9
:102750008023022228462146009404F01BF880239F
:10276000284600961A46072104F014F82046DEE7B2
:10277000A41C4320B0604100A0604100746041008F
:10278000F0B583B000240F46112102AA064622F8B4
:10279000024D03F0EDFFBDF8060010F480650CD08B
:1027A00013493346134A20464D6B1349A847304618
:1027B00004F03AF9204603B0F0BDB7F5806F09D3B5
:1027C0000B4928463B460D4A4C6B0B49A04728460F
:1027D00003B0F0BD2A461021304603F0CBFF30464F
:1027E00047F48062102103F0C5FF0120E3E700BF3A
:1027F000A41C4320E0604100A06041001061410042
:1028000030B583B000231121054602AA22F8023D0B
:1028100003F0AEFFBDF8060010F480640BD1094B45
:102820002046094A5B6B09499847284604F0FCF8A2
:10283000204603B030BD28460122742103F09AFFE0
:102840000120F6E7A41C43204C614100A060410038
:102850000022742103F08EBF00B583B00023112144
:1028600002AA22F8023D03F083FFBDF80600C0F380
:10287000802003B05DF804FB70B582B000233821DE
:10288000054602AA22F8023D03F072FFBDF8064099
:1028900064B908492B46084A20464E6B0749B047A1
:1028A000284604F0C1F8204602B070BD012002B0F5
:1028B00070BD00BFA41C4320785F4100A0604100B0
:1028C00070B50C4684B041B92B4B08462B4A5B6B64
:1028D0002B499847204604B070BD0DF10E02282107
:1028E000054603F045FFBDF80E20D3B26280237089
:1028F0000B2B2CD8DFE803F0230806060606060695
:10290000060606060120E6E7120A102A29D8012643
:102910001C48D1B206FA02F2104010B34A1E164B00
:10292000D2B25E6B202A22D9174B184A00201449D4
:10293000B047284604F078F8002004B070BD0E4976
:102940002B46134A00204C6B0D49A047F1E70A4A79
:10295000002000950A49566B0E4AB04700232370A9
:10296000E7E7054943F4045320224E6B63800A4B8A
:1029700053F82230D9E700BFA41C4320EC5F41008C
:10298000A060410016000100DC5F410024604100AE
:102990000060410044604100C45E41002DE9F04FF9
:1029A00087B004460F4602F1010A02920025039304
:1029B000DFF8A0B0DFF8B090DFF8A08014E022F8D4
:1029C000023D204603F0D4FEBDF816305B0630D43D
:1029D00000F05AFF23464A46414618B1DBF83460FE
:1029E0000120B047AA4517D03946204600F0EAFE3C
:1029F0000135064606AA00232A210028DFD1154901
:102A00002346154A4D6B1549A847204604F00CF89B
:102A1000304607B0BDE8F08F00200E4A009406460D
:102A2000546B029B0E4A0D49A047304607B0BDE8E3
:102A3000F08F03992046FFF743FF06460028E7D1B1
:102A400004492346074A4C6B0449A047304607B067
:102A5000BDE8F08FA41C432080614100A0604100CC
:102A6000CC61410008624100A861410070B584B0AA
:102A700014461D46642203AB0646FFF78FFF68B17C
:102A80009DF80C30A3420BD0084A00200849CDE93C
:102A90000034084B546B084AA047002004B070BDB6
:102AA000002DFBD03046FFF7E7FEF7E7A41C4320DC
:102AB000A0604100485F41009462410001230B2265
:102AC000FFF7D4BF30B583B00D460446FFF798FE3C
:102AD00010B9002003B030BD2046FFF7CDFE00281E
:102AE000F7D0294601AB64222046FFF757FF0028A4
:102AF000EFD02046FFF7C0FE0028EAD09DF8043052
:102B0000022BE7D0054A0020BDF80630556B04497A
:102B1000044AA847204603F087FFDAE7A41C4320B5
:102B2000A06041002C61410070B584B0164664225B
:102B3000054603ABFFF732FF044670B19DF80C3039
:102B4000BDF80E20062B0BD01B49002000922B460F
:102B50001A4A04464D6B1A49A847204604B070BD76
:102B60001005F1D512F4806316D0012329460E20FA
:102B7000337000F0C1FEBDF80E20D1050ED49305D0
:102B8000EBD500F081FE0328E7D90B4B04200D4A5A
:102B90005B6B0B499847E0E73370EEE700F074FE9B
:102BA000032805D9044B0420074A5B6B0449984766
:102BB000BDF80E20E3E700BFA41C432030624100B3
:102BC000A06041007C6241006062410030B585B088
:102BD0006422054603ABFFF7E1FE044640B90C4909
:102BE0002B460C4A4D6B0C49A847204605B030BD1A
:102BF000BDF80E30062BF8D00024054A00932B4672
:102C00002046556B0449054AA847204605B030BD0B
:102C1000A41C4320C0624100A0604100F462410056
:102C200070B51546064600222B46FFF7E9FA044622
:102C300002462B463146002000F02CFE204670BD97
:102C400030B585B0002404AA214622F8024D03F0D5
:102C50008FFDBDF80E2041F212139A4209D00649A9
:102C600020460092054A4D6B0549A847204605B00D
:102C700030BD0120FBE700BFA41C4320AC5F410036
:102C8000A06041002DE9F0470C4692B0804608460E
:102C90009246994600F0B2F90546204608F10C0725
:102CA00000F0C4FAADF80400204600F0AFFAADF829
:102CB0000600204600F0CCFAADF80800204600F0EF
:102CC000FBF904232946ADF80A000DEB030211209D
:102CD00000F0E0FD20220021384608F08BF938464C
:102CE0002368214698470646D8B1202200210AA829
:102CF000002508F07FF9D8F8246004950AAA039506
:102D000003AB059521463846CDE90655CDE9085572
:102D10003568A847064640B9D8F8243038461B6BBA
:102D20009847304612B0BDE8F087BAF1000F07D0DF
:102D30000AAD0FCDAAE80F0095E80F008AE80F0052
:102D4000B9F1000F10D003AD0FCDC9F80000C9F8DC
:102D50000410C9F80820C9F80C3007CDC9F81000D4
:102D6000C9F81410C9F81820204600F011FA0128FB
:102D70001BD0204600F014FA9FED0D7A07EE900A62
:102D8000C7EE277A77EE877AFCEEE77A17EE903A6D
:102D900000223046C8F80030C8F80820A8F80620FD
:102DA00088F8042012B0BDE8F0874FF4FA63EFE72B
:102DB0000000FA4420B1436A13B11B6B0C30184772
:102DC000704700BF436AC0685B681847436A0C30AD
:102DD000DB6818472DE9F041456A044600F10C060E
:102DE000006AAD6817469846A84738B1636A4246FC
:102DF000394630461B69BDE8F0411847BDE8F0810F
:102E000070B504461546D0E908039B68984738B169
:102E1000636A294604F10C005B69BDE870401847FD
:102E200070BD00BF10B582B00021436A044602AAFB
:102E30009B6902F8011D0168C068984710B19DF8B0
:102E40000730237102B010BD436A0168DB6AC068B5
:102E5000184700BF436AC0685B6A1847F0B5002393
:102E600083B0051D466A471D04464360821D83608A
:102E70002B4600970C30B66AB047A060284603B0D6
:102E8000F0BD00BFB2F5004FF8B540D161B34E00C0
:102E900004460025871934F8022BA2F50042A74208
:102EA0001544F8D1002D4FEA5102A0F10200ACBF49
:102EB00001244FF0FF3404FB025595FBF1F10CB2F5
:102EC000002C15DD89B20025064402E0864205800B
:102ED00007D030F8022F8A42F8D3521A8642028075
:102EE000F7D103B11C80F8BD002BFCD01980F8BDD0
:102EF0004FF6FF750644671902E00580B042F0D036
:102F000030F8022FBA42F8DC521A0280F6E7192193
:102F1000014800F045F800BFDC6341002DE9F047AF
:102F2000002A14BF17460F46C1B1994680460E4687
:102F30008A463D460024611908EB44003C444A4659
:102F4000B142C8BF55460023A4B22946FFF79AFFF5
:102F5000AAEB0702A6421FFA82FAECD8BDE8F08776
:102F600001FB02F10139012918D970B401252B4662
:102F700002FB03F3B3FBF1F401FB1433AB42F7D3D1
:102F800007D030F8154030F8136020F8156020F8AD
:102F900013400135A942EAD170BC7047704700BFA9
:102FA00000B5074A83B00346002000910549546BE1
:102FB000054AA047054B1B6803B19847FEE700BFD1
:102FC000A41C432014644100FC63410050104020C5
:102FD00008B10120704710B5044600F055FC30B12F
:102FE000034B0120034A5B6B03499847204610BD01
:102FF000A41C43201C6641003866410010B50446FD
:10300000FFF7E6FF00B1E06810BD00BF38B50D4620
:103010000446FFF7DDFF00B1E56038BD10B504469A
:10302000FFF7D6FF08B1606A10BD002010BD00BFD9
:1030300038B50D460446FFF7CBFF00B1656238BDD9
:1030400010B50446FFF7C4FF08B1A06A10BD002008
:1030500010BD00BF38B50D460446FFF7B9FF00B1FB
:10306000A56238BD10B50446FFF7B2FF08B10123D1
:10307000237110BD10B50446FFF7AAFF00B1606BC5
:1030800010BD00BF38B50D460446FFF7A1FF00B1E3
:10309000656338BD10B50446FFF79AFF08B194F890
:1030A000450010BD38B50D460446FFF791FF08B145
:1030B00084F8455038BD00BF10B50446FFF788FFBF
:1030C00008B194F8460010BD38B50D460446FFF728
:1030D0007FFF08B184F8465038BD00BF10B50446E4
:1030E000FFF776FF08B194F8380010BD38B50D46EB
:1030F0000446FFF76DFF00B1258738BD38B50D4692
:103100000446FFF765FF00B1256038BD10B50446E1
:10311000FFF75EFF00B1607E10BD00BF38B50D4601
:103120000446FFF755FF00B1657638BD10B504467B
:10313000FFF74EFF00B1207F10BD00BF38B50D4630
:103140000446FFF745FF00B1257738BD10B50446AA
:10315000FFF73EFF08B1206A10BD002010BD00BF80
:1031600038B50D460446FFF733FF00B1256238BD80
:1031700010B50446FFF72CFF08B1B4F9300010BDBC
:1031800010B50446FFF724FF08B1B4F9320010BDB2
:1031900010B50446FFF71CFF00B1207910BD00BF39
:1031A00010B50446FFF714FF40B12379032B05D86F
:1031B000DFE803F006060202A06810BD024810BD59
:1031C0004FF0FF4010BD00BF0000C07F10B50446A7
:1031D000FFF7FEFE00B1608F10BD00BF38B50D4691
:1031E0000446FFF7F5FE00B1658738BD10B504460B
:1031F000FFF7EEFE00B1A08F10BD00BF38B50D4641
:103200000446FFF7E5FE00B1A58738BD10B50446BA
:10321000FFF7DEFE00B1E08F10BD00BF38B50D46F0
:103220000446FFF7D5FE00B1E58738BD10B504466A
:10323000FFF7CEFE08B1B4F8400010BD38B50D461A
:103240000446FFF7C5FE08B1A4F8405038BD00BFE2
:1032500010B50446FFF7BCFE08B1B4F8420010BD3B
:1032600038B50D460446FFF7B3FE08B1A4F8425046
:1032700038BD00BF38B50D460446FFF7A9FE08B1BA
:1032800084F8625038BD00BF38B50D460446FFF7DC
:103290009FFE08B184F8445038BD00BF10B5044605
:1032A000FFF796FE08B194F8440010BD38B50D46FE
:1032B0000446FFF78DFE08B184F82C5038BD00BFDE
:1032C00010B50446FFF784FE08B194F82C0010BD39
:1032D00038B50D460446FFF77BFE08B184F852501E
:1032E00038BD00BF10B50446FFF772FE08B194F870
:1032F000520010BD38B50D460446FFF769FE08B10F
:10330000A4F8505038BD00BF10B50446FFF760FE6A
:1033100008B1B4F8500010BD38B50D460446FFF7AB
:1033200057FE00B1E58538BD10B50446FFF750FEE5
:1033300008B194F8660010BDF8B50F4616461D4654
:103340000446FFF745FE28B184F85470A4F856608F
:10335000A4F85850F8BD00BF70B50E461546044697
:10336000FFF736FE48B116B1B4F85630338015B1C8
:10337000B4F858302B8094F8540070BD10B5044652
:10338000FFF726FE08B1B4F8600010BD38B50D4651
:103390000446FFF71DFE08B1A4F8605038BD00BF19
:1033A00010B50446FFF714FE08B194F8470010BDAD
:1033B00038B50D460446FFF70BFE08B184F84750B8
:1033C00038BD00BF10B50446FFF702FE08B1B4F8DF
:1033D0004A0010BD10B50446FFF7FAFD08B194F895
:1033E0004C0010BD38B50D460446FFF7F1FD08B19D
:1033F00084F84C5038BD00BF10B50446FFF7E8FD17
:1034000008B1B4F84E0010BD38B50D460446FFF7BC
:10341000DFFD08B1A4F84E5038BD00BF10B504461A
:10342000FFF7D6FD08B194F8480010BD38B50D4639
:103430000446FFF7CDFD08B184F8485038BD00BF01
:103440002DE9F04F93B0044600F01EFA01286DD923
:103450005F4B2046D3F834B0FFF7BAFD002868D19F
:1034600082462046FFF7B4FD002869D094F8383032
:1034700020460F93FFF7ACFD002867D0638F2046EE
:103480000E93FFF7A5FD002866D02046A58FFFF715
:103490009FFD002866D02046E68FFFF799FD0028A3
:1034A00066D02046B4F84070FFF792FD002865D042
:1034B0002046B4F84280FFF78BFD002864D0636B90
:1034C000042B7FD9434B20461193FFF781FD002841
:1034D00061D1414B20460D93FFF77AFD002869D05A
:1034E000204694F84590FFF773FD002868D0B4F8A3
:1034F0005A2020461092FFF76BFD109A08B194F8FD
:103500004600099253460D9A0A9002200792119A9A
:10351000CDF8209002953149CDE905820E9A0192AD
:103520000F9ACDE9036700922D4AD84713B0BDE842
:10353000F08F2046D4F80CA0FFF74AFD002895D163
:103540000F902046FFF744FD002897D10E902046AB
:10355000FFF73EFD002898D105462046FFF738FDCD
:10356000002898D106462046FFF732FD002898D162
:1035700007462046FFF72CFD002899D180462046BB
:10358000FFF726FD00289AD1164B11932046FFF72E
:103590001FFD00289DD094F86230002B99D012496D
:1035A00020460C4A012B18BF11460D91FFF710FD64
:1035B000002895D181462046FFF70AFD002896D1C4
:1035C000024696E7094A52F823301193DEE700BF1E
:1035D000A41C4320ACB44100D865410038664100CA
:1035E000E0654100D4654100DC6541002064410094
:1035F00038B50546FFF7ECFC044648B16B6B042B6D
:1036000008D92B4B00202B4A5B6B04462A4998476C
:10361000204638BD0AD0AB8F162B11D9244B002081
:10362000264A5B6B044624499847F1E700F0C2F84C
:1036300090B91F490446224A4B6B1F499847E7E758
:103640002B8F013B3E2B12D9194B00201D4A5B6B7F
:10365000044619499847DBE72B79032BDBD1144B40
:103660000020194A5B6B044613499847D0E76B6BFF
:103670002A794BB9032A0CD10D4918461C46134A26
:103680004B6B0D499847C3E7032A06D033F0040378
:10369000BED1012385F84C30BAE795F84C000028DC
:1036A000F4D1034B04460A4A5B6B03499847AFE7E2
:1036B000A41C43203464410038664100D0644100BA
:1036C0004C644100046541008C6441005865410030
:1036D00094654100436970B5466B3BB383692BB376
:1036E000836A1BB3436A0BB3C36AFBB18368EBB154
:1036F000C368DBB10369CBB1F6B10368202B16D8E0
:1037000043680F2B13D9C3690BB1036A7BB104461D
:103710000A4D01260FCC0FC50FCC0FC50FCC0FC51E
:1037200094E8030085E80300304670BD26B1044AE2
:1037300000200449B0470026304670BDA41C432039
:1037400094664100046B410038220021014807F0D3
:1037500051BC00BFA41C4320014B1868704700BF38
:10376000A41C4320014BDB6A184700BFA41C432064
:10377000014B5868704700BFA41C4320014B5B6994
:10378000184700BFA41C4320014B9B69184700BF8A
:10379000A41C4320024BDB6903B11847704700BFEC
:1037A000A41C4320024B1B6A03B11847704700BF9B
:1037B000A41C4320024BD869003018BF0120704779
:1037C000A41C4320014B5B6A184700BFA41C432084
:1037D000014B9B6A184700BFA41C43202DE9F04110
:1037E0000D4C0F4690460646A3689847054630B9EB
:1037F000636B0A4A0A4998472846BDE8F081094B9D
:103800001B68002BF8D01C683A4643463146A04757
:103810002846BDE8F08100BFA41C4320706641002B
:10382000046B410054104020F8B590B10C4611468D
:103830001A46A4FB006777B904FB00F52846FFF79A
:10384000CDFF044618B12A46394607F0D3FB20467F
:10385000F8BD0446FBE7CF210148FFF7A1FB00BFFD
:1038600080664100064B1B6810B504460BB15B68CF
:103870009847044B2046DB68BDE81040184700BF5E
:1038800054104020A41C4320014B93F83000704793
:10389000A41C432070B50B4C84B0012500EB4006FE
:1038A0008DF8040003FA05F004EB860302915C68CE
:1038B000039524B111469B68024601A8A04704B0B5
:1038C00070BD00BF1800402070B50A4C84B015468A
:1038D00000EB40028DF80400072604EB8200029101
:1038E0000396446824B11A462946836801A8A04774
:1038F00004B070BD1800402010B584B0084B002201
:10390000029100EB40018DF8040003EB8103039268
:103910005C681CB19B68114601A8A04704B010BDAB
:10392000180040204A1E31B10388013A5BBA20F8E2
:10393000023B531CF8D17047006800BA704700BFC3
:1039400000BA0860704700BF073020F007007047DA
:1039500000487047A8664100343004F025B800BF25
:1039600070B50446343003F0E7FF68B9D4F8D021CD
:1039700003460125D4F8A01104F5CE7013615571EA
:103980009371BDE87040084770BD00BF38B504684A
:10399000054674B104F1340003F0C0FF04F1700077
:1039A00004F014FAD4F80002FFF75CFF2046FFF79A
:1039B00059FF2846BDE83840FFF754BF2DE9F04FC6
:1039C00095B00546174601200391102104934FF44A
:1039D0008873D24AFFF728FF064640F21113CF4AF8
:1039E0004FF401710120FFF71FFF0446002E00F085
:1039F0008681002800F0838100F5EE7A00F1340919
:103A000000F11403306029464846CDF800A03A463C
:103A1000029303F063FF002800F0D3803846FFF7DD
:103A200075FBB4F8EA31B4F8E68105460220984403
:103A300004F0D8F9B4F8DCB100FB08F8082004F071
:103A4000D1F900FB0BFB002D40F0C38058462946FE
:103A500003F078FC0146404603F074FCB4F8E881BA
:103A60004FEA4808804538BF80463846FFF7C4FC17
:103A7000404538BF40468346C4F8FC01163040F24A
:103A80006B12A649FFF7AAFE0346C4F800020028FD
:103A900000F09780B4F8DE8108201D44059304F0FF
:103AA000A1F9059B00FB08F803EB0B0004F1100BD8
:103AB000FFF74AFFA84404F1080304F1060E04F1DD
:103AC000070C211D04F10C02C4F88800C4F8F08032
:103AD0003846C4F82481C4F82881C4F8F851A56494
:103AE000C4F8EC506465C4F89040C4F858B0C4F809
:103AF00094B0C4F800B1C4F838B16366C4F8A0301B
:103B0000C4E92055C4E917ECC4E93312FFF7FEFA03
:103B100028B1C4F87481C4F87881C4F888B1C4F8B5
:103B2000AC8104F5FC73C4F8D0413946029A48468A
:103B300003F0E2FE002844D0002308AA0DF11E0184
:103B40003846ADF8203004F170050793FFF704FC08
:103B5000236A8DF81C0038460993FFF721FC238D5A
:103B60008DF828003846ADF82A30FFF757FCDAF810
:103B7000083009A9DAF80420DAF800C0CDF83630A8
:103B8000DAF80C308DF82C000798BDF820E0CDF85D
:103B90003220CDF82EC0CDF83A30DAF810C0DAF87D
:103BA0001420DAF81830CDF84A002846ADF84EE077
:103BB000CDF83EC0CDF84220CDF8463004F076F87E
:103BC00078BB30460026FFF7E1FE304615B0BDE871
:103BD000F08FB4F8DC51072004F004F900FB05F184
:103BE000584603F0AFFB0146404603F0ABFBB4F888
:103BF000E8B14FEA4B0B834538BF83463846FFF7A1
:103C0000FBFBB4F8DE51834538BF834615F0010550
:103C1000C4F8FCB103D00BF1040004252EE758468C
:103C20002CE704F1DC0AB4F8E021082104F58A78D5
:103C3000504603F0EFFD3846FFF778FA83463846E2
:103C4000FFF784FA029903465A460091404608213C
:103C500003F010FC0028B4D03846FFF757FA0028CC
:103C600055D1039B04F5CE7B1968584603F024FE1A
:103C70003846FFF74BFA29460746484604F0BEF897
:103C80005146284604F0BAF84146504604F0B6F8CA
:103C9000AFB95946404604F0B1F8484603F048FE33
:103CA0000546E0B91E4B1F4A5B6B1F4998473046DB
:103CB0002E46FFF76BFE304615B0BDE8F08F04F5D9
:103CC000B2754046294604F099F82846594604F052
:103CD00095F8484603F02CFE05460028E2D04846F9
:103CE00003F022FE04981149C4F8D4013046104A6A
:103CF000104BC6E90112F36015B0BDE8F08F3046F5
:103D00000026FFF7AFFD2046FFF7ACFD5DE7072279
:103D1000082104F5B27003F0FFFCA2E7D866410069
:103D2000A41C4320EC6641000C674100613940004F
:103D3000593940008D394000800080B200EB5103BA
:103D400010809BB28B42538014D3508030B4B3FBAD
:103D5000F1F4002501FB14310124032395819480A3
:103D6000D480548114825482D5819582118013812C
:103D700030BC70470123002103209380538193813D
:103D80001382D180518291821081D081704700BF0F
:103D90002DE9F04F8BB0914604460025069309AB00
:103DA00005900A4607912146D9F80000009308AB18
:103DB000CDE90855FEF78CFC002865D0099BDFF89B
:103DC000FCA21C46C5F52C63089EB34AAFB29C42C8
:103DD000304602EB05014FF0000B28BF1C4622467F
:103DE0001FFA84F807F008F8D9F804301D2230468D
:103DF0003946019300925346424604F0BDFAD9F881
:103E000008301B2239463046019300925346424601
:103E100004F0B2FA4FF01C0CD9F80C304246394687
:103E20003046CDE900C3534604F0A6FAB9F810C0F5
:103E30001923424639463046CDE9003C534604F04A
:103E40009BFA1023424639463046CDE900B353462B
:103E500004F092FA2346C5F38F01059AD9F80000C1
:103E6000FEF7A2F9099C2544B5F52C6FAAD31821B9
:103E7000D9F80000FEF784FC064678B9874B884ADB
:103E80005B6B8849984705E0844B0646864A5B6B26
:103E90008449984730460BB0BDE8F08FD9F8004010
:103EA0005B4603224FF4FA612046FEF7DFFD38B986
:103EB0007A4B00207D4A5B6B06467A499847E9E7D2
:103EC00009AA9D21204602F053FCBDF8245005208C
:103ED000012305F0070509AA2146ADF82450FFF794
:103EE000D9FC2046FEF7C8FC0028E1D04FF440730F
:103EF000D9F80050BDF82460ADF824302846069B60
:103F00001E60FEF7A9FC044668B1644C2B46584677
:103F1000674A656B6349A8470020636B654A61493E
:103F200006469847B6E713230196634E0246009370
:103F30002846624BA3465849029604F0C3FA01236F
:103F4000DFF85891224600932846029601945B4B75
:103F5000514904F0B7FA09AB21212846002213F891
:103F60000BA0554B009102934B49544BCDF804A044
:103F700004F0A8FA40F2CD112846FEF701FC78B112
:103F8000002309224FF4FA612846FEF76FFD70B94D
:103F9000424C5346656B4A4A00204249A847BBE75A
:103FA0003E4C5346474A656B3E49A847B4E710214B
:103FB0000798FEF71DF928B9384C434A636B394915
:103FC0009847E6E71023002205992846FEF718F9DE
:103FD00010230246294604460020FFF75BFC2846D2
:103FE000FEF74AFC06460028D2D04FF000082346D0
:103FF00004F11E0C47465A8833F8021B17448A42C4
:10400000A2EB010038BF881A804538BF80469C4526
:10401000F1D1284602F036FFF0B910222146284699
:1040200002F08EFC2488294B40F6B8323C442846E6
:1040300024092344B8F5487F98BF93428CBF0127D9
:10404000002702F01FFF002846D197B1BBF1000FF7
:104050000DD14FF0010B7EE7FFF716FC0128DCD9EC
:10406000D9F8343002201A4A0E499847D5E70B4C4C
:1040700052E7069B83F804A0FFF706FC01287FF6B1
:1040800009AF06990220054A0B79546B0093114A37
:104090000B680449A047FDE688784100A41C432032
:1040A0007C6741005C67410018674100B0674100D0
:1040B000C8674100B06841005D214000E4844100D0
:1040C00084684100FC6741003C684100E886FFFFCE
:1040D00054684100C8684100FFF7D6FB0128B4D9F5
:1040E000CDF8008023460220D9F83440014A024925
:1040F000A047AAE76C6841005C6741002DE9F04FDA
:10410000B1F5457F2DED068BCBB0149012930CD2F8
:104110004E4B00204E4A5B6B04464E499847204662
:104120004BB0BDEC068BBDE8F08FA1F516731546BC
:10413000A1F545721499B2F5007F0B440E9201EB84
:10414000020A1993C0F06284434BA846DFF8FCB022
:1041500010930223DFED418A9FED418A1393CDF83E
:104160007CA0D8F8000002F08DFE002840F01484F6
:10417000139A00263B495300199F9FED3C9ACC1897
:104180001D93DDF85090A246144626E037F8323BE6
:10419000B6EE006A07EE103A109BB8EE477AB3F914
:1041A0000050BAF9003027EE287AED1A2BB237EE1C
:1041B000467A06EE903A24AB67EE087AF8EEE66AA5
:1041C00027EE897A76EEC77AFDEEE77A17EE902A27
:1041D00023F8162001360C2E4AD0D8F8000002F041
:1041E00051FE30BBD8F804503B46D8F800003DAA39
:1041F0003E95D8F80850B8F810C03F95D8F80C5044
:104200003D9048464095D8F814500E994495D8F8FA
:10421000185042944396ADF804C1459501F0BAFB9D
:104220000028B3D1044620464BB0BDEC068BBDE858
:10423000F08FFFF729FB012833460B4A05494FF061
:104240000200CFD9DBF83450A847CBE7A41C4320A9
:1042500070664100EC684100D47341000000803773
:104260009A99993FC87341003869410000007A4427
:10427000D8F8000002F006FE002840F0E0830C228F
:1042800024A9D8F8000002F05BFB0C2021AA24A985
:1042900000F00CFDD8F8000002F0F4FD002840F01A
:1042A000C28321AB0C22D8F800001946119302F00A
:1042B000D3FADDF87CA0119BD8F800001A4612F85A
:1042C000013B0993119202F0DDFD002840F07E8150
:1042D000D8F8000002F0D6FD002840F06A81099B62
:1042E0003DAA199E192003EB830430AB2DB204EBD9
:1042F000840406EB4401159104F074F936F8143087
:1043000007EE905AF6EE005A1FED286A07EE103AB3
:10431000F8EEE76A1C90B8EE477A67EE287A77EEF7
:10432000E57A67EE887A27EE867A76EEC77AFDEE32
:10433000E77A17EE902A16B2002800F0BD823DAA57
:10434000431E07EE906A0F960B929BB20DF1F60298
:10435000B8EEE79A02EB43031A930B9BF6EE006A62
:10436000A14A33F8024B9FEDAD7A0B934AAB03EBB6
:10437000440333F8685C2B460D95A2FB0332159B72
:10438000C2F3870233F8123007EE903AF8EE677AFC
:1043900067EEA87A77EEE67A67EE887A67EE877A34
:1043A00077EE897AFDEEE77A17EE903A1BB20A9320
:1043B000FFF76AFA032807D923460095DBF8344053
:1043C00004208A4A8A49A047D8F8000002F05AFD22
:1043D000002840F0AF80D8F8000002F053FD00281C
:1043E00040F0BB80D8F8000002F04CFD002840F0FF
:1043F000C7800A9BA3F21A439BB2C82B00F22B83FF
:10440000D8F8000002F03EFD002840F0C6807C2174
:104410001B202AAA4FF00009FFF78EFCD8F80C7079
:10442000B8F810C001236FF0010E16260F250724DF
:104430000620D8E90121CAF80870CAF80020AAF8B5
:104440000CC0BDF8AEC0CAF804100321D8E905724B
:10445000CAF84890CAE90472BDF8A8700D9ACAF863
:104460002870BDF8AA70CAF81820CAF82C70099AEA
:10447000BDF8B070CAF81C20139ACAE90CC7BDF881
:10448000B4C0BDF8B670CAF82020CAE90EC7BDF89E
:10449000BAC0BDF8BC708AF8B530CAF88840CAF80E
:1044A000A0E0CAF884908AF88C908AF88D90CAE9C6
:1044B00010C7CAE91F65CAE91339CAE91593CAE9E1
:1044C0001B33CAE91D39CAE92B39CAE92601CAE9F1
:1044D0001799CAE91999CAE92499CAE92999FFF7EC
:1044E00041F99AF88C30CAF8B8002AA98AF8B49031
:1044F00050460C93D8F80070DAF89C40DAF8AC50CB
:10450000DAF8806001F0ACF92B9A2F9B9A4240F0C8
:104510008780384B4846384A5B6B35499847FFF7E8
:10452000B3F928B1334B0120344A5B6B30499847CB
:104530000024F4E5FFF7A8F901287FF64CAF02202C
:10454000DBF834400D9B2E4A2949A047D8F80000DB
:1045500002F098FC00283FF445AFFFF795F90128D9
:104560007FF640AF0220DBF834400A9B254A204901
:10457000A047D8F8000002F085FC00283FF439AFCE
:10458000FFF782F901287FF634AFDBF834400220D0
:104590000F9B1D4A1649A0472BE7FFF775F9012825
:1045A0007FF635AFDBF834300220184A10499847BF
:1045B0002DE7FFF769F901287FF691AEDBF834406B
:1045C0001B23134A02200A49A04788E6FFF75CF93B
:1045D00001287FF67DAEDBF834400220099B0D4AAE
:1045E0000349A04774E600BFCDCCCCCC9469410010
:1045F000EC684100A41C43202C6A4100EC6B410094
:10460000AC694100C0694100D0694100086A4100BD
:1046100080694100386941000000F84200007A4496
:1046200053460E9A14993846DDF8A89000F08EFC97
:1046300000283FF474AF07EE905A5FED096A013429
:10464000CDF87880F8EE677AD046A4B286EEA77AE5
:10465000FCEEC77A17EE903A9BB204FB03952B460B
:1046600035461E46384601F0EFF800283FF457AFB4
:10467000CDF85C804FF0000A1FED18AAB04620ABC1
:1046800064224FF4FA613846FEF788F900283FF4B7
:1046900046AF9DF88030062B7FF441AF1FFA88F3B8
:1046A0000E9819461693FDF7A3FD002800F0DF8150
:1046B000424614993846FEF7B3FA814600283FF483
:1046C0002EAF2A98C04AA8EB000109EB4000490030
:1046D00002F0E2FB002840F0AE80002D40F0CD81DA
:1046E0000C9B002B40F00282FFF7CEF8032805D97F
:1046F000DBF834300420B54AB54998472A98B54AC2
:10470000A8EB000109EB4000490002F0C5FB0028BE
:1047100040F002822C9BF6EE007A129E384639F861
:104720001310179B06EE901A7561AB49F8EE666A96
:104730001A6AAA4B31F8124066EEA86A2D9933F82E
:10474000123039F811101B1B76EEE76A07EE101ACB
:104750002E9A19B2B8EE477A39F8123066EE886AA6
:1047600009EE901A1B9327EE287A0C99B8EEE96AA5
:1047700066EE8A6A317677EE677A36EE667A67EEAB
:10478000887ABDEEC77A67EE8A7A17EE103A1CB2C5
:1047900007EE104AB8EEC77A77EE877AFDEEE77A31
:1047A00017EE903A1BB2189302F06CFB002840F011
:1047B000E780384602F066FB002840F0C2803846A9
:1047C00002F060FB002840F0CE80384602F05AFB31
:1047D000002840F097800F9B1B1B002BB8BF5B424B
:1047E0001BB2642B13DCA4F54374A4B2B4F5E67FCA
:1047F0000DD80A9B189A9B1A002BB8BF5B421BB2BC
:10480000642B04DC19EE903A934280F2B881BAF13D
:10481000020F2FD0FFF738F8032806D9DBF8344011
:1048200053466F4A04206A49A04738460AF1010AF4
:10483000FEF722F823E72A98664AA8EB000109EB65
:104840004000490002F028FB00283FF463AF0F2D21
:1048500040F062810C9B002B00F07381FFF714F88D
:1048600003287FF657AFDBF8343004205D4A5849FF
:1048700098474FE7DDF85CA0DDF87880FFF704F893
:10488000032805D9DBF834300420574A50499847AB
:1048900038464FF4FA61FEF715F9FEF7F5FF0228E6
:1048A00005D9DBF834300320504A494998471A9B10
:1048B0000B9A93427FF451ADFEF7E6FF032808D927
:1048C0001C9B0420DBF834400093494A099B404973
:1048D000A047FEF7D9FF032808D9099B0420DBF87D
:1048E00034400093434A139B3949A047119B24AAA3
:1048F0009A42109B5ED0B3F900501D9A364B9B5ED6
:10490000ED1AD8E4FEF7C0FF01287FF664AFDDEDB5
:104910001B7AB6EE007A384A0220F8EE677A2C4904
:10492000DBF8346067EEA87A77EEC77A67EE887AAC
:1049300067EE8A7AFDEEE77A17EE903A1BB2B0473F
:1049400049E7FEF7A1FF01287FF639AF0220234691
:104950002A4A1F49DBF83460B047384602F092FA21
:1049600000283FF432AFFEF78FFF01287FF62DAF0E
:10497000189B0220224A1649DBF83460B04724E72E
:10498000FEF782FF01287FF614AFDBF834300220F7
:104990001C4A0F4998470CE7FEF776FF01287FF67F
:1049A000E7ABDBF834400220139B174A0849A047C5
:1049B000FFF7DEBB023B1093139B012B3FF4B8AD16
:1049C00001231393FFF7CDBB982C1742746A410063
:1049D000EC684100ADA82C40C8734100D073410081
:1049E000906B4100C86A4100B86B41003C6C4100CB
:1049F000586C4100BC6C41007C6B4100546B410021
:104A0000686B4100446B410028694100FEF73CFFA0
:104A100001287FF699AB914B0220914A5B6B91493B
:104A20009847FFF791BBFEF72FFF01287FF639ACBF
:104A3000DBF8343002208C4A8A49984731E4FEF78B
:104A400023FF01287FF61BACDBF834300220874AB5
:104A50008449984713E4FEF717FF03287FF62CAF2D
:104A6000DBF834300420824A7E49984724E77B4BA8
:104A7000804A5B6B7B49984751E5082D2B4646469B
:104A8000DDF85C8038BF0823A3F10805FEF7FCFEC3
:104A9000032806D9DBF834402B46774A04207149B5
:104AA000A0474FF4FA613846FEF70CF83846FDF798
:104AB000D3FE044600285AD1DFF8EC913723024692
:104AC000019538460093CDF808906C4B6C4903F083
:104AD000F9FC0C993523CDF80890019122460093FA
:104AE0003846664B664903F0EDFCBBE54646DDF80B
:104AF0005C80FEF7C9FE032805D9DBF834300420BA
:104B0000604A584998474FF4FA613846FDF7DAFF92
:104B100000230F250C93C9E705F108034646DDF88D
:104B20005C800F2B28BF0F231D46FEF7ADFE032828
:104B3000B7D9DBF834402B46534A04204949A047F3
:104B4000AFE746460446DDF85C80FEF79DFE03288D
:104B500005D9DBF8343004204C4A424998474FF4D9
:104B6000FA6138460C940025FDF7ACFF9EE73B49FF
:104B70003B46474A00204C6B3A49A047CFE44FF4EC
:104B8000FA613846DDF85CA04546DDF87880FDF72F
:104B900099FF384602F076F9002854D12A99384610
:104BA000169B5A1A09EB410192B201F0C9FE2A98EC
:104BB000291A09EB400000F033F900283FF46DAEEC
:104BC000129D04460D981B230F9F28600A98EF81C1
:104BD0002882AB81DDF82480FEF756FE032808D931
:104BE0002A6843461D4904204D6B00921D49294AFD
:104BF000A847FEF749FE01281ED9129F0220264928
:104C00003E7E264A154D002E18BF0A463E4639689C
:104C1000BF8906923246CDF80080B6F90E606D6B02
:104C20000191B2F9101002975269139B05921C4A28
:104C3000CDE903610B49A847129B139AC3F804807E
:104C40009A60FFF76CBAFEF71FFE0128A6D9DBF8C1
:104C500034300220134A034998479FE7A41C43209D
:104C6000FC684100EC684100686941004C69410002
:104C7000E06941003C684100946A410010AF410086
:104C8000989941004C6A4100106B4100E86A41006C
:104C9000C86741000C6C4100DC684100E4684100D9
:104CA0008C6C4100D06B41005D2140002DE9F04744
:104CB00084B0002800F0A4800C2800F29D8000241D
:104CC000F6EE003A8D1E0DF1040C2646571E9FEDA0
:104CD0004E4A00F1FF3EDFED4D4A40F213589FED82
:104CE0004C5ADFED4C5A9FED4C6A26E0994507DDA2
:104CF000B5F902A0C145D8BF9A4501DA434563DD45
:104D0000F0EE456AA3F57A73013407F8016F002BC2
:104D1000E6B2B8BF5B42B04207EE903AF8EEE77AEF
:104D200087EEA57A67EE067A77EEA67AFCEEE77A4A
:104D300017EE903A0CF8013B1BD935F9023F002CD5
:104D40004BD0A64535F9029CD0D19945D8DDC14557
:104D5000D6DCA3EB090907EE909AF8EEE77AF4EEB9
:104D6000C47AF1EE10FA54BFF0EE456AF0EE646AD0
:104D7000C8E7023802F1010CC7B2FF2F21D0134659
:104D80000CEB070E0021187804AD13F8014F2E1814
:104D9000254416F80C6C15F80C5CAE4204D90131B0
:104DA00003F8014C1870C9B29E45ECD1003107F1EF
:104DB000FF3318BF0121002F08BF0021DFB20029F7
:104DC000DBD104B0BDE8F087AAEB090907EE909AA1
:104DD000F8EEE77A67EEA37AC1E7B1F900A0B1F97E
:104DE0000290CA458CDDC2458ADCA9EB0A0907EEB0
:104DF000909AF8EEE77AB2E71F210848FEF7D0F85C
:104E00001A210648FEF7CCF80000C8C200000000D6
:104E10000000484200007A440000C842F86C41009B
:104E20002DE9F043424F85B002468046A7FB01378B
:104E3000BF083B4607EB870102F088FA97B3A8F159
:104E4000020C7D00002162460CEB0500634633F83E
:104E5000024FA14238BF21468342F8D1354B022F81
:104E6000A3FB0131C1F34F0917D9A8F1060008F1DE
:104E700002010226284431F8024F32F8025F23462D
:104E8000A54201D92C461D464C4502D9B4EBC50FAD
:104E900012D8824206F10106EDD17A0802F1080328
:104EA000BB421CD9244B0020244A5B6B2449984701
:104EB000002005B0BDE8F083FEF7E6FC03280AD920
:104EC0001D4A3346CDF8089004201D49CDE9004520
:104ED000546B1C4AA047002005B0BDE8F08308F1E0
:104EE0000E0000243CF8021F60450C44FAD19342A6
:104EF0001CD908EB42080025013238F8021B934206
:104F00000D44F9D804EB8403AB4201D80120D0E76B
:104F1000FEF7BAFC0328DED9074A23460095042091
:104F2000546B0749084AA0470020C2E70025E9E77B
:104F3000CDCCCCCCABAAAAAAA41C4320986D41002E
:104F4000786D41001C6D4100A86D41002DE9F04FC6
:104F50002DED028B91B000249B460FAD0EAB0B9054
:104F600000950E940C910F94FDF7B2FB0D90002864
:104F700000F055840F9BA146DFF80CA09FED018A3D
:104F800058E000BF17B7513710AF4100032123206D
:104F900053463246019129460090204603F0ECF931
:104FA0000022712153460192204632460091294643
:104FB00003F0E2F901227521534601922046324660
:104FC0000091294603F0D8F9022269215346019243
:104FD000204632460091294603F0CEF99BF8B410E2
:104FE000452053463246019100902946204603F061
:104FF000C3F9DBED2E7A20465C2367EE887A3246D1
:10500000294600935346FCEEE77A17EE904A013C9E
:10501000A4B2019403F0B0F9029B0C9AC9F38F017A
:105020000B98FDF7C1F80F9B40F6B3529944914598
:1050300000F2F58340F6B4520E9CC5491FFA89F57B
:10504000A2EB0902204649443F279A4228BF1A464C
:1050500096B2029205F0D0FEDBF800304FF0430C20
:1050600032462046294601935346CDF800C003F04E
:1050700083F9DBF804304FF0410C324629462046D4
:1050800001935346CDF800C003F076F9DBF8083001
:105090004FF0420C324629462046CDF800C001931D
:1050A000534603F069F9BBF80C30324629462046D6
:1050B000CDE90073534603F05FF9DBF810304FF091
:1050C000260C32462946204601935346CDF800C0AF
:1050D00003F052F9DBF814304FF0670C32462946E2
:1050E000204601935346CDF800C003F045F9DBF8A4
:1050F00018304FF0540C324629462046019353464F
:10510000CDF800C003F038F9DBF81C304FF02A0C62
:1051100032462946204601935346CDF800C003F09D
:105120002BF9DBF820304FF06A0C32462946204636
:1051300001935346CDF800C003F01EF9DBF8283088
:105140004FF05D0C32462946204601935346CDF878
:1051500000C003F011F9DBF82C304FF05E0C324642
:105160002946204601935346CDF800C003F004F9C8
:10517000DBF830304FF0190C3246294620460193B7
:105180005346CDF800C003F0F7F8DBF834304FF0A9
:105190001A0C32462946204601935346CDF800C0EA
:1051A00003F0EAF8DBF838304FF01B0C32462946A2
:1051B000204601935346CDF800C003F0DDF8DBF83C
:1051C0003C304FF01C0C3246294620460193534692
:1051D000CDF800C003F0D0F8DBF840304FF01D0CE4
:1051E00032462946204601935346CDF800C003F0CD
:1051F000C3F8DBF844304FF01E0C324629462046F7
:1052000001935346CDF800C003F0B6F8DBF8483000
:105210004FF0470C32462946204601935346CDF8BD
:1052200000C003F0A9F8DBF84C304FF0480C3246D0
:105230002946204601935346CDF800C003F09CF860
:10524000DBF850304FF04A0C324629462046019395
:105250005346CDF800C003F08FF8DBF854304FF020
:105260005F0C32462946204601935346CDF800C0D4
:1052700003F082F8DBF858304FF07A0C32462946BA
:10528000204601935346CDF800C003F075F8DBF8D3
:105290005C304FF0560C3246294620460193534667
:1052A000CDF800C003F068F8DBF860304FF0570C21
:1052B00032462946204601935346CDF800C003F0FC
:1052C0005BF8DBF864304FF0330C32462946204659
:1052D00001935346CDF800C003F04EF8DBF8683078
:1052E0004FF0340C32462946204601935346CDF800
:1052F00000C003F041F8DBF86C304FF0660C32462A
:105300002946204601935346CDF800C003F034F8F7
:10531000DBF870304FF0460C3246294620460193A8
:105320005346CDF800C003F027F8DBF874304FF097
:105330002C0C32460193294653462046CDF800C036
:1053400003F01AF8DBF87430002B40F0F88101E02C
:1053500098994100DBF87810442053463246019179
:1053600029460090204603F007F8DBF87C206B21EB
:1053700053460192204632460091294602F0FCFF36
:10538000DBF88020372153460192204632460091B7
:10539000294602F0F1FFDBF88420362153460192C2
:1053A000204600913246294602F0E6FFDBF888707D
:1053B000BBB2082B00F2AF81984600276021CDF8E0
:1053C00004805346324600912046294602F0D4FF1D
:1053D0004B225346CDF8048000922946324620469F
:1053E00002F0CAFF6221504603F0F8F864210A90E7
:1053F000504603F0F3F863210390504603F0EEF8B3
:105400004D218046504603F0E9F84F210490504664
:1054100003F0E4F84E210590504603F0DFF83D21FB
:105420000690504603F0DAF838210790504603F012
:10543000D5F822210890504603F0D0F80A9B099035
:10544000324643EA07016223204600935346019106
:10545000294602F091FF039A642153463A432046BD
:10546000009129460192324602F086FF48EA07027F
:10547000632153460192204632460091294602F0AC
:105480007BFF049A4D2153463A432046009129461A
:105490000192324602F070FF059A4F2153463A437B
:1054A0002046009129460192324602F065FF069A95
:1054B0004E2153463A4320460091294601923246F6
:1054C00002F05AFF079A3D2153463A432046009185
:1054D00029460192324602F04FFF089A382153467E
:1054E0003A432046009129460192324602F044FF99
:1054F000099B222132463B432046009129461F4604
:105500005346019702F038FFDBF8902058215346AC
:105510000192204632460091294602F02DFFDBF829
:105520009420592153460192204632460091294643
:1055300002F022FFDBF8982005215346204602FAAC
:1055400001F7009132462946073F019702F014FF08
:10555000DBF898202421534657012046324600911B
:10556000033F2946019702F007FFDBF89820252129
:10557000534657012046324600917F082946033F93
:10558000019702F0F9FEDBF89C2029215346019295
:10559000204632460091294602F0EEFEDBF8A020BC
:1055A0005021534602F10E003246009129460190E7
:1055B000204602F0E1FEDBF8A430002B40F08180B1
:1055C000DBF8A830002B53D19BF88D30002B3AD15B
:1055D000DBF8AC7006215346324607F1FF3C0091E0
:1055E00020462946CDF804C002F0C6FE4FF0040C58
:1055F000552053463246294600902046BCFBF7F71B
:10560000013F019702F0B8FEDBF8B020532153466A
:105610000192204632460091294602F0ADFE9BF8E9
:10562000B520392153460192204600913246294641
:1056300002F0A2FE9BF8B530002B7FF4A7AC0193DB
:1056400023215346C4E400212E20534632460191C3
:1056500029460090204602F08FFEFEF715F901283A
:10566000B6D9724B0220724A5B6B72499847AFE71A
:105670005A21504602F0B2FFDBF8A8705A21534677
:10568000074432460091804629462046019702F0A1
:1056900073FEFEF7F9F8012807D964494346664AC4
:1056A0000220D1F834806349C047FEF7EDF80128A5
:1056B0008AD95E493B46614A02204F6B5D49B84733
:1056C00082E71F21504602F089FFDBF8A4701F21FA
:1056D00053460744324600918046294620460197AA
:1056E00002F04AFEFEF7D0F8012807D94F49434699
:1056F000534A0220D1F834804E49C047FEF7C4F81F
:1057000001287FF65DAF49493B464E4A02204F6B68
:105710004849B84754E702215B20BFB25346019184
:105720003246009029462046083F02F025FEFF231E
:105730004FF0080803FA07F707F47F473EE6012118
:10574000102053463246019129460090204602F02F
:1057500013FE4FF6807812215346324620460091C0
:105760002946CDF8048002F007FE1422534629464C
:10577000009220463246019702F0FEFD1122534668
:105780002946009220463246CDF8048002F0F4FD0E
:1057900000221321534601922046324600912946A9
:1057A00002F0EAFD4FF6C0721521534601922046E1
:1057B00032460091294602F0DFFD16225346294663
:1057C000009220463246019702F0D6FD4FF6F07265
:1057D0000E2153460192204632460091294602F09E
:1057E000CBFD0F22534629460092204632460197B0
:1057F00002F0C2FD4FF6FF72172153460192204678
:1058000032460091294602F0B7FD1822019753460F
:10581000009229463246204602F0AEFD9AE50D98E8
:1058200011B0BDEC028BBDE8F08F00BFA41C43207B
:10583000BC6E4100206E41006C6E4100946E4100D0
:10584000E86D4100346E410010B50446FDF700F8E4
:1058500040F229212046BDE81040FCF791BF00BF6F
:1058600090F8B53033B9C1E90033C1E90233C1E979
:105870000433704710B403220124002302200A607D
:105880004A61C1E90340C1E901335DF8044B704747
:10589000D0ED006AB6EE006ADFED335A9FED337A41
:1058A000C5EEA67A9FED325ADFED325A36EEC77A50
:1058B00027EE057A37EE257ABCEEC77A77EE867A40
:1058C00017EE103AFCEEE77A0B8117EE903A9BB296
:1058D000A3F1100292B2EF2A24D9F5EEC06A264B4A
:1058E00010B5F1EE10FA82B05C6B36D4234BDFEDCD
:1058F000247A00209FED237A76EEA76A224A234974
:10590000FCEEE67AB8EE676ACDED007A76EEC66A0E
:1059100066EE876AFCEEE66ACDED016AA0470020DC
:1059200002B010BD3F2B09D800202F2B88BF1A468C
:105930000B804880C88001208A8070470122BF2BDD
:105940004A800ED8A3F14000C0F3CF0003F0070255
:1059500088800B800120CA807047F1EE666A0C4B8C
:10596000C5E7D808F2E700BFF902154F8096984BBB
:10597000E8385BB500007C42A41C4320ACB4410075
:10598000BD37063500247449D86E4100046F4100CC
:105990006C5C41002DE9F04F8FB015468346002422
:1059A0000DAE28680A460A910B93594600960CAB37
:1059B0000990CDE90C44FCF78BFE002800F08980AB
:1059C000A1460D9BDFF82CA2C9F554680C9C814AB6
:1059D0001FFA89F69845204602EB090128BF984630
:1059E00042461FFA88F705F007FA6B681E22204628
:1059F00031460193009253463A4602F0BDFCAB6833
:105A00001C22314620460193009253463A4602F04A
:105A1000B3FCEB684FF01D0C3A463146204601932B
:105A20005346CDF800C002F0A7FC2B8A4FF01A0CA9
:105A30003A463146204601935346CDF800C002F065
:105A40009BFCEB694FF0100C3A463146204601931F
:105A50005346CDF800C002F08FFC2B6A4FF02F0C9C
:105A60003A463146204601935346CDF800C002F035
:105A700083FCAB694FF0120C3A4631462046019345
:105A80005346CDF800C002F077FC6B694FF0310C43
:105A90003A463146204601935346CDF800C002F005
:105AA0006BFC4346C9F38F015A462868FCF77CFB20
:105AB0000D9B9944B9F5546F86D318210998FCF7CA
:105AC0005FFE064678B9444B444A5B6B44499847AD
:105AD00005E0414B0646434A5B6B414998473046D7
