:020000040040BA
:10000000A02B432041004000812041007520410089
:10001000692041005D2041005120410000000000A6
:10002000000000000000000000000000910E4100F0
:100030004520410000000000210F410025594100EA
:10004000194AD2F8883043F4700310B5C2F88830EA
:10005000BFF34F8FBFF36F8F144A154882420BD204
:10006000D34311460024034423F003030433134411
:1000700041F8044B9942FBD10E4A0F4882420CD200
:10008000D3430E490344081D23F00303034451F8EE
:10009000040B994242F8040BF9D116F023FB12F03D
:1000A0001FF80DF0D3FCFEE700ED00E0001040204B
:1000B000441D432000004020AC0E40203028420068
:1000C00010B50CF085FF08B9012010BD05F0AEFC9D
:1000D00001460C4813F006FC0CF084FF00F0D8FA3F
:1000E00050B10021084600F0A3FA044600F00CFBD2
:1000F00084F00100C0B210BD034813F0E1FB012001
:1001000010BD00BF448B4100648B4100037970B582
:1001100004462DED048B032B00F22D81DFE813F054
:1001200033013A012501040000F04EFF0646002885
:1001300000F021816179304600F00AFD304600F080
:100140000FFB0546216804F04BFF284604F074FFBE
:100150002846032104F088FF2846216904F052FF55
:100160002846616904F060FF2846A17904F08CFFFD
:100170002846217E04F0ACFF637E002B40F0118105
:10018000237B002B00F0ED803046884D00F0E8FA2C
:100190000446874813F094FB864813F091FB3046E1
:1001A00000F0BEFC0146844813F09CFB204604F09E
:1001B0001FFF07EE900A814B2046F5EEC07A9FEDB7
:1001C000809AF1EE10FA58BF1D4604F011FF08EEB8
:1001D000100A204604F00CFF07EE900A2046F5EEC8
:1001E000C07AF1EE10FA48BFB1EE488A04F000FF81
:1001F00038EE098ABCEEC89A08EE100A204604F0D0
:10020000F7FE07EE900A2046F5EEC07ADFED6C7A35
:10021000F1EE10FA48BFB1EE488A38EE278A04F0B2
:10022000E7FE08EE900A204604F0E2FE07EE900A90
:100230009FED637A2946F5EEC07ADFED627A19EE1A
:10024000102A6148594DF1EE10FA9FED5D9A48BFB2
:10025000F1EE688A78EE878AFCEEE88AF8EE688A22
:1002600038EE688A28EE278AFCEEC87A17EE903AB4
:1002700013F038FB204604F0CDFE07EE900A4F4BFA
:100280002046F5EEC07AF1EE10FA58BF1D4604F094
:10029000C1FE08EE100A204604F0BCFE07EE900AEC
:1002A0002046F5EEC07AF1EE10FA48BFB1EE488A6A
:1002B00004F0B0FE38EE098ABCEEC89A08EE100AC7
:1002C000204604F0A7FE07EE900A2046F5EEC07A1D
:1002D000DFED3B7AF1EE10FA48BFB1EE488A38EE16
:1002E000278A04F097FE08EE900A204604F092FE5A
:1002F00007EE900A9FED327A19EE102AF5EEC07AD9
:10030000DFED307A29463148F1EE10FA48BFF1EEC0
:10031000688A78EE878AFCEEE88AF8EE688A38EE1A
:10032000688A28EE278AFCEEC87A17EE903A13F016
:10033000D9FA204604F0C4FE0146254813F0D2FA4B
:10034000204604F0AFFF0146224813F0CBFA2046C6
:1003500004F086FF0146204813F0C4FA0A200EF08C
:100360005BFA3046BDEC048B70BD01F017FB06460E
:1003700000287FF4DFAE1948002613F0A1FA3046BA
:10038000BDEC048B70BD00F0ABFF064600287FF487
:10039000D1AEF0E701F046F9064600287FF4CAAE78
:1003A000E9E72846A17E04F081FEE9E67C8B410066
:1003B000A88B4100BC8B4100DC8B4100F48B4100D9
:1003C000BD37063500247449F88B41001C8C410070
:1003D000408C41005C8C4100788C4100808B410056
:1003E0002DE9F04F0C4687B006467E48154613F0BF
:1003F00067FA204600F02EFC04460290002800F028
:10040000E6803378032B00F2EA80DFE803F0416DE9
:100410009902754813F054FA204600F0D5F9834646
:10042000002800F0B680B5FA85F34FF0000A04AF5B
:1004300003AE5B09DFF8CC8142F2107901933946B3
:100440003246204600F058FEA8FB0A3183460028B9
:1004500000F0B380490B09FB11A10AF1010A002940
:1004600000F09B805545EAD8019B002BE7D15F48FF
:1004700013F026FA204600F0F9F983465C4813F0A1
:100480001FFA02A800F082FC584607B0BDE8F08FC2
:10049000554813F015FA204600F096F983460028D7
:1004A00077D0B5FA85F34FF0000A04AF03AE5B09CD
:1004B000DFF8508142F21079019331463A462046E6
:1004C00000F0AEFFA8FB0A318346002875D0490B27
:1004D00009FB11A10AF1010A002966D05545ECD8A3
:1004E000019B002BE9D1C2E73F4813F0E9F9204610
:1004F00000F06AF9834600284BD0B5FA85F34FF037
:10050000000A04AF03AE5B09DFF8F88042F210790D
:10051000019331463A46204601F020F9A8FB0A3102
:100520008346002849D0490B09FB11A10AF1010AB1
:1005300000293ED05545ECD8019B002BE9D196E728
:10054000294813F0BDF9204600F03EF9834600B378
:10055000B5FA85F34FF0000A04AF03AE5B09DFF88C
:10056000A48042F21079019331463A46204601F0C8
:10057000A3FAA8FB0A318346F8B1490B09FB11A184
:100580000AF1010A69B15545EED8019B002BEBD168
:100590006DE7184813F094F970E7174813F090F9D5
:1005A00060E7154813F08CF9EDE7134813F088F96C
:1005B00094E7114813F084F9BCE7104813F080F970
:1005C0000A4813F07DF9204600F050F956E7A3469B
:1005D0000B4813F075F9584607B0BDE8F08F4FF09F
:1005E000000B4BE7948C4100C08C4100EC8C410027
:1005F0002C8D4100108D4100048D4100D48C4100B0
:10060000A88C41005917B7D103280FD8DFE800F0B4
:100610000B080502084600F05DBD084601F040BA2F
:10062000084601F08FB8084600F0E8BE704700BFEA
:1006300030B5002389B03C2201250293052407939D
:10064000039104931049114B8DF80A0001A80195FC
:100650008DF80940059106938DF81C20FFF756FD93
:10066000009068B10146039A02A8FFF7B9FE04465C
:1006700069469DF80800FFF7C7FF204609B030BD66
:100680000446204609B030BDEC51383E8FC2753E5D
:1006900010B5174C23788BB940B105F089F828B113
:1006A00000F0CAFA10B103F023FE98B9114B0020F4
:1006B000114A5B6B11499847207810BD05F052F93B
:1006C0000128F9D90B4B02200D4A5B6B0B49984767
:1006D000207810BD0123237005F044F90128EBD9DF
:1006E000044B0220074A5B6B04499847E4E700BFCC
:1006F00000104020A41C4320648D4100608D410007
:100700007C8D4100408D410010B50B4C237803B91E
:1007100010BD00F067FB03F023FE05F023F901286C
:1007200005D9064B0220064A5B6B0649984705F03F
:1007300079F80023237010BD00104020A41C432032
:10074000A48D4100608D4100024B0120024A5B6B89
:1007500002491847A41C4320788E4100908E410026
:1007600008B10069704710B5044605F0FBF830B1D8
:10077000034B0120034A5B6B03499847204610BD99
:10078000A41C4320788E4100908E410070B50D4628
:100790000446FFF7E5FF58B12946064604F0B4FECB
:1007A0003DB9A36823B161792046BDE87040184780
:1007B00070BD30460F2104F05BFD30460121BDE8DD
:1007C000704004F077BD00BFF8B560B9204C002040
:1007D000204A636B204998470020636B1F4A1E49DB
:1007E00098470020F8BD1E4B044602689A42EDD19E
:1007F0001C4B1878B8B1637B002BF3D0A368202B77
:1008000011D8194D15F813206AB905EB43020127D9
:10081000567805F8137046B100220D4C05F81320E8
:10082000DAE7202BF8D90A4CD6E704F11C0003F0D4
:10083000DFFEA3680028F4D0202B06D805EB430286
:10084000667305F813605770F8BD6673F8BD00BF96
:10085000A41C4320C88D4100908E4100108D4100A2
:10086000E89EC0AC01104020041040202DE9F0416A
:1008700070B91C4C00201C4A636B1C49984700202F
:10088000636B1B4A1949054698472846BDE8F08125
:10089000184B044602689A42EBD1174B1D78DDB124
:1008A000437B002BF1D18368202B15D8134E16F80B
:1008B00013708FB94FF001081C3006F8138003F055
:1008C000CFFEA368202B09D806EB430284F80D80E5
:1008D00006F813705770D8E7024CD0E784F80D8003
:1008E000D3E700BFA41C4320C88D4100908E410077
:1008F000F08D4100E89EC0AC011040200410402063
:1009000043693BB1DA6810B50446184690470023A6
:10091000636110BD704700BF2DE9F0410E4682B003
:100920000546002832D1324B0020324A5B6B3249F7
:1009300098470023B47E64B17268B2B92C4B002092
:100940002E4A5B6B04462C499847204602B0BDE80E
:10095000F081B26862B9264B2046294A5B6B264972
:100960009847204602B0BDE8F081F268002AE5D041
:10097000BBB12B7B3278934218D01D4900200092E6
:10098000204A04464D6B1C49A847DEE71E4B02680F
:100990009A42C8D10123CDE72846FFF715FF8046CC
:1009A00048B90024204602B0BDE8F08196F81880CE
:1009B000B8F1000FF0D16F7B87B10D4B0024134AC3
:1009C00020465B6B0C499847B8F1000FBDD0284614
:1009D000FFF74CFF204602B0BDE8F0816B69AE61C5
:1009E000D3E900029047747EAF6184F00104EBE725
:1009F000A41C4320C88D4100908E41000C8E410004
:100A00002C8E4100448E4100E89EC0AC608E4100B7
:100A100070B59DF810501E46846945B9A07E78B126
:100A2000E36860689A4228BF1A460DF0A1FD20696C
:100A3000657658B162693146BDE870400DF098BDE9
:100A4000A2681160206965760028F3D170BD00BFEF
:100A5000014B1870704700BF0110402008B538B92D
:100A6000064B0020064A5B6B06499847002008BDEC
:100A70000268054B9A42F3D1012008BDA41C432013
:100A8000C88D4100908E4100E89EC0AC08B538B9D1
:100A9000094B0020094A5B6B09499847002008BDB3
:100AA000084B02689A42F3D1038B002BF0D04369C4
:100AB000002BEDD0012008BDA41C4320788E4100FE
:100AC000908E4100D79DC0AC08B538B90F4B0020BF
:100AD0000F4A5B6B0F499847002008BD0E4B026818
:100AE0009A42F3D1038B002BF0D04369002BEDD059
:100AF0004379013B042B07D9044B0020074A5B6B69
:100B000004499847002008BD012008BDA41C4320CB
:100B1000788E4100908E4100D79DC0ACD88D4100A9
:100B200008B14079704708B504F01CFF38B1054B97
:100B30000120054A5B6B05499847012008BD01204B
:100B400008BD00BFA41C4320788E4100908E410058
:100B500010B568B18368044653B161719847237B2F
:100B600003B910BD20460121BDE81040FFF70EBEBD
:100B700004F0F8FE0028F4D0BDE81040FFF7E4BD13
:100B800008B528B103461973BDE80840FFF7FEBD5C
:100B900004F0E8FE18B1BDE80840FFF7D5BD08BD78
:100BA00070B5059D04460261084EBDF81020017124
:100BB00006609DF81810856043610283FFF7C8FF47
:100BC00020460021BDE87040FFF7DABFD79DC0ACDA
:100BD00030B583B0044604F0C5FE032808D9114996
:100BE0000420A2684D6B63680F4900920F4AA84722
:100BF000606800230E4951F8042B12B152689042EC
:100C000004D00133042BF6D103B030BD094A0021D2
:100C1000204602EB8303596003B0BDE8304004F086
:100C20008FBE00BFA41C4320C48F41009C8F410095
:100C3000040040200000402010B5054C207800B191
:100C400010BD012318462370FFF702FF207810BD66
:100C5000000040202DE9F043414D83B02B7853B97B
:100C6000404918461C46404A4B6B4049984720462D
:100C700003B0BDE8F0830746FFF708FF002858D00F
:100C80003B69D3F80C80B8F1200F33D86B7853B997
:100C90002B1D05F1140153F8042B12B192689045F5
:100CA0004CD09942F7D1D5F814903C8B09F101034F
:100CB0006B6104F057FE032808D92A4A4B46CDF849
:100CC00000800420566B2949294AB047294B002649
:100CD00053F8042B92B10136042EF9D12149334641
:100CE000254A00204D6B21490446A847204603B001
:100CF000BDE8F0831B492023204AF2E72146D42394
:100D00001F4A012004F0FEFD044690B11D4B05EB87
:100D10008605C4F8049039462360C4F808807B69CE
:100D20006C60984790B101232046637303B0BDE81F
:100D3000F0830024204603B0BDE8F083094B002077
:100D4000114A5B6B04460949984790E723690BB148
:100D50002046984720460024FFF73AFF87E700BF68
:100D600000004020A41C4320D88E4100C48F4100C5
:100D7000B48E410004004020148F4100988E410041
:100D8000388F4100E89EC0ACEC8E4100114B1B78BF
:100D900010B533B1044618B10068FFF75FFE60B9C3
:100DA00010BD04F0DFFD0028FAD00B4B01200B4AE8
:100DB0005B6B0B49BDE8104018472068FFF756FDF4
:100DC000206803690BB198472068FFF701FF0023F3
:100DD000236010BD00004020A41C4320D88E410099
:100DE000C48F410038B51B4C2578002D30D0636886
:100DF0000BB3201DFFF7CAFFA36803B31648FFF724
:100E0000C5FFE36813B11548FFF7C0FF236913B1AD
:100E10001348FFF7BBFF04F0A5FD28B1114B0120DB
:100E2000114A5B6B11499847002318462370BDE8AF
:100E30003840FFF70DBE1D46A368002BDED1E368E6
:100E4000002BE0D12369002BE2D1002DECD0E2E7AA
:100E500038BD00BF00004020080040200C004020AA
:100E600010004020A41C4320508F4100C48F41003B
:100E700030B50C4685B001461046657903AB226952
:100E80008DF80C5000952579A4798DF80D508DF8CA
:100E90000E40FFF7BDFD05B030BD00BF70B5A2B07C
:100EA000054684220E4601A80DF062FB01A8FFF75B
:100EB0000BFE10B9002022B070BD08A804F006FC9B
:100EC0000028F7D0BDF8804044B9164B2046164A9A
:100ED0005B6B16499847204622B070BD9DF8823062
:100EE000012B14D0337922A9114808AA2B732B4661
:100EF00041F8880D05F11C0004F0CAFD03460030DE
:100F00000C4A18BF0120C5E9042322B070BDBDF80A
:100F10007A30402BE6D9034B0020074A5B6B03492C
:100F20009847C7E7A41C4320EC8F41001C90410068
:100F3000710E4000010940002C90410020B103795E
:100F4000032B0ED00020704710B5044604F00AFDB4
:100F500040B1054B0120054A5B6B05499847204687
:100F600010BD7047002010BDA41C4320788E4100A6
:100F70001C90410010B50C46FFF7E0FF48B1611E20
:100F800000F11C04042904D8DFE801F00E181A1C33
:100F9000040010BD1021204604F07AF920460521F6
:100FA000BDE8104004F064B90021204604F070F957
:100FB00020460021BDE8104004F05AB90721F4E7AB
:100FC0000921F2E70C21E6E770B55D2384B03B4AC6
:100FD0008421012004F096FC054600286AD000F127
:100FE0001C0402263649502322460093354BCDE996
:100FF00001160321FFF7D4FD2046334904F002F81F
:101000002046324904F010F82046062104F0B6F9D3
:101010000121204603F0E4FF204604F015F8314694
:10102000204604F021F82046002104F071F9204602
:10103000102104F0EDF92046002104F0FBF92046D0
:10104000002104F053F92046002104F01DF8204649
:10105000002104F02BF82046FF2104F07DF9204602
:10106000002104F067F90023204619461A4604F0CF
:10107000ADF92046012104F0F7F92046012104F0E2
:101080002BF920460B2104F0E3F820460A2104F056
:101090001FF82046002104F0F9F92046012104F050
:1010A0000FFA20464FF4805104F01CFA20460849FC
:1010B00004F016F8284604B070BD00BFD48F41007C
:1010C000750F40009D0E4000CDCC4C3E9A99993E44
:1010D0008D37400070B110B504460068FFF7D6FCAC
:1010E00000B910BD2068FFF729FF04F029FC002398
:1010F000236010BD704700BFB1B1002330B589B087
:101100000D680324039101A9029505928DF804400E
:10111000069404938DF81C308DF81D308DF81E3028
:10112000FFF7FAFB09B030BD0846704770B50C46B2
:1011300084B001461046657903AB22698DF80D50E5
:1011400000952679E579A4798DF80E608DF80F5019
:101150008DF80C40FFF75CFC04B070BD30B5A5B055
:10116000882204460D4602A80DF002FA09A804F0F0
:1011700073F907EE900A09A8B8EEE77ADDED237A55
:1011800067EE277A17EE901A04F014F802A8FFF71A
:101190009BFC40B1169B042B08D11A4B00201A4A25
:1011A0005B6B1A499847002025B030BD09A804F0B0
:1011B0008DFA0028F7D009A804F04EF9431E9BB21F
:1011C000012B09D9042807D00E4B0020104A5B6B75
:1011D0000E4998470020E7E72B7924A90D4809AA72
:1011E0002373234641F88C0D04F11C0004F044FDE8
:1011F00003460030084A18BF0120C4E9042325B083
:1012000030BD00BFA41C432070904100AC90410051
:10121000C09041002D1140000109400010B5044666
:10122000FFF734FC08B1237953B104F09BFB30B1D4
:10123000044B0120044A5B6B04499847002010BD11
:10124000204610BDA41C4320788E4100AC90410084
:1012500038B50C46FFF7E2FFC8B1611E054600F144
:101260001C04042913D8DFE801F0132333350300ED
:101270001021204604F00CF80621204603F0F8FF68
:101280002046012104F016F8134BC5F8843038BD10
:101290000021204603F0FCFF0021204603F0E8FF78
:1012A0002046032104F006F80C4BC5F8843038BD05
:1012B0000721204603F0ECFF0621204603F0D8FF6B
:1012C0002046092103F0F6FF034BC5F8843038BDF2
:1012D0000921EEE70C21CCE70938843BFA61843C14
:1012E00070B56B2384B03D4A8821012004F00AFBCD
:1012F000054600286FD000F11C040226384950230F
:1013000022460093374BCDE901160021FFF748FC38
:101310002046354903F076FE2046344903F084FE2A
:101320002046062104F02AF820460A2103F0D0FEC8
:101330002046012103F07CFF0121204603F050FEEE
:10134000204603F081FE3146204603F08DFE204604
:10135000002103F0DDFF2046002103F0C7FF2046F7
:10136000002103F091FE2046002103F09FFE20465D
:10137000FF2103F0F1FF2046002103F0DBFF0023F3
:1013800020461A46194604F021F82046012104F0AF
:101390006BF820460B2103F05BFF2046012104F08F
:1013A00075F82046124903F0ADFE0122204611498E
:1013B00003F0BCFE2046012103F0EAFE2046012195
:1013C00004F07EF820464FF4965104F08BF8204646
:1013D000094903F085FE284604B070BD58904100CD
:1013E000511240005D114000CDCC4C3ECDCCCC3EE6
:1013F000CDCCCC3D9A99993EE921400070B110B511
:1014000004460068FFF742FB00B910BD2068FFF7F3
:1014100005FF04F095FA0023236010BD704700BF5C
:10142000B9B1002330B5042489B00D6803910DEBE8
:101430000401029505928DF8043004938DF81C3058
:101440008DF81D308DF81E300694FFF765FA09B04F
:1014500030BD0846704700BFF0B50C4687B00F7925
:10146000064691F805C01546C97903AA8DF80E7095
:101470000C23A7890F208DF80F10A168ADF810700C
:10148000A779059121688DF80DC08DF80C7004F0D6
:1014900089FA226903AB6479314628460094FFF744
:1014A000B7FA07B0F0BD00BF70B5A4B004468C22F7
:1014B0000D4601A80DF05CF801A8FFF705FB40B14F
:1014C000159B042B08D12A4B00202A4A5B6B2A4922
:1014D0009847002024B070BD08A804F0F7F8002851
:1014E000F7D0BDF880305A1E012A09D9042B07D045
:1014F0001F4B0020214A5B6B1F4998470020E9E7FA
:101500009DF8883003B3DDED237A17EE901A08A812
:1015100003F050FE2B7908A8194D237303F010FE39
:1015200024A984F8500008AA234641F8905D04F1EC
:101530001C0004F0DFFD03460030124A18BF0120F2
:10154000C4E9042324B070BD08A89DF8096003F025
:1015500083FF07EE900A012E9FED0B7AF8EE677A73
:10156000DFED0A6A07FE267A67EE877ACDE700BFCD
:10157000A41C4320709041004491410050914100CF
:101580005914400001094000FA61843C0938843B49
:1015900010B50446FFF77AFA10B12379012B0AD06F
:1015A00004F0E0F930B1054B0120054A5B6B0549B9
:1015B0009847002010BD204610BD00BFA41C43204A
:1015C000788E41004491410038B50D46FFF7E0FFA9
:1015D00068B100F11C040121204603F06BFE691E76
:1015E000042904D8DFE801F00E181A1C040038BDE5
:1015F0001021204603F04CFE20460521BDE838406E
:1016000003F036BE0021204603F042FE20460221B0
:10161000BDE8384003F02CBE0721F4E70921F2E7CA
:101620000C21E6E7F0B5742385B0404A8C210120F7
:1016300004F068F90646002874D000F11C04022763
:101640003B4954232246002500933A4BCDE901172C
:101650000121FFF7A5FA002320463749C6F8883054
:1016600086F8845003F0CEFC2046344903F0DCFCBD
:101670002046062103F082FE20460A2103F028FDC1
:101680002046012103F0D4FD20460B2103F0E0FDAC
:101690000121204603F0A4FC204603F0D5FC394686
:1016A000204603F0E1FC2946204603F031FE29469E
:1016B000204603F011FE2946204603F017FE294676
:1016C000204603F0E1FC2946204603F0EFFC2046CB
:1016D000C72103F041FE2946204603F02BFE2B468E
:1016E0002A462946204603F071FE2046012103F0D8
:1016F000BBFE2046012103F0C9FE2046012103F074
:1017000047FD2946204603F023FD2046012103F032
:10171000D7FE20464FF4965103F0E4FE20460849D8
:1017200003F0DEFC304605B0F0BD00BFE0904100A4
:10173000C9154000A9144000CDCC4C3ECDCCCC3EC8
:10174000812A400048B110B504460068FFF720FF29
:1017500004F0F6F80023236010BD70470B1C18BF7F
:101760000123002808BF002373B190F8503070B5F2
:1017700088B05BB1104B0020104A5B6B1049984752
:101780000023184608B070BD184670470E68012542
:101790000624039101A98DF81C308DF81D308DF8B9
:1017A0001E3002968DF804500694CDE90432FFF7FE
:1017B000B3F80346E5E700BFA41C4320F4904100C2
:1017C0004491410070B50C4684B0014610466579DD
:1017D00003AB22698DF80D5000952679E579A4793F
:1017E0008DF80E608DF80F508DF80C40FFF710F952
:1017F00004B070BD70B52DED028BA4B004468422F8
:101800000E4603A80CF0B4FE03A8FFF75DF990B1F3
:10181000179B042B0BD10020324B334A05465B6BE0
:1018200032499847284624B0BDEC028B70BD0AA807
:1018300003F04CFF28B90025284624B0BDEC028BEC
:1018400070BD0AA803F008FE451EADB2042818BFFB
:10185000012D8CBF0125002507D9224B0020244AE9
:101860005B6B054621499847E6E70AA803F0D2FBDF
:1018700008EE100A0AA803F073FC07EE900AF8EECF
:10188000E76ADFED1C7A88EE267AB4EEE77AF1EEAD
:1018900010FA0BD5134A4FF47A5300952846546B2F
:1018A00012490193144A154BA047C5E733790AA89A
:1018B000134D237303F054FC24A9A4F850002346CD
:1018C00041F8885D0AAA04F11C0004F0FFFD051C24
:1018D0000C4B18BF0125C4E90430284624B0BDECE8
:1018E000028B70BDA41C4320709041008891410080
:1018F0009C9141006F12833CBC914100F48B4100EC
:10190000C51740000109400010B50446FFF7BEF8B6
:1019100010B12379022B0AD004F024F830B1054B22
:101920000120054A5B6B05499847002010BD204601
:1019300010BD00BFA41C4320788E41008891410057
:1019400038B50D46FFF7E0FF68B100F11C040F2128
:10195000204603F08DFC691E042904D8DFE801F05D
:101960000E181A1C040038BD1021204603F090FC0C
:1019700020460121BDE8384003F09CBC00212046F0
:1019800003F086FC20460421BDE8384003F092BCF9
:101990000721F4E70921F2E70C21E6E7F0B564231B
:1019A00085B0394A8421012003F0ACFF05460028A8
:1019B00066D000F11C0402265423344F22463146DF
:1019C0000296CDE90037324BFFF7EAF8204631495D
:1019D00003F018FB2046304903F026FB2046062181
:1019E00003F0CCFC20460A2103F072FB20460121C3
:1019F00003F01EFC20460B2103F02AFC01212046A7
:101A000003F0EEFA204603F01FFB3146204603F0B8
:101A10002BFB2046002103F07BFC2046002103F035
:101A200065FC2046002103F02FFB2046002103F037
:101A30003DFB2046FF2103F08FFC2046002103F0F0
:101A400079FC0023204619461A4603F0BFFC2046C5
:101A5000012103F009FD2046012103F017FD204676
:101A6000052103F085FB2046012103F029FD2046D6
:101A70004FF4965103F036FD2046084903F030FB41
:101A8000284605B0F0BD00BF6C91410041194000EF
:101A9000F5174000CDCC4C3ECDCCCC3EE9214000EA
:101AA00048B110B504460068FFF72EFF03F048FF69
:101AB0000023236010BD7047C1B1002370B504241A
:101AC00088B00E68022503910DEB04010296059281
:101AD0008DF8045004938DF81C308DF81D308DF86E
:101AE0001E300694FEF718FF08B070BD0846704718
:101AF00043693BB110B50446184603F021FF0023AB
:101B0000636110BD704700BF2DE9F04744698AB09A
:101B100007468846B4F8C03091460BB9A4F8C230E5
:101B2000B4F8C8207C23D4F8C450B3FBF2F305FB0F
:101B300003F5002D37DB204604A906F0C5FBD8F8D5
:101B40000030049A6E00B4F8C2102A443868194470
:101B500003F050F803AA824604F1BC0338685146EA
:101B60000092224606F0C8FB9DF80C3004A92046DE
:101B7000003318BF012389F8003006F0A5FBB4F844
:101B8000C230D8F800003246049918440AEB4101EB
:101B90000CF088FDB4F8C23028461E44A4F8C26098
:101BA0000AB0BDE8F08740F25A21014803F0E2F99B
:101BB000CC9241002DE9F04FD0F814A0B7B0034605
:101BC0008B4615465146BC2207A8D3F800900CF06E
:101BD000CFFC4FF0020C329F0024012607FA0CF8CC
:101BE00007ABDBF80420484608F1FF37DBF80010AC
:101BF000CDF8BCC02E971D962294BAF8C8701C94DC
:101C00008DF8D04005F0ACFE484606F027FB48466C
:101C10006B4664224FF4FA6102F0AAFE064618B938
:101C2000304637B0BDE8F08F7C23504601A9DBF881
:101C300000B0B3FBF7F706F047FB08FB07F7019A84
:101C4000594648463A4402F0D5FF4FF4FA618046BF
:101C5000484602F021FF504601A906F035FB0198E5
:101C60000E2FA7F10E0C08EB400021D97F0000F1E8
:101C70001A012346023F0A4600EB070E32F8024FD4
:101C800096452344FAD138440024B3FBFCF231F8E2
:101C9000023F9B1A002BB8BF5B4288421C44F6D11E
:101CA000B4FBFCF4A3B230462B8037B0BDE8F08F14
:101CB0002346F8E7F0B54369002599B00668C3F8F4
:101CC000BC500C46174603F0BBFD02A9119011A8A9
:101CD00006F064FB18B90024204619B0F0BDBDF829
:101CE0000A506B46BDF80C1005AABDF80E0007910E
:101CF000089061682068CDE90565BDF81050ADF821
:101D0000245004F04FFD0028E5D0BDF80A1011ABB7
:101D1000BDF80C000AAA9DF804500C90BDF8100004
:101D20001095ADF83800CDE90A61BDF80E100D919F
:101D300000990F91D4E9000104F0EAFE044600285E
:101D4000C9D0009906239DF804201198B980FA8023
:101D50001299139A38817981BDF85000BDF852105C
:101D6000BA81BDF85420F88139827A823B6003F051
:101D7000F9FD0128B0D9034B0220034A5B6B0349EC
:101D80009847A9E7A41C4320E0914100009241003C
:101D90000B68062B70B58CB00BD028480621284A5A
:101DA000446B0020009127490546A04728460CB007
:101DB00070BD0C46064603F043FD03A9069006A835
:101DC00006F0ECFA05460028F0D0BDF8123006AA5D
:101DD000BDF80E00B360BDF814303060B381A08848
:101DE000E388BDF81010C6E9040320896389716097
:101DF0007C21C6E90603238AA089B384638A306202
:101E0000E089F38404F0A2FCBDF81800BDF81A10B4
:101E1000BDF81E20BDF82030B062F162BDF824008C
:101E2000BDF8261032637363BDF82A20BDF82C304C
:101E3000C6E90E01C6E91023B8E700BFA41C432081
:101E40004C9241000092410010B5B0F8C84086B0F5
:101E500064B1694606F038FA7C230098B3FBF4F3CA
:101E6000C0F50060B0FBF3F006B010BD4FF49F71F9
:101E7000014803F07FF800BFCC9241002DE9F04FFC
:101E800044698DB0064608460D4691461F464FF000
:101E9000010B03F0E1FA0023A4F8C8002046C4F8BF
:101EA000BC3006F1040A84F8B5B0FFF7CDFF854BCE
:101EB00080B24FF07C0C1968524602903B4601916B
:101EC00028464946CDF800C001F0A6FC804618B966
:101ED00040460DB0BDE8F08F284603F011FA68B90E
:101EE000C4E9120B00232846236503F07BF903287D
:101EF00000F2E580DFE800F0D3CAB8070023C4F899
:101F000048B0E364EEE70DF1180B284603F072F9D0
:101F100005AA594602F092F80123DDE90512C4E949
:101F20001533C4E91712284603F096F8042807D899
:101F3000DFE800F09696910396000023C4E9193378
:101F4000284603F099F880F001032846DBB2E366E7
:101F500003F0A4F880F0010301222846DBB2626797
:101F6000236703F0ADF8431E2846A36703F068F922
:101F7000E067284603F074F9C4F88000284603F0AF
:101F800091F9431E2846C4F8843003F079F9C4F867
:101F90008800284603F00AFA84F88D00284603F0EA
:101FA0005BFAC4F8AC00284603F0F0F9C4F8A400CA
:101FB000284603F0F3F9C4F8A800284603F078FA9D
:101FC00080F00103284684F8B43003F029F9012891
:101FD0006DD902380123C4E92430B3880122504668
:101FE00084F8B520C4F8983002F000F8002862D1D7
:101FF0007089B6F908200138F388C4E92702C4F8CB
:10200000B03003F01DFC4FF46172C4F8B8007C23BB
:10201000A9F814200021B4F8C82020463983594675
:10202000B3FBF2F23B8903FB02F37B8106F04CF930
:102030005A4631680123122003F09AFC02F076F828
:10204000BDF818304FF416621844BA81F881404642
:102050000DB0BDE8F08F01220023C4E919236FE71A
:102060000123C4E919336BE70DF1180B284603F07F
:10207000C1F805AA594601F0E1FF01200021DDE980
:102080000523C4E91501C4E917234CE70023012205
:102090000DF1180B6365A265C4E9173343E700230C
:1020A0000DF1180BC4E91533C4E917333BE70023DE
:1020B000C4F8903091E77069FFF7C6FE99E70DF11B
:1020C000180B30E74892410038B50139136889B2DE
:1020D000B3F8C0408C4204D01846BDE83840FFF742
:1020E000B3BE054618461446FFF7AEFEB5FBF0F347
:1020F00003FB105000B138BD2068BDE83840FFF741
:10210000A3BE00BF8389012B27D0F0B546690446E2
:10211000B0F9087083B0B6F8C0203046013292B2F0
:10212000B2FBF3F503FB15239DB2A6F8C050FFF7F1
:102130008BFE04F1140200FB0575A1896089FFF78D
:10214000C3FF0346694620685A1EC6F8C430CDE96D
:10215000002506F08FF803B0F0BD1846704700BFA9
:102160000246002370B552F8145F04460E46C5F8C7
:10217000C03081894089FFF7A7FF2B46C5F8C4000E
:102180002068D6E9001205F0EBFB38B9124B064681
:10219000124A5B6B12499847304670BD206806F0C2
:1021A0005DF80646A8B195F8B430002BF4D021694B
:1021B000206802F0F5FC044658B103F0D3FB012877
:1021C000EAD9054B0220074A26465B6B044998472B
:1021D000E2E70026E0E700BFA41C43208C92410008
:1021E00000924100A892410038B504460D464FF4D4
:1021F00089730F4ACC21012003F084FB6061A8B1F0
:10220000284602F0E5FE2060284603F051F9A0734D
:10221000284602F021FFB0FA80F328465B09E373F9
:1022200001F0EAFE034B20610120A36138BD00BF2D
:10223000CC9241001492410043693BB110B5044671
:10224000184603F07DFB0023636110BD704700BF9B
:10225000F0B54369002599B00768C3F8CC500C4627
:10226000164603F0EDFA02A9119011A806F096F8AF
:1022700018B90024204619B0F0BDBDF80A506B46CD
:10228000BDF80C1005AABDF80E0007910890616812
:102290002068CDE90575BDF81050ADF8245004F064
:1022A00081FA0028E5D0BDF80A1011ABBDF80C008A
:1022B0000AAA9DF804500C90BDF810001095ADF8D6
:1022C0003800CDE90A71BDF80E100D9100990F91FB
:1022D000D4E9000104F01CFC04460028C9D0009891
:1022E00006229DF80410119BB080F180129813997A
:1022F0003381BDF850307081B181BDF85200BDF816
:102300005410F3819DF85C3030827182326063B189
:102310000F23B38203F026FB0128ABD9044B022024
:10232000044A5B6B04499847A4E7BDF85830F0E7CE
:10233000A41C4320E0914100E89241000B68062B69
:1023400070B58CB00BD029480621294A446B002077
:10235000009128490546A04728460CB070BD0C46A0
:10236000064603F06DFA03A9069006A806F016F8D3
:1023700005460028F0D0BDF8123006AABDF80E00C0
:10238000B360BDF814303060B381A088E388BDF835
:102390001010C6E904032089638971607C21C6E9B5
:1023A0000603A089238A3062B384608AA38AF084FA
:1023B000C6F89030E08904F0C9F9BDF81800BDF8FE
:1023C0001A10BDF81E20BDF82030B062F162BDF8D1
:1023D0002400BDF8261032637363BDF82A20BDF8CF
:1023E0002C30C6E90E01C6E91023B5E7A41C432032
:1023F0004C924100E892410030B5B0F8E45087B00B
:10240000A5B1F82390F8E620B3FBF5F402B17C34D3
:10241000694607F055F9009B7C20C3F50063B0FBCB
:10242000F5F01B1BB3FBF0F007B030BD4FF4AD71FE
:10243000014802F09FFD00BF00934100F8B50C4633
:10244000B0F8E41091B37C250646B5FBF1F5FFF733
:10245000D3FF30B3B6F8E470F82396F8E660B4FB27
:10246000F0F1B3FBF7F38AB2A6B900FB11400028E4
:102470000CBF1046501C80B21CB115B1A4FB0567FF
:1024800057B903FB00F004FB05F4C3439C4212D888
:102490002044F8BD7C33E8E740F27311084802F0AD
:1024A00069FD4FF4B671064802F064FD40F2671111
:1024B000034802F05FFD40F27511014802F05AFD39
:1024C000009341002DE9F04744698AB006468846EA
:1024D000B4F8DA3092460BB9A4F8DC30D4F8E01046
:1024E0002046FFF7ABFF071E37DB204604A907F0A5
:1024F000E7F8B4F8DC30049A7D00D8F800103A44CC
:102500003068194402F076FB03AA814604F1CC033B
:10251000306849460092224607F0EAF89DF80C30F0
:1025200004A92046003318BF01238AF8003007F0C1
:10253000C7F8B4F8DC30D8F800002A4604991844EB
:1025400009EB41010CF0AEF8B4F8DC3038461D441C
:10255000A4F8DC500AB0BDE8F08740F29F210148A2
:1025600002F008FD009341002DE9F04F4569BDB030
:102570000346884601922946CC2209A81E680BF022
:10258000F7FFDDF8DCB0002495F8E69001234FEA70
:102590008B07022285F8E640284607F1FF3C3946C2
:1025A0002093CDF8CCC0369225941F9439941E9474
:1025B000CDE93433FFF742FF09AB85F8E690824658
:1025C0003046D8E9001206F0EFFB304607F032F84B
:1025D000304602AB64224FF4FA6102F0C9F9814639
:1025E00018B948463DB0BDE8F08F7C23284603A9C2
:1025F000D8F80080B3FBFBFB07F062F8039A414672
:102600003046524402F0F6FA4FF4FA618046304602
:1026100002F042FA284603A907F052F8039DBA1CBB
:10262000594608EB4505379E284602F083FCF823FF
:10263000B3FBF6F39A4523D9BAEB030A05EB43053E
:1026400023D05A461FFA8AF128464FF4004302F07D
:102650004FFCA81E05EB4A020E49023A30F8023F31
:102660000B44002BB8BF5B4282421C44F6D1019B55
:102670004846B4FBFAFAA3F800A03DB0BDE8F08FDD
:1026800040F24521044802F075FC4FF412710248F3
:1026900002F070FC0180FFFF009341002DE9F04F34
:1026A00006468DB008460D4674691F46914602F0F5
:1026B000D3FE0022A4F8E40028464FF0010B114697
:1026C00006F1040A02F092FE002384F8E600204698
:1026D000C4F8CC3084F8C4B0FFF78EFE984B80B2BB
:1026E0004FF07C0C1968524602903B4601912846F7
:1026F0004946CDF800C001F08FF8804618B9404631
:102700000DB0BDE8F08F284602F0FAFDA0B9A06434
:10271000C4E9130B00222846114602F067FE6065EB
:10272000284602F05FFD032800F20681DFE810F082
:10273000E300DA00C8000A000023C4F848B0C4E986
:102740001333E7E70DF1180B284602F053FD05AAF5
:10275000594601F073FC0123DDE90512C4E9163383
:10276000C4E91812284602F077FC042807D8DFE8ED
:1027700000F0A3A39E03A3000023C4E91A33284654
:1027800002F07AFC80F001032846DBB2236702F0F6
:1027900085FC80F0010301222846DBB2A267636753
:1027A00002F08EFC431E2846E36702F049FDC4F8A0
:1027B0008000284602F054FDC4F88400284602F048
:1027C00071FD431E2846C4F8883002F059FDC4F854
:1027D0008C00284602F0B8FDC4F89400284602F0A8
:1027E000C5FDC4F89800284602F01AFD012840F201
:1027F0008A8002380123C4E92730284602F02CFEE3
:10280000C4F8B800284602F053FE80F00100B288F8
:102810000121C3B2504684F8C410C4F8C030C4F8D3
:10282000A42001F0E3FB00287ED17089B6F90830BE
:10283000421E012BC4F8A82069D00122C4F8B4308C
:10284000C4E92B22F388C4F8BC3002F0F9FF40F64B
:102850009803C4F8C8002046A9F814303989FFF756
:10286000EDFDB98A78812046FFF7E8FD94F8E6206F
:1028700002237882002A20463B83594614BF7C23DA
:1028800000237B8306F01CFF5A4631680123122087
:1028900003F06EF801F04AFCBDF818304FF41662F0
:1028A0001844BA81F88140460DB0BDE8F08F01228E
:1028B0000023C4E91A2362E70123C4E91A335EE75F
:1028C0000DF1180B284602F095FC05AA594601F0B7
:1028D000B5FB01200021DDE90523C4E91601C4E9A7
:1028E00018233FE7002301220DF1180BA365E265D1
:1028F000C4E9183336E700230DF1180BC4E9163389
:10290000C4E918332EE70023C4F89C3075E77289B8
:102910000238012AC4F8A8000AD90222C4E92C32DC
:102920000023C4F8AC308DE77069FFF765FD7DE7E3
:102930000023C4F8B030F3E70DF1180B12E700BF25
:102940005493410038B50139136889B2B3F8DA40BD
:102950008C4204D01846BDE83840FFF74DBD05460F
:1029600018461446FFF748FDB5FBF0F303FB105083
:1029700000B138BD2068BDE83840FFF73DBD00BF5D
:102980008389012B2CD0F0B5466985B0B0F9087069
:102990000446B6F8DA5030460135AAB2B2FBF3F578
:1029A00003FB1525ADB2A6F8DA50FFF725FD00FBB5
:1029B000057504F11402A1896089FFF7C3FF012D99
:1029C00000F1FF330295C6F8E00001930AD001231D
:1029D0008DF80C3001A9206806F038FE05B0F0BD76
:1029E0001846704702380022022301908DF80C200F
:1029F0000293EFE70246002370B552F8145F0446D5
:102A00000E46A5F8DA30A5F8DC3081894089FFF759
:102A100099FF2B46C5F8E0002068D6E9001206F0C1
:102A2000C3F938B9124B0646124A5B6B12499847F4
:102A3000304670BD206806F0FDFD0646A8B1D5F809
:102A4000C030002BF4D02169206802F0A9F80446B8
:102A500058B102F087FF0128EAD9054B0220074A46
:102A600026465B6B04499847E2E70026E0E700BF93
:102A7000A41C43208C924100E8924100A89241009E
:102A800038B504460D464FF492730F4AE8210120F1
:102A900002F038FF6061A8B1284602F099FA206080
:102AA000284602F005FDA073284602F0D5FAB0FAD8
:102AB00080F328465B09E37301F09EFA034B206123
:102AC0000120A36138BD00BF009341002093410065
:102AD0002DE9F04F87B00025B0F80CB09946DDF82D
:102AE00040A01D708AF80050C37B009102930369D7
:102AF0008DF816508DF817500668877B0193BBF14F
:102B0000000F43D00BF1FF330446904603930EE0D1
:102B1000A36920461B6A98472FB1A36930465B6AB8
:102B20009847002837D00135ABB29B452ED9A36911
:102B300027B95B6A3046984768B3A3699B690DF172
:102B4000160201993046984728B39DF816300BB904
:102B500099F80030A0690DF1170289F8003000994A
:102B6000C369204698479DF8173080B20BB99AF890
:102B70000030B8F800208AF800301044029BA8F812
:102B80000000002BC4D0039BAB42C1D1009B18684E
:102B900007B0BDE8F08F002007B0BDE8F08F00BFA0
:102BA000002070470120704743693BB110B50446CF
:102BB000184602F0C5FE0023636110BD704700BFD8
:102BC00038B50D46416900230068B1F884401370A0
:102BD0002968224602F00EF80146620028680BF0D0
:102BE00061FD204638BD00BF70B58AB00C46154661
:102BF000066802F025FE02A9059005A805F0CEFBA7
:102C000018B9002420460AB070BDBDF80A1005AA04
:102C1000BDF80C006B46CDE90561BDF80E10BDF89E
:102C2000106007900891ADF82460D4E9000103F02A
:102C3000B9FD04460028E4D0009906239DF804203D
:102C4000A980EA802B6002F08DFE0128DAD9044BBE
:102C50000220044A5B6B0449984720460AB070BDC5
:102C6000A41C4320E0914100749341000B68062BA3
:102C700070B586B00AD013480621134A446B002071
:102C800000911249A047002006B070BD0C460546D1
:102C900002F0D6FD03A9029002A805F07FFB0028F0
:102CA000F2D0BDF81020BDF81230BDF80E606A6099
:102CB000BDF81410A288AB60E3882E60A981C5E935
:102CC0000423E1E7A41C43204C924100749341008B
:102CD00008B502F0B5FD9FED057A00EE100AC7EECB
:102CE000007AF8FE677A20EE270A08BDF902154F30
:102CF00070B5466904464A6833460968006805F0BD
:102D000001FD38B9114B0546114A5B6B11499847D3
:102D1000284670BD206806F03BF80546A0B1F36F69
:102D2000002BF5D02169206801F03AFF044658B124
:102D300002F018FE0128EBD9044B0220064A254672
:102D40005B6B04499847E3E70025E1E7A41C4320B7
:102D50004495410074934100A89241002DE9F04F41
:102D600080469A4608460E46D8F8143093462DED14
:102D7000068B8DB0069302F0D5FA00286DD130464F
:102D8000B7EE00AA02F034F908EE100A30469FEDC3
:102D9000E19A02F03FF907EE900AF6EE009A78EE1B
:102DA000278AFFF795FF8AEE000A78EE086AB5EEEB
:102DB000C08ABEEE008AF1EE10FA54BFF0EE697AD6
:102DC000F0EE487A20EE090A86EE807A37EE277A0E
:102DD000BDEEC77A17EE103A1DB2FFF779FF8AEE03
:102DE000000A38EEA87AF5EEC08AF1EE10FA58BF64
:102DF000B0EE698A20EE090AC7EE007A77EE887A8B
:102E0000FDEEE77A17EE903A1CB23046B6F82E90F7
:102E100002F022FB631B93FBF0F707FB1037002F38
:102E20000EDCA54224DDBC4B0020BC4A5B6B074690
:102E3000BB49984738460DB0BDEC068BBDE8F08F16
:102E400002F090FD012805D9B34B0220B54A5B6B17
:102E5000B3499847E41B24B2E3E7304602F0B2F9E5
:102E60000546304602F0B6F928442DB204B2CCE74C
:102E7000304602F0A3FA0746002840F05F8115F1C2
:102E80000C0FC0F2CF814FEA4919A9F14B090FFA93
:102E900089F9A14580F25281B7EE00AA07EE904A67
:102EA0009D4BF6EE008AB8EEE79ADFED9A9AD3F8DA
:102EB00034A0FFF70DFFCAEE007A9B4A9B4BF7EE5A
:102EC00000AA67EE897A67EEA97A67EEA87AF5EE2E
:102ED000C07AF1EE10FA4CBF93469B46FFF7F8FE1E
:102EE0008AEE008AFFF7F4FECAEE007AB7EE00AA77
:102EF00028EE098A28EE298A67EE897A28EE288A40
:102F000067EEA97ADFED839A67EEA87AF6EE008A7B
:102F1000F5EEC07ADFED867AF1EE10FA48BFB1EE39
:102F2000488A38EE278AFCEEC87A17EE906AFFF7D7
:102F3000CFFE8AEE008AFFF7CBFECAEE007A9FED45
:102F400075AA28EE098A28EE298A67EE897A28EE82
:102F5000288A67EEA97AF6EE009A67EEA87AF5EE6F
:102F6000C07ADFED737AF1EE10FA48BFB1EE488A0D
:102F700038EE278AFFF7ACFECAEE808AFFF7A8FE7C
:102F80009FED6C7A06EE909ACAEE807AF7EE00AA70
:102F900068EE898A68EE8A8A67EE897A68EEA98A7D
:102FA000B8EEE69A67EE8A7A9FED5AAA67EEA97A9A
:102FB000F7EE009AF5EEC07ADFED5D7AF1EE10FAE9
:102FC00048BFF1EE688A78EEA77AF6EE008AFCEE4A
:102FD000E77AF8EE677A38EE678A68EE077AFCEEF1
:102FE000E77A17EE904AFFF773FEC9EE807A4E4BF0
:102FF0004E4A67EE897A67EE8A7A67EEA87AF5EE2E
:10300000C07AF1EE10FA4CBF98469046FFF760FE8A
:1030100089EE808AFFF75CFEC9EE807ADFED3D9A8B
:1030200028EE098A28EE0A8A67EE897A28EE288A2D
:1030300067EE8A7AB7EE00AA67EEA87AF6EE008A03
:10304000F5EEC07ADFED3A7AF1EE10FA48BFB1EE54
:10305000488A38EE278AFCEEC87A17EE905AFFF7B6
:1030600037FE8AEE008AFFF733FECAEE007A9FED44
:1030700029AA28EE098A28EE298A67EE897A28EE9D
:10308000288A67EEA97AF6EE009A67EEA87AF5EE3E
:10309000C07ADFED277AF1EE10FA48BFB1EE488A28
:1030A00038EE278AFFF714FECAEE808AFFF710FE7B
:1030B0009FED207A5B460020019400961E4ACAEEDE
:1030C000807A1749CDE9028568EE898A68EE8A8A96
:1030D00067EE897A68EEA98A67EE8A7A67EEA97A3E
:1030E000F5EEC07ADFED127AF1EE10FA48BFF1EE9C
:1030F000688A78EEA77AFCEEE77AF8EE677A38EE1F
:10310000678A68EE077AFCEEE77ACDED047AD0475D
:1031100090E600BFC2F38E4DA41C4320BC93410037
:1031200074934100889341007C8B4100F48B4100F3
:10313000BD370635002474492C944100304602F016
:103140008BF9631B02460890304693FBF2F3013380
:103150001FFA83F902F066F919FB00F083B2B3F5A8
:10316000006F07930CD90020E34BE44A07465B6BE2
:10317000E349984738460DB0BDEC068BBDE8F08FAB
:10318000304601F09DFF0746304602F09DF80028CA
:103190003DD12A23562209EB490113FB0727099148
:1031A00009FB07F70337099B9FEDD68A1F44FFF7FA
:1031B0008FFD304620EE088A02F044F907EE900AAF
:1031C000F5EEC07AF1EE10FA40F36B81C8EE276A93
:1031D00007EE907AB8EEE77ADDED097AB6EE006A8E
:1031E00076EEC76AB8EEE77AC6EE877A77EE867A29
:1031F000FDEEE77A17EE903A002B80F2A682BE4BE6
:103200000020C14A5B6B0746BD49984712E609EBAF
:10321000C90303225B000992063307FB03F707F299
:103220000D17C0E7B7EE00AA07EE905AB24BF6EEC4
:10323000008AB8EEE79ADFEDBA9AD3F83490FFF738
:1032400047FDCAEE007AB14AB14BF7EE00AA67EE2D
:10325000897A67EEA97A67EEA87AF5EEC07AF1EE80
:1032600010FA4CBF92469A46FFF732FD8AEE008A6A
:10327000FFF72EFDCAEE007AB7EE00AA28EE098A03
:1032800028EE298A67EE897A28EE288A67EEA97ADD
:10329000DFEDA39A67EEA87AF6EE008AF5EEC07A23
:1032A000DFED9C7AF1EE10FA48BFB1EE488A38EEB5
:1032B000278AFCEEC87A17EE906AFFF709FD8AEEBE
:1032C000008AFFF705FDCAEE007A9FED95AA28EE69
:1032D000098A28EE298A67EE897A28EE288A67EE1D
:1032E000A97AF6EE009A67EEA87AF5EEC07ADFEDDD
:1032F000897AF1EE10FA48BFB1EE488A38EE278A93
:10330000FFF7E6FCCAEE808AFFF7E2FC9FED827AC7
:10331000CAEE807AF7EE00AA68EE898A68EE8A8A99
:1033200067EE897A68EEA98ABAEE089A67EE8A7A19
:103330009FED7BAA67EEA97AF7EE009AF5EEC07AC8
:10334000DFED747AF1EE10FA48BFF1EE688A78EE9C
:10335000A77AF6EE008AFCEEE77AF8EE677A38EEA6
:10336000678A68EE077AFCEEE77A17EE904AFFF775
:10337000AFFCC9EE807A654B654A67EE897A67EEE5
:103380008A7A67EEA87AF5EEC07AF1EE10FA4CBFB1
:1033900098469046FFF79CFC89EE808AFFF798FCE0
:1033A000C9EE807AFAEE089A28EE098A28EE0A8A8F
:1033B00067EE897A9FED5A9A28EE288A67EE8A7A14
:1033C000B7EE00AA67EEA87AF6EE008AF5EEC07AAC
:1033D000DFED507AF1EE10FA48BFB1EE488A38EED0
:1033E000278AFCEEC87A17EE905AFFF771FC8AEE36
:1033F000008AFFF76DFCCAEE007ABAEE08AA28EE42
:10340000298A28EE098A67EEA97ADFED459A28EE27
:10341000288A67EE897AB6EE009A67EEA87AF5EE0A
:10342000C07ADFED3C7AF1EE10FA48BFB1EE488A7F
:1034300038EE278AFFF74CFCCAEE808AFFF748FC7B
:103440009FED357A5346002001940096334ACAEE28
:10345000807A2B49CDE9028568EE8A8A68EEA98ACE
:1034600067EE8A7A68EE898A67EEA97A67EE897ACA
:10347000F5EEC07ADFED277AF1EE10FA48BFF1EEF3
:10348000688A78EEA77AFCEEE77AF8EE677A38EE8B
:10349000678A68EE077AFCEEE77ACDED047AC847D2
:1034A000C8E40023069A07EE907A07980127A2F84D
:1034B0008630F8EE677AF38DA2F884003046A8F8DB
:1034C0000430C8EE279AA8F80C70A8F80850A8F89D
:1034D0000A9001F0F9FE069A002808BF002730463E
:1034E00082F8707001F07EFE032800F24581DFE86B
:1034F00000F0564C371900BFA41C43206C944100C7
:10350000749341000000003DCC9441007C8B41004D
:10351000F48B4100BD37063500247449EC9341001B
:10352000C2F38E4D0BAB30461F46099301F062FE8D
:103530000AAA394600F082FD06980123DDE90A1245
:1035400043628362C1620263304601F085FD042854
:1035500033D8DFE810F0EC00EC00F300EA002D00B7
:103560000BAB30461F46099301F044FE0AAA3946C8
:1035700000F064FD069F01204FF0000CDDE90A23F6
:10358000C7E9090CFA623B63DEE7002306990122D2
:103590004B62CB620B630BAB8A620993D4E70BAA35
:1035A00000230992069AC2E90933D3621363CBE779
:1035B0000123069A53639363D3630127304601F0D6
:1035C0005BFD069980EA07033046DBB20B6401F02D
:1035D00065FD80EA0703069A3046DBB297645364C0
:1035E00001F06EFDB84240F2BD80069A0238D76401
:1035F00010653046B7EE008A01F022FE069F1FEDEF
:10360000389AF6EE008A7865304601F029FEB865F2
:10361000304601F035FEF865304601F003FF3866AC
:10362000304601F019FFB86730463E4601F040FFD2
:10363000B8F80A30D8F8141080F00102013BB8F84D
:103640000400B1F88610D2B2C7E91903B8F90830FE
:10365000FA6779670127F36602F0F2F8C6F880008E
:10366000FFF736FB88EE000ADDED087ACBED049A11
:10367000F8EE677A67EE807ACBED037AFFF728FBE6
:1036800088EE000A07EE905A0025F8EEE77A67EE1A
:10369000807A67EE897A67EEA87ACBED007AFFF739
:1036A00017FB88EE000A07EE904A9BED007A079E12
:1036B0004FF00104D8F800103B46ABF8166012201A
:1036C000F8EEE77AABF81450ABF81840099AADF869
:1036D0002C5067EE807A67EE897A67EEA87A37EE2B
:1036E000C77ACBED027A8BED017AAAF80250AAF8DC
:1036F0000640AAF81040AAF81850AAF80A60AAF8DA
:103700000060AAF80890AAF80460AAF81490AAF831
:10371000169002F02DF900F009FD4FF48073AAF81D
:103720000E00AAF80C30FFF785BB002341E706998D
:10373000012300224B638B63CA633EE70699002393
:1037400001228B634A63CB6337E74FF6FE729342E5
:103750000DDD0B4B00200B4A5B6B07460A4998476F
:10376000FFF768BB0023069AD364136541E7099A03
:1037700002FB03779BB295E60BAB0993E4E600BF2F
:10378000A41C4320F09441007493410038B50446D2
:103790000D4640F20F130F4A8821012002F0B2F8C3
:1037A0006061A8B1284601F013FC2060284601F0B2
:1037B0007FFEA073284601F04FFCB0FA80F3284644
:1037C0005B09E37300F018FC034B20610120A36147
:1037D00038BD00BF589341001095410008B52DED4C
:1037E000028B08EE100A02F02BF89FED0A6A07EE32
:1037F000900AF7EE006A86EE277AB8EE488AB8FE9D
:10380000477A67EE877A86EEA70A80EE080ABDEC53
:10381000028B08BDF902154F2DE9F04F2DED068BF7
:1038200089B08A46914606460693189F9DF864B073
:10383000BDF9668001F076FD002840F083803046B7
:10384000DFEDE48A01F0D4FB09EE100A3046BEEE4B
:10385000008A01F0DFFB07EE900A384679EE279ADE
:10386000FFF7BCFF39EE097A384620EE280AB5EE9C
:10387000C09AB6EE009AC7EE007AF1EE10FA54BF85
:10388000B0EE497AB0EE487A77EE877AFDEEE77AC5
:1038900017EE905AFFF7A2FF39EEA97A20EE280A18
:1038A000F5EEC09AC7EE007AF1EE10FA58BFB0EE0E
:1038B000498A18F10B0F37EE888AFDEEC87A17EEA9
:1038C000904A4BDBBBF1000F48D0C346F38D304626
:1038D000079301F0C1FD0128804609D9022823D0B1
:1038E000631B93FBF8F208FB1238B8F1000F0EDCF3
:1038F000AC4236DAB84B0020B84A5B6B8046B84918
:103900009847404609B0BDEC068BBDE8F08F02F049
:1039100029F8012805D9B04B0220B24A5B6BB049A7
:103920009847A4EB0804E3E7EB07D9D402F01AF8B0
:10393000012805D9A84B4046AB4A5B6BA84998477C
:103940000135CDE7304601F03DFC0546304601F03B
:1039500041FC18F10B0F05EB0004B3DA6FF00B0B11
:10396000B4E7304601F02AFD8046002840F0488147
:103970000BFB07FBAB4500F30F82079B4FEA431B92
:10398000ABF14B0B07FB0BFBA34580F2398107EE34
:10399000904A914B3846DFED8F9AB8EEE79AD3F80C
:1039A0003490FFF71BFFF6EE008A904A384669EE26
:1039B000007A8F4B9FED87AA67EEA97A67EEA87A07
:1039C000F5EEC07AF1EE10FA4CBF92469A46FFF738
:1039D00005FF384629EE008AFFF700FF69EE007AFE
:1039E000384628EE298A67EEA97ADFED7A9A28EE22
:1039F000288A67EEA87AF6EE008AF5EEC07ADFED47
:103A00007D7AF1EE10FA48BFB1EE488A38EE278A87
:103A1000FCEEC87A17EE906AFFF7E0FE384629EE12
:103A2000008AFFF7DBFE69EE007A384628EE298A25
:103A300067EEA97AF6EE009A28EE288A67EEA87A51
:103A4000F5EEC07ADFED6B7AF1EE10FA48BFB1EE19
:103A5000488A38EE278AFFF7C1FE384669EE008AA9
:103A6000FFF7BCFE69EE007A07EE10BA384668EE42
:103A70008A8A67EE8A7A9FED57AAB8EEC79A9FEDB9
:103A80005E7A68EEA98A67EEA97ADFED529AF5EEC2
:103A9000C07ADFED587AF1EE10FA48BFF1EE688A8D
:103AA00078EEA77AF6EE008AFCEEE77AF8EE677A0F
:103AB00038EE678A68EE077AFCEEE77A17EE904AEE
:103AC000FFF78CFE69EE007A484B494A384667EEAC
:103AD000A97A67EEA87AF5EEC07AF1EE10FA4CBF3B
:103AE0009B469346FFF77AFE384629EE008AFFF799
:103AF00075FE69EE007A384628EE298A67EEA97AC3
:103B0000DFED349A28EE288A67EEA87AF6EE008A6E
:103B1000F5EEC07ADFED377AF1EE10FA48BFB1EE7C
:103B2000488A38EE278AFCEEC87A17EE905AFFF7DB
:103B300055FE384629EE008AFFF750FE69EE007AFE
:103B4000384628EE298A67EEA97AF6EE009A28EE22
:103B5000288A67EEA87AF5EEC07ADFED267AF1EED4
:103B600010FA48BFB1EE488A38EE278AFFF736FED2
:103B7000384669EE008AFFF731FE69EE007A534657
:103B80009FED1D7A68EE8A8A002067EE8A7A1B4ACA
:103B9000019468EEA98A009667EEA97ACDE902B58C
:103BA000F5EEC07ADFED137AF1EE10FA48BFF1EED0
:103BB000688A78EEA77AFCEEE77AF8EE677A084929
:103BC00038EE678A68EE077AFCEEE77ACDED047A84
:103BD000C84796E6C2F38E4DA41C4320BC93410017
:103BE0009C95410088934100649541007C8B410085
:103BF000F48B4100BD370635002474492C944100F4
:103C0000304601F029FCF18D0246E30FE80FA9F8D8
:103C100000109C4623440146284493FBF7F390FB95
:103C2000F7F0A3EB0C03401A95FBF2F1013302FB12
:103C30001151A9F804001B1A11441FFA83FC1A9BA6
:103C400091FBF2F0BCFBF3FB02FB10111FFA8BF0AF
:103C500003FB1BCBA9F806C0A9F80210BBF1000FAB
:103C600000D00130A9F808003046079201F0F4F9BD
:103C70008046304601F0B6FA079AB8F1040318BF3F
:103C80000123012818BF0023184698467BB9B9F8CC
:103C900006301A998B420AD9CB4BCC4A5B6BCC4984
:103CA0009847404609B0BDEC068BBDE8F08F38461A
:103CB0000792FFF793FD079A3846DFEDC68A07EEB5
:103CC000902AB6EE008AF8EE677A27EE800A8AED2F
:103CD000030AFFF783FD07EE905A3846F8EEE77ABD
:103CE00067EE807A67EEA87A67EE887ACAED007A86
:103CF000FFF774FD07EE904A631B079AF8EEE77A28
:103D0000B9F806109AED007A01FB07F4B9F808003B
:103D100027EE800AAAF8180095FBF7F607FB165560
:103D200020EE280A3D4420EE080A95FBF7F693FBA7
:103D3000F2F307FB1655013330EE477A8AED020A9B
:103D40009BB295FBF2F5B4FBF2F4B7FBF2F7069ADF
:103D5000AAF816308AED017A93801A9B11818B4262
:103D6000108255801480D78010D29BB29382BBF111
:103D7000000F06D01A9B1A9AB1FBF3F302FB131142
:103D80008BB2069AD38201239846BAE5012398465E
:103D9000069B9982D982B4E507EE905A8A4B384641
:103DA000DFED8C9AF8EEE78AD3F83490FFF716FD32
:103DB000B6EE009A884A384668EE807A874B9FEDC7
:103DC00085AA67EEA97A67EE897AF5EEC07AF1EEF8
:103DD00010FA4CBF92469A46FFF700FD384628EE8F
:103DE000808AFFF7FBFC68EE807A384628EE298A45
:103DF00067EEA97ADFED779A28EE098A67EE897A6D
:103E0000B6EE009AF5EEC07ADFED757AF1EE10FAB3
:103E100048BFB1EE488A38EE278AFCEEC87A17EE22
:103E2000906AFFF7DBFC384628EE808AFFF7D6FC65
:103E300068EE807A384628EE298A67EEA97A28EE5D
:103E4000098A67EE897AB6EE009AF5EEC07ADFED60
:103E5000647AF1EE10FA48BFB1EE488A38EE278A4C
:103E6000FFF7BCFC384668EE809AFFF7B7FC68EEB7
:103E7000807A07EE10BA384669EE8A9A67EE8A7A37
:103E80009FED54AAF6EE008A69EE899A67EE897A68
:103E9000B8EEC79A9FED537AF5EEC07ADFED507A0F
:103EA000F1EE10FA48BFF1EE699A79EEA77ADFEDEC
:103EB000499AFCEEE77AF8EE677A38EE678A68EEA0
:103EC000077AFCEEE77A17EE904AFFF787FC69EE77
:103ED000007A414B414A384667EEA97A67EEA87AE4
:103EE000F5EEC07AF1EE10FA4CBF9B469346FFF711
:103EF00075FC384629EE008AFFF770FC69EE007AFF
:103F0000384628EE298A67EEA97ADFED329A28EE44
:103F1000288A67EEA87AF6EE008AF5EEC07ADFED21
:103F2000307AF1EE10FA48BFB1EE488A38EE278AAF
:103F3000FCEEC87A17EE905AFFF750FC384629EE8F
:103F4000008AFFF74BFC69EE007A384628EE298A92
:103F500067EEA97AF6EE009A28EE288A67EEA87A2C
:103F6000F5EEC07ADFED1E7AF1EE10FA48BFB1EE41
:103F7000488A38EE278AFFF731FC384669EE008A16
:103F8000FFF72CFC69EE007A53469FED167A68EE37
:103F90008A8A002067EE8A7A0194009668EEA98AE0
:103FA000114A67EEA97ACDE902B5F5EEC07ADFEDE8
:103FB0000C7AF1EE10FA48BFF1EE688A78EEA77A33
:103FC000FCEEE77AF9E500BFA41C4320BC95410054
:103FD0009C954100C2F38E4D7C8B4100F48B4100D7
:103FE000BD37063500247449EC934100008901284F
:103FF00094BF00200120704710B582B0044601F044
:10400000F1F8012811D0204601F0F4F89FED0A7A6A
:1040100007EE900AC7EE277A77EE877AFCEEE77A0A
:10402000CDED017A019802B010BD4FF4FA6301930F
:10403000019802B010BD00BF0000FA4438B52DED64
:10404000028B154608EE100A0C4601F0F9FB07EE4C
:10405000900AC7EE887ABDEC028BFCEEE77A17EE89
:10406000903A1A0C9BB22A60236038BD2DE9F04FBC
:1040700087B01F461646009003919DF8404001F01E
:10408000E5FB0023ADF814300493002F48D09C4288
:1040900002934FEA5000039C14BF4FF4E0434FF4E7
:1040A0000043A0F1030A1BB201932CE0019B1FFA0D
:1040B00085F905F1030B214643EA060009F1FF3CAF
:1040C000029B4FEA4B089CFA9CFC40BA4246A380F4
:1040D0002080A8F10608A4F802C04E44009801F020
:1040E000E5FB20465946B6B201F08AFC0498BDF8BB
:1040F00014207F1B2060A28044442068A288049082
:10410000ADF814200CD0BA45554628BF3D46BA45F7
:10411000CCD2CBD0EB07C9D5013DEB07FCD4C5E72A
:104120000398063007B0BDE8F08F00BF032070474A
:1041300010B541F4A04382B014BA06225BBA6946B6
:10414000CDF80240ADF8003001F0B0FB02B010BD78
:1041500038B51C4610601960154601F077FB2168E0
:10416000884202D201F072FB01462B680239023309
:1041700021F003012B60216038BD00BF2DE9F04123
:104180009C1C07460D46164601F060FBA04207D274
:10419000094B0020094A5B6B0949BDE8F04118470B
:1041A00045F4A0452246314638466DBA3580BDE813
:1041B000F04101F07BBB00BFA41C4320E895410007
:1041C000089641000331B0EB410F2CBF01200020C5
:1041D000704700BF10B5002482B00094FFF746FF7F
:1041E00002B010BD70B505690446284601F034FBE5
:1041F0000A4905EBC503226B0968201DDB00483B1B
:10420000194400F0E7FD064618B101233046E3707B
:1042100070BD284601F026FB304670BD4C10402092
:1042200038B5034604301D6900F0F8FD044630B986
:10423000054B064A5B6B06499847204638BD284621
:1042400001F016FBF9E700BFA41C4320449641008F
:10425000649641002DE9F84300EBC004DFF88C8040
:104260004FF0000C0E46E400D8F800300546174623
:10427000483C234483F841C001F0EEFA304600F098
:104280008BFD60B915492B46154A81464C6B154983
:10429000A047284601F0E6FA4846BDE8F8832946DB
:1042A0000A2001F097FBD8F8002039463046224416
:1042B00000F076FD814650B908492B460A4A4C6BFE
:1042C0000849A04729460B2001F084FBE1E7D8F814
:1042D000003001221C4484F84120F3E7A41C432051
:1042E0007496410064964100B09641004C10402005
:1042F000F8B5184E34780CB12046F8BD01F09AFAA2
:10430000154F00EBC0004FF496721449C00001F045
:10431000D3FA38600028EFD0254609E03B6803EB6C
:10432000C00318460AF022FA80F8415080F8405045
:1043300001F080FAA0424FF0480204EBC4004FF0B5
:10434000000104F10104E9D801231C463370204622
:10435000F8BD00BF461040204C1040202C96410074
:1043600010B5054C237803B910BD044B186801F053
:10437000E7FA0023237010BD461040204C10402067
:104380002DE9F04745781E462DB100233370737038
:104390002846BDE8F087DFF8E0C004460F469046A7
:1043A000DCF800C0D0F810A0BCF1000F14D0DCF88D
:1043B0000C90B9F1000F0FD0C8470028E8D06578FD
:1043C000002DE5D1012543463A465146012001F032
:1043D000CFFA2846BDE8F08700233370737094F855
:1043E0000090B9F1020F24D0B9F1010F27D0216B51
:1043F000201D00F01DFD436843B91B4918461B4AA8
:104400004B6B1B4998472846BDE8F087BB4225D136
:10441000438843451DD10278B9F1020F43783270C9
:10442000737010D0B9F1010FC9D12046FFF7F8FE23
:10443000C5E72046FFF7D6FE0028D8D1A8E75046AA
:1044400001F01EFAD3E7504601F00CFA0023E370A6
:10445000B5E74FF4C571074800F08CFD40F28911B3
:10446000044800F087FD00BFA41C432014964100BF
:10447000649641002C964100481040202DE9F843F5
:10448000061D914605462C220C46304600211F464B
:104490000AF06CF91C4B4A4630461B686BB3D3F8E4
:1044A0000080B8F1000F28D03B462146C0470646A1
:1044B000204600F0D1FDE8B1042818D000232B706D
:1044C000204600F08FFEB0FA80F320465B096B7047
:1044D00000F0EEFFA870204600F07AFD3A46014653
:1044E0001C23042001F05EFA3046BDE8F883012366
:1044F0002B70E5E702232B70E2E73B46214600F0F4
:10450000ABFB0646D4E700BF481040202DE9F84F2A
:104510000C46804608461D46164600F059FD0746E3
:10452000204600F0BDFF304B81461968B9B14B6899
:10453000ABB12A46204631469847054610B9284671
:10454000BDE8F88FB9F1000F19D10125324639467F
:1045500020230D2001F026FA2846BDE8F88FDFF869
:104560008CA007EBC702C8F83050DAF8003003EB34
:10457000C20313F8073C4BB3B9F1000F02D0A6F801
:104580001490E2E7204600F079FF0028DDD0D8F84B
:10459000104008F10409204601F05EF9DAF80050F5
:1045A00004EBC401D8F83020484606F11403C900D2
:1045B0004839294400F0F8FB0546204601F052F93D
:1045C000002DC2D1484600F0DFFBB8E708F1040B2C
:1045D0002A4638465946FFF73DFE05460028CBD10E
:1045E000584600F0D1FBAAE7481040204C1040206C
:1045F0001A4B1B6870B5044623B19B6813B1BDE824
:10460000704018472378022B08D02046FFF7EAFDB8
:1046100088B1A3782BB12378012B0FD00125284630
:1046200070BD251D284600F0FFFB20B1284600F094
:10463000E3FB0028EFD10025284670BD251D284644
:1046400000F0DAFB0028F6D0284600F0EDFB054626
:104650000028F0D02046FFF7E3FDE0E748104020B7
:10466000C37803B9704710B50446006901F0FAF841
:104670000023E37010BD00BF036973B103EBC303F4
:10468000064ADB001268483B134493F840200AB9FD
:1046900083F84120043000F077BB70474C10402075
:1046A0000069704770B50C4684B0114605461A463D
:1046B0002046089B04AEFFF74BFD002328462A2125
:1046C00026F8023D324605F02BF9BDF80E305B06A8
:1046D00019D40024324611212846ADF80E4005F0C9
:1046E0001FF9BDF80E3013F480661AD015492B4619
:1046F000154A20464E6B1549B047284605F06CFA1E
:10470000204604B070BD01F02DF930B10D492B46A3
:104710000F4A01204C6B0D49A047284605F05CFA72
:10472000D7E701248023022228462146009405F081
:1047300009F98023284600961A46072105F002F958
:104740002046DEE7A41C4320C0984100B0984100F9
:1047500084984100F0B583B000240F46112102AACD
:10476000064622F8024D05F0DBF8BDF8060010F40D
:1047700080650CD013493346134A20464D6B1349CC
:10478000A847304605F028FA204603B0F0BDB7F53B
:10479000806F09D30B4928463B460D4A4C6B0B49A9
:1047A000A047284603B0F0BD2A461021304605F048
:1047B000B9F8304647F48062102105F0B3F80120C3
:1047C000E3E700BFA41C4320F0984100B0984100EB
:1047D0002099410030B583B000231121054602AA7B
:1047E00022F8023D05F09CF8BDF8060010F4806444
:1047F0000BD1094B2046094A5B6B0949984728466B
:1048000005F0EAF9204603B030BD284601227421A4
:1048100005F088F80120F6E7A41C43205C994100CC
:10482000B09841000022742105F07CB800B583B037
:104830000023112102AA22F8023D05F071F8BDF80B
:104840000600C0F3802003B05DF804FB70B582B0B1
:1048500000233821054602AA22F8023D05F060F83F
:10486000BDF8064064B908492B46084A20464E6BFD
:104870000749B047284605F0AFF9204602B070BDA1
:10488000012002B070BD00BFA41C432088974100E6
:10489000B098410070B50C4684B041B92B4B084626
:1048A0002B4A5B6B2B499847204604B070BD0DF135
:1048B0000E022821054605F033F8BDF80E20D3B2CC
:1048C000628023700B2B2CD8DFE803F02308060648
:1048D00006060606060606060120E6E7120A102A64
:1048E00029D801261C48D1B206FA02F2104010B3B2
:1048F0004A1E164BD2B25E6B202A22D9174B184A99
:1049000000201449B047284605F066F9002004B09D
:1049100070BD0E492B46134A00204C6B0D49A04731
:10492000F1E70A4A002000950A49566B0E4AB04743
:1049300000232370E7E7054943F4045320224E6B1C
:1049400063800A4B53F82230D9E700BFA41C4320F0
:10495000FC974100B098410016000100EC9741001F
:10496000349841001098410054984100D496410079
:104970002DE9F04F87B004460F4602F1010A02927A
:1049800000250393DFF8A0B0DFF8B090DFF8A08037
:1049900014E022F8023D204604F0C2FFBDF81630B4
:1049A0005B0630D400F0DEFF23464A46414618B18C
:1049B000DBF834600120B047AA4517D039462046BD
:1049C00000F06EFF0135064606AA00232A210028C2
:1049D000DFD115492346154A4D6B1549A847204696
:1049E00005F0FAF8304607B0BDE8F08F00200E4A17
:1049F00000940646546B029B0E4A0D49A047304670
:104A000007B0BDE8F08F03992046FFF743FF064645
:104A10000028E7D104492346074A4C6B0449A047C4
:104A2000304607B0BDE8F08FA41C432090994100A8
:104A3000B0984100DC994100189A4100B8994100B2
:104A400070B584B014461D46642203AB0646FFF7DA
:104A50008FFF68B19DF80C30A3420BD0084A0020AC
:104A60000849CDE90034084B546B084AA0470020A0
:104A700004B070BD002DFBD03046FFF7E7FEF7E72E
:104A8000A41C4320B098410058974100A49A4100CB
:104A900001230B22FFF7D4BF30B583B00D46044687
:104AA000FFF798FE10B9002003B030BD2046FFF795
:104AB000CDFE0028F7D0294601AB64222046FFF73F
:104AC00057FF0028EFD02046FFF7C0FE0028EAD0AD
:104AD0009DF80430022BE7D0054A0020BDF80630CF
:104AE000556B0449044AA847204605F075F8DAE7F3
:104AF000A41C4320B09841003C99410070B584B09B
:104B000016466422054603ABFFF732FF044670B138
:104B10009DF80C30BDF80E20062B0BD01B49002051
:104B200000922B461A4A04464D6B1A49A847204664
:104B300004B070BD1005F1D512F4806316D00123C6
:104B400029460E20337000F045FFBDF80E20D10538
:104B50000ED49305EBD500F005FF0328E7D90B4BE6
:104B600004200D4A5B6B0B499847E0E73370EEE792
:104B700000F0F8FE032805D9044B0420074A5B6BBC
:104B800004499847BDF80E20E3E700BFA41C43206A
:104B9000409A4100B09841008C9A4100709A4100BF
:104BA00030B585B06422054603ABFFF7E1FE04464D
:104BB00040B90C492B460C4A4D6B0C49A84720467E
:104BC00005B030BDBDF80E30062BF8D00024054AE4
:104BD00000932B462046556B0449054AA8472046BA
:104BE00005B030BDA41C4320D09A4100B0984100CC
:104BF000049B410070B51546064600222B46FFF780
:104C0000E9FA044602462B463146002000F0B0FE89
:104C1000204670BD30B585B0002404AA214622F894
:104C2000024D04F07DFEBDF80E2041F212139A42AF
:104C300009D0064920460092054A4D6B0549A84710
:104C4000204605B030BD0120FBE700BFA41C432077
:104C5000BC974100B09841002DE9F0470C4692B056
:104C6000804608469246994600F0B2F9054620462D
:104C700008F10C0700F004FBADF80400204600F03A
:104C8000EFFAADF80600204600F00CFBADF8080086
:104C9000204600F003FA04232946ADF80A000DEB84
:104CA0000302112000F064FE20220021384609F0A2
:104CB0005DFD38462368214698470646D8B1202234
:104CC00000210AA8002509F051FDD8F824600495B8
:104CD0000AAA039503AB059521463846CDE906554A
:104CE000CDE908553568A847064640B9D8F82430BC
:104CF00038461B6B9847304612B0BDE8F087BAF1D2
:104D0000000F07D00AAD0FCDAAE80F0095E80F00FD
:104D10008AE80F00B9F1000F10D003AD0FCDC9F82C
:104D20000000C9F80410C9F80820C9F80C3007CDF4
:104D3000C9F81000C9F81410C9F81820204600F06E
:104D400051FA01281BD0204600F054FA9FED0D7A4D
:104D500007EE900AC7EE277A77EE877AFCEEE77ABD
:104D600017EE903A00223046C8F80030C8F8082004
:104D7000A8F8062088F8042012B0BDE8F0874FF4A8
:104D8000FA63EFE70000FA4420B1436A13B11B6BEA
:104D90000C301847704700BF436AC0685B6818470B
:104DA000436A0C30DB6818472DE9F041456A044638
:104DB00000F10C06006AAD6817469846A84738B15E
:104DC000636A4246394630461B69BDE8F0411847E0
:104DD000BDE8F08170B504461546D0E908039B682C
:104DE000984738B1636A294604F10C005B69BDE855
:104DF0007040184770BD00BF10B582B00021436AF3
:104E0000044602AA9B6902F8011D0168C068984720
:104E100010B19DF80730237102B010BD436A0168DC
:104E2000DB6AC068184700BF436AC0685B6A1847FE
:104E3000F0B5002383B0051D466A471D0446436054
:104E4000821D83602B4600970C30B66AB047A06085
:104E5000284603B0F0BD00BFB2F5004FF8B540D111
:104E600061B34E0004460025871934F8022BA2F5E1
:104E70000042A7421544F8D1002D4FEA5102A0F19B
:104E80000200ACBF01244FF0FF3404FB025595FB38
:104E9000F1F10CB2002C15DD89B20025064402E0C8
:104EA0008642058007D030F8022F8A42F8D3521A82
:104EB00086420280F7D103B11C80F8BD002BFCD0E4
:104EC0001980F8BD4FF6FF750644671902E00580AA
:104ED000B042F0D030F8022FBA42F8DC521A028009
:104EE000F6E71921014800F045F800BFEC9B4100AE
:104EF0002DE9F047002A14BF17460F46C1B1994665
:104F000080460E468A463D460024611908EB44005F
:104F10003C444A46B142C8BF55460023A4B2294684
:104F2000FFF79AFFAAEB0702A6421FFA82FAECD813
:104F3000BDE8F08701FB02F10139012918D970B4ED
:104F400001252B4602FB03F3B3FBF1F401FB143301
:104F5000AB42F7D307D030F8154030F8136020F893
:104F6000156020F813400135A942EAD170BC7047A2
:104F7000704700BF00B5074A83B003460020009188
:104F80000549546B054AA047054B1B6803B1984778
:104F9000FEE700BFA41C4320249C41000C9C410060
:104FA0005010402008B10120704710B5044600F0B1
:104FB000D9FC30B1034B0120034A5B6B034998478E
:104FC000204610BDA41C43202C9E4100489E410059
:104FD00010B50446FFF7E6FF00B1E06810BD00BF62
:104FE00038B50D460446FFF7DDFF00B1E56038BD7A
:104FF00010B50446FFF7D6FF08B1606A10BD002067
:1050000010BD00BF38B50D460446FFF7CBFF00B119
:10501000656238BD10B50446FFF7C4FF08B1A06A49
:1050200010BD002010BD00BF38B50D460446FFF787
:10503000B9FF00B1A56238BD10B50446FFF7B2FF55
:1050400008B10023237110BD10B50446FFF7AAFF75
:1050500008B10123237110BD10B50446FFF7A2FF6C
:1050600000B1606B10BD00BF38B50D460446FFF7B8
:1050700099FF00B1656338BD10B50446FFF792FF94
:1050800008B194F8450010BD38B50D460446FFF749
:1050900089FF08B184F8455038BD00BF10B50446FB
:1050A000FFF780FF08B194F8460010BD38B50D46F3
:1050B0000446FFF777FF08B184F8465038BD00BFBB
:1050C00010B50446FFF76EFF08B194F8380010BD24
:1050D00038B50D460446FFF765FF00B1258738BD9A
:1050E00038B50D460446FFF75DFF00B1256038BDB9
:1050F00010B50446FFF756FF08B1206910BD002027
:1051000010BD00BF38B50D460446FFF74BFF00B198
:10511000256138BD38B50D460446FFF743FF18B189
:105120000DB163692B60207E38BD00BF70B50E469F
:1051300015460446FFF736FF08B16661257670BD57
:1051400010B50446FFF72EFF00B1607E10BD00BF12
:1051500038B50D460446FFF725FF00B1657638BD2A
:1051600010B50446FFF71EFF00B1608B10BD00BFF5
:1051700038B50D460446FFF715FF00B1658338BD0D
:1051800010B50446FFF70EFF00B1207F10BD00BF31
:1051900038B50D460446FFF705FF00B1257738BD49
:1051A00010B50446FFF7FEFE08B1206A10BD0020CE
:1051B00010BD00BF38B50D460446FFF7F3FE00B141
:1051C000256238BD10B50446FFF7ECFE08B1B4F90E
:1051D000300010BD10B50446FFF7E4FE08B1B4F985
:1051E000320010BD10B50446FFF7DCFE00B1207997
:1051F00010BD00BF10B50446FFF7D4FE40B12379BF
:10520000032B05D8DFE803F006060202A06810BDF4
:10521000024810BD4FF0FF4010BD00BF0000C07F2E
:1052200010B50446FFF7BEFE00B1608F10BD00BF91
:1052300038B50D460446FFF7B5FE00B1658738BDA9
:1052400010B50446FFF7AEFE00B1A08F10BD00BF41
:1052500038B50D460446FFF7A5FE00B1A58738BD59
:1052600010B50446FFF79EFE00B1E08F10BD00BFF1
:1052700038B50D460446FFF795FE00B1E58738BD09
:1052800010B50446FFF78EFE08B1B4F8400010BD1B
:1052900038B50D460446FFF785FE08B1A4F8405026
:1052A00038BD00BF10B50446FFF77CFE08B1B4F866
:1052B000420010BD38B50D460446FFF773FE08B135
:1052C000A4F8425038BD00BF10B50446FFF76AFE8F
:1052D00008B194F8620010BD38B50D460446FFF7DA
:1052E00061FE08B184F8625038BD00BF38B50D4684
:1052F0000446FFF757FE08B184F8445038BD00BF9C
:1053000010B50446FFF74EFE08B194F8440010BDF6
:1053100038B50D460446FFF745FE08B184F82C5019
:1053200038BD00BF10B50446FFF73CFE08B194F845
:105330002C0010BD38B50D460446FFF733FE08B10A
:1053400084F8525038BD00BF10B50446FFF72AFE5E
:1053500008B194F8520010BD38B50D460446FFF769
:1053600021FE08B1A4F8505038BD00BF10B5044666
:10537000FFF718FE08B1B4F8500010BD38B50D465F
:105380000446FFF70FFE00B1E58538BD10B50446B1
:10539000FFF708FE08B194F8630010BD10B504468D
:1053A000FFF700FE08B194F8640010BD10B5044684
:1053B000FFF7F8FD08B194F8650010BD10B504467C
:1053C000FFF7F0FD08B194F8660010BDF8B50F4680
:1053D00016461D460446FFF7E5FD28B184F85470D3
:1053E000A4F85660A4F85850F8BD00BF70B50E463A
:1053F00015460446FFF7D6FD48B116B1B4F856304D
:10540000338015B1B4F858302B8094F8540070BD37
:1054100038B50D460446FFF7C5FD08B1A4F85A504B
:1054200038BD00BF10B50446FFF7BCFD08B1B4F8A5
:105430005A0010BD38B50D460446FFF7B3FD00B164
:10544000E56538BD10B50446FFF7ACFD08B1E06D69
:1054500010BD002010BD00BF10B50446FFF7A2FD2F
:1054600008B1B4F8600010BD38B50D460446FFF72A
:1054700099FD08B1A4F8605038BD00BF10B50446CE
:10548000FFF790FD08B194F8470010BD38B50D4600
:105490000446FFF787FD08B184F8475038BD00BFC8
:1054A00010B50446FFF77EFD08B1B4F84A0010BD00
:1054B00010B50446FFF776FD08B194F84C0010BD16
:1054C00038B50D460446FFF76DFD08B184F84C5021
:1054D00038BD00BF10B50446FFF764FD08B1B4F84D
:1054E0004E0010BD38B50D460446FFF75BFD08B110
:1054F000A4F84E5038BD00BF10B50446FFF752FD6A
:1055000008B194F8480010BD38B50D460446FFF7C1
:1055100049FD08B184F8485038BD00BF2DE9F04F6F
:1055200093B0044600F01EFA01286DD95F4B204667
:10553000D3F834B0FFF736FD002868D18246204604
:10554000FFF730FD002869D094F8383020460F93DB
:10555000FFF728FD002867D0638F20460E93FFF7E2
:1055600021FD002866D02046A58FFFF71BFD0028EF
:1055700066D02046E68FFFF715FD002866D020464E
:10558000B4F84070FFF70EFD002865D02046B4F84F
:105590004280FFF707FD002864D0636B042B7FD99E
:1055A000434B20461193FFF7FDFC002861D1414B8E
:1055B00020460D93FFF7F6FC002869D0204694F8AA
:1055C0004590FFF7EFFC002868D0B4F85A20204639
:1055D0001092FFF7E7FC109A08B194F84600099280
:1055E00053460D9A0A9002200792119ACDF8209006
:1055F00002953149CDE905820E9A01920F9ACDE9C3
:10560000036700922D4AD84713B0BDE8F08F2046BB
:10561000D4F80CA0FFF7C6FC002895D10F902046C7
:10562000FFF7C0FC002897D10E902046FFF7BAFC88
:10563000002898D105462046FFF7B4FC002898D1F1
:1056400006462046FFF7AEFC002898D107462046C4
:10565000FFF7A8FC002899D180462046FFF7A2FC5E
:1056600000289AD1164B11932046FFF79BFC002887
:105670009DD094F86230002B99D0124920460C4AF4
:10568000012B18BF11460D91FFF78CFC002895D116
:1056900081462046FFF786FC002896D1024696E711
:1056A000094A52F823301193DEE700BFA41C4320BF
:1056B000F48B4100E89D4100489E4100F09D41006F
:1056C000E49D4100EC9D4100309C410038B5054609
:1056D000FFF768FC044648B16B6B042B08D92B4BD1
:1056E00000202B4A5B6B04462A499847204638BD68
:1056F0000AD0AB8F162B11D9244B0020264A5B6BA6
:10570000044624499847F1E700F0C2F890B91F49D0
:105710000446224A4B6B1F499847E7E72B8F013B12
:105720003E2B12D9194B00201D4A5B6B04461949C8
:105730009847DBE72B79032BDBD1144B0020194A68
:105740005B6B044613499847D0E76B6B2A794BB9DA
:10575000032A0CD10D4918461C46134A4B6B0D49C0
:105760009847C3E7032A06D033F00403BED10123D0
:1057700085F84C30BAE795F84C000028F4D1034B7B
:1057800004460A4A5B6B03499847AFE7A41C4320D1
:10579000449C4100489E4100E09C41005C9C4100CB
:1057A000149D41009C9C4100689D4100A49D4100C6
:1057B000436970B5466B3BB383692BB3836A1BB3F4
:1057C000436A0BB3C36AFBB18368EBB1C368DBB157
:1057D0000369CBB1F6B10368202B16D843680F2BB1
:1057E00013D9C3690BB1036A7BB104460A4D012684
:1057F0000FCC0FC50FCC0FC50FCC0FC594E803001D
:1058000085E80300304670BD26B1044A00200449F3
:10581000B0470026304670BDA41C4320A49E410022
:1058200098A3410038220021014808F09FBF00BF23
:10583000A41C4320014B1868704700BFA41C4320E0
:10584000014BDB6A184700BFA41C4320014B58687A
:10585000704700BFA41C4320014B5B69184700BF81
:10586000A41C4320014B9B69184700BFA41C432084
:10587000024BDB6903B11847704700BFA41C4320EB
:10588000024B1B6A03B11847704700BFA41C43209A
:10589000024BD869003018BF01207047A41C432078
:1058A000014B5B6A184700BFA41C4320014B9B6A55
:1058B000184700BFA41C43202DE9F0410D4C0F46B2
:1058C00090460646A3689847054630B9636B0A4A76
:1058D0000A4998472846BDE8F081094B1B68002B10
:1058E000F8D01C683A4643463146A0472846BDE8F2
:1058F000F08100BFA41C4320809E410098A341007A
:1059000054104020F8B590B10C4611461A46A4FB3D
:10591000006777B904FB00F52846FFF7CDFF044682
:1059200018B12A46394608F021FF2046F8BD044642
:10593000FBE7CF210148FFF71DFB00BF909E410010
:10594000064B1B6810B504460BB15B689847044BC7
:105950002046DB68BDE81040184700BF54104020C7
:10596000A41C4320014B93F830007047A41C432033
:1059700070B50B4C84B0012500EB40068DF8040097
:1059800003FA05F004EB860302915C68039524B1E9
:1059900011469B68024601A8A04704B070BD00BF35
:1059A0001800402070B50A4C84B0154600EB400248
:1059B0008DF80400072604EB8200029103964468E8
:1059C00024B11A462946836801A8A04704B070BDD7
:1059D0001800402010B584B0084B0022029100EB63
:1059E00040018DF8040003EB810303925C681CB155
:1059F0009B68114601A8A04704B010BD18004020C4
:105A00004A1E31B10388013A5BBA20F8023B531CAD
:105A1000F8D17047006800BA704700BF00BA08604C
:105A2000704700BF073020F00700704700487047FC
:105A3000B89E4100343005F003BD00BF70B5044688
:105A4000343005F0C5FC68B9D4F8E02003460125E0
:105A5000D4F8B01004F1AC00136155719371BDE836
:105A60007040084770BD00BF38B50468054654B1A2
:105A700004F1340005F09EFCD4F80801FFF760FF44
:105A80002046FFF75DFF2846BDE83840FFF758BFC6
:105A90002DE9F04F054683B08A4690461021574ABB
:105AA0009B460120EC23FFF72DFF0646ED23534ACA
:105AB0004FF488710120FFF725FF0446002E00F007
:105AC0009480002800F0918000F1EC0200F11409AC
:105AD00000F1340730604B46009229463846424672
