:020000040040BA
:10000000A03D43204100400021EB400015EB4000A3
:1000100009EB4000FDEA4000F1EA4000000000006A
:1000200000000000000000000000000031D9400086
:10003000E5EA400000000000C1D94000C5234100AE
:10004000194AD2F8883043F4700310B5C2F88830EA
:10005000BFF34F8FBFF36F8F144A154882420BD204
:10006000D34311460024034423F003030433134411
:1000700041F8044B9942FBD10E4A0F4882420CD200
:10008000D3430E490344081D23F00303034451F8EE
:10009000040B994242F8040BF9D113F073F80EF0F7
:1000A0006FFD0BF01DF8FEE700ED00E000104020B2
:1000B000442F432000004020B40E402020D34100B4
:1000C00038B50C4605461749204600F063FC20462B
:1000D000154900F075FC154B2046196800F0E4FC4A
:1000E0002046012100F0AEFC2046012100F094FCE6
:1000F0002046012100F07AFC20461E2100F0EAFC97
:100100002046012100F00CFD20461E2100F03CFDA0
:100110002046074900F022FD21462846BDE8384028
:1001200000F018BCAE47E1BD1F856B3E00004020CB
:10013000CDCC4C3E38B50C4605461749204600F05C
:1001400029FC2046154900F03BFC154B2046196858
:1001500000F0AAFC2046002100F074FC204601219A
:1001600000F05AFC2046012100F040FC20461E21F0
:1001700000F0B0FC2046012100F0D2FC20461E21F8
:1001800000F002FD2046074900F0E8FC2146284621
:10019000BDE8384000F0DEBBCDCCCC3DA470BD3E08
:1001A00004004020CDCC4C3E2DE9F0432DED028BD8
:1001B00083B0064608460C4691461F46BDF830807F
:1001C00000F056FC08EE100A0125B5EEC08A8DF845
:1001D0000650F1EE10FA29DDDFED178A0FE03068E6
:1001E00000F078FDC8B19DF8063005B9ABB138EE26
:1001F000688A1D46B5EEC08AF1EE10FA14DD18EEDD
:10020000101A204600F050FC2146304600F0A2FBB8
:1002100001AB424639460028E1D189ED008A03B09E
:10022000BDEC028BBDE8F083002BF6D0034810F044
:1002300097F80020F1E700BF8C2E3A3DE0574100CF
:100240002DE9F041054608461E460F4690462DED25
:10025000028B00F00DFC08EE100A0123B5EEC08AF7
:10026000B370F1EE10FA3ADDDFED2C8A23E0286856
:1002700000F016FE044600283AD0286800F05EFB25
:10028000044600283CD0B378384603B3B4EEE88A7D
:10029000F1EE10FA23D438EE688A18EE101A00F046
:1002A00003FC3946284600F055FB88B3B5EEC08AFA
:1002B000F1EE10FA10DD286800F034FB33460446F6
:1002C000012241460028D2D1154810F049F82046B5
:1002D000BDEC028BBDE8F081B378002BF7D011485C
:1002E000002410F03DF82046BDEC028BBDE8F08103
:1002F0000D4810F035F82046BDEC028BBDE8F081CA
:100300000A4810F02DF82046BDEC028BBDE8F081C4
:100310000446BDEC028B2046BDE8F0818C2E3A3DB0
:1003200054574100B4574100705741009457410061
:100330002DE9F04796B00AF0A5F918B9012016B0DA
:10034000BDE8F08705F070F801468D4810F01AF806
:100350000AF0A2F901F07AF8D0B100F0C9F90290E0
:10036000D0B100F035FA039000285ED0029C03A8BB
:100370002146FFF7A5FEA8B982480FF0F1FF02A8B9
:1003800000F004FA03A800F075FA01F09BF8D5E735
:100390007D480FF0E5FFD1E77C480FF0E1FF01F069
:1003A00091F8CBE7039806A900F074FA0028E3D08F
:1003B000BDF82030764E774833800FF0D1FF328879
:1003C0002146754B03A80092744AFFF7EDFE002802
:1003D000D2D0214603A8FFF7ADFE0028CCD006A955
:1003E000039800F057FA0028C6D0BDF82030DFF897
:1003F000F4816B48A8F800300FF0B2FFB8F8002085
:100400002146684B03A80092674AFFF7CDFE0028FB
:10041000B2D003A800F02EFA06A9012001F08CFC4E
:1004200060B962480FF09CFF88E761480FF098FFC1
:1004300002A800F0ABF901F045F87FE706A901201A
:1004400001F092FC0028ECD05A4D534FDFF8989100
:10045000029800F0BDF9039028460FF081FF029C3E
:1004600003A82146FFF72CFE08B9534885E73288D8
:100470003946039800F02AFA0028F6D0214606AB48
:1004800003A804AAFFF7DCFE0028EED09DF81E307A
:100490006BB1DDED087A9FED497A494867EE877ABE
:1004A000FCEEE77A17EE901A0FF06CFFD4E748469F
:1004B0000FF056FF029C03A82146FFF73BFE0028E1
:1004C000D3D0B8F800203749039800F0FFF900288E
:1004D000CBD0214606AB04AA03A8FFF7B1FE002843
:1004E000C3D0BDF81CA0BAF1000F02D0DDED057A33
:1004F000D1E734480FF034FF029C3349204600F026
:1005000049FA2046314900F05BFA2046304900F0B4
:10051000CBFA5146204600F095FA2046022100F021
:100520007BFA2046042100F061FA20460A2100F0FF
:10053000D1FA2046022100F0F3FA2046254900F0C6
:100540000DFB2046244900F035FB2046234900F0EE
:1005500047FB214603A800F0FDF9002885D004AA36
:10056000214606AB03A8FFF76BFE00283FF47DAFE2
:10057000BDF81C30002BB9D119480FF0F1FE6BE724
:100580000456410080564100245641003C5641002B
:1005900060194020A056410000104020000040207B
:1005A000B45641006419402004004020C856410060
:1005B0006456410008574100E456410000007A4467
:1005C000F8564100305741005C8F423E6666A63FB8
:1005D0008E75513FCDCCCC3E8FC2F53D8FC2F53CE0
:1005E00044574100C42240201C57410038B50446FE
:1005F00058B90D4D0D4A6B6B0D49984720466B6BF2
:100600000C4A0B499847204638BD02680A4B9A426B
:1006100007D0054B0020054A5B6B05499847002031
:1006200038BD012038BD00BFA42E4320B059410081
:10063000C0594100D45941004528C0AC38B50546E1
:10064000FFF7D4FF044630B105F1080001F092FA3B
:10065000281D00F061FD204638BD00BF70B50D4675
:100660000646FFF7C3FF044638B145B91A4B0024CC
:100670001A4A20465B6B1A499847204670BD194BB1
:100680002A689A42F2D1686B01F0D8F9B06030B9AB
:1006900011490446144A4B6B11499847EDE706F19E
:1006A0000C0101F041FDB28AF368281DAA80B269ED
:1006B000AB62AB6BEA62F36100F082FC7060002811
:1006C000DBD105490446094A4B6B0549984730463A
:1006D000FFF7B4FFD1E700BFA42E4320205A41000A
:1006E000C05941004528C1ACE4594100FC594100C2
:1006F000F8B563221C493C2004F0E0FD044630B309
:100700001A4B036001F022FC0346606330B30025FE
:10071000174F1426294601F0C7FC00234FF4A020F0
:100720004FF4487101222372606084F82030A36383
:100730001048A181104B1149A562E5622761A6828C
:10074000A061E161636284F830202046F8BD0C4B63
:100750000C4A5B6B0C4998472046F8BD20461C4666
:1007600004F0F0FDF1E700BF145841004528C1AC8A
:10077000CDCCCC3D8FC2F53D0AD7A33B8FC2F53C13
:10078000A42E43202C584100C059410038B10368C1
:1007900033B90B4B00200B4A5B6B0B491847704772
:1007A0000A4A19689142F4D110B5044603F13400A5
:1007B00001F05AFC206804F0C5FD0023236010BD41
:1007C000A42E4320205A4100C05941004528C1AC05
:1007D00038B540B91F4B00201F4A5B6B04461F49C8
:1007E0009847204638BD1E4B054602689A42F1D113
:1007F000406B00F063FF07EE900AF5EEC07AF1EE71
:1008000010FA1AD4A3221749202004F057FD0446F9
:1008100060B1154B29460360FFF720FF034600280F
:10082000DFD120461C4604F08DFDDAE7094B0F4A64
:100830005B6B0A499847204638BD95F83030023B3B
:10084000012BDFD8034B0020094A5B6B04460349A8
:100850009847C6E7A42E4320205A4100C0594100C2
:100860004528C1AC145841004528C0ACB8584100D7
:100870008858410060B110B504460068FFF7DEFEFD
:1008800000B910BD206804F05DFD0023236010BD99
:10089000704700BF38B50C460546FFF7A7FE38B1D4
:1008A0003CB9074B2046074A5B6B074998472046EF
:1008B00038BDE9682A69AB8A21606260238138BD4E
:1008C000A42E4320EC584100C059410070B50C469D
:1008D00016460546FFF78AFE30B13CB90D4B20465F
:1008E0000D4A5B6B0D499847002070BD686800F0A9
:1008F00031FC012806D0074B0020094A5B6B0749F1
:100900009847F1E7324621466868BDE8704000F03C
:10091000ABBC00BFA42E432080594100C059410008
:100920009859410010B50446FFF760FE00B910BDAC
:10093000A068BDE8104000F025BE00BF10B5044619
:10094000FFF754FE00B910BDA068BDE8104000F0EC
:100950006BBE00BF38B5044600680D46FFF76EFE5B
:1009600038B9094B0020094A5B6B094998470020B8
:1009700038BD29462068FFF771FE0028F8D12046CF
:10098000FFF778FFEDE700BFA42E43202459410074
:10099000C059410028B9064B0020064A5B6B064946
:1009A0001847064B02689A42F5D1406B00F08EBEA4
:1009B000A42E4320205A4100C05941004528C1AC13
:1009C00028B9064B0020064A5B6B06491847064BC0
:1009D00002689A42F5D1406B00F082BEA42E4320FB
:1009E000205A4100C05941004528C1AC28B9064BE6
:1009F0000020064A5B6B06491847064B02689A427C
:100A0000F5D1406B01F042BBA42E4320205A410097
:100A1000C05941004528C1AC28B9064B0020064A00
:100A20005B6B06491847064B02689A42F5D1406B4A
:100A300000F082BFA42E4320205A4100C05941003B
:100A40004528C1AC28B9064B0020064A5B6B064915
:100A50001847064B02689A42F5D1406B00F084BFFC
:100A6000A42E4320205A4100C05941004528C1AC62
:100A700008B538B9084B0020084A5B6B084998470D
:100A8000002008BD074B02689A42F3D1406BBDE8D5
:100A9000084000F02FBE00BFA42E4320205A410082
:100AA000C05941004528C1AC28B9064B0020064A70
:100AB0005B6B06491847064B02689A42F5D1406BBA
:100AC00000F020BEA42E4320205A4100C05941000E
:100AD0004528C1AC31B188B90C4B00200C4A5B6B86
:100AE0000C49184710B504F03FFC68B1074B0120D2
:100AF000094A5B6B0749BDE810401847074B02687D
:100B00009A42E9D1C180704710BD00BFA42E432096
:100B1000205A4100C05941004C5841004528C1AC01
:100B200028B90A4B00200A4A5B6B0A4918470A4B4E
:100B300002689A42F5D1012902D004D3022901D1D9
:100B4000017270477047002303727047A42E432040
:100B5000205A4100C05941004528C1AC28B9064B74
:100B60000020064A5B6B06491847064B02689A420A
:100B7000F5D10161704700BFA42E4320205A4100E7
:100B8000C05941004528C1AC28B9064B0020064A8F
:100B90005B6B06491847064B02689A42F5D1818281
:100BA000704700BFA42E4320205A4100C059410085
:100BB0004528C1AC28B9064B0020064A5B6B0649A4
:100BC0001847064B02689A42F5D18161704700BF11
:100BD000A42E4320205A4100C05941004528C1ACF1
:100BE00028B9064B0020064A5B6B06491847064B9E
:100BF00002689A42F5D1C161704700BFA42E43201C
:100C0000205A4100C05941004528C1AC10B50446E6
:100C1000FFF7ECFC08B9002010BD606800F09AFAFC
:100C2000012807D0064B0020064A5B6B064998470F
:100C3000002010BD6068BDE8104000F0A5BA00BFFC
:100C4000A42E432098594100C059410010B50446D4
:100C5000FFF7CCFC00B910BD6068BDE8104000F0A3
:100C600097BA00BF2DE9F04383B00E461746994668
:100C70000546BDF82880FFF7B9FC044618B92046A0
:100C800003B0BDE8F083686800F086FA90B9686840
:100C90004B46CDF800803A46314600F099FA48B903
:100CA00009490446094A4B6B09499847204603B055
:100CB000BDE8F083686800F06FFA0B9B187020465F
:100CC00003B0BDE8F08300BFA42E432000594100CB
:100CD000C05941002DE9F04387B00F4690461E46AB
:100CE0000546FFF783FC044618B9204607B0BDE867
:100CF000F083686800F02EFA01280AD000202E4BFD
:100D00002E4A04465B6B2E499847204607B0BDE843
:100D1000F0832846FFF77AFF044628B9264B294A74
:100D20005B6B27499847E0E7686800F083FAA8689A
:100D300000F028FC00238DF80F301EB1B370F37063
:100D4000337073700DF10F0904AA05A9A86801F0AA
:100D50000DFA044650B39EB19DF8122002B9B27844
:100D60009DF81330B27003B9F3789DF81020F3703A
:100D700002B932789DF81130327003B9737873700C
:100D8000AA8A3B4605992846CDE90089FFF76AFF04
:100D90009DF80F300446012B01D00028D4D1A8685B
:100DA00000F042FC2846FFF751FF9EE7024B064A3F
:100DB0005B6B03499847F2E7A42E43209859410002
:100DC000C059410040594100605941002DE9F043AC
:100DD00083B00C4691461D468046BDF82870FFF74B
:100DE00005FC064618B9304603B0BDE8F0834A4614
:100DF00001AB2146D8F8040000F05CFA9DF80430FD
:100E00000C9A1370002BEED0874298ED037AD8ED40
:100E1000066A28BF0746BFB217B321467C1E2B1DAA
:100E20009FED1E6A0A1DA4B202EB84040A880431F5
:100E3000083307EE902A31F8022CF8EEE77A23F80F
:100E40000C2C67EEA67A77EE877AF5EEC07AF1EE93
:100E500010FAD8BFF0EE467A8C4243ED027AE5D123
:100E6000BDF8063030460B9A07EE903A0B9BF8EE31
:100E7000E77A9F809DF8053067EEA67A937177EE4A
:100E8000877AF5EEC07AF1EE10FAD8BFDFED037A7B
:100E9000C2ED027A03B0BDE8F08300BF000000009D
:100EA0002DE9F04389B00F4690461C460546FFF7F2
:100EB0009DFB58B17CB92A4B26462046294A5B6BDC
:100EC00029499847304609B0BDE8F08300263046EE
:100ED00009B0BDE8F08300230DF117098DF8173034
:100EE000A370E370237063702CE0EB690698AA8A04
:100EF0001BB1114698470698AA8A9DF81E1001B9A1
:100F0000A1789DF81F30A17003B9E3789DF81C10FB
:100F1000E37001B921789DF81D30217003B9637821
:100F2000637001463B46CDF8089001942846CDF801
:100F30000080FFF74BFF9DF817300646002BC6D107
:100F40000028C3D007AA06A9A86801F00FF9064631
:100F50000028CAD1024B054A5B6B03499847B6E7A4
:100F6000A42E4320D0584100C0594100605941008F
:100F700010B50446006950B10378012B1AD013D381
:100F8000022B04D104F1100003F0FAFB206904F0F5
:100F9000D9F9606904F0D6F9A06804F0D3F92046C5
:100FA000BDE8104004F0CEB904F1100003F096FB48
:100FB0002069ECE704F1100003F0BEFB2069E6E7CE
:100FC00070B53B2205464B492C2004F077F90446C6
:100FD00000285AD06A8800234749012A828001608C
:100FE000C3803DD8838183602B790022012B22832B
:100FF00067D060D3022B4FD1D5ED0A6AD5ED067AC2
:1010000095ED056A87EEA67A2B7FEA68C6EE267A0A
:10101000BCEEC77A17EE101AFCEEE77A89B217EE2B
:10102000900A80B203F098FB06462061002E36D06D
:1010300028888E232F4A04211F30400904F064F9C8
:1010400006466061002852D0286A696AAA6A95F843
:101050002C30E06120462162626284F8283070BD45
:1010600028884C23234A0221A08104F04DF906462A
:10107000A0600028B8D1214B214A5B6B21499847D9
:10108000204604F05FF9344604E01C4B1E4A5B6BBB
:101090001C499847204670BD2669002EC8D1174BC1
:1010A00030461A4A5B6B1749984720463446FFF78B
:1010B0005FFF204670BD288903F002FB06462061D1
:1010C000B4E7D5ED037AB7EE007ADFED116A2B8A2B
:1010D00077EEA67A29882383C7EE276A76EEC77A49
:1010E00017EE900A03F004FB064620619EE7034BCF
:1010F000084AD7E7385A41004528C2ACA42E4320FD
:10110000A05A4100805A41005C5A4100C05A410037
:10111000FFE6DB2EE45A410038B1036833B9094BCE
:101120000020094A5B6B094918477047084A19684B
:101130009142F4D110B504461846FFF719FF002379
:10114000236010BDA42E4320085B4100805A41005B
:101150004528C2AC08B538B9074B0020074A5B6B7D
:1011600007499847002008BD064B02689A42F3D110
:101170000369187808BD00BFA42E4320085B410016
:10118000805A41004528C2AC006903F0C5BA00BFCF
:10119000006903F0CBBA00BF08B538B9084B00208E
:1011A000084A5B6B08499847002008BD074B026856
:1011B0009A42F3D1408BB0FA80F0400908BD00BFDD
:1011C000A42E4320085B4100805A41004528C2AC50
:1011D00070B582B0BDF8186048B9124B0020124AB1
:1011E0005B6B054611499847284602B070BD04461E
:1011F0000F4825688542F0D1658B002DF4D0206919
:10120000019303F0D9FA019B0546628B10B1013AB4
:1012100092B26283002AE7D132461946206903F070
:10122000E3FAE1E7A42E4320085B4100805A410025
:101230004528C2AC034628B9074B0020074A5B6B20
:1012400007491847074A01689142F5D1028B0069A6
:101250005A8303F09FBA00BFA42E4320085B4100CD
:10126000805A41004528C2AC10B540B90C4B002053
:101270000C4A5B6B04460C499847204610BD0B4B4B
:1012800004689C42F2D1006903F0E8FA04460028A1
:10129000F3D1034B064A5B6B03499847EDE700BF68
:1012A000A42E4320085B4100805A41004528C2AC6F
:1012B000385B41002DE9F04385B048B95E4B002012
:1012C0005E4A5B6B5E499847002005B0BDE8F0833D
:1012D00016461D46026804465A4B9A42EED13DB965
:1012E000554B2846584A5B6B554998472846ECE7CA
:1012F000828800238846012A2B7037D9C388F7EEED
:10130000006A07EE903AF8EEE77A77EEA67A86EE74
:10131000A76A26B3711E8368A8F1020289B2023B54
:1013200076EEC66A08EB410132F8020F07EE900A2A
:1013300033F8020F914207EE100AF8EEE77AB8EEA2
:10134000C77A67EE867A27EE267A77EE877AFCEE02
:10135000E77A17EE900A1880E6D1E388A288013375
:101360009BB293425DD0E3800020AEE78946B9F19D
:10137000000FF9D094ED087A94ED076AB5EEC07AC3
:10138000D4ED096AF1EE10FA54DBC7EE267AFCEED2
:10139000E77A17EE903A9BB2B6EE007A94F82820DE
:1013A000616948460292324626EE877A37EE067A1F
:1013B000C7EE267AFCEEE77A17EE907ABFB2019775
:1013C0002769009703F044F9A388012B0FD970B166
:1013D0000222002339F8231028F82310013339F8AA
:1013E000027099B228F8027004328842F2D80021C3
:1013F00069709EB167693B68DB0717D401239C467F
:1014000003E057F82440224210D199B25C0901331D
:1014100001F01F028E420CFA02F2F2D801232B7067
:1014200053E70023D4F80890E380A0E70123698004
:101430006B70F3E70023AFE7A42E4320085B410065
:10144000805A41004528C2AC245B410010B5174CBE
:1014500023788BB940B103F0ADFE28B100F0E0FA7B
:1014600010B102F035F898B9114B0020114A5B6BAE
:1014700011499847207810BD03F076FF0128F9D96B
:101480000B4B02200D4A5B6B0B499847207810BD2F
:101490000123237003F068FF0128EBD9044B0220DD
:1014A000074A5B6B04499847E4E700BFC622402027
:1014B000A42E4320745B4100705B41008C5B4100B3
:1014C000505B410010B50B4C237803B910BD00F000
:1014D0007DFB02F035F803F047FF012805D9064BE4
:1014E0000220064A5B6B0649984703F09DFE0023E5
:1014F000237010BDC6224020A42E4320B45B4100BF
:10150000705B4100024B0120024A5B6B02491847A5
:10151000A42E4320205A4100945C410008B1006988
:10152000704710B5044603F01FFF30B1034B012094
:10153000034A5B6B03499847204610BDA42E432005
:10154000205A4100945C410070B50D460446FFF7F7
:10155000E5FF58B12946064603F0D8FC3DB9A3681B
:1015600023B161792046BDE87040184770BD304610
:101570000F2103F0A5FB30460121BDE8704003F0C8
:10158000C1BB00BFF8B560B9204C0020204A636B96
:10159000204998470020636B1F4A1E499847002046
:1015A000F8BD1E4B044602689A42EDD11C4B1878D8
:1015B000B8B1637B002BF3D0A368202B11D8194D51
:1015C00015F813206AB905EB43020127567805F890
:1015D000137046B100220D4C05F81320DAE7202BDA
:1015E000F8D90A4CD6E704F11C0002F0F1F8A36820
:1015F0000028F4D0202B06D805EB4302667305F8CB
:1016000013605770F8BD6673F8BD00BFA42E432069
:10161000B0594100945C4100D85B4100E89EC0ACE9
:10162000C7224020C82240202DE9F04170B91C4C4F
:1016300000201C4A636B1C4998470020636B1B4ABF
:101640001949054698472846BDE8F081184B0446DD
:1016500002689A42EBD1174B1D78DDB1437B002B1A
:10166000F1D18368202B15D8134E16F813708FB95B
:101670004FF001081C3006F8138002F0E1F8A3686F
:10168000202B09D806EB430284F80D8006F813706E
:101690005770D8E7024CD0E784F80D80D3E700BF3D
:1016A000A42E4320B0594100945C41000C5C4100E1
:1016B000E89EC0ACC7224020C822402008B5FFF7F2
:1016C0002DFFBDE8084003F0A3B900BF10B50C46DC
:1016D000FFF724FF2146BDE8104003F0A3B900BF87
:1016E00010B50C46FFF71AFF2146BDE8104003F085
:1016F000ABB900BF08B5FFF711FFBDE8084003F024
:10170000C3B900BF10B50C46FFF708FF2146BDE87E
:10171000104003F0D3B900BF43693BB1DA6810B59C
:101720000446184690470023636110BD704700BF10
:101730002DE9F0410E4682B00546002832D1324BE9
:101740000020324A5B6B324998470023B47E64B173
:101750007268B2B92C4B00202E4A5B6B04462C49B0
:101760009847204602B0BDE8F081B26862B9264BC6
:101770002046294A5B6B26499847204602B0BDE8BF
:10178000F081F268002AE5D0BBB12B7B327893421E
:1017900018D01D4900200092204A04464D6B1C4978
:1017A000A847DEE71E4B02689A42C8D10123CDE765
:1017B0002846FFF7E7FE804648B90024204602B0DD
:1017C000BDE8F08196F81880B8F1000FF0D16F7B7A
:1017D00087B10D4B0024134A20465B6B0C49984798
:1017E000B8F1000FBDD02846FFF71EFF204602B01B
:1017F000BDE8F0816B69AE61D3E900029047747E69
:10180000AF6184F00104EBE7A42E4320B0594100FE
:10181000945C4100285C4100485C4100605C4100F0
:10182000E89EC0AC7C5C410070B59DF810501E462F
:10183000846945B9A07E78B1E36860689A4228BFA0
:101840001A4609F03BFF2069657658B16269314656
:10185000BDE8704009F032BFA2681160206965766A
:101860000028F3D170BD00BF014B1870704700BF56
:10187000C722402008B538B9064B0020064A5B6BEA
:1018800006499847002008BD0268054B9A42F3D1EB
:10189000012008BDA42E4320B0594100945C4100B2
:1018A000E89EC0AC08B538B9094B0020094A5B6B0B
:1018B00009499847002008BD084B02689A42F3D1B5
:1018C000038B002BF0D04369002BEDD0012008BD25
:1018D000A42E4320205A4100945C4100D79DC0AC07
:1018E00008B538B90F4B00200F4A5B6B0F4998477A
:1018F000002008BD0E4B02689A42F3D1038B002BE7
:10190000F0D04369002BEDD04379013B042B07D97C
:10191000044B0020074A5B6B04499847002008BD30
:10192000012008BDA42E4320205A4100945C4100B0
:10193000D79DC0ACF45B410010B568B18368044624
:1019400053B161719847237B03B910BD2046012133
:10195000BDE81040FFF7F8BD03F006FD0028F4D005
:10196000BDE81040FFF7CEBD08B528B10346197396
:10197000BDE80840FFF7E8BD03F0F6FC18B1BDE88C
:101980000840FFF7BFBD08BD70B5059D0446026164
:10199000084EBDF81020017106609DF81810856092
:1019A00043610283FFF7C8FF20460021BDE8704075
:1019B000FFF7DABFD79DC0AC30B583B0044603F063
:1019C000D3FC032808D911490420A2684D6B636831
:1019D0000F4900920F4AA847606800230E4951F84A
:1019E000042B12B15268904204D00133042BF6D17B
:1019F00003B030BD094A0021204602EB8303596041
:101A000003B0BDE8304003F09DBC00BFA42E4320CE
:101A1000C85D4100A05D41000C004020080040204E
:101A200010B5054C207800B110BD01231846237075
:101A3000FFF71AFF207810BD080040202DE9F04381
:101A4000414D83B02B7853B9404918461C46404A53
:101A50004B6B40499847204603B0BDE8F0830746EA
:101A6000FFF720FF002858D03B69D3F80C80B8F16D
:101A7000200F33D86B7853B92B1D05F1140153F89F
:101A8000042B12B1926890454CD09942F7D1D5F809
:101A900014903C8B09F101036B6103F065FC032892
:101AA00008D92A4A4B46CDF800800420566B2949B4
:101AB000294AB047294B002653F8042B92B101362E
:101AC000042EF9D121493346254A00204D6B214986
:101AD0000446A847204603B0BDE8F0831B492023F5
:101AE000204AF2E72146D4231F4A012003F00CFCD0
:101AF000044690B11D4B05EB8605C4F804903946A9
:101B00002360C4F808807B696C60984790B101231A
:101B10002046637303B0BDE8F0830024204603B081
:101B2000BDE8F083094B0020114A5B6B044609496C
:101B3000984790E723690BB1204698472046002438
:101B4000FFF73AFF87E700BF08004020A42E43209C
:101B5000DC5C4100C85D4100B85C41000C004020E5
:101B6000185D41009C5C41003C5D4100E89EC0ACBA
:101B7000F05C4100114B1B7810B533B1044618B12D
:101B80000068FFF777FE60B910BD03F0EDFB002899
:101B9000FAD00B4B01200B4A5B6B0B49BDE81040A0
:101BA00018472068FFF740FD206803690BB198478C
:101BB0002068FFF701FF0023236010BD08004020CC
:101BC000A42E4320DC5C4100C85D410038B51B4CAD
:101BD0002578002D30D063680BB3201DFFF7CAFFB6
:101BE000A36803B31648FFF7C5FFE36813B11548B0
:101BF000FFF7C0FF236913B11348FFF7BBFF03F0E2
:101C0000B3FB28B1114B0120114A5B6B1149984776
:101C1000002318462370BDE83840FFF725BE1D4657
:101C2000A368002BDED1E368002BE0D12369002BF1
:101C3000E2D1002DECD0E2E738BD00BF0800402023
:101C4000100040201400402018004020A42E432003
:101C5000545D4100C85D4100074B03F1100153F88A
:101C6000042B12B19268904203D08B42F7D100202E
:101C700070470120704700BF0C00402010B504469B
:101C8000062103F08BF80121204602F05FFF204679
:101C9000012102F0F5FF2046142103F001F820464F
:101CA0000F2103F00DF82046072103F019F8204614
:101CB000012103F027F8204602F0CEFE2046022143
:101CC00002F0DAFE2046012102F01CFF204600212E
:101CD00002F02AFF2046012103F03AF801222046B3
:101CE000002102F09DFF2046042103F0BFF82046AA
:101CF000002103F011F82046002103F017F82046D8
:101D0000002103F053F82046002103F061F820463B
:101D1000002103F06FF82046002103F07DF82046F3
:101D2000012103F0CFF820460249BDE8104002F03F
:101D300015BF00BF9D28400030B59BB00C4605463E
:101D4000FFF78AFF10B100201BB030BD294668465E
:101D500002F056FE6846FFF791FF2146684601F003
:101D60008FFD1BB030BD00BF30B59BB00C460546A3
:101D7000FFF772FF10B100201BB030BD2946684646
:101D800002F03EFE6846FFF779FF214601226846D1
:101D900001F0F0FD1BB030BD70B50C4684B00146BB
:101DA0001046657903AB22698DF80D5000952679B0
:101DB000E579A4798DF80E608DF80F508DF80C4000
:101DC000FFF732FD04B070BD30B5A5B088220446DF
:101DD0000D4602A809F072FC09A803F03FF807EECF
:101DE000900A09A8B8EEE77ADDED237A67EE277A44
:101DF00017EE901A02F0FCFE02A8FFF771FD40B149
:101E0000169B042B08D11A4B00201A4A5B6B1A4907
:101E10009847002025B030BD09A803F059F90028E3
:101E2000F7D009A803F01AF8431E9BB2012B09D979
:101E3000042807D00E4B0020104A5B6B0E499847D0
:101E40000020E7E72B7924A90D4809AA237323462C
:101E500041F88C0D04F11C0003F018FB0346003020
:101E6000084A18BF0120C4E9042325B030BD00BFD3
:101E7000A42E4320345E4100705E4100845E410028
:101E8000991D40001917400010B50446FFF70AFDE0
:101E900008B1237953B103F067FA30B1044B012044
:101EA000044A5B6B04499847002010BD204610BDD2
:101EB000A42E4320205A4100705E410038B50C46E4
:101EC000FFF7E2FFC8B1611E054600F11C040429BA
:101ED00013D8DFE801F01323333503001021204627
:101EE00002F0FEFE0621204602F0EAFE2046012115
:101EF00002F008FF134BC5F8843038BD002120469E
:101F000002F0EEFE0021204602F0DAFE2046032118
:101F100002F0F8FE0C4BC5F8843038BD072120468E
:101F200002F0DEFE0621204602F0CAFE204609210C
:101F300002F0E8FE034BC5F8843038BD0921EEE716
:101F40000C21CCE70938843BFA61843C70B56B23E3
:101F500084B03D4A8821012003F0D6F905460028C7
:101F60006FD000F11C04022638495023224600930A
:101F7000374BCDE901160021FFF706FD2046354914
:101F800002F050FD2046344902F05EFD2046062155
:101F900002F004FF20460A2102F0D8FD204601216C
:101FA00002F06EFE0121204602F02AFD204602F0DA
:101FB00053FD3146204602F05FFD2046002102F02D
:101FC000C7FE2046002102F0B1FE2046002102F0AB
:101FD00099FD2046002102F0A7FD2046FF2102F0D6
:101FE000D3FE2046002102F0C5FE002320461A46FB
:101FF000194602F023FF2046012102F037FF204658
:102000000B2102F04DFE2046012102F041FF204647
:10201000124902F0B5FD01222046114902F0C4FD2B
:102020002046012102F0D2FD2046012102F04AFFA4
:1020300020464FF4965102F057FF2046094902F01E
:102040008DFD284604B070BDD85D4100BD1E400026
:10205000C91D4000CDCC4C3ECDCCCC3ECDCCCC3DF2
:102060009A99993E9D28400070B110B504460068C9
:10207000FFF718FC00B910BD2068FFF705FF03F05B
:1020800061F90023236010BD704700BF38B50D46CD
:102090000446FFF7F9FE28B129462069BDE838401B
:1020A00002F0E4BE38BD00BF10B52DED028B044632
:1020B00008EE101AFFF7E8FEC0B1B5EEC08AF1EEE7
:1020C00010FA06D4F7EE008AB4EEE88AF1EE10FAC0
:1020D0000FDD03F049F948B1104B0120104A5B6B4A
:1020E0001049BDEC028BBDE810401847BDEC028BD7
:1020F00010BD2046FFF712FAB5EE408A78EEC87A96
:10210000F1EE10FA17EE901ABDEC028B14BF01220B
:102110000022BDE8104002F047BD00BFA42E4320BE
:10212000F05D4100705E4100E8B1037BDBB9D1B1E5
:102130004369B6EE007ADFED0C6A1B68D3ED087ACE
:102140009A8D67EEA67A9869013A67EE877A10B49D
:102150005C695B8D0C604A814860C1ED037A0B813C
:102160005DF8044B70477047C2F38E4DB9B1002340
:1021700030B5042489B00D6803910DEB040102957C
:1021800005928DF8043004938DF81C308DF81D30C5
:102190008DF81E300694FFF7CBFA09B030BD084623
:1021A000704700BF43693BB110B50446184603F0C1
:1021B000C9F80023636110BD704700BF2DE9F047E7
:1021C00044698AB007468846B4F8C03091460BB9D6
:1021D000A4F8C230B4F8C8207C23D4F8C450B3FBB0
:1021E000F2F305FB03F5002D37DB204604A905F0CB
:1021F00017F9D8F80030049A6E00B4F8C2102A44D7
:102200003868194401F012FF03AA824604F1BC03A6
:10221000386851460092224605F01AF99DF80C30B4
:1022200004A92046003318BF012389F8003005F0C7
:10223000F7F8B4F8C230D8F80000324604991844D0
:102240000AEB410109F0D4FAB4F8C23028461E4422
:10225000A4F8C2600AB0BDE8F08740F25A210148F4
:1022600002F098FB905F41002DE9F04FD0F814A0E8
:10227000B7B003468B4615465146BC2207A8D3F893
:10228000009009F01BFA4FF0020C329F0024012647
:1022900007FA0CF807ABDBF80420484608F1FF37D3
:1022A000DBF80010CDF8BCC02E971D962294BAF82A
:1022B000C8701C948DF8D04004F0FEFB484605F031
:1022C00079F848466B4664224FF4FA6101F06CFDE0
:1022D000064618B9304637B0BDE8F08F7C2350462B
:1022E00001A9DBF800B0B3FBF7F705F099F808FB9C
:1022F00007F7019A594648463A4401F097FE4FF4D1
:10230000FA618046484601F0E3FD504601A905F018
:1023100087F801980E2FA7F10E0C08EB400021D989
:102320007F0000F11A012346023F0A4600EB070E28
:1023300032F8024F96452344FAD138440024B3FBC7
:10234000FCF231F8023F9B1A002BB8BF5B42884277
:102350001C44F6D1B4FBFCF4A3B230462B8037B05A
:10236000BDE8F08F2346F8E7F0B54369002599B042
:102370000668C3F8BC500C46174602F063FF02A97A
:10238000119011A805F0B6F818B90024204619B02C
:10239000F0BDBDF80A506B46BDF80C1005AABDF89B
:1023A0000E000791089061682068CDE90565BDF8C9
:1023B0001050ADF8245003F0A1FA0028E5D0BDF884
:1023C0000A1011ABBDF80C000AAA9DF804500C903D
:1023D000BDF810001095ADF83800CDE90A61BDF8E0
:1023E0000E100D9100990F91D4E9000103F03CFC0F
:1023F00004460028C9D0009906239DF804201198AE
:10240000B980FA801299139A38817981BDF8500009
:10241000BDF85210BA81BDF85420F88139827A8211
:102420003B6002F0A1FF0128B0D9034B0220034A10
:102430005B6B03499847A9E7A42E4320A45E4100A3
:10244000C45E41000B68062B70B58CB00BD02848D9
:102450000621284A446B0020009127490546A047E1
:1024600028460CB070BD0C46064602F0EBFE03A9F0
:10247000069006A805F03EF805460028F0D0BDF805
:10248000123006AABDF80E00B360BDF814303060FB
:10249000B381A088E388BDF81010C6E90403208941
:1024A000638971607C21C6E90603238AA089B3840D
:1024B000638A3062E089F38403F0F4F9BDF8180010
:1024C000BDF81A10BDF81E20BDF82030B062F162D0
:1024D000BDF82400BDF8261032637363BDF82A20CE
:1024E000BDF82C30C6E90E01C6E91023B8E700BFDD
:1024F000A42E4320105F4100C45E410010B5B0F827
:10250000C84086B064B1694604F08AFF7C23009815
:10251000B3FBF4F3C0F50060B0FBF3F006B010BD00
:102520004FF49F71014802F035FA00BF905F4100FF
:102530002DE9F04F44698DB0064608460D46914698
:102540001F464FF0010B02F089FC0023A4F8C800DD
:102550002046C4F8BC3006F1040A84F8B5B0FFF791
:10256000CDFF854B80B24FF07C0C1968524602902B
:102570003B46019128464946CDF800C000F03CFAA0
:10258000804618B940460DB0BDE8F08F284602F0ED
:10259000D7FB68B9C4E9120B00232846236502F073
:1025A00049FB032800F2E580DFE800F0D3CAB80752
:1025B0000023C4F848B0E364EEE70DF1180B284699
:1025C00002F040FB05AA594600F028FE0123DDE990
:1025D0000512C4E91533C4E91712284602F044FA7B
:1025E000042807D8DFE800F09696910396000023B0
:1025F000C4E91933284602F07DFA80F00103284629
:10260000DBB2E36602F088FA80F00103012228467B
:10261000DBB26267236702F091FA431E2846A36784
:1026200002F036FBE067284602F042FBC4F8800067
:10263000284602F05FFB431E2846C4F8843002F0AF
:1026400047FBC4F88800284602F0DEFB84F88D00C2
:10265000284602F003FCC4F8AC00284602F0B0FBA8
:10266000C4F8A400284602F0BDFBC4F8A800284620
:1026700002F020FC80F00103284684F8B43002F018
:10268000F7FA01286DD902380123C4E92430B38850
:102690000122504684F8B520C4F8983000F096FD29
:1026A000002862D17089B6F908200138F388C4E99E
:1026B0002702C4F8B03002F0C5FD4FF46172C4F8CF
:1026C000B8007C23A9F814200021B4F8C8202046C3
:1026D00039835946B3FBF2F23B8903FB02F37B815A
:1026E00004F09EFE5A4631680123122002F042FE99
:1026F00000F00CFEBDF818304FF416621844BA8191
:10270000F88140460DB0BDE8F08F01220023C4E9F6
:1027100019236FE70123C4E919336BE70DF1180B97
:10272000284602F08FFA05AA594600F077FD0120ED
:102730000021DDE90523C4E91501C4E917234CE7AD
:10274000002301220DF1180B6365A265C4E917335C
:1027500043E700230DF1180BC4E91533C4E917331F
:102760003BE70023C4F8903091E77069FFF7C6FE9D
:1027700099E70DF1180B30E70C5F410038B50139CE
:10278000136889B2B3F8C0408C4204D01846BDE843
:102790003840FFF7B3BE054618461446FFF7AEFEB5
:1027A000B5FBF0F303FB105000B138BD2068BDE865
:1027B0003840FFF7A3BE00BF8389012B27D0F0B5B7
:1027C00046690446B0F9087083B0B6F8C0203046B8
:1027D000013292B2B2FBF3F503FB15239DB2A6F8CA
:1027E000C050FFF78BFE04F1140200FB0575A189B0
:1027F0006089FFF7C3FF0346694620685A1EC6F882
:10280000C430CDE9002504F0E1FD03B0F0BD184669
:10281000704700BF0246002370B552F8145F0446AB
:102820000E46C5F8C03081894089FFF7A7FF2B46C7
:10283000C5F8C4002068D6E9001204F03DF938B9A3
:10284000124B0646124A5B6B12499847304670BDE0
:10285000206804F0AFFD0646A8B195F8B430002B0F
:10286000F4D02169206801F0B7FB044658B102F0AA
:102870007BFD0128EAD9054B0220074A26465B6BFF
:1028800004499847E2E70026E0E700BFA42E432072
:10289000505F4100C45E41006C5F410038B50446A2
:1028A0000D464FF489730F4ACC21012002F02CFD14
:1028B0006061A8B1284602F09BF82060284602F02B
:1028C000F9FAA073284602F0CFF8B0FA80F3284650
:1028D0005B09E37300F080FC034B20610120A361DE
:1028E00038BD00BF905F4100D85E41002DE9F04F38
:1028F00087B00025B0F80CB09946DDF840A01D70F7
:102900008AF80050C37B0091029303698DF816503A
:102910008DF817500668877B0193BBF1000F43D0F9
:102920000BF1FF330446904603930EE0A369204663
:102930001B6A98472FB1A36930465B6A9847002805
:1029400037D00135ABB29B452ED9A36927B95B6A55
:102950003046984768B3A3699B690DF11602019947
:102960003046984728B39DF816300BB999F80030D7
:10297000A0690DF1170289F800300099C36920465B
:1029800098479DF8173080B20BB99AF80030B8F824
:1029900000208AF800301044029BA8F80000002BA9
:1029A000C4D0039BAB42C1D1009B186807B0BDE8FF
:1029B000F08F002007B0BDE8F08F00BF08B52DED07
:1029C000028B08EE100A02F03DFC9FED0A6A07EE4A
:1029D000900AF7EE006A86EE277AB8EE488AB8FECB
:1029E000477A67EE877A86EEA70A80EE080ABDEC82
:1029F000028B08BDF902154F2DE9F04F2DED068B26
:102A000089B08A46914606460693189F9DF864B0A1
:102A1000BDF9668002F0A6F9002840F083803046B8
:102A2000DFEDE48A01F0F4FF09EE100A3046BEEE55
:102A3000008A01F0FFFF07EE900A384679EE279AE8
:102A4000FFF7BCFF39EE097A384620EE280AB5EECA
:102A5000C09AB6EE009AC7EE007AF1EE10FA54BFB3
:102A6000B0EE497AB0EE487A77EE877AFDEEE77AF3
:102A700017EE905AFFF7A2FF39EEA97A20EE280A46
:102A8000F5EEC09AC7EE007AF1EE10FA58BFB0EE3C
:102A9000498A18F10B0F37EE888AFDEEC87A17EED7
:102AA000904A4BDBBBF1000F48D0C346F38D304654
:102AB000079302F0D3F90128804609D9022823D0D0
:102AC000631B93FBF8F208FB1238B8F1000F0EDC21
:102AD000AC4236DAB84B0020B84A5B6B8046B84946
:102AE0009847404609B0BDEC068BBDE8F08F02F078
:102AF0003BFC012805D9B04B0220B24A5B6BB049C0
:102B00009847A4EB0804E3E7EB07D9D402F02CFCC8
:102B1000012805D9A84B4046AB4A5B6BA8499847AA
:102B20000135CDE7304602F06BF80546304602F03D
:102B30006FF818F10B0F05EB0004B3DA6FF00B0B15
:102B4000B4E7304602F072F98046002840F0488130
:102B50000BFB07FBAB4500F30F82079B4FEA431BC0
:102B6000ABF14B0B07FB0BFBA34580F2398107EE62
:102B7000904A914B3846DFED8F9AB8EEE79AD3F83A
:102B80003490FFF71BFFF6EE008A904A384669EE54
:102B9000007A8F4B9FED87AA67EEA97A67EEA87A35
:102BA000F5EEC07AF1EE10FA4CBF92469A46FFF766
:102BB00005FF384629EE008AFFF700FF69EE007A2C
:102BC000384628EE298A67EEA97ADFED7A9A28EE50
:102BD000288A67EEA87AF6EE008AF5EEC07ADFED75
:102BE0007D7AF1EE10FA48BFB1EE488A38EE278AB6
:102BF000FCEEC87A17EE906AFFF7E0FE384629EE41
:102C0000008AFFF7DBFE69EE007A384628EE298A53
:102C100067EEA97AF6EE009A28EE288A67EEA87A7F
:102C2000F5EEC07ADFED6B7AF1EE10FA48BFB1EE47
:102C3000488A38EE278AFFF7C1FE384669EE008AD7
:102C4000FFF7BCFE69EE007A07EE10BA384668EE70
:102C50008A8A67EE8A7A9FED57AAB8EEC79A9FEDE7
:102C60005E7A68EEA98A67EEA97ADFED529AF5EEF0
:102C7000C07ADFED587AF1EE10FA48BFF1EE688ABB
:102C800078EEA77AF6EE008AFCEEE77AF8EE677A3D
:102C900038EE678A68EE077AFCEEE77A17EE904A1C
:102CA000FFF78CFE69EE007A484B494A384667EEDA
:102CB000A97A67EEA87AF5EEC07AF1EE10FA4CBF69
:102CC0009B469346FFF77AFE384629EE008AFFF7C7
:102CD00075FE69EE007A384628EE298A67EEA97AF1
:102CE000DFED349A28EE288A67EEA87AF6EE008A9D
:102CF000F5EEC07ADFED377AF1EE10FA48BFB1EEAB
:102D0000488A38EE278AFCEEC87A17EE905AFFF709
:102D100055FE384629EE008AFFF750FE69EE007A2C
:102D2000384628EE298A67EEA97AF6EE009A28EE50
:102D3000288A67EEA87AF5EEC07ADFED267AF1EE02
:102D400010FA48BFB1EE488A38EE278AFFF736FE00
:102D5000384669EE008AFFF731FE69EE007A534685
:102D60009FED1D7A68EE8A8A002067EE8A7A1B4AF8
:102D7000019468EEA98A009667EEA97ACDE902B5BA
:102D8000F5EEC07ADFED137AF1EE10FA48BFF1EEFE
:102D9000688A78EEA77AFCEEE77AF8EE677A084957
:102DA00038EE678A68EE077AFCEEE77ACDED047AB2
:102DB000C84796E6C2F38E4DA42E43203C604100E6
:102DC000E85F410008604100B05F4100AC5F410036
:102DD00008B74100BD37063500247449AC60410096
:102DE000304602F03BF8F18D0246E30FE80FA9F8F8
:102DF00000109C4623440146284493FBF7F390FBC4
:102E0000F7F0A3EB0C03401A95FBF2F1013302FB40
:102E10001151A9F804001B1A11441FFA83FC1A9BD4
:102E200091FBF2F0BCFBF3FB02FB10111FFA8BF0DD
:102E300003FB1BCBA9F806C0A9F80210BBF1000FD9
:102E400000D00130A9F808003046079201F00CFECE
:102E50008046304601F0EEFE079AB8F1040318BF31
:102E60000123012818BF0023184698467BB9B9F8FA
:102E700006301A998B420AD9CB4BCC4A5B6BCC49B2
:102E80009847404609B0BDEC068BBDE8F08F384648
:102E90000792FFF793FD079A3846DFEDC68A07EEE3
:102EA000902AB6EE008AF8EE677A27EE800A8AED5D
:102EB000030AFFF783FD07EE905A3846F8EEE77AEB
:102EC00067EE807A67EEA87A67EE887ACAED007AB4
:102ED000FFF774FD07EE904A631B079AF8EEE77A56
:102EE000B9F806109AED007A01FB07F4B9F808006A
:102EF00027EE800AAAF8180095FBF7F607FB16558F
:102F000020EE280A3D4420EE080A95FBF7F693FBD5
:102F1000F2F307FB1655013330EE477A8AED020AC9
:102F20009BB295FBF2F5B4FBF2F4B7FBF2F7069A0D
:102F3000AAF816308AED017A93801A9B11818B4290
:102F4000108255801480D78010D29BB29382BBF13F
:102F5000000F06D01A9B1A9AB1FBF3F302FB131170
:102F60008BB2069AD38201239846BAE5012398468C
:102F7000069B9982D982B4E507EE905A8A4B38466F
:102F8000DFED8C9AF8EEE78AD3F83490FFF716FD60
:102F9000B6EE009A884A384668EE807A874B9FEDF5
:102FA00085AA67EEA97A67EE897AF5EEC07AF1EE26
:102FB00010FA4CBF92469A46FFF700FD384628EEBD
:102FC000808AFFF7FBFC68EE807A384628EE298A73
:102FD00067EEA97ADFED779A28EE098A67EE897A9B
:102FE000B6EE009AF5EEC07ADFED757AF1EE10FAE2
:102FF00048BFB1EE488A38EE278AFCEEC87A17EE51
:10300000906AFFF7DBFC384628EE808AFFF7D6FC93
:1030100068EE807A384628EE298A67EEA97A28EE8B
:10302000098A67EE897AB6EE009AF5EEC07ADFED8E
:10303000647AF1EE10FA48BFB1EE488A38EE278A7A
:10304000FFF7BCFC384668EE809AFFF7B7FC68EEE5
:10305000807A07EE10BA384669EE8A9A67EE8A7A65
:103060009FED54AAF6EE008A69EE899A67EE897A96
:10307000B8EEC79A9FED537AF5EEC07ADFED507A3D
:10308000F1EE10FA48BFF1EE699A79EEA77ADFED1A
:10309000499AFCEEE77AF8EE677A38EE678A68EECE
:1030A000077AFCEEE77A17EE904AFFF787FC69EEA5
:1030B000007A414B414A384667EEA97A67EEA87A12
:1030C000F5EEC07AF1EE10FA4CBF9B469346FFF73F
:1030D00075FC384629EE008AFFF770FC69EE007A2D
:1030E000384628EE298A67EEA97ADFED329A28EE73
:1030F000288A67EEA87AF6EE008AF5EEC07ADFED50
:10310000307AF1EE10FA48BFB1EE488A38EE278ADD
:10311000FCEEC87A17EE905AFFF750FC384629EEBD
:10312000008AFFF74BFC69EE007A384628EE298AC0
:1031300067EEA97AF6EE009A28EE288A67EEA87A5A
:10314000F5EEC07ADFED1E7AF1EE10FA48BFB1EE6F
:10315000488A38EE278AFFF731FC384669EE008A44
:10316000FFF72CFC69EE007A53469FED167A68EE65
:103170008A8A002067EE8A7A0194009668EEA98A0E
:10318000114A67EEA97ACDE902B5F5EEC07ADFED16
:103190000C7AF1EE10FA48BFF1EE688A78EEA77A61
:1031A000FCEEE77AF9E500BFA42E4320EC60410075
:1031B000E85F4100C2F38E4DAC5F410008B74100AB
:1031C000BD370635002474496C6041000089012830
:1031D00094BF00200120704710B582B0044601F072
:1031E00029FD012811D0204601F02CFD9FED0A7A1F
:1031F00007EE900AC7EE277A77EE877AFCEEE77A39
:10320000CDED017A019802B010BD4FF4FA6301933D
:10321000019802B010BD00BF0000FA4438B52DED92
:10322000028B154608EE100A0C4602F00BF807EE6A
:10323000900AC7EE887ABDEC028BFCEEE77A17EEB7
:10324000903A1A0C9BB22A60236038BD2DE9F04FEA
:1032500087B01F461646009003919DF8404001F04C
:10326000F7FF0023ADF814300493002F48D09C42A0
:1032700002934FEA5000039C14BF4FF4E0434FF415
:103280000043A0F1030A1BB201932CE0019B1FFA3B
:1032900085F905F1030B214643EA060009F1FF3CDD
:1032A000029B4FEA4B089CFA9CFC40BA4246A38022
:1032B0002080A8F10608A4F802C04E44009801F04E
:1032C000F7FF20465946B6B202F09CF80498BDF8C4
:1032D00014207F1B2060A28044442068A2880490B0
:1032E000ADF814200CD0BA45554628BF3D46BA4526
:1032F000CCD2CBD0EB07C9D5013DEB07FCD4C5E759
:103300000398063007B0BDE8F08F00BF0320704778
:1033100010B541F4A04382B014BA06225BBA6946E4
:10332000CDF80240ADF8003001F0C2FF02B010BD90
:1033300038B51C4610601960154601F089FF2168F8
:10334000884202D201F084FF01462B680239023321
:1033500021F003012B60216038BD00BF2DE9F04151
:103360009C1C07460D46164601F072FFA04207D28C
:10337000094B0020094A5B6B0949BDE8F041184739
:1033800045F4A0452246314638466DBA3580BDE841
:10339000F04101F08DBF00BFA42E43201861410011
:1033A000386141000331B0EB410F2CBF01200020F8
:1033B000704700BF10B5002482B00094FFF746FFAD
:1033C00002B010BD70B505690446284601F046FFFD
:1033D0000A4905EBC503226B0968201DDB00483B49
:1033E000194400F013FF064618B101233046E3707C
:1033F00070BD284601F038FF304670BD10234020D4
:1034000038B5034604301D6900F024FF044630B986
:10341000054B064A5B6B06499847204638BD28464F
:1034200001F028FFF9E700BFA42E4320E46141002A
:10343000046241002DE9F84300EBC004DFF88C8002
:103440004FF0000C0E46E400D8F800300546174651
:10345000483C234483F841C001F000FF304600F0AF
:10346000B7FE60B915492B46154A81464C6B154984
:10347000A047284601F0F8FE4846BDE8F8832946F3
:103480000A2001F0A9FFD8F800203946304622442E
:1034900000F0A2FE814650B908492B460A4A4C6BFF
:1034A0000849A04729460B2001F096FFE1E7D8F82C
:1034B000003001221C4484F84120F3E7A42E43206D
:1034C0001462410004624100506241001023402018
:1034D000F8B5184E34780CB12046F8BD01F0ACFEBA
:1034E000154F00EBC0004FF496721449C00001F074
:1034F000E5FE38600028EFD0254609E03B6803EB85
:10350000C003184608F0D8F980F8415080F84050C0
:1035100001F092FEA0424FF0480204EBC4004FF0CD
:10352000000104F10104E9D801231C463370204650
:10353000F8BD00BF0A234020102340205C614100F9
:1035400010B5054C237803B910BD044B186801F081
:10355000F9FE0023237010BD0A23402010234020D1
:103560002DE9F04745781E462DB100233370737066
:103570002846BDE8F087DFF8E0C004460F469046D5
:10358000DCF800C0D0F810A0BCF1000F14D0DCF8BB
:103590000C90B9F1000F0FD0C8470028E8D065782B
:1035A000002DE5D1012543463A465146012001F060
:1035B000E1FE2846BDE8F08700233370737094F86D
:1035C0000090B9F1020F24D0B9F1010F27D0216B7F
:1035D000201D00F049FE436843B91B4918461B4AA9
:1035E0004B6B1B4998472846BDE8F087BB4225D165
:1035F000438843451DD10278B9F1020F43783270F8
:10360000737010D0B9F1010FC9D12046FFF7F8FE51
:10361000C5E72046FFF7D6FE0028D8D1A8E75046D8
:1036200001F030FED3E7504601F01EFE0023E370A8
:10363000B5E74FF4C571074801F0ACF940F28911C4
:10364000044801F0A7F900BFA42E432044614100C3
:10365000046241005C6141000C2340202DE9F843E5
:10366000061D914605462C220C46304600211F4679
:1036700008F022F91C4B4A4630461B686BB3D3F85E
:103680000080B8F1000F28D03B462146C0470646CF
:10369000204601F0E9F9E8B1042818D000232B7086
:1036A000204601F0C7FAB0FA80F320465B096B7040
:1036B00001F000FCA870204601F09AF93A46014654
:1036C0001C23042001F070FE3046BDE8F88301237E
:1036D0002B70E5E702232B70E2E73B46214600F022
:1036E000D7FC0646D4E700BF0C2340202DE9F84F55
:1036F0000C46804608461D46164601F079F90746F5
:10370000204601F0CFFB304B81461968B9B14B68B8
:10371000ABB12A46204631469847054610B928469F
:10372000BDE8F88FB9F1000F19D1012532463946AD
:1037300020230D2001F038FE2846BDE8F88FDFF881
:103740008CA007EBC702C8F83050DAF8003003EB62
:10375000C20313F8073C4BB3B9F1000F02D0A6F82F
:103760001490E2E7204601F08BFB0028DDD0D8F86A
:10377000104008F10409204601F070FDDAF800500D
:1037800004EBC401D8F83020484606F11403C90000
:103790004839294400F024FD0546204601F064FD27
:1037A000002DC2D1484600F00BFDB8E708F1040B2C
:1037B0002A4638465946FFF73DFE05460028CBD13C
:1037C000584600F0FDFCAAE70C23402010234020BF
:1037D0001A4B1B6870B5044623B19B6813B1BDE852
:1037E000704018472378022B08D02046FFF7EAFDE7
:1037F00088B1A3782BB12378012B0FD0012528465F
:1038000070BD251D284600F02BFD20B1284600F094
:103810000FFD0028EFD10025284670BD251D284644
:1038200000F006FD0028F6D0284600F019FD0546F8
:103830000028F0D02046FFF7E3FDE0E70C2340200E
:10384000C37803B9704710B50446006901F00CFD58
:103850000023E37010BD00BF036973B103EBC30322
:10386000064ADB001268483B134493F840200AB92B
:1038700083F84120043000F0A3BC7047102340209F
:10388000F0B58FB004462C220E4603A8002108F0A4
:1038900013F80023214603A81A4600F0F9FB00287C
:1038A0003ED02046002501F0A3F804464FF4965080
:1038B0004FF422732D4A014602900120019501F038
:1038C00023FD0190002843D001AA03A92046FFF759
:1038D000B1FD054603A800F073FC254A04EBC403C0
:1038E000DB00483B002D3CD01068314603441A46AB
:1038F00003F14000D2F800C0103252F80C7C1031B5
:1039000052F8086C52F8044C824241F810CC41F84D
:103910000C7C41F8086C41F8044CEBD101980DE0A7
:103920000546204601F064F8114B00EBC002284622
:103930001B68D20001950295483A1344002283F88F
:10394000412083F8402001F0FDFC28460FB0F0BD77
:1039500004EBC403064A0546DB001268483B1344E7
:10396000ECE7126801981344E8E700BF5C6141008E
:10397000102340202DE9F0430C468FB015468046B9
:1039800001F036F8214600EBC0044C4F06460022F9
:10399000E4003B6801F14000483C234483F84120A7
:1039A000D1F80090103151F80CEC103351F808CCDC
:1039B00051F8042C814243F8109C43F80CEC43F876
:1039C00008CC43F8042CEBD12C22002103A807F0EB
:1039D00073FF0023414603A81A4600F059FB002854
:1039E00045D04FF496504FF0000C40F2C223344AB9
:1039F000014602900120CDF804C001F085FC019041
:103A0000002836D0304601F029FC396801AA03A805
:103A1000214400F0FBFB00283DD04FF0050801A930
:103A200003A800F021FC08F1FF3843681FFA88F86A
:103A3000002B30D0437873BBB8F1000FEFD1304684
:103A400001F012FC03A800F0BBFB3B6801251C44FD
:103A500084F8415084F8405001F086FC022813D9C4
:103A6000184B0320184A5B6B184998470CE0CDE9C6
:103A7000010001F079FC012805D9124B0220144AFB
:103A80005B6B124998476DB9019801F05BFC2846C1
:103A90000FB0BDE8F083304601F0E6FB03A800F06C
:103AA0008FFBE6E701F060FC0128CED9054B022030
:103AB000084A5B6B05499847C7E700BF10234020C1
:103AC0005C614100A42E4320CC61410004624100AE
:103AD00074614100A46141000069704770B50C46F3
:103AE00084B0114605461A462046089B04AEFFF7EF
:103AF0001FFC002328462A2126F8023D324603F007
:103B000073FFBDF80E305B0619D400243246112134
:103B10002846ADF80E4003F067FFBDF80E3013F4F1
:103B200080661AD015492B46154A20464E6B15491A
:103B3000B047284604F0B4F8204604B070BD01F048
:103B400013FC30B10D492B460F4A01204C6B0D4937
:103B5000A047284604F0A4F8D7E7012480230222D6
:103B600028462146009403F051FF80232846009602
:103B70001A46072103F04AFF2046DEE7A42E432021
:103B8000606441005064410024644100F0B583B09A
:103B900000240F46112102AA064622F8024D03F026
:103BA00023FFBDF8060010F480650CD0134933469E
:103BB000134A20464D6B1349A847304604F070F86D
:103BC000204603B0F0BDB7F5806F09D30B492846F6
:103BD0003B460D4A4C6B0B49A047284603B0F0BD4D
:103BE0002A461021304603F001FF304647F4806238
:103BF000102103F0FBFE0120E3E700BFA42E4320C9
:103C00009064410050644100C064410030B583B00D
:103C100000231121054602AA22F8023D03F0E4FE2A
:103C2000BDF8060010F480640BD1094B2046094A08
:103C30005B6B09499847284604F032F8204603B0E8
:103C400030BD28460122742103F0D0FE0120F6E7A2
:103C5000A42E4320FC6441005064410000227421E2
:103C600003F0C4BE00B583B00023112102AA22F8DC
:103C7000023D03F0B9FEBDF80600C0F3802003B09A
:103C80005DF804FB70B582B000233821054602AA16
:103C900022F8023D03F0A8FEBDF8064064B90849C9
:103CA0002B46084A20464E6B0749B047284603F08A
:103CB000F7FF204602B070BD012002B070BD00BF0A
:103CC000A42E4320286341005064410070B50C4687
:103CD00084B041B92B4B08462B4A5B6B2B49984764
:103CE000204604B070BD0DF10E022821054603F0F8
:103CF0007BFEBDF80E20D3B2628023700B2B2CD834
:103D0000DFE803F023080606060606060606060692
:103D10000120E6E7120A102A29D801261C48D1B250
:103D200006FA02F2104010B34A1E164BD2B25E6B76
:103D3000202A22D9174B184A00201449B047284698
:103D400003F0AEFF002004B070BD0E492B46134AAD
:103D500000204C6B0D49A047F1E70A4A002000956E
:103D60000A49566B0E4AB04700232370E7E705491E
:103D700043F4045320224E6B63800A4B53F82230E5
:103D8000D9E700BFA42E43209C634100506441004A
:103D9000160001008C634100D4634100B063410010
:103DA000F4634100746241002DE9F04F87B004468E
:103DB0000F4602F1010A029200250393DFF8A0B03A
:103DC000DFF8B090DFF8A08014E022F8023D204632
:103DD00003F00AFEBDF816305B0630D401F0C4FAD9
:103DE00023464A46414618B1DBF834600120B0470B
:103DF000AA4517D03946204601F054FA0135064647
:103E000006AA00232A210028DFD115492346154A96
:103E10004D6B1549A847204603F042FF304607B0D6
:103E2000BDE8F08F00200E4A00940646546B029BBA
:103E30000E4A0D49A047304607B0BDE8F08F039900
:103E40002046FFF743FF06460028E7D104492346F2
:103E5000074A4C6B0449A047304607B0BDE8F08FD5
:103E6000A42E432030654100506441007C65410030
:103E7000B86541005865410070B584B014461D46D0
:103E8000642203AB0646FFF78FFF68B19DF80C3044
:103E9000A3420BD0084A00200849CDE90034084B62
:103EA000546B084AA047002004B070BD002DFBD021
:103EB0003046FFF7E7FEF7E7A42E432050644100A9
:103EC000F86241004466410001230B22FFF7D4BF92
:103ED00030B583B00D460446FFF798FE10B90020B8
:103EE00003B030BD2046FFF7CDFE0028F7D02946AD
:103EF00001AB64222046FFF757FF0028EFD0204691
:103F0000FFF7C0FE0028EAD09DF80430022BE7D06E
:103F1000054A0020BDF80630556B0449044AA847FD
:103F2000204603F0BDFEDAE7A42E43205064410092
:103F3000DC64410070B584B016466422054603ABCC
:103F4000FFF732FF044670B19DF80C30BDF80E202B
:103F5000062B0BD01B49002000922B461A4A044620
:103F60004D6B1A49A847204604B070BD1005F1D525
:103F700012F4806316D0012329460E20337001F01D
:103F80002BFABDF80E20D1050ED49305EBD501F028
:103F9000EBF90328E7D90B4B04200D4A5B6B0B4967
:103FA0009847E0E73370EEE701F0DEF9032805D922
:103FB000044B0420074A5B6B04499847BDF80E2068
:103FC000E3E700BFA42E4320E065410050644100B8
:103FD0002C6641001066410030B585B0642205466C
:103FE00003ABFFF7E1FE044640B90C492B460C4AEF
:103FF0004D6B0C49A847204605B030BDBDF80E30CA
:10400000062BF8D00024054A00932B462046556B1A
:104010000449054AA847204605B030BDA42E4320D8
:104020007066410050644100A466410070B51546B9
:10403000064600222B46FFF7BDF9044602462B46F2
:104040003146002001F096F9204670BD30B585B0AC
:10405000002404AA214622F8024D03F0C5FCBDF855
:104060000E2041F212139A4209D0064920460092CE
:10407000054A4D6B0549A847204605B030BD0120D3
:10408000FBE700BFA42E43205C6341005064410065
:104090002DE9F0470C4692B0804608469246994674
:1040A00000F0A6FC0546204608F10C0700F010FEC3
:1040B000ADF80400204600F0FBFDADF806002046F8
:1040C00000F018FEADF80800204600F025FD04239E
:1040D0002946ADF80A000DEB0302112001F04AF960
:1040E00020220021384607F0E7FB384623682146A6
:1040F00098470646D8B1202200210AA8002507F0DB
:10410000DBFBD8F8246004950AAA039503AB059558
:1041100021463846CDE90655CDE908553568A8470A
:10412000064640B9D8F8243038461B6B98473046CD
:1041300012B0BDE8F087BAF1000F07D00AAD0FCD7D
:10414000AAE80F0095E80F008AE80F00B9F1000F08
:1041500010D003AD0FCDC9F80000C9F80410C9F89C
:104160000820C9F80C3007CDC9F81000C9F81410A0
:10417000C9F81820204600F05DFD01281BD020461C
:1041800000F060FD9FED0D7A07EE900AC7EE277AEA
:1041900077EE877AFCEEE77A17EE903A0022304607
:1041A000C8F80030C8F80820A8F8062088F80420CD
:1041B00012B0BDE8F0874FF4FA63EFE70000FA446D
:1041C00020B1436A13B11B6B0C301847704700BF16
:1041D000436AC0685B681847436A0C30DB6818475D
:1041E0002DE9F041456A044600F10C06006AAD680D
:1041F00017469846A84738B1636A42463946304662
:104200001B69BDE8F0411847BDE8F08170B5044670
:104210001546D0E908039B68984738B1636A294678
:1042200004F10C005B69BDE87040184770BD00BF29
:1042300010B582B00021436A044602AA9B6902F8C5
:10424000011D0168C068984710B19DF807302371BF
:1042500002B010BD436A0168DB6AC068184700BF3E
:10426000436AC0685B6A1847F0B5002383B0051D38
:10427000466A471D04464360821D83602B460097B3
:104280000C30B66AB047A060284603B0F0BD00BF4E
:1042900002880B889A4204D814BF4FF0FF300020E8
:1042A00070470120704700BF42884B889A4204D370
:1042B00014BF4FF0FF30002070470120704700BF4F
:1042C0002DE9F003048840880B881FFA84F84A8897
:1042D000A0FB04019EB2A0FB0845A2FB032308FB40
:1042E0000155A2FB060106FB03118D4208BF844263
:1042F00006D314BF4FF0FF300020BDE8F003704735
:104300000120BDE8F003704702880B8810B4448890
:10431000488802FB04F203FB00F39A4206D314BF61
:104320004FF0FF3000205DF8044B704701205DF82E
:10433000044B70472DE9F84F002A00F08380904627
:104340001F320F46002108F1FF3952090646384650
:104350001FFA89FA9B4692000D460AF1010A07F0FE
:10436000ABFAACB2424631465846234600F08CFACE
:1043700036F8153083420AD96A09012304F01F0474
:1043800003FA04F457F822301C4347F82240013561
:10439000AA45E6D1B9F1000F51D04FF0000C01252C
:1043A0006046E646614664464FEA541804F01F032F
:1043B000621C57F8288005FA03F392B213EA080347
:1043C0002DD001314B0901F01F0157F8233005FAB8
:1043D00001F119402AD006EB440336F814105B882B
:1043E000994225D328D9BEF1000F19D0A2EB0C03B6
:1043F000810001304FF0000E013306EB010480B262
:1044000048BF013391450CEB63039BB273521146D5
:1044100036F8133063801446C6DCBDE8F88F9E463C
:10442000914514461146BFDCBDE8F88F8E46F7E78C
:104430004FF0010EA446F3E76446A446F0E7484671
:10444000BDE8F88F4E21014800F0A4FA8C674100C6
:10445000012A2DE9F04F8A4689B040F2D480844683
:1044600008469346002800F0CD800027BA463E4615
:104470000097B3450BEB070500F295808542A6EB4C
:104480000B01A8BF054689B2ADB2A9421ED20024D5
:104490000CEB8109A6464B1C8E4299B20ED03CF81B
:1044A00027300EF1010239F82480A3EB0803002B1A
:1044B000B8BF5B425B45B8BF1FFA82FEA94204F158
:1044C0000104E8D3D64501D9F24600960137BEB2C1
:1044D0008642CED3BAF1000F00F09480009A0AF120
:1044E000010A0021D9460CEB82033CF822200291FC
:1044F0000C4606930E4604921FFA8AF25B888346A6
:1045000007924FEA520A05930A461EE0039CBFB287
:1045100002960CEB44050CEB47040194079CB8FB96
:10452000F4F8BEFBF4FE2CF8128082B22CF813E0F3
:104530003CF821400CEB81032C80019800265B881D
:10454000038001318CB2A34544D90098531C0CEB75
:10455000420584429BB202F10200F2D00CEB430709
:104560003CF8214080B20197069F0390B7F800E025
:10457000029FA4EB0E0EBEF1000FB8BFCEF1000EED
:10458000CE45A8BF47F0010717F0FF0E12D0049FD9
:10459000101D0AEB0708059F0AEB070ED71C002E1B
:1045A000B4D1039AC6E785424FF00001A8BF054683
:1045B000ADB26CE704980CEB81030131CDF808E053
:1045C00020445B888CB2012604900598A3451844CA
:1045D0000590BAD8CB468EB1049B501C079D941C05
:1045E00053441946059BB1FBF5F153442CF81210C6
:1045F00081B2A2B2B3FBF5F32CF8113050080028B9
:104600007FF433AF8246504609B0BDE8F08F00BF5B
:10461000032A13D8DFE802F00E0A0602084B042230
:1046200003F0B6BE074B042203F0B2BE064B0422D1
:1046300003F0AEBE054B042203F0AABE704700BFD4
:1046400009434000C1424000A9424000914240005D
:10465000F8B50446BDF81C609DF820701D46069B09
:10466000FFF768FE324601462046FFF7F1FEBB1E0B
:104670000646012B06D920463A463146FFF7C8FFC9
:104680003046F8BD0028F6D0002334F823202A4411
:1046900024F8232001339AB29642F6D83A4631469E
:1046A0002046FFF7B5FF002334F82320521B24F8DF
:1046B000232001339AB29642F6D83046F8BD00BFA7
:1046C00010B5152204460449042000F0F7FD10B18E
:1046D00000234480037010BD9C67410038B110B5C1
:1046E0000446006800F02EFE0023236010BD7047D2
:1046F00038B52E2205460C461420064900F0DEFD92
:1047000030B100230122C56004810270436003615F
:1047100038BD00BF9C67410010B50446008903F016
:1047200025FD2061003018BF012010BD10B11030F0
:1047300003F0EEBC704700BF60B110B504460068DE
:1047400018B1103003F0E4FC206800F0FBFD0023FA
:10475000236010BD704700BFF8B507460E461546EA
:104760000649622210201C4600F0A8FD28B1022351
:1047700007814681456004730370F8BD9C67410062
:1047800038B110B50446006800F0DCFD002323605A
:1047900010BD704708B540B10378012B00D008BDAB
:1047A0000069BDE8084003F0C7BC7D21014800F066
:1047B000F1F800BF9C67410010B570B10478012C7E
:1047C00001D0012010BD00698388934201D00020F0
:1047D00010BD03F0F9FC204610BD8B21014800F00C
:1047E000D9F800BF9C6741002DE9F04180B3037800
:1047F0000446012B02D00120BDE8F0810669B6F81D
:104800000480904502D00020BDE8F081B8F1000F8F
:10481000F1D000258F1E2946304603F009FD266998
:10482000D4ED037A07EE100AB36867EE277A03EB3C
:104830008503013593ED007AA9B277EE877A884532
:10484000FCEEE77A17EE903A27F8023FE4D8D2E779
:104850009F21014800F09EF89C67410010B560B1AF
:104860000378012B01D0012010BD0489944201D0AE
:10487000002010BD4160184610BDB821014800F06D
:1048800089F800BF9C6741002DE9F843002879D0E2
:1048900093424BD20478012C4BD050D3022C45D1FB
:1048A000B0F808C045890CF1010C067B4FEA5C0C9E
:1048B00005EB0C04A4B21EB9521BA2EB0C0292B27F
:1048C000A3423FD39A423DD9A3EB0C04641BA4B28C
:1048D00005EB0409A14547DB0022964604F10108D7
:1048E00031F8147001321FFA88F4BE4492B24C457C
:1048F000F4DD56B3002A38D0D0ED016ADFED237A1B
:10490000BEFBF2F292B266EEA77A07EE102AB8EE7C
:10491000C77AF4EEC77AF1EE10FA13DDC7EE267A05
:10492000FCEEE77A17EE903A98B200E00020BDE87E
:10493000F88340680028FAD030F81300F7E7408881
:10494000BDE8F8834FF6FF70F1E763449BB21D4466
:10495000AB42CFDC5E1C31F813400132B3B2A64447
:1049600092B2AB42F6DDC5E726B140F2111108481C
:1049700000F010F863449BB21D449D42F5DB3246C3
:10498000B646E7E7CC21024800F004F800FF7F4775
:104990009C67410000B5074A83B0034600200091A0
:1049A0000549546B054AA047054B1B6803B198475E
:1049B000FEE700BFA42E4320C8674100B067410056
:1049C0001423402008B10120704710B5044600F0C0
:1049D000CBFC30B1034B0120034A5B6B0349984782
:1049E000204610BDA42E4320D0694100EC6941004F
:1049F00010B50446FFF7E6FF00B1E06810BD00BF48
:104A000038B50D460446FFF7DDFF00B1E56038BD5F
:104A100010B50446FFF7D6FF08B1606A10BD00204C
:104A200010BD00BF38B50D460446FFF7CBFF00B1FF
:104A3000656238BD10B50446FFF7C4FF08B1A06A2F
:104A400010BD002010BD00BF38B50D460446FFF76D
:104A5000B9FF00B1A56238BD10B50446FFF7B2FF3B
:104A600008B10123237110BD10B50446FFF7AAFF5A
:104A700000B1606B10BD00BF38B50D460446FFF7AE
:104A8000A1FF00B1656338BD10B50446FFF79AFF7A
:104A900078B1A38FB3EE066AF7EE007A07EE103A0C
:104AA000B8EE477AC7EE066A77EEE67A17EE900A16
:104AB00010BDF7EE007A17EE900A10BD10B52DED7F
:104AC000028B044608EE101AFFF77CFF70B1F3EE7C
:104AD000067AB6EE007A28EE278A77EEC87A77EE65
:104AE000877AFCEEE77A17EE903AA387BDEC028B4B
:104AF00010BD00BF10B50446FFF764FF08B194F87D
:104B0000450010BD38B50D460446FFF75BFF08B100
:104B100084F8455038BD00BF10B50446FFF752FF7A
:104B200008B194F8460010BD38B50D460446FFF7AD
:104B300049FF08B184F8465038BD00BF10B504469F
:104B4000FFF740FF08B194F8380010BD38B50D46A6
:104B50000446FFF737FF00B1258738BD38B50D464D
:104B60000446FFF72FFF00B1256038BD10B504469D
:104B7000FFF728FF08B1206910BD002010BD00BF5D
:104B800038B50D460446FFF71DFF00B1256138BD5D
:104B900038B50D460446FFF715FF18B10DB163692E
:104BA0002B60207E38BD00BF70B50E46154604460A
:104BB000FFF708FF08B16661257670BD10B50446A1
:104BC000FFF700FF00B1207F10BD00BF38B50D46D4
:104BD0000446FFF7F7FE00B1257738BD10B504464F
:104BE000FFF7F0FE08B1206A10BD002010BD00BF25
:104BF00038B50D460446FFF7E5FE00B1256238BD25
:104C000010B50446FFF7DEFE08B1B4F9300010BD60
:104C100010B50446FFF7D6FE08B1B4F9320010BD56
:104C200070B50E4615460446FFF7CCFE08B1268641
:104C3000658670BD10B50446FFF7C4FE00B120794B
:104C400010BD00BF10B50446FFF7BCFE40B123798C
:104C5000032B05D8DFE803F006060202A06810BDAA
:104C6000024810BD4FF0FF4010BD00BF0000C07FE4
:104C700010B50446FFF7A6FE00B1608F10BD00BF5F
:104C800038B50D460446FFF79DFE00B1658738BD77
:104C900010B50446FFF796FE00B1A08F10BD00BF0F
:104CA00038B50D460446FFF78DFE00B1A58738BD27
:104CB00010B50446FFF786FE00B1E08F10BD00BFBF
:104CC00038B50D460446FFF77DFE00B1E58738BDD7
:104CD00010B50446FFF776FE08B1B4F8400010BDE9
:104CE00038B50D460446FFF76DFE08B1A4F84050F4
:104CF00038BD00BF10B50446FFF764FE08B1B4F834
:104D0000420010BD38B50D460446FFF75BFE08B102
:104D1000A4F8425038BD00BF38B50D460446FFF731
:104D200051FE08B184F8625038BD00BF38B50D4659
:104D30000446FFF747FE08B184F8445038BD00BF71
:104D400010B50446FFF73EFE08B194F8440010BDCC
:104D500038B50D460446FFF735FE08B184F82C50EF
:104D600038BD00BF10B50446FFF72CFE08B194F81B
:104D70002C0010BD38B50D460446FFF723FE08B1E0
:104D800084F8525038BD00BF38B50D460446FFF7D1
:104D900019FE08B1A4F8505038BD00BF38B50D4613
:104DA0000446FFF70FFE00B1E58538BD38B50D4666
:104DB0000446FFF707FE08B184F8635038BD00BF12
:104DC00010B50446FFF7FEFD08B194F8630010BD6E
:104DD00038B50D460446FFF7F5FD08B184F8645078
:104DE00038BD00BF10B50446FFF7ECFD08B194F8DC
:104DF000640010BD38B50D460446FFF7E3FD08B169
:104E000084F8655038BD00BF10B50446FFF7DAFDE1
:104E100008B194F8650010BD38B50D460446FFF79B
:104E2000D1FD08B184F8665038BD00BF10B5044606
:104E3000FFF7C8FD08B194F8660010BDF8B50F463D
:104E400016461D460446FFF7BDFD28B184F8547090
:104E5000A4F85660A4F85850F8BD00BF10B5044639
:104E6000FFF7B0FD08B1B4F8600010BD38B50D46CD
:104E70000446FFF7A7FD08B1A4F8605038BD00BF95
:104E800010B50446FFF79EFD08B194F8470010BD29
:104E900038B50D460446FFF795FD08B184F8475034
:104EA00038BD00BF10B50446FFF78CFD08B1B4F85B
:104EB0004A0010BD10B50446FFF784FD08B194F810
:104EC0004C0010BD38B50D460446FFF77BFD08B118
:104ED00084F84C5038BD00BF10B50446FFF772FD92
:104EE00008B1B4F84E0010BD38B50D460446FFF7C2
:104EF00069FD08B1A4F84E5038BD00BF10B5044696
:104F0000FFF760FD08B194F8480010BD38B50D46B4
:104F10000446FFF757FD08B184F8485038BD00BF7C
:104F20002DE9F04F93B0044600F01EFA01286DD928
:104F30005F4B2046D3F834B0FFF744FD002868D11A
:104F400082462046FFF73EFD002869D094F83830AD
:104F500020460F93FFF736FD002867D0638F204669
:104F60000E93FFF72FFD002866D02046A58FFFF790
:104F700029FD002866D02046E68FFFF723FD002894
:104F800066D02046B4F84070FFF71CFD002865D0BD
:104F90002046B4F84280FFF715FD002864D0636B0B
:104FA000042B7FD9434B20461193FFF70BFD0028BC
:104FB00061D1414B20460D93FFF704FD002869D0D5
:104FC000204694F84590FFF7FDFC002868D0B4F81F
:104FD0005A2020461092FFF7F5FC109A08B194F879
:104FE0004600099253460D9A0A9002200792119AA0
:104FF000CDF8209002953149CDE905820E9A0192B3
:105000000F9ACDE9036700922D4AD84713B0BDE847
:10501000F08F2046D4F80CA0FFF7D4FC002895D1DF
:105020000F902046FFF7CEFC002897D10E90204627
:10503000FFF7C8FC002898D105462046FFF7C2FCC0
:10504000002898D106462046FFF7BCFC002898D1DE
:1050500007462046FFF7B6FC002899D18046204637
:10506000FFF7B0FC00289AD1164B11932046FFF7AA
:10507000A9FC00289DD094F86230002B99D01249E9
:1050800020460C4A012B18BF11460D91FFF79AFCE0
:10509000002895D181462046FFF794FC002896D140
:1050A000024696E7094A52F823301193DEE700BF23
:1050B000A42E432008B741008C694100EC694100EF
:1050C000946941008869410090694100D4674100BA
:1050D00038B50546FFF776FC044648B16B6B042BE8
:1050E00008D92B4B00202B4A5B6B04462A49984772
:1050F000204638BD0AD0AB8F162B11D9244B002087
:10510000264A5B6B044624499847F1E700F0C2F851
:1051100090B91F490446224A4B6B1F499847E7E75D
:105120002B8F013B3E2B12D9194B00201D4A5B6B84
:10513000044619499847DBE72B79032BDBD1144B45
:105140000020194A5B6B044613499847D0E76B6B04
:105150002A794BB9032A0CD10D4918461C46134A2B
:105160004B6B0D499847C3E7032A06D033F004037D
:10517000BED1012385F84C30BAE795F84C000028E1
:10518000F4D1034B04460A4A5B6B03499847AFE7E7
:10519000A42E4320E8674100EC6941008468410087
:1051A00000684100B8684100406841000C69410056
:1051B00048694100436970B5466B3BB383692BB3C3
:1051C000836A1BB3436A0BB3C36AFBB18368EBB159
:1051D000C368DBB10369CBB1F6B10368202B16D8E5
:1051E00043680F2B13D9C3690BB1036A7BB1044623
:1051F0000A4D01260FCC0FC50FCC0FC50FCC0FC524
:1052000094E8030085E80300304670BD26B1044AE7
:1052100000200449B0470026304670BDA42E43202C
:10522000486A4100C46E410038220021014806F05E
:1052300043BB00BFA42E4320014B1868704700BF3A
:10524000A42E4320014BDB6A184700BFA42E432045
:10525000014B5868704700BFA42E4320014B5B6987
:10526000184700BFA42E4320014B9B69184700BF7D
:10527000A42E4320024BDB6903B11847704700BFDF
:10528000A42E4320024B1B6A03B11847704700BF8E
:10529000A42E4320024BD869003018BF012070476C
:1052A000A42E4320014B5B6A184700BFA42E432065
:1052B000014B9B6A184700BFA42E43202DE9F04103
:1052C0000D4C0F4690460646A3689847054630B9F0
:1052D000636B0A4A0A4998472846BDE8F081094BA2
:1052E0001B68002BF8D01C683A4643463146A0475D
:1052F0002846BDE8F08100BFA42E4320246A410067
:10530000C46E410018234020F8B590B10C461146F8
:105310001A46A4FB006777B904FB00F52846FFF79F
:10532000CDFF044618B12A46394606F0C5FA204694
:10533000F8BD0446FBE7CF210148FFF72BFB00BF78
:10534000346A4100064B1B6810B504460BB15B681C
:105350009847044B2046DB68BDE81040184700BF63
:1053600018234020A42E4320014B93F830007047AF
:10537000A42E432070B50B4C84B0012500EB4006F1
:105380008DF8040003FA05F004EB860302915C68D3
:10539000039524B111469B68024601A8A04704B0BA
:1053A00070BD00BF2000402070B50A4C84B0154687
:1053B00000EB40028DF80400072604EB8200029106
:1053C0000396446824B11A462946836801A8A04779
:1053D00004B070BD2000402010B584B0084B0022FE
:1053E000029100EB40018DF8040003EB810303926E
:1053F0005C681CB19B68114601A8A04704B010BDB1
:10540000200040204A1E31B10388013A5BBA20F8DF
:10541000023B531CF8D17047006800BA704700BFC8
:1054200000BA0860704700BF004870475C6A4100DE
:10543000343003F009BF00BF70B50446343003F0C8
:10544000CBFE68B9D4F8482303460125D4F81813D5
:1054500004F54570136155719371BDE870400847BC
:1054600070BD00BF38B50468054654B104F134007E
:1054700003F0A4FED4F87003FFF764FF2046FFF7A3
:1054800061FF2846BDE83840FFF75CBF2DE9F04FCB
:105490008DB00646174601200491102107934FF462
:1054A0008073D94AFFF730FF804640F20113D64A95
:1054B0004FF45E710120FFF727FF0446B8F1000F9B
:1054C00000F0E581B0FA80F56D09002D40F0DF8134
:1054D00000F1340300F5557200F1140AC8F8000019
:1054E000029318460092314653463A4603F046FE70
:1054F00080B329463846FFF74BFB83460820B4F8B3
:10550000546303F0B7FEB4F86213B4F8543300FBED
:1055100006F2B4F8606338460B4471005E008E42B8
:1055200038BF0E46964238BF1646FFF7D5FC864276
:1055300038BF0646C4F87463BBF1000F40F07281B7
:105540004FF4C272B0493046FFF7B8FE0546C4F8C2
:10555000700340B940464FF00008FFF783FF404614
:105560000DB0BDE8F08FB4F85693082003F082FE2A
:1055700000FB09531A4604F1080104F1100904F173
:10558000060EE01D04F1040C6166A5646465C4F8B0
:105590008050C4F85890C4F89490C4F8D090C4F8DF
:1055A00084C00391C4E917E0C4E92F553846CDE91A
:1055B0000532FFF765FC0399DDE9053218B1C4F83F
:1055C0000C91C4E93E55C4F83451C4F83851C4F8BC
:1055D0004891C4F86C51C4F87051C4F88091C4F873
:1055E0008C11C4F8AC51C4F8B051C4F8C091C4F8DF
:1055F000F051C4F8F421C4F80492C4F82822C4F885
:105600002C22C4F83C92BBF1000F08D02E44C4F801
:105610007822C4F87C32C4F88462C4F88C92C4F84E
:10562000B432524604F55C73C4F8B852C4F8C89258
:105630003946C4F8EC52C4F8F052C4F8009302980A
:10564000C4F82453C4F8484303F0A6FD002881D0D1
:1056500004F1AC0304F1700B002205211D465846ED
:10566000059302F05FFF28460022052103F0ACF904
:105670003846FFF705FC002840F0F98004F59273E6
:1056800004F5AE75082205210693184604F5CE737D
:10569000099504F50679039303F0A0FA284604F56A
:1056A000F07500230821226A089503F0ABF8B4F8DE
:1056B0005A533846B4F85C63FFF758FA2B4600900B
:1056C00032460821039803F023FCB4F8582308213C
:1056D000089803F001FB3846FFF770FA0546384694
:1056E000FFF77CFA082103462A46CDF800A0484679
:1056F00002F094FF0BA93846FFF74AFA002840F061
:10570000AF8004F5297604F53775082104F5457A4C
:10571000304603F0F3F802220421284603F05EFA33
:10572000049B5046196803F017FD5946029803F090
:10573000ADFD5846059903F0A9FD3846FFF7A0FBDB
:10574000002840D004F1E80B0598594603F09EFD6F
:105750000699584603F09AFDDDF824B0069859469C
:1057600003F094FD5846039903F090FDDDF820B056
:105770000398594603F08AFD4946584603F086FDD2
:1057800038460021FFF704FA10BB4846314603F0C3
:105790007DFD2946304603F079FD2846514603F049
:1057A00075FD029803F014FD0546E0B9174B184A41
:1057B0005B6B184998474046A846FFF753FE4046A2
:1057C0000DB0BDE8F08FDDE9050103F05FFDC3E733
:1057D00004F51A774846394603F058FD31463846F5
:1057E00003F054FDD5E7029803F0EEFC07980A4950
:1057F000C4F84C034046094A094BC8E90112C8F8ED
:105800000C300DB0BDE8F08F8C6A4100A42E43200F
:10581000A46A4100C46A4100395440003154400038
:10582000655440000820B4F8545303F023FD06F1FA
:105830000A034FF4C2721A4900FB0530FFF73EFD20
:105840000546C4F8700300283FF484AE0820B4F87D
:10585000569303F00FFD331D00FB09522B448AE6DB
:105860000B9A082104F51A7003F012FC49E7384638
:10587000FFF744FB0028228D4FF0050114BF1E23C3
:105880004FF4967304F1E80003F098FAF6E6404608
:105890004FF00008FFF756FD2046FFF753FD5EE688
:1058A0008C6A4100800080B200EB510310809BB2F3
:1058B0008B42538014D3508030B4B3FBF1F40025F5
:1058C00001FB14310124032395819480D4805481F9
:1058D00014825482D58195821180138130BC704727
:1058E0000123002103209380538193811382D1806F
:1058F000518291821081D081704700BF2DE9F04F15
:105900008BB0914604460025069309AB05900A46E4
:1059100007912146D9F80000009308ABCDE908555E
:10592000FEF7DCF8002865D0099BDFF8FCA21C46D6
:10593000C5F52C63089EB34AAFB29C42304602EBD9
:1059400005014FF0000B28BF1C4622461FFA84F8C1
:1059500005F0B4FED9F804301D22304639460193D3
:1059600000925346424603F06DFDD9F808301B22E1
:1059700039463046019300925346424603F062FD99
:105980004FF01C0CD9F80C30424639463046CDE970
:1059900000C3534603F056FDB9F810C01923424620
:1059A00039463046CDE9003C534603F04BFD102309
:1059B000424639463046CDE900B3534603F042FD36
:1059C0002346C5F38F01059AD9F80000FDF7C6FC00
:1059D000099C2544B5F52C6FAAD31821D9F80000ED
:1059E000FEF7D4F8064678B9874B884A5B6B88493E
:1059F000984705E0844B0646864A5B6B8449984786
:105A000030460BB0BDE8F08FD9F800405B4603226A
:105A10004FF4FA612046FEF72FFA38B97A4B00208E
:105A20007D4A5B6B06467A499847E9E709AA9D21BA
:105A3000204601F0D9FFBDF824500520012305F0D0
:105A4000070509AA2146ADF82450FFF793FC20462C
:105A5000FEF718F90028E1D04FF44073D9F8005050
:105A6000BDF82460ADF824302846069B1E60FEF782
:105A7000F9F8044668B1644C2B465846674A656B92
:105A80006349A8470020636B654A61490646984709
:105A9000B6E713230196634E024600932846624BF5
:105AA000A3465849029603F073FD0123DFF858918D
:105AB000224600932846029601945B4B514903F01D
:105AC00067FD09AB21212846002213F80BA0554B96
:105AD000009102934B49544BCDF804A003F058FDBC
